:100000000C9452050C9499050C9499050C9499053F
:100010000C9499050C9499050C9499050C949905E8
:100020000C9499050C9499050C94EB2C0C94BD2D13
:100030000C94A6250C9499050C9499050C9499059B
:100040000C9499050C9499050C9499050C949905B8
:100050000C9499050C940E260C9499050C94990512
:100060000C9499050C9499050C9499050C94990598
:100070000C9499050C9499050C9499050C94990588
:100080000C9499050C9499050C9499050C94990578
:100090000C9499050C9499050C9499050C94990568
:1000A0000C9499050C9499050C9499054008420804
:1000B0004D084408460848084A084C084F085108AB
:1000C00053085E085508570859085B085D08600822
:1000D000021B021B341B341B811BD71CD71CD71CD3
:1000E0009F1B341C451C451CA61CAF1CD71CD01CD8
:1000F000591D591D6B1D6B1D621D6B1D6B1D6B1DED
:10010000591D591D671D6B1D6B1D671D2A2E512E14
:10011000492F512E492F9D2EC02E492F172F262FA4
:1001200000F035001E001F002000210022002300E7
:1001300024002500260027002D002E002A002A007A
:100140002B00000014001A000800150017001C0006
:1001500018000C00120013002F003000310029425B
:10016000000004001600070009000A000B000D0043
:100170000E000F003300340028000000E1000000F2
:1001800001001D001B0006001900050011001000F1
:1001900036003700387252004C00E000E3000000E7
:1001A000E2002C00000001510000015100002D0070
:1001B0002E00500051004F0029003A003B003C0047
:1001C0003D003E003F004000410042004300AA00C5
:1001D000A900A6004C002800000001000100520008
:1001E0000100C35CC25C4B0052004E00460001009F
:1001F0000100005C390000004A00500051004F002F
:1002000001004A00500051004F004D004D00010018
:1002100000000100000001002A004C003100BD5C1C
:10022000BF5CBE5C0100AA00A90038024B00490077
:100230000100010000000100280000000100000092
:1002400001000000010001004A004E004D0029009D
:100250003E013E004300440045003F004000410095
:1002600042004300AA00A900A6004C00280000009C
:10027000A60001002F023002C35CC25C01005200E4
:10028000010046000C000100005C010000000100BC
:1002900001002602270236023702360237022F00FB
:1002A00030000100580000000100000001002A0099
:1002B0002F003000BD5CBF5CBE5C0100010001008E
:1002C0000100A90049000100010000000100280010
:1002D00000000100000001000000010001004A00D0
:1002E000AA004D0044454255473A20646973616253
:1002F0006C65642E0A0044454255473A20656E619C
:10030000626C65642E0A000A002530313662003ABC
:10031000200025303258000A722F632030313233EA
:100320003435363738394142434445460A0072670E
:10033000626C696768742074696D657220646973A2
:1003400061626C652E0A007267626C69676874206E
:1003500074696D657220656E61626C65642E0A0059
:100360007267626C6967687420736574206873765D
:10037000205B4E4F454550524F4D5D3A2025752C20
:1003800025752C25750A007267626C696768742090
:1003900073657420687376205B454550524F4D5D00
:1003A0003A2025752C25752C25750A007267626C1C
:1003B00069676874207261696E626F772073657413
:1003C000206873763A2025642C25642C25642C251E
:1003D000750A007267626C6967687420646973618A
:1003E000626C65205B454550524F4D5D3A20726707
:1003F000626C696768745F636F6E6669672E656EAD
:1004000061626C65203D2025750A007267626C6927
:1004100067687420656E61626C65205B454550526B
:100420004F4D5D3A207267626C696768745F636FF5
:100430006E6669672E656E61626C65203D2025756C
:100440000A007267626C6967687420746F67676C12
:1004500065205B454550524F4D5D3A207267626C96
:10046000696768745F636F6E6669672E656E616247
:100470006C65203D2025750A007267626C696768AB
:1004800074206D6F6465205B4E4F454550524F4D53
:100490005D3A2025750A007267626C69676874208E
:1004A0006D6F6465205B454550524F4D5D3A202588
:1004B000750A007267626C696768745F696E697457
:1004C000207267626C696768745F636F6E666967E4
:1004D0002E6D6F6465203D20302E20577269746543
:1004E0002064656661756C742076616C7565732037
:1004F000746F20454550524F4D2E0A007267626C52
:10050000696768745F696E6974206565636F6E669C
:100510006967206973206E6F7420656E61626C6517
:10052000642E0A007267626C696768745F696E693D
:1005300074207374617274210A007267626C696757
:1005400068745F696E69742063616C6C65642E0AFF
:10055000007267626C696768745F636F6E66696773
:100560002E7370656564203D2025640A0072676201
:100570006C696768745F636F6E6669672E76616C1D
:10058000203D2025640A007267626C696768745FA9
:10059000636F6E6669672E736174203D2025640A5F
:1005A000007267626C696768745F636F6E66696723
:1005B0002E687565203D2025640A007267686C69A5
:1005C0006768745F636F6E6669672E6D6F64652020
:1005D0003D2025640A007267626C696768745F6316
:1005E0006F6E6669672E656E61626C65203D2025C1
:1005F000640A007267626C696768745F636F6E6635
:10060000696720454550524F4D3A0A0000047F3F2C
:100610001F643214643214783C1E1E140A0522230F
:10062000252628292A2C2D2F3032333536383A3BCF
:100630003D3E4042434547494A4C4E505153555721
:10064000595A5C5E6062646668696B6D6F71737540
:1006500077797B7D7F81838587898A8C8E90929440
:1006600096989A9C9E9FA1A3A5A7A8AAACAEAFB14D
:10067000B3B4B6B8B9BBBCBEBFC1C2C3C5C6C7C997
:10068000CACBCCCDCED0D1D2D2D3D4D5D6D7D7D851
:10069000D9D9DADADBDBDBDCDCDCDCDCDDDDDDDDA3
:1006A000DCDCDCDCDCDBDBDBDADAD9D9D8D7D7D6AB
:1006B000D5D4D3D2D2D1D0CECDCCCBCAC9C7C6C562
:1006C000C3C2C1BFBEBCBBB9B8B6B4B3B1AFAEACA8
:1006D000AAA8A7A5A3A19F9E9C9A98969492908E53
:1006E0008C8A89878583817F7D7B79777573716F2C
:1006F0006D6B6968666462605E5C5A595755535108
:10070000504E4C4A4947454342403E3D3B3A3836BD
:10071000353332302F2D2C2A292826252322FFAAD3
:100720007F554000000000000000000000010101B2
:10073000010101010101020202020202020203039D
:100740000303030303040404040405050505050667
:100750000606060607070707080808080909090A20
:100760000A0A0B0B0B0C0C0C0D0D0D0E0E0E0F0FC1
:100770001010101111121213131414151516161748
:1007800017181819191A1A1B1C1C1D1D1E1F1F20B3
:10079000212122232324252526272828292A2B2CFA
:1007A0002C2D2E2F30313132333435363738393A1B
:1007B0003B3C3D3E3F404142434445464748494B10
:1007C0004C4D4E4F50525354555758595A5C5D5EDC
:1007D000606163646567686A6B6C6E6F7172747672
:1007E00077797A7C7D7F8182848687898B8D8E90D4
:1007F00092949597999B9D9FA1A2A4A6A8AAACAEFE
:10080000B0B2B4B6B9BBBDBFC1C3C5C8CACCCED0E7
:10081000D3D5D7DADCDEE1E3E6E8EAEDEFF2F4F790
:10082000F9FCFF0A002530325820006B6579626FB1
:100830006172645F7265706F72743A20000A0025FD
:10084000303258006B6579626F6172645F736574F2
:100850005F6C65643A200064656C5F6B65795F620C
:1008600069743A2063616E27742064656C3A2025B0
:100870003032580A006164645F6B65795F62697445
:100880003A2063616E2774206164643A2025303217
:10089000580A006261636B6C6967687420737465E1
:1008A000703A2025750A006261636B6C6967687431
:1008B0002064697361626C650A006261636B6C69D4
:1008C00067687420656E61626C650A006261636BC3
:1008D0006C6967687420746F67676C653A2025756A
:1008E0000A006261636B6C69676874206465637297
:1008F000656173653A2025750A006261636B6C69F6
:1009000067687420696E6372656173653A20257546
:100910000A005B735D004B6579626F6172642073DE
:10092000746172742E0A005B575D005B535D005B5F
:10093000525D005B445D005B435D000403300000DA
:10094000000A0344005A0036003000000010034B38
:100950000042004400460061006E00730000000485
:1009600003090409025B00030100A0FA0904000066
:1009700001030101000921110100012240000705C6
:10098000810308000A090401000103000000092195
:10099000110100012271000705820320000A0904E9
:1009A00002000203000000092111010001222200BF
:1009B000070583032000010705030320000112013E
:1009C000100100000008EDFE602201000102030199
:1009D0000631FF0974A1010975150026FF00952055
:1009E000750881020976150026FF0095207508918B
:1009F00002C005010980A10185031601002603003C
:100A00001A81002A8300751095018100C0050C0928
:100A100001A1018504160100269C021A01002A9CEE
:100A200002751095018100C005010906A101850527
:100A3000050719E029E715002501950875018102D0
:100A400005081901290595057501910295017503A0
:100A500091010507190029EF1500250195F0750191
:100A60008102C005010906A101050719E029E71562
:100A70000025019508750181029501750881010520
:100A800008190129059505750191029501750391D4
:100A9000010507190029FF150026FF0095067508B6
:100AA0008100C00011241FBECFEFDAE0DEBFCDBF52
:100AB00004B603FE27C08091DF029091E002A0916E
:100AC000E102B091E2028730904BA740B04BD1F4E5
:100AD0001092DF021092E0021092E1021092E20204
:100AE00014BE84B7877F84BF0FB6F894A895809111
:100AF0006000886180936000109260000FBEE0E0AB
:100B0000F8E3099511E0A0E0B1E0E2EBF0E602C005
:100B100005900D92A839B107D9F722E0A8E9B1E014
:100B200001C01D92AF3DB207E1F70E940A2A0C9462
:100B300057300C940000FF93EF93E0919801F091EF
:100B40009901309709F00995EF91FF910895FC0103
:100B50008591803011F0EFDFFBCF0895FF27E0E2B1
:100B600030E247FF0CC0419597FF09C0EDE2609568
:100B7000709580959095611D711D811D911D27FFB8
:100B800002C0219530E350E2AA27660F771F881F25
:100B9000991FAA1FA41710F0A41B63955A95A9F7D3
:100BA000AA3008F0A95FA05DAF93F39561157105B8
:100BB0008105910541F7ED3211F4EF93F395F217AA
:100BC00018F43F93F395FBCF8F91B5DFFA95E1F7DA
:100BD0000895E991F9918591803021F0853219F0DD
:100BE000AADFF9CF089520E0E89455915532C1F37A
:100BF000503311F4689455915A3348F4505390F39C
:100C0000220F022E220F220F200D250FF4CF0EF4FB
:100C1000219589919991533619F3533729F1533519
:100C200059F1BC0188279927E8945C3621F4899111
:100C3000999168945591543639F446EF7EF077FFD8
:100C40000DC08FEF9FEF0AC055374AE039F0583595
:100C500040E121F0523642E009F00895FF93EF930E
:100C60007DDFEF91FF91B7CFFF93EF93FC0181916F
:100C70008030B9F360DFFBCFFF93EF9368DFF1CFF4
:100C8000DF93CF93CDB7DEB72596A3DFCF91DF916A
:100C9000089580913001909131018130910521F0CA
:100CA000029729F485E301C089E20E94501A10924C
:100CB000310110923001089580912D0190912E0103
:100CC0008130910521F0029729F48CE201C088E27D
:100CD0000E94501A10922E0110922D010895FC01CD
:100CE0008081813049F48185811109C08285882302
:100CF00031F082E090E0089588E090E0089581E08E
:100D000090E008950E946F06909331018093300126
:100D10008130910519F0029719F0089589E201C018
:100D200085E30C9439190E946F0690932E018093ED
:100D30002D018130910519F0029719F0089588E28C
:100D400001C08CE20C9439190C94860C229A2A9AD0
:100D500008950E94870C0C94A60681FF02C02A9871
:100D600001C02A9A0C94A407CF93DF9361111FC08E
:100D7000EC010E942A23282F22723A81809143019C
:100D800090914401332341F0222311F065E301C027
:100D900069E20E94212507C0222311F065E301C00A
:100DA00069E20E942C25DF91CF910C947B23DF9187
:100DB000CF91089581E0089581E008950C94DC06B8
:100DC0001F93CF93DF9300D000D01F92CDB7DEB733
:100DD00049835A836B832091D60189819A8121119D
:100DE00012C0662349F00E94A922182F682F89811A
:100DF0009A810E94522203C00E947D22182F69818D
:100E00007A81812F04C00E94A92269817A810F9082
:100E10000F900F900F900F90DF91CF911F910C9436
:100E2000DD09FC01408151816281738184810C94D0
:100E3000E0060E9464160C94A406E82FE295EF7079
:100E4000F0E032A1282F2F7081E090E001C0880FE0
:100E50002A95EAF78095832382A30895CF92DF92A3
:100E6000EF92FF92863030F4811105C0909180009E
:100E70009F7D04C085E090918000906290938000F7
:100E8000282F30E0AFEFBFEF0E94E82F25E030E0E1
:100E900040E050E00E94C02FC9012C3764E13607C2
:100EA00028F469E070E00E94982F29C0DA01C90196
:100EB0008A50974DAF4FBF4F6627782F892F9A2FB3
:100EC00025EF38E241E050E00E94C02F69017A012D
:100ED000CA01B9010E947C2F9B01AC01C701B60178
:100EE0000E947C2FBB27A92F982F872F009721E0E6
:100EF000A207B10511F0BC0102C06FEF7FEF709344
:100F00008B0060938A00FF90EF90DF90CF90089560
:100F1000269A86E30E941D0782E28093800089E181
:100F2000809381008FEF9FEF9093870080938600DE
:100F30000C9471260E940824811102C00E949724FB
:100F40000E9488070C94A90608950C94AD06089594
:100F50000E94471D0E94A7072FEF84E39CE02150C9
:100F600080409040E1F700C000000C9434260F93BD
:100F70001F93CF93DF938C010E941107EC01B801FE
:100F80000E94C115B801CE010E94DE06882309F433
:100F90000AC2B801CE010E940816882309F403C2D0
:100FA000B801CE010E942B17882309F4FCC1CA3C6A
:100FB000FCE5DF0741F4F8018281882309F4F3C1DD
:100FC0000E947F11F0C1CB3C8CE5D80708F01EC110
:100FD000C33C9CE5D90761F4F8018281882309F4B8
:100FE000E2C10E942A238272E1F00E94BC13DBC19D
:100FF000C43CECE5DE07C0F0C63C9CE5D90709F42B
:10100000D6C008F0E8C0C43CFCE5DF0709F0D7C053
:10101000F8018281882309F4C6C10E942A238272C2
:1010200021F30E94AF13BFC1C531FCE5DF0708F013
:1010300087C0C2308CE5D80708F452C0F80182811D
:10104000882309F454C00E940824811102C00E9420
:1010500097240E941B2490E09093D0028093CF02AB
:10106000FE01E350FC45E231F10530F4EA5AFF4F4E
:101070008091CF020C94E22F8091CF02816027C033
:10108000826025C0846023C0806121C080621FC04F
:1010900080641DC080681BC08460886018C08E7F1B
:1010A00016C08D7F14C08B7F12C08F7E10C08F7DC5
:1010B0000EC08F7B0CC08F770AC08B7F877F07C0E5
:1010C00087FB222720F991E0922790FB87F98093F4
:1010D000CF028091CF020E941F240E94471D63C14E
:1010E000C1159CE5D90751F0C130DC4579F0C80144
:1010F000DF91CF911F910F910C94DA06F801828154
:10110000882309F450C10E94A8074DC1F8018281CB
:10111000882309F448C180916E02C82FC095C17020
:10112000C0FB80F980936E02CC2329F086EF92E019
:101130000E94A70538C184EE92E00E94A70534C141
:10114000C631FCE5DF0739F50E942A23982FF80104
:1011500082812091430130914401882379F09A7A69
:1011600081E009F480E080939A01911102C069E264
:1011700001C065E3C9010E9421250AC080919A013E
:10118000811102C069E201C065E3C9010E942C25FA
:101190000E947B2308C1C23CDC4509F0A8CFF801BE
:1011A0008281882309F4FFC00E947514FCC0F801F5
:1011B0008281882309F4F7C00E944311F4C0C53C22
:1011C000DC4509F094CFF8018281882309F4EBC053
:1011D0000E943611E8C0F8018281C83CFCE5DF07B7
:1011E00031F4882309F4DFC00E946111DCC0C93CDE
:1011F000DC4530F4882309F4D6C00E945211D3C0D4
:10120000882309F4D0C00E947011CDC0C13DECE527
:10121000DE0781F4F8018281882309F4C4C00E94AA
:10122000600F8F3028F00E94600F843108F4F9CEEF
:101230008FE00FC0C23DFCE5DF0708F05CC0CD3C8D
:101240008CE5D80749F4F8018281882309F4ABC002
:1012500081E00E94BF13A7C0CE3C9CE5D907C0F433
:10126000CB3CECE5DE0741F4F8018281882309F4E8
:101270009AC00E94680F97C0CC3CDC4509F037CF7C
:10128000F8018281882309F48EC00E94790F8BC0F7
:10129000F8018281CF3CFCE5DF0771F4882309F473
:1012A00082C00E94600F863028F00E94600F883054
:1012B00008F4B7CE86E0CDCFC03DDC4570F488237E
:1012C00009F471C00E94600F823028F00E94600F04
:1012D000853008F4A6CE82E0BCCF882309F463C031
:1012E0000E94600F893028F00E94600F8E3008F451
:1012F00098CE89E0AECFC53DECE5DE0739F4F801C4
:101300008281882309F44FC083E2A3CFC63DFCE568
:10131000DF0740F5F8018281C33DFCE5DF0729F4D2
:10132000882309F440C088E194CFC43DDC4568F4CB
:101330008823C9F10E94600F853128F00E94600F58
:10134000873108F46ECE85E184CF882361F10E9455
:10135000600F893128F00E94600F823208F461CE5C
:1013600089E177CFCD3DECE5DE0741F4F8018281DC
:101370008823C9F082E00E94B22A15C0CE3DFCE568
:10138000DF0739F4F8018281882369F00E949724ED
:101390000AC0CC3DDC4509F0AACEF8018281882341
:1013A00011F080E0E8CFC0E08C2FDF91CF911F914A
:1013B0000F91089580E090E008952BE4829FC00192
:1013C0001124FC012FE0729FE00DF11D1124E60FA6
:1013D000F11DEE0FFF1FEE5DFE4F85919491089574
:1013E000880F991FFC01E05EFE4F8591949108954E
:1013F000CF93DF930E94DD090E94E70BEC0181157A
:1014000021E5920708F042C0811540E5940708F0F5
:101410002DC1883E910500F5803E910508F0D3C1AD
:10142000883A910570F4853A910508F0A2C08130A0
:10143000910509F4C8C108F479C1049708F0C3C143
:1014400075C18F3B910508F49FC0803C910508F45D
:101450006DC1805C9109F9C0C11580E3D80780F4A3
:10146000C11520E2D20708F0EEC0C03FD10508F454
:101470005DC1CF3FD10511F008F0A5C1D065A3C172
:10148000C11540E4D40708F0EEC0E3C0C11589E5FA
:10149000D80760F5C11528E5D20708F033C1C1159A
:1014A00044E5D40778F4C11583E5D80708F00FC1E7
:1014B000C11522E5D20708F0F4C0DC2FCC27C16F9C
:1014C000D06A81C1C11545E5D40708F416C1C1151C
:1014D00086E5D80708F02AC18C2F0E94630C8F7113
:1014E000C82FD0E0DC2FCC27D0626DC1CD3B2CE5DE
:1014F000D20709F412C1E0F4CB3B8CE5D80709F41C
:1015000006C108F007C1C1154AE5D40708F00EC1AD
:101510008C2F8F700E94630C94E0D695C7959A9596
:10152000E1F7CF70D0E0DC2FCC27D069C82B4BC1BE
:10153000C03C8CE5D80709F4F6C060F4CE3B4CE51E
:10154000D40709F4EDC0CF3BDC4509F0EFC0C0E0A3
:10155000D2ED39C1CE0190568115904208F0E6C017
:101560008D2F8F710E94630CDD27D0628F71D82B75
:101570002AC1853A910509F4DCC0863A910509F043
:10158000DBC0C2E8D0E41FC1883A910509F4D7C096
:10159000893A910509F4D6C08A3A910509F4D5C073
:1015A0008B3A910509F4D4C08C3A910509F4D3C063
:1015B0008B3B910509F4D2C08C3B910509F4D1C055
:1015C0008D3A910509F4D0C0803B910509F4CFC054
:1015D0008E3A910509F4CEC08F3A910509F4CDC039
:1015E000813B910509F4CCC0823B910509F4CBC045
:1015F000833B910509F4CAC0843B910509F4C9C035
:10160000853B910509F4C8C0863B910509F4C7C024
:10161000873B910509F4C6C0883B910509F4C5C014
:10162000893B910509F4C4C08D3B910509F4C3C001
:101630008E3B910509F4C2C08A3B910509F4C1C0F3
:10164000C0E0D4E4C0C0CE019F700E94F009EC015C
:10165000BAC0CE019927D3FF03C0EC01D86CB3C048
:10166000EC01D06CB0C0DF70D06AADC074E096956C
:1016700087957A95E1F783709C2F937021E030E095
:1016800002C0220F331F9A95E2F73C68382BCF70C7
:10169000C695C69540E2C49FE0011124C22BD32B0E
:1016A00092C0CE018370992721E030E002C0220F62
:1016B000331F8A95E2F78C2F8695869540E2849FAA
:1016C000C0011124E901C82BD92BDC687CC0CE01F4
:1016D0008370992721E030E002C0220F331F8A95E2
:1016E000E2F78C2F8695869540E2849FC0011124F5
:1016F000E901C82BD92BDA6866C0DC2FCC27C46F70
:10170000D06A61C0DC2FCC27C06FD06A5CC0C0E05B
:10171000D4ED59C0C0E0D5ED56C0C0E0D1ED53C006
:10172000C0E0D0ED50C0C0E0D3ED4DC0C0E0D0E08F
:101730004AC0C1E8D0E447C0C3E8D0E444C0C2EE28
:10174000D4E441C0C9EED4E43EC0CAEED4E43BC008
:10175000C5EBD4E438C0C6EBD4E435C0C3EBD4E465
:1017600032C0C4EBD4E42FC0C7EBD4E42CC0CCEC23
:10177000D4E429C0CDECD4E426C0C3E8D5E423C02A
:10178000CAE8D5E420C0C2E9D5E41DC0C4E9D5E467
:101790001AC0C1E2D6E417C0C3E2D6E414C0C4E262
:1017A000D6E411C0C5E2D6E40EC0C6E2D6E40BC052
:1017B000C7E2D6E408C0CFE6D4E405C0C0E7D4E46D
:1017C00002C0CAE2D6E4CE01DF91CF9108958238FB
:1017D000910549F1B0F48133910509F459C048F4F9
:1017E0008932910509F44FC08A32910509F455C038
:1017F00008958533910509F441C08933910599F025
:101800000895833E910531F138F4803E910591F0C1
:10181000823E9105A9F00895863E910501F1873E2B
:10182000910539F108952091CF0220FD3BC021FDA3
:1018300039C008958091CF0280FF34C089E341C050
:101840008091CF0282FF30C08091CF0284FD2EC0F4
:1018500083EE37C08091CF0282FD26C0F5CF809104
:10186000CF0283FF25C08091CF0284FD1FC087EE89
:1018700028C08091CF0283FD1BC0F5CF8091CF029D
:1018800085FD18C019C08091CF0285FD15C012C01A
:101890008091CF0286FD12C013C08091CF0286FDD9
:1018A0000FC00CC080EE0DC082EE0BC080E009C0FE
:1018B00086EE07C089E205C085E303C08AE201C065
:1018C00081E390E008959091CF0292FF0DC0282F00
:1018D0002871283019F4877F846006C0282F24716E
:1018E000243011F48B7F886093FF0DC0282F28715E
:1018F000283119F4877E846106C0282F2471243191
:1019000011F48B7E886194FD877E089508950C9470
:10191000860CE82FF0E0EE0FFF1FE556FE4F8081AA
:1019200091810895CF92DF92EF92FF920F931F93D0
:10193000CF93DF9387E193E00E94A7058BE9E82E20
:1019400081E0F82EC0E0D0E092E1C92E93E0D92EDC
:1019500009E013E0DF93CF93DF92CF920E9440061D
:101960008FE093E00E94A705F701819191917F019B
:101970000E94F5239F938F931F930F930E9440061D
:1019800087E093E00E94A70521968DB79EB7089641
:101990000FB6F8949EBF0FBE8DBFC530D105D1F6EE
:1019A000DF91CF911F910F91FF90EF90DF90CF903B
:1019B0000895CF93DF93AFE5B1E044E651E061E0F5
:1019C00070E08D91E82FE295EF70F0E021A18F702B
:1019D000EB0102C0CC0FDD1F8A95E2F7CE019C2FF0
:1019E0009095922391A392A1892B82A34A175B071A
:1019F00041F7A0E5B1E04FE551E061E070E08D9185
:101A0000E82FE295EF70F0E021A18F70EB0102C0AA
:101A1000CC0FDD1F8A95E2F7CE019C2F9095922383
:101A200091A392A1892B82A34A175B0741F7E5EAAC
:101A3000F1E0ABE9B1E08FEA91E0119211921D92D1
:101A40001D928E179F07C9F785E00E94CA0DDF918E
:101A5000CF910C949A073F924F925F926F927F9230
:101A60008F929F92AF92BF92CF92DF92EF92FF92AE
:101A70000F931F93CF93DF936FE571E0A5EAB1E079
:101A80002FEA622E21E0722E412C01E010E05D0170
:101A90008D909C90119711961C921E92EB0189914A
:101AA000BE01E82FE295EF70F0E021A18F70A80150
:101AB00002C0440F551F8A95E2F7CA01242B21A3C7
:101AC00022A1342E3094232122A350EA5A95F1F713
:101AD00090E5E92E91E0F92E40E050E0E7015990C1
:101AE0007E01252D22952F7030E0E90128A1CD90AF
:101AF000DC90119730E0D52DDF7002C03595279529
:101B0000DA95E2F720FD08C09801042E02C0220FEA
:101B1000331F0A94E2F702C020E030E0C22AD32A41
:101B20001196DC92CE924F5F5F4F4F305105B1F668
:101B300091A1D32DD923D1A392A1892B82A312964F
:101B400081E0F501208131812815390509F480E013
:101B5000482A6A167B0609F09ACF242D45E06BE9E6
:101B600071E085EA91E00E94CB0D0E941907842D57
:101B7000DF91CF911F910F91FF90EF90DF90CF9069
:101B8000BF90AF909F908F907F906F905F904F909D
:101B90003F9008950895FF920F931F93CF93DF9383
:101BA000F82E092F162FD72FC42F222349F081E0BA
:101BB0008093B1010E94D8259093B0018093AF012A
:101BC0008091B1018823D9F08091AF019091B0014B
:101BD0000E94E425069798F0EF2DF02FA12FBD2F3E
:101BE00080E090E04C2F50E08417950734F4219169
:101BF00031912D933D930196F7CF1092B101DF9172
:101C0000CF911F910F91FF900895CF92DF92EF92A5
:101C1000FF920F931F93CF93DF93362F472F282FD9
:101C2000E82FF0E0711106C0ED5DF84F6491762F5A
:101C3000862F7BC0072F10E056E0659FC00111245E
:101C4000CFEFD0E0BE010E94982F5BEA5603C0019F
:101C5000579F900D1124830F911D830F911D982F75
:101C6000990F980F7E01E01AF10AEE9ED001EF9EC7
:101C7000B00DFE9EB00D11248B2F499FA0011124A1
:101C8000452F55277E01E41AF50AEE9EA001EF9E2E
:101C9000500DFE9E500D11246E01C91AD108C09E30
:101CA0007001C19EF00CD09EF00C11240F2D112755
:101CB000C01BD10BCE9F8001CF9F100DDE9F100D5A
:101CC00011246230710591F048F461157105E1F05D
:101CD00061307105B1F49B2FE52F0AC064307105A6
:101CE00069F040F06630710579F00BC0912FEB2F51
:101CF000822F0DC0922FEB2F852F09C0922FE12F3D
:101D000006C0952FE22F03C09B2FE22F812FF0E01A
:101D1000ED5DF84F7491E82FF0E0ED5DF84F6491C0
:101D2000E92FF0E0ED5DF84F8491DF91CF911F91A5
:101D30000F91FF90EF90DF90CF9008950895CF938B
:101D4000DF93762FE901682F842F0E94050E798397
:101D500068838A83DF91CF91089580919602282F1E
:101D6000269530E02115310519F48170826005C097
:101D70002532310524F0817088648093960208959D
:101D800088E090E00C941730CF92DF92EF92FF92B0
:101D90006B017C010E94AD0EB701A60188E090E0C6
:101DA000FF90EF90DF90CF900C943530E6E9F2E0B1
:101DB00083E0808311828FEF82838383148260812A
:101DC0007181828193810C94C40E80916E0280FF98
:101DD00008C083EF95E09F938F930E9440060F9079
:101DE0000F9080916E0280FF0FC0809196028170EB
:101DF0001F928F9386ED95E09F938F930E944006EC
:101E00000F900F900F900F9080916E0280FF0FC087
:101E10008091960286951F928F938BEB95E09F930E
:101E20008F930E9440060F900F900F900F9080911B
:101E30006E0280FF0EC0809197021F928F9381EAFD
:101E400095E09F938F930E9440060F900F900F9004
:101E50000F9080916E0280FF0EC0809198021F92B9
:101E60008F9387E895E09F938F930E9440060F9091
:101E70000F900F900F9080916E0280FF0EC08091A6
:101E800099021F928F938DE695E09F938F930E9406
:101E900040060F900F900F900F9080916E0280FF80
:101EA0000EC080919A021F928F9381E595E09F93D7
:101EB0008F930E9440060F900F900F900F900895FF
:101EC0008091960280FF02C08695089580E0089573
:101ED00080919A02833018F48F5F80939A02609108
:101EE00096027091970280919802909199020C94B9
:101EF000C40E80919A02882319F0815080939A022F
:101F00006091960270919702809198029091990247
:101F10000C94C40E6091360170E08091960280FFAF
:101F20000AC08091B60123E0829FC001112485562A
:101F30009D4F0C945C158091B501909135018917E6
:101F400080F7E82FF0E09F01220F331FE20FF31F0D
:101F5000E556FD4F1182108212828F5FF0CF909173
:101F6000960290FF16C09091B5012091350192170D
:101F700070F4E92FF0E0DF01AA0FBB1FEA0FFB1F8F
:101F8000E556FD4F8183608342839F5FF0CF0C94C1
:101F90008A0F0895CF93DF9300D01F92CDB7DEB79D
:101FA0009091960290FF0AC09E012F5F3F4F0E94C2
:101FB0009F0E4B8169818A810E94AF0F0F900F9015
:101FC0000F90DF91CF910895CF93DF93EC01EC81D7
:101FD000F0E0E25EF94F4491E6E9F2E0628181814E
:101FE0000E94CA0F8C818F5F8C83DF91CF910895FF
:101FF000CF93DF93EC01E6E9F2E0438162818C81CB
:102000000E94CA0F8C818F5F8C83DF91CF910895DE
:102010000F931F93CF93DF9300D01F92CDB7DEB7FE
:102020008C018091B20181110AC09E012F5F3F4F48
:102030004FEF6FEF0E949F0E8A818093B201F801EB
:102040008481813051F028F0823061F44091B201F6
:102050000AC08091B20140E007C06091B20140E047
:1020600080E003C040E080E060E00E94AF0FF80134
:10207000848190E0019663E070E00E94AC2F84833D
:102080000F900F900F90DF91CF911F910F910895B6
:102090004F925F926F927F928F929F92AF92BF9278
:1020A000CF92DF92EF92FF920F931F93CF93DF9324
:1020B00000D01F92CDB7DEB7F82EB62EE42E622EDA
:1020C0009091960290FFB4C0E92FE695AE2FB0E054
:1020D000AC59BE4F8C918093BE019E7F923061F4CB
:1020E0009E012F5F3F4F8F2D0E949F0E4B81698174
:1020F0008A810E94AF0F62C0823019F4E090990289
:102100005DC0863019F4F090970258C08930D9F339
:10211000893109F053C0E9518E2F8170782E81E00A
:10212000A72CA826E695F0E0E25EF84FC590D49083
:10213000412CDD249CEA892E93E0992E6091340194
:102140004616D0F5042D10E00C9DC0010D9D900D9C
:102150001C9D900D112470E00E94982F5F2C71102F
:1021600002C0560E01C0561A80916E0280FF11C047
:10217000DF92CF921F92AF921F925F921F924F9267
:102180009F928F920E9440060FB6F894DEBF0FBE5A
:10219000CDBF8091B501080F111D9801220F331F8B
:1021A000020F131F980125563D4F4E2D6B2D852D87
:1021B0000E949F0E4394C2CF0E948A0FF092970212
:1021C000B0929802E09299026620E9F0609196023E
:1021D0007091970280919802909199020E94C40E8A
:1021E00080916E0280FF24C0809199021F928F938C
:1021F000809198021F928F93809197021F928F93E4
:1022000087E893E00CC080916E0280FF11C01F929E
:10221000EF921F92BF921F92FF9280E693E09F93EE
:102220008F930E9440060FB6F894DEBF0FBECDBF5D
:102230000F900F900F90DF91CF911F910F91FF9012
:10224000EF90DF90CF90BF90AF909F908F907F9056
:102250006F905F904F900895E6E9F2E09181282F0A
:102260004381628188E0890F0C94481081E00C94CE
:102270002C11E6E9F2E09181282F4381628188EFF9
:10228000890F0C94481081E00C943911E6E9F2E0D2
:10229000628128E0620F08F46FEF282F438181816B
:1022A0000C94481081E00C944611E6E9F2E062815A
:1022B00028E0621B08F460E0282F438181810C94A0
:1022C000481081E00C945511E6E9F2E0438128E0E2
:1022D000420F08F44FEF282F628181810C9448103F
:1022E00081E00C946411E6E9F2E0438128E0421BAE
:1022F00008F440E0282F628181810C94481081E02D
:102300000C94731120E00C944810FF920F931F93CC
:10231000CF93DF93EC01F12C0FEF10E060913401CB
:10232000F616F0F48091B5012F2D30E0280F311D05
:10233000C901880F991F280F391F25563D4F70E09E
:10234000C8010E94AC2F962F8C8140919902609118
:102350009802F99E800D11240E949F0EF394DECF07
:102360000E948A0F9A818C8190FF02C08F5F01C00A
:1023700081508C83DF91CF911F910F91FF90089531
:10238000BF92CF92DF92EF92FF920F931F93CF9362
:10239000DF93FC01828180FF02C00FEF01C001E0EA
:1023A00010E0809134011817E0F58091B501C12E3D
:1023B000D12CE601C80FD11DCE01880F991FC80F7F
:1023C000D91FC556DD4F198218821A8234E0E32ED8
:1023D000F12CB12C8091B4018B0D87FF03C090913B
:1023E0003401890F082E000C990BC816D90691F4F8
:1023F000809199028E9DA0018F9D500D11245595BD
:102400004795559547959E01609198028091970256
:102410000E949F0EB00EF1E0EF1AF108D9F61F5F8F
:10242000C0CF0E948A0F8091B401013031F4811134
:1024300002C080913401815007C090E00196609104
:10244000340170E00E94AC2F8093B401DF91CF91F2
:102450001F910F91FF90EF90DF90CF90BF90089564
:10246000CF938091B50190913501891770F4E82FD1
:10247000F0E09F01220F331FE20FF31FE556FD4FDF
:102480001182108212828F5FF0CFC0E06091340120
:10249000C617C0F5EC2FF0E070E0CF010E94AC2F22
:1024A0002091B501820F2091B301022E000C330B55
:1024B00090E0E217F307CCF020913301022E000CDC
:1024C000330B2E173F078CF09C01220F331F820F16
:1024D000931F9C0125563D4F4091990260919802AF
:1024E000809197020E949F0E0BC0FC01EE0FFF1F10
:1024F0008E0F9F1FFC01E556FD4F11821082128244
:10250000CF5FC4CF0E948A0F209132018091B30126
:10251000820F8093B30190913301920F9093330116
:1025200019165CF4082E000C990B4091340150E010
:1025300041505109841795071CF0219520933201D1
:10254000CF9108950F931F93CF93DF938C01FC01DC
:102550008481958101968170992795838483C0E059
:10256000D5E580913401C81700F58091B5012C2F75
:1025700030E0280F311DC901880F991F280F391F1E
:1025800025563D4F4C2F4695F80184819581840F47
:10259000911D817040919902609198028D9F802DCC
:1025A00011240E949F0ECF5FDCCFDF91CF911F914E
:1025B0000F910C948A0F0F931F93CF93DF93EC012D
:1025C00000E010E080913401282F30E0021713075B
:1025D00024F59091B5019801290F311DA901440FEF
:1025E000551F240F351F25563D4F869590E04C8191
:1025F000081719071CF4442331F002C0411103C02D
:102600004091990201C040E0609198028091970248
:102610000E949F0E0F5F1F4FD5CF0E948A0F8C81A3
:1026200090E00196817099278C83DF91CF911F9163
:102630000F91089560919602669570E04BE050E02E
:1026400087E391E00E940230892B19F481E08093A6
:10265000BF010E94D8259093B8018093B701809163
:102660006E0280FF08C087E493E09F938F930E94DF
:1026700040060F900F9008951092BF0180916E0256
:1026800080FF08C08EE293E09F938F930E944006E4
:102690000F900F9008959091960290FF54C0917002
:1026A000811102C0926006C0853210F0986402C0A9
:1026B000880F982B909396026623B1F06091960252
:1026C0007091970280919802909199020E94C40E95
:1026D00080916E0280FF1BC08091960286951F92AA
:1026E0008F9387E994E00BC080916E0280FF0FC04A
:1026F0008091960286951F928F9389E794E09F932D
:102700008F930E9440060F900F900F900F90609152
:102710009602669570E04BE050E087E391E00E94FE
:102720000230892B19F00E943C1302C00E941A1338
:1027300081E08093BA014091990260919802809162
:1027400097020C9482110895682F909196029695A5
:1027500081E0890F853208F081E00C944B1381E011
:102760000C94A413682F9091960296958FEF890F81
:1027700009F484E20C944B1381E00C94B21361E0F1
:102780000C944B1380919602816080939602809105
:102790006E0280FF0DC01F9281E08F938BE094E06A
:1027A0009F938F930E9440060F900F900F900F9071
:1027B0008091960286950C94BF1360E00C944B13A5
:1027C0008091BD01811161C080916E028160809312
:1027D0006E028AE395E09F938F930E94400680915A
:1027E0006E020F900F9080FF08C084E295E09F93E7
:1027F0008F930E9440060F900F900E940824811131
:1028000010C080916E0280FF08C08CEF94E09F930F
:102810008F930E9440060F900F900E9497240E9471
:10282000D60E0E94C00E609396027093970280931A
:102830009802909399026E7FC1F480916E0280FF9E
:1028400008C083EB94E09F938F930E9440060F9003
:102850000F900E94D60E0E94C00E60939602709355
:10286000970280939802909399020E94AD0E0E9465
:10287000E50E1092BF018091960280FF03C08695FD
:102880000E94DD1381E08093BD010895809196023E
:102890008E7F80939602609196027091970280914C
:1028A0009802909199020E94C40E80916E0280FF5E
:1028B0000FC08091960281701F928F9383ED93E0F9
:1028C0009F938F930E9440060F900F900F900F9050
:1028D0000E943C132FEF80E792E02150804090400F
:1028E000E1F700C000000C948A0F80916E0280FF17
:1028F00010C080919602809581701F928F9382E420
:1029000094E09F938F930E9440060F900F900F903A
:102910000F908091960280FD0C9446140C94C21383
:102920000F931F93CF93DF938091BF01882309F406
:102930008CC08091BE01E0919602E695E81BE09381
:10294000B901823049F4F0E0E65EF94FE491CE2F10
:10295000D0E004EE1FE049C0863049F4F0E0E95EC3
:10296000F94FE491CE2FD0E008EF1FE03EC0893050
:1029700051F4E695F0E0EC5EF94FE491CE2FD0E013
:1029800005E811E132C08F3051F4E695F0E0EF5EDA
:10299000F94FE491CE2FD0E000EC11E126C0853153
:1029A00049F4F0E0E25FF94FE491CE2FD0E000E38C
:1029B00012E11BC0883181F0833239F4ECE0F6E09B
:1029C000C591D49108E010E110C0843251F4C4EFF5
:1029D000D1E00BED12E109C0C8EED3E002EA12E14A
:1029E00004C0C0EDD7E00EE91EE08091BA01882353
:1029F00089F01092BA010E94D8259E012095309549
:102A0000820F931F9093B8018093B7011092BC017D
:102A10001092BB018091B7019091B8010E94E4250A
:102A20008C179D0790F0E091B701F091B801CE0F9F
:102A3000DF1FD093B801C093B70187EB91E0F80195
:102A4000DF91CF911F910F910994DF91CF911F9149
:102A50000F9108952EB1342F309523233EB1432B8F
:102A60003FB7F894FC01680F791FE617F70789F064
:102A7000819198E04EB9000000C087FF2EB9880F01
:102A8000000000C000C000C02EB900C09A9591F7A8
:102A9000ECCF3FBF08952DB1242B2DB99B01220F00
:102AA000331F620F731F0E942A1587EC90E0019775
:102AB000F1F700C00000089544E00C944B15CF934B
:102AC000DF93EC0181E0898B8F810E942D23888523
:102AD0000E9440230E947B23EA81FB81CE0106965F
:102AE000309729F06C897D89DF91CF910994DF912E
:102AF000CF910895EF92FF920F931F93CF93DF939F
:102B0000FC012285211136C0EC01E380F480F7E559
:102B1000FF1A26E12E9DC0012F9D900D1124DC018E
:102B2000A050BF4F1496ED91FC9115978A5F9E4F70
:102B3000309729F054966D917C915597099586E1CF
:102B40008E9D80018F9D100D112400501F4FF801A4
:102B500087810E943323F80180850E9446230E94CA
:102B60007B23188219861B861E821D821092C1014A
:102B70001092C001DF91CF911F910F91FF90EF90C4
:102B80000895DF92EF92FF920F931F93CF93DF93FD
:102B9000FB0122812223A1F1209142012F3F81F1EB
:102BA0008C01C0E0D1E0E12CF12CDD24D3948091A4
:102BB0004201082E000C990B8E159F050CF18E8199
:102BC0008823C9F089859A858017910739F4809107
:102BD000C0019091C1010817190769F0DF861C87B1
:102BE0000B878989811103C0CE010E945F15CE0138
:102BF00006960E947A15FFEFEF1AFF0A6696D7CF66
:102C0000DF91CF911F910F91FF90EF90DF9008958A
:102C1000EF92FF920F931F93CF93DF939C01375551
:102C20002F3F310511F008F047C040914201042EBA
:102C3000000C550B4217530714F420934201FB017B
:102C40007C01828196E1929F8001939F100D112457
:102C5000E801C050DF4F888B92818E81992311F15A
:102C6000FA86E9868F5F8E830E94D8259E878D879E
:102C70000E9460238F830E942A2388870E943D231D
:102C80009885892B8887E881F981C8018A5F9E4FE2
:102C9000309719F06C897D890995F092C101E09215
:102CA000C0010AC0882341F08989882329F0C8011E
:102CB0008A5F9E4F0E947A1581E0DF91CF911F912C
:102CC0000F91FF90EF900895CF92DF92EF92FF92D5
:102CD0000F931F93CF93DF93809142018F3FF1F1C8
:102CE000F12C96E1E92E0F2D10E080914201082E83
:102CF000000C990B801791078CF1E09EF001E19E8A
:102D0000F00D1124E050FF4FC288D388C114D104C4
:102D100019F488ECC82ED12CE09EE001E19ED00D84
:102D20001124C050DF4F8E818823B1F08D859E85A0
:102D30000E94E425C816D90678F48989811103C058
:102D4000CE010E945F15E09EC001E19E900D11240E
:102D50008A5F9E4F0E947A15F394C5CFDF91CF9181
:102D60001F910F91FF90EF90DF90CF9008950F93F8
:102D70001F93CF93DF93C62FD42F122FFC01828194
:102D80008823C9F06093C4010E94D8259093C301A1
:102D90008093C20180E28C0F883008F057C0C77062
:102DA00081E001C0880FCA95EAF7DF91CF911F91AA
:102DB0000F910C94C21A8091C401681330C08091A5
:102DC000C2019091C3010E94E425883C910538F529
:102DD00000E20D0FCD17B9F080E28C0F883040F47F
:102DE000C77081E001C0880FCA95EAF70E94C91A2E
:102DF000083028F581E09D2F977001C0880F9A95C3
:102E0000EAF70E94C21A812F0E94AF1A0830F0F42C
:102E1000D77081E001C0880FDA95EAF70AC080E236
:102E20008C0F883098F4C77081E001C0880FCA9574
:102E3000EAF7DF91CF911F910F910C94C91A812F5E
:102E4000DF91CF911F910F910C94AF1ADF91CF9129
:102E50001F910F9108959C01CB01203F4CE5340751
:102E6000F9F078F4283DFCE53F07B9F0293D4CE541
:102E7000340711F1273D3C4531F526E241EE61EE84
:102E80001EC0223FFCE53F0799F070F0233F3C4510
:102E9000D1F427E245EE66EE12C027E245EE0EC001
:102EA00026E241EE60EE0BC027E245EE64EE07C07D
:102EB00026E241EE62EE03C028E241E065EE0E94A8
:102EC000B71680E00895FC018281882319F01092E2
:102ED000C401089581E008959093CA018093C901C7
:102EE0000895E091C901F091CA01309721F0019055
:102EF000F081E02D099480E00895EF92FF921F93F6
:102F0000CF93DF93FC01A091C901B091CA01109742
:102F100009F442C080914F01882341F08091CF0293
:102F200087FF04C08081818385E08083EF01129652
:102F3000ED91FC911397CE01099580916E0282FF6D
:102F40002BC080FF04C08BE298E00E94A70518E028
:102F500085E2E82E88E0F82E80916E0280FF0BC09B
:102F600088811F928F93FF92EF920E9440060F90EC
:102F70000F900F900F90115021961111EDCF80916D
:102F80006E0280FF09C083E298E0DF91CF911F912C
:102F9000FF90EF900C94A705DF91CF911F91FF90C8
:102FA000EF9008952091C7013091C8012817390783
:102FB00071F09093C8018093C701E091C901F0912D
:102FC000CA01309721F00680F781E02D0994089519
:102FD0002091C5013091C6012817390771F09093EF
:102FE000C6018093C501E091C901F091CA013097F3
:102FF00021F00084F185E02D0994089585B780685B
:1030000085BF85B7806885BF089508950C9405181D
:103010000C9406180C9405180C9405180E94FE17C1
:103020000E940A180C94081881E008950E94CF2588
:103030000E94D90C0E9458260E9471260E94E0131B
:103040000C940C18CF93C82F80916E0282FF1EC083
:1030500080FF04C084E498E00E94A70580916E027E
:1030600080FF0CC01F92CF938FE398E09F938F93C4
:103070000E9440060F900F900F900F9080916E026B
:1030800080FF04C08DE398E00E94A7058C2FCF91AC
:103090000C94A5075F926F927F928F929F92AF924E
:1030A000BF92CF92DF92EF92FF920F931F93CF9335
:1030B000DF93CDB7DEB72A970FB6F894DEBF0FBE09
:1030C000CDBF0E942B0D0E941418811111C08FEFEB
:1030D00089838A831B820E94D8258160782F9D83F3
:1030E0008C8349815A816B818D810E94051956C05C
:1030F0009CEC692E91E0792E00E010E08824839406
:10310000912C502E802F0E94890C6C01F301A1900C
:10311000B1903F01A826B926A114B10431F40F5F84
:103120001F4F0530110569F7D2CF80916E0281FDE6
:103130000E94920C80E090E07401082E02C0EE0C18
:10314000FF1C0A94E2F795012E213F21232B09F160
:103150008E835F82CE20DF2081E0CD2809F480E0DD
:1031600088870E94D8258160782F9A8789874E8129
:103170005F8168858A850E940519000F111FF8017B
:10318000E453FE4F80819181E826F926F182E082A6
:1031900005C001968F30910579F6C1CF0E94711755
:1031A0009091CB018917D9F00E9471178093CB01C0
:1031B0002A960FB6F894DEBF0FBECDBFDF91CF9138
:1031C0001F910F91FF90EF90DF90CF90BF90AF9045
:1031D0009F908F907F906F905F900C9422182A960A
:1031E0000FB6F894DEBF0FBECDBFDF91CF911F9118
:1031F0000F91FF90EF90DF90CF90BF90AF909F9096
:103200008F907F906F905F900895CF93DF93CDB7AD
:10321000DEB72B970FB6F894DEBF0FBECDBF4F833E
:10322000588769877A878B87DE01119686E0FD01D2
:1032300011928A95E9F785E0FE01379601900D928B
:103240008A95E1F749815A816B817C818D819E81CC
:103250000E9417202B960FB6F894DEBF0FBECDBF8D
:10326000DF91CF910895FC01808191810E94EB2232
:103270000895882309F413C1682F8238C1F40E948D
:10328000711781FD0CC169E3809143019091440164
:103290000E9421250E947B232FEF81EE94E0215094
:1032A00080409040E1F700C0000069E319C0833816
:1032B000F9F40E94711780FDF2C063E5809143012B
:1032C000909144010E9421250E947B232FEF81EEE3
:1032D00094E0215080409040E1F700C0000063E599
:1032E00080914301909144010E942C250C947B23F2
:1032F0008438C1F40E94711782FDD1C067E48091C7
:103300004301909144010E9421250E947B232FEFCD
:1033100081EE94E0215080409040E1F700C0000031
:1033200067E4DECF8CEF860F813A38F48091430159
:10333000909144010E942125D9CF80E2860F8830E8
:1033400048F4677081E001C0880F6A95EAF70E942F
:103350002D23CCCF8BE5860F833070F4653A29F0AE
:10336000663A31F083E890E005C081E890E002C061
:1033700082E890E00C94D21788E5860F873108F038
:103380008EC0683A09F445C0693A09F445C06A3A02
:1033900009F445C06B3A09F445C06C3A09F445C0DC
:1033A0006B3B09F445C06C3B09F445C06D3A09F428
:1033B00045C0603B09F445C06E3A09F445C06F3A18
:1033C00009F445C0613B09F445C0623B09F445C0BE
:1033D000633B09F445C0643B09F445C0653B09F40F
:1033E00045C0663B09F445C0673B09F445C0683BEE
:1033F00009F445C0693B09F445C06D3B09F445C07B
:103400006E3B09F445C06A3B09F445C080E090E09A
:1034100044C082EE90E041C089EE90E03EC08AEE6A
:1034200090E03BC085EB90E038C086EB90E035C083
:1034300083EB90E032C084EB90E02FC087EB90E00C
:103440002CC08CEC90E029C08DEC90E026C083E885
:1034500091E023C08AE891E020C082E991E01DC09C
:1034600084E991E01AC081E292E017C083E292E021
:1034700014C084E292E011C085E292E00EC086E2C0
:1034800092E00BC087E292E008C08FE690E005C0B2
:1034900080E790E002C08AE292E00C94E817089579
:1034A000882309F45BC0682F823879F40E94711771
:1034B00081FF54C069E380914301909144010E94CF
:1034C00021250E947B2369E310C08338B1F40E9458
:1034D000711780FF43C063E58091430190914401DF
:1034E0000E9421250E947B2363E5809143019091F6
:1034F00044010E942C250C947B23843879F40E948B
:10350000711782FF2BC067E48091430190914401C1
:103510000E9421250E947B2367E4E7CF8CEF860F72
:10352000813A18F380E2860F883048F4677081E0B2
:1035300001C0880F6A95EAF70E943323DCCF8BE540
:10354000860F833020F480E090E00C94D217685A04
:10355000673120F480E090E00C94E8170895CF9351
:10356000C82F0E943919C93349F42FEF87EE93E031
:10357000215080409040E1F700C000008C2FCF9197
:103580000C94501A882321F00E942D230C947B2345
:103590000895882321F00E9433230C947B230895FF
:1035A000CF92DF92EF92FF920F931F93CF93DF930F
:1035B0007C01062FC72FFC01158112951F70D28147
:1035C000D1110E944D230E942323882379F0DD230B
:1035D00069F080E2800F883048F082E00E94C523C5
:1035E0000E94232391E0D82ED92601C0D12CCC2EC5
:1035F000C2948FE0C8228C2D90E0FC01E859FF4F67
:103600000C94E22F8C2F807FCF70882311F0C2950D
:10361000C07FDD2399F0CC2309F483C180E2800FC1
:10362000883010F0011104C08C2F0E942D2303C09C
:103630008C2F0E9440230E947B2373C1802F0E9405
:10364000501ACC2309F4B3C180E2800F883010F007
:10365000011104C08C2F0E94332303C08C2F0E94C1
:1036600046230E947B23A3C18C2F807FCF708032A2
:1036700011F0C295C07F002319F00130C9F022C0BB
:10368000DD2371F0112341F0113031F40E946023E9
:103690008C2B0E9468238BC10E9460238C2B1DC041
:1036A000112319F0113009F482C10E94712325C041
:1036B000DD2321F0163008F07AC10EC0153008F075
:1036C00076C11BC0DD2361F0112331F0F701858144
:1036D00080FF27C18F7085838C2F0E94C21A67C11B
:1036E000112359F0093309F02DC1FFEF27EE83E0D4
:1036F000F15020408040E1F723C18C2F0E94C91A6D
:1037000056C18C2F86958695837019F0813061F0B3
:103710004EC1DD2321F0802F9C2F937002C080E0EA
:1037200090E00E94D2174BC1DD2321F0802F9C2F07
:10373000937002C080E090E00E94E81740C18C2F97
:10374000837009F045C0D11136C1402F429546958E
:103750004770440F440F602F6F70862F90E0A0E0F9
:10376000B0E0042E04C0880F991FAA1FBB1F0A9443
:10377000D2F704FF10C00FE010E020E030E004C0FA
:10378000000F111F221F331F4A95D2F70095109585
:103790002095309503C000E010E09801C695C695CD
:1037A000C370BC01CD01602B712B822B932BC230D7
:1037B00049F058F4C13019F00E946821FCC00E9401
:1037C0005621F9C00E947A21F6C00E945421F3C00C
:1037D000DD2319F08C2F817001C08695882309F4B0
:1037E000EAC0402F429546954770440F440F602F22
:1037F0006F70862F90E0A0E0B0E0042E04C0880F28
:10380000991FAA1FBB1F0A94D2F704FF10C00FE034
:1038100010E020E030E004C0000F111F221F331F12
:103820004A95D2F7009510952095309503C000E099
:1038300010E09801C695C695C370BC01CD01602B00
:10384000712B822B932BC23049F058F4C13019F000
:103850000E942D22B0C00E941B22ADC00E943F22B8
:10386000AAC00E948E21A7C0CF70DD2339F08C2F13
:103870000E94B421802F0E94C21A9DC0802F0E94F6
:10388000C91A8C2F0E94D52196C0023F01F128F45D
:10389000003F41F0013FA1F040C0033FF9F0043F79
:1038A00039F13BC0DD2341F0153008F080C08C2F8A
:1038B0008F710E94FA217BC0163008F078C0F7CFD4
:1038C000DD2339F08C2F8F710E94B42170C0DD236D
:1038D000C9F38C2F8F710E94D52169C0DD2329F097
:1038E0008C2F8F710E949F2162C00E949A215FC01D
:1038F000DD2349F0CF718C2F0E94B42163E08C2F1F
:103900000E94B02354C081E00E94C523123008F405
:103910004EC082E00E94C5234AC0DD2331F011234E
:1039200089F2802F0E94391942C0112391F2093384
:1039300049F49FEFE7EEF3E09150E040F040E1F70B
:1039400000C00000802F0E94501A31C04C2F4F70D1
:10395000602FC7010E94DA090E94C52030C0D11132
:103960002EC0CF70C23091F038F4CC2361F0C1305A
:10397000F1F40E94CA2623C0C43071F050F0C53063
:10398000B1F480E00AC00E94922619C00E943E272E
:1039900016C00E945A2713C085E00E9498270FC0C6
:1039A0004C2F4F70602FC7010E94B40608C088EFEB
:1039B0008C0D843020F40E9471170E94A507DD2031
:1039C000C9F00E941F2380FD15C0F70112820E94DA
:1039D00019230E94B421C7010E94031D0E941923CC
:1039E000DF91CF911F910F91FF90EF90DF90CF90DB
:1039F0000C94D521DF91CF911F910F91FF90EF9003
:103A0000DF90CF9008950F931F93CF93DF93EC0136
:103A1000988189812B813C81232B31F08F3F31F4B8
:103A200081E09F3F19F403C081E001C080E080FD88
:103A300013C0CE010E94B707882371F06881798195
:103A40008A810E94F6228C010E9451220E9442210A
:103A5000B801CE010E94D01ADF91CF911F910F9132
:103A600008950E944D230E945D230E947B2380E0E5
:103A700090E00E94D21780E090E00C94E8178091CB
:103A80004301909144010E9437250C94311D0E94FE
:103A90003A230C943F1DE92FE295EF704E2F50E032
:103AA000FA013297EE30F105B0F4E858FF4F0C946C
:103AB000E22F803F91F018F4883E68F40EC0843FF6
:103AC00051F40BC0883E48F0813F29F406C093FBB7
:103AD000882780F9089580E0089581E008950E9484
:103AE000EB220E944B1D0895CF93DF9300D000D0AE
:103AF0001F92CDB7DEB70F900F900F900F900F90E1
:103B0000DF91CF910895CF93DF9300D000D000D004
:103B1000CDB7DEB726960FB6F894DEBF0FBECDBF89
:103B2000DF91CF9108951F93CF93DF93C091D70179
:103B300016E08091D801C81799F0D0E01C9FF001E1
:103B40001D9FF00D1124E752FE4F4081518162818B
:103B50007381848195810E94831D2196C770E9CF6E
:103B6000DF91CF911F9108954091090250910A026F
:103B700060910B0270910C0280910D0290910E02E7
:103B80000C94831DCF9380910E0282958F7009F063
:103B90005FC080910B02882309F45AC08091D7013D
:103BA000B091D80170910902A0910A0240910C02D3
:103BB00050910D0291E07F3F09F090E0692FC6E03F
:103BC0008B1709F445C04115510521F0AF3F21F095
:103BD00020E003C021E001C0262F90E020FD35C089
:103BE000C89FF001C99FF00D1124E752FE4F2181BB
:103BF0002A132BC02081271328C02281211125C020
:103C0000238134812417350710F421503109241BF6
:103C1000350B283C3105C8F420910E022F7020612D
:103C200020930E0226E0289FF001299FF00D112419
:103C3000E252FE4F80818F708061808389E092E044
:103C40000E94031DCF910C94931D01968770B8CFED
:103C5000CF910895AF92BF92CF92DF92EF92FF92F1
:103C60000F931F93CF93DF93CDB7DEB761970FB656
:103C7000F894DEBF0FBECDBF8C0185E0F801DE01F8
:103C80001D9601900D928A95E1F7D8014C911196FD
:103C90005C9111971296EC903091090260910A02A2
:103CA00080910C0290910D02009731F06F3F31F43A
:103CB00021E03F3F19F403C021E001C020E0B22F12
:103CC000B170BB2E20FD60C1F801C380D480A090EC
:103CD0000B02AA2009F4EEC020910E02C816D906E4
:103CE00028F0D601A81BB90BCD0104C08095909592
:103CF0008C0D9D1DFF24F394883C910580F0F12CE0
:103D0000207F09F09CC07C2DD98AC88A6E2D8989B4
:103D10000E94741D89E092E00E94031D2DC1822F34
:103D2000807F09F054C0561314C0431312C0FE2CF8
:103D3000E1100FC02F70206120930E020E94B41D6D
:103D400089E092E00E94031D80910E02F8018583B4
:103D50005CC1CD2831F05F3F31F481E04F3F19F471
:103D600003C081E001C080E080FD03C081E08E25BA
:103D700002C080E090E0F82FF170FF2E80FF1CC0A1
:103D80008091D7012091D80136E0821709F41AC139
:103D900090E0389FF001399FF00D1124E752FE4F5B
:103DA0006181561306C06081461303C06281E6122A
:103DB00003C001968770E9CFFE2CEE2009F425C1DF
:103DC00080910E02816080930E02F12C1EC1561369
:103DD00009C0431307C0E11005C080910E02F8012D
:103DE0008583A4C04D875E878D859E850E946F1D4B
:103DF000882379F1EE2069F120910E02822F8295BD
:103E00008F7090E0029774F08091090290910A02FD
:103E100098878F831986DB86CA862C87CE01079602
:103E20000E94031D86E0F801A9E0B2E001900D9226
:103E30008A95E1F70E94C21D0E94B41D0DC056175D
:103E400071F04D875E878D859E850E946F1D811163
:103E50001AC0C8010E94031DFF24F394D6C0431367
:103E6000F0CFE110EECF80910E02F8018583C801FA
:103E70000E94031D86E0E9E0F2E0DF011D928A95D1
:103E8000E9F7FA2CC2C0EE2021F320910E02822F16
:103E900082958F7090E002972CF2809109029091A8
:103EA0000A029A8389831B82DD82CC822E83CE0113
:103EB0000196B6CFC816D90628F0F601E81BF90B13
:103EC000CF0104C0809590958C0D9D1D883C910577
:103ED00048F0F12C7C2DD98AC88A6E2D89890E94E0
:103EE000741D4AC0FE2CEE2009F4B3CF561333C024
:103EF000431331C020910E0220FD24C0822F8295F1
:103F00008F70482F50E041155105E1F0D80115960A
:103F10002C9315974F30510549F08F5F982F92954C
:103F2000907F822F8F70892B15968C93C8010E94E9
:103F3000031D86E0F801A9E0B2E001900D928A9598
:103F4000E1F73DC086E0F801A9E0B2E001900D92F2
:103F50008A95E1F75AC04D875E878D859E850E94C0
:103F60006F1D81115FCF80910E02816080930E02E0
:103F7000C8010E94031D49C0E9E0F2E086E0DF01CC
:103F80001D928A95E9F71BC0EE2009F462CF4D8798
:103F90005E878D859E850E946F1DF82E882309F40B
:103FA00058CF86E0F801A9E0B2E001900D928A9521
:103FB000E1F789E092E00E9433190E94C21D0E943D
:103FC000B41D23C04D875E878D859E850E94EB22A0
:103FD000292F22952F70223028F49F7039F08111FB
:103FE00005C00BC0243028F49F7049F4805E8830EF
:103FF00020F0C8010E94031DBF2CFB2C06C0D80175
:1040000015969C91907F91F7F8CF8F2D61960FB602
:10401000F894DEBF0FBECDBFDF91CF911F910F91FE
:10402000FF90EF90DF90CF90BF90AF9008951F93D7
:10403000CF93DF93CDB7DEB72C970FB6F894DEBFE2
:104040000FBECDBF4F83588769877A878B879C8740
:10405000CE0107960E942A1E8823D1F09F81888571
:104060002A853B85232B31F08F3F31F481E09F3F40
:1040700019F403C081E001C080E080FD47C04F819A
:10408000588569857A858B859C850E94831D3EC0F5
:1040900086E0FE013796DE01119601900D928A9519
:1040A000E1F7FF81E8856A857B856115710531F04F
:1040B000EF3F31F481E0FF3F19F403C081E001C01C
:1040C00080E080FD23C02091D80130E0C901019635
:1040D000877099274091D70150E084179507F1F137
:1040E000F983EA837D836C8396E0929FD001939F4E
:1040F000B00D1124A752BE4FFE01319601900D92D2
:104100009A95E1F78093D8010E94931D16E0809163
:10411000D7019091D801891771F1189FC00111241E
:1041200087529E4F0E942A1E882329F1E091D701D1
:104130001E9FF0011124E752FE4F408151816281A0
:104140007381848195810E94831D8091D70190E0C5
:104150000196877099278093D701D9CF0E94471D78
:104160001092D8011092D701E9E0F2E086E0DF0179
:104170001D928A95E9F72C960FB6F894DEBF0FBE14
:10418000CDBFDF91CF911F910895EF92FF920F93D2
:104190001F93CF93DF938C01892B09F46CC0F12C12
:1041A000EE24E394E8012196F8018491843740F4E9
:1041B000843008F051C0813081F0823019F15BC049
:1041C000853709F444C0A8F19CE7980F903708F0B0
:1041D00052C08F770E94501A41C00E5F1F4FFE01E0
:1041E000849190E2980F983050F48770FE2D01C0B2
:1041F000FF0F8A95EAF78F2F0E94502314C00E9468
:1042000039192DC00E5F1F4FFE01849190E2980F67
:10421000983060F48770FE2D01C0FF0F8A95EAF791
:104220008F2F0E9456230E947B2319C00E94501A90
:1042300016C00E5F1F4FFE01C491CC2381F08FE9A1
:104240009FE00197F1F700C00000C150F6CF0E5F6C
:104250001F4FFE01F49003C00E9439198E018F2D6B
:10426000882309F49FCFEFE9FFE03197F1F700C011
:1042700000008150F5CFDF91CF911F910F91FF90FA
:10428000EF900895089508950C9443210C944421CF
:104290000E94462160934502709346028093470234
:1042A000909348020C94311D0C9448210F931F9356
:1042B0000091450210914602209147023091480238
:1042C000602B712B822B932B1F910F910C94482103
:1042D0000F931F93009145021091460220914702CF
:1042E0003091480260237123822393231F910F9101
:1042F0000C9448210F931F930091450210914602A0
:104300002091470230914802602771278227932726
:104310001F910F910C9448210C9443210E948C21F1
:10432000609341027093420280934302909344024F
:104330000C94311D60E070E0CB010C948E210F9342
:104340001F9341E050E060E070E08A019B0104C0EF
:10435000000F111F221F331F8A95D2F7C901B80120
:104360001F910F910C948E210F931F9341E050E009
:1043700060E070E004C0440F551F661F771F8A95E8
:10438000D2F78091410290914202A0914302B091F4
:1043900044028A019B01082B192B2A2B3B2BC901B4
:1043A000B8011F910F910C948E210F931F9341E040
:1043B00050E060E070E004C0440F551F661F771F97
:1043C0008A95D2F7409550956095709580914102FD
:1043D00090914202A0914302B09144028A019B0154
:1043E000082319232A233B23C901B8011F910F91E8
:1043F0000C948E210F931F9341E050E060E070E039
:1044000004C0440F551F661F771F8A95D2F780910D
:10441000410290914202A0914302B09144028A016C
:104420009B01082719272A273B27C901B8011F919B
:104430000F910C948E210F931F93009141021091C4
:1044400042022091430230914402602B712B822B57
:10445000932B1F910F910C948E210F931F9300911A
:1044600041021091420220914302309144026023A4
:104470007123822393231F910F910C948E210F930C
:104480001F9300914102109142022091430230910A
:10449000440260277127822793271F910F910C9464
:1044A0008E2108952FE0929F800D1124E82FE6952C
:1044B000E695E695877051E001C0550F8A95EAF7B9
:1044C00085E0E89FF0011124E15FFD4F20E030E03E
:1044D00070E04081CB01022E02C0969587950A9428
:1044E000E2F78170819584278523842781932F5F4C
:1044F0003F4F2530310569F708952FE0929F800DD9
:104500001124682F669566956695982F977085E0BB
:10451000689FB001112440E050E080E0FB01E40F0F
:10452000F51FE15FFD4F208130E0092E02C0369576
:1045300027950A94E2F721703327042E01C0220F39
:104540000A94EAF7822B4F5F5F4F4530510531F7F0
:104550000895BF92CF92DF92EF92FF920F931F9335
:10456000CF93DF938C01C0904102D0904202E09043
:104570004302F09044028091450290914602A0913E
:104580004702B0914802C82AD92AEA2AFB2ACFE179
:10459000D0E0D701C6010C2E04C0B695A79597951B
:1045A00087950A94D2F780FD04C0219790F7B12C2B
:1045B00007C0BC2EB8018C2F0E94F8090197A9F3FF
:1045C0008B2DDF91CF911F910F91FF90EF90DF9096
:1045D000CF90BF900895CF93DF93EC010E94A92262
:1045E000BE010E94F809DF91CF9108951F93CF93E8
:1045F000DF93EB019091D601992321F0CB010E942A
:10460000EB2213C0882349F0CB010E94A922182F66
:10461000682FCE010E94522204C0CB010E947D224D
:10462000182FBE01812F0E94F809DF91CF911F91B1
:104630000895809149028595859585950895809185
:1046400049028770089590914902977081E009F4BA
:1046500080E0089580916D02089590916D02892BFC
:1046600080936D020895809590916D0289238093C7
:104670006D02089510926D02089580916C02089564
:1046800090916C02892B80936C0208958095909193
:104690006C02892380936C02089510926C02089535
:1046A00090916B02892B80936B0208958095909175
:1046B0006B02892380936B02089510926B02089518
:1046C00080914A02089508950C9463230C94642306
:1046D00090914A02981721F080934A020C94662325
:1046E000089580914A02882329F010924A0280E0BE
:1046F0000C9466230895E0914301F0914401809168
:104700006D028083E0914301F0914401908180919A
:104710006C02892B8083E0914301F09144019081E8
:1047200080916B02892B808380914A02882381F0DB
:10473000E0914301F09144019081892B8083809125
:104740004301909144010E94992481110E94712398
:1047500080914301909144010C947D170C94632344
:1047600098E0899F90011124262B209349020E94F2
:10477000B421809149028595859585950C94AE2349
:104780001092490280E00C94AE232091490280955A
:10479000822380934902982F977079F430E0482F54
:1047A000082E000C550B2417350739F08595859593
:1047B00085950E94D5210C94C0230895909399016A
:1047C0008093980108958295982F937344E0949F65
:1047D000900111248C7C86958695282B822F8575D7
:1047E000880F2A7A2695822B0895CF93DF93D92FAD
:1047F0000E94E323C82F8D2F0E94E3232C2F30E04B
:10480000322F2227A901482BCA01DF91CF910895A9
:1048100080E090E00E941D3021E08D3E9E4F09F027
:1048200020E0822F089582E090E00C940F3083E026
:1048300090E00C940F3084E090E00C940F30682FDF
:1048400084E090E00C94233086E090E00C940F30EC
:10485000682F86E090E00C942330AB01BC018FE020
:1048600090E00C943530AB01BC0183E190E00C94F6
:10487000353060E070E0CB010C94332460E070E0F0
:10488000CB010E942D240C9439246DEE7EEF80E044
:1048900090E00E94413060E082E090E00E9423308E
:1048A00060E083E090E00E94233010924502109275
:1048B0004602109247021092480260E084E090E0C5
:1048C0000E94233060E085E090E00E94233060E0A9
:1048D00086E090E00E9423306FEF87E090E00E9436
:1048E000233040E050E0BA0188E090E00E9435308B
:1048F00060E08DE090E00E94233040E050E0BA019B
:1049000088E190E00E94353060E087E190E00E940D
:10491000233040E050E0BA018CE190E00E94353055
:1049200060E080E290E00E9423300C943E240C94DE
:104930004524FC01329680914F01882331F080910B
:10494000CF0287FF02C09EE101C096E080E0915057
:1049500028F021912223D9F38F5FF9CF08959C018C
:10496000FC0132969FEF80E04191461789F09F3F0E
:1049700019F4411101C0982F8F5F8630A9F79F3F2E
:1049800039F0F901E90FF11D97FDFA956283089559
:1049900008959C012A5F3F4FFC014281461301C0EC
:1049A0001282019682179307B9F70895262F26954C
:1049B000269526952E3170F4FC01E20FF11D6770EB
:1049C00021E030E001C0220F6A95EAF78281282BAE
:1049D0002283089580916E0280FF0CC01F926F9316
:1049E00085E798E09F938F930E9440060F900F9069
:1049F0000F900F900895262F2695269526952E31F7
:104A000078F4FC01E20FF11D677021E030E001C095
:104A1000220F6A95EAF72095828128232283089540
:104A200080916E0280FF0CC01F926F9387E598E023
:104A30009F938F930E9440060F900F900F900F90BE
:104A4000089520914F01222329F02091CF0227FDC4
:104A50000C94D6240C94AF2420914F01222329F0EA
:104A60002091CF0227FD0C94FB240C94C9242091A3
:104A70004F01FC013296222331F08091CF0287FF53
:104A800002C08EE101C086E0DF011D928A95E9F740
:104A9000089508950C9449250C944925CF930E94BC
:104AA0004C250E942B0D0E944A25C0E08C2F0E94AD
:104AB000890C892B29F4CF5FC530C1F780E001C094
:104AC00081E0CF9108950C9449250C9463250E94B0
:104AD00065258091D602843061F110926F0220E446
:104AE00088E190E00FB6F894A895809360000FBE1F
:104AF0002093600080E00E942E0780E00E94A507BE
:104B00000E94652583B7817F846083BF83B78160FE
:104B100083BF7894889583B78E7F83BF0FB6F89450
:104B2000A895809160008861809360001092600079
:104B30000FBE08950C9449250E94471D0E947126BE
:104B40000E9471170E94A5070C949A251F920F923C
:104B50000FB60F9211248F939F93AF93BF938091C1
:104B60006F02811113C08091CB029091CC02A09171
:104B7000CD02B091CE024196A11DB11D8093CB0212
:104B80009093CC02A093CD02B093CE02BF91AF918F
:104B90009F918F910F900FBE0F901F90189582E0FC
:104BA00084BD93E095BD9AEF97BD80936E00089504
:104BB0002FB7F8948091CB029091CC02A091CD02B6
:104BC000B091CE022FBF0895CF92DF92EF92FF9265
:104BD0000F931F932FB7F8944091CB025091CC02C2
:104BE0006091CD027091CE022FBF6A017B01EE244D
:104BF000FF248C0120E030E0C016D106E206F30667
:104C000010F4415051099A01281B390BC9011F9119
:104C10000F91FF90EF90DF90CF90089578941F92BE
:104C20000F920FB60F9211248F939F93AF93BF9360
:104C30008091CB029091CC02A091CD02B091CE0296
:104C40000196A11DB11D8093CB029093CC02A0933D
:104C5000CD02B093CE02BF91AF919F918F910F90F3
:104C60000FBE0F901F90189581E08093E00080E2C6
:104C70008093D8001092C9008FE19EE40197F1F76C
:104C800000C0000087E090EBDC018093DF0290938E
:104C9000E002A093E102B093E2029CE088E10FB64B
:104CA000F894A895809360000FBE90936000FFCFAA
:104CB0000E940824811102C00E9497240E9413249C
:104CC00080936E020E941B2490E09093D002809308
:104CD000CF020E941724682F70E080E090E00C94CF
:104CE00054210E940824811102C00E9497240E942E
:104CF00024248093D102282F26952695269530E0EE
:104D00002630310524F0877088628093D10280912B
:104D1000D10280FF04C086958695869501C080E00B
:104D20000C942E072091D102822F86958695869528
:104D3000482F50E04530510554F48F5F982F990F5C
:104D4000990F990F822F8770892B8093D1028091C0
:104D5000D10281608093D1020E94282480916E024A
:104D600080FF11C08091D1028695869586951F920D
:104D70008F938AEF98E09F938F930E9440060F9045
:104D80000F900F900F908091D10286958695869511
:104D90000C942E078091D102982F96959695969512
:104DA000A1F0915E990F990F990F8770892B8093CD
:104DB000D102887F91E009F490E08091D10290FBCC
:104DC00080F98093D1020E94282480916E0280FF96
:104DD00011C08091D1028695869586951F928F93FA
:104DE00082EE98E09F938F930E9440060F900F9061
:104DF0000F900F908091D1028695869586950C94A0
:104E00002E078091D10280FD1FC081608093D10266
:104E1000813019F489E08093D1028091D1020E94FF
:104E2000282480916E0280FF08C08AEB98E09F934F
:104E30008F930E9440060F900F908091D10286952B
:104E4000869586950C942E0708958091D10280FF57
:104E500014C08E7F8093D1020E94282480916E021C
:104E600080FF08C087EA98E09F938F930E944006D6
:104E70000F900F9080E00C942E070895CF93C0916F
:104E8000D102C17080916E0280FF0CC01F92CF933F
:104E90008CEC98E09F938F930E9440060F900F90A8
:104EA0000F900F90CC2319F0CF910C942527CF9120
:104EB0000C9401279091D102892F8695869586952D
:104EC0008F5F8F719770863038F4880F880F880F46
:104ED000892B8093D10202C09093D1028091D1029C
:104EE000887F91E009F490E08091D10290FB80F9F5
:104EF0008093D1020E94282480916E0280FF11C00D
:104F00008091D1028695869586951F928F9383E92D
:104F100098E09F938F930E9440060F900F900F9000
:104F20000F908091D1028695869586950C942E07D8
:104F3000863008F085E0880F880F880F9091D102A5
:104F40009770892B8093D102887F91E009F490E0DB
:104F50008091D10290FB80F98093D1020E94282495
:104F60008091D1028695869586950C942E07809126
:104F70009302089508959FB7F894109272029FBF0C
:104F80009091D602943009F057C09091E9009F703B
:104F90003091EC00232F217030FD20E8922B23E08C
:104FA0002093E9002091EB0020FF43C02091EE0008
:104FB00027FF3FC020917002222321F02091E800BA
:104FC00025FF37C01092700226E03091E80035FDD1
:104FD00015C03091D602343061F53091EB0035FDCB
:104FE00028C0215021F481E08093700222C0EFE9B3
:104FF000FFE03197F1F700C00000E7CF8093F100A8
:105000008091E80085FD0AC08091E80080FFFCCF18
:105010008091E8008E778093E80006C08FB7F894FF
:1050200021E0209372028FBF9F709093E90080E08F
:1050300008959F709093E9008FEF08950F931F9349
:10504000CF93DF9300D01F92CDB7DEB78C010E94C3
:10505000C22A823011F0843021F584E089831B83D9
:105060000A8382E08093E9008FEF9091E8008150FD
:1050700095FD06C095ED9A95F1F700008111F5CFE9
:105080008091E80085FF0DC040E050E063E070E0F3
:10509000CE0101960E94DF2A8091E8008E778093EE
:1050A000E8000F900F900F90DF91CF911F910F911B
:1050B0000895CF93DF9300D01F92CDB7DEB7209134
:1050C000D602243031F523E02983805891099B834F
:1050D0008A8382E08093E9008FEF9091E80081500D
:1050E00095FD06C095ED9A95F1F700008111F5CF79
:1050F0008091E80085FF0DC040E050E063E070E083
:10510000CE0101960E94DF2A8091E8008E7780937D
:10511000E8000F900F900F90DF91CF910895CF93FB
:10512000DF93EC010E94C22A823011F08430D9F55D
:1051300080914F01882339F08091CF0287FF03C00F
:1051400060E282E002C068E081E08093E9008FEFD6
:105150009091E800815095FD06C095ED9A95F1F784
:1051600000008111F5CF8091E80085FF1CC080917F
:105170004F01811105C040E050E068E070E003C0DD
:1051800070E040E050E0CE010E94DF2A8091E8000C
:105190008E778093E80080E2FE01A3E7B2E0019001
:1051A0000D928A95E1F7DF91CF91089587E399E019
:1051B0000E94A7058091D502811109C00E94702C20
:1051C0000E94CD2C8091E20084608093E2000895DB
:1051D00083E399E00E94A7051092D50208958FE21B
:1051E00099E00C94A7058BE299E00C94A70587E25F
:1051F00099E00E94A7050C949C25209171022F5FD5
:10520000822F62E30E948C2F992319F02093710260
:1052100008951092710280917202882371F1809139
:10522000D602843041F58091E9008F702091EC0026
:10523000922F917020FD90E8892B93E09093E900E4
:105240009091EB0090FF14C09091EE0097FF10C07A
:105250009091E80095FF03C01092F100F9CF909172
:10526000E80090FF05C09091E8009E779093E800D9
:105270008F708093E90010927202089542E061EC11
:1052800081E00E94E92B42E261EC82E00E94E92B7E
:1052900042E261EC83E00C94E92B8091D8028330E8
:1052A00009F460C030F4813071F0823009F499C0A3
:1052B00008958A3009F485C08B3009F46BC08930B9
:1052C00009F0A7C020C08091D702813A09F0A1C09F
:1052D0008091E800877F8093E8008091DB029091C5
:1052E000DC02892B21F460E283E792E003C060E0F6
:1052F00080E090E070E00E942A2B8091E8008B779C
:105300008093E80008958091D702813209F081C02E
:105310008091DB029091DC02029708F07AC08091C4
:10532000E800877F8093E8008091E80082FD05C057
:105330008091D6028111F8CF6CC02091F30080914A
:10534000F20090E0922B029729F48091F1008B7F7C
:10535000813021F48091F100809393028091E800E4
:105360008B7753C08091D702813A09F052C0809167
:10537000DB029091DC02892B09F04BC08091E800A0
:10538000877F8093E8008091E80080FFFCCF8091C8
:105390004F0136C08091D7028132D9F58091DB026E
:1053A0009091DC02892BA9F58091E800877F80939A
:1053B000E8000E941E2C8091D90280934F010C942A
:1053C000471D8091D702813221F58091E800877FC7
:1053D0008093E8000E941E2C8091DA028093940250
:1053E00008958091D702813AA1F48091E800877FE7
:1053F0008093E8008091E80080FFFCCF80919402C8
:105400008093F1008091E8008E778093E8000C94FF
:105410001E2C089584B7877F84BF0FB6F894A89593
:1054200080916000886180936000109260000FBEE0
:1054300080E880936100109261000E940E180E9423
:10544000702C0E94CD2C8091E20084608093E20059
:105450008BEB97E20E94DE2378940E94612F0E94DA
:10546000161885E491E00E946C1786E199E00E948D
:10547000A7058091D602853089F482E199E00E94E7
:10548000A7050E9467258091D402882391F30E948A
:105490004E25882371F30E94C92AEBCF0E944A1837
:1054A0000E949014E6CF0C94552A292F33272330DD
:1054B0003105C9F060F42130310581F02230310529
:1054C00009F047C08BE590E023E639E046C0213281
:1054D000310511F12232310561F13BC082E190E0EA
:1054E0002EEB39E03AC099278130910561F040F008
:1054F0008230910559F0039761F5EBE3F9E008C0BC
:10550000EFE5F9E005C0EDE4F9E002C0E1E4F9E01F
:10551000849190E09F0121C063307105D0F4660F43
:10552000771FFB01EE56FE4F2081318189E090E02C
:1055300014C06330710568F4FB01EE0FFF1FE457E0
:10554000FE4F20813181FB01E757FE4F808190E0C3
:1055500004C080E090E020E030E0FA013183208355
:1055600008950895CF93C82F0E94B12AC093950241
:10557000CF9108958091D602843011F081E0089592
:1055800082E0089580919502811102C00C94BA2A9C
:10559000089580E189BD82E189BD09B400FEFDCF97
:1055A0008091D8008F7D8093D8008091E000826048
:1055B0008093E0008091E00081FDFCCF0895CF92C0
:1055C000DF92EF92FF920F931F93CF93DF93EC0143
:1055D0008B017A010E943D2C811133C0E114F1044A
:1055E00039F0F70180819181081B190BC80FD91F71
:1055F000C12CD12C0115110519F18091E80085FD10
:1056000016C08091E8008E778093E800E114F104E1
:1056100049F0F70180819181C80ED91ED182C082E4
:1056200085E00FC00E943D2C882321F30AC0899198
:105630008093F10001501109FFEFCF1ADF0ADACF92
:1056400080E0DF91CF911F910F91FF90EF90DF905D
:10565000CF9008952091DD023091DE0226173707A2
:1056600048F06115710539F42091E8002E772093F8
:10567000E80001C0B901FC0120E06115710579F174
:105680008091D6028823F1F18530F1F18091E80014
:1056900083FD3CC08091E80082FD2EC08091E8002F
:1056A00080FFEBCF2091F3008091F20090E0922BED
:1056B0006115710551F08830910538F421912093DE
:1056C000F100615071090196F3CF21E0089709F0CC
:1056D00020E08091E8008E778093E800CECF211102
:1056E000CFCF0AC08091D602882361F0853061F067
:1056F0008091E80083FD0AC08091E80082FFF2CF2C
:1057000080E0089582E0089583E0089581E008959F
:105710002091DD023091DE022617370748F061152F
:10572000710539F42091E8002E772093E80001C03C
:10573000B901FC0120E06115710591F18091D6025B
:10574000882309F440C0853009F43FC08091E80007
:1057500083FD3DC08091E80082FD2FC08091E8006C
:1057600080FFE9CF2091F3008091F20090E0922B2E
:105770006115710559F08830910540F4249120930A
:10578000F1003196615071090196F2CF21E008973E
:1057900009F020E08091E8008E778093E800CBCF7D
:1057A0002111CCCF0AC08091D602882361F08530C8
:1057B00061F08091E80083FD0AC08091E80082FFDB
:1057C000F2CF80E0089582E0089583E0089581E0BB
:1057D0000895982F973068F59093E900981739F05D
:1057E0007091EC002091ED005091F00003C0242F47
:1057F000762F50E021FD02C09F5FECCF3091EB008F
:105800003E7F3093EB003091ED003D7F3093ED0013
:105810003091EB0031603093EB007093EC002093FB
:10582000ED005093F0002091EE0027FDE5CF80E0E1
:1058300008958F708093E90081E008958091D702E8
:1058400087FF11C08091E80082FD05C08091D602DB
:105850008111F8CF11C08091E8008B770BC0809147
:10586000D602882349F08091E80080FFF8CF80912C
:10587000E8008E778093E80008952091E40030914D
:10588000E50095E64091EC00842F817040FF23C035
:105890008091E80080FD1DC08091D602882399F098
:1058A000853099F08091EB0085FD11C04091E400B6
:1058B0005091E5002417350729F3915011F09A0112
:1058C000E1CF84E0089582E0089583E0089581E0C7
:1058D000089580E008954091E80042FFDDCF0895EB
:1058E0000E94DE2C0E94E62CE0EEF0E080818160D8
:1058F0008083E8EDF0E080818F77808319BCA7ED8D
:10590000B0E08C918E7F8C9380818F7E808310920B
:10591000D50208950F931F93CF93DF930E94DE2C3F
:105920000E94E62CC8EDD0E088818F77888388813B
:105930008068888388818F7D888319BC1092D60205
:105940001092D2021092D4021092D30200EE10E014
:10595000F80180818B7F808388818160888342E029
:1059600060E080E00E94E92BE1EEF0E080818E7F34
:105970008083E2EEF0E080818160808380818860B6
:105980008083F80180818E7F808388818061888315
:10599000DF91CF911F910F910895E8EDF0E08081A4
:1059A0008F7E8083E7EDF0E080818160808384E0FA
:1059B00082BF81E08093D5020C948A2CE8EDF0E060
:1059C00080818E7F80831092E20008951092DA0029
:1059D0001092E10008951F920F920FB60F921124BA
:1059E0002F933F934F935F936F937F938F939F93E7
:1059F000AF93BF93EF93FF938091E10082FF0BC0C1
:105A00008091E20082FF07C08091E1008B7F80934C
:105A1000E1000E94FD288091DA0080FF1FC0809184
:105A2000D80080FF1BC08091DA008E7F8093DA005F
:105A30008091D90080FF0DC080E189BD82E189BDE0
:105A400009B400FEFDCF81E08093D6020E94D628E3
:105A500005C019BC1092D6020E94E8288091E1008E
:105A600080FF19C08091E20080FF15C08091E200A4
:105A70008E7F8093E2008091E20080618093E2005B
:105A80008091D80080628093D80019BC85E0809313
:105A9000D6020E94F3288091E10084FF30C08091FB
:105AA000E20084FF2CC080E189BD82E189BD09B498
:105AB00000FEFDCF8091D8008F7D8093D80080912B
:105AC000E1008F7E8093E1008091E2008F7E8093E1
:105AD000E2008091E20081608093E2008091D20236
