:100000000C94F4040C943B050C943B050C943B05B8
:100010000C943B050C943B050C943B050C943B0560
:100020000C943B050C943B050C94E52B0C94B72CDD
:100030000C94E0240C943B050C943B050C943B057C
:100040000C943B050C943B050C943B050C943B0530
:100050000C943B050C9448250C943B050C943B05F3
:100060000C943B050C943B050C943B050C943B0510
:100070000C943B050C943B050C943B050C943B0500
:100080000C943B050C943B050C943B050C943B05F0
:100090000C943B050C943B050C943B050C943B05E0
:1000A0000C943B050C943B050C943B05B607B80734
:1000B000C307BA07BC07BE07C007C207C507C70703
:1000C000C907D407CB07CD07CF07D107D307D6077A
:1000D000D01AD01A021B021B421BB31CB31CB31C48
:1000E000621BB31C0F1C0F1C7F1C881CB31CAC1C98
:1000F0001C1C1C1C1C1C1C1C1C1C1C1C1C1C1C1C40
:100100001C1C1C1C1C1C1C1C1C1C1C1C1C1C1C1C2F
:100110002B1C391C401C471C511C3E1D3E1D501DF4
:10012000501D471D501D501D501D3E1D3E1D4C1D98
:10013000501D501D4C1D242D4B2D3D2E4B2D3D2E65
:10014000972DBA2D3D2E102E1F2E07634236B79BDA
:10015000D8A71A39685618AEBAAB558C1D3CB7CC27
:100160005763BD6DEDFD753EF6177231BF0000009F
:10017000803F05A84CCDB2D44EB93836A9020C50F8
:10018000B9918688083CA6AAAA2ABE000000803F32
:1001900000F035001E001F00200021002200230077
:1001A00024002500260027002D002E004C002A00E8
:1001B0002B00000014001A000800150017001C0096
:1001C00018000C00120013002F00300031002942EB
:1001D000000004001600070009000A000B000D00D3
:1001E0000E000F003300340028000000E100010081
:1001F0001D001B000600190005001100100036004C
:1002000037000000387252004C00E000E3000000AC
:10021000E2002C00000001510000015100002D00FF
:100220002E00500051004F0029003A003B003C00D6
:100230003D003E003F004000410042004300AA0054
:10024000A900A6004C002800000001000100520097
:100250000100C15CC05C4B0052004E004600010032
:100260000100005C390000004A00500051004F00BE
:1002700001004A00500051004F004D004D000100A8
:100280000000010001002A004C003100BB5CBD5C95
:10029000BC5C0100AA00A900000038024B00490024
:1002A0000100010000000100280000000100000022
:1002B00001000000010001004A004E004D0029002D
:1002C0003E013E004300440045003F004000410025
:1002D00042004300AA00A900A6004C00280000002C
:1002E000A600010026022702C15CC05C010052008A
:1002F0000100460001000100005C01000000010057
:1003000001002F02300236023702360237022F0078
:100310003000010058000000010001002A002F00F9
:100320003000BB5CBD5CBC5C010001000100000052
:100330000100A9004900010001000000010028009F
:1003400000000100000001000000010001004A005F
:10035000AA004D0044454255473A20656E61626CE3
:1003600065642E0A000A002530313662003A20000A
:1003700025303258000A722F632030313233343541
:10038000363738394142434445460A0054494D45C1
:1003900052332064697361626C65642E0A005449AB
:1003A0004D45523320656E61626C65642E0A0072A1
:1003B00067626C696768742073657420687376205F
:1003C0005B4E4F454550524F4D5D3A2025752C25CB
:1003D000752C25750A007267626C696768742073F2
:1003E000657420687376205B454550524F4D5D3AE9
:1003F0002025752C25752C25750A007267626C699D
:10040000676874207261696E626F7720736574200B
:100410006873763A2025752C25752C25642C257556
:100420000A007267626C696768742064697361624C
:100430006C65205B454550524F4D5D3A20726762B6
:100440006C696768745F636F6E6669672E656E615D
:10045000626C65203D2025750A007267626C6967D1
:10046000687420656E61626C65205B454550524F33
:100470004D5D3A207267626C696768745F636F6E86
:100480006669672E656E61626C65203D2025750A80
:10049000007267626C6967687420746F67676C6567
:1004A000205B454550524F4D5D3A207267626C6942
:1004B0006768745F636F6E6669672E656E61626CF4
:1004C00065203D2025750A007267626C6967687453
:1004D000206D6F6465205B4E4F454550524F4D5D1A
:1004E0003A2025750A007267626C69676874206D2E
:1004F0006F6465205B454550524F4D5D3A20257530
:100500000A007267626C696768745F696E6974205B
:100510007267626C696768745F636F6E6669672E85
:100520006D6F6465203D20302E2057726974652000
:1005300064656661756C742076616C756573207492
:100540006F20454550524F4D2E0A007267626C690C
:100550006768745F696E6974206565636F6E66694C
:1005600067206973206E6F7420656E61626C6564CC
:100570002E0A007267626C696768745F696E6974DD
:10058000207374617274210A007267626C69676813
:10059000745F696E69742063616C6C65642E0A0017
:1005A0007267626C696768745F636F6E6669672EF5
:1005B0007370656564203D2025640A007267626C73
:1005C000696768745F636F6E6669672E76616C2019
:1005D0003D2025640A007267626C696768745F6316
:1005E0006F6E6669672E736174203D2025640A0072
:1005F0007267626C696768745F636F6E6669672EA5
:10060000687565203D2025640A007267686C69671B
:1006100068745F636F6E6669672E6D6F6465203DF9
:100620002025640A007267626C696768745F636F93
:100630006E6669672E656E61626C65203D2025647B
:100640000A007267626C696768745F636F6E6669DF
:1006500067206570726F6D0A0000046801F000B4D5
:100660000078005A007F3F1F643214643214783CD3
:100670001E1E140A05000000000001010101010115
:100680000101010202020202020202020303030349
:100690000303030304040404040405050505050617
:1006A0000606060607070707080808080909090AD1
:1006B0000A0A0A0B0B0B0C0C0C0D0D0D0E0E0F0F76
:1006C0000F10101111111212131314141515161600
:1006D0001717181819191A1A1B1C1C1D1D1E1F1F6D
:1006E00020202122222324252526272728292A2BBA
:1006F0002B2C2D2E2F2F30313233343536363738E0
:10070000393A3B3C3D3E3F404142434446474849DD
:100710004A4B4C4D4F50515253555657585A5B5CAB
:100720005E5F606263646667696A6C6D6E70717348
:10073000747678797B7C7E8081838486888A8B8DB1
:100740008F91929496989A9B9D9FA1A3A5A7A9ABE0
:10075000ADAFB1B3B5B7B9BBBDBFC1C4C6C8CACCD4
:10076000CFD1D3D6D8DADCDFE1E4E6E8EBEDF0F286
:10077000F5F7FAFCFF0A002530325820006B657946
:10078000626F6172645F7265706F72743A20000A02
:100790000025303258006B6579626F6172645F7357
:1007A00065745F6C65643A200064656C5F6B6579A5
:1007B0005F6269743A2063616E27742064656C3AE5
:1007C00020253032580A006164645F6B65795F628E
:1007D00069743A2063616E2774206164643A20254D
:1007E0003032580A006261636B6C69676874207309
:1007F0007465703A2025750A006261636B6C6967E5
:10080000687420746F67676C653A2025750A00620A
:1008100061636B6C6967687420646563726561739A
:10082000653A2025750A006261636B6C69676874BC
:1008300020696E6372656173653A2025750A005BF5
:10084000735D004B6579626F6172642073746172CD
:10085000742E0A005B575D005B535D005B525D00C8
:100860005B445D005B435D000403300000000A034D
:1008700044005A0036003000000010034B004200D4
:100880004400460061006E00730000000403090488
:1008900009027400040100A0FA0904000001030128
:1008A0000100092111010001224000070581030810
:1008B000000A0904010001030000000921110100E0
:1008C000012236000705820308000A09040200021B
:1008D0000300000009211101000122220007058305
:1008E00003200001070503032000010904030001A0
:1008F00003000000092111010001223900070584CD
:10090000032000011201100100000008EDFE60222A
:1009100001000102030105010906A101050719E013
:1009200029E71500250195087501810205081901BF
:10093000290595057501910295017503910105073A
:10094000190029F71500250195F875018102C006E7
:1009500031FF0974A1010975150026FF0095207566
:100960000881020976150026FF009520750891027E
:10097000C005010980A10185021601002603001AA5
:1009800081002A8300751095018100C0050C0901C2
:10099000A1018503160100269C021A01002A9C026F
:1009A000751095018100C005010906A1010507190F
:1009B000E029E7150025019508750181029501756B
:1009C0000881010508190129059505750191029510
:1009D00001750391010507190029FF150026FF0085
:1009E000950675088100C00011241FBECFEFDAE024
:1009F000DEBFCDBF04B603FE27C08091CF02909129
:100A0000D002A091D102B091D2028730904BA74082
:100A1000B04BD1F41092CF021092D0021092D102BA
:100A20001092D20214BE84B7877F84BF0FB6F894A9
:100A3000A8958091600088618093600010926000AA
:100A40000FBEE0E0F8E3099511E0A0E0B1E0E2E1DB
:100A5000F5E602C005900D92A636B107D9F722E05F
:100A6000A6E6B1E001C01D92AF3CB207E1F70E94DB
:100A7000FE280C9487320C940000FF93EF93E091D2
:100A80006601F0916701309709F00995EF91FF91A8
:100A90000895FC018591803011F0EFDFFBCF0895C0
:100AA000FF27E0E230E247FF0CC0419597FF09C005
:100AB000EDE26095709580959095611D711D811D89
:100AC000911D27FF02C0219530E350E2AA27660F4F
:100AD000771F881F991FAA1FA41710F0A41B6395E6
:100AE0005A95A9F7AA3008F0A95FA05DAF93F395D6
:100AF000611571058105910541F7ED3211F4EF9310
:100B0000F395F21718F43F93F395FBCF8F91B5DF70
:100B1000FA95E1F70895E991F9918591803021F0F6
:100B2000853219F0AADFF9CF089520E0E8945591B5
:100B30005532C1F3503311F4689455915A3348F447
:100B4000505390F3220F022E220F220F200D250F5B
:100B5000F4CF0EF4219589919991533619F35337B7
:100B600029F1533559F1BC0188279927E8945C365F
:100B700021F48991999168945591543639F446EF4E
:100B80007EF077FF0DC08FEF9FEF0AC055374AE028
:100B900039F0583540E121F0523642E009F008952D
:100BA000FF93EF937DDFEF91FF91B7CFFF93EF932B
:100BB000FC0181918030B9F360DFFBCFFF93EF93AD
:100BC00068DFF1CFDF93CF93CDB7DEB72596A3DFF4
:100BD000CF91DF91089580912C0190912D0181306A
:100BE000910521F0029729F485E301C089E20E9472
:100BF0002D1A10922D0110922C0108958091290137
:100C000090912A018130910521F0029729F48CE21C
:100C100001C088E20E942D1A10922A011092290127
:100C20000895FC018081813049F48781811109C0D8
:100C30008085882331F082E090E0089588E090E09C
:100C4000089581E090E008950E94110690932D018F
:100C500080932C018130910519F0029719F00895C5
:100C600089E201C085E30C9436190E941106909325
:100C70002A01809329018130910519F0029719F01A
:100C8000089588E201C08CE20C9436190C94A40CEF
:100C9000229A2A9A08950E94A30C0C94480681FF78
:100CA00002C0229A01C022982A980C94F906CF9388
:100CB000DF93611121C0EC010E942D23282F2272A5
:100CC000209368013A818091310190913201332360
:100CD00041F0222311F065E301C069E20E946A2419
:100CE00007C0222311F065E301C069E20E94752468
:100CF000DF91CF910C94FA22DF91CF91089581E09A
:100D0000089581E008950C9481060E9436170C9492
:100D10004606CF92DF92EF92FF92863030F4811137
:100D200005C0909180009F7D04C085E09091800077
:100D3000906290938000282F30E0AFEFBFEF0E94C9
:100D4000253225E030E040E050E00E94FD312C37B4
:100D500084E138074105510530F4C90169E070E0CC
:100D60000E94D53129C0DA01C9018A50974DAF4F91
:100D7000BF4F6627782F892F9A2F25EF38E241E061
:100D800050E00E94FD3169017A01CA01B9010E9457
:100D9000B9319B01AC01C701B6010E94B931BB2733
:100DA000A92F982F872F009721E0A207B10511F0F6
:100DB000BC0102C06FEF7FEF70938B0060938A00DD
:100DC000FF90EF90DF90CF900895269A2E9882E2C0
:100DD0008093800089E1809381008FEF9FEF909353
:100DE0008700809386000C94AB250E94E5060C9446
:100DF0004B0608950C944F0608950E942C1D0E94E6
:100E0000FC062FEF84E39CE0215080409040E1F706
:100E100000C000000C946E25FF920F931F93CF9398
:100E2000DF938C01FC01C081D1818091C6018111C9
:100E300013C08281882349F0CE010E945C22F82EE3
:100E4000682FCE010E94012204C0CE010E943022F0
:100E5000F82EBE018F2D04C0CE010E945C22BE017F
:100E60000E94BE09EC01B8010E949816B801CE019B
:100E70000E948306882309F477C2B801CE010E943C
:100E8000DA16882309F470C2B801CE010E94540C0E
:100E9000882309F469C2C93CFCE5DF0741F4F80185
:100EA0008281882309F460C20E94140F5DC2CA3C8B
:100EB0008CE5D80708F017C1C13C9CE5D90761F45F
:100EC000F8018281882309F44FC20E942D23827287
:100ED000F1F00E940C1248C2C23CECE5DE07D0F0F3
:100EE000F8018281C53CFCE5DF0709F4D1C008F0B8
:100EF000E1C0C33CECE5DE0709F4D0C008F0D4C083
:100F0000882309F431C20E942D23827211F30E94BA
:100F100002122AC2C531FCE5DF0708F082C0C230E8
:100F20008CE5D80708F452C0F8018281882309F4BF
:100F300059C00E94C723811102C00E94A1230E94B0
:100F4000DA2390E09093C0028093BF02FE01E35049
:100F5000FC45E231F10530F4EA5AFF4F8091BF02BF
:100F60000C941F328091BF02816027C0826025C02F
:100F7000846023C0806121C080621FC080641DC066
:100F800080681BC08460886018C08E7F16C08D7F0B
:100F900014C08B7F12C08F7E10C08F7D0EC08F7BE0
:100FA0000CC08F770AC08B7F877F07C087FB222703
:100FB00020F991E0922790FB87F98093BF028091FE
:100FC000BF020E94DE230E942C1DCEC1C1159CE5EC
:100FD000D90781F0C130DC45A9F081E080936E0132
:100FE00080936F01C801DF91CF911F910F91FF9006
:100FF0000C947F06F8018281882309F4B5C10E9410
:10100000FD06B2C1F8018281882309F4ADC1809147
:101010005E02816080935E0284E593E00E94490550
:10102000A3C1C531FCE5DF0739F50E942D23282F28
:10103000F80182814091310150913201882379F089
:101040002A7A91E009F490E090936901911102C02D
:1010500069E201C065E3CA010E946A240AC0809166
:101060006901811102C069E201C065E3CA010E9401
:1010700075240E94FA2278C1C03CDC4509F0ADCF4E
:10108000F8018281882309F46FC10E94BC126CC1EF
:10109000882309F469C10E94DA1066C1882309F423
:1010A00063C10E94A31060C1882309F45DC10E943E
:1010B000BB105AC1C73C9CE5D90731F4882309F419
:1010C00053C10E940F1150C1C83CDC4530F4882345
:1010D00009F44AC10E94F51047C1882309F444C1AC
:1010E0000E942A1141C1C13DFCE5DF0749F4F80126
:1010F0008281882309F438C188E10E94FF1134C13C
:10110000C23D8CE5D80708F087C0F8018281CD3C4C
:10111000FCE5DF07A1F4882309F426C10E94060F2D
:10112000663071058105910540F00E94060F683018
:1011300071058105910508F4EACE86E0DECFCE3C4C
:101140009CE5D90730F5CB3CECE5DE0729F4882394
:1011500009F40AC181E0D1CFCC3CDC4530F48823CE
:1011600009F402C10E94290FFFC0882309F4FCC0C2
:101170000E94060F623071058105910540F00E94C2
:10118000060F653071058105910508F4C0CE82E037
:10119000B4CFCF3C9CE5D907A1F4882309F4E4C07F
:1011A0000E94060F6F3071058105910540F00E9485
:1011B000060F643171058105910508F4A8CE8FE012
:1011C0009CCFC03DDC45A0F4882309F4CDC00E942B
:1011D000060F693071058105910540F00E94060FE8
:1011E0006E3071058105910508F491CE89E085CFB7
:1011F000882309F4B9C00E94060F65317105810585
:10120000910540F00E94060F673171058105910537
:1012100008F47DCE85E171CFC53DFCE5DF0739F5EA
:10122000F8018281882361F010926F010E941225DB
:1012300090936D0180936C0180E20E948C1A94C09F
:1012400080916F0181110FC080916C0190916D01AF
:101250000E941E25883C910530F487E20E943619D1
:1012600087E20E942D1A80E20E94931A7DC0C63D3B
:101270008CE5D80708F043C0F8018281C33DFCE546
:10128000DF0729F4882309F46FC083E236CFC43D19
:10129000DC45A0F4882309F467C00E94060F693179
:1012A00071058105910540F00E94060F62327105BB
:1012B0008105910508F42BCE89E11FCF882351F0D9
:1012C00010926E010E94122590936B0180936A0127
:1012D00082E0B3CF80916E0181110FC080916A01CD
:1012E00090916B010E941E25883C910530F486E2A6
:1012F0000E94361986E20E942D1A82E0B5CFC93DC0
:10130000ECE5DE0731F4F8018281882369F180E0A1
:1013100009C0CA3DFCE5DF0741F4F801828188235A
:1013200019F182E00E94A8291FC0C63DDC4509F0E2
:1013300054CEF8018281811177CF80916F018111A4
:1013400092CF80916C0190916D010E941E25883C86
:10135000910508F088CF80E20E94931A88E20E94EB
:10136000361988E20E942D1A80E0DF91CF911F91FB
:101370000F91FF90089580E090E008959FE0799F9D
:10138000F00111249BE4899FE00DF11D1124E60F6B
:10139000F11DEE0FFF1FEE56FE4F859194910895BB
:1013A000880F991FFC01E057FE4F85919491089595
:1013B000CF93DF930E94BE090E94B30BEC0181150D
:1013C00021E5920708F042C0811530E5930708F047
:1013D0001EC1883E910500F5803E910508F0BFC111
:1013E000883A910570F4853A910508F09DC08130E6
:1013F000910509F4B4C108F46BC1049708F0AFC1BA
:1014000067C18D3B910508F49AC0803C910508F4B2
:101410005FC1805C9109EBC0811540E3940780F4C3
:10142000811550E2950708F0E1C0803F910508F46E
:101430004FC18F3F910511F008F091C1D0658FC168
:10144000811560E4960708F0DFC0D5C0C11589E5B5
:10145000D80740F5C11528E5D20708F025C1C11508
:1014600034E5D30778F4C11543E5D40708F001C18A
:10147000C11552E5D50708F0E6C0DC2FCC27C16FB7
:10148000D06A6DC1C11565E5D60708F408C1C1155C
:1014900086E5D80708F01CC1CF71DD27DC2FCC27EB
:1014A000D0625DC1CB3B2CE5D20709F408C1D8F46A
:1014B000C93B4CE5D40709F4FCC008F0FDC0C115D8
:1014C0006AE5D60708F004C18C2F8F70806E90E01B
:1014D000906A24E0D695C7952A95E1F7CF709C01D4
:1014E0003C2BE9013CC1CE3B8CE5D80709F4EDC0AB
:1014F00060F4CC3B3CE5D30709F4E4C0CD3BDC45CC
:1015000009F0E6C0C0E0D2ED2AC1CE0190568115A7
:10151000904208F0DDC08D2F8F710E94300CDD27C6
:10152000D0628F71D82B1BC1853A910509F4D3C0C5
:10153000863A910509F0D2C0C2E8D0E410C1883AD9
:10154000910509F4CEC0893A910509F4CDC08A3AD3
:10155000910509F4CCC08B3A910509F4CBC08C3AC3
:10156000910509F4CAC08B3B910509F4C9C08C3BB5
:10157000910509F4C8C08D3A910509F4C7C0803BB4
:10158000910509F4C6C08E3A910509F4C5C08F3A99
:10159000910509F4C4C0813B910509F4C3C0823BA5
:1015A000910509F4C2C0833B910509F4C1C0843B95
:1015B000910509F4C0C0853B910509F4BFC0863B85
:1015C000910509F4BEC0873B910509F4BDC0883B75
:1015D000910509F4BCC0893B910509F4BBC08A3B65
:1015E000910509F4BAC0C0E0D4E4B9C09F700E946C
:1015F000D009EC01B4C09927D3FF03C0EC01D86C2B
:10160000AEC0EC01D06CABC0DF70D06AA8C0282F90
:10161000237081E090E002C0880F991F2A95E2F7BD
:101620009C689E0174E0369527957A95E1F72370C2
:10163000922BCF70C695C69560E2C69FE00111243B
:10164000C82BD92B8CC02C2F2695269580E2289F5D
:1016500090011124C370DD2781E090E0AC0102C04D
:10166000440F551FCA95E2F7EA01C22BD32BDC6861
:1016700076C02C2F2695269580E2289F9001112474
:10168000C370DD2781E090E0AC0102C0440F551F1C
:10169000CA95E2F7EA01C22BD32BDA6860C0DC2FCF
:1016A000CC27C46FD06A5BC0DC2FCC27C06FD06A58
:1016B00056C0C0E0D4ED53C0C0E0D5ED50C0C0E08E
:1016C000D1ED4DC0C0E0D0ED4AC0C0E0D3ED47C081
:1016D000C0E0D0E044C0C1E8D0E441C0C3E8D0E4F9
:1016E0003EC0C2EED4E43BC0C9EED4E438C0CAEE7A
:1016F000D4E435C0C5EBD4E432C0C6EBD4E42FC08B
:10170000C3EBD4E42CC0C4EBD4E429C0C7EBD4E4CD
:1017100026C0CCECD4E423C0CDECD4E420C0C3E894
:10172000D5E41DC0CAE8D5E41AC0C2E9D5E417C0A3
:10173000C4E9D5E414C0C1E2D6E411C0C3E2D6E4E2
:101740000EC0C4E2D6E40BC0C5E2D6E408C0C6E2CF
:10175000D6E405C0C7E2D6E402C0CAE2D6E4CE01B0
:10176000DF91CF9108958238910549F1B0F481332A
:10177000910509F458C048F48932910509F44EC026
:101780008A32910509F454C008958533910509F40E
:1017900040C08933910599F00895833E910529F160
:1017A00038F4803E910591F0823E9105A1F00895B4
:1017B000863E9105F9F0873E910531F1089520911B
:1017C000BF0220FD3AC021FD38C008958091BF02BC
:1017D00080FD35C032C08091BF0282FF32C080914F
:1017E000BF0284FD30C083EE39C08091BF0282FD0C
:1017F00028C0F5CF8091BF0283FF27C08091BF0230
:1018000084FD21C087EE2AC08091BF0283FD1DC0E8
:10181000F5CF8091BF0285FD1AC01BC08091BF0229
:1018200085FD17C014C08091BF0286FD14C015C08D
:101830008091BF0286FD11C00EC080EE0FC089E30B
:101840000DC082EE0BC080E009C086EE07C089E2C1
:1018500005C085E303C08AE201C081E390E00895FA
:101860009091BF0292FF0DC0282F2871283019F4E3
:10187000877F846006C0282F2471243011F48B7F69
:10188000886093FF0DC0282F2871283119F4877EB6
:10189000846106C0282F2471243111F48B7E886165
:1018A00094FD877E089508950F931F93CF93FB01B6
:1018B0002281211102C0C1E041C08C01C0917D0193
:1018C000C11125C086319C45B1F70E94530C81E0BF
:1018D00080937D010E94122590937C0180937B016F
:1018E00010927001109272011092710110927401A5
:1018F0001092730110927601109275011092780186
:101900001092770110927A011092790117C080919C
:101910007B0190917C010E941E258C32914058F6EB
:1019200090917001E92FF0E0EE0FFF1FEF58FE4F8E
:10193000118300839F5F90937001C0E08C2FCF9143
:101940001F910F91089508950895ADE4B1E041E02D
:1019500050E025E02A0F8D91E82FE295EF70F0E03E
:1019600031A18F70BA0102C0660F771F8A95E2F726
:10197000CB01962F9095932391A392A1892B82A3BB
:101980002A13E9CFAEE3B1E041E050E02FE02A0FA7
:101990008D91E82FE295EF70F0E031A18F70BA01E0
:1019A00002C0660F771F8A95E2F7CB01962F9095BC
:1019B000932391A392A1892B82A32A13E9CFE8E86C
:1019C000F1E0AEE7B1E0119211921D921D9271E02B
:1019D000E239F707C1F70C94F5062F923F925F9218
:1019E0006F927F928F929F92AF92BF92CF92DF922F
:1019F000EF92FF920F931F93CF93DF932DE4C22EAC
:101A000021E0D22E0EE711E0E801EE24E394F12C60
:101A1000662463945E018880998019821882D601B9
:101A20008D916D01E82FE295EF70F0E021A18F70AC
:101A3000A70102C0440F551F8A95E2F7CA01242B63
:101A400021A322A1742E7094272122A350EA5A9533
:101A5000F1F79EE3292E91E0392E20E030E0D1010C
:101A60007D911D01472F42954F7050E0DA0190960D
:101A70005C90488159817F70D70102C0AA0FBB1FBB
:101A80007A95E2F7BD01652141F4B701022E02C04B
:101A9000660F771F0A94E2F702C060E070E0462B01
:101AA000572B598348832F5F3F4F2F303105B9F6AD
:101AB00091A1792271A292A1892B82A32296F5018C
:101AC000808191818816990641F0609292010E946E
:101AD00012259093940180939301F1E0C838DF07B9
:101AE00009F098CF809192018823B1F08091930101
:101AF000909194010E941E25069770F0E8E8F1E0AD
:101B0000D8018D919D918D0181939193B1E0083819
:101B10001B07B1F7109292010E94850681E0DF91C8
:101B2000CF911F910F91FF90EF90DF90CF90BF90DA
:101B3000AF909F908F907F906F905F903F902F908D
:101B40000895E82FF0E0EE0FFF1FE857FE4F808169
:101B500091810895CF92DF92EF92FF920F931F939E
:101B6000CF93DF9385E793E00E94490588E8E82E4C
:101B700081E0F82EC0E0D0E090E7C92E93E0D92EA6
:101B800007E613E0DF93CF93DF92CF920E94E20546
:101B90008DE693E00E944905F701819191917F01C3
:101BA0000E9487239F938F931F930F930E94E205B8
:101BB00085E693E00E94490521968DB79EB7089669
:101BC0000FB6F8949EBF0FBE8DBFC530D105D1F6BC
:101BD000DF91CF911F910F91FF90EF90DF90CF9009
:101BE0000895EF92FF920F931F93CF93DF93E90134
:101BF000662309F44BC0242F30E0EFEFF0E0E61B42
:101C0000F109B901E69F9001E79F300DF69F300D75
:101C10001124232F8B01031B11095CE3E52EF12C0A
:101C2000B7010E94D531FB01BC01069FC001079F8F
:101C3000900D169F900D1124B7010E94D531E2300E
:101C4000F105B1F040F4309779F0319711F5832F19
:101C5000242F461B21C0E430F105A1F068F0359730
:101C6000C1F4842F861B18C0832F262F230F14C086
:101C7000862F830FE42F03C0E42FE61B842F432F0E
:101C80002E2F0AC0842F462F430F06C0842F242FE7
:101C900003C080E020E040E0E42FF0E0EB58F94F93
:101CA0004491E22FF0E0EB58F94F9491E82FF0E0E7
:101CB000EB58F94FE49149839883EA83DF91CF9100
:101CC0001F910F91FF90EF90089588E090E00C94A1
:101CD0004732AB01BC0188E090E00C946532E6E845
:101CE000F2E083E08083109287028FEF8283838308
:101CF000148260817181828193810C94690E80913C
:101D00005E0280FF08C082E496E09F938F930E945A
:101D1000E2050F900F9080915E0280FF0FC08091CE
:101D2000860281701F928F9385E296E09F938F9336
:101D30000E94E2050F900F900F900F9080915E022D
:101D400080FF10C08091860286958F731F928F93BB
:101D50008AE096E09F938F930E94E2050F900F9088
:101D60000F900F9080915E0280FF19C080918602D3
:101D7000881F8827881F90918702292F220F822B86
:101D800097FB992790F99F938F9380EF95E09F930E
:101D90008F930E94E2050F900F900F900F9080910B
:101DA0005E0280FF0EC0809188021F928F9386EDA5
:101DB00095E09F938F930E94E2050F900F900F90F4
:101DC0000F9080915E0280FF0EC0809189021F9269
:101DD0008F938CEB95E09F938F930E94E2050F9079
:101DE0000F900F900F9080915E0280FF0EC0809147
:101DF0008A021F928F9380EA95E09F938F930E94AF
:101E0000E2050F900F900F900F9008956091860259
:101E100060FF06C066956F7370E080E090E0089503
:101E200060E070E0CB01089580918A0290E0019615
:101E30008430910514F083E090E080938A026091F1
:101E400086027091870280918802909189020C9499
:101E5000690E80918A0290E0019797FF02C080E0AE
:101E600090E08430910514F083E090E080938A0242
:101E70006091860270918702809188029091890218
:101E80000C94690E8091860280FF06C060E170E0CC
:101E90008BE892E00C94311680E090E0FC01E5576D
:101EA000FD4F118210821282039680339105B1F7A3
:101EB000EDCF9091860290FF0FC020E030E0F90155
:101EC000E557FD4F8183608342832D5F3F4F203371
:101ED0003105A9F70C94420F0895CF93DF9300D0FA
:101EE0001F92CDB7DEB72091860220FF0AC09E0167
:101EF0002F5F3F4F0E94F10D4B8169818A810E94C3
:101F0000590F0F900F900F90DF91CF9108952F925E
:101F10003F924F925F926F927F928F929F92AF9279
:101F2000BF92CF92DF92EF92FF920F931F93CF93C6
:101F3000DF93CDB7DEB727970FB6F894DEBF0FBE9D
:101F4000CDBF8C01262E342E2D838091860280FFFA
:101F5000DEC0982F9E77923061F49E012F5F3F4F35
:101F6000C8010E94F10D4B8169818A810E94590F3D
:101F700081C0E82FE695EF739EE39E0F9F73943028
:101F800018F43090890276C09AE39E0F9F739930BF
:101F900068F4881F8827881F90918702292F220FB5
:101FA000022F082B97FB112710F964C087E28E0FD0
:101FB0008F738A3008F05EC0F0E07997E0FD03C0CF
:101FC00021E02C8302C03FEF3C83EE7FE55AF94FBE
:101FD000859094908C81682E880F7708C40124E046
:101FE000969587952A95E1F7689E2001699E500C89
:101FF000789E500C1124580198E9A91A9EEFB90A4D
:102000003BE8C32E32E0D32EE12CF12CC50168E66B
:1020100071E00E94D53120915E0220FF18C09F928E
:102020008F927F92AC81AF939F938F93FF92EF92A9
:10203000ABEFB3E0BF93AF938E839F830E94E20523
:102040000FB6F894DEBF0FBECDBF9F818E81960183
:10205000432D622D0E94F10DBFEFEB1AFB0AA40C79
:10206000B51C23E0C20ED11C30E1E316F10471F679
:102070000E94420F8091860200FB87F980938602BE
:10208000809187028078902F9695892B10FB87F995
:102090008093870220928802309289028D81882362
:1020A00021F160918602709187028091880290915F
:1020B00089020E94690E809189021F928F938091FC
:1020C00088021F928F9380918602881F8827881F1D
:1020D00090918702292F220F822B97FB992790F945
:1020E0009F938F9386ED93E009C01F923F921F92BA
:1020F0002F9211701F930F938FEA93E09F938F930A
:102100000E94E2050FB6F894DEBF0FBECDBF279642
:102110000FB6F894DEBF0FBECDBFDF91CF911F91F8
:102120000F91FF90EF90DF90CF90BF90AF909F9076
:102130008F907F906F905F904F903F902F90089579
:1021400021E00C94870FE6E8F2E02081221F22278D
:10215000221F30918702432F440F842F822B37FB9D
:10216000992790F9089668E671E00E94E931438169
:1021700062810C94A01020918602221F2227221F28
:1021800030918702432F440F842F822B37FB9927EE
:1021900090F9883091051CF4805A9E4F01C0089731
:1021A00068E671E00E94E9314091890260918802FD
:1021B0000C94A01060918802862F90E0883F9105D2
:1021C00014F4685F01C06FEF80918602881F882732
:1021D000881F90918702292F220F97FB992790F94A
:1021E00040918902822B0C94A01060918802862F66
:1021F00090E0089714F0685001C060E0809186027A
:10220000881F8827881F90918702292F220F97FB0C
:10221000992790F940918902822B0C94A01040914B
:102220008902842F90E0883F910514F4485F01C033
:102230004FEF80918602881F8827881F9091870220
:10224000292F220F97FB992790F960918802822B02
:102250000C94A01040918902842F90E0089714F00C
:10226000485001C040E080918602881F8827881F5F
:1022700090918702292F220F97FB992790F960915F
:102280008802822B0C94A01020E00C94870F909170
:10229000860290FF10C0203170F430E0F901EE0F9B
:1022A000FF1F2E0F3F1FF901E557FD4F818360830C
:1022B00042830C94420F08951F93CF93DF9300D075
:1022C0001F92CDB7DEB73091860230FF0CC0122FBF
:1022D0009E012F5F3F4F0E94F10D212F4B8169819D
:1022E0008A810E9447110F900F900F90DF91CF913C
:1022F0001F91089581E08093B20180915E0280FF7A
:1023000008C08EE993E09F938F930E94E2050F909F
:102310000F9008951092B20180915E0280FF08C074
:102320008CE893E09F938F930E94E2050F900F90AB
:1023300008959091860290FF61C09178811102C04A
:10234000926007C0853210F0986403C08F73880FC5
:10235000982B90938602662399F060918602709183
:10236000870280918802909189020E94690E809173
:10237000860286958F731F928F9386EE94E008C035
:102380008091860286958F731F928F9388EC94E0DC
:102390009F938F930E94E2050F900F900F900F90E4
:1023A00080918602982F9E77923019F40E948A11AC
:1023B00012C086958F732EE3280F2F73273120F0DC
:1023C000963411F0983419F40E947A1104C0895D92
:1023D0008F738A3058F380918602881F8827881F60
:1023E00090918702292F220F97FB992790F940910E
:1023F000890260918802822B0C944411089561E057
:102400000C9499118091860286958F738F5F853227
:1024100008F081E00C94FF118091860286958F73FD
:10242000815009F484E20C94FF11CF93DF93C6E846
:10243000D2E08881816088831F9281E08F938AE552
:1024400094E09F938F930E94E2050F900F900F905E
:102450000F90888186958F73DF91CF910C94FF1137
:1024600060E00C94991180915E02816080935E021D
:1024700089E895E09F938F930E94E20580915E0228
:102480000F900F9080FF08C083E795E09F938F9394
:102490000E94E2050F900F900E94C723811110C087
:1024A00080915E0280FF08C08BE495E09F938F933C
:1024B0000E94E2050F900F900E94A1230E946F0ED0
:1024C0000E94650E60938602709387028093880253
:1024D000909389026E77C1F480915E0280FF08C0FC
:1024E00082E095E09F938F930E94E2050F900F90FA
:1024F0000E946F0E0E94650E6093860270938702A1
:1025000080938802909389020E947F0E81E08093DD
:10251000B2018091860280FF04C086958F730C946F
:1025200030120895CF93DF93C6E8D2E088818E7F82
:102530008883688179818A819B810E94690E888164
:1025400081701F928F9382E294E09F938F930E94F9
:10255000E2050E948A112FEF80E792E0215080402F
:102560009040E1F700C000000F900F900F900F9087
:10257000DF91CF910C94420F8091860280958170FB
:102580001F928F9381E994E09F938F930E94E205BD
:10259000809186020F900F900F900F9080FD0C9409
:1025A00092120C941512CF93C82F8091B001909184
:1025B000B1010E941E25EC2FF0E0EF58F94FE49195
:1025C000F0E08E179F0708F443C00E9412259093F5
:1025D000B1018093B0016091AF0170E080E090E0C4
:1025E0000E94BA2F20E030E04FE753E40E94DD2E36
:1025F0002BED3FE049E450E40E94E3300E9450316B
:102600000E94572F2BE43AE34EE25FE30E94702EC4
:1026100020EF3BEF48ED52E40E94E3300E94892F07
:10262000462F80918602881F8827881F90918702F5
:10263000292F220F97FB992790F960918802822B0E
:102640000E946D0F8091AF0190E001968093AF01E1
:10265000CF910895CF93C82F8091AD019091AE0195
:102660000E941E25EC2FF0E0E259F94FE491F0E0D2
:102670008E179F07E8F00E9412259093AE01809379
:10268000AD0140918902609188028091AB019091E7
:10269000AC010E946D0F8091AB019091AC0101964D
:1026A00068E671E00E94D5319093AC018093AB0154
:1026B000CF910895CF92DF92FF920F931F93CF9304
:1026C000DF93F82E8091A9019091AA010E941E2506
:1026D000EF2DE695F0E0E559F94FE491F0E08E1723
:1026E0009F07F0F10E9412259093AA018093A901FF
:1026F0000BE812E0C0E0D0E088E6C82EDD24D394D9
:102700008091A7019091A8018C0F9D1FB6010E9496
:10271000D531980140918902609188020E94F10DA3
:1027200066960D5F1F4FC03681E0D80749F70E94BB
:10273000420F2091A7013091A801F0FE0BC0C90102
:10274000019668E671E00E94D5319093A8018093CC
:10275000A70106C0215031093093A8012093A70199
:10276000DF91CF911F910F91FF90DF90CF9008954F
:10277000AF92BF92CF92DF92EF92FF920F931F938F
:10278000CF93DF93C82F80FF02C01FEF01C011E07D
:102790008091A5019091A6010E941E25C695EC2F5F
:1027A000F0E0E859F94FE491F0E08E179F0708F444
:1027B00065C00E9412259093A6018093A5012BE885
:1027C000C22E22E0D22E3DE8E32E32E0F32EC0E00E
:1027D000D0E0F70131971082F6011082F7011082E4
:1027E00094E0A92EB12C00E08091A401800F87FD18
:1027F000805F082E000C990BC817D907E9F4809167
:1028000089028A9DA0018B9D500D112455954795F5
:102810005595479580918602881F8827881F90913B
:102820008702592F550F97FB992790F996016091D0
:102830008802852B0E94F10D010FF1E0AF1AB1085B
:1028400099F6219683E0C80ED11CE3E0EE0EF11C50
:10285000C031D10509F0BDCF0E94420F8091A40183
:10286000113031F4811102C08FE006C0815004C0E4
:1028700090E001968F7099278093A401DF91CF910A
:102880001F910F91FF90EF90DF90CF90BF90AF908E
:102890000895EF92FF920F931F93CF93DF93C82F6A
:1028A0008091A2019091A3010E941E25EC2FF0E0DF
:1028B000EB59F94FE491F0E08E179F0708F464C0DC
:1028C0000E9412259093A3018093A20180E090E0E2
:1028D000FC01E557FD4F118210821282039680336E
:1028E0009105B1F78BE8E82E82E0F82E0DE812E0B2
:1028F000C0E0D0E08091A101082E000C990BC81710
:10290000D907ECF080912F01082E000C990B8C1741
:102910009D07ACF080918602881F8827881F9091C0
:102920008702592F550F97FB992790F997014091EE
:10293000890260918802852B0E94F10D07C0F80181
:1029400031971082F7011082F80110822196F3E08E
:10295000EF0EF11C0D5F1F4FC031D10559F60E94DB
:10296000420F80912E019091A101980F9093A101A7
:1029700020912F01280F20932F01121614F49F305D
:102980001CF0819580932E01DF91CF911F910F91C3
:10299000FF90EF900895EF92FF920F931F93CF93C4
:1029A000DF9380919F019091A0010E941E25883E97
:1029B0009340D0F10E9412259093A00180939F0133
:1029C000C0919D01D0919E012196C170DD27D093C9
:1029D0009E01C0939D018BE8E82E82E0F82E10E066
:1029E00008E7812F8695FE01E80FF11DCF01817068
:1029F000992797014091890260918802FC010E9FFE
:102A0000C0010F9F900D11240E94F10D1F5FF3E094
:102A1000EF0EF11C103129F7DF91CF911F910F912B
:102A2000FF90EF900C94420FDF91CF911F910F9187
:102A3000FF90EF900895CF93DF9300D01F92CDB712
:102A4000DEB780919B0190919C010E941E25E9E5D3
:102A5000F6E02591349182179307C0F180919A0195
:102A600081110CC09E012F5F3F4F4FEF6FEF80E051
:102A700090E00E94F10D8A8180939A010E941225B4
:102A800090939C0180939B0180919901813051F03A
:102A900028F0823061F440919A010AC080919A0135
:102AA00040E007C060919A0140E080E003C040E050
:102AB00080E060E00E94590F8091990190E00196BA
:102AC00063E070E00E94E931809399010F900F90CC
:102AD0000F90DF91CF910895CF93DF93809197016D
:102AE000909198010E941E25843F914008F444C0B3
:102AF0000E9412259093980180939701C0E0D0E046
:102B000020919501309196018091860290918702E3
:102B1000C830D1051CF4232B79F002C0232B61F4BB
:102B2000881F8827881F392F330F97FB992790F923
:102B30002C2F409189020AC0881F8827881F392FAF
:102B4000330F97FB992790F92C2F40E06091880272
:102B5000832B0E945C112196C031D10589F60E9419
:102B6000420F80919501909196010196817099276D
:102B70009093960180939501DF91CF910895809174
:102B8000B2018823D9F190918602892F86958F739F
:102B90002EE3280F2F73243018F482500C94D31294
:102BA0002AE3280F2F73233018F486500C942A132D
:102BB00027E3280F2F73263018F489500C945A13EA
:102BC00021E3280F2F73263018F48F500C94B8137C
:102BD0002BE2280F2F73233018F485510C944914DD
:102BE000892F8E77803311F40C94CB14863411F432
:102BF0000C941B15883411F40C946C1508952EB1A7
:102C0000342F309523233EB1432B3FB7F894FC017A
:102C1000680F791FE617F70789F0819198E04EB9A0
:102C2000000000C087FF2EB9880F000000C000C060
:102C300000C02EB900C09A9591F7ECCF3FBF089520
:102C40002DB1242B2DB99B01220F331F620F731F4F
:102C50000E94FF1587EC90E00197F1F700C000009B
:102C6000089544E00C942016CF93DF93FC01278550
:102C7000211116C0EC0181E0878787810E943023F3
:102C800088850E9443230E94FA22EA81FB816A8997
:102C90007B89CE010696309719F0DF91CF91099488
:102CA000DF91CF910895EF92FF920F931F93CF93EF
:102CB000DF93FC012085211134C0EC01E380F48016
:102CC000F7E5FF1A24E12E9DC0012F9D900D1124E0
:102CD000DC01A050BF4F1496ED91FC9115975296D0
:102CE0006D917C9153978A5F9E4F309709F00995BB
:102CF00084E18E9D80018F9D100D112400501F4F87
:102D0000F80187810E943623F80180850E944923BB
:102D10000E94FA2218821F8219861092B401109222
:102D2000B301DF91CF911F910F91FF90EF90089524
:102D3000DF92EF92FF920F931F93CF93DF93FB01EC
:102D40002281222379F1209130012F3F59F18C010A
:102D5000C6E0D1E0E12CF12CDD24D3948091300148
:102D6000082E000C990B8E159F05E4F088818823AE
:102D7000A1F08B819C810817190739F48091B30168
:102D80009091B4010817190741F0DF82CE01069730
:102D90000E943416CE010E945316FFEFEF1AFF0A6D
:102DA0006496DCCFDF91CF911F910F91FF90EF9050
:102DB000DF900895EF92FF920F931F93CF93DF93CD
:102DC0009C0137552F3F310511F008F047C0409165
:102DD0003001042E000C550B4217530714F42093B6
:102DE0003001FB017C01828194E1929F8001939FDD
:102DF000100D1124E801C050DF4F8E8792818E8123
:102E0000992311F1FA86E9868F5F8E830E9412253D
:102E10009C878B870E9469238F830E942D2388873C
:102E20000E9440239885892B8887E881F9816A89E7
:102E30007B89C8018A5F9E4F309709F00995F0920F
:102E4000B401E092B3010AC0882341F08F85882342
:102E500029F0C8018A5F9E4F0E94531681E0DF91DE
:102E6000CF911F910F91FF90EF900895CF92DF9235
:102E7000EF92FF920F931F93CF93DF9380913001D6
:102E80008F3FC1F1C0E0D4E12C2F30E080913001C0
:102E9000082E000C990B8217930764F1D29FF00162
:102EA000D39FF00D1124E050FF4FE088F188E1142A
:102EB000F10419F488ECE82EF12CD29F6001D39F25
:102EC000D00C1124860100501F4FF8018681882301
:102ED00079F0838594850E941E25E816F90640F452
:102EE000C8010E943416C6018A5F9E4F0E94531685
:102EF000CF5FCACFDF91CF911F910F91FF90EF90DD
:102F0000DF90CF9008959093BA018093B90108950E
:102F1000E091B901F091BA01309721F00190F08170
:102F2000E02D099480E00895EF92FF920F931F9394
:102F3000CF93DF93E091B901F091BA013097B1F1ED
:102F40008C010280F381E02D099580915E0282FF61
:102F50002DC080FF04C08DE797E00E944905E8017D
:102F600010E287E7E82E87E0F82E80915E0280FF6E
:102F70000BC088811F928F93FF92EF920E94E2050F
:102F80000F900F900F900F90115021961111EDCFCF
:102F900080915E0280FF0AC085E797E0DF91CF91C4
:102FA0001F910F91FF90EF900C944905DF91CF9105
:102FB0001F910F91FF90EF9008952091B7013091EC
:102FC000B8018217930771F09093B8018093B7010D
:102FD000E091B901F091BA01309721F00680F781B4
:102FE000E02D099408952091B5013091B601821722
:102FF000930771F09093B6018093B501E091B90108
:10300000F091BA01309721F00084F185E02D099408
:10301000089508950C94091881E008950E940925E7
:1030200085B7806885BF85B7806885BF0E94A50C7D
:103030000E9492250E94AB250C943312CF93C82F87
:1030400080915E0282FF1EC080FF04C086E997E087
:103050000E94490580915E0280FF0CC01F92CF93B1
:1030600081E997E09F938F930E94E2050F900F9064
:103070000F900F9080915E0280FF04C08FE897E070
:103080000E9449058C2FCF910C94FA064F925F92C3
:103090007F928F929F92AF92BF92CF92DF92EF92E8
:1030A000FF920F931F93CF93DF93CDB7DEB72A978D
:1030B0000FB6F894DEBF0FBECDBF0E94ED0C0E948C
:1030C0000C18811111C08FEF89838A831B820E94A3
:1030D00012258160782F9D838C8349815A816B8171
:1030E0008D810E94021957C09CEBC92E91E0D92E08
:1030F00000E010E0AA24A394B12C702E802F0E942F
:10310000A10D4C01F601419051906F0148265926BE
:103110004114510431F40F5F1F4F0530110569F759
:10312000D2CF80915E0281FD0E94AA0D20E030E0A6
:103130007501022E02C0EE0CFF1C0A94E2F7C701D3
:1031400084219521892B09F12E837F828E209F2057
:1031500091E0892809F490E098870E941225816007
:10316000782F9A8789874E815F8168858A850E943A
:103170000219000F111FF801E454FE4F8081918164
:10318000E826F926F182E08206C02F5F3F4F2F30FC
:10319000310571F6C0CF1091BB010E948817181736
:1031A000D9F00E9488178093BB012A960FB6F89435
:1031B000DEBF0FBECDBFDF91CF911F910F91FF906A
:1031C000EF90DF90CF90BF90AF909F908F907F90C7
:1031D0005F904F900C941E182A960FB6F894DEBF9D
:1031E0000FBECDBFDF91CF911F910F91FF90EF9058
:1031F000DF90CF90BF90AF909F908F907F905F9027
:103200004F900895CF93DF93CDB7DEB72B970FB6CE
:10321000F894DEBF0FBECDBF4F83588769877A878A
:103220008B87DE01119686E0FD0111928A95E9F700
:1032300085E0FE01379601900D928A95E1F749816C
:103240005A816B817C818D819E810E94D31F2B9638
:103250000FB6F894DEBF0FBECDBFDF91CF910895BA
:10326000FC01808191810E949B220895882309F4AA
:10327000F3C0682F8238C1F40E94881781FDECC02A
:1032800069E380913101909132010E946A240E9489
:10329000FA222FEF81EE94E0215080409040E1F738
:1032A00000C0000069E319C08338F9F40E94881750
:1032B00080FDD2C063E580913101909132010E947E
:1032C0006A240E94FA222FEF81EE94E02150804080
:1032D0009040E1F700C0000063E5809131019091DA
:1032E00032010E9475240C94FA228438C1F40E94A1
:1032F000881782FDB1C067E480913101909132015D
:103300000E946A240E94FA222FEF81EE94E021505D
:1033100080409040E1F700C0000067E4DECF8CEF12
:10332000860F813A38F480913101909132010E94E8
:103330006A24D9CF80E2860F883048F4677081E034
:1033400001C0880F6A95EAF70E943023CCCF8BE545
:10335000860F833070F4653A29F0663A31F083E8DD
:1033600090E005C081E890E002C082E890E00C9413
:10337000DD1788E5860F853108F06EC0683A61F187
:10338000693A69F16A3A71F16B3A79F16C3A81F113
:103390006B3B89F16C3B91F16D3A99F1603BA1F186
:1033A0006E3AA9F16F3AB1F1613BB9F1623BC1F1FB
:1033B000633BC9F1643BD1F1653BD9F1663BE1F177
:1033C000673BE9F1683BF1F1693BF9F16A3B09F4CC
:1033D0003FC080E090E03EC082EE90E03BC089EECE
:1033E00090E038C08AEE90E035C085EB90E032C0C6
:1033F00086EB90E02FC083EB90E02CC084EB90E054
:1034000029C087EB90E026C08CEC90E023C08DECC7
:1034100090E020C083E891E01DC08AE891E01AC0E6
:1034200082E991E017C084E991E014C081E292E062
:1034300011C083E292E00EC084E292E00BC085E20C
:1034400092E008C086E292E005C087E292E002C006
:103450008AE292E00C94F3170895882309F45BC084
:10346000682F823879F40E94881781FF54C069E37D
:1034700080913101909132010E946A240E94FA22C7
:1034800069E310C08338B1F40E94881780FF43C0FD
:1034900063E580913101909132010E946A240E947B
:1034A000FA2263E580913101909132010E947524E6
:1034B0000C94FA22843879F40E94881782FF2BC07A
:1034C00067E480913101909132010E946A240E9448
:1034D000FA2267E4E7CF8CEF860F813A18F380E297
:1034E000860F883048F4677081E001C0880F6A95C4
:1034F000EAF70E943623DCCF8BE5860F833020F479
:1035000080E090E00C94DD17685A653120F480E08B
:1035100090E00C94F3170895882321F00E94302343
:103520000C94FA220895882321F00E9436230C94EB
:10353000FA2208954F925F926F927F92BF92CF923C
:10354000DF92EF92FF920F931F93CF93DF937C0153
:10355000D62FC72FFC01058102950F701281111122
:103560000E9450230E94F322882379F0112369F0EE
:1035700080E28D0F883048F082E00E94DC220E94B9
:10358000F32291E0B82EB92601C0B12CCC2EC29402
:103590008FE0C822D12CF601E859FF4F0C941F325E
:1035A0008C2F807FCF70882311F0C295C07F1123AC
:1035B00099F0CC2309F48EC180E28D0F883010F091
:1035C000D11104C08C2F0E94302303C08C2F0E9485
:1035D00043230E94FA227EC18D2F0E942D1ACC23F4
:1035E00009F4C1C180E28D0F883010F0D11104C000
:1035F0008C2F0E94362303C08C2F0E9449230E94E7
:10360000FA22B1C18C2F807FCF70803211F0C29529
:10361000C07FDD2319F0D130C9F022C0112371F031
:10362000002341F0013031F40E9469238C2B0E9469
:10363000632399C10E9469238C2B1DC0002319F0BC
:10364000013009F490C10E9466231AC0112321F0B1
:10365000063008F088C10EC0053008F084C110C0E3
:10366000112361F0002331F0F701858180FF32C121
:103670008F7085838C2F0E948C1A75C101113BC1FC
:103680008C2FE6C08C2F86958695837090E00097EE
:1036900019F0019761F067C1112321F08D2F9C2F44
:1036A000937002C080E090E00E94DD176CC111238E
:1036B00021F08D2F9C2F937002C080E090E00E943B
:1036C000F31761C18C2F837009F050C0111157C1DD
:1036D0008D2F829586958770880F880F9D2F9F70FC
:1036E000492E512C612C712C082E04C0440C551C01
:1036F000661C771C0A94D2F7D4FF14C00FE010E0C8
:1037000020E030E0B901A80104C0440F551F661F36
:10371000771F8A95D2F7CB01BA0160957095809595
:10372000909503C060E070E0CB01C695C695C3706C
:10373000D0E0C230D10561F0C330D10581F06429F9
:10374000752986299729219771F00E94162117C1A2
:1037500064297529862997290E94282110C10E9471
:103760001621C301B2010E94042109C1112319F0DD
:103770008C2F817001C08695882309F400C18D2F9C
:10378000829586958770880F880F9D2F9F70492E90
:10379000512C612C712C082E04C0440C551C661C45
:1037A000771C0A94D2F7D4FF14C00FE010E020E099
:1037B00030E0B901A80104C0440F551F661F771FF0
:1037C0008A95D2F7CB01BA01609570958095909556
:1037D00003C060E070E0CB01C695C695C3704C2F66
:1037E00050E04230510569F04330510589F06429B9
:1037F0007529862997294130510571F00E94DC21F5
:10380000BEC064297529862997290E94EE21B7C078
:103810000E94DC21C301B2010E94CA21B0C08D2FD9
:1038200090E0FC01E05EF109E531F10508F04EC0E1
:10383000E858FF4F0C941F32DF708C2F8F711123CB
:1038400021F00E9463218D2F16CF0E9484218D2F9D
:103850000E94931A88C0112341F0053008F083C0FC
:103860008C2F8F710E94A9217EC0063008F07BC08A
:10387000F7CF112339F08C2F8F710E94632173C011
:103880001123C9F38C2F8F710E9484216CC01123E6
:1038900029F08C2F8F710E944E2165C00E94492112
:1038A00062C0112349F0CF718C2F0E94632163E025
:1038B0008C2F0E94D32257C081E00E94DC2202306C
:1038C00008F451C082E00E94DC224DC0112331F087
:1038D000002389F28D2F0E94361945C0002391F2F2
:1038E000D93349F45FEF67EE73E0515060407040A8
:1038F000E1F700C000008D2F0E942D1A34C04C2F1C
:103900004F706D2FC7010E94BB090E9477203BC0FA
:10391000111139C0CF70D0E0C230D10599F03CF41C
:10392000209769F02197F9F40E94F8252CC0C43043
:10393000D10571F054F02597B1F480E00AC00E94DF
:10394000C82521C00E9427261EC00E9454261BC0E5
:1039500085E00E948A2617C04C2F4F706D2FC7013B
:103960000E94570610C088E0C816D10441F05CF0F0
:10397000EAE0CE1AD108F2E0CF16D10420F40E947A
:1039800088170E94FA06BB20F1F00E94CF2280FD2A
:103990001AC0F70112820E94C9220E946321C70146
:1039A0000E94F11C0E94C922DF91CF911F910F91BB
:1039B000FF90EF90DF90CF90BF907F906F905F90DF
:1039C0004F900C948421DF91CF911F910F91FF9024
:1039D000EF90DF90CF90BF907F906F905F904F906F
:1039E00008950F931F93CF93DF93EC018881998102
:1039F0002B813C81232BB9F09F3F11F48F3F99F02D
:103A0000CE010E940C07882371F0688179818A8138
:103A10000E94A6228C010E9400220E940121B8016E
:103A2000CE010E949A1ADF91CF911F910F910895B4
:103A30000E9450230E9460238091310190913201B5
:103A40000E9480240E94FA2280E090E00E94DD170C
:103A500080E090E00C94F3170E943D230C94181D15
:103A60000E949B22E92FE295EF70F0E03297EE3052
:103A7000F105B0F4E357FF4F0C941F32803F91F0F3
:103A800018F4803E68F40EC0843F51F40BC0803EB1
:103A900048F0813F29F406C093FB882780F90895F8
:103AA00080E0089581E00895CF93DF9300D000D0A7
:103AB0001F92CDB7DEB70F900F900F900F900F9021
:103AC000DF91CF910895CF93DF9300D000D000D045
:103AD000CDB7DEB726960FB6F894DEBF0FBECDBFCA
:103AE000DF91CF9108951F93CF93DF93C091C701CA
:103AF00016E08091C801C81799F0D0E01C9FF00132
:103B00001D9FF00D1124E753FE4F408151816281CA
:103B10007381848195810E94631D2196C770E9CFCE
:103B2000DF91CF911F9108954091F9015091FA01D1
:103B30006091FB017091FC018091FD019091FE016B
:103B40000C94631D8091FE0182958F7009F054C022
:103B50008091FB01882309F44FC08091C701A09197
:103B6000C8016091F9017091FA014091FC015091F6
:103B7000FD01B6E08A1709F43FC090E041155105F8
:103B8000C1F17F3F11F46F3FA1F1B89FF001B99FE0
:103B9000F00D1124E753FE4F218172132AC02081BA
:103BA000621327C02281211124C02381348124176C
:103BB000350710F421503109241B350B283C310501
:103BC000C0F42091FE012F7020612093FE0126E0B9
:103BD000289FF001299FF00D1124E253FE4F8081B0
:103BE0008F708061808389EF91E00E94F11C0C94BA
:103BF000731D01968770BECF0895CF92DF92EF922A
:103C0000FF920F931F93CF93DF93CDB7DEB76297E9
:103C10000FB6F894DEBF0FBECDBF8C0185E0F80172
:103C2000DE011D9601900D928A95E1F7D8014C9125
:103C300011965C91119712966C9112971396CD90F4
:103C4000DC9014973091F9017091FA018091FC0198
:103C50009091FD01009709F46BC17F3F19F43F3F3C
:103C600009F466C1E090FB01EE2009F4C0C0209188
:103C7000FE01C816D90628F0F601E81BF90BCF01A2
:103C800004C0809590958C0D9D1DFF24F394883C75
:103C9000910578F0F12C207F09F0C6C07C2DD98ADF
:103CA000C88A89890E94541D89EF91E00E94F11C05
:103CB000B1C0822F807F09F046C0751314C0341341
:103CC00012C0611110C02F7020612093FE010E946C
:103CD000941D89EF91E00E94F11C8091FE01D801B2
:103CE00015968C932EC0CD2819F15F3F11F44F3FEC
:103CF000F9F0F62E61111CC08091C7012091C80116
:103D000036E0821709F45AC090E0389FF001399FDD
:103D1000F00D1124E753FE4F7181571306C07081D7
:103D2000471303C07281711103C001968770E9CFF8
:103D3000F62E662309F427C18091FE0181608093ED
:103D4000FE01F12C20C1751308C0341306C06111A7
:103D500004C08091FE01D801C3C04D875E878D8568
:103D60009E856A8B0E94301D6A898823E1F1662353
:103D7000D1F12091FE01822F82958F7090E0029701
:103D800074F08091F9019091FA0198878F831986D8
:103D9000DB86CA862C87CE0107960E94F11C86E03E
:103DA000F801A9EFB1E001900D928A95E1F70E9428
:103DB000A21D0E94941DFF24F394E5C04D875E87E9
:103DC0008D859E850E949B22292F22952F7030E0A1
:103DD000223031050CF0CBC09F7009F0C5C0805E69
:103DE000883008F4D0C0C8010E94F11CE4CFC81686
:103DF000D90608F453C0F601E81BF90BCF01883C43
:103E0000910508F450C0F12C7C2DD98AC88A898983
:103E10000E94541DE9EFF1E086E0DF011D928A95D2
:103E2000E9F70E94941DAFC0751314C0341312C07B
:103E3000611110C08091FE01F8018583C8010E94C4
:103E4000F11C86E0E9EFF1E0DF011D928A95E9F7C8
:103E5000FE2C99C04D875E878D859E856A8B0E945A
:103E6000301D6A89882309F4BECF662309F4BBCFCD
:103E70002091FE01822F82958F7090E002970CF4C2
:103E80008ECF8091F9019091FA019A8389831B82E8
:103E9000DD82CC822E83CE0101967FCF80959095D6
:103EA0008C0D9D1DACCFF62E662309F49CCF7513A7
:103EB0002EC034132CC02091FE0120FD1FC0822F84
:103EC00082958F70D9F0D80115962C9315978F3065
:103ED00049F08F5F982F9295907F822F8F70892B5A
:103EE00015968C93C8010E94F11C86E0F801A9EF99
:103EF000B1E001900D928A95E1F793CF86E0F80149
:103F0000A9EFB1E001900D928A95E1F73CC04D8791
:103F10005E878D859E850E94301D811140CF8091E6
:103F2000FE0181608093FE01C8010E94F11C2BC03C
:103F3000662309F458CF4D875E878D859E850E9444
:103F4000301DF82E882309F44ECF86E0F801A9EF42
:103F5000B1E001900D928A95E1F789EF91E00E941E
:103F600030190E94A21D5DCF811139CF0CC02430C1
:103F700031050CF038CF9F7009F431CFF8019581ED
:103F8000907F09F02CCF8F2D62960FB6F894DEBF8C
:103F90000FBECDBFDF91CF911F910F91FF90EF909A
:103FA000DF90CF9008951F93CF93DF93CDB7DEB707
:103FB0002C970FB6F894DEBF0FBECDBF4F83588746
:103FC00069877A878B879C87CE0107960E94FD1DA3
:103FD000882369F08F8198852A853B85232BF1F111
:103FE0009F3F09F063C08F3F09F060C037C086E093
:103FF000FE013796DE01119601900D928A95E1F748
:104000006F817885EA85FB85309741F17F3F11F418
:104010006F3F21F12091C80130E0C90101968770FE
:1040200099274091C70150E08417950709F447C0CC
:1040300069837A83FD83EC8396E0929FD001939FFE
:10404000B00D1124A753BE4FFE01319601900D9281
:104050009A95E1F78093C8010E94731D16E0809144
:10406000C7019091C8018917C1F1189FC00111249F
:1040700087539E4F0E94FD1D882379F1E091C7016F
:104080001E9FF0011124E753FE4F40815181628150
:104090007381848195810E94631D8091C70190E0A6
:1040A0000196877099278093C701D9CF4F81588592
:1040B00069857A858B859C850E94631DCFCF0E9480
:1040C0002C1D1092C8011092C701E9EFF1E086E0C3
:1040D000DF011D928A95E9F7C1CF2C960FB6F894AF
:1040E000DEBF0FBECDBFDF91CF911F910895EF923C
:1040F000FF920F931F93CF93DF938C01892B09F4C9
:104100006CC0F12CEE24E394E8012196F80184912F
:10411000843740F4843008F051C0813081F082301F
:1041200019F15BC0853709F444C0A8F19CE7980FEA
:10413000903708F052C08F770E942D1A41C00E5F51
:104140001F4FFE01C49180E28C0F883048F4C77085
:104150008E2D01C0880FCA95EAF70E94532314C020
:104160008C2F0E9436192DC00E5F1F4FFE01C49187
:1041700080E28C0F883058F4C7708E2D01C0880FF4
:10418000CA95EAF70E9459230E94FA221AC08C2F7E
:104190000E942D1A16C00E5F1F4FFE01C491CC2342
:1041A00081F08FE99FE00197F1F700C00000C15056
:1041B000F6CF0E5F1F4FFE01F49003C00E94361928
:1041C0008E018F2D882309F49FCFEFE9FFE031970F
:1041D000F1F700C000008150F5CFDF91CF911F9122
:1041E0000F91FF90EF90089508950E94F42060933E
:1041F00035027093360280933702909338020C9404
:10420000181D08950C94F5200F931F93009135020B
:10421000109136022091370230913802602B712BB9
:10422000822B932B1F910F910C94F5200F931F93CA
:1042300000913502109136022091370230913802F8
:1042400060237123822393231F910F910C94F520F7
:104250000F931F930091350210913602209137027F
:104260003091380260277127822793271F910F9181
:104270000C94F52008950C943A210E943B21609300
:1042800031027093320280933302909334020C9483
:10429000181D60E070E0CB010C943D210F931F933B
:1042A00041E050E060E070E08A019B0104C0000F33
:1042B000111F221F331F8A95D2F7C901B8011F9120
:1042C0000F910C943D210F931F9341E050E060E06B
:1042D00070E004C0440F551F661F771F8A95D2F700
:1042E0008091310290913202A0913302B091340258
:1042F0008A019B01082B192B2A2B3B2BC901B801E2
:104300001F910F910C943D210F931F9341E050E0BA
:1043100060E070E004C0440F551F661F771F8A9548
:10432000D2F74095509560957095809131029091AB
:104330003202A0913302B09134028A019B0108231A
:1043400019232A233B23C901B8011F910F910C9413
:104350003D210F931F9341E050E060E070E004C006
:10436000440F551F661F771F8A95D2F7809131023F
:1043700090913202A0913302B09134028A019B01E4
:10438000082719272A273B27C901B8011F910F9138
:104390000C943D210F931F93009131021091320232
:1043A0002091330230913402602B712B822B932B9E
:1043B0001F910F910C943D210F931F930091310297
:1043C0001091320220913302309134026023712324
:1043D000822393231F910F910C943D210F931F93E0
:1043E0000091310210913202209133023091340257
:1043F00060277127822793271F910F910C943D21ED
:1044000008952FE0929F800D1124A82FA695A695C0
:10441000A695877051E001C0550F8A95EAF785E0AF
:10442000A89FD001112420E030E070E0F901EA0FEC
:10443000FB1FE150FE4F4081CB01022E02C096953A
:1044400087950A94E2F781709927819584278523BF
:10445000842780832F5F3F4F2530310539F708953A
:104460002FE0929F800D1124682F669566956695C2
:10447000982F977085E0689FB001112440E050E0CC
:1044800080E0FA01E60FF71FE150FE4F208130E097
:10449000092E02C0369527950A94E2F7217033273A
:1044A000042E01C0220F0A94EAF7822B4F5F5F4F60
:1044B0004530510531F70895CF92DF92EF92FF9288
:1044C0000F931F93CF93DF938C01C0903502D09050
:1044D0003602E0903702F0903802809131029091DC
:1044E0003202A0913302B0913402C82AD92AEA2AB2
:1044F000FB2ACFE1D0E0D701C6010C2E04C0B6954F
:10450000A795979587950A94D2F780FF06C0B801C2
:104510008C2F0E94D809019721F4219760F780E041
:1045200001C08C2FDF91CF911F910F91FF90EF90E1
:10453000DF90CF900895CF93DF93EC010E945C222F
:10454000BE010E94D809DF91CF9108951F93CF93A8
:10455000DF93EB019091C601992321F0CB010E94DA
:104560009B2213C0882349F0CB010E945C22182FA4
:10457000682FCE010E94012204C0CB010E9430228C
:10458000182FBE01812F0E94D809DF91CF911F9172
:104590000895809139028595859585950895809136
:1045A00039028770089598E0899F90011124262B85
:1045B000209339020C946321209139028095822343
:1045C00080933902982F977069F430E0482F082EB5
:1045D000000C550B2417350729F085958595859591
:1045E0000C948421089590913902977081E009F428
:1045F00080E00895E0913101F091320180915D02F7
:104600008083E0913101F0913201908180915C02D0
:10461000892B8083E0913101F0913201908180916A
:104620005B02892B808380913A02882381F0E0919C
:104630003101F09132019081892B80838091310189
:10464000909132010E94EC23811110923A028091E4
:104650003101909132010C94941780915D0208957C
:1046600090915D02892B80935D02089580959091D1
:104670005D02892380935D02089510925D02089582
:1046800080915C02089590915C02892B80935C027A
:104690000895809590915C02892380935C0208952F
:1046A00010925C02089590915B02892B80935B02CB
:1046B0000895809590915B02892380935B02089511
:1046C00010925B02089580933A02089510923A0284
:1046D000089580913A02089590936701809366014E
:1046E00008958295982F9C7C392F36953695282FE2
:1046F000237344E0249FC0011124932F982B292F6A
:104700002A7A2695892F8575880F822B08951F9305
:10471000CF93DF931F92CDB7DEB799830E947123A9
:10472000182F9981892F0E947123212F30E0322F79
:104730002227A901482BCA010F90DF91CF911F9129
:1047400008956DEE7EEF80E090E00E94713260E0AF
:1047500082E090E00E94533260E083E090E00E94AB
:10476000533260E084E090E00E94533260E085E0E4
:1047700090E00E94533260E086E090E00E94533265
:1047800040E050E0BA0188E090E00C94653280E0AF
:1047900090E00E944D3221E08D3E9E4F09F020E0D6
:1047A000822F089582E090E00C943F3283E090E005
:1047B0000C943F3284E090E00C943F32682F84E008
:1047C00090E00C94533286E090E00C943F32682FD6
:1047D00086E090E00C945332FC0131969C01205EFF
:1047E0003F4F80E0919191118F5FE217F307D1F76E
:1047F00008959C01FC0132969FEF80E0419146179D
:1048000089F09F3F19F4411101C0982F8F5F8E31BD
:10481000A9F79F3F39F0F901E90FF11D97FDFA95CE
:10482000628308950895FC013296809620812613B4
:1048300001C010823196E817F907C1F70895262FB5
:104840002695269526952F3170F4FC01E20FF11D77
:10485000677021E030E001C0220F6A95EAF781819C
:10486000282B2183089580915E0280FF0CC01F9247
:104870006F9387EC97E09F938F930E94E2050F90D0
:104880000F900F900F900895262F26952695269528
:104890002F3178F4FC01E20FF11D677021E030E068
:1048A00001C0220F6A95EAF7209581812823218390
:1048B000089580915E0280FF0CC01F926F9389EA79
:1048C00097E09F938F930E94E2050F900F900F90B7
:1048D0000F90089520913D01222329F02091BF02DD
:1048E00027FD0C941F240C94F92320913D012223D1
:1048F00029F02091BF0227FD0C9444240C9413242A
:10490000FC01319680961192E817F907E1F70895B6
:1049100008950C9488248091C602843061F110922D
:104920005F0220E488E190E00FB6F894A8958093A8
:1049300060000FBE2093600080E00E94890680E046
:104940000E94FA060E94892483B7817F846083BF16
:1049500083B7816083BF7894889583B78E7F83BF48
:104960000FB6F894A89580916000886180936000EC
:10497000109260000FBE089508950895CF930E948D
:10498000BC240E94ED0C0E94BD24C0E08C2F0E942C
:10499000A10D892B29F4CF5FC530C1F780E001C09C
:1049A00081E0CF91089508950C94D3240E942C1D8A
:1049B0000E94AB250E9488170E94FA060C94D4240A
:1049C0001F920F920FB60F9211248F939F93AF9364
:1049D000BF9380915F02811113C08091BB029091BF
:1049E000BC02A091BD02B091BE024196A11DB11DB5
:1049F0008093BB029093BC02A093BD02B093BE0211
:104A0000BF91AF919F918F910F900FBE0F901F900C
:104A1000189582E084BD93E095BD9AEF97BD809391
:104A20006E0008952FB7F8948091BB029091BC025C
:104A3000A091BD02B091BE022FBF0895CF92DF9228
:104A4000EF92FF920F931F932FB7F8944091BB0200
:104A50005091BC026091BD027091BE022FBF6A01ED
:104A60007B01EE24FF248C0120E030E0C016D1064B
:104A7000E206F30610F4415051099A01281B390B44
:104A8000C9011F910F91FF90EF90DF90CF90089593
:104A900078941F920F920FB60F9211248F939F93C9
:104AA000AF93BF938091BB029091BC02A091BD02D5
:104AB000B091BE020196A11DB11D8093BB029093DF
:104AC000BC02A093BD02B093BE02BF91AF919F9173
:104AD0008F910F900FBE0F901F90189581E08093DB
:104AE000E00080E28093D8001092C9008FE19EE43C
:104AF0000197F1F700C0000087E090EBDC018093A4
:104B0000CF029093D002A093D102B093D2029CE046
:104B100088E10FB6F894A895809360000FBE90933B
:104B20006000FFCF0E94C723811102C00E94A12311
:104B30000E94D22380935E020E94DA2390E0909339
:104B4000C0028093BF020E94D623682F70E080E0ED
:104B500090E00C9402210E94C723811102C00E94A0
:104B6000A1230E94E3238093C102282F269530E0E1
:104B70002630310524F081708A608093C1028091D3
:104B8000C10280FF02C0869501C080E00C948906B6
:104B90002091C102822F8695482F50E04530510563
:104BA00044F48F5F982F990F822F8170892B809307
:104BB000C1028091C10281608093C1020E94E723FB
:104BC00080915E0280FF0FC08091C10286951F9286
:104BD0008F9387E298E09F938F930E94E2050F9056
:104BE0000F900F900F908091C10286950C948906CA
:104BF0008091C102982F969591F09158990F8170EC
:104C0000892B8093C1028E7F91E009F490E080911E
:104C1000C10290FB80F98093C1020E94E72380913A
:104C20005E0280FF0FC08091C10286951F928F9314
:104C30008FE098E09F938F930E94E2050F900F9072
:104C40000F900F908091C10286950C9489068091F7
:104C5000C102982F909590FB80F98093C10281301A
:104C600019F483E08093C1028091C1020E94E7237E
:104C700080915E0280FF0FC08091C10281701F92FF
:104C80008F9389EF97E09F938F930E94E2050F9097
:104C90000F900F900F908091C10280FF02C0869507
:104CA00001C080E00C9489069091C102892F8695FD
:104CB0008F5F8F779170863028F4880F892B8093CF
:104CC000C10202C09093C1028091C1028E7F91E027
:104CD00009F490E08091C10290FB80F98093C102B9
:104CE0000E94E72380915E0280FF0FC08091C10285
:104CF00086951F928F9385EE97E09F938F930E94E6
:104D0000E2050F900F900F900F908091C102869551
:104D10000C948906863008F085E0880F9091C102D6
:104D20009170892B8093C1028E7F91E009F490E00D
:104D30008091C10290FB80F98093C1020E94E72319
:104D40008091C10286950C94890680918302089512
:104D500008959FB7F894109262029FBF9091C60287
:104D6000943009F057C09091E9009F703091EC00A9
:104D7000232F217030FD20E8922B23E02093E900BF
:104D80002091EB0020FF43C02091EE0027FF3FC0A1
:104D900020916002222321F02091E80025FF37C0F6
:104DA0001092600226E03091E80035FD15C0309188
:104DB000C602343061F53091EB0035FD28C021503A
:104DC00021F481E08093600222C0EFE9FFE0319797
:104DD000F1F700C00000E7CF8093F1008091E80078
:104DE00085FD0AC08091E80080FFFCCF8091E8003B
:104DF0008E778093E80006C08FB7F89421E0209367
:104E000062028FBF9F709093E90080E008959F70C9
:104E10009093E9008FEF08950F931F93CF93DF9343
:104E200000D01F92CDB7DEB78C010E94B829823026
:104E300011F0843021F583E089831B830A8382E0AB
:104E40008093E9008FEF9091E800815095FD06C0B6
:104E500095ED9A95F1F700008111F5CF8091E8006A
:104E600085FF0DC040E050E063E070E0CE010196A8
:104E70000E94D5298091E8008E778093E8000F90FA
:104E80000F900F90DF91CF911F910F910895CF93C5
:104E9000DF9300D01F92CDB7DEB72091C602243039
:104EA00029F522E02983805891099B838A832093E6
:104EB000E9008FEF9091E800815095FD06C095EDD7
:104EC0009A95F1F700008111F5CF8091E80085FFF8
:104ED0000DC040E050E063E070E0CE0101960E941A
:104EE000D5298091E8008E778093E8000F900F908D
:104EF0000F90DF91CF910895CF93DF93EC010E9443
:104F0000B829823019F0843009F047C080913D0102
:104F10008823E1F08091BF0287FF18C084E080936E
:104F2000E9008FEF9091E800815095FD06C095E172
:104F30009A95F1F700008111F5CF8091E80085FF87
:104F40002CC040E050E060E270E017C081E0809348
:104F5000E9008FEF9091E800815095FD06C095ED36
:104F60009A95F1F700008111F5CF8091E80085FF57
:104F700014C040E050E068E070E0CE010E94D52906
:104F80008091E8008E778093E80080E2FE01A3E63E
:104F9000B2E001900D928A95E1F7DF91CF910895EB
:104FA00084E698E00E9449058091C502811109C0FC
:104FB0000E946A2B0E94C72B8091E200846080933C
:104FC000E200089580E698E00E9449051092C5022B
:104FD00008958CE598E00C94490588E598E00C94D8
:104FE000490584E598E00E9449050C94D624209157
:104FF00061022F5F822F62E30E94C931992319F069
:1050000020936102089510926102809162028823C8
:1050100071F18091C602843041F58091E9008F7072
:105020002091EC00922F917020FD90E8892B93E065
:105030009093E9009091EB0090FF14C09091EE00E6
:1050400097FF10C09091E80095FF03C01092F10007
:10505000F9CF9091E80090FF05C09091E8009E770D
:105060009093E8008F708093E90010926202089597
:1050700042E061EC81E00E94E42A42E061EC82E0DF
:105080000E94E42A42E261EC83E00E94E42A42E2C8
:1050900061EC84E00C94E42A8091C802833009F426
:1050A00055C030F4813071F0823009F48EC008951B
:1050B0008A3009F47AC08B3009F460C0893009F075
:1050C0009CC020C08091C702813A09F096C08091AF
:1050D000E800877F8093E8008091CB029091CC021A
:1050E000892B21F460E283E692E003C060E080E077
:1050F00090E070E00E94202A8091E8008B778093F6
:10510000E80008958091C702813209F076C080914D
:10511000CB029091CC02009719F0039709F06DC073
:105120008091E800877F8093E8008091E80082FD0D
:1051300005C08091C6028111F8CF5FC08091F10057
:10514000809383028091E8008B7753C08091C702DF
:10515000813A09F052C08091CB029091CC02892B08
:1051600009F04BC08091E800877F8093E800809130
:10517000E80080FFFCCF80913D0136C08091C702DE
:105180008132D9F58091CB029091CC02892BA9F57F
:105190008091E800877F8093E8000E94192B80911E
:1051A000C90280933D010C942C1D8091C70281326D
:1051B00021F58091E800877F8093E8000E94192BF9
:1051C0008091CA028093840208958091C702813A37
:1051D000A1F48091E800877F8093E8008091E80047
:1051E00080FFFCCF809184028093F1008091E800E1
:1051F0008E778093E8000C94192B089584B7877FED
:1052000084BF0FB6F894A895809160008861809360
:105210006000109260000FBE80E8809361001092E1
:1052200061000E940A180E946A2B0E94C72B80917D
:10523000E20084608093E20089EA96E20E946C2397
:1052400078940E94552E0E940E1883E391E00E94EC
:10525000831783E498E00E9449058091C602853057
:1052600089F48FE398E00E9449050E948B24809185
:10527000C402882391F30E94BE24882371F30E9404
:10528000BF29EBCF0E9446180E94BF15E6CF0C94B1
:105290004929292F332723303105C9F064F42130FF
:1052A000310581F02230310509F049C084E790E0F2
:1052B00020E938E048C02132310521F122323105A0
:1052C00071F13DC082E190E024E039E03CC09927D3
:1052D0008130910571F02CF4892B89F5ECE8F8E028
:1052E0000DC08230910541F0039749F5E8E6F8E0FA
:1052F00005C0EAE7F8E002C0EEE6F8E0849190E04D
:105300009F0121C064307105D0F4660F771FFB0147
:10531000E25AFE4F2081318189E090E014C0643070
:10532000710568F4FB01EE0FFF1FEA5AFE4F208162
:105330003181FB01EE5AFE4F808190E004C080E095
:1053400090E020E030E0FA01318320830895089551
:10535000CF93C82F0E94A729C0938502CF910895AB
:105360008091C602843011F081E0089582E00895B2
:1053700080918502811102C00C94B029089580E1CA
:1053800089BD82E189BD09B400FEFDCF8091D800BE
:105390008F7D8093D8008091E00082608093E00050
:1053A0008091E00081FDFCCF0895CF92DF92EF92D3
:1053B000FF920F931F93CF93DF93EC018B016A0150
:1053C0000E94382B811133C0C114D10439F0F60189
:1053D00080819181081B190BC80FD91FE12CF12C7A
:1053E0000115110519F18091E80085FD16C0809125
:1053F000E8008E778093E800C114D10449F0F601EB
:1054000080819181E80EF91EF182E08285E00FC073
:105410000E94382B882321F30AC089918093F100E0
:1054200001501109FFEFEF1AFF0ADACF80E0DF9198
:10543000CF911F910F91FF90EF90DF90CF90089543
:105440002091CD023091CE022617370748F0611522
:10545000710539F42091E8002E772093E80001C00F
:10546000B90140E061157105A9F12091C60222231E
:1054700009F443C0253009F442C02091E80023FD1F
:1054800040C02091E80022FD32C02091E80020FFBA
:10549000E9CF4091F3002091F20030E0342BFC0181
:1054A000CF016115710559F02830310540F4819123
:1054B0008093F100615071092F5F3F4FF1CF41E0C0
:1054C0002830310509F040E02091E8002E77209344
:1054D000E800C8CF4111C9CF0AC08091C602882315
:1054E00061F0853061F08091E80083FD0AC0809111
:1054F000E80082FFF2CF80E0089582E0089583E023
:10550000089581E008952091CD023091CE022617B2
:10551000370748F06115710539F42091E8002E77BE
:105520002093E80001C0B901FC0120E0611571057C
:1055300091F18091C602882309F440C0853009F4B6
:105540003FC08091E80083FD3DC08091E80082FD6E
:105550002FC08091E80080FFE9CF2091F300809177
:10556000F20090E0922B6115710559F08830910599
:1055700040F424912093F100319661507109019615
:10558000F2CF21E0089709F020E08091E8008E77C3
:105590008093E800CBCF2111CCCF0AC08091C60206
:1055A000882361F0853061F08091E80083FD0AC0B6
:1055B0008091E80082FFF2CF80E0089582E00895B4
:1055C00083E0089581E00895982F973058F59093DF
:1055D000E900981739F07091EC002091ED0050919E
:1055E000F00003C0242F762F50E021FF19C0309126
:1055F000EB003E7F3093EB003091ED003D7F309328
:10560000ED003091EB0031603093EB007093EC00D3
:105610002093ED005093F0002091EE0027FF07C08B
:105620009F5FD3CF8F708093E90081E0089580E081
:1056300008958091C70287FF11C08091E80082FD24
:1056400005C08091C6028111F8CF11C08091E80099
:105650008B770BC08091C602882349F08091E800C7
:1056600080FFF8CF8091E8008E778093E80008955E
:105670002091E4003091E50095E64091EC00842F04
:10568000817040FF22C08091E80080FD1CC08091A5
:10569000C602882391F0853091F08091EB0085FD62
:1056A00010C04091E4005091E5004217530729F3E0
:1056B0009A01915011F784E0089582E0089583E003
:1056C000089581E0089580E008954091E80042FF48
:1056D000DECF08950E94D82B0E94E02BE0EEF0E090
:1056E000808181608083E8EDF0E080818F77808326
:1056F00019BCA7EDB0E08C918E7F8C9380818F7E5A
:1057000080831092C50208950F931F93CF93DF9368
:105710000E94D82B0E94E02BC8EDD0E088818F77C3
:10572000888388818068888388818F7D888319BC7D
:105730001092C6021092C2021092C4021092C302CA
:1057400000EE10E0F80180818B7F8083888181608A
:10575000888342E060E080E00E94E42AE1EEF0E02D
:1057600080818E7F8083E2EEF0E0808181608083A3
:10577000808188608083F80180818E7F808388812A
:1057800080618883DF91CF911F910F910895E8ED9B
:10579000F0E080818F7E8083E7EDF0E080818160A2
:1057A000808384E082BF81E08093C5020C94842BC7
:1057B000E8EDF0E080818E7F80831092E200089512
:1057C0001092DA001092E10008951F920F920FB626
:1057D0000F9211242F933F934F935F936F937F9377
:1057E0008F939F93AF93BF93EF93FF938091E100CB
:1057F00082FF0BC08091E20082FF07C08091E10030
:105800008B7F8093E1000E94F7278091DA0080FF70
:105810001FC08091D80080FF1BC08091DA008E7F6E
:105820008093DA008091D90080FF0DC080E189BDAE
:1058300082E189BD09B400FEFDCF81E08093C602FC
:105840000E94D02705C019BC1092C6020E94E22710
:105850008091E10080FF19C08091E20080FF15C0B7
:105860008091E2008E7F8093E2008091E20080616F
:105870008093E2008091D80080628093D80019BCA8
:1058800085E08093C6020E94ED278091E10084FFAD
:1058900030C08091E20084FF2CC080E189BD82E1AC
:1058A00089BD09B400FEFDCF8091D8008F7D809323
:1058B000D8008091E1008F7E8093E1008091E2002A
:1058C0008F7E8093E2008091E20081608093E2000D
:1058D0008091C202882311F084E007C08091E30028
:1058E00087FD02C081E001C083E08093C6020E9470
:1058F000F1278091E10083FF29C08091E20083FFBE
:1059000025C08091E100877F8093E10082E0809351
:10591000C6021092C2028091E1008E7F8093E10066
:105920008091E2008E7F8093E2008091E2008061AE
:105930008093E20042E060E080E00E94E42A8091EF
:10594000F00088608093F0000E94E927FF91EF91BA
:10595000BF91AF919F918F917F916F915F914F9187
:105960003F912F910F900FBE0F901F9018951F928F
:105970000F920FB60F9211242F933F934F935F9383
:105980006F937F938F939F93AF93BF93CF93DF9347
:10599000EF93FF93C091E900CF708091EC00D82F76
:1059A000D17080FDD0E81092E9008091F000877FEF
:1059B0008093F00078940E94FB2C1092E900809173
:1059C000F00088608093F000CD2BCF70C093E90089
:1059D000FF91EF91DF91CF91BF91AF919F918F9107
:1059E0007F916F915F914F913F912F910F900FBEDB
:1059F0000F901F9018951F93CF93DF93CDB7DEB70D
:105A0000AA970FB6F894DEBF0FBECDBFE7ECF2E069
:105A100088E08E0F9091F10091938E13FBCF0E943E
:105A20004C288091E80083FF28C18091C7029091A3
:105A3000C802492F50E04A30510508F01EC1FA0152
:105A4000E556FF4F0C941F32803821F0823809F060
:105A500014C108C08091C3029091C402992389F0B7
:105A600082600FC08091CB028F70873008F005C133
:105A70008093E9008091EB0085FB882780F91092E4
:105A8000E9009091E800977F9093E8008093F100FF
:105A90001092F100D0C0282F2D7F09F0EEC088238E
:105AA00019F0823061F0E9C08091C902813009F0BB
:105AB000E4C0933009F080E08093C4022EC080914E
:105AC000C90281112AC08091CB028F702FEF280F5D
:105AD000263008F0D2C08093E9002091EB0020FF2F
