:100000000C9428040C946C040C9487040C946C04D9
:100010000C946C040C946C040C946C040C946C04A0
:100020000C946C040C94FD060C94F7220C946C0454
:100030000C946C040C946C040C946C040C946C0480
:100040000C946C040C946C040C946C040C946C0470
:100050000C946C04970899089B08A6089D089F08B3
:10006000A108A308A508A808AA08AC08B708AE0804
:10007000B008B208B408B608B908111A111A431A20
:10008000431A831AF41BF41BF41BA31AF41B501B12
:10009000501BC01BC91BF41BED1B5D1B5D1B5D1BB7
:1000A0005D1B5D1B5D1B5D1B5D1B5D1B5D1B5D1B90
:1000B0005D1B5D1B5D1B5D1B5D1B6C1B7A1B811B30
:1000C000881B921B7F1C7F1C911C911C881C911CFF
:1000D000911C911C7F1C7F1C8D1C911C911C8D1CE4
:1000E00007634236B79BD8A71A39685618AEBAAB21
:1000F000558C1D3CB7CC5763BD6DEDFD753EF617B5
:100100007231BF000000803F05A84CCDB2D44EB97B
:100110003836A9020C50B9918688083CA6AAAA2AAA
:10012000BE000000803F215B5D28290031001300E4
:1001300012000C00150017001C00180008001A001F
:1001400014002B00000000000000340033000F00FA
:100150000E0009000A000B000D0007001600040045
:1001600029420000000000002A0027002600250088
:10017000210022002300240020001F001E00350063
:100180000000000000003872370036001000060042
:1001900019000500110028001B001D00E1000000EF
:1001A000000000004C002E002D00E4002C002C006C
:1001B00001510151E200E300E000E0000000000016
:1001C000000000000000000000000000000000002F
:1001D000000000000000000000000000000000001F
:1001E000000000000000000000000000000000000F
:1001F00000000000000000000000000000000000FF
:1002000000000000000000000000000000000000EE
:10021000000000000000000000000000005C46003C
:100220004E0052003002220023004B002F02E30058
:10023000A600280000000000000028004D004F002C
:10024000510027024D004A005000260250004A008B
:10025000390000000000000044004300420041005B
:100260003D003E003F0040003C003B003A0045009E
:100270000000000000003802A900AA00AE00300013
:10028000DC5CC75CC45C2F004C002A00010000004D
:10029000000000000100A900AA0001000100010007
:1002A0000100010001000100010001000000000048
:1002B000000000000000000000000000000000003E
:1002C000000000000000000000000000000000002E
:1002D000000000000000000000000000000000001E
:1002E000000000000000000000000000000000000E
:1002F00000000000000000000000000000000000FE
:100300000000000000000000000000003100460076
:10031000BC5CBB5C30020100B95CBA5C2F0201001E
:10032000A6002800000000000000280030002F0078
:100330003702270236023702360226020100010088
:10034000010000000000000044002E002D004100CC
:10035000440045003F00400043003E003E01450090
:10036000000000000000CB5CC55CC65CC35C3000D4
:10037000DC5CC75CC45C2F000100010001000000D0
:1003800000000000AE00A900AA00AB0001000100BF
:1003900001000100010001000100BE5C000000003E
:1003A000000000000000000000000000000000004D
:1003B000000000000000000000000000000000003D
:1003C000000000000000000000000000000000002D
:1003D000000000000000000000000000000000001D
:1003E000000000000000000000000000000000000D
:1003F00000000000000000000000000001000100FB
:1004000001000100010001000100010001000100E4
:1004100001000100000000000000010001000100D7
:1004200001000100010001000100010001000100C4
:1004300001000000000000000100010001000100B7
:1004400001000100010001000100010001000100A4
:100450000000000000000100010001000100010097
:100460000100010001000100010001000100000085
:1004700000000000B95CBC5CBB5CBA5C0100010020
:100480000100010001000100010001000000000066
:10049000000000000000000000000000000000005C
:1004A000000000000000000000000000000000004C
:1004B000000000000000000000000000000000003C
:1004C000000000000000000000000000000000002C
:1004D000000000000000000000000000000000001C
:1004E000000000000000000000000000000000000C
:1004F000000000002A2B280000000000000000007F
:100500000000000000000029000000002C1E342024
:10051000212224342627252E362D3738271E1F204A
:100520002122232425263333362E37381F0405068F
:100530000708090A0B0C0D0E0F10111213141516D3
:100540001718191A1B1C1D2F3130232D35040506D1
:100550000708090A0B0C0D0E0F10111213141516B3
:100560001718191A1B1C1D2F3130354C00000000C4
:10057000000000000000000000000000000000007B
:100580000000000000000000000000000001010168
:100590000101010001010101000000000000000054
:1005A0000000000000000100010001010101010143
:1005B000010101010101010101010101010101012B
:1005C0000101010101010100000001010000000022
:1005D000000000000000000000000000000000001B
:1005E000000000000000000101010100000468019A
:1005F000F000B40078005A007F3F1F643214643268
:1006000014783C1E1E140A050000000000010101C0
:1006100001010101010102020202020202020203BF
:10062000030303030303030404040404040505058E
:10063000050506060606060707070708080808094D
:1006400009090A0A0A0A0B0B0B0C0C0C0D0D0D0EF6
:100650000E0F0F0F10101111111212131314141585
:100660001516161717181819191A1A1B1C1C1D1DF8
:100670001E1F1F202021222223242525262727284C
:10068000292A2B2B2C2D2E2F2F3031323334353677
:10069000363738393A3B3C3D3E3F40414243444681
:1006A0004748494A4B4C4D4F505152535556575855
:1006B0005A5B5C5E5F606263646667696A6C6D6EFC
:1006C000707173747678797B7C7E80818384868870
:1006D0008A8B8D8F91929496989A9B9D9FA1A3A5AA
:1006E000A7A9ABADAFB1B3B5B7B9BBBDBFC1C4C6A8
:1006F000C8CACCCFD1D3D6D8DADCDFE1E4E6E8EB68
:10070000EDF0F2F5F7FAFCFF09023B000201008070
:10071000FA0904000001030101000921010100019F
:1007200022400007058103080001090401000103BC
:100730000000000921010100012284000705830354
:1007400008000105010902A10185010901A10005B7
:100750000919012905150025017501950581027505
:1007600003950181030501093009311581257F7544
:10077000089502810609381581257F3500450075E9
:100780000895018106050C0A38021581257F750838
:1007900095018106C0C005010980A10185021501EE
:1007A00026B700190129B7751095018100C0050C05
:1007B0000901A10185031501269C0219012A9C0249
:1007C000751095018100C005010906A1017501950B
:1007D00008050719E029E715002501810295017533
:1007E00008810395057501050819012905910295F0
:1007F000017503910395067508150026FF0005078E
:10080000190029FF8100C01201100100000008A09A
:10081000202D420002010200011C034A004A00355B
:1008200000300020004B006500790062006F00611D
:10083000007200640016034B005000520065007007
:1008400000750062006C0069006300040309040085
:1008500011241FBECFE5D8E0DEBFCDBF04B603FE36
:1008600024C08091550290915602A0915702B091F8
:1008700058028730904BA740B04BB9F41092550204
:1008800010925602109257021092580214BE84B76A
:10089000877F84BF0FB6F894A89581B5886181BD24
:1008A00011BC0FBEE0E0F8E3099510E0A0E6B0E06F
:1008B000E4E7F7E502C005900D92A237B107D9F73A
:1008C00022E0A2E7B0E001C01D92A535B207E1F732
:1008D0000E94EA240C94B82B0C940000A82FB92F86
:1008E00080E090E041E050EA609530E009C02D9151
:1008F00082279795879510F084279527305EC8F357
:100900006F5FA8F30895EADF8D939D930895CF93C9
:10091000CFB7CF93C395839BE9F7839B0EC0839B8F
:100920000CC0839B0AC0839B08C0839B06C0C091F8
:100930002C02C395C0932C02A3C0DF93C0912B025D
:10094000DD27CD5CDD4F839B02C0DF91E6CF2F9387
:100950000F931F9300B32FEF03FB20F94F933F93A7
:1009600010B34FEF012703FB21F93BE031C04E7F6D
:10097000012F10B3216028C0102F4D7F226000008E
:1009800000B329C04B7F2460012F000010B32BC09F
:1009900010B3477F28602AC04F7E00B320612CC06F
:1009A0004F7D10B320622FC04F7B00B3206432C054
:1009B000422700B349934FEF0000102713FB20F9A3
:1009C00010B31C70C9F1297F91F2012703FB21F9B3
:1009D00000B3237F89F2315058F1102713FB22F91D
:1009E00010B3277E79F2012703FB23F92F7C81F2D4
:1009F00000B3102713FB24F92F7971F200C010B354
:100A0000012703FB25F92F7359F200C000B310270B
:100A100013FB26F9223040F200C010B3012703FB7C
:100A200027F9243028F64F77206810B30000F9CF5B
:100A300010E81ABF002719C03B503195C31BD040A6
:100A400010E81ABF0881033CF9F00B34E9F020915B
:100A500029021981110F1213EDCF4A81441F093663
:100A600041F10D3211F0013E29F7009331023F911F
:100A70004F911F910F912F91DF91CAB7C7FD4ACFB8
:100A8000CF91CFBFCF91189520913102222379F3D6
:100A900010912F021123C1F53430C2F130932F028F
:100AA00020932A0210912B023BE0311B30932B0242
:100AB0002DC000912F0201303CF50AE54F7049F43A
:100AC0003091700034FD24C000937000C2E1D2E088
:100AD00023C0433049F030911D0234FD19C000930A
:100AE0001D02CEE1D2E018C03091490234FD10C0A1
:100AF00000934902CAE4D2E00FC02795A8F45150F0
:100B0000A9F4220F0000F9CF4AE503C042ED01C06D
:100B1000432FC4E1D0E032E011B31C60939A11BBC3
:100B200002B320E41CE05F93012756E002BB279547
:100B300020F4515021F4220FF9CF012756E0000094
:100B40003B5A02BBD0F2279528F4515029F4220FCA
:100B50000000F9CF012756E0279502BB20F4515041
:100B600021F4220FF9CF012756E02991332302BB4C
:100B700021F6037F10913002110FC651D04002BB05
:100B800011F01093290210E81ABF086011B3137F07
:100B9000402F437F5F9100C000C002BB11BB42BB2E
:100BA00066CF8FEF87BB88BB1ABA94B39B7B94BB8D
:100BB0008BBB85B38C6F85BBE2E8F0E0A2E7B0E0C9
:100BC000119211921D921D9280E0E239F807C1F74F
:100BD0000C94E60721E030E0A90102C0440F551F44
:100BE0008A95E2F7CA0147BB809588BB0895982F84
:100BF000990F9A7A86958575982B84E0989F900135
:100C00001124822F8C7C969596959373892B8295CF
:100C10000895DF92EF92FF920F931F93CF93DF938C
:100C200092E7E92E90E0F92E8701C0E025E0D22E70
:100C30008C2F0E94EA0584E18A95F1F7D9B383B33A
:100C400080950E94F705282F30E0322F2227D0957B
:100C50002D2BD8018D919C9111978217930721F02C
:100C60002D933C93D0926000CF5F0E5F1F4FC83032
:100C7000F9F6809160008823C9F08150809360006C
:100C8000882339F0E7EBFBE03197F1F700C0000073
:100C90000DC0E2E8F0E0D7018D919D917D01819337
:100CA0009193B2E8EB16B0E0FB06A9F70E94E407C7
:100CB00081E0DF91CF911F910F91FF90EF90DF9036
:100CC0000895E82FF0E0EE0FFF1FEE57FF4F8081F1
:100CD00091810895089585B3836085BB87E080B9CD
:100CE00086B7846086BF86B7816086BF86B780641A
:100CF00086BF089516BE94EA96BF06B607FEFDCFDE
:100D000091B1987F983011F081E0089583B984E81B
:100D100086BF06B607FEFDCF81B1887F883111F00E
:100D2000803491F780E0089583B984E886BF06B6E1
:100D300007FEFDCF91B1987F81E0983209F480E001
:100D40000895CF92DF92EF92FF921F93CF93DF939C
:100D500000D0CDB7DEB77A0169837A830E947A0624
:100D6000182F69817A8181110DC06B01EC0CFD1C7B
:100D7000CE14DF0449F0F60181916F010E949406C0
:100D80008823B1F311E002C084E986BF812F0F9060
:100D90000F90DF91CF911F91FF90EF90DF90CF9058
:100DA000089580FF03C0889A909A02C0889890980E
:100DB00081FF03C0899A919A02C08998919882FF15
:100DC00003C08E9A969A08958E98969808958FB536
:100DD0008D7F8FBD8FB581608FBD19BC18BC089504
:100DE0008EB5887F83608EBD1DBC1CBC89B78460B6
:100DF00089BF81E080939200089578941F920F92AA
:100E00000FB60F9211240F900FBE0F901F901895E0
:100E10008FB580628FBD8FB58F7E8FBD08958C9A00
:100E2000949A08950E94F0060E9408070C940F07F8
:100E300094980E94E7060C9412078D3008F08CE01D
:100E4000682F70E080E090E00E94132920E030E0FD
:100E50004FE753E40E943E2A20E030E040E451E4B2
:100E60000E9431280E94DD286F3F710519F010F0B3
:100E70006FEF70E079BD68BD08950C9418070C946D
:100E80001D078091E20180FF09C00E946B0644E2C9
:100E900050E067EE71E080EB0C94A10680E090E0FA
:100EA000FC01E951FE4F11821082128203968432B6
:100EB0009105B1F7EACF08950C945B0708958091EE
:100EC0009300811110C08091E20180FF0CC00E944C
:100ED0006B0644E250E067EE71E080EB0E94A106F1
:100EE00081E0809393000E94B1130C945E078C3DC7
:100EF0009C4541F4FB018281882321F086E291E048
:100F00000E94E10781E0089581E008950C9477073D
:100F1000CF93282F30E0F901E451FB4FC491F90140
:100F2000E459FA4F2491222359F081EE0E94E618E9
:100F30008C2F0E94E6188C2F0E94A11981EE04C00C
:100F40008C2F0E94E6188C2FCF910C94A1190F932F
:100F50001F93CF93DF93EC01062FFE01849188232A
:100F600059F19E012F5F3F4F813041F4E901F901B2
:100F70001491812F0E94E618812F0DC0823031F428
:100F8000E901F90184910E94E6180AC0833031F426
:100F9000E901F90184910E94A11902C00E94880709
:100FA0002196802F8823C9F2E7EBFBE03197F1F718
:100FB00000C000008150F6CFDF91CF911F910F91BB
:100FC000089560E00C94A7070C945F070E943D070A
:100FD0000C945C070C94D1060C94EA0708950E94C7
:100FE0006D1C0E94EE072FEB87E299E021508040B4
:100FF0009040E1F700C000000C941D23EF92FF9297
:101000000F931F93CF93DF9300D0CDB7DEB78C0142
:10101000FC01E080F180C7010E944221B7010E94DB
:101020009A0A9A838983B801CE0101960E94F1132E
:10103000882381F1B80189819A810E9486078823DB
:1010400049F1B80189819A810E94300D882311F1FC
:1010500029813A81283CFCE53F07F1F008F017C1EF
:10106000213CECE53E0701F158F525318CE53807C8
:1010700008F0A7C02230ECE53E07D0F52115FCE5CD
:101080003F0709F086C0F8011281112309F444C218
:101090000E94EF0710E040C2F8011281112309F409
:1010A0003BC20E94D00FF6CFF8011281112309F440
:1010B00033C20E94F4218272C1F00E944710EACF2D
:1010C000243C8CE5380709F4B3C008F0C5C0223CC5
:1010D000FCE53F0709F0B4C0F8011281112309F4BF
:1010E0001BC20E94F421827241F30E943D10D2CFB4
:1010F000F8018281882309F454C00E94562281118C
:1011000002C00E9430220E94692290E09093100257
:1011100080930F02E981FA81E250FC45E331F10549
:1011200088F5E65DFF4F80910F020C943C2B8160A7
:1011300027C0826025C0846023C0806121C0806296
:101140001FC080641DC080681BC08460886018C098
:101150008E7F16C08D7F14C08B7F12C08F7E10C013
:101160008F7D0EC08F7B0CC08F770AC08B7F877FEF
:1011700007C087FB222720F991E0922790FB87F98F
:1011800080930F0280910F020E946D220E946D1CBD
:1011900081CF21303C4551F081E0809399008093CC
:1011A0009A00C8010E948407182FB6C1F801128165
:1011B000112309F4B1C180914C01816080934C01ED
:1011C00069CF2531ECE53E0739F50E94F421282F3F
:1011D000F80182814091630050916400882379F086
:1011E0002A7A91E009F490E090939400911102C062
:1011F00069E201C065E3CA010E94AE220AC0809183
:101200009400811102C069E201C065E3CA010E9435
:10121000B0220E94C1213ECF203C3C4509F0BCCF0A
:10122000F8011281112309F477C10E94591032CFBD
:10123000F8011281112309F46FC10E94610F2ACFB6
:10124000233C3C4509F0A8CFF8011281112309F491
:1012500063C10E94490F1ECFF8011281263CFCE5B4
:101260003F0731F4112309F457C10E949B0F12CF9D
:10127000273C3C4530F4112309F44EC10E94800FF5
:1012800009CF112309F448C10E94B50F03CF2F3CA9
:10129000ECE53E07B1F4F8011281112309F43CC1D9
:1012A0000E940D0E6F3071058105910540F00E947E
:1012B0000D0E643171058105910508F416CF8FE09C
:1012C0000FC0203DFCE53F0708F06EC02B3C8CE5CD
:1012D000380749F4F8011281112309F41DC181E096
:1012E0000E943A10D7CE2C3CECE53E07C0F4293CD6
:1012F000FCE53F0741F4F8011281112309F40CC108
:101300000E94330EC7CE2A3C3C4509F045CFF80178
:101310001281112309F400C10E94480EBBCEF801CE
:1013200012812D3CFCE53F07A1F4112309F4F4C020
:101330000E940D0E663071058105910540F00E94F6
:101340000D0E683071058105910508F4CECE86E05A
:10135000C7CF2E3C3C45A0F4112309F4DDC00E9408
:101360000D0E623071058105910540F00E940D0E51
:10137000653071058105910508F4B7CE82E0B0CFE4
:10138000112309F4C9C00E940D0E69307105810551
:10139000910540F00E940D0E6E307105810591059A
:1013A00008F4A3CE89E09CCF233DECE53E0739F459
:1013B000F8011281112309F4AFC083E291CF243DDB
:1013C000FCE53F07B0F5F8011281213DFCE53F0740
:1013D00029F4112309F4A0C088E182CF223D3C45C5
:1013E000A0F4112309F498C00E940D0E6531710517
:1013F0008105910540F00E940D0E67317105810550
:10140000910508F472CE85E16BCF112309F484C0F5
:101410000E940D0E693171058105910540F00E9411
:101420000D0E623271058105910508F45ECE89E1E9
:1014300057CF253DECE53E0739F5F8018281882339
:1014400061F010929A000E94C122909398008093BC
:10145000970080E20E94CD191DCE80919A008111E3
:101460000FC080919700909198000E94CD22883CF7
:10147000910530F487E20E94E61887E20E94A119E4
:1014800080E20E94D41906CE253DFCE53F0728F5F1
:10149000F8011281112351F0109299000E94C1228B
:1014A000909396008093950082E0D4CF809199002C
:1014B00081110FC080919500909196000E94CD22DD
:1014C000883C910530F486E20E94E61886E20E948C
:1014D000A11982E00E94D4191FC0263D3C4509F0A5
:1014E0005BCEF80182818111ACCF10919A0011116D
:1014F000C7CF80919700909198000E94CD22883CA0
:10150000910508F0BDCF80E20E94D41988E20E94C4
:10151000E61888E20E94A119812F0F900F90DF91A9
:10152000CF911F910F91FF90EF90089580E090E090
:10153000089508959FE0799FF001112498E7899F0D
:10154000E00DF11D1124E60FF11DEE0FFF1FE45D0C
:10155000FE4F859194910895880F991FFC01E451E5
:10156000FA4F859194910895CF93DF930E949A0A40
:101570000E948F0CEC01811521E5920708F042C012
:10158000811530E5930708F01EC1883E910500F5EE
:10159000803E910508F0BFC1883A910570F4853A04
:1015A000910508F09DC08130910509F4B4C108F49B
:1015B0006BC1049708F0AFC167C18D3B910508F47A
:1015C0009AC0803C910508F45FC1805C9109EBC032
:1015D000811540E3940780F4811550E2950708F0E7
:1015E000E1C0803F910508F44FC18F3F910511F094
:1015F00008F091C1D0658FC1811560E4960708F0AD
:10160000DFC0D5C0C11589E5D80740F5C11528E56B
:10161000D20708F025C1C11534E5D30778F4C11508
:1016200043E5D40708F001C1C11552E5D50708F01C
:10163000E6C0DC2FCC27C16FD06A6DC1C11565E54E
:10164000D60708F408C1C11586E5D80708F01CC103
:10165000CF71DD27DC2FCC27D0625DC1CB3B2CE5E1
:10166000D20709F408C1D8F4C93B4CE5D40709F402
:10167000FCC008F0FDC0C1156AE5D60708F004C13A
:101680008C2F8F70806E90E0906A24E0D695C7957D
:101690002A95E1F7CF709C013C2BE9013CC1CE3B80
:1016A0008CE5D80709F4EDC060F4CC3B3CE5D307EA
:1016B00009F4E4C0CD3BDC4509F0E6C0C0E0D2ED62
:1016C0002AC1CE0190568115904208F0DDC08D2FC1
:1016D0008F710E940C0DDD27D0628F71D82B1BC13A
:1016E000853A910509F4D3C0863A910509F0D2C034
:1016F000C2E8D0E410C1883A910509F4CEC0893A15
:10170000910509F4CDC08A3A910509F4CCC08B3A11
:10171000910509F4CBC08C3A910509F4CAC08B3B02
:10172000910509F4C9C08C3B910509F4C8C08D3AF4
:10173000910509F4C7C0803B910509F4C6C08E3AF3
:10174000910509F4C5C08F3A910509F4C4C0813BE5
:10175000910509F4C3C0823B910509F4C2C0833BE3
:10176000910509F4C1C0843B910509F4C0C0853BD3
:10177000910509F4BFC0863B910509F4BEC0873BC3
:10178000910509F4BDC0883B910509F4BCC0893BB3
:10179000910509F4BBC08A3B910509F4BAC0C0E0C9
:1017A000D4E4B9C09F700E94AC0AEC01B4C0992780
:1017B000D3FF03C0EC01D86CAEC0EC01D06CABC061
:1017C000DF70D06AA8C0282F237081E090E002C0AB
:1017D000880F991F2A95E2F79C689E0174E0369560
:1017E00027957A95E1F72370922BCF70C695C69511
:1017F00060E2C69FE0011124C82BD92B8CC02C2F8E
:101800002695269580E2289F90011124C370DD273C
:1018100081E090E0AC0102C0440F551FCA95E2F789
:10182000EA01C22BD32BDC6876C02C2F2695269597
:1018300080E2289F90011124C370DD2781E090E0B1
:10184000AC0102C0440F551FCA95E2F7EA01C22B52
:10185000D32BDA6860C0DC2FCC27C46FD06A5BC0A2
:10186000DC2FCC27C06FD06A56C0C0E0D4ED53C087
:10187000C0E0D5ED50C0C0E0D1ED4DC0C0E0D0ED2E
:101880004AC0C0E0D3ED47C0C0E0D0E044C0C1E8EA
:10189000D0E441C0C3E8D0E43EC0C2EED4E43BC0D3
:1018A000C9EED4E438C0CAEED4E435C0C5EBD4E404
:1018B00032C0C6EBD4E42FC0C3EBD4E42CC0C4EBDD
:1018C000D4E429C0C7EBD4E426C0CCECD4E423C0D4
:1018D000CDECD4E420C0C3E8D5E41DC0CAE8D5E40B
:1018E0001AC0C2E9D5E417C0C4E9D5E414C0C1E206
:1018F000D6E411C0C3E2D6E40EC0C4E2D6E40BC005
:10190000C5E2D6E408C0C6E2D6E405C0C7E2D6E424
:1019100002C0CAE2D6E4CE01DF91CF9108958238A9
:10192000910549F1B0F48133910509F458C048F4A8
:101930008932910509F44EC08A32910509F454C0E8
:1019400008958533910509F440C08933910599F0D4
:101950000895833E910529F138F4803E910591F078
:10196000823E9105A1F00895863E9105F9F0873EEB
:10197000910531F1089520910F0220FD3AC021FD1B
:1019800038C0089580910F0280FD35C032C080912B
:101990000F0282FF32C080910F0284FD30C083EEBF
:1019A00039C080910F0282FD28C0F5CF80910F02CF
:1019B00083FF27C080910F0284FD21C087EE2AC0DB
:1019C00080910F0283FD1DC0F5CF80910F0285FD30
:1019D0001AC01BC080910F0285FD17C014C08091F2
:1019E0000F0286FD14C015C080910F0286FD11C044
:1019F0000EC080EE0FC089E30DC082EE0BC080E008
:101A000009C086EE07C089E205C085E303C08AE20B
:101A100001C081E390E0089590910F0292FF0DC004
:101A2000282F2871283019F4877F846006C0282F5A
:101A30002471243011F48B7F886093FF0DC0282F10
:101A40002871283119F4877E846106C0282F2471FB
:101A5000243111F48B7E886194FD877E089508956A
:101A60000F931F93CF93FB012281211102C0C1E08C
:101A700041C08C01C091A800C11125C086319C4590
:101A8000B1F70E942F0D81E08093A8000E94C1222F
:101A90009093A7008093A60010929B0010929D0047
:101AA00010929C0010929F0010929E001092A10034
:101AB0001092A0001092A3001092A2001092A50014
:101AC0001092A40017C08091A6009091A7000E94D8
:101AD000CD228C32914058F690919B00E92FF0E096
:101AE000EE0FFF1FE456FF4F118300839F5F90931B
:101AF0009B00C0E08C2FCF911F910F910895EF9222
:101B0000FF920F931F93CF93DF93E901662309F4AC
:101B10004BC0242F30E0EFEFF0E0E61BF109B901F4
:101B2000E69F9001E79F300DF69F300D1124232F83
:101B30008B01031B11095CE3E52EF12CB7010E9418
:101B4000142BFB01BC01069FC001079F900D169F3F
:101B5000900D1124B7010E94142BE230F105B1F071
:101B600040F4309779F0319711F5832F242F461BDD
:101B700021C0E430F105A1F068F03597C1F4842F5D
:101B8000861B18C0832F262F230F14C0862F830F88
:101B9000E42F03C0E42FE61B842F432F2E2F0AC00F
:101BA000842F462F430F06C0842F242F03C080E0CC
:101BB00020E040E0E42FF0E0E85FF94F4491E22FAD
:101BC000F0E0E85FF94F9491E82FF0E0E85FF94F1B
:101BD000E49149839883EA83DF91CF911F910F911C
:101BE000FF90EF90089588E090E00C946C2BAB018F
:101BF000BC0188E090E00C94892BE2EEF1E083E0F8
:101C000080831092E3018FEF82838383148260814B
:101C10007181828193810C94F70D6091E20160FFE4
:101C200006C066956F7370E080E090E0089560E014
:101C300070E0CB010895E2EEF1E080818E7F808339
:101C400060817181828193810E94F70D1092C6009C
:101C50002FEB84ED91E0215080409040E1F700C0EF
:101C600000000C9441078091E60190E001968430D9
:101C7000910514F083E090E08093E6016091E20129
:101C80007091E3018091E4019091E5010C94F70DCE
:101C90008091E60190E0019797FF02C080E090E01C
:101CA0008430910514F083E090E08093E601609128
:101CB000E2017091E3018091E4019091E5010C94BF
:101CC000F70D9091E20190FF0FC020E030E0F901A4
:101CD000E951FE4F8183608342832D5F3F4F243261
:101CE0003105A9F70C9441070895CF93DF9300D0F5
:101CF0001F92CDB7DEB72091E20120FF0AC09E01FE
:101D00002F5F3F4F0E947F0D4B8169818A810E9426
:101D1000610E0F900F900F90DF91CF9108955F9219
:101D20006F927F928F929F92AF92BF92CF92DF92EB
:101D3000EF92FF920F931F93CF93DF9300D01F92E8
:101D4000CDB7DEB78C01E62EF42E522E8091E20143
:101D500080FF89C0982F9E77923061F49E012F5F9B
:101D60003F4FC8010E947F0D4B8169818A810E948B
:101D7000610E59C0E82FE695EF739EE39E0F9F73A7
:101D8000943018F4F090E5014EC09AE39E0F9F73D3
:101D9000993068F4881F8827881F9091E301292FC4
:101DA000220F022F082B97FB112710F93CC087E266
:101DB0008E0F8F738A30B8F5F0E07997E0FD02C09E
:101DC00021E001C02FEFEE7FE251FA4F859194910F
:101DD0006CE070E00E94142B26034001279F900CBA
:101DE0001124580188E9A81A8EEFB80A87EEC82E88
:101DF00081E0D82E98E6692E77247394C501B3014B
:101E00000E94142B96014F2D6E2D0E947F0DA80C61
:101E1000B91C83E0C80ED11C8BE0C81682E0D8063E
:101E200069F70E9441078091E20100FB87F98093E6
:101E3000E201902F96958091E3018078892B10FB29
:101E400087F98093E301E092E401F092E5015520E7
:101E500051F06091E2017091E3018091E401909171
:101E6000E5010E94F70D0F900F900F90DF91CF9139
:101E70001F910F91FF90EF90DF90CF90BF90AF90A8
:101E80009F908F907F906F905F90089521E00C94C9
:101E90008F0EE2EEF1E02081221F2227221F3091D7
:101EA000E301432F440F842F822B37FB992790F9AE
:101EB0000C9668E671E00E94282B438162810C94A5
:101EC000460F2091E201221F2227221F3091E301B9
:101ED000432F440F842F822B37FB992790F98C30A6
:101EE00091051CF4845A9E4F01C00C9768E671E07E
:101EF0000E94282B4091E5016091E4010C94460F6B
:101F00006091E401862F90E0813F910514F4615FB8
:101F100001C06FEF8091E201881F8827881F909190
:101F2000E301292F220F97FB992790F94091E501B2
:101F3000822B0C94460F6091E401862F90E00F975E
:101F400014F06F5001C060E08091E201881F882783
:101F5000881F9091E301292F220F97FB992790F971
:101F60004091E501822B0C94460F4091E501842FAE
:101F700090E08E3E910514F44E5E01C04FEF8091CB
:101F8000E201881F8827881F9091E301292F220FE3
:101F900097FB992790F96091E401822B0C94460FEE
:101FA0004091E501842F90E0429714F0425101C026
:101FB00040E08091E201881F8827881F9091E3010B
:101FC000292F220F97FB992790F96091E401822B2A
:101FD0000C94460F20E00C948F0E9091E20190FF3C
:101FE00048C09178811102C0926007C0853210F01C
:101FF000986403C08F73880F982B9093E201662337
:1020000051F06091E2017091E3018091E4019091BF
:10201000E5010E94F70D8091E201282F2E772230F2
:1020200019F41092C60014C0982F96959F733EE342
:10203000390F3F73373120F0263411F0283421F462
:1020400091E09093C60004C0995D9F739A3048F365
:10205000881F8827881F9091E301292F220F97FB63
:10206000992790F94091E5016091E401822B0C944D
:10207000EA0F089561E00C94ED0F8091E2018695DE
:102080008F738F5F853208F081E00C943A10809155
:10209000E20186958F73815009F484E20C943A1022
:1020A000E2EEF1E080818160808386958F730C94ED
:1020B0003A108091E20180FD0C941B0E0C9450109C
:1020C00060E00C94ED0F80914C01816080934C0195
:1020D0000E945622811104C00E9430220E94FD0DF0
:1020E0000E94F30D6093E2017093E3018093E40199
:1020F0009093E5016E7761F40E94FD0D0E94F30D4F
:102100006093E2017093E3018093E4019093E50111
:1021100081E08093C6008091E20180FF04C0869533
:102120008F730C94601008959091E20190FF10C09D
:102130002C3070F430E0F901EE0FFF1F2E0F3F1F1F
:10214000F901E951FE4F8183608342830C9441077A
:1021500008951F93CF93DF9300D01F92CDB7DEB7C2
:102160003091E20130FF0CC0122F9E012F5F3F4FD4
:102170000E947F0D212F4B8169818A810E949410DA
:102180000F900F900F90DF91CF911F910895CF93F3
:10219000C82F8091C4009091C5000E94CD22EC2FE1
:1021A000F0E0EC5FF94FE491F0E08E179F0708F440
:1021B00043C00E94C1229093C5008093C4006091E7
:1021C000C30070E080E090E00E94152920E030E03C
:1021D0004FE753E40E9431282BED3FE049E450E4FF
:1021E0000E943E2A0E94AB2A0E94AB282BE43AE3CD
:1021F0004EE25FE30E94C42720EF3BEF48ED52E43C
:102200000E943E2A0E94E428462F8091E201881F06
:102210008827881F9091E301292F220F97FB992788
:1022200090F96091E401822B0E94750E8091C300A9
:1022300090E001968093C300CF910895CF93C82F6B
:102240008091C1009091C2000E94CD22EC2FF0E05D
:10225000EF5FF94FE491F0E08E179F07E8F00E94DE
:10226000C1229093C2008093C1004091E50160912A
:10227000E4018091BF009091C0000E94750E809192
:10228000BF009091C000019668E671E00E94142B97
:102290009093C0008093BF00CF910895CF92DF92BA
:1022A000FF920F931F93CF93DF93F82E8091BD0081
:1022B0009091BE000E94CD22EF2DE695F0E0E25015
:1022C000FA4FE491F0E08E179F07E8F10E94C122D7
:1022D0009093BE008093BD0007EE11E0C0E0D0E017
:1022E00088E6C82EDD24D3948091BB009091BC0079
:1022F0008C0F9D1FB6010E94142B98014091E5019F
:102300006091E4010E947F0D6E960D5F1F4FC836ED
:1023100081E0D80749F70E9441072091BB00309126
:10232000BC00F0FE0AC0C9010196BE010E94142B38
:102330009093BC008093BB0006C0215031093093BC
:10234000BC002093BB00DF91CF911F910F91FF90B4
:10235000DF90CF900895AF92BF92CF92DF92EF922D
:10236000FF920F931F93CF93DF93C82F80FF02C07C
:102370001FEF01C011E08091B9009091BA000E9456
:10238000CD22C695EC2FF0E0E550FA4FE491F0E055
:102390008E179F0708F466C00E94C1229093BA006E
:1023A0008093B90027EEC22E21E0D22E39EEE32E23
:1023B00031E0F32EC0E0D0E0F70131971082F60152
:1023C0001082F701108294E0A92EB12C00E08091D8
:1023D000B800800F87FD845F082E000C990BC8178A
:1023E000D907E9F48091E5018A9DA0018B9D500DEC
:1023F000112455954795559547958091E201881F81
:102400008827881F9091E301592F550F97FB992733
:1024100090F996016091E401852B0E947F0D010FD8
:10242000F1E0AF1AB10899F6219683E0C80ED11CED
:10243000E3E0EE0EF11CCC30D10509F0BDCF0E94D7
:1024400041078091B800113031F4811102C08BE056
:1024500007C0815005C090E00196BE010E94282B64
:102460008093B800DF91CF911F910F91FF90EF9073
:10247000DF90CF90BF90AF9008950F931F93CF93AD
:10248000DF93C82F8091B6009091B7000E94CD22B3
:10249000EC2FF0E0E850FA4FE491F0E08E179F0740
:1024A00008F466C00E94C1229093B7008093B600E2
:1024B00080E090E0FC01E951FE4F1182108212820F
:1024C000039684329105B1F7C0E0D0E00CE010E053
:1024D000CE01B8010E94282B4091B500042E000CBB
:1024E000550BFC01EE0FFF1FC417D5070CF14091EF
:1024F0006200042E000C550B4C175D07CCF08E0FBC
:102500009F1F9C0129513E4F8091E201881F88271F
:10251000881F9091E301592F550F97FB992790F948
:102520004091E5016091E401852B0E947F0D07C079
:10253000E80FF91FE951FE4F118210821282219695
:10254000CC30D10529F60E9441078091610090911D
:10255000B500980F9093B50020916200280F20934A
:102560006200121614F49B301CF081958093610078
:10257000DF91CF911F910F910895EF92FF920F93EA
:102580001F93CF93DF938091B3009091B4000E948A
:10259000CD22883E9340D0F10E94C1229093B40096
:1025A0008093B300C091B100D091B2002196C17068
:1025B000DD27D093B200C093B10087EEE82E81E012
:1025C000F82E10E008E7812F8695FE01E80FF11D37
:1025D000CF018170992797014091E5016091E40155
:1025E000FC010E9FC0010F9F900D11240E947F0DD2
:1025F0001F5FF3E0EF0EF11C1C3029F7DF91CF9144
:102600001F910F91FF90EF900C944107DF91CF91B4
:102610001F910F91FF90EF900895CF93DF9300D01B
:102620001F92CDB7DEB78091AF009091B0000E94AD
:10263000CD22ECEEF5E02591349182179307C0F19D
:102640008091AE0081110CC09E012F5F3F4F4FEF74
:102650006FEF80E090E00E947F0D8A818093AE0052
:102660000E94C1229093B0008093AF008091AD0092
:10267000813051F028F0823061F44091AE000AC000
:102680008091AE0040E007C06091AE0040E080E085
:1026900003C040E080E060E00E94610E8091AD00E8
:1026A00090E0019663E070E00E94282B8093AD00DB
:1026B0000F900F900F90DF91CF910895CF93DF93FC
:1026C0008091AB009091AC000E94CD22843F91405C
:1026D00008F444C00E94C1229093AC008093AB00E8
:1026E000C0E0D0E02091A9003091AA008091E201E1
:1026F0009091E301C630D1051CF4232B79F002C080
:10270000232B61F4881F8827881F392F330F97FBED
:10271000992790F92C2F4091E5010AC0881F88273E
:10272000881F392F330F97FB992790F92C2F40E002
:102730006091E401832B0E94A9102196CC30D10531
:1027400089F60E9441078091A9009091AA00019604
:10275000817099279093AA008093A900DF91CF916F
:1027600008958091C6008823D9F19091E201892FC4
:1027700086958F732EE3280F2F73243018F4825020
:102780000C94C7102AE3280F2F73233018F48650B7
:102790000C941E1127E3280F2F73263018F489504C
:1027A0000C944E1121E3280F2F73263018F48F500C
:1027B0000C94AB112BE2280F2F73233018F48551A2
:1027C0000C943D12892F8E77803311F40C94BD1236
:1027D000863411F40C940D13883411F40C945E13A8
:1027E00008954F925F926F927F928F929F92AF92D5
:1027F000BF92CF92DF92EF92FF920F931F93CF93EE
:10280000DF937C01DC01ED91FC91CF018150954576
:102810008F3F910510F4B5E5FB27EB016A80662038
:1028200009F4BFC2EF3FF10579F070F0EB3DFC45D4
:1028300019F01092C70073C39091C70081E08927F7
:102840008093C700A0E06CC3A091C700AA2309F43D
:10285000EBC01092C700E03CF10540F4E038F10510
:1028600008F073C0E034F105D0F505C0EF3FF10585
:1028700009F008F4A0C021E030E040E050E060E062
:1028800070E080E090E00E2F0E94422BB091C800D3
:102890002B2BB091C9003B2BB091CA004B2BB091B0
:1028A000CB005B2BB091CC006B2BB091CD007B2B80
:1028B000B091CE008B2BB091CF009B2B2093C80002
:1028C0003093C9004093CA005093CB006093CC0072
:1028D0007093CD008093CE009093CF00A1C021E0F3
:1028E00030E040E050E060E070E080E090E08F0198
:1028F000005411090E94422BB091D0002B2BB091B3
:10290000D1003B2BB091D2004B2BB091D3005B2B6D
:10291000B091D4006B2BB091D5007B2BB091D60039
:102920008B2BB091D7009B2B2093D0003093D100FC
:102930004093D2005093D3006093D4007093D5009D
:102940008093D6009093D7006BC021E030E040E048
:1029500050E060E070E080E090E08F0100581109E5
:102960000E94422BB091D8002B2BB091D9003B2B69
:10297000B091DA004B2BB091DB005B2BB091DC0007
:102980006B2BB091DD007B2BB091DE008B2BB091D7
:10299000DF009B2B2093D8003093D9004093DA00BE
:1029A0005093DB006093DC007093DD008093DE00C9
:1029B0009093DF0035C021E030E040E050E060E07F
:1029C00070E080E090E08F01005C11090E94422BD2
:1029D000B091E0002B2BB091E1003B2BB091E200D5
:1029E0004B2BB091E3005B2BB091E4006B2BB091CB
:1029F000E5007B2BB091E6008B2BB091E7009B2B81
:102A00002093E0003093E1004093E2005093E30014
:102A10006093E4007093E5008093E6009093E700F4
:102A2000E701F983E8837CC2E034F105D0F4A0909B
:102A3000C800B090C900E090CA00F090CB0010919F
:102A4000CC00D091CD00C091CE00B091CF0021E05C
:102A500030E040E050E060E070E080E090E00E2F79
:102A60005DC0E038F105E8F4A090D000B090D1004E
:102A7000E090D200F090D3001091D400D091D50016
:102A8000C091D600B091D70021E030E040E050E0A6
:102A900060E070E080E090E06F0100E4C01AD108CF
:102AA0003CC0E03CF105E8F4A090D800B090D9001B
:102AB000E090DA00F090DB001091DC00D091DD00B6
:102AC000C091DE00B091DF0021E030E040E050E056
:102AD00060E070E080E090E06F0100E8C01AD1088B
:102AE0001CC0A090E000B090E100E090E200F09007
:102AF000E3001091E400D091E500C091E600B091B0
:102B0000E70021E030E040E050E060E070E080E08D
:102B100090E06F0100ECC01AD1080C2D0E94422BEE
:102B20004A2C42225B2C53227E2C74228F2C85222D
:102B3000912E9622D723C823B92321E030E040E02C
:102B400050E060E070E080E090E0E034F10510F4E7
:102B50000E2F0FC08F01E038F10518F40054110951
:102B600008C0E03CF10518F40058110902C0005CEF
:102B700011090E94422B59016A017B018C019201CB
:102B8000472D582D692D7D2F8C2F9B2F0E945B2B5D
:102B900009F0C5C1E03CF10548F4E038F10508F062
:102BA00084C0E034F10508F042C005C0EF3FF105F4
:102BB00009F008F4B8C021E030E040E050E060E007
:102BC00070E080E090E00E2F0E94422B209530951F
:102BD000409550956095709580959095E091C800CE
:102BE0002E23E091C9003E23E091CA004E23E091DC
:102BF000CB005E23E091CC006E23E091CD007E23DC
:102C0000E091CE008E23E091CF009E232093C80058
:102C10003093C9004093CA005093CB006093CC001E
:102C20007093CD008093CE009093CF0079C18F0137
:102C30000054110921E030E040E050E060E070E035
:102C400080E090E00E94422B209530954095509571
:102C50006095709580959095E091D0002E23E0913D
:102C6000D1003E23E091D2004E23E091D3005E23B9
:102C7000E091D4006E23E091D5007E23E091D60050
:102C80008E23E091D7009E232093D0003093D10073
:102C90004093D2005093D3006093D4007093D5003A
:102CA0008093D6009093D7003BC18F010058110943
:102CB00021E030E040E050E060E070E080E090E053
:102CC0000E94422B209530954095509560957095C7
:102CD00080959095E091D8002E23E091D9003E2375
:102CE000E091DA004E23E091DB005E23E091DC000E
:102CF0006E23E091DD007E23E091DE008E23E091E3
:102D0000DF009E232093D8003093D9004093DA004F
:102D10005093DB006093DC007093DD008093DE0055
:102D20009093DF00FDC08F01005C110921E030E0CD
:102D300040E050E060E070E080E090E00E94422BD4
:102D4000209530954095509560957095809590951B
:102D5000E091E0002E23E091E1003E23E091E200CB
:102D60004E23E091E3005E23E091E4006E23E091C6
:102D7000E5007E23E091E6008E23E091E7009E23AC
:102D80002093E0003093E1004093E2005093E30091
:102D90006093E4007093E5008093E6009093E70071
:102DA000BFC0EF3FF10511F008F0B6C0E034F10507
:102DB000D0F46090C8007090C9008090CA009090D4
:102DC000CB00D091CC00C091CD00B091CE005090FE
:102DD000CF0021E030E040E050E060E070E080E0D3
:102DE00090E00E2F59C0E038F105E0F46090D0007B
:102DF0007090D1008090D2009090D300D091D400F8
:102E0000C091D500B091D6005090D70021E030E0BD
:102E100040E050E060E070E080E090E08F0100541E
:102E200011093AC0E03CF105E0F46090D8007090E0
:102E3000D9008090DA009090DB00D091DC00C09146
:102E4000DD00B091DE005090DF0021E030E040E096
:102E500050E060E070E080E090E08F0100581109E0
:102E60001BC06090E0007090E1008090E2009090C4
:102E7000E300D091E400C091E500B091E6005090ED
:102E8000E70021E030E040E050E060E070E080E00A
:102E900090E08F01005C11090E94422B6222732294
:102EA00084229522D623C723B8235922E034F10582
:102EB00050F421E030E040E050E060E070E080E07D
:102EC00090E00E2F17C08F01E038F10518F4005480
:102ED000110908C0E03CF10518F40058110902C0BE
:102EE000005C110921E030E040E050E060E070E07B
:102EF00080E090E00E94422B59016A017B018C0125
:102F0000A1E09301A4016D2F7C2F8B2F952D0E94A2
:102F10005B2B19F4A0E001C0A1E0A17001C0A62DB7
:102F20008A2FDF91CF911F910F91FF90EF90DF904B
:102F3000CF90BF90AF909F908F907F906F905F9059
:102F40004F9008959093ED008093EC000895E091E8
:102F5000EC00F091ED00309721F00190F081E02D30
:102F6000099480E00895E091EC00F091ED00309735
:102F700021F00280F381E02D099408952091EA0068
:102F80003091EB008217930771F09093EB008093E0
:102F9000EA00E091EC00F091ED00309721F006801E
:102FA000F781E02D099408952091E8003091E9001F
:102FB0008217930771F09093E9008093E800E09105
:102FC000EC00F091ED00309721F00084F185E02DC8
:102FD0000994089581E008950E94BA220E94D105C3
:102FE0000E9436230E943C240C9463104F925F92FF
:102FF0007F928F929F92AF92BF92CF92DF92EF9289
:10300000FF920F931F93CF93DF93CDB7DEB72A972D
:103010000FB6F894DEBF0FBECDBF0E9409060E9416
:10302000EA17811111C08FEF89838A831B820E9466
:10303000C1228160782F9D838C8349815A816B8165
:103040008D810E94B21857C09FEEC92E90E0D92EF4
:1030500000E010E0AA24A394B12C702E802F0E94CF
:1030600061064C01F601419051906F0148265926A6
:103070004114510431F40F5F1F4F0830110569F7F7
:10308000D2CF80914C0181FD0E946A0620E030E0A1
:103090007501022E02C0EE0CFF1C0A94E2F7C70174
:1030A00084219521892B09F12E837F828E209F20F8
:1030B00091E0892809F490E098870E94C1228160FC
:1030C000782F9A8789874E815F8168858A850E94DB
:1030D000B218000F111FF801E151FF4F808191815B
:1030E000E826F926F182E08206C02F5F3F4F2F309D
:1030F000310571F6C0CF1091EE000E94A717181786
:10310000D9F00E94A7178093EE002A960FB6F89484
:10311000DEBF0FBECDBFDF91CF911F910F91FF900A
:10312000EF90DF90CF90BF90AF909F908F907F9067
:103130005F904F900C94EC072A960FB6F894DEBF80
:103140000FBECDBFDF91CF911F910F91FF90EF90F8
:10315000DF90CF90BF90AF909F908F907F905F90C7
:103160004F900895CF93DF93CDB7DEB72B970FB66F
:10317000F894DEBF0FBECDBF4F83588769877A872B
:103180008B87DE01119686E0FD0111928A95E9F7A1
:1031900085E0FE01379601900D928A95E1F749810D
:1031A0005A816B817C818D819E810E94141F2B9698
:1031B0000FB6F894DEBF0FBECDBFDF91CF9108955B
:1031C000FC01808191810E9481210895CF93DF933A
:1031D0001F92CDB7DEB7882309F4AFC0682F8CEFFC
:1031E000860F813A70F4862F69830E94FA236981E1
:1031F0008111A3C080916300909164000E94AE226F
:103200000CC080E2860F883068F4677081E001C0EE
:10321000880F6A95EAF70E94F7210F90DF91CF910E
:103220000C94C1218BE5860F833088F4653A29F030
:10323000663A31F083E890E005C081E890E002C092
:1032400082E890E00F90DF91CF910C94BE1788E553
:10325000860F853108F071C0683A61F1693A69F109
:103260006A3A71F16B3A79F16C3A81F16B3B89F111
:103270006C3B91F16D3A99F1603BA1F16E3AA9F185
:103280006F3AB1F1613BB9F1623BC1F1633BC9F106
:10329000643BD1F1653BD9F1663BE1F1673BE9F174
:1032A000683BF1F1693BF9F16A3B09F43FC080E00A
:1032B00090E03EC082EE90E03BC089EE90E038C0E6
:1032C0008AEE90E035C085EB90E032C086EB90E06E
:1032D0002FC083EB90E02CC084EB90E029C087EBFB
:1032E00090E026C08CEC90E023C08DEC90E020C0F4
:1032F00083E891E01DC08AE891E01AC082E991E07C
:1033000017C084E991E014C081E292E011C083E229
:1033100092E00EC084E292E00BC085E292E008C029
:1033200086E292E005C087E292E002C08AE292E083
:103330000F90DF91CF910C94D4170F90DF91CF9124
:103340000895882349F1682F8CEF860F813A38F46D
:1033500080916300909164000E94B0220CC080E2D2
:10336000860F883050F4677081E001C0880F6A953D
:10337000EAF70E94FD210C94C1218BE5860F833072
:1033800020F480E090E00C94BE17685A653120F478
:1033900080E090E00C94D4170895882321F00E94D7
:1033A000F7210C94C1210895882321F00E94FD216A
:1033B0000C94C12108954F925F926F927F92BF92B9
:1033C000CF92DF92EF92FF920F931F93CF93DF93F1
:1033D0007C01D62FC72FFC01058102950F70128149
:1033E00011110E9414220E94BA21882379F011231E
:1033F00069F080E28D0F883048F082E00E94A321BE
:103400000E94BA2191E0B82EB92601C0B12CCC2E71
:10341000C2948FE0C822D12CF601E35CFF4F0C94DC
:103420003C2B8C2F807FCF70882311F0C295C07FFA
:10343000112399F0CC2309F48EC180E28D0F8830DE
:1034400010F0D11104C08C2F0E94F72103C08C2FE3
:103450000E9407220E94C1217EC18D2F0E94A119C6
:10346000CC2309F4C1C180E28D0F883010F0D11156
:1034700004C08C2F0E94FD2103C08C2F0E940D22BE
:103480000E94C121B1C18C2F807FCF70803211F09A
:10349000C295C07FDD2319F0D130C9F022C01123BD
:1034A00071F0002341F0013031F40E942D228C2B69
:1034B0000E94272299C10E942D228C2B1DC000231F
:1034C00019F0013009F490C10E942A221AC0112378
:1034D00021F0063008F088C10EC0053008F084C124
:1034E00010C0112361F0002331F0F701858180FFC6
:1034F00032C18F7085838C2F0E94CD1975C1011147
:103500003BC18C2FE6C08C2F86958695837090E00A
:10351000009719F0019761F067C1112321F08D2FF9
:103520009C2F937002C080E090E00E94BE176CC197
:10353000112321F08D2F9C2F937002C080E090E02A
:103540000E94D41761C18C2F837009F050C01111F3
:1035500057C18D2F829586958770880F880F9D2F74
:103560009F70492E512C612C712C082E04C0440CE4
:10357000551C661C771C0A94D2F7D4FF14C00FE0C8
:1035800010E020E030E0B901A80104C0440F551F4D
:10359000661F771F8A95D2F7CB01BA0160957095A7
:1035A0008095909503C060E070E0CB01C695C6950C
:1035B000C370D0E0C230D10561F0C330D10581F0D5
:1035C0006429752986299729219771F00E9457202F
:1035D00017C164297529862997290E94692010C17D
:1035E0000E945720C301B2010E94452009C1112346
:1035F00019F08C2F817001C08695882309F400C1D1
:103600008D2F829586958770880F880F9D2F9F70CC
:10361000492E512C612C712C082E04C0440C551CD1
:10362000661C771C0A94D2F7D4FF14C00FE010E098
:1036300020E030E0B901A80104C0440F551F661F07
:10364000771F8A95D2F7CB01BA0160957095809566
:10365000909503C060E070E0CB01C695C695C3703D
:103660004C2F50E04230510569F04330510589F04C
:1036700064297529862997294130510571F00E94E6
:103680001D21BEC064297529862997290E942F21F2
:10369000B7C00E941D21C301B2010E940B21B0C01E
:1036A0008D2F90E0FC01E05EF109E531F10508F0B5
:1036B0004EC0E35BFF4F0C943C2BDF708C2F8F715F
:1036C000112321F00E94A4208D2F16CF0E94C52027
:1036D0008D2F0E94D41988C0112341F0053008F0C5
:1036E00083C08C2F8F710E94EA207EC0063008F0C4
:1036F0007BC0F7CF112339F08C2F8F710E94A4204B
:1037000073C01123C9F38C2F8F710E94C5206CC028
:10371000112329F08C2F8F710E948F2065C00E9489
:103720008A2062C0112349F0CF718C2F0E94A420FF
:1037300063E08C2F0E949A2157C081E00E94A32150
:10374000023008F451C082E00E94A3214DC0112331
:1037500031F0002389F28D2F0E94E61845C0002326
:1037600091F2D93349F45FEF6DEE72E05150604051
:103770007040E1F700C000008D2F0E94A11934C0F5
:103780004C2F4F706D2FC7010E94960A0E94B81FE0
:103790003BC0111139C0CF70D0E0C230D10599F0D3
:1037A0003CF4209769F02197F9F40E9476242CC00C
:1037B000C430D10571F054F02597B1F480E00AC00F
:1037C0000E94592421C00E9492241EC00E94AC2451
:1037D0001BC08CE00E94CF2417C04C2F4F706D2F60
:1037E000C7010E94990A10C088E0C816D10441F0B0
:1037F0005CF0EAE0CE1AD108F2E0CF16D10420F452
:103800000E94A7170E94EC07BB20F1F00E949621AE
:1038100080FD1AC0F70112820E9490210E94A4200C
:10382000C7010E94321C0E949021DF91CF911F910D
:103830000F91FF90EF90DF90CF90BF907F906F90AF
:103840005F904F900C94C520DF91CF911F910F9105
:10385000FF90EF90DF90CF90BF907F906F905F9040
:103860004F9008950F931F93CF93DF93EC018881BE
:1038700099812B813C81232BB9F09F3F11F48F3F1D
:1038800099F0CE010E94FE07882371F0688179814A
:103890008A810E948C218C010E9441210E94422039
:1038A000B801CE010E94DB19DF91CF911F910F91DA
:1038B00008950E9414220E94242280916300909116
:1038C00064000E94B2220E94C12180E090E00E9428
:1038D000BE1780E090E00C94D4170E9404220C9450
:1038E000591C0E948121E92FE295EF70F0E0329798
:1038F000EE30F105B0F4EE59FF4F0C943C2B803FB5
:1039000091F018F4803E68F40EC0843F51F40BC06F
:10391000803E48F0813F29F406C093FB882780F958
:10392000089580E0089581E00895CF93DF9300D05B
:1039300000D01F92CDB7DEB70F900F900F900F9071
:103940000F90DF91CF910895CF93DF9300D000D0F7
:1039500000D0CDB7DEB726960FB6F894DEBF0FBE07
:10396000CDBFDF91CF9108951F93CF93DF93C09187
:10397000FF0016E080910001C81799F0D0E01C9F6D
:10398000F0011D9FF00D1124EF5FFE4F408151812A
:1039900062817381848195810E94A41C2196C770E5
:1039A000E9CFDF91CF911F9108954091310150915E
:1039B0003201609133017091340180913501909111
:1039C00036010C94A41C8091360182958F7009F009
:1039D00054C080913301882309F44FC08091FF00C7
:1039E000A091000160913101709132014091340148
:1039F00050913501B6E08A1709F43FC090E04115B7
:103A00005105C1F17F3F11F46F3FA1F1B89FF00163
:103A1000B99FF00D1124EF5FFE4F218172132AC070
:103A20002081621327C02281211124C02381348187
:103A30002417350710F421503109241B350B283C7D
:103A40003105C0F4209136012F702061209336019A
:103A500026E0289FF001299FF00D1124EA5FFE4F18
:103A600080818F708061808381E391E00E94321CAD
:103A70000C94B41C01968770BECF0895CF92DF924C
:103A8000EF92FF920F931F93CF93DF93CDB7DEB7E3
:103A900062970FB6F894DEBF0FBECDBF8C0185E0F4
:103AA000F801DE011D9601900D928A95E1F7D8018B
:103AB0004C9111965C91119712966C9112971396F6
:103AC000CD90DC901497309131017091320180914A
:103AD000340190913501009709F46BC17F3F19F4CF
:103AE0003F3F09F466C1E0903301EE2009F4C0C005
:103AF00020913601C816D90628F0F601E81BF90B0B
:103B0000CF0104C0809590958C0D9D1DFF24F394EA
:103B1000883C910578F0F12C207F09F0C6C07C2DFF
:103B2000D98AC88A89890E94951C81E391E00E9404
:103B3000321CB1C0822F807F09F046C0751314C0BB
:103B4000341312C0611110C02F7020612093360110
:103B50000E94D51C81E391E00E94321C80913601C5
:103B6000D80115968C932EC0CD2819F15F3F11F422
:103B70004F3FF9F0F62E61111CC08091FF0020919B
:103B8000000136E0821709F45AC090E0389FF00136
:103B9000399FF00D1124EF5FFE4F7181571306C05E
:103BA0007081471303C07281711103C00196877041
:103BB000E9CFF62E662309F427C180913601816092
:103BC00080933601F12C20C1751308C0341306C050
:103BD000611104C080913601D801C3C04D875E8752
:103BE0008D859E856A8B0E94711C6A898823E1F10C
:103BF0006623D1F120913601822F82958F7090E05B
:103C0000029774F0809131019091320198878F83EF
:103C10001986DB86CA862C87CE0107960E94321C45
:103C200086E0F801A1E3B1E001900D928A95E1F7F9
:103C30000E94E31C0E94D51CFF24F394E5C04D872D
:103C40005E878D859E850E948121292F22952F7068
:103C500030E0223031050CF0CBC09F7009F0C5C0B8
:103C6000805E883008F4D0C0C8010E94321CE4CFC6
:103C7000C816D90608F453C0F601E81BF90BCF01AA
:103C8000883C910508F450C0F12C7C2DD98AC88A53
:103C900089890E94951CE1E3F1E086E0DF011D9235
:103CA0008A95E9F70E94D51CAFC0751314C0341370
:103CB00012C0611110C080913601F8018583C801DE
:103CC0000E94321C86E0E1E3F1E0DF011D928A955B
:103CD000E9F7FE2C99C04D875E878D859E856A8B9E
:103CE0000E94711C6A89882309F4BECF662309F4F7
:103CF000BBCF20913601822F82958F7090E0029782
:103D00000CF48ECF80913101909132019A83898396
:103D10001B82DD82CC822E83CE0101967FCF8095DF
:103D200090958C0D9D1DACCFF62E662309F49CCF8B
:103D300075132EC034132CC02091360120FD1FC0F6
:103D4000822F82958F70D9F0D80115962C931597F4
:103D50008F3049F08F5F982F9295907F822F8F70D0
:103D6000892B15968C93C8010E94321C86E0F801BD
:103D7000A1E3B1E001900D928A95E1F793CF86E03F
:103D8000F801A1E3B1E001900D928A95E1F73CC002
:103D90004D875E878D859E850E94711C811140CF65
:103DA00080913601816080933601C8010E94321CE7
:103DB0002BC0662309F458CF4D875E878D859E857D
:103DC0000E94711CF82E882309F44ECF86E0F8017A
:103DD000A1E3B1E001900D928A95E1F781E391E0D2
:103DE0000E94E0180E94E31C5DCF811139CF0CC006
:103DF000243031050CF038CF9F7009F431CFF80131
:103E00009581907F09F02CCF8F2D62960FB6F89494
:103E1000DEBF0FBECDBFDF91CF911F910F91FF90FD
:103E2000EF90DF90CF9008951F93CF93DF93CDB79E
:103E3000DEB72C970FB6F894DEBF0FBECDBF4F8311
:103E4000588769877A878B879C87CE0107960E945F
:103E50003E1D882369F08F8198852A853B85232B19
:103E6000F1F19F3F09F063C08F3F09F060C037C098
:103E700086E0FE013796DE01119601900D928A953B
:103E8000E1F76F817885EA85FB85309741F17F3FC7
:103E900011F46F3F21F12091000130E0C90101963A
:103EA000877099274091FF0050E08417950709F427
:103EB00047C069837A83FD83EC8396E0929FD001AB
:103EC000939FB00D1124AF5FBE4FFE01319601905C
:103ED0000D929A95E1F7809300010E94B41C16E0C0
:103EE0008091FF00909100018917C1F1189FC001D6
:103EF00011248F5F9E4F0E943E1D882379F1E0912F
:103F0000FF001E9FF0011124EF5FFE4F40815181A1
:103F100062817381848195810E94A41C8091FF003D
:103F200090E00196877099278093FF00D9CF4F8149
:103F3000588569857A858B859C850E94A41CCFCF86
:103F40000E946D1C109200011092FF00E1E3F1E06D
:103F500086E0DF011D928A95E9F7C1CF2C960FB656
:103F6000F894DEBF0FBECDBFDF91CF911F910895B2
:103F7000EF92FF920F931F93CF93DF938C01892BC6
:103F800009F46CC0F12CEE24E394E8012196F801C9
:103F90008491843740F4843008F051C0813081F03E
:103FA000823019F15BC0853709F444C0A8F19CE761
:103FB000980F903708F052C08F770E94A11941C026
:103FC0000E5F1F4FFE01C49180E28C0F883048F4D1
:103FD000C7708E2D01C0880FCA95EAF70E9417227C
:103FE00014C08C2F0E94E6182DC00E5F1F4FFE01DB
:103FF000C49180E28C0F883058F4C7708E2D01C0B8
:10400000880FCA95EAF70E941D220E94C1211AC09A
:104010008C2F0E94A11916C00E5F1F4FFE01C49184
:10402000CC2381F087EB9BE00197F1F700C0000003
:10403000C150F6CF0E5F1F4FFE01F49003C00E94E7
:10404000E6188E018F2D882309F49FCFE7EBFBE064
:104050003197F1F700C000008150F5CFDF91CF918B
:104060001F910F91FF90EF90089508950E943520C1
:1040700060933B0170933C0180933D0190933E011E
:104080000C94591C08950C9436200F931F930091A3
:104090003B0110913C0120913D0130913E01602B8C
:1040A000712B822B932B1F910F910C9436200F9321
:1040B0001F9300913B0110913C0120913D013091F3
:1040C0003E0160237123822393231F910F910C944F
:1040D00036200F931F9300913B0110913C012091DA
:1040E0003D0130913E0160277127822793271F9160
:1040F0000F910C94362008950C947B200E947C2014
:1041000060933701709338018093390190933A019D
:104110000C94591C60E070E0CB010C947E200F934E
:104120001F9341E050E060E070E08A019B0104C011
:10413000000F111F221F331F8A95D2F7C901B80142
:104140001F910F910C947E200F931F9341E050E03C
:1041500060E070E004C0440F551F661F771F8A950A
:10416000D2F78091370190913801A0913901B09137
:104170003A018A019B01082B192B2A2B3B2BC901E1
:10418000B8011F910F910C947E200F931F9341E073
:1041900050E060E070E004C0440F551F661F771FB9
:1041A0008A95D2F74095509560957095809137012A
:1041B00090913801A0913901B0913A018A019B0197
:1041C000082319232A233B23C901B8011F910F910A
:1041D0000C947E200F931F9341E050E060E070E06C
:1041E00004C0440F551F661F771F8A95D2F7809130
:1041F000370190913801A0913901B0913A018A01BB
:104200009B01082719272A273B27C901B8011F91BD
:104210000F910C947E200F931F9300913701109102
:1042200038012091390130913A01602B712B822B9A
:10423000932B1F910F910C947E200F931F9300914D
:104240003701109138012091390130913A016023F2
:104250007123822393231F910F910C947E200F933F
:104260001F9300913701109138012091390130914D
:104270003A0160277127822793271F910F910C9491
:104280007E200895CF92DF92EF92FF920F931F93BB
:10429000CF93DF938C01C0903B01D0903C01E09024
:1042A0003D01F0903E018091370190913801A0913D
:1042B0003901B0913A01C82AD92AEA2AFB2ACFE16A
:1042C000D0E0D701C6010C2E04C0B695A7959795EE
:1042D00087950A94D2F780FF06C0B8018C2F0E9400
:1042E000B40A019721F4219760F780E001C08C2F78
:1042F000DF91CF911F910F91FF90EF90DF90CF90C2
:104300000895CF93DF93EC010E944221BE010E94E9
:10431000B40ADF91CF910895CB010E9481210895C5
:1043200080913F01859585958595089580913F0100
:104330008770089598E0899F90011124262B20937F
:104340003F010C94A42020913F018095822380930B
:104350003F01982F977069F430E0482F082E000C29
:10436000550B2417350729F08595859585950C946F
:10437000C520089590913F01977081E009F480E095
:104380000895E0916300F091640080914B01808377
:10439000E0916300F0916400908180914A01892B43
:1043A0008083E0916300F0916400908180914901E5
:1043B000892B808380914001882381F0E091630004
:1043C000F09164009081892B8083809163009091AB
:1043D00064000E947B228111109240018091630051
:1043E000909164000C94B31780914B0108959091C3
:1043F0004B01892B80934B010895809590914B013F
:10440000892380934B01089510924B010895909158
:104410004A01892B80934A010895809590914A0121
:10442000892380934A01089510924A01089590913A
:104430004901892B80934901089580959091490104
:10444000892380934901089510924901089580932A
:10445000400108951092400108958091400108950F
:104460006DEE7EEF80E090E00E94952B60E082E0B0
:1044700090E00E94782B60E083E090E00E94782B2F
:1044800060E084E090E00E94782B60E085E090E0BE
:104490000E94782B60E086E090E00E94782B40E05C
:1044A00050E0BA0188E090E00C94892B80E090E025
:1044B0000E94722B21E08D3E9E4F09F020E0822F5A
:1044C000089582E090E00C94642B83E090E00C94DB
:1044D000642B84E090E00C94642B682F84E090E0DF
:1044E0000C94782B86E090E00C94642B682F86E087
:1044F00090E00C94782BFC0131969C01285F3F4F93
:1045000080E0919191118F5FE217F307D1F7089541
:104510009C01FC0132969FEF80E04191461789F0A3
:104520009F3F19F4411101C0982F8F5F8630A9F782
:104530009F3F39F0F901E90FF11D97FDFA9562836C
:1045400008950895FC01329608962081261301C033
:1045500010823196E817F907C1F708950C94882264
:104560000C94A222FC01319608961192E817F907E3
:10457000E1F708958BE083BF8BEB8CBF82E089BFAE
:1045800008952FB7F89480910B0290910C02A0919E
:104590000D02B0910E022FBF0895CF92DF92EF92DD
:1045A000FF920F931F932FB7F89440910B025091F5
:1045B0000C0260910D0270910E022FBF6A017B0107
:1045C000EE24FF248C0120E030E0C016D106E20684
:1045D000F30610F4415051099A01281B390BC90107
:1045E0001F910F91FF90EF90DF90CF9008957894F6
:1045F0001F920F920FB60F9211248F939F93AF9338
:10460000BF9380910B0290910C02A0910D02B0918A
:104610000E020196A11DB11D80930B0290930C0216
:10462000A0930D02B0930E02BF91AF919F918F9115
:104630000F900FBE0F901F90189560E081E090E002
:104640000E949B2B87E090EBDC01809355029093B6
:104650005602A0935702B09358029CE088E10FB62F
:10466000F894A89581BD0FBE91BDFFCF0E94562240
:10467000811102C00E9430220E94612280934C016D
:104680000E94692290E09093100280930F020E9492
:104690006522682F70E080E090E00C9443200F9337
:1046A0001F938732D8F58E3108F081C08E3009F41F
:1046B0006BC098F4873009F459C08B3009F48BC073
:1046C000863009F08FC080914C01817F8E7F80936E
:1046D0004C0181E080934D0186C0863109F47BC096
:1046E00068F4803109F07EC080914C0183FB222761
:1046F00020F991E0922790FB83F94FC0893109F4AA
:104700006AC08B3109F06EC080914C0181FB222779
:1047100020F991E0922790FB81F93FC0883309F49A
:104720005AC050F4893209F458C0853309F455C091
:10473000873209F452C056C0833409F44EC028F4BD
:104740008A3308F44FC0895333C0883409F04AC013
:104750000E946D1C0FEF1EE924E201501040204022
:10476000E1F700C000000E941D2335C080914C017C
:10477000982F9095917090FB80F980934C01911146
:104780002AC0897F877F10C080914C0182FB22273D
:1047900020F991E0922790FB82F980934C019923B4
:1047A000D1F080914C01816080934C0114C08D51F7
:1047B00041E050E060E070E08A019B0104C0000F1E
:1047C000111F221F331F8A95D2F7C901B8010E9419
:1047D00043200E946D1C81E006C061E070E080E033
:1047E00090E0F5CF80E01F910F91089580E008954B
:1047F00080E00895CF93C82F80914D01882319F050
:10480000813049F031C0E0916300F0916400808113
:10481000823261F507C0E0916300F091640080810D
:10482000823261F48C2F0E94F623811104C08C2FF8
:104830000E944F2317C081E090E014C08C2F0E948B
:10484000F82381110EC0C43149F018F4CB3049F07F
:104850000FC0C93219F0C83321F00AC010924D01BF
:1048600007C081E0817006C010924D0180E002C057
:1048700080E0F8CFCF9108950E945622811102C0A6
:104880000E9430220E94722280931102282F2695C6
:1048900030E02D30310524F0817088618093110261
:1048A0008091110280FF02C0869501C080E00C94C7
:1048B0003F0720911102822F8695482F50E04C30FF
:1048C000510544F48F5F982F990F822F8170892BA7
:1048D00080931102809111028160809311020E94E5
:1048E00076228091110286950C943F0780911102E7
:1048F000982F969591F09158990F8170892B8093FC
:1049000011028E7F91E009F490E08091110290FBFA
:1049100080F9809311020E9476228091110286957F
:104920000C943F0780911102982F909590FB80F98D
:1049300080931102813019F483E0809311028091F9
:1049400011020E9476228091110280FF02C086959A
:1049500001C080E00C943F0790911102892F869549
:104960008F5F8F7791708D3028F4880F892B80931B
:10497000110202C090931102809111028E7F91E08A
:1049800009F490E08091110290FB80F9809311026C
:104990000E9476228091110286950C943F078D30FB
:1049A00008F08CE0880F909111029170892B809310
:1049B00011028E7F91E009F490E08091110290FB4A
:1049C00080F9809311020E947622809111028695CF
:1049D0000C943F070E94C1228C010E94EC170E9498
:1049E000DF250E94A2170E94B1278B9A90E0915078
:1049F00041F0A895E7EBFBE03197F1F700C000002C
:104A0000F6CF8B987894C0E080912C02882331F007
:104A100010922C020E94C1228C0109C0C8010E9480
:104A2000CD22069710F0C1E0EFCFC111EDCF0E946B
:104A30009F2680913202882329F080911D0284FDF7
:104A40000E94F6170E949325DECF8091E001089521
:104A5000CF93DF9300D01F92CDB7DEB720915001E6
:104A6000309151018217930789F0909351018093FF
:104A7000500123E029839B838A838091490284FF2C
:104A800005C063E0CE0101960E949B260F900F9017
:104A90000F90DF91CF910895CF93DF9300D01F92B5
:104AA000CDB7DEB720914E0130914F0182179307A9
:104AB00089F090934F0180934E0122E029839B83DC
:104AC0008A838091490284FF05C063E0CE0101968C
:104AD0000E949B260F900F900F90DF91CF91089529
:104AE000CF93DF9300D000D000D0CDB7DEB7FC016C
:104AF00081E0898395E0DE01129601900D929A95EE
:104B0000E1F78091490284FF05C066E0CE0101967D
:104B10000E949B2626960FB6F894DEBF0FBECDBF2F
:104B2000DF91CF910895CF93DF93CAE0D0E08091D9
:104B30001D0284FF18C080915D0190915E0198175D
:104B4000E1F028E0829FC001112468E0815A9E4F65
:104B50000E94972680915D0190E001968F709927C1
:104B600080935D010AC00E949F2687EB9BE001971E
:104B7000F1F700C000002197D1F6DF91CF910895A1
:104B8000FC01A0915E01B0E09D012F5F3F4F2F70AF
:104B9000332780915D01821771F083E0AA0FBB1F5C
:104BA0008A95E1F7A15ABE4F98E001900D929A952F
:104BB000E1F720935E010E949F260C94932585E6E1
:104BC00090E00895FC01808180768032B1F581818A
:104BD000813041F485E591E090932E0280932D027F
:104BE00088E00895823041F48FED91E090932E0299
:104BF00080932D0281E008958A3021F4838180938F
:104C0000DF011BC08930C9F482819381811522E0C4
:104C1000920731F484819581892B89F482E004C064
:104C20008130934061F481E08093540186819781C3
:104C3000909353018093520102C080E008958FEF5A
:104C40000895FC018091520190915301892B99F0B4
:104C500090915401913051F0923069F480818093A9
:104C6000E001109253011092520103C08B9A0E94EE
:104C70001D2381E008958FEF0895FC018381813227
:104C800061F08232D1F0823071F588E097E0909344
:104C90002E0280932D028BE308958281882329F0D0
:104CA000813009F583E397E002C08AE197E09093B1
:104CB0002E0280932D0289E00895848195810097CA
:104CC00051F0019781F483E497E090932E02809352
:104CD0002D0284E8089587EC97E090932E0280934C
:104CE0002D0280E4089580E008951F93CF93DF9311
:104CF000162FEA01288124FF05C0398128E82327DF
:104D0000298302C02AE52883FC01CE010296DC013A
:104D1000212F280F31913D932A13FCCF612F0E9440
:104D200083041C5F1883DF91CF911F9108954DE19B
:104D300052E00C94752649E452E00C947526CF930A
:104D4000DF9360912F02635067FDB1C080912B0209
:104D5000CCE0D0E0C81BD109CD5CDD4F80912A02A8
:104D60008D3209F092C0683009F09FC083EC8093C7
:104D700012028AE5809370001092E10188818076AA
:104D800021F0CE010E94E2256DC09A8110921B0293
:104D90008981811106C010921C022BE132E082E071
:104DA0005CC0853019F49093300254C08630D1F540
:104DB0008B81813041F487E098E090932E028093BC
:104DC0002D0282E12BC0823021F18330F1F4911168
:104DD00008C08BE498E090932E0280932D0284E02B
:104DE0001DC0913041F485E398E090932E028093AA
:104DF0002D0286E113C0923081F489E198E090930E
:104E00002E0280932D028CE109C0813211F0823292
:104E100021F4CE010E943D2601C080E090E49093F1
:104E2000E10120C0883079F0893019F49093320282
:104E300011C08A3059F08B3069F48BE480931E02E4
:104E400080934A0207C022E332E002C02BE132E045
:104E500081E003C02BE132E080E030932E0220930A
:104E60002D0209C08F3F39F4988197FD8E8190E81B
:104E70009093E10107C09F81911104C09E81981712
:104E800008F4892F80936F0010C08091E10187FFA3
:104E90000CC0CE010E9421268F3F21F48EE1809329
:104EA000700003C0811110926F0010922F02809148
:104EB000700084FF49C080916F008F3F09F444C0A7
:104EC000C82F893008F0C8E08C1B80936F00909148
:104ED000120288E8892780931202CC2339F180914D
:104EE0002D0290912E022091E10126FF0BC0A3E13B
:104EF000B2E0FC012C2F280F34913D9331962E13F4
:104F0000FBCF09C0DC01E3E1F2E02C2F2E0F3D9135
:104F100031932E13FCCF2FEF2C0F30E02F5F3F4F3C
:104F2000820F931F90932E0280932D026C2F83E1AA
:104F300092E00E94830464E06C0F6C3019F08FEFF4
:104F400080936F006093700084E190B39C7031F4A3
:104F50008150D9F71092300210922902DF91CF913F
:104F6000089585B7886085BF8BB780688BBFADE13A
:104F7000B2E08BE411968C931197E9E4F2E081831F
:104F80008AE58C93808308955058BB27AA270E94F6
:104F9000DC270C948E290E94802938F00E948729F2
:104FA00020F039F49F3F19F426F40C9456290EF49E
:104FB000E095E7FB0C945029E92F0E949F2958F3B4
:104FC000BA17620773078407950720F079F4A6F5EE
:104FD0000C94C1290EF4E0950B2EBA2FA02D0B01D5
:104FE000B90190010C01CA01A0011124FF27591B2E
:104FF00099F0593F50F4503E68F11A16F040A22F34
:10500000232F342F4427585FF3CF469537952795A4
:10501000A795F0405395C9F77EF41F16BA0B620BA3
:10502000730B840BBAF09150A1F0FF0FBB1F661FEA
:10503000771F881FC2F70EC0BA0F621F731F841F2D
:1050400048F4879577956795B795F7959E3F08F053
:10505000B0CF9395880F08F09927EE0F9795879515
:1050600008950E9445280C948E290E94872958F0A3
:105070000E94802940F029F45F3F29F00C945029C8
:1050800051110C94C2290C9456290E949F2968F34F
:105090009923B1F3552391F3951B550BBB27AA27F1
:1050A00062177307840738F09F5F5F4F220F331F2B
:1050B000441FAA1FA9F335D00E2E3AF0E0E832D0F3
:1050C00091505040E695001CCAF72BD0FE2F29D0F6
:1050D000660F771F881FBB1F261737074807AB07C8
:1050E000B0E809F0BB0B802DBF01FF2793585F4F3D
:1050F0003AF09E3F510578F00C9450290C94C22947
:105100005F3FE4F3983ED4F3869577956795B7951E
:10511000F7959F5FC9F7880F911D9695879597F929
:105120000895E1E0660F771F881FBB1F62177307A2
:105130008407BA0720F0621B730B840BBA0BEE1FB7
:1051400088F7E095089529F416F00C9450290C94F2
:10515000C1290C9456290E94A729A8F39638A0F7D4
:1051600007F80F92E8942BE33AEA48EB5FE70E94D6
:10517000542A0F920F920F924DB75EB70F920E9472
:105180000A2AE0EEF0E00E9459294F915F91EF91D9
:10519000FF91E595EE1FFF1F49F0FE57E068442799
:1051A000EE0F441FFA95E1F74195550B0E94D42963
:1051B0000F9007FE0C94C82908950E94E428689473
:1051C000B1110C94C22908950E94A72988F09F5715
:1051D00098F0B92F9927B751B0F0E1F0660F771F1B
:1051E000881F991F1AF0BA95C9F714C0B13091F011
:1051F0000E94C129B1E008950C94C129672F782F2E
:105200008827B85F39F0B93FCCF3869577956795D5
:10521000B395D9F73EF490958095709561957F4F41
:105220008F4F9F4F0895E89409C097FB3EF49095E7
:105230008095709561957F4F8F4F9F4F9923A9F06F
:10524000F92F96E9BB279395F695879577956795FE
:10525000B795F111F8CFFAF4BB0F11F460FF1BC042
:105260006F5F7F4F8F4F9F4F16C0882311F096E9D5
:1052700011C0772321F09EE8872F762F05C0662383
:1052800071F096E8862F70E060E02AF09A95660F3C
:10529000771F881FDAF7880F9695879597F90895F5
:1052A00097F99F6780E870E060E008959FEF80ECD9
:1052B0000895DF93CF931F930F93FF92EF92DF92A6
:1052C0007B018C01689406C0DA2EEF010E94512AFE
:1052D000FE01E894A5912591359145915591A6F34C
:1052E000EF010E94DC27FE019701A801DA9469F71B
:1052F000DF90EF90FF900F911F91CF91DF91089574
:1053000000240A94161617061806090608950024A4
:105310000A9412161306140605060895092E03941E
:10532000000C11F4882352F0BB0F40F4BF2B11F492
:1053300060FF04C06F5F7F4F8F4F9F4F089557FDF1
:105340009058440F551F59F05F3F71F04795880FF3
:1053500097FB991F61F09F3F79F08795089512168A
:1053600013061406551FF2CF4695F1DF08C0161636
:1053700017061806991FF1CF8695710561050894E7
:105380000895E894BB2766277727CB0197F90895FE
:105390009B01AC0160E070E080E89FE30C94312851
:1053A0000C9450290C94B32A0E94A729D8F399236E
:1053B000C9F3940F511DA3F39150504094F059F04C
:1053C000882332F0660F771F881F91505040C1F735
:1053D0009E3F51052CF7880F911D9695879597F95B
:1053E00008955F3FACF0983E9CF0BB27869577957B
:1053F0006795B79508F4B1609395C1F7BB0F58F75F
:1054000011F460FFE8CF6F5F7F4F8F4F9F4FE3CF67
:105410000C94C229FA01DC01AA0FBB1F9B01AC014D
:10542000BF5728F4222733274427507820C0B7518C
:1054300090F4AB2F0024469537952795011CA39532
:10544000D2F3002071F0220F331F441FB395DAF31B
:105450000ED00C94C42761307105A0E88A07B946C4
:1054600030F49B01AC016627772788279078309627
:1054700021F0208331834283538308950E94512A6F
:105480000C948E290E94802938F00E94872920F0F0
:10549000952311F00C9450290C94562911240C9446
:1054A000C2290E949F2970F3959FC1F3950F50E088
:1054B000551F629FF001729FBB27F00DB11D639FC6
:1054C000AA27F00DB11DAA1F649F6627B00DA11D6C
:1054D000661F829F2227B00DA11D621F739FB00D12
:1054E000A11D621F839FA00D611D221F749F332782
:1054F000A00D611D231F849F600D211D822F762F1B
:105500006A2F11249F5750409AF0F1F088234AF0F7
:10551000EE0FFF1FBB1F661F771F881F9150504063
:10552000A9F79E3F510580F00C9450290C94C22994
:105530005F3FE4F3983ED4F3869577956795B795EA
:10554000F795E7959F5FC1F7FE2B880F911D969504
:10555000879597F908959F930E94C32A0F9007FC9F
:10556000EE5F0C94EC2A9F3F31F0915020F4879528
:1055700077956795B795880F911D9695879597F9BB
:1055800008950C9456290E94A729D8F3E894E0E0E6
:10559000BB279F57F0F02AED3FE049EC06C0EE0F25
:1055A000BB0F661F771F881F28F0B23A6207730788
:1055B000840728F0B25A620B730B840BE3959A951B
:1055C00072F7803830F49A95BB0F661F771F881FDB
:1055D000D2F790480C94B52AEF93E0FF07C0A2EAF7
:1055E0002AED3FE049EC5FEB0E94DC270E948E2908
:1055F0000F90039401FC9058E8E0F1E00C94002B2C
:105600009F938F937F936F93FF93EF939B01AC01D5
:105610000E943E2AEF91FF910E9459292F913F91BC
:105620004F915F910C943E2AAA1BBB1B51E107C00E
:10563000AA1FBB1FA617B70710F0A61BB70B881F22
:10564000991F5A95A9F780959095BC01CD010895B1
:1056500097FB072E16F4009407D077FD09D00E941F
:10566000142B07FC05D03EF4909581959F4F08952B
:10567000709561957F4F0895EE0FFF1F0590F4918F
:10568000E02D09940F93083090F0982F872F762FF4
:10569000652F542F432F322F22270850F4CF220F8B
:1056A000331F441F551F661F771F881F991F0A95B8
:1056B000B2F70F9108952A153B054C055D056E055F
:1056C0007F05800791070895E199FECF9FBB8EBBB0
:1056D000E09A99278DB30895A6E1B0E044E050E048
:1056E0000C94AA2BA8E1B0E042E050E00C94AA2B65
:1056F000262FE199FECF9FBB8EBBE09A01970DB29A
:10570000021631F02DBB0FB6F894E29AE19A0FBE63
:1057100008950396272F0E94792B0E94782B252F1E
:105720000E94792B242F0C94792B0196272F0E940D
:10573000792B0C94782B262FE199FECF9FBB8EBB43
:105740002DBB0FB6F894E29AE19A0FBE0196089528
:10575000DC01CB01FC01E199FECF06C0FFBBEEBB33
:10576000E09A31960DB20D9241505040B8F708952D
:04577000F894FFCFDB
:1057740005010241012525C02570254C252825FF5A
:025784005A00C9
:00000001FF
