:100000000C942C040C9470040C948B040C947004C9
:100010000C9470040C9470040C9470040C94700490
:100020000C9470040C94F5060C94D7220C94700474
:100030000C9470040C9470040C9470040C94700470
:100040000C9470040C9470040C9470040C94700460
:100050000C9470049B089D089F08AA08A108A30897
:10006000A508A708A908AC08AE08B008BB08B208E4
:10007000B408B608B808BA08BD08C419C419F619F6
:10008000F619361A981B981B981B541A981BF71AC6
:10009000F71A671B701B981B911B041B041B041B86
:1000A000041B041B041B041B041B041B041B041B58
:1000B000041B041B041B041B041B131B211B281BF8
:1000C0002F1B391B251C251C371C371C2E1C371CCD
:1000D000371C371C251C251C331C371C371C331CB4
:1000E00007634236B79BD8A71A39685618AEBAAB21
:1000F000558C1D3CB7CC5763BD6DEDFD753EF617B5
:100100007231BF000000803F05A84CCDB2D44EB97B
:100110003836A9020C50B9918688083CA6AAAA2AAA
:10012000BE000000803F03E200015E00015D0001AF
:10013000590002E2003102130012000C00150017F2
:10014000001C00180008001A0014002B000000001A
:10015000000000340033000F000E0009000A000BFD
:10016000000D0007001600040029420000000000F6
:10017000002A002700260025002100220023002459
:100180000020001F001E00350000000000000028B5
:100190000038723700360019000500110010000603
:1001A000001B001D00E1000000000000004C002EBC
:1001B000002D0001512C00015101512C00E200E3FF
:1001C00000E000E00000000000000000000000006F
:1001D000000000000000000000000000000000001F
:1001E000000000000000000000000000000000000F
:1001F00000000000000000000000000000000000FF
:1002000000000000000000000000000000000000EE
:1002100000000000000000000000000000000000DE
:100220000000000000005C27004B0052004B002241
:100230000023004E0052004E000100280000000084
:1002400000000028004D004F0051004F004D004AB3
:10025000005000510050004A00390000000000002A
:100260000044002E002D0041003D003E003F0040B4
:10027000003C003B003A0045000000000000000187
:10028000003802C55CC65CC85CC75CC45CC35CC0AB
:100290005C4C002A00010000000000000001000189
:1002A00000A900AA000100010001000100010001F5
:1002B000000100010000000000000000000000003C
:1002C000000000000000000000000000000000002E
:1002D000000000000000000000000000000000001E
:1002E000000000000000000000000000000000000E
:1002F00000000000000000000000000000000000FE
:1003000000000000000000000000000000000000ED
:100310000000000000005C3102010001000100014A
:1003200000010001000100010001002800000000A0
:10033000000000280001003000300226023602379B
:100340000227022F022F0001000100000000000020
:100350000044002E002D0041003D003E003F0040C3
:100360000043003E003E0145000000000000000187
:10037000000100C15CC25CB95CBB5CBC5CBE5CBA29
:100380005C010001000100000000000000AE00A9B7
:1003900000AA00AB00010001000100010001000102
:1003A000000100BE5C000000000000000000000032
:1003B000000000000000000000000000000000003D
:1003C000000000000000000000000000000000002D
:1003D000000000000000000000000000000000001D
:1003E000000000000000000000000000000000000D
:1003F00000000000000000000000000000000000FD
:1004000000000000000100010001000100010001E6
:1004100000010001000100010001000100000000D6
:1004200000000001000100010001000100010001C5
:1004300000010001000100010001000000000000B7
:1004400000010001000100010001000100010001A4
:10045000000100DC5C010001000000000000000160
:100460000001000100010001000100010001000184
:1004700000010001000100000000000000B95CBCA8
:100480005CBB5CBA5C0100010001000100010001DD
:10049000000100010000000000000000000000005A
:1004A000000000000000000000000000000000004C
:1004B000000000000000000000000000000000003C
:1004C000000000000000000000000000000000002C
:1004D000000000000000000000000000000000001C
:1004E000000000000000000000000000000000000C
:1004F000000000000000000000000000002A2B287F
:1005000000000000000000000000000000000000EB
:1005100029000000002C1E34202122243426272507
:100520002E362D3738271E1F20212223242526333F
:1005300033362E37381F0405060708090A0B0C0D41
:100540000E0F101112131415161718191A1B1C1D53
:100550002F3130232D350405060708090A0B0C0D31
:100560000E0F101112131415161718191A1B1C1D33
:100570002F3130354C00000000000000000000006A
:10058000000000000000000000000000000000006B
:100590000000000000000101010101010001010152
:1005A0000100000000000000000000000000000149
:1005B000000100010101010101010101010101012D
:1005C000010101010101010101010101010101011B
:1005D0000000000101000000000000000000000019
:1005E000000000000000000000000000000000000B
:1005F000010101010000046801F000B40078005A14
:10060000007F3F1F643214643214783C1E1E140AAB
:1006100005000000000001010101010101010102CA
:1006200002020202020202020303030303030303A2
:10063000040404040404050505050506060606066B
:1006400007070707080808080909090A0A0A0A0B20
:100650000B0B0C0C0C0D0D0D0E0E0F0F0F101011BF
:100660001111121213131414151516161717181842
:1006700019191A1A1B1C1C1D1D1E1F1F20202122A8
:10068000222324252526272728292A2B2B2C2D2EEB
:100690002F2F30313233343536363738393A3B3C08
:1006A0003D3E3F4041424344464748494A4B4C4DFA
:1006B0004F50515253555657585A5B5C5E5F6062BB
:1006C00063646667696A6C6D6E707173747678794D
:1006D0007B7C7E8081838486888A8B8D8F919294A7
:1006E00096989A9B9D9FA1A3A5A7A9ABADAFB1B3C7
:1006F000B5B7B9BBBDBFC1C4C6C8CACCCFD1D3D6AC
:10070000D8DADCDFE1E4E6E8EBEDF0F2F5F7FAFC4D
:10071000FF09023B0002010080FA09040000010306
:1007200001010009210101000122400007058103A8
:100730000800010904010001030000000921010172
:100740000001228400070583030800010501090256
:10075000A10185010901A10005091901290515005B
:100760002501750195058102750395018103050138
:10077000093009311581257F7508950281060938F0
:100780001581257F35004500750895018106050C0A
:100790000A38021581257F750895018106C0C005BC
:1007A000010980A1018502150126B700190129B7A9
:1007B000751095018100C0050C0901A10185031583
:1007C00001269C0219012A9C02751095018100C026
:1007D00005010906A10175019508050719E029E73A
:1007E00015002501810295017508810395057501A4
:1007F00005081901290591029501750391039506D4
:100800007508150026FF000507190029FF8100C0A3
:100810001201100100000008A0202D420002010278
:1008200000011C034A004A003500300020004B0044
:100830006500790062006F006100720064001603B9
:100840004B005000520065007000750062006C00A3
:10085000690063000403090411241FBECFE5D8E03A
:10086000DEBFCDBF04B603FE24C080915502909137
:100870005602A0915702B09158028730904BA74082
:10088000B04BB9F4109255021092560210925702D2
:100890001092580214BE84B7877F84BF0FB6F894B5
:1008A000A89581B5886181BD11BC0FBEE0E0F8E379
:1008B000099510E0A0E6B0E0E8EEF9E502C0059089
:1008C0000D92A237B107D9F722E0A2E7B0E001C04C
:1008D0001D92A535B207E1F70E9426260C94F22C52
:1008E0000C940000A82FB92F80E090E041E050EA7E
:1008F000609530E009C02D9182279795879510F07B
:1009000084279527305EC8F36F5FA8F30895EADF68
:100910008D939D930895CF93CFB7CF93C395839B2A
:10092000E9F7839B0EC0839B0CC0839B0AC0839B0B
:1009300008C0839B06C0C0912C02C395C0932C02B3
:10094000A3C0DF93C0912B02DD27CD5CDD4F839BDD
:1009500002C0DF91E6CF2F930F931F9300B32FEFC9
:1009600003FB20F94F933F9310B34FEF012703FB95
:1009700021F93BE031C04E7F012F10B3216028C028
:10098000102F4D7F2260000000B329C04B7F2460F0
:10099000012F000010B32BC010B3477F28602AC07E
:1009A0004F7E00B320612CC04F7D10B320622FC05A
:1009B0004F7B00B3206432C0422700B349934FEF0E
:1009C0000000102713FB20F910B31C70C9F1297F18
:1009D00091F2012703FB21F900B3237F89F2315003
:1009E00058F1102713FB22F910B3277E79F2012763
:1009F00003FB23F92F7C81F200B3102713FB24F9AA
:100A00002F7971F200C010B3012703FB25F92F7372
:100A100059F200C000B3102713FB26F9223040F230
:100A200000C010B3012703FB27F9243028F64F77C5
:100A3000206810B30000F9CF10E81ABF002719C0D2
:100A40003B503195C31BD04010E81ABF0881033CCE
:100A5000F9F00B34E9F0209129021981110F1213DA
:100A6000EDCF4A81441F093641F10D3211F0013EAC
:100A700029F7009331023F914F911F910F912F91D0
:100A8000DF91CAB7C7FD4ACFCF91CFBFCF9118959D
:100A900020913102222379F310912F021123C1F505
:100AA0003430C2F130932F0220932A0210912B028E
:100AB0003BE0311B30932B022DC000912F020130FF
:100AC0003CF50AE54F7049F43091700034FD24C0C4
:100AD00000937000C2E1D2E023C0433049F030916E
:100AE0001D0234FD19C000931D02CEE1D2E018C0F2
:100AF0003091490234FD10C000934902CAE4D2E0AB
:100B00000FC02795A8F45150A9F4220F0000F9CF87
:100B10004AE503C042ED01C0432FC4E1D0E032E01A
:100B200011B31C60939A11BB02B320E41CE05F93E5
:100B3000012756E002BB279520F4515021F4220FE3
:100B4000F9CF012756E000003B5A02BBD0F22795AF
:100B500028F4515029F4220F0000F9CF012756E064
:100B6000279502BB20F4515021F4220FF9CF012721
:100B700056E02991332302BB21F6037F1091300206
:100B8000110FC651D04002BB11F01093290210E89A
:100B90001ABF086011B3137F402F437F5F9100C0DD
:100BA00000C002BB11BB42BB66CF8FEF87BB88BBC7
:100BB0001ABA94B39B7B94BB8BBB85B38C6F85BBFC
:100BC000E2E8F0E0A2E7B0E0119211921D921D92CE
:100BD00080E0E239F807C1F70C94F40721E030E037
:100BE000A90102C0440F551F8A95E2F7CA0147BB0D
:100BF000809588BB0895282F26952575880F8A7AB9
:100C0000282B822F86958695837394E0299F9001E7
:100C100011242C7C822B82950895DF92EF92FF9213
:100C20000F931F93CF93DF9302E710E07801D0E09A
:100C300085E0D82E8D2F0E94EE0544E14A95F1F70C
:100C4000C9B383B380950E94FB05C0952C2F30E07B
:100C5000D901B82BF70120813181A217B30721F008
:100C6000B183A083D0926000DF5FF2E0EF0EF11C51
:100C7000D83001F7809160008823C1F081508093C3
:100C80006000882339F087EB9BE00197F1F700C003
:100C900000000CC0E2E8F0E0D8018D919D918D013B
:100CA00081939193B0E002381B07B1F70E94ED07E2
:100CB00081E0DF91CF911F910F91FF90EF90DF9036
:100CC0000895E82FF0E0EE0FFF1FEE57FF4F8081F1
:100CD00091810895089585B3836085BB87E080B9CD
:100CE00086B7846086BF86B7816086BF86B780641A
:100CF00086BF089516BE94EA96BF06B607FEFDCFDE
:100D000091B1987F983011F081E0089583B984E81B
:100D100086BF06B607FEFDCF81B1887F883111F00E
:100D2000803491F780E0089583B984E886BF06B6E1
:100D300007FEFDCF91B1987F81E0983209F480E001
:100D40000895DF92EF92FF920F931F93CF93DF935B
:100D5000D62E072F7A010E947A06182F81110CC017
:100D6000CD2DD02FEC0EFD1ECE15DF0539F089916B
:100D70000E9494068823C1F311E002C084E986BF73
:100D8000812FDF91CF911F910F91FF90EF90DF9016
:100D9000089580FF03C0889A909A02C0889890981E
:100DA00081FF03C0899A919A02C08998919882FF25
:100DB00003C08E9A969A08958E98969808958FB546
:100DC0008D7F8FBD8FB581608FBD19BC18BC089514
:100DD0008EB5887F83608EBD1DBC1CBC89B78460C6
:100DE00089BF81E080939200089578941F920F92BA
:100DF0000FB60F9211240F900FBE0F901F901895F1
:100E00008FB580628FBD8FB58F7E8FBD08958C9A10
:100E1000949A08950E94E8060E9400070C94070720
:100E200094980E94DF060C940A078D3008F08CE03D
:100E3000682F70E080E090E00E944D2A20E030E0D2
:100E40004FE753E40E94782B20E030E040E451E487
:100E50000E946B290E94172A6F3F710519F010F04C
:100E60006FEF70E079BD68BD08950C9410070C9485
:100E700015078091E20180FF09C00E946B0644E2E1
:100E800050E067EE71E080EB0C94A106E7EEF1E034
:100E9000118210821282339682E0EB30F807C1F79C
:100EA000ECCF08950C9451070C9452078091930055
:100EB000811110C08091E20180FF0CC00E946B067E
:100EC00044E250E067EE71E080EB0E94A10681E011
:100ED000809393000E948D130C9451079C01FB0199
:100EE00082818823C9F02C3D3C45B9F482E391E02E
:100EF0000E94EA078FE291E00E94EA078CE291E00B
:100F00000E94EA0789E291E00E94EA0786E291E006
:100F10000E94EA0780E0089581E0089581E0089545
:100F20000C946E07CF9390E0FC01EB50FB4FC49103
:100F3000FC01EB58FA4F8491882359F081EE0E940E
:100F4000A7188C2F0E94A7188C2F0E94551981EE8C
:100F500004C08C2F0E94A7188C2FCF910C94551988
:100F60000F931F93CF93DF93EC01062FFE01849123
:100F7000882359F19E012F5F3F4F813041F4E901F1
:100F8000F9011491812F0E94A718812F0DC0823082
:100F900031F4E901F90184910E94A7180AC0833055
:100FA00031F4E901F90184910E94551902C00E94AF
:100FB00092072196802F8823C9F2E7EBFBE0319757
:100FC000F1F700C000008150F6CFDF91CF911F9163
:100FD0000F91089560E00C94B0070C9456070C94A0
:100FE000C9060C94EF0708950E9435070C94540726
:100FF0000E94111C0E94F3072FEB87E299E0215019
:1010000080409040E1F700C000000C94FD22EF9278
:10101000FF920F931F93CF93DF9300D0CDB7DEB72E
:101020008C01FC01E080F180C7010E941721B7010B
:101030000E949E0A9A838983B801CE0101960E947C
:10104000CD13882371F1B80189819A810E9490079C
:10105000882339F1B80189819A810E94340D88234F
:1010600001F189819A81883CFCE59F07E1F008F055
:1010700012C1813C3CE59307E9F038F58531FCE588
:101080009F0708F0A2C082302CE59207A8F58115D1
:101090003CE5930709F081C0F801828181110E942B
:1010A000F80710E03DC2F80182818823D1F30E9445
:1010B000D10FF7CFF8018281882399F30E94C921CB
:1010C0008272B9F00E944810ECCF843C3CE5930753
:1010D00009F4B2C008F0C4C0823CFCE59F0709F0E7
:1010E000B3C0F80182818823E1F20E94C921827293
:1010F00049F30E943E10D5CFF8018281882309F47C
:1011000054C00E942B22811102C00E9405220E941D
:10111000482290E09093100280930F02E981FA81B7
:10112000E250FC45E331F10588F5E65DFF4F809123
:101130000F020C94762C816027C0826025C08460E9
:1011400023C0806121C080621FC080641DC0806890
:101150001BC08460886018C08E7F16C08D7F14C04D
:101160008B7F12C08F7E10C08F7D0EC08F7B0CC016
:101170008F770AC08B7F877F07C087FB222720F9E4
:1011800091E0922790FB87F980930F0280910F02E4
:101190000E944C220E94111C84CF81309C4551F04A
:1011A00081E08093990080939A00C8010E948E0785
:1011B000182FB6C1F8018281882309F472CF80917B
:1011C0004C01816080934C016CCF8531FCE59F0719
:1011D00039F50E94C921982FF8018281209163007E
:1011E00030916400882379F09A7A81E009F480E0F4
:1011F00080939400911102C069E201C065E3C901C6
:101200000E948E220AC080919400811102C069E27E
:1012100001C065E3C9010E9490220E94962141CF3E
:10122000803C9C4509F0BCCFF8018281882309F4F9
:1012300038CF0E945A1035CFF8018281882309F4F3
:1012400030CF0E94620F2DCF833C9C4509F0A8CF80
:10125000F8018281882309F424CF0E944A0F21CF0C
:10126000F8012281863CFCE59F0731F4222309F432
:1012700018CF0E949C0F15CF873C9C4530F4222349
:1012800009F40FCF0E94810F0CCF222309F409CF5C
:101290000E94B60F06CF8F3CECE59E07B1F4F80133
:1012A0008281882309F4FDCE0E94110E6F307105F2
:1012B0008105910540F00E94110E64317105810590
:1012C000910508F416CF8FE00FC0803DFCE59F0725
:1012D00008F06EC08B3C2CE5920749F4F80182813E
:1012E000882309F4DECE81E00E943B10DACE8C3CEC
:1012F0003CE59307C0F4893CECE59E0741F4F80116
:101300008281882309F4CDCE0E94370ECACE8A3C52
:101310009C4509F045CFF8018281882309F4C1CEAC
:101320000E944C0EBECEF80122818D3CFCE59F0749
:10133000A1F4222309F4B5CE0E94110E6630710586
:101340008105910540F00E94110E683071058105FC
:10135000910508F4CECE86E0C7CF8E3C9C45A0F424
:10136000222309F49ECE0E94110E62307105810580
:10137000910540F00E94110E6530710581059105BF
:1013800008F4B7CE82E0B0CF222309F48ACE0E94BF
:10139000110E693071058105910540F00E94110E12
:1013A0006E3071058105910508F4A3CE89E09CCFCC
:1013B000833DECE59E0739F4F8018281882309F426
:1013C00070CE83E291CF843DFCE59F07B0F5F80134
:1013D0002281813DFCE59F0729F4222309F461CE97
:1013E00088E182CF823D9C45A0F4222309F459CEA6
:1013F0000E94110E653171058105910540F00E9432
:10140000110E673171058105910508F472CE85E1F1
:101410006BCF222309F445CE0E94110E693171056C
:101420008105910540F00E94110E6232710581051F
:10143000910508F45ECE89E157CF853DECE59E0726
:1014400039F5F8018281882361F010929A000E9498
:10145000A122909398008093970080E20E948119C6
:1014600020CE80919A0081110FC0809197009091B9
:1014700098000E94AD22883C910530F487E20E94DA
:10148000A71887E20E94551980E20E94881909CEA8
:10149000853DFCE59F0728F5F8011281112351F0E5
:1014A000109299000E94A12290939600809395003B
:1014B00082E0D4CF8091990081110FC08091950076
:1014C000909196000E94AD22883C910530F486E20E
:1014D0000E94A71886E20E94551982E00E9488198E
:1014E0001FC0863D9C4509F05BCEF80182818111C9
:1014F000ACCF10919A001111C7CF809197009091B5
:1015000098000E94AD22883C910508F0BDCF80E292
:101510000E94881988E20E94A71888E20E94551943
:10152000812F0F900F90DF91CF911F910F91FF901E
:10153000EF90089580E090E00895089528E7829F55
:10154000C0011124FC012FE0729FE00DF11D112458
:10155000E60FF11DEE0FFF1FEB5CFE4F859194919E
:101560000895880F991FFC01EB50FA4F85919491D3
:101570000895CF93DF930E949E0A0E94940CEC0181
:10158000811521E5920708F042C0811540E59407D6
:1015900008F01CC1883E910500F5803E910508F0D9
:1015A000BFC1883A910570F4853A910508F099C059
:1015B0008130910509F4B4C108F46BC1049708F0B7
:1015C000AFC167C18D3B910508F496C0803C910581
:1015D00008F45FC1805C9109E8C0C11580E3D807B9
:1015E00080F4C11520E2D20708F0DDC0C03FD1056C
:1015F00008F44FC1CF3FD10511F008F091C1D0657B
:101600008FC1C11540E4D40708F0DDC0D2C0C115B8
:1016100089E5D80740F5C11528E5D20708F023C1B0
:10162000C11544E5D40778F4C11583E5D80708F05F
:10163000FFC0C11522E5D20708F0E4C0DC2FCC279B
:10164000C16FD06A6DC1C11545E5D40708F406C164
:10165000C11586E5D80708F01CC1CF71DD27DC2F46
:10166000CC27D0625DC1CB3B2CE5D20709F408C181
:10167000C0F4C93B8CE5D80709F4FCC008F0FDC0F4
:10168000C1154AE5D40708F004C1CE0124E09695BF
:1016900087952A95E1F78F70CF70C06ED0E0D06A41
:1016A000E7C0CE3B8CE5D80709F4F0C060F4CC3B32
:1016B0004CE5D40709F4E7C0CD3BDC4509F0E9C0AF
:1016C000C0E0D2ED2DC1CE0190568115904208F0B8
:1016D000E0C08D2F8F710E94100DDD27D0628F71B9
:1016E000C7C0853A910509F4D7C0863A910509F03B
:1016F000D6C0C2E8D0E414C1883A910509F4D2C03A
:10170000893A910509F4D1C08A3A910509F4D0C00B
:101710008B3A910509F4CFC08C3A910509F4CEC0FB
:101720008B3B910509F4CDC08C3B910509F4CCC0ED
:101730008D3A910509F4CBC0803B910509F4CAC0EC
:101740008E3A910509F4C9C08F3A910509F4C8C0D1
:10175000813B910509F4C7C0823B910509F4C6C0DD
:10176000833B910509F4C5C0843B910509F4C4C0CD
:10177000853B910509F4C3C0863B910509F4C2C0BD
:10178000873B910509F4C1C0883B910509F4C0C0AD
:10179000893B910509F4BFC08A3B910509F4BEC09D
:1017A000C0E0D4E4BDC0CE019F700E94B10AEC013C
:1017B000B7C0CE019927D3FF03C0EC01D86CB0C0ED
:1017C000EC01D06CADC0DF70D06AAAC074E0969511
:1017D00087957A95E1F7282F23703C2F337081E0AD
:1017E00090E002C0880F991F3A95E2F79C68922B0F
:1017F000CF70C695C69540E2C49FE0011124C82B66
:10180000D92B8EC0CE018370992721E030E002C031
:10181000220F331F8A95E2F78C2F8695869540E23A
:10182000849FC0011124E901C82BD92BDC6878C042
:10183000CE018370992721E030E002C0220F331FD0
:101840008A95E2F78C2F8695869540E2849FC001A9
:101850001124E901C82BD92BDA6862C0DC2FCC2710
:10186000C46FD06A5DC0DC2FCC27C06FD06A58C06F
:10187000D82B56C0C0E0D4ED53C0C0E0D5ED50C069
:10188000C0E0D1ED4DC0C0E0D0ED4AC0C0E0D3ED26
:1018900047C0C0E0D0E044C0C1E8D0E441C0C3E8E4
:1018A000D0E43EC0C2EED4E43BC0C9EED4E438C0BC
:1018B000CAEED4E435C0C5EBD4E432C0C6EBD4E400
:1018C0002FC0C3EBD4E42CC0C4EBD4E429C0C7EBD5
:1018D000D4E426C0CCECD4E423C0CDECD4E420C0C6
:1018E000C3E8D5E41DC0CAE8D5E41AC0C2E9D5E40E
:1018F00017C0C4E9D5E414C0C1E2D6E411C0C3E204
:10190000D6E40EC0C4E2D6E40BC0C5E2D6E408C0FB
:10191000C6E2D6E405C0C7E2D6E402C0CAE2D6E415
:10192000CE01DF91CF9108958238910549F1B0F44D
:101930008133910509F459C048F48932910509F4BD
:101940004FC08A32910509F455C008958533910539
:1019500009F441C08933910599F00895833E9105BA
:1019600031F138F4803E910591F0823E9105A9F065
:101970000895863E910501F1873E910539F108955C
:1019800020910F0220FD3BC021FD39C008958091B8
:101990000F0280FF34C089E341C080910F0282FFB3
:1019A00030C080910F0284FD2EC083EE37C080913D
:1019B0000F0282FD26C0F5CF80910F0283FF25C064
:1019C00080910F0284FD1FC087EE28C080910F0216
:1019D00083FD1BC0F5CF80910F0285FD18C019C093
:1019E00080910F0285FD15C012C080910F0286FD07
:1019F00012C013C080910F0286FD0FC00CC080EE94
:101A00000DC082EE0BC080E009C086EE07C089E2FF
:101A100005C085E303C08AE201C081E390E0089538
:101A200090910F0292FF0DC0282F2871283019F4D1
:101A3000877F846006C0282F2471243011F48B7FA7
:101A4000886093FF0DC0282F2871283119F4877EF4
:101A5000846106C0282F2471243111F48B7E8861A3
:101A600094FD877E089508950F931F93CF93FB01F4
:101A70002281211102C0C1E041C08C01C091A800A7
:101A8000C11125C086319C45B1F70E94330D81E01C
:101A90008093A8000E94A1229093A7008093A600A3
:101AA00010929B0010929D0010929C0010929F003B
:101AB00010929E001092A1001092A0001092A3001C
:101AC0001092A2001092A5001092A40017C080915D
:101AD000A6009091A7000E94AD228C32914058F64A
:101AE00090919B00E92FF0E0EE0FFF1FE456FF4FAF
:101AF000118300839F5F90939B00C0E08C2FCF9158
:101B00001F910F910895EF92FF920F931F93CF9320
:101B1000DF93E901662309F44BC0242F30E0EFEF97
:101B2000F0E0E61BF109B901E69F9001E79F300D57
:101B3000F69F300D1124232F8B01031B11095CE349
:101B4000E52EF12CB7010E944E2CFB01BC01069F33
:101B5000C001079F900D169F900D1124B7010E94A0
:101B60004E2CE230F105B1F040F4309779F0319726
:101B700011F5832F242F461B21C0E430F105A1F07D
:101B800068F03597C1F4842F861B18C0832F262F49
:101B9000230F14C0862F830FE42F03C0E42FE61B0E
:101BA000842F432F2E2F0AC0842F462F430F06C0A9
:101BB000842F242F03C080E020E040E0E42FF0E0F9
:101BC000EF5EF94F4491E22FF0E0EF5EF94F949110
:101BD000E82FF0E0EF5EF94FE49149839883EA83C0
:101BE000DF91CF911F910F91FF90EF90089588E0C2
:101BF00090E00C94A62CAB01BC0188E090E00C9422
:101C0000C32CE2EEF1E083E080831092E3018FEFDA
:101C100082838383148260817181828193810C9499
:101C2000FB0D6091E20160FF06C066956F7370E086
:101C300080E090E0089560E070E0CB010895E2EE6E
:101C4000F1E080818E7F80836081718182819381C8
:101C50000E94FB0D1092C6002FEB84ED91E0215005
:101C600080409040E1F700C000000C94390780915B
:101C7000E60190E001968430910514F083E090E055
:101C80008093E6016091E2017091E3018091E401AB
:101C90009091E5010C94FB0D8091E60190E0019795
:101CA00097FF02C080E090E08430910514F083E05B
:101CB00090E08093E6016091E2017091E3018091F0
:101CC000E4019091E5010C94FB0D9091E20190FFED
:101CD0000CC0E7EEF1E0818360834283339692E0AB
:101CE000EB30F907C1F70C9439070895CF93DF93D0
:101CF00000D01F92CDB7DEB72091E20120FF0AC0CD
:101D00009E012F5F3F4F0E94830D4B8169818A8125
:101D10000E94650E0F900F900F90DF91CF91089564
:101D20005F926F927F928F929F92AF92BF92CF926B
:101D3000DF92EF92FF920F931F93CF93DF9300D028
:101D40001F92CDB7DEB78C01E62EF42E522E809175
:101D5000E20180FF89C0982F9E77923061F49E0146
:101D60002F5F3F4FC8010E94830D4B8169818A819B
:101D70000E94650E59C0E82FE695EF739EE39E0F13
:101D80009F73943018F4F090E5014EC09AE39E0FD3
:101D90009F73993068F4881F8827881F9091E3010A
:101DA000292F220F022F082B97FB112710F93CC077
:101DB00087E28E0F8F738A30B8F5F0E07997E0FDF7
:101DC00002C021E001C02FEFEE7FE950FA4F85916C
:101DD00094916CE070E00E944E2C26034001279FF6
:101DE000900C1124580188E9A81A8EEFB80A87EEE2
:101DF000C82E81E0D82E98E6692E77247394C50109
:101E0000B3010E944E2C96014F2D6E2D0E94830D22
:101E1000A80CB91C83E0C80ED11C8BE0C81682E068
:101E2000D80669F70E9439078091E20100FB87F923
:101E30008093E201902F96958091E3018078892B21
:101E400010FB87F98093E301E092E401F092E50151
:101E5000552051F06091E2017091E3018091E4011D
:101E60009091E5010E94FB0D0F900F900F90DF9174
:101E7000CF911F910F91FF90EF90DF90CF90BF9087
:101E8000AF909F908F907F906F905F90089521E02A
:101E90000C94900EE2EEF1E02081221F2227221FF7
:101EA0003091E301432F440F842F822B37FB992776
:101EB00090F90C9668E671E00E94622C4381628181
:101EC0000C94470F2091E201221F2227221F3091FC
:101ED000E301432F440F842F822B37FB992790F97E
:101EE0008C3091051CF4845A9E4F05C00C9768E60F
:101EF00071E00E94622C4091E5016091E4010C9434
:101F0000470F6091E401862F90E0813F910514F422
:101F1000615F01C06FEF8091E201881F8827881FF1
:101F20009091E301292F220F97FB992790F9409177
:101F3000E501822B0C94470F6091E401862F90E01D
:101F40000F9714F06F5001C060E08091E201881F8C
:101F50008827881F9091E301292F220F97FB99274B
:101F600090F94091E501822B0C94470F4091E501D7
:101F7000842F90E08E3E910514F44E5E01C04FEF29
:101F80008091E201881F8827881F9091E301292F03
:101F9000220F97FB992790F96091E401822B0C9412
:101FA000470F4091E501842F90E0429714F0425191
:101FB00001C040E08091E201881F8827881F90912E
:101FC000E301292F220F97FB992790F96091E401F3
:101FD000822B0C94470F20E00C94900E9091E2011C
:101FE00090FF48C09178811102C0926007C085328D
:101FF00010F0986403C08F73880F982B9093E201C0
:10200000662351F06091E2017091E3018091E40157
:102010009091E5010E94FB0D8091E201282F2E771F
:10202000223019F41092C60014C0982F96959F7311
:102030003EE3390F3F73373120F0263411F0283456
:1020400021F491E09093C60004C0995D9F739A308B
:1020500048F3881F8827881F9091E301292F220FBA
:1020600097FB992790F94091E5016091E401822B5B
:102070000C94EB0F089561E00C94EE0F8091E20157
:1020800086958F738F5F853208F081E00C943B104A
:102090008091E20186958F73815009F484E20C945B
:1020A0003B10E2EEF1E080818160808386958F7342
:1020B0000C943B108091E20180FD0C941F0E0C9457
:1020C000511060E00C94EE0F80914C018160809380
:1020D0004C010E942B22811104C00E9405220E9403
:1020E000010E0E94F70D6093E2017093E30180936B
:1020F000E4019093E5016E7761F40E94010E0E9465
:10210000F70D6093E2017093E3018093E4019093F3
:10211000E50181E08093C6008091E20180FF04C068
:1021200086958F730C94611008959091E20190FF51
:1021300010C02C3070F430E0F901EE0FFF1F2E0FAD
:102140003F1FF901E951FE4F8183608342830C9464
:10215000390708951F93CF93DF9300D01F92CDB717
:10216000DEB73091E20130FF0CC0122F9E012F5FCD
:102170003F4F0E94830D212F4B8169818A810E94EC
:1021800095100F900F900F90DF91CF911F910895B0
:10219000CF93C82F8091C4009091C5000E94AD22BA
:1021A000EC2FF0E0E35FF94FE491F0E08E179F072A
:1021B00008F443C00E94A1229093C5008093C400FC
:1021C0006091C30070E080E090E00E944F2A20E020
:1021D00030E04FE753E40E946B292BED3FE049E4E8
:1021E00050E40E94782B0E94E52B0E94E5292BE405
:1021F0003AE34EE25FE30E94FE2820EF3BEF48ED1A
:1022000052E40E94782B0E941E2A462F8091E20100
:10221000881F8827881F9091E301292F220F97FBA1
:10222000992790F96091E401822B0E94760E8091AB
:10223000C30090E001968093C300CF910895CF939F
:10224000C82F8091C1009091C2000E94AD22EC2F56
:10225000F0E0E65FF94FE491F0E08E179F07E8F0B9
:102260000E94A1229093C2008093C1004091E50199
:102270006091E4018091BF009091C0000E94760EB1
:102280008091BF009091C000019668E671E00E94C5
:102290004E2C9093C0008093BF00CF910895CF92B1
:1022A000DF92FF920F931F93CF93DF93F82E8091CD
:1022B000BD009091BE000E94AD22EF2DE695F0E0AA
:1022C000E95FF94FE491F0E08E179F07B8F10E94A3
:1022D000A1229093BE008093BD0007EE11E0C0E004
:1022E000D0E088E6C82EDD24D3948091BB00909185
:1022F000BC008C0F9D1FB6010E944E2C980140918E
:10230000E5016091E4010E94830D6E960D5F1F4F01
:10231000C83681E0D80749F70E9439078091BB0091
:102320009091BC00F0FE05C00196BE010E944E2CAB
:1023300001C001979093BC008093BB00DF91CF91C7
:102340001F910F91FF90DF90CF900895CF92DF9271
:10235000EF92FF920F931F93CF93DF93C82F80FFCD
:1023600002C01FEF01C011E08091B9009091BA0046
:102370000E94AD22C695EC2FF0E0EC5FF94FE4919E
:10238000F0E08E179F0708F45BC00E94A122909393
:10239000BA008093B90027EEE22E21E0F22EC0E0D1
:1023A000D0E0F70111821082128294E0C92ED12C64
:1023B00000E08091B800800F87FD845F082E000C3C
:1023C000990BC817D907E9F48091E5018C9DA0010C
:1023D0008D9D500D112455954795559547958091A4
:1023E000E201881F8827881F9091E301592F550F1C
:1023F00097FB992790F997016091E401852B0E9442
:10240000830D010FF1E0CF1AD10899F6219683E0F0
:10241000E80EF11CCC30D10521F60E9439078091DD
:10242000B800113031F4811102C08BE007C0815037
:1024300005C090E00196BE010E94622C8093B80016
:10244000DF91CF911F910F91FF90EF90DF90CF9090
:1024500008950F931F93CF93DF93C82F8091B600F9
:102460009091B7000E94AD22EC2FF0E0EF5FF94FA2
:10247000E491F0E08E179F0708F456C00E94A12255
:102480009093B7008093B600C7EED1E0FE011182B1
:1024900010821282339682E0EB30F807C1F700E039
:1024A00010E08091B500082E000C990B0817190751
:1024B000ECF080916200082E000C990B80179107B8
:1024C000ACF08091E201881F8827881F9091E3017A
:1024D000592F550F97FB992790F99E014091E501DF
:1024E0006091E401852B0E94830D03C0198218823C
:1024F0001A820F5F1F4F23960C30110591F60E9430
:102500003907809161009091B500980F9093B500C4
:1025100020916200280F20936200121614F49B3061
:102520001CF0819580936100DF91CF911F910F91F5
:102530000895EF92FF920F931F93CF93DF938091B3
:10254000B3009091B4000E94AD22883E9340D0F138
:102550000E94A1229093B4008093B300C091B10077
:10256000D091B2002196C170DD27D093B200C09304
:10257000B10087EEE82E81E0F82E10E008E7812F09
:102580008695FE01E80FF11DCF0181709927970113
:102590004091E5016091E401FC010E9FC0010F9F95
:1025A000900D11240E94830D1F5FF3E0EF0EF11CCC
:1025B0001C3029F7DF91CF911F910F91FF90EF9081
:1025C0000C943907DF91CF911F910F91FF90EF90FD
:1025D0000895CF93DF9300D01F92CDB7DEB78091DF
:1025E000AF009091B0000E94AD22E5EFF5E025919B
:1025F000349182179307C0F18091AE0081110CC015
:102600009E012F5F3F4F4FEF6FEF80E090E00E9401
:10261000830D8A818093AE000E94A1229093B00026
:102620008093AF008091AD00813051F028F082306E
:1026300061F44091AE000AC08091AE0040E007C056
:102640006091AE0040E080E003C040E080E060E0E8
:102650000E94650E8091AD0090E0019663E070E00D
:102660000E94622C8093AD000F900F900F90DF912D
:10267000CF910895CF93DF938091AB009091AC0000
:102680000E94AD22843F914008F444C00E94A122E0
:102690009093AC008093AB00C0E0D0E02091A90003
:1026A0003091AA008091E2019091E301C630D105FA
:1026B0001CF4232B79F002C0232B61F4881F882798
:1026C000881F392F330F97FB992790F92C2F4091B2
:1026D000E5010AC0881F8827881F392F330F97FB11
:1026E000992790F92C2F40E06091E401832B0E9400
:1026F000AA102196CC30D10589F60E943907809125
:10270000A9009091AA000196817099279093AA0040
:102710008093A900DF91CF9108958091C60088230E
:10272000D9F19091E201892F86958F732EE3280FBE
:102730002F73243018F482500C94C8102AE3280F09
:102740002F73233018F486500C941F1127E3280FA1
:102750002F73263018F489500C944F1121E3280F61
:102760002F73263018F48F500C94A6112BE2280FEB
:102770002F73233018F485510C942912892F8E77EA
:10278000803311F40C949912863411F40C94E912EC
:10279000883411F40C943A1308958F929F92AF925B
:1027A000BF92CF92DF92EF92FF920F931F93CF933E
:1027B000DF937C01DC01ED91FC91CF0181509545C7
:1027C0008F3F910510F4B5E5FB27DB011296CC9104
:1027D000CC2309F4B4C2EF3FF10579F070F0EB3D82
:1027E000FC4519F01092C70060C39091C70081E0CA
:1027F00089278093C700A0E059C3A091C700AA23EE
:1028000009F4EBC01092C700E03CF10540F4E03859
:10281000F10508F073C0E034F105D0F505C0EF3FD5
:10282000F10509F008F4A0C021E030E040E050E0FC
:1028300060E070E080E090E00E2F0E947C2CB09170
:10284000C8002B2BB091C9003B2BB091CA004B2B79
:10285000B091CB005B2BB091CC006B2BB091CD0035
:102860007B2BB091CE008B2BB091CF009B2B209374
:10287000C8003093C9004093CA005093CB006093C6
:10288000CC007093CD008093CE009093CF00A1C078
:1028900021E030E040E050E060E070E080E090E077
:1028A0008F01005411090E947C2CB091D0002B2B79
:1028B000B091D1003B2BB091D2004B2BB091D30003
:1028C0005B2BB091D4006B2BB091D5007B2BB091DA
:1028D000D6008B2BB091D7009B2B2093D000309348
:1028E000D1004093D2005093D3006093D4007093F2
:1028F000D5008093D6009093D7006BC021E030E0E4
:1029000040E050E060E070E080E090E08F0100582F
:1029100011090E947C2CB091D8002B2BB091D900CA
:102920003B2BB091DA004B2BB091DB005B2BB091CD
:10293000DC006B2BB091DD007B2BB091DE008B2B8C
:10294000B091DF009B2B2093D8003093D9004093A7
:10295000DA005093DB006093DC007093DD0080931D
:10296000DE009093DF0035C021E030E040E050E031
:1029700060E070E080E090E08F01005C11090E944F
:102980007C2CB091E0002B2BB091E1003B2BB0915F
:10299000E2004B2BB091E3005B2BB091E4006B2B7A
:1029A000B091E5007B2BB091E6008B2BB091E70056
:1029B0009B2B2093E0003093E1004093E200509382
:1029C000E3006093E4007093E5008093E600909349
:1029D000E700E701F983E88369C2E034F105D0F448
:1029E000A090C800B090C900C090CA00D090CB00A1
:1029F000E090CC00F090CD00B091CE001091CF00CF
:102A000021E030E040E050E060E070E080E090E005
:102A10000E2F5DC0E038F105E8F4A090D000B09032
:102A2000D100C090D200D090D300E090D400F090BC
:102A3000D500B091D6001091D70021E030E040E001
:102A400050E060E070E080E090E04F01D0E48D1A4B
:102A500091083CC0E03CF105E8F4A090D800B090AB
:102A6000D900C090DA00D090DB00E090DC00F0905C
:102A7000DD00B091DE001091DF0021E030E040E0A9
:102A800050E060E070E080E090E04F01D0E88D1A07
:102A900091081CC0A090E000B090E100C090E2005E
:102AA000D090E300E090E400F090E500B091E60003
:102AB0001091E70021E030E040E050E060E070E09D
:102AC00080E090E04F01D0EC8D1A9108082D0E9413
:102AD0007C2CA222B322C422D522E622F722B823DC
:102AE000192321E030E040E050E060E070E080E059
:102AF00090E0E034F105A0F04F01E038F10520F45A
:102B0000D0E48D1A91080AC0E03CF10520F4D0E829
:102B10008D1A910803C0D0EC8D1A9108082D01C0C0
:102B20000E2F0E947C2C0B2F0E94952C09F0BDC10A
:102B3000E03CF10548F4E038F10508F084C0E034E9
:102B4000F10508F042C005C0EF3FF10509F008F4B7
:102B5000B8C021E030E040E050E060E070E080E0AC
:102B600090E00E2F0E947C2C20953095409550953A
:102B70006095709580959095E091C8002E23E09126
:102B8000C9003E23E091CA004E23E091CB005E23B2
:102B9000E091CC006E23E091CD007E23E091CE0049
:102BA0008E23E091CF009E232093C8003093C9006C
:102BB0004093CA005093CB006093CC007093CD003B
:102BC0008093CE009093CF0071C18F010054110902
:102BD00021E030E040E050E060E070E080E090E034
:102BE0000E947C2C2095309540955095609570956D
:102BF00080959095E091D0002E23E091D1003E2366
:102C0000E091D2004E23E091D3005E23E091D40006
:102C10006E23E091D5007E23E091D6008E23E091D3
:102C2000D7009E232093D0003093D1004093D20050
:102C30005093D3006093D4007093D5008093D60056
:102C40009093D70033C18F010058110921E030E083
:102C500040E050E060E070E080E090E00E947C2C7A
:102C600020953095409550956095709580959095FC
:102C7000E091D8002E23E091D9003E23E091DA00C4
:102C80004E23E091DB005E23E091DC006E23E091B7
:102C9000DD007E23E091DE008E23E091DF009E23A5
:102CA0002093D8003093D9004093DA005093DB0092
:102CB0006093DC007093DD008093DE009093DF0072
:102CC000F5C08F01005C110921E030E040E050E0E8
:102CD00060E070E080E090E00E947C2C20953095D0
:102CE000409550956095709580959095E091E000A5
:102CF0002E23E091E1003E23E091E2004E23E0919B
:102D0000E3005E23E091E4006E23E091E5007E2382
:102D1000E091E6008E23E091E7009E232093E000FF
:102D20003093E1004093E2005093E3006093E400AD
:102D30007093E5008093E6009093E700B7C0EF3F03
:102D4000F10511F008F0AEC0E034F105D0F4C09008
:102D5000C800D090C900E090CA00F090CB0010915C
:102D6000CC00C091CD00B091CE00A091CF0021E069
:102D700030E040E050E060E070E080E090E00E2F56
:102D80005DC0E038F105E8F4C090D000D090D100EB
:102D9000E090D200F090D3001091D400C091D50003
:102DA000B091D600A091D70021E030E040E050E0A3
:102DB00060E070E080E090E05F01D0E4AD1AB1081F
:102DC0003CC0E03CF105E8F4C090D800D090D900B8
:102DD000E090DA00F090DB001091DC00C091DD00A3
:102DE000B091DE00A091DF0021E030E040E050E053
:102DF00060E070E080E090E05F01D0E8AD1AB108DB
:102E00001CC0C090E000D090E100E090E200F090A3
:102E1000E3001091E400C091E500B091E600A091BC
:102E2000E70021E030E040E050E060E070E080E06A
:102E300090E05F01D0ECAD1AB1080A2D0E947C2C05
:102E4000A22EAC20B32EBD20C42ECE20D52EDF2046
:102E5000E62EE122F72EFC22B823192F1A23E034A4
:102E6000F10570F0E038F10518F4E054F10908C0FC
:102E7000E03CF10518F4E058F10902C0E05CF1090A
:102E800021E030E040E050E060E070E080E090E081
:102E90000E2F0E947C2CA1E00B2F0E94952C19F480
:102EA000A0E001C0A1E0A17001C0AC2F8A2FDF918A
:102EB000CF911F910F91FF90EF90DF90CF90BF9037
:102EC000AF909F908F9008959093ED008093EC00C9
:102ED0000895E091EC00F091ED00309721F0019021
:102EE000F081E02D099480E00895E091EC00F091EC
:102EF000ED00309721F00280F381E02D09940895D0
:102F00002091EA003091EB002817390771F0909377
:102F1000EB008093EA00E091EC00F091ED00309737
:102F200021F00680F781E02D099408952091E800B2
:102F30003091E9002817390771F09093E9008093E8
:102F4000E800E091EC00F091ED00309721F0008472
:102F5000F185E02D0994089581E008950E949A2258
:102F60000E94D5050E9462230E9478250C9464106B
:102F70005F926F927F928F929F92AF92BF92CF9209
:102F8000DF92EF92FF920F931F93CF93DF93CDB712
:102F9000DEB72A970FB6F894DEBF0FBECDBF0E94F2
:102FA0000D060E94AC17811111C08FEF89838A83AF
:102FB0001B820E94A1228160782F9D838C8349818E
:102FC0005A816B818D810E94731856C09FEE692EC5
:102FD00090E0792E00E010E088248394912C502E0C
:102FE000802F0E9461066C01F301A190B1903F0116
:102FF000A826B926A114B10431F40F5F1F4F083081
:10300000110569F7D2CF80914C0181FD0E946A06BB
:1030100080E090E07401082E02C0EE0CFF1C0A94C0
:10302000E2F795012E213F21232B09F18E835F8248
:10303000CE20DF2081E0CD2809F480E088870E943F
:10304000A1228160782F9A8789874E815F81688568
:103050008A850E947318000F111FF801E151FF4F7C
:1030600080819181E826F926F182E08205C00196EF
:103070008F30910579F6C1CF0E9469179091EE00CB
:103080008917D9F00E9469178093EE002A960FB62F
:10309000F894DEBF0FBECDBFDF91CF911F910F918E
:1030A000FF90EF90DF90CF90BF90AF909F908F9068
:1030B0007F906F905F900C94F1072A960FB6F8946A
:1030C000DEBF0FBECDBFDF91CF911F910F91FF905B
:1030D000EF90DF90CF90BF90AF909F908F907F90B8
:1030E0006F905F900895CF93DF93CDB7DEB72B97A6
:1030F0000FB6F894DEBF0FBECDBF4F8358876987E8
:103100007A878B87DE01119686E0FD0111928A9500
:10311000E9F785E0FE01379601900D928A95E1F777
:1031200049815A816B817C818D819E810E94DE1E46
:103130002B960FB6F894DEBF0FBECDBFDF91CF91B7
:103140000895FC01808191810E9456210895CF93BA
:10315000882309F4A8C0C82F8CEF8C0F813A68F43B
:103160008C2F0E94362581119EC06C2F80916300A8
:10317000909164000E948E220CC080E28C0F8830F7
:1031800058F4C77081E001C0880FCA95EAF70E9421
:10319000CC21CF910C9496218BE58C0F833078F461
:1031A000C53A29F0C63A31F083E890E005C081E8DD
:1031B00090E002C082E890E0CF910C94801788E5FF
:1031C0008C0F853108F06FC0C83A61F1C93A69F1D6
:1031D000CA3A71F1CB3A79F1CC3A81F1CB3B89F122
:1031E000CC3B91F1CD3A99F1C03BA1F1CE3AA9F196
:1031F000CF3AB1F1C13BB9F1C23BC1F1C33BC9F117
:10320000C43BD1F1C53BD9F1C63BE1F1C73BE9F184
:10321000C83BF1F1C93BF9F1CA3B09F43FC080E07A
:1032200090E03EC082EE90E03BC089EE90E038C076
:103230008AEE90E035C085EB90E032C086EB90E0FE
:103240002FC083EB90E02CC084EB90E029C087EB8B
:1032500090E026C08CEC90E023C08DEC90E020C084
:1032600083E891E01DC08AE891E01AC082E991E00C
:1032700017C084E991E014C081E292E011C083E2BA
:1032800092E00EC084E292E00BC085E292E008C0BA
:1032900086E292E005C087E292E002C08AE292E014
:1032A000CF910C949617CF910895882349F1682FF8
:1032B0008CEF860F813A38F480916300909164001E
:1032C0000E9490220CC080E2860F883050F4677014
:1032D00081E001C0880F6A95EAF70E94D2210C9420
:1032E00096218BE5860F833020F480E090E00C94EB
:1032F0008017685A653120F480E090E00C949617AE
:103300000895882321F00E94CC210C9496210895E1
:10331000882321F00E94D2210C94962108958F9247
:103320009F92AF92BF92DF92EF92FF920F931F9303
:10333000CF93DF937C01D62FC72FFC010581029527
:103340000F70128111110E94E9210E948F218823A0
:1033500079F0112369F080E28D0F883048F082E027
:103360000E9478210E948F2191E0D82ED92601C099
:10337000D12CBC2EB2948FE0B8228B2D90E0FC01B2
:10338000E35CFF4F0C94762C8C2F807FCF708823CA
:1033900011F0C295C07F112399F0CC2309F482C1AA
:1033A00080E28D0F883010F0D11104C08C2F0E9464
:1033B000CC2103C08C2F0E94DC210E94962172C177
:1033C0008D2F0E945519CC2309F4B2C180E28D0FD4
:1033D000883010F0D11104C08C2F0E94D22103C07C
:1033E0008C2F0E94E2210E949621A2C18C2F807F07
:1033F000CF70803211F0C295C07FDD2319F0D1303B
:10340000C9F022C0112371F0002341F0013031F4E2
:103410000E9402228C2B0E94FC218AC10E9402225F
:103420008C2B1DC0002319F0013009F481C10E94CA
:10343000FF211AC0112321F0063008F079C10EC017
:10344000053008F075C110C0112361F0002331F080
:10345000F701858180FF26C18F7085838C2F0E94A4
:10346000811966C101112FC18C2FDAC08C2F86956E
:103470008695837019F0813061F05AC1112321F0D3
:103480008D2F9C2F937002C080E090E00E948017E7
:103490005CC1112321F08D2F9C2F937002C080E01E
:1034A00090E00E94961751C18C2F837009F04CC098
:1034B000111147C12D2F229526952770220F220F1B
:1034C0006D2F6F70862F90E0A0E0B0E04C015D01A1
:1034D000022E04C0880C991CAA1CBB1C0A94D2F7AB
:1034E000D4FF12C08FE090E0A0E0B0E004C0880FED
:1034F000991FAA1FBB1F2A95D2F7BC01CD01609569
:1035000070958095909503C060E070E0CB01C69502
:10351000C695C370C23051F080F4682979298A2990
:103520009B29C13071F00E942D200BC16829792997
:103530008A299B290E943F2004C10E942D20C50199
:10354000B4010E941B20FDC0112319F08C2F817043
:1035500001C08695882309F4F4C02D2F2295269565
:103560002770220F220F6D2F6F70862F90E0A0E042
:10357000B0E04C015D01022E04C0880C991CAA1C0D
:10358000BB1C0A94D2F7D4FF12C08FE090E0A0E0F9
:10359000B0E004C0880F991FAA1FBB1F2A95D2F75D
:1035A000BC01CD01609570958095909503C060E059
:1035B00070E0CB01C695C695C370C23051F080F45F
:1035C000682979298A299B29C13071F00E94F2204B
:1035D000B8C0682979298A299B290E940421B1C091
:1035E0000E94F220C501B4010E94E020AAC08D2FE4
:1035F00090E0FC01E05EF109E531F10508F04EC014
:10360000E35BFF4F0C94762CDF708C2F8F711123AE
:1036100021F00E9479208D2F22CF0E949A208D2F99
:103620000E94881985C0112341F0053008F080C040
:103630008C2F8F710E94BF207BC0063008F078C0AD
:10364000F7CF112339F08C2F8F710E94792070C031
:103650001123C9F38C2F8F710E949A2069C0112306
:1036600029F08C2F8F710E94642062C00E945F201D
:103670005FC0112349F0CF718C2F0E94792063E045
:103680008C2F0E946F2154C081E00E94782102306B
:1036900008F44EC082E00E9478214AC0112331F024
:1036A000002389F28D2F0E94A71842C0002391F2B7
:1036B000D93349F4FFEF2DEE82E0F15020408040F5
:1036C000E1F700C000008D2F0E94551931C04C2F2A
:1036D0004F706D2FC7010E949A0A0E948C1F35C03F
:1036E000111133C0CF70C23091F038F4CC2361F0A7
:1036F000C130F1F40E94B22528C0C43071F050F0FE
:10370000C530B1F480E00AC00E9495251EC00E9419
:10371000CE251BC00E94E82518C08CE00E940B2615
:1037200014C04C2F4F706D2FC7010E949D0A0DC011
:1037300098E0B91631F0B91640F086EF8B0D823063
:1037400020F40E9469170E94F107DD20E1F00E9439
:103750006B2180FD18C0F70112820E9465210E9432
:103760007920C7010E94CF1B0E946521DF91CF9174
:103770001F910F91FF90EF90DF90BF90AF909F90BF
:103780008F900C949A20DF91CF911F910F91FF9011
:10379000EF90DF90BF90AF909F908F9008950F9320
:1037A0001F93CF93DF93EC01988189812B813C811A
:1037B000232B31F08F3F31F481E09F3F19F403C098
:1037C00081E001C080E080FD13C0CE010E940708A7
:1037D000882371F0688179818A810E9461218C013E
:1037E0000E9416210E940920B801CE010E948F1963
:1037F000DF91CF911F910F9108950E94E9210E94BE
:10380000F92180916300909164000E9492220E94AD
:10381000962180E090E00E94801780E090E00C9478
:1038200096170E94D9210C94FD1B0E945621E92F66
:10383000E295EF704E2F50E0FA013297EE30F1052D
:10384000B0F4EE59FF4F0C94762C803F91F018F4B1
:10385000803E68F40EC0843F51F40BC0803E48F0B7
:10386000813F29F406C093FB882780F9089580E002
:10387000089581E00895CF93DF9300D000D01F9288
:10388000CDB7DEB70F900F900F900F900F90DF9194
:10389000CF910895CF93DF9300D000D000D0CDB763
:1038A000DEB726960FB6F894DEBF0FBECDBFDF9110
:1038B000CF9108951F93CF93DF93C091FF0016E03F
:1038C00080910001C81799F0D0E01C9FF0011D9F66
:1038D000F00D1124EF5FFE4F4081518162817381B1
:1038E000848195810E944A1C2196C770E9CFDF919F
:1038F000CF911F9108954091310150913201609113
:1039000033017091340180913501909136010C940E
:103910004A1CCF938091360182958F7009F05FC069
:1039200080913301882309F45AC08091FF00B0913F
:10393000000170913101A091320140913401509108
:10394000350191E07F3F09F090E0692FC6E08B17C9
:1039500009F445C04115510521F0AF3F21F020E0A9
:1039600003C021E001C0262F90E020FD35C0C89F94
:10397000F001C99FF00D1124EF5FFE4F21812A1342
:103980002BC02081271328C02281211125C023812B
:1039900034812417350710F421503109241B350BCD
:1039A000283C3105C8F4209136012F702061209306
:1039B000360126E0289FF001299FF00D1124EA5FCF
:1039C000FE4F80818F708061808381E391E00E944F
:1039D000CF1BCF910C945A1C01968770B8CFCF9112
:1039E0000895AF92BF92CF92DF92EF92FF920F9322
:1039F0001F93CF93DF93CDB7DEB761970FB6F894DF
:103A0000DEBF0FBECDBF8C0185E0F801DE011D9643
:103A100001900D928A95E1F7D8014C9111965C9135
:103A200011971296EC9030913101609132018091A2
:103A3000340190913501009731F06F3F31F421E06E
:103A40003F3F19F403C021E001C020E0B22FB17064
:103A5000BB2E20FD60C1F801C380D480A09033014B
:103A6000AA2009F4EEC020913601C816D90628F024
:103A7000D601A81BB90BCD0104C0809590958C0D83
:103A80009D1DFF24F394883C910580F0F12C207F4C
:103A900009F09CC07C2DD98AC88A6E2D89890E9424
:103AA0003B1C81E391E00E94CF1B2DC1822F807FC0
:103AB00009F054C0561314C0431312C0FE2CE11079
:103AC0000FC02F702061209336010E947B1C81E380
:103AD00091E00E94CF1B80913601F80185835CC183
:103AE000CD2831F05F3F31F481E04F3F19F403C03E
:103AF00081E001C080E080FD03C081E08E2502C02E
:103B000080E090E0F82FF170FF2E80FF1CC08091C4
:103B1000FF002091000136E0821709F41AC190E0FD
:103B2000389FF001399FF00D1124EF5FFE4F618146
:103B3000561306C06081461303C06281E61203C0BB
:103B400001968770E9CFFE2CEE2009F425C1809103
:103B50003601816080933601F12C1EC1561309C0D5
:103B6000431307C0E11005C080913601F801858339
:103B7000A4C04D875E878D859E850E94151C882375
:103B800079F1EE2069F120913601822F82958F70B4
:103B900090E0029774F08091310190913201988702
:103BA0008F831986DB86CA862C87CE0107960E94F2
:103BB000CF1B86E0F801A1E3B1E001900D928A9558
:103BC000E1F70E94891C0E947B1C0DC0561771F002
:103BD0004D875E878D859E850E94151C81111AC0B8
:103BE000C8010E94CF1BFF24F394D6C04313F0CF2B
:103BF000E110EECF80913601F8018583C8010E9463
:103C0000CF1B86E0E1E3F1E0DF011D928A95E9F741
:103C1000FA2CC2C0EE2021F320913601822F82952A
:103C20008F7090E002972CF28091310190913201D7
:103C30009A8389831B82DD82CC822E83CE010196FA
:103C4000B6CFC816D90628F0F601E81BF90BCF014C
:103C500004C0809590958C0D9D1D883C910548F081
:103C6000F12C7C2DD98AC88A6E2D89890E943B1C33
:103C70004AC0FE2CEE2009F4B3CF561333C04313D1
:103C800031C02091360120FD24C0822F82958F7093
:103C9000482F50E041155105E1F0D80115962C93BD
:103CA00015974F30510549F08F5F982F9295907F6F
:103CB000822F8F70892B15968C93C8010E94CF1B81
:103CC00086E0F801A1E3B1E001900D928A95E1F759
:103CD0003DC086E0F801A1E3B1E001900D928A9524
:103CE000E1F75AC04D875E878D859E850E94151C21
:103CF00081115FCF80913601816080933601C801C8
:103D00000E94CF1B49C0E1E3F1E086E0DF011D9294
:103D10008A95E9F71BC0EE2009F462CF4D875E87D4
:103D20008D859E850E94151CF82E882309F458CF96
:103D300086E0F801A1E3B1E001900D928A95E1F7E8
:103D400081E391E00E94A1180E94891C0E947B1CC3
:103D500023C04D875E878D859E850E945621292F21
:103D600022952F70223028F49F7039F0811105C000
:103D70000BC0243028F49F7049F4805E883020F016
:103D8000C8010E94CF1BBF2CFB2C06C0D801159682
:103D90009C91907F91F7F8CF8F2D61960FB6F89494
:103DA000DEBF0FBECDBFDF91CF911F910F91FF906E
:103DB000EF90DF90CF90BF90AF9008951F93CF9377
:103DC000DF93CDB7DEB72C970FB6F894DEBF0FBEEA
:103DD000CDBF4F83588769877A878B879C87CE01B1
:103DE00007960E94F11C8823D1F09F8188852A853F
:103DF0003B85232B31F08F3F31F481E09F3F19F455
:103E000003C081E001C080E080FD47C04F8158853C
:103E100069857A858B859C850E944A1C3EC086E018
:103E2000FE013796DE01119601900D928A95E1F719
:103E3000FF81E8856A857B856115710531F0EF3F6B
:103E400031F481E0FF3F19F403C081E001C080E05C
:103E500080FD23C02091000130E0C90101968770E8
:103E600099274091FF0050E084179507F1F1F983FD
:103E7000EA837D836C8396E0929FD001939FB00D7F
:103E80001124AF5FBE4FFE01319601900D929A95BD
:103E9000E1F7809300010E945A1C16E08091FF0018
:103EA00090910001891771F1189FC00111248F5F53
:103EB0009E4F0E94F11C882329F1E091FF001E9F74
:103EC000F0011124EF5FFE4F4081518162817381C7
:103ED000848195810E944A1C8091FF0090E00196A8
:103EE000877099278093FF00D9CF0E94111C1092F0
:103EF00000011092FF00E1E3F1E086E0DF011D9296
:103F00008A95E9F72C960FB6F894DEBF0FBECDBFA9
:103F1000DF91CF911F910895EF92FF920F931F931E
:103F2000CF93DF938C01892B09F46CC0F12CEE2424
:103F3000E394E8012196F8018491843740F48430B9
:103F400008F051C0813081F0823019F15BC08537B3
:103F500009F444C0A8F19CE7980F903708F052C0CC
:103F60008F770E94551941C00E5F1F4FFE0184914B
:103F700090E2980F983050F48770FE2D01C0FF0F2B
:103F80008A95EAF78F2F0E94EC2114C00E94A7188F
:103F90002DC00E5F1F4FFE01849190E2980F983064
:103FA00060F48770FE2D01C0FF0F8A95EAF78F2F0E
:103FB0000E94F2210E94962119C00E94551916C034
:103FC0000E5F1F4FFE01C491CC2381F087EB9BE075
:103FD0000197F1F700C00000C150F6CF0E5F1F4FF0
:103FE000FE01F49003C00E94A7188E018F2D882334
:103FF00009F49FCFE7EBFBE03197F1F700C0000039
:104000008150F5CFDF91CF911F910F91FF90EF90ED
:104010000895089508950C940A200E940B2060933F
:104020003B0170933C0180933D0190933E010C94C1
:10403000FD1B0C940D200F931F9300913B011091D9
:104040003C0120913D0130913E01602B712B822B70
:10405000932B1F910F910C940D200F931F930091A0
:104060003B0110913C0120913D0130913E016023C4
:104070007123822393231F910F910C940D200F9392
:104080001F9300913B0110913C0120913D01309123
:104090003E0160277127822793271F910F910C946F
:1040A0000D200C940A200E945120609337017093D8
:1040B00038018093390190933A010C94FD1B60E024
:1040C00070E0CB010C9453200F931F9341E050E01C
:1040D00060E070E08A019B0104C0000F111F221FE5
:1040E000331F8A95D2F7C901B8011F910F910C9423
:1040F00053200F931F9341E050E060E070E004C054
:10410000440F551F661F771F8A95D2F7809137019C
:1041100090913801A0913901B0913A018A019B0137
:10412000082B192B2A2B3B2BC901B8011F910F918A
:104130000C9453200F931F9341E050E060E070E037
:1041400004C0440F551F661F771F8A95D2F740950C
:104150005095609570958091370190913801A091AC
:104160003901B0913A018A019B01082319232A23BE
:104170003B23C901B8011F910F910C9453200F9359
:104180001F9341E050E060E070E004C0440F551F11
:10419000661F771F8A95D2F7809137019091380179
:1041A000A0913901B0913A018A019B010827192792
:1041B0002A273B27C901B8011F910F910C94532066
:1041C0000F931F930091370110913801209139010D
:1041D00030913A01602B712B822B932B1F910F9101
:1041E0000C9453200F931F930091370110913801C5
:1041F0002091390130913A01602371238223932366
:104200001F910F910C9453200F931F93009137012E
:10421000109138012091390130913A0160277127BE
:10422000822793271F910F910C9453200895CF92CA
:10423000DF92EF92FF920F931F93CF93DF938C0146
:10424000C0903701D0903801E0903901F0903A01E8
:1042500080913B0190913C01A0913D01B0913E01C4
:10426000C82AD92AEA2AFB2ACFE1D0E0D701C60121
:104270000C2E04C0B695A795979587950A94D2F70A
:1042800080FD04C0219790F780E007C0B8018C2F13
:104290000E94B90A0197B1F38C2FDF91CF911F9142
:1042A0000F91FF90EF90DF90CF900895CF93DF9321
:1042B000EC010E941721BE010E94B90ADF91CF9143
:1042C0000895CB010E945621089580913F01859564
:1042D00085958595089580913F018770089598E0B0
:1042E000899F90011124262B20933F010C94792063
:1042F00020913F018095822380933F01982F9770F2
:1043000069F430E0482F082E000C550B24173507B0
:1043100029F08595859585950C949A20089590911E
:104320003F01977081E009F480E00895E091630017
:10433000F091640080914B018083E0916300F091E3
:104340006400908180914A01892B8083E091630011
:10435000F0916400908180914901892B8083809144
:104360004001882381F0E0916300F0916400908126
:10437000892B808380916300909164000E945A226F
:1043800081111092400180916300909164000C941F
:10439000751780914B01089590914B01892B809363
:1043A0004B010895809590914B01892380934B0197
:1043B000089510924B01089590914A01892B8093A2
:1043C0004A010895809590914A01892380934A017A
:1043D000089510924A01089590914901892B809384
:1043E000490108958095909149018923809349015D
:1043F0000895109249010895809340010895109204
:10440000400108958091400108956DEE7EEF80E0B7
:1044100090E00E94CF2C60E082E090E00E94B22CFD
:1044200060E083E090E00E94B22C60E084E090E0E5
:104430000E94B22C60E085E090E00E94B22C60E027
:1044400086E090E00E94B22C40E050E0BA0188E0A3
:1044500090E00C94C32C80E090E00E94AC2C21E012
:104460008D3E9E4F09F020E0822F089582E090E07B
:104470000C949E2C682F82E090E00C94B22C83E088
:1044800090E00C949E2C682F83E090E00C94B22C6A
:1044900084E090E00C949E2C682F84E090E00C94D3
:1044A000B22C86E090E00C949E2C682F86E090E081
:1044B0000C94B22CFC0131969C01285F3F4F80E0A8
:1044C000919191118F5FE217F307D1F708959C0145
:1044D000FC0132969FEF80E04191461789F09F3FA3
:1044E00019F4411101C0982F8F5F8630A9F79F3FC3
:1044F00039F0F901E90FF11D97FDFA9562830895EE
:1045000008959C012A5F3F4FFC014281461301C080
:104510001282019682179307B9F708950C946722C7
:104520000C948122FC01319608961192E817F90744
:10453000E1F708958BE083BF8BEB8CBF82E089BFEE
:1045400008952FB7F89480910B0290910C02A091DE
:104550000D02B0910E022FBF0895CF92DF92EF921D
:10456000FF920F931F932FB7F89440910B02509135
:104570000C0260910D0270910E022FBF6A017B0147
:10458000EE24FF248C0120E030E0C016D106E206C4
:10459000F30610F4415051099A01281B390BC90147
:1045A0001F910F91FF90EF90DF90CF900895789436
:1045B0001F920F920FB60F9211248F939F93AF9378
:1045C000BF9380910B0290910C02A0910D02B091CB
:1045D0000E020196A11DB11D80930B0290930C0257
:1045E000A0930D02B0930E02BF91AF919F918F9156
:1045F0000F900FBE0F901F90189560E081E090E043
:104600000E94D52C87E090EBDC01809355029093BB
:104610005602A0935702B09358029CE088E10FB66F
:10462000F894A89581BD0FBE91BDFFCFAF92BF9208
:10463000CF92DF92EF92FF920F931F93CF93C0E040
:10464000CC24C394D12CE82EF12C8C2F0E9461062F
:104650005C0100E010E0C601002E02C0880F991F27
:104660000A94E2F78A219B21892B31F40F5F1F4FB7
:104670000F30110581F70AC0602F7C2F80E00E9467
:104680009E0AE816F90691F781E004C0CF5FC830B2
:10469000E1F680E0CF911F910F91FF90EF90DF90B6
:1046A000CF90BF90AF900895CF93C82F8CE20E9417
:1046B0001623882321F08C2FCF910C94162380E0B1
:1046C000CF910895CF930E942B22811102C00E94A6
:1046D0000522C5E6C15049F00E940D068FE295E71C
:1046E0000197F1F700C00000F5CF89E20E94542342
:1046F00081110FC18AE20E94542381110E94052278
:1047000085E00E94542381110E94FD220E943622DE
:1047100080934C0187E00E9454238823A9F18BE108
:104720000E945423882351F080914C0181FB222761
:1047300020F991E0922790FB81F90EC08EE00E9453
:104740005423882361F080914C0182FB222720F9B9
:1047500091E0922790FB82F980934C0115C080E193
:104760000E94542390914C01882341F093FB22270F
:1047700020F981E0822780FB93F904C0892F80957E
:1047800080FB90F990934C0180914C010E943A2259
:104790000E94482290E09093100280930F0280EED6
:1047A0000E945423882341F080910F02982F909506
:1047B00090FB80F980930F0289E30E9454238823A1
:1047C00059F080910F0281FB222720F991E0922776
:1047D00090FB81F980930F0282EE0E94542388237C
:1047E00059F080910F0282FB222720F991E0922755
:1047F00090FB82F980930F0286EE0E945423882357
:1048000059F080910F0283FB222720F991E0922733
:1048100090FB83F980930F0283EE0E945423882338
:1048200059F080910F0284FB222720F991E0922712
:1048300090FB84F980930F0285E30E945423882320
:1048400059F080910F0285FB222720F991E09227F1
:1048500090FB85F980930F0281E30E945423882303
:1048600059F080910F0286FB222720F991E09227D0
:1048700090FB86F980930F0281E10E9454238823E4
:1048800059F080910F0287FB222720F991E09227AF
:1048900090FB87F980930F0280910F020E944C22B7
:1048A00087E20E945423C82F8EE10E945423811175
:1048B000C2608FE10E9454238111C46080E20E9493
:1048C00054238111C86081E20E9454238111C06188
:1048D00082E20E9454238111C06283E20E94542329
:1048E0008111C06484E20E945423882311F0C068BF
:1048F00002C0CC2329F08C2F0E9443226C2F03C0CE
:104900000E943F22682F70E080E090E0CF910C94ED
:104910001920CF9108950F931F9341E050E060E07C
:1049200070E08A019B0104C0000F111F221F331F7A
:104930008A95D2F7C901B8010E9419201F910F91E1
:104940000C94111C873208F040C08E3108F081C0F1
:104950008E3009F46BC0C0F4873009F459C068F494
:10496000863009F07DC080914C01817F8E7F8093DD
:104970004C0181E080934D010895883009F46EC0A8
:104980008B3009F46BC06CC0863109F467C068F4E1
:10499000803109F065C080914C0183FB222720F90A
:1049A00091E0922790FB83F94AC0893109F456C0FF
:1049B0008B3109F055C080914C0181FB222720F9F1
:1049C00091E0922790FB81F93AC0883309F446C000
:1049D00040F4893209F43FC08533E9F18732D9F1D7
:1049E0003FC08334C1F120F48A33D0F1895334C0FD
:1049F0008834B1F50E94111C2FEF8EE994E221500A
:104A000080409040E1F700C000000E94FD2226C0D7
:104A100080914C01982F9095917090FB80F9809334
:104A20004C0191111BC0897F877F10C080914C0180
:104A300082FB222720F991E0922790FB82F9809354
:104A40004C01992359F080914C01816080934C0175
:104A500005C08D5101C080E00E948B2481E0089543
:104A600080E0089580E008950C943225CF93C82FFC
:104A700080914D01882319F0813049F031C0E091D7
:104A80006300F09164008081823261F507C0E0919B
:104A90006300F09164008081823261F48C2F0E9467
:104AA0003425811104C08C2F0E94A22417C081E0FC
:104AB00090E014C08C2F0E94322581110EC0C431A9
:104AC00049F018F4CB3049F00FC0C93219F0C8339F
:104AD00021F00AC010924D0107C081E0817006C02C
:104AE00010924D0180E002C080E0F8CFCF91089590
:104AF0000E942B22811102C00E9405220E94512295
:104B000080931102282F269530E02D30310524F0B6
:104B100081708861809311028091110280FF02C030
:104B2000869501C080E00C94370720911102822FF6
:104B30008695482F50E04C30510544F48F5F982FF4
:104B4000990F822F8170892B80931102809111021D
:104B50008160809311020E945522809111028695F6
:104B60000C94370780911102982F969591F09158E7
:104B7000990F8170892B809311028E7F91E009F447
:104B800090E08091110290FB80F9809311020E94C5
:104B900055228091110286950C943707809111025D
:104BA000982F909590FB80F980931102813019F431
:104BB00083E080931102809111020E94552280911E
:104BC000110280FF02C0869501C080E00C94370777
:104BD00090911102892F86958F5F8F7791708D301C
:104BE00028F4880F892B8093110202C09093110240
:104BF000809111028E7F91E009F490E08091110282
:104C000090FB80F9809311020E945522809111023D
:104C100086950C9437078D3008F08CE0880F9091C2
:104C200011029170892B809311028E7F91E009F41B
:104C300090E08091110290FB80F9809311020E9414
:104C400055228091110286950C9437070E94A1226B
:104C50008C010E94AE170E941B270E9464170E94BD
:104C6000EB288B9A80E0815041F0A895E7EBFBE0C0
:104C70003197F1F700C00000F6CF8B987894C0E030
:104C800080912C02882331F010922C020E94A122E4
:104C90008C0109C0C8010E94AD22069710F0C1E046
:104CA000EFCFC111EDCF0E94DC2780913202882323
:104CB00029F080911D0284FD0E94B8170E94CF2622
:104CC000DECF8091E0010895CF93DF9300D01F9253
:104CD000CDB7DEB720915001309151012817390727
:104CE00089F0909351018093500123E029839B83A5
:104CF0008A838091490284FF05C063E0CE0101965A
:104D00000E94D8270F900F900F90DF91CF910895B8
:104D1000CF93DF9300D01F92CDB7DEB720914E0125
:104D200030914F012817390789F090934F018093F4
:104D30004E0122E029839B838A838091490284FF6C
:104D400005C063E0CE0101960E94D8270F900F9016
:104D50000F90DF91CF910895CF93DF9300D000D0D3
:104D600000D0CDB7DEB7FC0181E0898395E0DE019C
:104D7000129601900D929A95E1F78091490284FF75
:104D800005C066E0CE0101960E94D82726960FB690
:104D9000F894DEBF0FBECDBFDF91CF910895CF93C2
:104DA000DF93CAE0D0E080911D0284FF18C080919B
:104DB0005D0190915E019817E1F028E0829FC001AB
:104DC000112468E0815A9E4F0E94D42780915D0192
:104DD00090E001968F70992780935D010AC00E9430
:104DE000DC2787EB9BE00197F1F700C000002197DB
:104DF000D1F6DF91CF910895FC01A0915E01B0E062
:104E00009D012F5F3F4F2F70332780915D018217E7
:104E100071F083E0AA0FBB1F8A95E1F7A15ABE4F3C
:104E200098E001900D929A95E1F720935E010E941F
:104E3000DC270C94CF2685E690E00895FC01808164
:104E400080768032B1F58181813041F485E591E051
:104E500090932E0280932D0288E00895823041F4D1
:104E60008FED91E090932E0280932D0281E00895C2
:104E70008A3021F483818093DF011BC08930C9F41B
:104E800082819381811522E0920731F4848195819A
:104E9000892B89F482E004C08130934061F481E081
:104EA000809354018681978190935301809352019E
:104EB00002C080E008958FEF0895FC0180915201B7
:104EC00090915301892B99F090915401913051F0B8
:104ED000923069F480818093E00110925301109226
:104EE000520103C08B9A0E94FD2281E008958FEF4A
:104EF0000895FC018381813261F08232D1F08230E9
:104F000071F581E197E090932E0280932D028BE35F
:104F100008958281882329F0813009F58CE397E098
:104F200002C083E297E090932E0280932D0289E0E5
:104F3000089584819581009751F0019781F48CE464
:104F400097E090932E0280932D0284E8089580EDDF
:104F500097E090932E0280932D0280E4089580E0E4
:104F600008951F93CF93DF93162FEA01288124FF22
:104F700005C0398128E82327298302C02AE5288330
:104F8000FC019E012E5F3F4FD901912F81918D939E
:104F90009150E1F7612FC9010E9487041C5F1883BB
:104FA000DF91CF911F9108954DE152E00C94B1270C
:104FB00049E452E00C94B127CF93DF9360912F0224
:104FC000635067FDB1C080912B02CCE0D0E0C81BDC
:104FD000D109CD5CDD4F80912A028D3209F092C05B
:104FE000683009F09FC083EC809312028AE58093B9
:104FF00070001092E1018881807621F0CE010E943C
:105000001E276DC09A8110921B028981811106C0F2
:1050100010921C022BE132E082E05CC0853019F472
:105020009093300254C08630D1F58B81813041F4A9
:1050300080E198E090932E0280932D0282E12BC0B4
:10504000823021F18330F1F4911108C084E598E0B9
:1050500090932E0280932D0284E01DC0913041F484
:105060008EE398E090932E0280932D0286E113C088
:10507000923081F482E298E090932E0280932D0288
:105080008CE109C0813211F0823221F4CE010E94FC
:10509000792701C080E090E49093E10120C088303E
:1050A00079F0893019F49093320211C08A3059F0A6
:1050B0008B3069F48BE480931E0280934A0207C010
:1050C00022E332E002C02BE132E081E003C02BE1B9
:1050D00032E080E030932E0220932D0209C08F3FF2
:1050E00039F4988197FD8E8190E89093E10107C093
:1050F0009F81911104C09E81981708F4892F809395
:105100006F0010C08091E10187FF0CC0CE010E94AA
:105110005D278F3F21F48EE18093700003C08111E1
:1051200010926F0010922F028091700084FF46C091
:1051300080916F008F3F09F441C0C82F893008F07B
:10514000C8E08C1B80936F009091120288E8892739
:1051500080931202CC2329F180912D0290912E028E
:105160002091E10126FF0AC0A3E1B2E0FC012C2F4F
:1051700034913D9331962150D9F708C0DC01E3E129
:10518000F2E02C2F3D9131932150E1F72FEF2C0FBE
:1051900030E02F5F3F4F820F931F90932E0280933A
:1051A0002D026C2F83E192E00E948704CC5FCC300B
:1051B00019F08FEF80936F00C093700084E190B37B
:1051C0009C7031F48150D9F710923002109229026C
:1051D000DF91CF91089585B7886085BF8BB78068D0
:1051E0008BBFADE1B2E08BE411968C931197E9E4AB
:1051F000F2E081838AE58C93808308955058BB2721
:10520000AA270E9416290C94C82A0E94BA2A38F0AC
:105210000E94C12A20F039F49F3F19F426F40C941F
:10522000902A0EF4E095E7FB0C948A2AE92F0E945D
:10523000D92A58F3BA17620773078407950720F035
:1052400079F4A6F50C94FB2A0EF4E0950B2EBA2FF8
:10525000A02D0B01B90190010C01CA01A00111247C
:10526000FF27591B99F0593F50F4503E68F11A1628
:10527000F040A22F232F342F4427585FF3CF4695B9
:1052800037952795A795F0405395C9F77EF41F16DB
:10529000BA0B620B730B840BBAF09150A1F0FF0FA5
:1052A000BB1F661F771F881FC2F70EC0BA0F621F91
:1052B000731F841F48F4879577956795B795F79581
:1052C0009E3F08F0B0CF9395880F08F09927EE0F16
:1052D0009795879508950E947F290C94C82A0E946B
:1052E000C12A58F00E94BA2A40F029F45F3F29F001
:1052F0000C948A2A51110C94FC2A0C94902A0E9436
:10530000D92A68F39923B1F3552391F3951B550BD3
:10531000BB27AA2762177307840738F09F5F5F4F88
:10532000220F331F441FAA1FA9F335D00E2E3AF0C7
:10533000E0E832D091505040E695001CCAF72BD0DF
:10534000FE2F29D0660F771F881FBB1F2617370730
:105350004807AB07B0E809F0BB0B802DBF01FF2762
:1053600093585F4F3AF09E3F510578F00C948A2A8B
:105370000C94FC2A5F3FE4F3983ED4F3869577952E
:105380006795B795F7959F5FC9F7880F911D96951B
:10539000879597F90895E1E0660F771F881FBB1F77
:1053A000621773078407BA0720F0621B730B840B24
:1053B000BA0BEE1F88F7E095089529F416F00C94C7
:1053C0008A2A0C94FB2A0C94902A0E94E12AA8F3C2
:1053D0009638A0F707F80F92E8942BE33AEA48EBE7
:1053E0005FE70E948E2B0F920F920F924DB75EB720
:1053F0000F920E94442BE0EEF0E00E94932A4F911E
:105400005F91EF91FF91E595EE1FFF1F49F0FE5769
:10541000E0684427EE0F441FFA95E1F74195550BDC
:105420000E940E2B0F9007FE0C94022B08950E94F1
:105430001E2A6894B1110C94FC2A08950E94E12A56
:1054400088F09F5798F0B92F9927B751B0F0E1F045
:10545000660F771F881F991F1AF0BA95C9F714C0F5
:10546000B13091F00E94FB2AB1E008950C94FB2A20
:10547000672F782F8827B85F39F0B93FCCF386952E
:1054800077956795B395D9F73EF49095809570958B
:1054900061957F4F8F4F9F4F0895E89409C097FB08
:1054A0003EF490958095709561957F4F8F4F9F4FFB
:1054B0009923A9F0F92F96E9BB279395F69587953F
:1054C00077956795B795F111F8CFFAF4BB0F11F402
:1054D00060FF1BC06F5F7F4F8F4F9F4F16C08823A9
:1054E00011F096E911C0772321F09EE8872F762FDF
:1054F00005C0662371F096E8862F70E060E02AF020
:105500009A95660F771F881FDAF7880F969587950B
:1055100097F9089597F99F6780E870E060E0089533
:105520009FEF80EC0895DF93CF931F930F93FF922B
:10553000EF92DF927B018C01689406C0DA2EEF01B6
:105540000E948B2BFE01E894A59125913591459100
:105550005591A6F3EF010E941629FE019701A801BB
:10556000DA9469F7DF90EF90FF900F911F91CF9140
:10557000DF91089500240A941616170618060906E6
:10558000089500240A9412161306140605060895B9
:10559000092E0394000C11F4882352F0BB0F40F441
:1055A000BF2B11F460FF04C06F5F7F4F8F4F9F4F81
:1055B000089557FD9058440F551F59F05F3F71F003
:1055C0004795880F97FB991F61F09F3F79F087956A
:1055D0000895121613061406551FF2CF4695F1DFF3
:1055E00008C0161617061806991FF1CF8695710583
:1055F000610508940895E894BB2766277727CB01B7
:1056000097F908959B01AC0160E070E080E89FE3AA
:105610000C946B290C948A2A0C94ED2B0E94E12A9D
:10562000D8F39923C9F3940F511DA3F3915050401F
:1056300094F059F0882332F0660F771F881F91503D
:105640005040C1F79E3F51052CF7880F911D96954C
:10565000879597F908955F3FACF0983E9CF0BB2783
:10566000869577956795B79508F4B1609395C1F7DE
:10567000BB0F58F711F460FFE8CF6F5F7F4F8F4F7C
:105680009F4FE3CF0C94FC2AFA01DC01AA0FBB1F49
:105690009B01AC01BF5728F42227332744275078B9
:1056A00020C0B75190F4AB2F00244695379527952D
:1056B000011CA395D2F3002071F0220F331F441F69
:1056C000B395DAF30ED00C94FE2861307105A0E892
:1056D0008A07B94630F49B01AC01662777278827F3
:1056E0009078309621F0208331834283538308954C
:1056F0000E948B2B0C94C82A0E94BA2A38F00E9470
:10570000C12A20F0952311F00C948A2A0C94902A37
:1057100011240C94FC2A0E94D92A70F3959FC1F39E
:10572000950F50E0551F629FF001729FBB27F00D4F
:10573000B11D639FAA27F00DB11DAA1F649F6627A4
:10574000B00DA11D661F829F2227B00DA11D621FF3
:10575000739FB00DA11D621F839FA00D611D221FAD
:10576000749F3327A00D611D231F849F600D211D91
:10577000822F762F6A2F11249F5750409AF0F1F014
:1057800088234AF0EE0FFF1FBB1F661F771F881F7D
:1057900091505040A9F79E3F510580F00C948A2A01
:1057A0000C94FC2A5F3FE4F3983ED4F386957795FA
:1057B0006795B795F795E7959F5FC1F7FE2B880F23
:1057C000911D9695879597F908959F930E94FD2BBB
:1057D0000F9007FCEE5F0C94262C9F3F31F0915008
:1057E00020F4879577956795B795880F911D9695C5
:1057F000879597F908950C94902A0E94E12AD8F38E
:10580000E894E0E0BB279F57F0F02AED3FE049EC39
:1058100006C0EE0FBB0F661F771F881F28F0B23A35
:1058200062077307840728F0B25A620B730B840B6C
:10583000E3959A9572F7803830F49A95BB0F661FFE
:10584000771F881FD2F790480C94EF2BEF93E0FF5F
:1058500007C0A2EA2AED3FE049EC5FEB0E9416295F
:105860000E94C82A0F90039401FC9058E8E0F1E0F0
:105870000C943A2C9F938F937F936F93FF93EF93A6
:105880009B01AC010E94782BEF91FF910E94932A1B
:105890002F913F914F915F910C94782BAA1BBB1BCA
:1058A00051E107C0AA1FBB1FA617B70710F0A61B20
:1058B000B70B881F991F5A95A9F780959095BC0141
:1058C000CD01089597FB072E16F4009407D077FDBD
:1058D00009D00E944E2C07FC05D03EF4909581958E
:1058E0009F4F0895709561957F4F0895EE0FFF1FAC
:1058F0000590F491E02D09940F93083090F0982FC3
:10590000872F762F652F542F432F322F22270850B1
:10591000F4CF220F331F441F551F661F771F881FA8
:10592000991F0A95B2F70F9108952A153B054C056A
:105930005D056E057F05800791070895E199FECF0B
:105940009FBB8EBBE09A99278DB30895A6E1B0E086
:1059500044E050E00C94E42CA8E1B0E042E050E0D8
:105960000C94E42C262FE199FECF9FBB8EBBE09ACE
:1059700001970DB2021631F02DBB0FB6F894E29AE2
:10598000E19A0FBE08950396272F0E94B32C0E9420
:10599000B22C252F0E94B32C242F0C94B32C0196EB
:1059A000272F0E94B32C0C94B22C262FE199FECF06
:1059B0009FBB8EBB2DBB0FB6F894E29AE19A0FBE47
:1059C00001960895DC01CB01FC01E199FECF06C0F0
:1059D000FFBBEEBBE09A31960DB20D9241505040A4
:0859E000B8F70895F894FFCF19
:1059E80005010241016126FC26AC2688266426FFB3
:0259F8005A0053
:00000001FF
