:100000000C94CA070C940E080C94D7080C940E0894
:100010000C940E080C940E080C940E080C940E0808
:100020000C940E080C940E080C944E280C940E0898
:100030000C940E080C940E080C940E080C940E08E8
:100040000C940E080C940E080C940E080C940E08D8
:100050000C940E088B0C8D0C8F0C9A0C910C930C3D
:10006000950C970C990C9C0C9E0CA00CAB0CA20C44
:10007000A40CA60CA80CAA0CAD0C691F691F9B1F31
:100080009B1FD91F1B211B211B21F71F1B219A20FE
:100090009A200B211B211B211421A720A720A72078
:1000A000A720A720A720A720A720A720A720A72018
:1000B000A720A720A720A720A720B820C620CD20B2
:1000C000D420DE20A821A821BA21BA21B121BA2149
:1000D000BA21BA21A821A821B621BA21BA21B62174
:1000E00007634236B79BD8A71A39685618AEBAAB21
:1000F000558C1D3CB7CC5763BD6DEDFD753EF617B5
:100100007231BF000000803F05A84CCDB2D44EB97B
:100110003836A9020C50B9918688083CA6AAAA2AAA
:10012000BE000000803F03E200015E00015D0001AF
:10013000590002E2003100130012000C00150017F4
:10014000001C00180008001A0014002B000000001A
:10015000000000340033000F000E0009000A000BFD
:10016000000D0007001600040029420000000000F6
:10017000002A002700260025002100220023002459
:100180000020001F001E00350000000000000038A5
:100190007237003600100006001900050011002813
:1001A000001B001D00E1000000000000004C002EBC
:1001B000002D00E4002C002C0001510151E200E36D
:1001C00000E000E00000000000000000000000006F
:1001D000000000000000000000000000000000001F
:1001E000000000000000000000000000000000000F
:1001F00000000000000000000000000000000000FF
:1002000000000000000000000000000000000000EE
:1002100000000000000000000000000000000000DE
:100220000000000000005C46004E0052004B00221F
:100230000023004B0052004E00A6002800000000E2
:1002400000000028004D004F0051004F004D004AB3
:10025000005000510050004A00390000000000002A
:100260000044004300420041003D003E003F00408A
:10027000003C003B003A0045000000000000003850
:1002800002A900AA00AE00C05CC85CC75CC45C2ABE
:10029000004C002A0001000000000000000100A93D
:1002A00000AA00010001000100010001000100019D
:1002B000000100010000000000000000000000003C
:1002C000000000000000000000000000000000002E
:1002D000000000000000000000000000000000001E
:1002E000000000000000000000000000000000000E
:1002F00000000000000000000000000000000000FE
:1003000000000000000000000000000000000000ED
:10031000000000000031004600BC5CBB5C2702010D
:1003200000B95CBA5C26020100A6002800000000AB
:10033000000000280030002F00370230023602375C
:100340000236022F0201000100010000000000003F
:100350000044002E002D004100440045003F0040B5
:100360000043003E003E014500000000000000CBBD
:100370005CC55CC65CC35C3000C85CC75CC45C2FF9
:1003800000010001000100000000000000AE00A913
:1003900000AA00AB00010001000100010001000102
:1003A000000100BE5C000000000000000000000032
:1003B000000000000000000000000000000000003D
:1003C000000000000000000000000000000000002D
:1003D000000000000000000000000000000000001D
:1003E000000000000000000000000000000000000D
:1003F00000000000000000000000000000000000FD
:1004000000000000000100010001000100010001E6
:1004100000010001000100010001000100000000D6
:1004200000000001000100010001000100010001C5
:1004300000010001000100010001000000000000B7
:1004400000010001000100010001000100010001A4
:10045000000100DC5C010001000000000000000160
:100460000001000100010001000100010001000184
:1004700000010001000100000000000000B95CBCA8
:100480005CBB5CBA5C0100010001000100010001DD
:10049000000100010000000000000000000000005A
:1004A000000000000000000000000000000000004C
:1004B000000000000000000000000000000000003C
:1004C000000000000000000000000000000000002C
:1004D000000000000000000000000000000000001C
:1004E000000000000000000000000000000000000C
:1004F000000000000044454255473A20656E6162A5
:100500006C65642E0A0000000000000000002A2B29
:1005100028000000000000000000000000000000B3
:100520000029000000002C1E34202122243426271C
:10053000252E362D3738271E1F202122232425263D
:100540003333362E37381F0405060708090A0B0C0B
:100550000D0E0F101112131415161718191A1B1C53
:100560001D2F3130232D350405060708090A0B0C11
:100570000D0E0F101112131415161718191A1B1C33
:100580001D2F3130354C000000000000000000003D
:10059000000000000000000000000000000000005B
:1005A0000000000000000001010101010100010143
:1005B0000101000000000000000000000000000039
:1005C000010001000101010101010101010101011D
:1005D000010101010101010101010101010101010B
:1005E0000100000001010000000000000000000008
:1005F00000000000000000000000000000000000FB
:1006000000010101010054494D45523320646973D2
:1006100061626C65642E0A0054494D455233206571
:100620006E61626C65642E0A007267626C6967684D
:10063000742073657420687376205B4E4F45455077
:10064000524F4D5D3A2025752C25752C25750A00D5
:100650007267626C6967687420736574206873766A
:10066000205B454550524F4D5D3A2025752C257530
:100670002C25750A007267626C6967687420726164
:10068000696E626F7720736574206873763A2025EF
:10069000752C25752C25642C25750A007267626CF3
:1006A000696768742064697361626C65205B4545A5
:1006B00050524F4D5D3A207267626C696768745F93
:1006C000636F6E6669672E656E61626C65203D20A2
:1006D00025750A007267626C6967687420656E61CF
:1006E000626C65205B454550524F4D5D3A20726704
:1006F000626C696768745F636F6E6669672E656EAA
:1007000061626C65203D2025750A007267626C6924
:1007100067687420746F67676C65205B454550524D
:100720004F4D5D3A207267626C696768745F636FF2
:100730006E6669672E656E61626C65203D20257569
:100740000A007267626C69676874206D6F64652067
:100750005B4E4F454550524F4D5D3A2025750A007E
:100760007267626C69676874206D6F6465205B45B1
:100770004550524F4D5D3A2025750A007267626CF4
:10078000696768745F696E6974207267626C696713
:1007900068745F636F6E6669672E6D6F6465203D78
:1007A00020302E2057726974652064656661756C0F
:1007B000742076616C75657320746F2045455052C6
:1007C0004F4D2E0A007267626C696768745F696ECC
:1007D0006974206565636F6E666967206973206E52
:1007E0006F7420656E61626C65642E0A00726762C8
:1007F0006C696768745F696E697420737461727480
:10080000210A007267626C696768745F696E697457
:100810002063616C6C65642E0A007267626C6967A4
:1008200068745F636F6E6669672E737065656420B8
:100830003D2025640A007267626C696768745F63B3
:100840006F6E6669672E76616C203D2025640A0014
:100850007267626C696768745F636F6E6669672E42
:10086000736174203D2025640A007267626C6967B9
:1008700068745F636F6E6669672E687565203D20DA
:1008800025640A007267686C696768745F636F6EDD
:100890006669672E6D6F6465203D2025640A0072CD
:1008A00067626C696768745F636F6E6669672E65FF
:1008B0006E61626C65203D2025640A007267626C7F
:1008C000696768745F636F6E666967206570726FD1
:1008D0006D0A0000046801F000B40078005A007F3F
:1008E0003F1F643214643214783C1E1E140A050043
:1008F00000000000010101010101010101020202E9
:1009000002020202020203030303030303030404BB
:100910000404040405050505050606060606070782
:100920000707080808080909090A0A0A0A0B0B0B35
:100930000C0C0C0D0D0D0E0E0F0F0F1010111111D0
:10094000121213131414151516161717181819194F
:100950001A1A1B1C1C1D1D1E1F1F202021222223B2
:1009600024252526272728292A2B2B2C2D2E2F2FEF
:1009700030313233343536363738393A3B3C3D3E08
:100980003F4041424344464748494A4B4C4D4F50F3
:10099000515253555657585A5B5C5E5F60626364B0
:1009A0006667696A6C6D6E707173747678797B7C3A
:1009B0007E8081838486888A8B8D8F91929496988D
:1009C0009A9B9D9FA1A3A5A7A9ABADAFB1B3B5B7A6
:1009D000B9BBBDBFC1C4C6C8CACCCFD1D3D6D8DA83
:1009E000DCDFE1E4E6E8EBEDF0F2F5F7FAFCFF0A14
:1009F000002530325820006B6579626F6172645F48
:100A00007265706F72743A20000A00253032580007
:100A10006B6579626F6172645F7365745F6C656446
:100A20003A20003F00433E20004C25640A007469D0
:100A30006D65725F72656164333228293A20253012
:100A4000346C580A00686F73745F6B6579626F610C
:100A500072645F6C65647328293A2025580A000A7D
:100A6000092D20537461747573202D0A0047434388
:100A70003A20352E342E30204156522D4C494243D7
:100A80003A20322E302E30204156525F4152434898
:100A90003A20617672350A004F5054494F4E533A0E
:100AA00020565553422045585452414B45592043F6
:100AB0004F4E534F4C4520434F4D4D414E442034F3
:100AC0003039360A004255494C443A2022302E36FD
:100AD0002E37342D3237332D673038313738352DB6
:100AE000646972747922202831393A34363A3535BE
:100AF000204170722031372032303139290A0056B6
:100B000049443A20307832304130286B7072657039
:100B100075626C696329205049443A203078343238
:100B20003244286A6A353029205645523A204445D5
:100B3000564943455F5645520A00444553433A20BF
:100B40005072656F6E69632D6C696B6520636C6FA5
:100B50006E650A000A092D2056657273696F6E2052
:100B60002D0A000A092D20436F6E736F6C65202DCE
:100B70000A4553432F713A09717569740A000A09CD
:100B80002D204D61676963202D0A443A094465624E
:100B90007567204D65737361676520546F67676C77
:100BA000650A583A094D6174726978204465627526
:100BB00067204D6F646520546F67676C65202D203A
:100BC00053686F77206B65797072657373657320F6
:100BD000696E206D617472697820677269640A4B6E
:100BE0003A094B6579626F6172642044656275678A
:100BF00020546F67676C65202D2053686F77206BDA
:100C000065797072657373207265706F72740A4DC6
:100C10003A094465627567204D6F75736520546F9E
:100C200067676C650A563A0956657273696F6E0A92
:100C3000533A095374617475730A433A09416374F2
:100C4000697661746520436F6E736F6C65204D6FBC
:100C500064650A46312D4631303A09537769746329
:100C60006820746F204C6179657220302D392028FE
:100C7000463130203D204C30290A302D393A095375
:100C8000776974636820746F204C617965722030D5
:100C90002D390A4553433A095377697463682074C0
:100CA0006F204C6179657220302028616C74657208
:100CB0006E617465206B65792031290A475241566F
:100CC000453A0953776974636820746F204C6179E1
:100CD000657220302028616C7465726E61746520C5
:100CE0006B65792032290A50415553453A094A75B6
:100CF0006D7020746F20426F6F746C6F61646572E9
:100D000020285265736574290A003F000A6D6F75CB
:100D100073653A206F66660A000A6D6F7573653AEF
:100D2000206F6E0A000A6B6579626F6172643A2007
:100D30006F66660A000A6B6579626F6172643A20B9
:100D40006F6E0A000A6D61747269783A206F666688
:100D50000A000A6D61747269783A206F6E0A000A9F
:100D600064656275673A206F66660A000A646562A8
:100D700075673A206F6E0A000A0A4A756D70696ECF
:100D80006720746F20626F6F746C6F616465722E80
:100D90002E2E2000433E20006D61696E206C6F6F27
:100DA000700A00696E6974466F72557362436F6EA4
:100DB0006E656374697669747928290A000A0025CA
:100DC000303258005345545F4C45443A20000A00E5
:100DD00056454E444F523A00554E4B4E4F574E3AA1
:100DE000005345545F4C45443A20005345545F52EC
:100DF00045504F52543A2000253032580053455444
:100E00005F49444C453A20004745545F49444C45AE
:100E10003A20004745545F5245504F52543A006BB8
:100E20006275663A2066756C6C0A00290A002530E6
:100E30003258005D28002575002D3E0025750056AE
:100E40002D5553423A206B6275665B0009023B00E8
:100E500002010080FA0904000001030101000921D8
:100E60000101000122400007058103080001090477
:100E7000010001030000000921010100012284009A
:100E80000705830308000105010902A10185010985
:100E900001A1000509190129051500250175019514
:100EA000058102750395018103050109300931159A
:100EB00081257F75089502810609381581257F35C2
:100EC000004500750895018106050C0A3802158158
:100ED000257F750895018106C0C005010980A10123
:100EE0008502150126B700190129B77510950181F2
:100EF00000C0050C0901A10185031501269C0219FA
:100F0000012A9C02751095018100C005010906A106
:100F10000175019508050719E029E71500250181EC
:100F200002950175088103950575010508190129C8
:100F30000591029501750391039506750815002624
:100F4000FF000507190029FF8100C01201100100F0
:100F5000000008A0202D420002010200011C034AEB
:100F6000004A003500300020004B00650079006227
:100F7000006F0061007200640016034B00500052C5
:100F80000065007000750062006C00690063000479
:100F90000309040011241FBECFE5D8E0DEBFCDBF9A
:100FA00004B603FE24C08091550290915602A09190
:100FB0005702B09158028730904BA740B04BB9F41C
:100FC0001092550210925602109257021092580237
:100FD00014BE84B7877F84BF0FB6F894A89581B5F7
:100FE000886181BD11BC0FBEE0E0F8E3099510E017
:100FF000A0E6B0E0E8E8F3E602C005900D92A23763
:10100000B107D9F722E0A2E7B0E001C01D92A535F3
:10101000B207E1F70E94242A0C94C2310C9400001C
:10102000FF93EF93E0917200F0917300309709F015
:101030000995EF91FF910895FC018591803011F0A1
:10104000EFDFFBCF0895FF27E0E230E247FF0CC05F
:10105000419597FF09C0EDE2609570958095909558
:10106000611D711D811D911D27FF02C0219530E377
:1010700050E2AA27660F771F881F991FAA1FA4177F
:1010800010F0A41B63955A95A9F7AA3008F0A95F40
:10109000A05DAF93F395611571058105910541F749
:1010A000ED3211F4EF93F395F21718F43F93F395A3
:1010B000FBCF8F91B5DFFA95E1F70895E991F991AA
:1010C0008591803021F0853219F0AADFF9CF08959B
:1010D00020E0E89455915532C1F3503311F46894EF
:1010E00055915A3348F4505390F3220F022E220F99
:1010F000220F200D250FF4CF0EF42195899199919F
:10110000533619F3533729F1533559F1BC01882768
:101110009927E8945C3621F48991999168945591C6
:10112000543639F446EF7EF077FF0DC08FEF9FEF16
:101130000AC055374AE039F0583540E121F05236BF
:1011400042E009F00895FF93EF937DDFEF91FF9167
:10115000B7CFFF93EF93FC0181918030B9F360DF4B
:10116000FBCFFF93EF9368DFF1CFDF93CF93CDB742
:10117000DEB72596A3DFCF91DF910895A82FB92F71
:1011800080E090E041E050EA609530E009C02D91A8
:1011900082279795879510F084279527305EC8F3AE
:1011A0006F5FA8F30895EADF8D939D930895CF9321
:1011B000CFB7CF93C395839BE9F7839B0EC0839BE7
:1011C0000CC0839B0AC0839B08C0839B06C0C09150
:1011D0002C02C395C0932C02A3C0DF93C0912B02B5
:1011E000DD27CD5CDD4F839B02C0DF91E6CF2F93DF
:1011F0000F931F9300B32FEF03FB20F94F933F93FF
:1012000010B34FEF012703FB21F93BE031C04E7FC4
:10121000012F10B3216028C0102F4D7F22600000E5
:1012200000B329C04B7F2460012F000010B32BC0F6
:1012300010B3477F28602AC04F7E00B320612CC0C6
:101240004F7D10B320622FC04F7B00B3206432C0AB
:10125000422700B349934FEF0000102713FB20F9FA
:1012600010B31C70C9F1297F91F2012703FB21F90A
:1012700000B3237F89F2315058F1102713FB22F974
:1012800010B3277E79F2012703FB23F92F7C81F22B
:1012900000B3102713FB24F92F7971F200C010B3AB
:1012A000012703FB25F92F7359F200C000B3102763
:1012B00013FB26F9223040F200C010B3012703FBD4
:1012C00027F9243028F64F77206810B30000F9CFB3
:1012D00010E81ABF002719C03B503195C31BD040FE
:1012E00010E81ABF0881033CF9F00B34E9F02091B3
:1012F00029021981110F1213EDCF4A81441F0936BB
:1013000041F10D3211F0013E29F7009331023F9176
:101310004F911F910F912F91DF91CAB7C7FD4ACF0F
:10132000CF91CFBFCF91189520913102222379F32D
:1013300010912F021123C1F53430C2F130932F02E6
:1013400020932A0210912B023BE0311B30932B0299
:101350002DC000912F0201303CF50AE54F7049F491
:101360003091700034FD24C000937000C2E1D2E0DF
:1013700023C0433049F030911D0234FD19C0009361
:101380001D02CEE1D2E018C03091490234FD10C0F8
:1013900000934902CAE4D2E00FC02795A8F4515047
:1013A000A9F4220F0000F9CF4AE503C042ED01C0C5
:1013B000432FC4E1D0E032E011B31C60939A11BB1B
:1013C00002B320E41CE05F93012756E002BB27959F
:1013D00020F4515021F4220FF9CF012756E00000EC
:1013E0003B5A02BBD0F2279528F4515029F4220F22
:1013F0000000F9CF012756E0279502BB20F4515099
:1014000021F4220FF9CF012756E02991332302BBA3
:1014100021F6037F10913002110FC651D04002BB5C
:1014200011F01093290210E81ABF086011B3137F5E
:10143000402F437F5F9100C000C002BB11BB42BB85
:1014400066CF8FEF87BB88BB1ABA94B39B7B94BBE4
:101450008BBB85B38C6F85BBE4E8F0E0A4E7B0E01C
:10146000119211921D921D9280E0E439F807C1F7A4
:101470000C94DF0B21E030E0A90102C0440F551F9E
:101480008A95E2F7CA0147BB809588BB0895282F4B
:1014900026952575880F8A7A282B822F8695869522
:1014A000837394E0299F900111242C7C822B8295D8
:1014B0000895DF92EF92FF920F931F93CF93DF93E4
:1014C00004E710E07801D0E085E0D82E8D2F0E944F
:1014D0003A0A44E14A95F1F7C9B383B380950E9473
:1014E000470AC0952C2F30E0D901B82BF701208195
:1014F0003181A217B30721F0B183A083D09260009D
:10150000DF5FF2E0EF0EF11CD83001F78091600050
:101510008823C1F0815080936000882339F087EBE5
:101520009BE00197F1F700C000000CC0E4E8F0E098
:10153000D8018D919D918D0181939193B0E00438F4
:101540001B07B1F70E94E10B81E0DF91CF911F9162
:101550000F91FF90EF90DF900895E82FF0E0EE0FED
:10156000FF1FEC57FF4F808191810895089585B347
:10157000836085BB87E080B986B7846086BF86B705
:10158000816086BF86B7806486BF089516BE94EAE0
:1015900096BF06B607FEFDCF91B1987F983011F047
:1015A00081E0089583B984E886BF06B607FEFDCFC3
:1015B00081B1887F883111F0803491F780E00895FF
:1015C00083B984E886BF06B607FEFDCF91B1987F48
:1015D00081E0983209F480E00895DF92EF92FF9263
:1015E0000F931F93CF93DF93D62E072F7A010E947C
:1015F000C60A182F81110CC0CD2DD02FEC0EFD1E68
:10160000CE15DF0539F089910E94E00A8823C1F3E5
:1016100011E002C084E986BF812FDF91CF911F9135
:101620000F91FF90EF90DF90089580FF03C0889A9C
:10163000909A02C08898909881FF03C0899A919AE5
:1016400002C08998919882FF03C08E9A969A089555
:101650008E98969808958091E30180FF09C00E94BA
:10166000B70A44E250E068EE71E080EB0C94ED0ABA
:10167000E8EEF1E0118210821282339682E0EC30C3
:10168000F807C1F7ECCF08950C94430B0C94440B6E
:1016900080919400811110C08091E30180FF0CC003
:1016A0000E94B70A44E250E068EE71E080EB0E94CD
:1016B000ED0A81E0809394000E94CE180C94430BB5
:1016C0009C01FB0182818823C9F02C3D3C45B9F483
:1016D00082E391E00E94DC0B8FE291E00E94DC0B40
:1016E0008CE291E00E94DC0B89E291E00E94DC0B2D
:1016F00086E291E00E94DC0B80E0089581E008958D
:1017000081E008950C94600BCF9390E0FC01EA5FB8
:10171000FA4FC491FC01EA57FA4F8491882359F09B
:1017200081EE0E944C1E8C2F0E944C1E8C2F0E941A
:10173000FA1E81EE04C08C2F0E944C1E8C2FCF917C
:101740000C94FA1E0F931F93CF93DF93EC01062F97
:10175000FE018491882359F19E012F5F3F4F813014
:1017600041F4E901F9011491812F0E944C1E812F4F
:101770000DC0823031F4E901F90184910E944C1EC0
:101780000AC0833031F4E901F90184910E94FA1E04
:1017900002C00E94840B2196802F8823C9F2E7EBB8
:1017A000FBE03197F1F700C000008150F6CFDF91E8
:1017B000CF911F910F91089560E00C94A20B0C94AF
:1017C000460B0C94480B0C94150B0C94E30B0895EA
:1017D0000E9494210E94E70B2FEB87E299E02150B1
:1017E00080409040E1F700C000000C947428EF9214
:1017F000FF920F931F93CF93DF9300D0CDB7DEB747
:101800008C01FC01E080F180C7010E949A26B7019B
:101810000E94920E9A838983B801CE0101960E949C
:101820000E19882371F1B80189819A810E94820B77
:10183000882339F1B80189819A810E94F1108823A7
:1018400001F189819A81883CFCE59F07E1F008F06D
:1018500016C1813C3CE59307E9F038F58531FCE59C
:101860009F0708F0A6C082302CE59207A8F58115E5
:101870003CE5930709F081C0F801828181110E9443
:10188000E80B10E041C2F80182818823D1F30E9465
:101890006014F7CFF8018281882399F30E944C27C6
:1018A0008272B9F00E944215ECCF843C3CE593076C
:1018B00009F4B6C008F0C8C0823CFCE59F0709F0F7
:1018C000B7C0F80182818823E1F20E944C2782721E
:1018D00049F30E943815D5CFF8018281882309F495
:1018E00054C00E94A927811102C00E9488270E942B
:1018F000BC2790E09093110280931002E981FA8155
:10190000E250FC45E331F10588F5E65DFF4F80913B
:1019100010020C944631816027C0826025C084602B
:1019200023C0806121C080621FC080641DC08068A8
:101930001BC08460886018C08E7F16C08D7F14C065
:101940008B7F12C08F7E10C08F7D0EC08F7B0CC02E
:101950008F770AC08B7F877F07C087FB222720F9FC
:1019600091E0922790FB87F98093100280911002FA
:101970000E94C0270E94942184CF81309C4551F061
:1019800081E080939A0080939B00C8010E94800BA5
:10199000182FBAC1F8018281882309F472CF80918F
:1019A0004D01816080934D0185EF94E00E941C08F9
:1019B00068CF8531FCE59F0739F50E944C27982FA9
:1019C000F80182812091630030916400882379F0CE
:1019D0009A7A81E009F480E080939500911102C029
:1019E00069E201C065E3C9010E94F9270AC080913C
:1019F0009500811102C069E201C065E3C9010E943E
:101A0000FB270E9419273DCF803C9C4509F0B8CFA9
:101A1000F8018281882309F434CF0E94F21531CF76
:101A2000F8018281882309F42CCF0E94F11329CF79
:101A3000833C9C4509F0A4CFF8018281882309F4F6
:101A400020CF0E94D9131DCFF8012281863CFCE5EE
:101A50009F0731F4222309F414CF0E942B1411CFD5
:101A6000873C9C4530F4222309F40BCF0E941014CC
:101A700008CF222309F405CF0E94451402CF8F3CE2
:101A8000ECE59E07B1F4F8018281882309F4F9CED0
:101A90000E9455126F3071058105910540F00E943A
:101AA0005512643171058105910508F412CF8FE05C
:101AB0000FC0803DFCE59F0708F06EC08B3C2CE515
:101AC000920749F4F8018281882309F4DACE81E093
:101AD0000E943515D6CE8C3C3CE59307C0F4893C7A
:101AE000ECE59E0741F4F8018281882309F4C9CE10
:101AF0000E946312C6CE8A3C9C4509F041CFF80192
:101B00008281882309F4BDCE0E947812BACEF801F2
:101B100022818D3CFCE59F07A1F4222309F4B1CE7C
:101B20000E945512663071058105910540F00E94B2
:101B30005512683071058105910508F4CACE86E01A
:101B4000C7CF8E3C9C45A0F4222309F49ACE0E9474
:101B50005512623071058105910540F00E945512C1
:101B6000653071058105910508F4B3CE82E0B0CFF0
:101B7000222309F486CE0E94551269307105810531
:101B8000910540F00E9455126E3071058105910556
:101B900008F49FCE89E09CCF833DECE59E0739F4A5
:101BA000F8018281882309F46CCE83E291CF843DD1
:101BB000FCE59F07B0F5F8012281813DFCE59F0718
:101BC00029F4222309F45DCE88E182CF823D9C4531
:101BD000A0F4222309F455CE0E94551265317105F7
:101BE0008105910540F00E9455126731710581050C
:101BF000910508F46ECE85E16BCF222309F441CE26
:101C00000E945512693171058105910540F00E94CD
:101C10005512623271058105910508F45ACE89E1A9
:101C200057CF853DECE59E0739F5F8018281882381
:101C300061F010929B000E940C2890939900809371
:101C4000980080E20E94261F1CCE80919B0081118B
:101C50000FC080919800909199000E942428883CA0
:101C6000910530F487E20E944C1E87E20E94FA1E22
:101C700080E20E942D1F05CE853DFCE59F0728F5DB
:101C8000F8011281112351F010929A000E940C2841
:101C9000909397008093960082E0D4CF80919A0031
:101CA00081110FC080919600909197000E94242886
:101CB000883C910530F486E20E944C1E86E20E9428
:101CC000FA1E82E00E942D1F1FC0863D9C4509F030
:101CD00057CEF80182818111ACCF10919B00111178
:101CE000C7CF80919800909199000E942428883C49
:101CF000910508F0BDCF80E20E942D1F88E20E946E
:101D00004C1E88E20E94FA1E812F0F900F90DF91E7
:101D1000CF911F910F91FF90EF90089580E090E098
:101D20000895089528E7829FC0011124FC012FE047
:101D3000729FE00DF11D1124E60FF11DEE0FFF1F44
:101D4000EB5CFE4F859194910895880F991FFC01DB
:101D5000EA5FF94F859194910895CF93DF930E94A4
:101D6000920E0E945110EC018115904508F041C07F
:101D7000C11580E4D80708F01CC1C83ED10510F594
:101D8000C03ED10508F089C1C83AD10578F4C53AFA
:101D9000D10508F09EC0C130D10509F47EC108F418
:101DA00035C1C430D10508F078C130C1CD3BD10573
:101DB00008F49AC0C03CD10508F428C1CE01805C6B
:101DC0009109E9C0C11590E2D90758F4C11521E085
:101DD000D20708F062C1C03FD10508F417C1D06531
:101DE0005CC1C11580E3D80708F0D9C0CE019F704F
:101DF000D2C0C11595E5D90708F044C0C11524E546
:101E0000D20708F0EDC0C11582E5D80710F5C1155D
:101E100091E5D90708F0D0C0CE0174E0969587957A
:101E20007A95E1F7282F23703C2F337081E090E002
:101E300002C0880F991F3A95E2F79C68922BCF70E9
:101E4000C695C69520E2C29FE0011124C82BD92B6C
:101E500024C19E01237033278C2F86958695C1154A
:101E6000D34508F0AEC0C1E0D0E002C0CC0FDD1F0A
:101E70002A95E2F720E2829FC0011124C82BD92BBA
:101E8000DC680BC1C11529E5D20780F4C11588E5CE
:101E9000D80708F0AAC0C11596E5D90708F0B6C062
:101EA000CF71DD27DC2FCC27D062F7C0CE01C11562
:101EB0002AE5D20708F49EC090568115904208F09A
:101EC000A5C08D2F8F710E94CD10DD27D0628F713C
:101ED0009BC0C53AD10509F49CC0C63AD10509F0AA
:101EE0009BC0C2E8D0E4D9C0C83AD10509F497C074
:101EF000C93AD10509F496C0CA3AD10509F495C08A
:101F0000CB3AD10509F494C0CC3AD10509F493C079
:101F1000CB3BD10509F492C0CC3BD10509F491C06B
:101F2000CD3AD10509F490C0C03BD10509F48FC06A
:101F3000CE3AD10509F48EC0CF3AD10509F48DC04F
:101F4000C13BD10509F48CC0C23BD10509F48BC05B
:101F5000C33BD10509F48AC0C43BD10509F489C04B
:101F6000C53BD10509F488C0C63BD10509F487C03B
:101F7000C73BD10509F486C0C83BD10509F485C02B
:101F8000C93BD10509F484C0CA3BD10509F483C01B
:101F9000C0E0D4E482C00E94A50EEC017EC0CE0158
:101FA0009927D3FF03C0EC01D86C77C0EC01D06C4B
:101FB00074C0DF70D06A71C0DC2FCC27C16FD06ACB
:101FC0006CC0C1E0D0E002C0CC0FDD1F2A95E2F763
:101FD00020E2829FC0011124C82BD92BDA685DC092
:101FE000DC2FCC27C46FD06A58C0DC2FCC27C06F41
:101FF000D06A53C024E0969587952A95E1F78F70B3
:10200000CF70C06ED0E0D06AD82B47C0C0E0D0E01F
:1020100044C0C1E8D0E441C0C3E8D0E43EC0C2EE51
:10202000D4E43BC0C9EED4E438C0CAEED4E435C031
:10203000C5EBD4E432C0C6EBD4E42FC0C3EBD4E488
:102040002CC0C4EBD4E429C0C7EBD4E426C0CCEC4C
:10205000D4E423C0CDECD4E420C0C3E8D5E41DC053
:10206000CAE8D5E41AC0C2E9D5E417C0C4E9D5E48A
:1020700014C0C1E2D6E411C0C3E2D6E40EC0C4E28B
:10208000D6E40BC0C5E2D6E408C0C6E2D6E405C07B
:10209000C7E2D6E402C0CAE2D6E4CE01DF91CF9116
:1020A00008958238910549F1B0F48133910509F41E
:1020B00059C048F48932910509F44FC08A3291051C
:1020C00009F455C008958533910509F441C0893359
:1020D000910599F00895833E910531F138F4803EE1
:1020E000910591F0823E9105A9F00895863E9105F3
:1020F00001F1873E910539F108952091100220FDEC
:102100003BC021FD39C008958091100280FF34C08A
:1021100089E341C08091100282FF30C0809110029B
:1021200084FD2EC083EE37C08091100282FD26C050
:10213000F5CF8091100283FF25C08091100284FDAD
:102140001FC087EE28C08091100283FD1BC0F5CF11
:102150008091100285FD18C019C08091100285FD84
:1021600015C012C08091100286FD12C013C080916C
:10217000100286FD0FC00CC080EE0DC082EE0BC0B9
:1021800080E009C086EE07C089E205C085E303C090
:102190008AE201C081E390E008959091100292FFDD
:1021A0000DC0282F2871283019F4877F846006C05D
:1021B000282F2471243011F48B7F886093FF0DC089
:1021C000282F2871283119F4877E846106C0282FB2
:1021D0002471243111F48B7E886194FD877E0895EB
:1021E00008950F931F93CF93FB012281211102C009
:1021F000C1E041C08C01C091A900C11125C0863148
:102200009C45B1F70E94F01081E08093A9000E94E4
:102210000C289093A8008093A70010929C00109225
:102220009E0010929D001092A00010929F001092AC
:10223000A2001092A1001092A4001092A30010928C
:10224000A6001092A50017C08091A7009091A80049
:102250000E9424288C32914058F690919C00E92FDE
:10226000F0E0EE0FFF1FE356FF4F118300839F5FE7
:1022700090939C00C0E08C2FCF911F910F910895F7
:10228000EF92FF920F931F93CF93DF93E9016623A1
:1022900009F44BC0242F30E0EFEFF0E0E61BF1092A
:1022A000B901E69F9001E79F300DF69F300D112494
:1022B000232F8B01031B11095CE3E52EF12CB701E1
:1022C0000E941E31FB01BC01069FC001079F900DBB
:1022D000169F900D1124B7010E941E31E230F105C6
:1022E000B1F040F4309779F0319711F5832F242F16
:1022F000461B21C0E430F105A1F068F03597C1F428
:10230000842F861B18C0832F262F230F14C0862FDF
:10231000830FE42F03C0E42FE61B842F432F2E2FBF
:102320000AC0842F462F430F06C0842F242F03C0DA
:1023300080E020E040E0E42FF0E0E151F74F4491ED
:10234000E22FF0E0E151F74F9491E82FF0E0E151F6
:10235000F74FE49149839883EA83DF91CF911F91EE
:102360000F91FF90EF90089588E090E00C94763103
:10237000AB01BC0188E090E00C949331E3EEF1E016
:1023800083E080831092E4018FEF82838383148241
:1023900060817181828193810C94B81180914D018B
:1023A00080FF08C08CEB98E09F938F930E94B50844
:1023B0000F900F9080914D0180FF0FC08091E3013D
:1023C00081701F928F938FE998E09F938F930E9463
:1023D000B5080F900F900F900F9080914D0180FFE6
:1023E00010C08091E30186958F731F928F9384E8CC
:1023F00098E09F938F930E94B5080F900F900F90D5
:102400000F9080914D0180FF19C08091E301881FDA
:102410008827881F9091E401292F220F822B97FB98
:10242000992790F99F938F938AE698E09F938F93D3
:102430000E94B5080F900F900F900F9080914D0162
:1024400080FF0EC08091E5011F928F9380E598E098
:102450009F938F930E94B5080F900F900F900F904D
:1024600080914D0180FF0EC08091E6011F928F93F5
:1024700086E398E09F938F930E94B5080F900F908A
:102480000F900F9080914D0180FF0EC08091E70169
:102490001F928F938AE198E09F938F930E94B508D3
:1024A0000F900F900F900F9008956091E30160FFDF
:1024B00006C066956F7370E080E090E0089560E07C
:1024C00070E0CB0108958091E70190E0019684309F
:1024D000910514F083E090E08093E7016091E301BF
:1024E0007091E4018091E5019091E6010C94B8119E
:1024F0008091E70190E0019797FF02C080E090E0B3
:102500008430910514F083E090E08093E7016091BE
:10251000E3017091E4018091E5019091E6010C9452
:10252000B8119091E30190FF0CC0E8EEF1E08183D7
:1025300060834283339692E0EC30F907C1F70C9444
:102540002B0B0895CF93DF9300D01F92CDB7DEB74A
:102550002091E30120FF0AC09E012F5F3F4F0E94A0
:1025600040114B8169818A810E9491120F900F90D6
:102570000F90DF91CF9108952F923F924F925F92EB
:102580006F927F928F929F92AF92BF92CF92DF9283
:10259000EF92FF920F931F93CF93DF93CDB7DEB7E8
:1025A00027970FB6F894DEBF0FBECDBF8C01462E25
:1025B000542E2F838091E30180FFDFC0982F9E77F8
:1025C000923061F49E012F5F3F4FC8010E9440117D
:1025D0004B8169818A810E94911282C0E82FE69521
:1025E000EF739EE39E0F9F73943018F45090E601B2
:1025F00077C09AE39E0F9F73993068F4881F8827ED
:10260000881F9091E401292F220F022F082B97FB9E
:10261000112710F965C087E28E0F8F738A3008F09A
:102620005FC0F0E07997E0FD03C021E02C8302C099
:102630008FEF8C83EE7FEB52F74F85909490C4011F
:102640006CE070E00E941E319C81692E990F770822
:10265000669DC001679D900D769D900D11249E830F
:102660008D83580198E9A91A9EEFB90A88EEC82E01
:1026700081E0D82EE12CF12CC50168E671E00E94C2
:102680001E311C0180914D0180FF14C09F928F92DA
:102690007F922C812F933F922F92FF92EF9285E7AA
:1026A00096E09F938F930E94B5080FB6F894DEBF13
:1026B0000FBECDBF9601452D642DC1010E94401172
:1026C0009FEFE91AF90A8D819E81A80EB91E93E049
:1026D000C90ED11C2CE0E216F10471F60E942B0BFE
:1026E0008091E30100FB87F98093E3018091E4018D
:1026F0008078902F9695892B10FB87F98093E401C1
:102700004092E5015092E6018F81882321F160918A
:10271000E3017091E4018091E5019091E6010E944E
:10272000B8118091E6011F928F938091E5011F926D
:102730008F938091E301881F8827881F9091E4017F
:10274000292F220F822B97FB992790F99F938F9324
:1027500080E596E009C01F925F921F924F92117020
:102760001F930F9389E296E09F938F930E94B50881
:102770000FB6F894DEBF0FBECDBF27960FB6F89404
:10278000DEBF0FBECDBFDF91CF911F910F91FF90A4
:10279000EF90DF90CF90BF90AF909F908F907F9001
:1027A0006F905F904F903F902F90089521E00C9490
:1027B000BC12E3EEF1E02081221F2227221F30917C
:1027C000E401432F440F842F822B37FB992790F984
:1027D0000C9668E671E00E943231438162810C946C
:1027E000D6132091E301221F2227221F3091E401FA
:1027F000432F440F842F822B37FB992790F98C307D
:1028000091051CF4845A9E4F05C00C9768E671E050
:102810000E9432314091E6016091E5010C94D6139B
:102820006091E501862F90E0813F910514F4615F8E
:1028300001C06FEF8091E301881F8827881F909166
:10284000E401292F220F97FB992790F94091E60187
:10285000822B0C94D6136091E501862F90E00F97A0
:1028600014F06F5001C060E08091E301881F882759
:10287000881F9091E401292F220F97FB992790F947
:102880004091E601822B0C94D6134091E601842FEF
:1028900090E08E3E910514F44E5E01C04FEF8091A2
:1028A000E301881F8827881F9091E401292F220FB8
:1028B00097FB992790F96091E501822B0C94D61330
:1028C0004091E601842F90E0429714F0425101C0FC
:1028D00040E08091E301881F8827881F9091E401E0
:1028E000292F220F97FB992790F96091E501822B00
:1028F0000C94D61320E00C94BC129091E30190FF4D
:1029000010C02C3070F430E0F901EE0FFF1F2E0FD5
:102910003F1FF901E851FE4F8183608342830C948D
:102920002B0B08951F93CF93DF9300D01F92CDB749
:10293000DEB73091E30130FF0CC0122F9E012F5FF4
:102940003F4F0E944011212F4B8169818A810E9453
:102950007D140F900F900F90DF91CF911F910895EC
:1029600081E08093C70080914D0180FF08C088E11D
:1029700096E09F938F930E94B5080F900F90089553
:102980001092C70080914D0180FF08C086E096E05C
:102990009F938F930E94B5080F900F900895909188
:1029A000E30190FF61C09178811102C0926007C07D
:1029B000853210F0986403C08F73880F982B909322
:1029C000E301662399F06091E3017091E401809145
:1029D000E5019091E6010E94B8118091E30186958E
:1029E0008F731F928F9380E697E008C08091E30178
:1029F00086958F731F928F9382E497E09F938F93B6
:102A00000E94B5080F900F900F900F908091E301F6
:102A1000982F9E77923019F40E94C01412C08695A8
:102A20008F732EE3280F2F73273120F0963411F087
:102A3000983419F40E94B01404C0895D8F738A30F1
:102A400058F38091E301881F8827881F9091E40143
:102A5000292F220F97FB992790F94091E601609169
:102A6000E501822B0C947A14089561E00C94CF1444
:102A70008091E30186958F738F5F853208F081E046
:102A80000C9435158091E30186958F73815009F47C
:102A900084E20C943515CF93DF93C3EED1E08881A7
:102AA000816088831F9281E08F9384ED96E09F93ED
:102AB0008F930E94B5080F900F900F900F90888110
:102AC00086958F73DF91CF910C94351560E00C944F
:102AD000CF1480914D01816080934D0183E098E097
:102AE0009F938F930E94B50880914D010F900F9096
:102AF00080FF08C08DEE97E09F938F930E94B508EA
:102B00000F900F900E94A927811110C080914D0154
:102B100080FF08C085EC97E09F938F930E94B508D3
:102B20000F900F900E9488270E94BE110E94B4113E
:102B30006093E3017093E4018093E5019093E601D3
:102B40006E77C1F480914D0180FF08C08CE797E05B
:102B50009F938F930E94B5080F900F900E94BE1113
:102B60000E94B4116093E3017093E4018093E50146
:102B70009093E6010E94CE1181E08093C70080917E
:102B8000E30180FF04C086958F730C946615089549
:102B9000CF93DF93C3EED1E088818E7F88836881F5
:102BA00079818A819B810E94B811888181701F92EE
:102BB0008F938CE996E09F938F930E94B5080E94B3
:102BC000C0142FEB84ED91E0215080409040E1F75C
:102BD00000C000000F900F900F900F90DF91CF91E9
:102BE0000C942B0B8091E301809581701F928F9341
:102BF0008BE097E09F938F930E94B5088091E3014B
:102C00000F900F900F900F9080FD0C94C8150C94AE
:102C10004B15CF93C82F8091C5009091C6000E949C
:102C20002428EC2FF0E0E551F74FE491F0E08E1707
:102C30009F0708F443C00E940C289093C60080931D
:102C4000C5006091C40070E080E090E00E941F2FFA
:102C500020E030E04FE753E40E94422E2BED3FE0AE
:102C600049E450E40E9448300E94B5300E94BC2ED6
:102C70002BE43AE34EE25FE30E94D52D20EF3BEFD9
:102C800048ED52E40E9448300E94EE2E462F80917B
:102C9000E301881F8827881F9091E401292F220FC4
:102CA00097FB992790F96091E501822B0E94A2126F
:102CB0008091C40090E001968093C400CF91089564
:102CC000CF93C82F8091C2009091C3000E94242806
:102CD000EC2FF0E0E851F74FE491F0E08E179F07FA
:102CE000E8F00E940C289093C3008093C2004091AA
:102CF000E6016091E5018091C0009091C1000E94C1
:102D0000A2128091C0009091C100019668E671E026
:102D10000E941E319093C1008093C000CF9108950E
:102D2000CF92DF92FF920F931F93CF93DF93F82EF2
:102D30008091BE009091BF000E942428EF2DE6955F
:102D4000F0E0EB51F74FE491F0E08E179F07B8F1F8
:102D50000E940C289093BF008093BE0008EE11E003
:102D6000C0E0D0E088E6C82EDD24D3948091BC007A
:102D70009091BD008C0F9D1FB6010E941E319801DD
:102D80004091E6016091E5010E9440116E960D5F51
:102D90001F4FC83681E0D80749F70E942B0B80915E
:102DA000BC009091BD00F0FE05C00196BE010E94DE
:102DB0001E3101C001979093BD008093BC00DF914C
:102DC000CF911F910F91FF90DF90CF900895CF92F8
:102DD000DF92EF92FF920F931F93CF93DF93C82F51
:102DE00080FF02C01FEF01C011E08091BA009091F6
:102DF000BB000E942428C695EC2FF0E0EE51F74F5F
:102E0000E491F0E08E179F0708F45BC00E940C2845
:102E10009093BB008093BA0028EEE22E21E0F22EC0
:102E2000C0E0D0E0F70111821082128294E0C92E36
:102E3000D12C00E08091B900800F87FD845F082EBF
:102E4000000C990BC817D907E9F48091E6018C9D15
:102E5000A0018D9D500D1124559547955595479589
:102E60008091E301881F8827881F9091E401592FE2
:102E7000550F97FB992790F997016091E501852BF4
:102E80000E944011010FF1E0CF1AD10899F6219666
:102E900083E0E80EF11CCC30D10521F60E942B0B0B
:102EA0008091B900113031F4811102C08BE007C06C
:102EB000815005C090E00196BE010E94323180939E
:102EC000B900DF91CF911F910F91FF90EF90DF90AC
:102ED000CF9008950F931F93CF93DF93C82F8091C6
:102EE000B7009091B8000E942428EC2FF0E0E15246
:102EF000F74FE491F0E08E179F0708F456C00E9448
:102F00000C289093B8008093B700C8EED1E0FE0182
:102F1000118210821282339682E0EC30F807C1F7FA
:102F200000E010E08091B600082E000C990B081705
:102F30001907ECF080916200082E000C990B8017A5
:102F40009107ACF08091E301881F8827881F90913A
:102F5000E401592F550F97FB992790F99E01409155
:102F6000E6016091E501852B0E94401103C01982A2
:102F700018821A820F5F1F4F23960C30110591F6AD
:102F80000E942B0B809161009091B600980F909356
:102F9000B60020916200280F20936200121614F4EC
:102FA0009B301CF0819580936100DF91CF911F9140
:102FB0000F910895EF92FF920F931F93CF93DF939A
:102FC0008091B4009091B5000E942428883E9340DF
:102FD000D0F10E940C289093B5008093B400C0916A
:102FE000B200D091B3002196C170DD27D093B30019
:102FF000C093B20088EEE82E81E0F82E10E008E7DA
:10300000812F8695FE01E80FF11DCF018170992770
:1030100097014091E6016091E501FC010E9FC0011E
:103020000F9F900D11240E9440111F5FF3E0EF0EDF
:10303000F11C1C3029F7DF91CF911F910F91FF9068
:10304000EF900C942B0BDF91CF911F910F91FF907C
:10305000EF900895CF93DF9300D01F92CDB7DEB7E6
:103060008091B0009091B1000E942428E3EDF8E037
:103070002591349182179307C0F18091AF0081119F
:103080000CC09E012F5F3F4F4FEF6FEF80E090E04D
:103090000E9440118A818093AF000E940C28909377
:1030A000B1008093B0008091AE00813051F028F0E3
:1030B000823061F44091AF000AC08091AF0040E0DF
:1030C00007C06091AF0040E080E003C040E080E0D6
:1030D00060E00E9491128091AE0090E0019663E062
:1030E00070E00E9432318093AE000F900F900F90ED
:1030F000DF91CF910895CF93DF938091AC009091B1
:10310000AD000E942428843F914008F444C00E94EE
:103110000C289093AD008093AC00C0E0D0E02091EB
:10312000AA003091AB008091E3019091E401C63098
:10313000D1051CF4232B79F002C0232B61F4881FE6
:103140008827881F392F330F97FB992790F92C2F49
:103150004091E6010AC0881F8827881F392F330F46
:1031600097FB992790F92C2F40E06091E501832B84
:103170000E9492142196CC30D10589F60E942B0B27
:103180008091AA009091AB0001968170992790934D
:10319000AB008093AA00DF91CF9108958091C70082
:1031A0008823D9F19091E301892F86958F732EE3BF
:1031B000280F2F73243018F482500C9409162AE338
:1031C000280F2F73233018F486500C94601627E3D1
:1031D000280F2F73263018F489500C94901621E391
:1031E000280F2F73263018F48F500C94E7162BE21B
:1031F000280F2F73233018F485510C946A17892FE8
:103200008E77803311F40C94DA17863411F40C9411
:103210002A18883411F40C947B1808958F929F9289
:10322000AF92BF92CF92DF92EF92FF920F931F93D4
:10323000CF93DF937C01DC01ED91FC91CF018150B4
:1032400095458F3F910510F4B5E5FB27DB011296FC
:10325000CC91CC2309F4B4C2EF3FF10579F070F0C2
:10326000EB3DFC4519F01092C80060C39091C80076
:1032700081E089278093C800A0E059C3A091C800CD
:10328000AA2309F4EBC01092C800E03CF10540F419
:10329000E038F10508F073C0E034F105D0F505C061
:1032A000EF3FF10509F008F4A0C021E030E040E074
:1032B00050E060E070E080E090E00E2F0E944C3122
:1032C000B091C9002B2BB091CA003B2BB091CB0021
:1032D0004B2BB091CC005B2BB091CD006B2BB09100
:1032E000CE007B2BB091CF008B2BB091D0009B2BCD
:1032F0002093C9003093CA004093CB005093CC0078
:103300006093CD007093CE008093CF009093D00057
:10331000A1C021E030E040E050E060E070E080E0FB
:1033200090E08F01005411090E944C31B091D100FE
:103330002B2BB091D2003B2BB091D3004B2BB091F3
:10334000D4005B2BB091D5006B2BB091D6007B2BBA
:10335000B091D7008B2BB091D8009B2B2093D1003C
:103360003093D2004093D3005093D4006093D500A3
:103370007093D6008093D7009093D8006BC021E063
:1033800030E040E050E060E070E080E090E08F01ED
:10339000005811090E944C31B091D9002B2BB091EB
:1033A000DA003B2BB091DB004B2BB091DC005B2BA8
:1033B000B091DD006B2BB091DE007B2BB091DF0074
:1033C0008B2BB091E0009B2B2093D9003093DA0037
:1033D0004093DB005093DC006093DD007093DE00CF
:1033E0008093DF009093E00035C021E030E040E0C2
:1033F00050E060E070E080E090E08F01005C110937
:103400000E944C31B091E1002B2BB091E2003B2B9C
:10341000B091E3004B2BB091E4005B2BB091E50041
:103420006B2BB091E6007B2BB091E7008B2BB0911A
:10343000E8009B2B2093E1003093E2004093E300EF
:103440005093E4006093E5007093E6008093E700FA
:103450009093E800E701F983E88369C2E034F1055D
:10346000D0F4A090C900B090CA00C090CB00D0901A
:10347000CC00E090CD00F090CE00B091CF00109144
:10348000D00021E030E040E050E060E070E080E01B
:1034900090E00E2F5DC0E038F105E8F4A090D10077
:1034A000B090D200C090D300D090D400E090D5006E
:1034B000F090D600B091D7001091D80021E030E014
:1034C00040E050E060E070E080E090E04F01D0E448
:1034D0008D1A91083CC0E03CF105E8F4A090D900B9
:1034E000B090DA00C090DB00D090DC00E090DD000E
:1034F000F090DE00B091DF001091E00021E030E0BC
:1035000040E050E060E070E080E090E04F01D0E803
:103510008D1A91081CC0A090E100B090E200C0900C
:10352000E300D090E400E090E500F090E600B09178
:10353000E7001091E80021E030E040E050E060E07A
:1035400070E080E090E04F01D0EC8D1A9108082DDA
:103550000E944C31A222B322C422D522E622F722B5
:10356000B823192321E030E040E050E060E070E053
:1035700080E090E0E034F105A0F04F01E038F10583
:1035800020F4D0E48D1A91080AC0E03CF10520F443
:10359000D0E88D1A910803C0D0EC8D1A9108082D3F
:1035A00001C00E2F0E944C310B2F0E94653109F093
:1035B000BDC1E03CF10548F4E038F10508F084C0F5
:1035C000E034F10508F042C005C0EF3FF10509F015
:1035D00008F4B8C021E030E040E050E060E070E086
:1035E00080E090E00E2F0E944C3120953095409560
:1035F00050956095709580959095E091C9002E2327
:10360000E091CA003E23E091CB004E23E091CC0034
:103610005E23E091CD006E23E091CE007E23E09109
:10362000CF008E23E091D0009E232093C9003093D9
:10363000CA004093CB005093CC006093CD007093B0
:10364000CE008093CF009093D00071C18F010054C1
:10365000110921E030E040E050E060E070E080E0FF
:1036600090E00E944C3120953095409550956095A2
:10367000709580959095E091D1002E23E091D20035
:103680003E23E091D3004E23E091D4005E23E091ED
:10369000D5006E23E091D6007E23E091D7008E23E3
:1036A000E091D8009E232093D1003093D200409324
:1036B000D3005093D4006093D5007093D6008093CC
:1036C000D7009093D80033C18F010058110921E031
:1036D00030E040E050E060E070E080E090E00E9488
:1036E0004C3120953095409550956095709580951A
:1036F0009095E091D9002E23E091DA003E23E091ED
:10370000DB004E23E091DC005E23E091DD006E23C0
:10371000E091DE007E23E091DF008E23E091E00067
:103720009E232093D9003093DA004093DB0050931E
:10373000DC006093DD007093DE008093DF009093E7
:10374000E000F5C08F01005C110921E030E040E0AD
:1037500050E060E070E080E090E00E944C31209505
:103760003095409550956095709580959095E09135
:10377000E1002E23E091E2003E23E091E3004E239E
:10378000E091E4005E23E091E5006E23E091E60025
:103790007E23E091E7008E23E091E8009E232093B2
:1037A000E1003093E2004093E3005093E400609323
:1037B000E5007093E6008093E7009093E800B7C0BF
:1037C000EF3FF10511F008F0AEC0E034F105D0F4A0
:1037D000C090C900D090CA00E090CB00F090CC001F
:1037E0001091CD00C091CE00B091CF00A091D0003B
:1037F00021E030E040E050E060E070E080E090E008
:103800000E2F5DC0E038F105E8F4C090D100D090F3
:10381000D200E090D300F090D4001091D500C09178
:10382000D600B091D700A091D80021E030E040E070
:1038300050E060E070E080E090E05F01D0E4AD1A1D
:10384000B1083CC0E03CF105E8F4C090D900D0904C
:10385000DA00E090DB00F090DC001091DD00C09118
:10386000DE00B091DF00A091E00021E030E040E018
:1038700050E060E070E080E090E05F01D0E8AD1AD9
:10388000B1081CC0C090E100D090E200E090E300DD
:10389000F090E4001091E500C091E600B091E700DF
:1038A000A091E80021E030E040E050E060E070E00E
:1038B00080E090E05F01D0ECAD1AB1080A2D0E94C3
:1038C0004C31A22EAC20B32EBD20C42ECE20D52E3E
:1038D000DF20E62EE122F72EFC22B823192F1A232F
:1038E000E034F10570F0E038F10518F4E054F10926
:1038F00008C0E03CF10518F4E058F10902C0E05CB2
:10390000F10921E030E040E050E060E070E080E06C
:1039100090E00E2F0E944C31A1E00B2F0E946531E8
:1039200019F4A0E001C0A1E0A17001C0AC2F8A2F62
:10393000DF91CF911F910F91FF90EF90DF90CF908B
:10394000BF90AF909F908F9008959093EE008093DA
:10395000ED000895E091ED00F091EE00309721F038
:103960000190F081E02D099480E00895EF92FF929C
:103970000F931F93CF93DF93E091ED00F091EE0052
:103980003097B1F18C010280F381E02D099580918F
:103990004D0182FF2DC080FF04C087EF99E00E9497
:1039A0001C08E80118E081EFE82E89E0F82E8091EC
:1039B0004D0180FF0BC088811F928F93FF92EF9281
:1039C0000E94B5080F900F900F900F901150219604
:1039D0001111EDCF80914D0180FF0AC08FEE99E06B
:1039E000DF91CF911F910F91FF90EF900C941C08E5
:1039F000DF91CF911F910F91FF90EF90089520914B
:103A0000EB003091EC002817390771F09093EC002F
:103A10008093EB00E091ED00F091EE00309721F003
:103A20000680F781E02D099408952091E9003091F6
:103A3000EA002817390771F09093EA008093E900B3
:103A4000E091ED00F091EE00309721F00084F185D7
:103A5000E02D0994089581E008950E9405280E94B0
:103A6000210A0E948D280C946915CF93C82F80914C
:103A70004D0182FF1EC080FF04C080E19AE00E94D9
:103A80001C0880914D0180FF0CC01F92CF938BE0EA
:103A90009AE09F938F930E94B5080F900F900F901C
:103AA0000F9080914D0180FF04C089E09AE00E9450
:103AB0001C088C2FCF910C94E50B5F926F927F9234
:103AC0008F929F92AF92BF92CF92DF92EF92FF922E
:103AD0000F931F93CF93DF93CDB7DEB72A970FB61F
:103AE000F894DEBF0FBECDBF0E94590A0E942B1D65
:103AF000811111C08FEF89838A831B820E940C2859
:103B00008160782F9D838C8349815A816B818D815F
:103B10000E94181E56C090EF692E90E0792E00E0AA
:103B200010E088248394912C502E802F0E94AD0A9F
:103B30006C01F301A190B1903F01A826B926A11410
:103B4000B10431F40F5F1F4F0830110569F7D2CF70
:103B500080914D0181FD0E94B60A80E090E07401E1
:103B6000082E02C0EE0CFF1C0A94E2F795012E21EC
:103B70003F21232B09F18E835F82CE20DF2081E05D
:103B8000CD2809F480E088870E940C288160782F76
:103B90009A8789874E815F8168858A850E94181E71
:103BA000000F111FF801E051FF4F80819181E8263D
:103BB000F926F182E08205C001968F30910579F6F1
:103BC000C1CF0E94AA1C9091EF008917D9F00E94E2
:103BD000AA1C8093EF002A960FB6F894DEBF0FBEA2
:103BE000CDBFDF91CF911F910F91FF90EF90DF90AC
:103BF000CF90BF90AF909F908F907F906F905F908D
:103C00000C94351D2A960FB6F894DEBF0FBECDBFBB
:103C1000DF91CF911F910F91FF90EF90DF90CF90A8
:103C2000BF90AF909F908F907F906F905F9008951E
:103C3000CF93DF93CDB7DEB72B970FB6F894DEBFE7
:103C40000FBECDBF4F83588769877A878B87DE0188
:103C5000119686E0FD0111928A95E9F785E0FE0153
:103C6000379601900D928A95E1F749815A816B81CF
:103C70007C818D819E810E9461242B960FB6F894E1
:103C8000DEBF0FBECDBFDF91CF910895FC018081D3
:103C900091810E94D9260895CF93882309F4A8C062
:103CA000C82F8CEF8C0F813A68F48C2F0E94D52995
:103CB00081119EC06C2F80916300909164000E94DE
:103CC000F9270CC080E28C0F883058F4C77081E06F
:103CD00001C0880FCA95EAF70E944F27CF910C9434
:103CE00019278BE58C0F833078F4C53A29F0C63A52
:103CF00031F083E890E005C081E890E002C082E8FE
:103D000090E0CF910C94FF1C88E58C0F853108F072
:103D10006FC0C83A61F1C93A69F1CA3A71F1CB3A58
:103D200079F1CC3A81F1CB3B89F1CC3B91F1CD3AA1
:103D300099F1C03BA1F1CE3AA9F1CF3AB1F1C13B23
:103D4000B9F1C23BC1F1C33BC9F1C43BD1F1C53BA1
:103D5000D9F1C63BE1F1C73BE9F1C83BF1F1C93B01
:103D6000F9F1CA3B09F43FC080E090E03EC082EE2A
:103D700090E03BC089EE90E038C08AEE90E035C01C
:103D800085EB90E032C086EB90E02FC083EB90E0B3
:103D90002CC084EB90E029C087EB90E026C08CEC2F
:103DA00090E023C08DEC90E020C083E891E01DC03E
:103DB0008AE891E01AC082E991E017C084E991E0B5
:103DC00014C081E292E011C083E292E00EC084E26E
:103DD00092E00BC085E292E008C086E292E005C066
:103DE00087E292E002C08AE292E0CF910C94151D26
:103DF000CF910895882349F1682F8CEF860F813A7F
:103E000038F480916300909164000E94FB270CC0FD
:103E100080E2860F883050F4677081E001C0880F1F
:103E20006A95EAF70E9455270C9419278BE5860FAF
:103E3000833020F480E090E00C94FF1C685A6531D8
:103E400020F480E090E00C94151D0895882321F063
:103E50000E944F270C9419270895882321F00E946F
:103E600055270C94192708958F929F92AF92BF9275
:103E7000DF92EF92FF920F931F93CF93DF937C011A
:103E8000D62FC72FFC01058102950F7012811111E9
:103E90000E946C270E941227882379F0112369F071
:103EA00080E28D0F883048F082E00E94FB260E945D
:103EB000122791E0D82ED92601C0D12CBC2EB29465
:103EC0008FE0B8228B2D90E0FC01E35CFF4F0C9457
:103ED00046318C2F807FCF70882311F0C295C07F30
:103EE000112399F0CC2309F481C180E28D0F883031
:103EF00010F0D11104C08C2F0E944F2703C08C2FCB
:103F00000E945F270E94192771C18D2F0E94FA1EFF
:103F1000CC2309F490C180E28D0F883010F0D111CC
:103F200004C08C2F0E94552703C08C2F0E94652748
:103F30000E94192780C18C2F807FCF70803211F0B2
:103F4000C295C07FDD2319F0D130C9F022C0112302
:103F500071F0002341F0013031F40E9485278C2B51
:103F60000E947F2768C10E9485278C2BF8C0002300
:103F700019F0013009F45FC10E94822718C0112393
:103F800021F0063008F057C10EC0053008F053C1CB
:103F90000EC0112351F0002331F0F701858180FF1D
:103FA00025C18F7085838C2FDAC0011130C18C2F11
:103FB000DCC08C2F86958695837019F0813061F076
:103FC0003AC1112321F08D2F9C2F937002C080E005
:103FD00090E00E94FF1C3CC1112321F08D2F9C2FEB
:103FE000937002C080E090E00E94151D31C18C2FBB
:103FF000837009F04CC0111127C12D2F22952695F1
:104000002770220F220F6D2F6F70862F90E0A0E097
:10401000B0E04C015D01022E04C0880C991CAA1C62
:10402000BB1C0A94D2F7D4FF12C08FE090E0A0E04E
:10403000B0E004C0880F991FAA1FBB1F2A95D2F7B2
:10404000BC01CD01609570958095909503C060E0AE
:1040500070E0CB01C695C695C370C23051F080F4B4
:10406000682979298A299B29C13071F00E94B025DD
:10407000EBC0682979298A299B290E94C225E4C0BE
:104080000E94B025C501B4010E949E25DDC0112308
:1040900019F08C2F817001C08695882309F4D4C053
:1040A0002D2F229526952770220F220F6D2F6F70CE
:1040B000862F90E0A0E0B0E04C015D01022E04C02C
:1040C000880C991CAA1CBB1C0A94D2F7D4FF12C0FE
:1040D0008FE090E0A0E0B0E004C0880F991FAA1F15
:1040E000BB1F2A95D2F7BC01CD01609570958095D4
:1040F000909503C060E070E0CB01C695C695C37093
:10410000C23051F080F4682979298A299B29C1306D
:1041100071F00E94752698C0682979298A299B29FF
:104120000E94872691C00E947526C501B4010E9495
:1041300063268AC08D2F90E0FC01E05EF109E53135
:10414000F10508F04FC0E35BFF4F0C944631DF7080
:104150008C2F8F71112331F00E94FC258D2F0E942E
:10416000261F69C00E941D268D2F0E942D1F63C02F
:10417000112341F0053008F05EC08C2F8F710E9432
:10418000422659C0063008F056C0F7CF112339F047
:104190008C2F8F710E94FC254EC01123C9F38C2FE8
:1041A0008F710E941D2647C0112329F08C2F8F711B
:1041B0000E94E72540C00E94E2253DC0112349F03E
:1041C000CF718C2F0E94FC2563E08C2F0E94F22679
:1041D00032C081E00E94FB26023068F182E00E943A
:1041E000FB2629C0112331F0002391F28D2F0E946C
:1041F0004C1E21C0002399F2D93349F4FFEF2DEE74
:1042000082E0F15020408040E1F700C000008D2F97
:104210000E94FA1E10C04C2F4F706D2FC7010E94D4
:104220008E0E0E940F2514C04C2F4F706D2FC701AA
:104230000E94910E0DC098E0B91631F0B91640F009
:1042400086EF8B0D823020F40E94AA1C0E94E50BA1
:10425000DD20E1F00E94EE2680FD18C0F7011282F9
:104260000E94E8260E94FC25C7010E9452210E945C
:10427000E826DF91CF911F910F91FF90EF90DF9093
:10428000BF90AF909F908F900C941D26DF91CF919F
:104290001F910F91FF90EF90DF90BF90AF909F9094
:1042A0008F9008950F931F93CF93DF93EC01988124
:1042B00089812B813C81232B31F08F3F31F481E0C8
:1042C0009F3F19F403C081E001C080E080FD13C06E
:1042D000CE010E94F70B882371F0688179818A8171
:1042E0000E94E4268C010E9499260E948C25B80128
:1042F000CE010E94341FDF91CF911F910F9108953D
:104300000E946C270E947C2780916300909164003A
:104310000E94FD270E94192780E090E00E94FF1C68
:1043200080E090E00C94151D0E945C270C94802185
:104330000E94D926E92FE295EF704E2F50E0FA0146
:104340003297EE30F105B0F4EE59FF4F0C94463140
:10435000803F91F018F4803E68F40EC0843F51F421
:104360000BC0803E48F0813F29F406C093FB8827AC
:1043700080F9089580E0089581E00895CF93DF9358
:1043800000D000D01F92CDB7DEB70F900F900F90E6
:104390000F900F90DF91CF910895CF93DF9300D0CE
:1043A00000D000D0CDB7DEB726960FB6F894DEBFAA
:1043B0000FBECDBFDF91CF9108951F93CF93DF93B1
:1043C000C091000116E080910101C81799F0D0E07A
:1043D0001C9FF0011D9FF00D1124EE5FFE4F4081E8
:1043E000518162817381848195810E94CD212196C2
:1043F000C770E9CFDF91CF911F91089540913201AD
:1044000050913301609134017091350180913601F2
:10441000909137010C94CD21CF93809137018295F3
:104420008F7009F05FC080913401882309F45AC06D
:1044300080910001B091010170913201A09133018E
:10444000409135015091360191E07F3F09F090E0B5
:10445000692FC6E08B1709F445C04115510521F0BD
:10446000AF3F21F020E003C021E001C0262F90E003
:1044700020FD35C0C89FF001C99FF00D1124EE5FEB
:10448000FE4F21812A132BC02081271328C02281AF
:10449000211125C0238134812417350710F42150C0
:1044A0003109241B350B283C3105C8F42091370114
:1044B0002F7020612093370126E0289FF001299F6B
:1044C000F00D1124E95FFE4F80818F708061808341
:1044D00082E391E00E945221CF910C94DD2101965C
:1044E0008770B8CFCF910895AF92BF92CF92DF92ED
:1044F000EF92FF920F931F93CF93DF93CDB7DEB769
:1045000061970FB6F894DEBF0FBECDBF8C0185E07A
:10451000F801DE011D9601900D928A95E1F7D80110
:104520004C9111965C9111971296EC90309132015A
:10453000609133018091350190913601009731F0FF
:104540006F3F31F421E03F3F19F403C021E001C087
:1045500020E0B22FB170BB2E20FD60C1F801C380F6
:10456000D480A0903401AA2009F4EEC02091370134
:10457000C816D90628F0D601A81BB90BCD0104C076
:10458000809590958C0D9D1DFF24F394883C91059A
:1045900080F0F12C207F09F09CC07C2DD98AC88A3C
:1045A0006E2D89890E94BE2182E391E00E945221F2
:1045B0002DC1822F807F09F054C0561314C04313BD
:1045C00012C0FE2CE1100FC02F7020612093370124
:1045D0000E94FE2182E391E00E94522180913701E6
:1045E000F80185835CC1CD2831F05F3F31F481E073
:1045F0004F3F19F403C081E001C080E080FD03C09B
:1046000081E08E2502C080E090E0F82FF170FF2E4F
:1046100080FF1CC0809100012091010136E08217CB
:1046200009F41AC190E0389FF001399FF00D112470
:10463000EE5FFE4F6181561306C06081461303C0D2
:104640006281E61203C001968770E9CFFE2CEE204E
:1046500009F425C180913701816080933701F12CE5
:104660001EC1561309C0431307C0E11005C0809155
:104670003701F8018583A4C04D875E878D859E85AF
:104680000E949821882379F1EE2069F12091370169
:10469000822F82958F7090E0029774F080913201A2
:1046A0009091330198878F831986DB86CA862C8781
:1046B000CE0107960E94522186E0F801A2E3B1E004
:1046C00001900D928A95E1F70E940C220E94FE2132
:1046D0000DC0561771F04D875E878D859E850E94AF
:1046E000982181111AC0C8010E945221FF24F3941D
:1046F000D6C04313F0CFE110EECF80913701F8011F
:104700008583C8010E94522186E0E2E3F1E0DF01E7
:104710001D928A95E9F7FA2CC2C0EE2021F3209170
:104720003701822F82958F7090E002972CF2809152
:104730003201909133019A8389831B82DD82CC827E
:104740002E83CE010196B6CFC816D90628F0F60101
:10475000E81BF90BCF0104C0809590958C0D9D1D31
:10476000883C910548F0F12C7C2DD98AC88A6E2DA1
:1047700089890E94BE214AC0FE2CEE2009F4B3CFE5
:10478000561333C0431331C02091370120FD24C09C
:10479000822F82958F70482F50E041155105E1F02E
:1047A000D80115962C9315974F30510549F08F5F1E
:1047B000982F9295907F822F8F70892B15968C93CE
:1047C000C8010E94522186E0F801A2E3B1E0019005
:1047D0000D928A95E1F73DC086E0F801A2E3B1E0D1
:1047E00001900D928A95E1F75AC04D875E878D85BD
:1047F0009E850E94982181115FCF80913701816051
:1048000080933701C8010E94522149C0E2E3F1E0E0
:1048100086E0DF011D928A95E9F71BC0EE2009F4BE
:1048200062CF4D875E878D859E850E949821F82EE8
:10483000882309F458CF86E0F801A2E3B1E00190A3
:104840000D928A95E1F782E391E00E94461E0E9454
:104850000C220E94FE2123C04D875E878D859E8598
:104860000E94D926292F22952F70223028F49F707C
:1048700039F0811105C00BC0243028F49F7049F431
:10488000805E883020F0C8010E945221BF2CFB2C92
:1048900006C0D80115969C91907F91F7F8CF8F2D87
:1048A00061960FB6F894DEBF0FBECDBFDF91CF91FA
:1048B0001F910F91FF90EF90DF90CF90BF90AF903E
:1048C00008951F93CF93DF93CDB7DEB72C970FB624
:1048D000F894DEBF0FBECDBF4F83588769877A87B4
:1048E0008B879C87CE0107960E9474228823D1F083
:1048F0009F8188852A853B85232B31F08F3F31F4BA
:1049000081E09F3F19F403C081E001C080E080FD99
:1049100047C04F81588569857A858B859C850E9423
:10492000CD213EC086E0FE013796DE011196019052
:104930000D928A95E1F7FF81E8856A857B8561158F
:10494000710531F0EF3F31F481E0FF3F19F403C00E
:1049500081E001C080E080FD23C02091010130E0B2
:10496000C9010196877099274091000150E0841792
:104970009507F1F1F983EA837D836C8396E0929F3A
:10498000D001939FB00D1124AE5FBE4FFE01319652
:1049900001900D929A95E1F7809301010E94DD212B
:1049A00016E08091000190910101891771F1189F23
:1049B000C00111248E5F9E4F0E947422882329F12A
:1049C000E09100011E9FF0011124EE5FFE4F408137
:1049D000518162817381848195810E94CD21809172
:1049E000000190E001968770992780930001D9CF4C
:1049F0000E9494211092010110920001E2E3F1E083
:104A000086E0DF011D928A95E9F72C960FB6F8949F
:104A1000DEBF0FBECDBFDF91CF911F910895EF9202
:104A2000FF920F931F93CF93DF938C01892B09F48F
:104A30006CC0F12CEE24E394E8012196F8018491F6
:104A4000843740F4843008F051C0813081F08230E6
:104A500019F15BC0853709F444C0A8F19CE7980FB1
:104A6000903708F052C08F770E94FA1E41C00E5F47
:104A70001F4FFE01849190E2980F983050F4877098
:104A8000FE2D01C0FF0F8A95EAF78F2F0E946F2736
:104A900014C00E944C1E2DC00E5F1F4FFE0184915A
:104AA00090E2980F983060F48770FE2D01C0FF0FE0
:104AB0008A95EAF78F2F0E9475270E94192719C03F
:104AC0000E94FA1E16C00E5F1F4FFE01C491CC2338
:104AD00081F087EB9BE00197F1F700C00000C15027
:104AE000F6CF0E5F1F4FFE01F49003C00E944C1ED4
:104AF0008E018F2D882309F49FCFE7EBFBE03197E0
:104B0000F1F700C000008150F5CFDF91CF911F91E8
:104B10000F91FF90EF900895089508950C948D25BE
:104B20000E948E2560933C0170933D0180933E016D
:104B300090933F010C9480210C9490250F931F9328
:104B400000913C0110913D0120913E0130913F01C7
:104B5000602B712B822B932B1F910F910C9490251E
:104B60000F931F9300913C0110913D0120913E0154
:104B700030913F0160237123822393231F910F9172
:104B80000C9490250F931F9300913C0110913D01CF
:104B900020913E0130913F016027712782279327A2
:104BA0001F910F910C9490250C948D250E94D42573
:104BB000609338017093390180933A0190933B01DF
:104BC0000C94802160E070E0CB010C94D6250F930B
:104BD0001F9341E050E060E070E08A019B0104C057
:104BE000000F111F221F331F8A95D2F7C901B80188
:104BF0001F910F910C94D6250F931F9341E050E025
:104C000060E070E004C0440F551F661F771F8A954F
:104C1000D2F78091380190913901A0913A01B09179
:104C20003B018A019B01082B192B2A2B3B2BC90125
:104C3000B8011F910F910C94D6250F931F9341E05B
:104C400050E060E070E004C0440F551F661F771FFE
:104C50008A95D2F74095509560957095809138016E
:104C600090913901A0913A01B0913B018A019B01D9
:104C7000082319232A233B23C901B8011F910F914F
:104C80000C94D6250F931F9341E050E060E070E054
:104C900004C0440F551F661F771F8A95D2F7809175
:104CA000380190913901A0913A01B0913B018A01FC
:104CB0009B01082719272A273B27C901B8011F9103
:104CC0000F910C94D6250F931F93009138011091EA
:104CD000390120913A0130913B01602B712B822BDD
:104CE000932B1F910F910C94D6250F931F93009136
:104CF00038011091390120913A0130913B01602334
:104D00007123822393231F910F910C94D6250F9327
:104D10001F93009138011091390120913A0130918F
:104D20003B0160277127822793271F910F910C94D5
:104D3000D6250895CF92DF92EF92FF920F931F93A3
:104D4000CF93DF938C01C0903801D0903901E0906F
:104D50003A01F0903B0180913C0190913D01A0917E
:104D60003E01B0913F01C82AD92AEA2AFB2ACFE1A5
:104D7000D0E0D701C6010C2E04C0B695A795979533
:104D800087950A94D2F780FD04C0219790F780E0C0
:104D900007C0B8018C2F0E94AD0E0197B1F38C2F84
:104DA000DF91CF911F910F91FF90EF90DF90CF9007
:104DB0000895CF93DF93EC010E949A26BE010E94D2
:104DC000AD0EDF91CF910895CB010E94D9260895B1
:104DD0008091400185958595859508958091400144
:104DE0008770089598E0899F90011124262B2093C5
:104DF00040010C94FC2520914001809582238093F2
:104E00004001982F977069F430E0482F082E000C6D
:104E1000550B2417350729F08595859585950C94B4
:104E20001D26089590914001977081E009F480E07B
:104E30000895E0916300F091640080914C018083BB
:104E4000E0916300F0916400908180914B01892B87
:104E50008083E0916300F0916400908180914A0129
:104E6000892B808380914101882381F0E091630048
:104E7000F09164009081892B8083809163009091F0
:104E800064000E94C5278111109241018091630046
:104E9000909164000C94B61C80914C0108959091FF
:104EA0004C01892B80934C010895809590914C0181
:104EB000892380934C01089510924C01089590919C
:104EC0004B01892B80934B010895809590914B0164
:104ED000892380934B01089510924B01089590917E
:104EE0004A01892B80934A010895809590914A0147
:104EF000892380934A01089510924A01089580936E
:104F00004101089510924101089580914101089551
:104F10006DEE7EEF80E090E00E949F3160E082E0E5
:104F200090E00E94823160E083E090E00E94823154
:104F300060E084E090E00E94823160E085E090E0F3
:104F40000E94823140E050E0BA0188E090E00C9489
:104F5000933180E090E00E947C3121E08D3E9E4FB5
:104F600009F020E0822F089582E090E00C946E31E9
:104F700083E090E00C946E3184E090E00C946E310C
:104F8000682F84E090E00C948231FC0131969C0102
:104F9000285F3F4F80E0919191118F5FE217F307F7
:104FA000D1F708959C01FC0132969FEF80E041917A
:104FB000461789F09F3F19F4411101C0982F8F5F68
:104FC0008630A9F79F3F39F0F901E90FF11D97FDF0
:104FD000FA956283089508959C012A5F3F4FFC0172
:104FE0004281461301C01282019682179307B9F7D6
:104FF00008950C94D2270C94EC27FC013196089666
:105000001192E817F907E1F708958BE083BF8BEB66
:105010008CBF82E089BF08952FB7F89480910C026D
:1050200090910D02A0910E02B0910F022FBF089532
:105030002FB7F89460910C0270910D0280910E02CE
:1050400090910F022FBF0895CF92DF92EF92FF92BF
:105050000F931F932FB7F89440910C0250910D02BB
:1050600060910E0270910F022FBF6A017B01EE2446
:10507000FF248C0120E030E0C016D106E206F306E2
:1050800010F4415051099A01281B390BC9011F9195
:105090000F91FF90EF90DF90CF90089578941F923A
:1050A0000F920FB60F9211248F939F93AF93BF93DC
:1050B00080910C0290910D02A0910E02B0910F020E
:1050C0000196A11DB11D80930C0290930D02A09337
:1050D0000E02B0930F02BF91AF919F918F910F90ED
:1050E0000FBE0F901F90189560E081E090E00E9445
:1050F000A53187E090EBDC01809355029093560236
:10510000A0935702B09358029CE088E10FB6F89440
:10511000A89581BD0FBE91BDFFCF0E94A927811127
:1051200002C00E9488270E94B42780934D010E94EC
:10513000BC2790E090931102809310020E94B82740
:10514000682F70E080E090E00C949C25CF93C82FEE
:105150001F928F9389E29AE09F938F930E94B508E4
:1051600081E090E0A0E0B0E0BC01CD0104C0660F9A
:10517000771F881F991FCA95D2F70E949C250F9010
:105180000F900F900F90CF910C949421CF93873272
:1051900088F58E3108F0F7C08E3009F489C0D8F454
:1051A000873009F461C08B3009F44FC0863009F0B4
:1051B000F0C080914D01817F8E7F80934D0183E609
:1051C0009BE00E941C0884E99DE00E941C0881E08D
:1051D00080934E0147C0863109F4B2C020F480317B
:1051E00009F47CC0D6C0893109F493C08B3109F42D
:1051F0004BC0CFC0883349F150F4893209F4C5C09F
:10520000853309F4C2C0873209F4BFC0C2C08334F9
:1052100009F4BBC028F48A3308F4BBC08953B6C074
:10522000883409F0B6C00E94942188E79DE00E946E
:105230001C082FEF8EE994E2215080409040E1F766
:1052400000C000000E9474280DC08EE79BE043C0A0
:105250008FE59DE00E941C0880914D01897F877F2A
:1052600080934D01C1E09AC080914D01C82FC09537
:10527000C170C0FB80F980934D01CC2349F38CE6CB
:105280009DE00E941C088AC090914D0191FBCC27A3
:10529000C0F981E0C827892FC0FB81F980934D01B7
:1052A000CC2319F082E59DE029C084E49DE013C081
:1052B00090914D0192FBCC27C0F981E0C827892F3E
:1052C000C0FB82F980934D01CC2319F085E39DE06A
:1052D00015C085E29DE00E941C08C4CF90914D014D
:1052E00093FBCC27C0F981E0C827892FC0FB83F945
:1052F00080934D01CC2351F089E19DE00E941C0870
:1053000080914D01816080934D0148C08CE09DE00B
:10531000E2CF84E59BE00E941C088AE39BE00E94A8
:105320001C088FEF9AE00E941C0885EC9AE00E940E
:105330001C0888E99AE00E941C088DE69AE0CBCF11
:105340008FE59AE00E941C080E94AA1C1F928F936E
:1053500085E49AE09F938F930E94B5080E941828D5
:105360009F938F937F936F938EE29AE09F938F9397
:105370000E94B5088DB79EB70A960FB6F8949EBFE7
:105380000FBE8DBF6FCF8D5101C080E00E94A62857
:1053900069CF8AE09DE00E941C08C0E08C2FCF916D
:1053A000089580E008950C94D129CF93C82F80915F
:1053B0004E01882319F0813049F03EC0E09163002E
:1053C000F091640080818232C9F507C0E0916300EA
:1053D000F09164008081823261F48C2F0E94D32985
:1053E000811104C08C2F0E94C62824C081E090E067
:1053F00021C08C2F0E94D12981111BC0C43189F09A
:1054000018F4CB3029F010C0C93259F0C83361F418
:1054100083E69BE00E941C0885E29AE00E941C083B
:1054200008C010924E010CC083E29AE00E941C0852
:1054300007C081E0817006C010924E0180E002C07A
:1054400080E0F8CFCF9108950E940C288C010E9433
:105450002D1D0E94802B0E94A51C80914D0180FF74
:1054600004C083EA9DE00E941C080E94C22D8B9A12
:1054700080E0815041F0A895E7EBFBE03197F1F730
:1054800000C00000F6CF8B98789480914D0180FF8A
:105490001CC088E99DE00E941C0817C0C8010E943A
:1054A00024280697A0F0C1E080912C028823B1F354
:1054B00010922C020E940C288C010E94B32C809127
:1054C0003202811107C00E94DF2AC0E0EDCFC11176
:1054D000EBCFF3CF80911D0284FFF5CF0E945D1DBD
:1054E000F2CF8091E1010895CF93DF9300D01F9216
:1054F000CDB7DEB7209151013091520128173907FD
:1055000089F0909352018093510123E029839B837A
:105510008A838091490284FF05C063E0CE01019631
:105520000E94AF2C0F900F900F90DF91CF910895B4
:10553000CF93DF9300D01F92CDB7DEB720914F01FC
:10554000309150012817390789F0909350018093CA
:105550004F0122E029839B838A838091490284FF43
:1055600005C063E0CE0101960E94AF2C0F900F9012
:105570000F90DF91CF910895CF93DF9300D000D0AB
:1055800000D0CDB7DEB7FC0181E0898395E0DE0174
:10559000129601900D929A95E1F78091490284FF4D
:1055A00005C066E0CE0101960E94AF2C26960FB68C
:1055B000F894DEBF0FBECDBFDF91CF910895CF939A
:1055C000DF93CAE0D0E080911D0284FF63C0809128
:1055D0005E0190915F01981709F467C028E0829FEF
:1055E000C001112468E0805A9E4F0E94AB2C80912C
:1055F0005E0190E001968F70992780935E01809103
:105600004D0182FF52C08FE39EE00E941C088091F2
:105610005E011F928F938CE39EE09F938F930E9475
:10562000B50889E39EE00E941C0880915F011F92EB
:105630008F9386E39EE09F938F930E94B50883E348
:105640009EE00E941C0850915F0140915E018DB761
:105650009EB708960FB6F8949EBF0FBE8DBF242F3D
:1056600030E0852F90E0821B930B541708F440968E
:105670009F938F938EE29EE09F938F930E94B50835
:105680000F900F900F900F908BE29EE0DF91CF91E3
:105690000C941C080E94B32C87EB9BE00197F1F758
:1056A00000C00000219709F08ECFDF91CF910895BF
:1056B000FC01A0915F01B0E09D012F5F3F4F2F7073
:1056C000332780915E01821779F083E0AA0FBB1F18
:1056D0008A95E1F7A05ABE4F98E001900D929A95F5
:1056E000E1F720935F0108C080914D0180FF04C065
:1056F0008FE19EE00E941C080E94B32C0C94DF2ACC
:1057000085E690E00895CF93DF93EC019881907641
:1057100080914D01903209F06DC09981913071F402
:1057200080FF04C083E19EE00E941C0886E591E0B2
:1057300090932E0280932D0288E06EC0923071F417
:1057400080FF04C088E09EE00E941C0880EE91E08B
:1057500090932E0280932D0281E05EC09A30E1F496
:105760009B819093E00180FF04C08DEF9DE00E943B
:105770001C0880914D0180FF4EC08091E0011F9276
:105780008F9388EF9DE09F938F930E94B5080F90B1
:105790000F900F900F9034C0993039F580FF04C0FE
:1057A0008BEE9DE00E941C088A819B81811522E07E
:1057B000920771F48C819D81892B59F580914D015F
:1057C00080FF04C081EE9DE00E941C0882E004C0BE
:1057D00081309340F1F481E0809355018E819F8167
:1057E000909354018093530114C080FF14C088ED3E
:1057F0009DE004C080FF0FC080ED9DE00E941C086A
:1058000080914D0180FF07C08EEC9DE00E941C0836
:1058100002C08FEF01C080E0DF91CF910895CF9358
:10582000DF932091530130915401232BA9F1EC0116
:1058300080915501813059F1823071F580914D018F
:1058400080FF04C084EC9DE00E941C0880914D0103
:1058500080FF0DC088811F928F938FEB9DE09F93F7
:105860008F930E94B5080F900F900F900F9080912A
:105870004D0180FF04C08DEB9DE00E941C088881D3
:105880008093E101109254011092530103C08B9A4E
:105890000E94742881E001C08FEFDF91CF910895BD
:1058A000FC018381813261F08232D1F0823071F566
:1058B0008CE49EE090932E0280932D028BE308955A
:1058C0008281882329F0813009F587E79EE002C0B4
:1058D0008EE59EE090932E0280932D0289E008953C
:1058E00084819581009751F0019781F487E89EE0CB
:1058F00090932E0280932D0284E808958BE09FE020
:1059000090932E0280932D0280E4089580E0089504
:105910001F93CF93DF93162FEA01288124FF05C040
:10592000398128E82327298302C02AE52883FC013E
:105930009E012E5F3F4FD901912F81918D93915000
:10594000E1F7612FC9010E94D3081C5F1883DF9122
:10595000CF911F9108954DE152E00C94882C49E4B9
:1059600052E00C94882CCF93DF9360912F02635008
:1059700067FDB1C080912B02CCE0D0E0C81BD109FB
:10598000CD5CDD4F80912A028D3209F092C06830E3
:1059900009F09FC083EC809312028AE58093700027
:1059A0001092E2018881807621F0CE010E94832B43
:1059B0006DC09A8110921B028981811106C01092DC
:1059C0001C022BE132E082E05CC0853019F4909338
:1059D000300254C08630D1F58B81813041F48BE4A4
:1059E0009FE090932E0280932D0282E12BC08230A3
:1059F00021F18330F1F4911108C08FE89FE090937A
:105A00002E0280932D0284E01DC0913041F489E77D
:105A10009FE090932E0280932D0286E113C0923076
:105A200081F48DE59FE090932E0280932D028CE10E
:105A300009C0813211F0823221F4CE010E94502C33
:105A400001C080E090E49093E20120C0883079F0BA
:105A5000893019F49093320211C08A3059F08B309A
:105A600069F48BE480931E0280934A0207C022E30C
:105A700032E002C02BE132E081E003C02BE132E0F2
:105A800080E030932E0220932D0209C08F3F39F41D
:105A9000988197FD8E8190E89093E20107C09F81E5
:105AA000911104C09E81981708F4892F80936F008C
:105AB00010C08091E20187FF0CC0CE010E940F2C24
:105AC0008F3F21F48EE18093700003C0811110920A
:105AD0006F0010922F028091700084FF46C0809169
