:100000000C94DB080C941F090C94E8090C941F094C
:100010000C941F090C941F090C941F090C941F09C0
:100020000C941F090C945E0C0C946D2A0C941F09FF
:100030000C941F090C941F090C941F090C941F09A0
:100040000C941F090C941F090C941F090C941F0990
:100050000C941F090B0E0D0E0F0E1A0E110E130E1F
:10006000150E170E190E1C0E1E0E200E2B0E220E34
:10007000240E260E280E2A0E2D0E71217121A32189
:10008000A321E32154235423542303225423B022D5
:10009000B0222023292354234D23BD22BD22BD227B
:1000A000BD22BD22BD22BD22BD22BD22BD22BD2258
:1000B000BD22BD22BD22BD22BD22CC22DA22E122F8
:1000C000E822F222DF23DF23F123F123E823F123C7
:1000D000F123F123DF23DF23ED23F123F123ED23AC
:1000E00007634236B79BD8A71A39685618AEBAAB21
:1000F000558C1D3CB7CC5763BD6DEDFD753EF617B5
:100100007231BF000000803F05A84CCDB2D44EB97B
:100110003836A9020C50B9918688083CA6AAAA2AAA
:10012000BE000000803F03E200015E00015D0001AF
:10013000590002E2003100130012000C00150017F4
:10014000001C00180008001A0014002B000000001A
:10015000000000340033000F000E0009000A000BFD
:10016000000D0007001600040029420000000000F6
:10017000002A002700260025002100220023002459
:100180000020001F001E00350000000000000038A5
:100190007237003600100006001900050011001B20
:1001A000001D002800E1000000000000004C002EAF
:1001B000002D0028002C00015101512C00E200E329
:1001C00000E000E00000000000000000000000006F
:1001D000000000000000000000000000000000001F
:1001E000000000000000000000000000000000000F
:1001F00000000000000000000000000000000000FF
:1002000000000000000000000000000000000000EE
:1002100000000000000000000000000000000000DE
:100220000000000000005C46004B0052004B002222
:100230000023004E0052004E00A6002800000000DF
:1002400000000028004D004F0051004F004D004AB3
:10025000005000510050004A00390000000000002A
:100260000044002E002D0041003D003E003F0040B4
:10027000003C003B003A0045000000000000003850
:1002800002A900AA00AE00C05CC85CC75CC45C4C9C
:10029000002A00280001000000000000000100A961
:1002A00000AA00010001000100010001000100019D
:1002B000000100010000000000000000000000003C
:1002C000000000000000000000000000000000002E
:1002D000000000000000000000000000000000001E
:1002E000000000000000000000000000000000000E
:1002F00000000000000000000000000000000000FE
:1003000000000000000000000000000000000000ED
:10031000000000000031004600BC5CBB5C01000135
:1003200000B95CBA5C010001000100280000000077
:10033000000000280001003000300226023602379B
:100340000227022F022F0001000100000000000020
:100350000044002E002D0041003D003E003F0040C3
:100360000043003E003E014500000000000000CBBD
:100370005CC55CC65CC35CC05CC85CC75CC45CC17B
:100380005C010028000100000000000000AE00A990
:1003900000AA00AB00010001000100010001000102
:1003A000000100BE5C000000000000000000000032
:1003B000000000000000000000000000000000003D
:1003C000000000000000000000000000000000002D
:1003D000000000000000000000000000000000001D
:1003E000000000000000000000000000000000000D
:1003F00000000000000000000000000000000000FD
:1004000000000000000100010001000100010001E6
:1004100000010001000100010001000100000000D6
:1004200000000001000100010001000100010001C5
:1004300000010001000100010001000000000000B7
:1004400000010001000100010001000100010001A4
:10045000000100DC5C010001000000000000000160
:100460000001000100010001000100010001000184
:1004700000010001000100000000000000B95CBCA8
:100480005CBB5CBA5C0100010001000100010001DD
:10049000000100010000000000000000000000005A
:1004A000000000000000000000000000000000004C
:1004B000000000000000000000000000000000003C
:1004C000000000000000000000000000000000002C
:1004D000000000000000000000000000000000001C
:1004E000000000000000000000000000000000000C
:1004F000000000000044454255473A20656E6162A5
:100500006C65642E0A0000000000000000002A2B29
:1005100028000000000000000000000000000000B3
:100520000029000000002C1E34202122243426271C
:10053000252E362D3738271E1F202122232425263D
:100540003333362E37381F0405060708090A0B0C0B
:100550000D0E0F101112131415161718191A1B1C53
:100560001D2F3130232D350405060708090A0B0C11
:100570000D0E0F101112131415161718191A1B1C33
:100580001D2F3130354C000000000000000000003D
:10059000000000000000000000000000000000005B
:1005A0000000000000000001010101010100010143
:1005B0000101000000000000000000000000000039
:1005C000010001000101010101010101010101011D
:1005D000010101010101010101010101010101010B
:1005E0000100000001010000000000000000000008
:1005F00000000000000000000000000000000000FB
:1006000000010101010054494D45523320646973D2
:1006100061626C65642E0A0054494D455233206571
:100620006E61626C65642E0A007267626C6967684D
:10063000742073657420687376205B4E4F45455077
:10064000524F4D5D3A2025752C25752C25750A00D5
:100650007267626C6967687420736574206873766A
:10066000205B454550524F4D5D3A2025752C257530
:100670002C25750A007267626C6967687420726164
:10068000696E626F7720736574206873763A2025EF
:10069000752C25752C25642C25750A007267626CF3
:1006A000696768742064697361626C65205B4545A5
:1006B00050524F4D5D3A207267626C696768745F93
:1006C000636F6E6669672E656E61626C65203D20A2
:1006D00025750A007267626C6967687420656E61CF
:1006E000626C65205B454550524F4D5D3A20726704
:1006F000626C696768745F636F6E6669672E656EAA
:1007000061626C65203D2025750A007267626C6924
:1007100067687420746F67676C65205B454550524D
:100720004F4D5D3A207267626C696768745F636FF2
:100730006E6669672E656E61626C65203D20257569
:100740000A007267626C69676874206D6F64652067
:100750005B4E4F454550524F4D5D3A2025750A007E
:100760007267626C69676874206D6F6465205B45B1
:100770004550524F4D5D3A2025750A007267626CF4
:10078000696768745F696E6974207267626C696713
:1007900068745F636F6E6669672E6D6F6465203D78
:1007A00020302E2057726974652064656661756C0F
:1007B000742076616C75657320746F2045455052C6
:1007C0004F4D2E0A007267626C696768745F696ECC
:1007D0006974206565636F6E666967206973206E52
:1007E0006F7420656E61626C65642E0A00726762C8
:1007F0006C696768745F696E697420737461727480
:10080000210A007267626C696768745F696E697457
:100810002063616C6C65642E0A007267626C6967A4
:1008200068745F636F6E6669672E737065656420B8
:100830003D2025640A007267626C696768745F63B3
:100840006F6E6669672E76616C203D2025640A0014
:100850007267626C696768745F636F6E6669672E42
:10086000736174203D2025640A007267626C6967B9
:1008700068745F636F6E6669672E687565203D20DA
:1008800025640A007267686C696768745F636F6EDD
:100890006669672E6D6F6465203D2025640A0072CD
:1008A00067626C696768745F636F6E6669672E65FF
:1008B0006E61626C65203D2025640A007267626C7F
:1008C000696768745F636F6E666967206570726FD1
:1008D0006D0A0000046801F000B40078005A007F3F
:1008E0003F1F643214643214783C1E1E140A050043
:1008F00000000000010101010101010101020202E9
:1009000002020202020203030303030303030404BB
:100910000404040405050505050606060606070782
:100920000707080808080909090A0A0A0A0B0B0B35
:100930000C0C0C0D0D0D0E0E0F0F0F1010111111D0
:10094000121213131414151516161717181819194F
:100950001A1A1B1C1C1D1D1E1F1F202021222223B2
:1009600024252526272728292A2B2B2C2D2E2F2FEF
:1009700030313233343536363738393A3B3C3D3E08
:100980003F4041424344464748494A4B4C4D4F50F3
:10099000515253555657585A5B5C5E5F60626364B0
:1009A0006667696A6C6D6E707173747678797B7C3A
:1009B0007E8081838486888A8B8D8F91929496988D
:1009C0009A9B9D9FA1A3A5A7A9ABADAFB1B3B5B7A6
:1009D000B9BBBDBFC1C4C6C8CACCCFD1D3D6D8DA83
:1009E000DCDFE1E4E6E8EBEDF0F2F5F7FAFCFF0A14
:1009F000002530325820006B6579626F6172645F48
:100A00007265706F72743A20000A00253032580007
:100A10006B6579626F6172645F7365745F6C656446
:100A20003A2000646F6E652E0A00626F6F746D610C
:100A3000676963207363616E3A202E2E2E20003F7B
:100A400000433E20004C25640A0074696D65725FA6
:100A500072656164333228293A202530346C580A93
:100A600000686F73745F6B6579626F6172645F6C4D
:100A700065647328293A2025580A000A092D205355
:100A80007461747573202D0A004743433A20342E55
:100A9000392E32204156522D4C4942433A20322EB3
:100AA000302E30204156525F415243483A20617601
:100AB00072350A004F5054494F4E533A2056555301
:100AC0004220424F4F544D414749432045585452CC
:100AD000414B455920434F4E534F4C4520434F4DBA
:100AE0004D414E4420343039360A004255494C4479
:100AF0003A2022302E362E37342D3236352D67628D
:100B000031316431302D6469727479222028313991
:100B10003A32323A3339204A616E2032352032304F
:100B20003139290A005649443A2030783230413070
:100B3000286B7072657075626C6963292050494436
:100B40003A20307834323244286A6A3530292056C7
:100B500045523A204445564943455F5645520A009E
:100B6000444553433A205072656F6E69632D6C693A
:100B70006B6520636C6F6E650A000A092D2056654F
:100B80007273696F6E202D0A000A092D20436F6E63
:100B9000736F6C65202D0A4553432F713A097175A7
:100BA00069740A000A092D204D61676963202D0AC6
:100BB000443A094465627567204D657373616765E2
:100BC00020546F67676C650A583A094D6174726901
:100BD00078204465627567204D6F646520546F67A7
:100BE000676C65202D2053686F77206B6579707274
:100BF000657373657320696E206D61747269782006
:100C0000677269640A4B3A094B6579626F61726475
:100C100020446562756720546F67676C65202D20DE
:100C200053686F77206B6579707265737320726596
:100C3000706F72740A4D3A094465627567204D6F92
:100C400075736520546F67676C650A563A09566577
:100C50007273696F6E0A533A095374617475730A3B
:100C6000433A09416374697661746520436F6E731A
:100C70006F6C65204D6F64650A46312D4631303A00
:100C80000953776974636820746F204C61796572C9
:100C900020302D392028463130203D204C30290A83
:100CA000302D393A0953776974636820746F204C8A
:100CB0006179657220302D390A4553433A095377DB
:100CC0006974636820746F204C61796572203020EC
:100CD00028616C7465726E617465206B6579203172
:100CE000290A47524156453A095377697463682087
:100CF000746F204C6179657220302028616C7465B6
:100D0000726E617465206B65792032290A504155F5
:100D100053453A094A756D7020746F20426F6F74A5
:100D20006C6F6164657220285265736574290A4589
:100D30003A095072696E7420454550524F4D205308
:100D4000657474696E67730A000A002575002E6C5D
:100D50006576656C3A20000A002575002E656E6187
:100D6000626C653A20000A002530325800626163E7
:100D70006B6C696768745F636F6E6669672E72611A
:100D8000773A20000A002575002E6E6B726F3A20AC
:100D9000000A002575002E737761705F6261636BD6
:100DA000736C6173685F6261636B73706163653AF2
:100DB00020000A002575002E737761705F677261ED
:100DC00076655F6573633A20000A002575002E6E14
:100DD0006F5F6775693A20000A002575002E7377EA
:100DE00061705F72616C745F726775693A20000AA6
:100DF000002575002E737761705F6C616C745F6C99
:100E00006775693A20000A002575002E63617073CA
:100E10006C6F636B5F746F5F636F6E74726F6C3A4D
:100E200020000A002575002E737761705F636F6E76
:100E300074726F6C5F636170736C6F636B3A2000E8
:100E40000A0025303258006B65796D61705F636F01
:100E50006E6669672E7261773A20000A0025750078
:100E60002E6D6F7573653A20000A002575002E6B94
:100E70006579626F6172643A20000A002575002E60
:100E80006D61747269783A20000A002575002E653C
:100E90006E61626C653A20000A00253032580064A9
:100EA000656275675F636F6E6669672E7261773A18
:100EB00020000A0025750064656661756C745F6CBE
:100EC000617965723A20003F000A6D6F7573653A6B
:100ED000206F66660A000A6D6F7573653A206F6E43
:100EE0000A000A6B6579626F6172643A206F666608
:100EF0000A000A6B6579626F6172643A206F6E0A4C
:100F0000000A6D61747269783A206F66660A000A99
:100F10006D61747269783A206F6E0A000A646562C6
:100F200075673A206F66660A000A64656275673AFB
:100F3000206F6E0A000A0A4A756D70696E67207428
:100F40006F20626F6F746C6F616465722E2E2E203D
:100F500000433E20006565636F6E6669673A0A006C
:100F60006261636B6C6967687420737465703A20A2
:100F700025750A006261636B6C6967687420746F21
:100F800067676C653A2025750A006261636B6C695E
:100F90006768742064656372656173653A202575BE
:100FA0000A006261636B6C6967687420696E6372C2
:100FB000656173653A2025750A006D61696E206C64
:100FC0006F6F700A00696E6974466F725573624381
:100FD0006F6E6E656374697669747928290A000AF0
:100FE0000025303258005345545F4C45443A2000A8
:100FF0000A0056454E444F523A00554E4B4E4F57FD
:101000004E3A005345545F4C45443A2000534554F2
:101010005F5245504F52543A200025303258005309
:1010200045545F49444C453A20004745545F494484
:101030004C453A20004745545F5245504F52543A70
:10104000006B6275663A2066756C6C0A00290A00AE
:1010500025303258005D28002575002D3E0025758D
:1010600000562D5553423A206B6275665B000902AB
:101070003B0002010080FA090400000103010100A5
:101080000921010100012240000705810308000138
:1010900009040100010300000009210101000122EF
:1010A00084000705830308000105010902A10185E9
:1010B000010901A10005091901290515002501757E
:1010C0000195058102750395018103050109300928
:1010D000311581257F75089502810609381581250E
:1010E0007F35004500750895018106050C0A380218
:1010F0001581257F750895018106C0C0050109800D
:10110000A1018502150126B700190129B7751095AF
:10111000018100C0050C0901A10185031501269C70
:101120000219012A9C02751095018100C005010970
:1011300006A10175019508050719E029E7150025A5
:10114000018102950175088103950575010508194E
:1011500001290591029501750391039506750815FE
:101160000026FF000507190029FF8100C0120110A9
:101170000100000008A0202D420002010200011C15
:10118000034A004A003500300020004B006500791A
:101190000062006F0061007200640016034B005093
:1011A00000520065007000750062006C0069006309
:1011B00000040309040011241FBECFE5D8E0DEBF00
:1011C000CDBF04B603FE24C080915702909158020F
:1011D000A0915902B0915A028730904BA740B04B72
:1011E000B9F41092570210925802109259021092BC
:1011F0005A0214BE84B7877F84BF0FB6F894A895AF
:1012000081B5886181BD11BC0FBEE0E0F8E30995AE
:1012100010E0A0E6B0E0EAE7FFE602C005900D921C
:10122000A237B107D9F722E0A2E7B0E001C01D92D2
:10123000A735B207E1F70E9414300C94BB370C9429
:101240000000FF93EF93E0917200F09173003097EC
:1012500009F00995EF91FF910895FC018591803087
:1012600011F0EFDFFBCF0895FF27E0E230E247FF08
:101270000CC0419597FF09C0EDE26095709580958F
:101280009095611D711D811D911D27FF02C0219543
:1012900030E350E2AA27660F771F881F991FAA1F05
:1012A000A41710F0A41B63955A95A9F7AA3008F06B
:1012B000A95FA05DAF93F395611571058105910557
:1012C00041F7ED3211F4EF93F395F21718F43F93D1
:1012D000F395FBCF8F91B5DFFA95E1F70895E9918A
:1012E000F9918591803021F0853219F0AADFF9CF8C
:1012F000089520E0E89455915532C1F3503311F42C
:10130000689455915A3348F4505390F3220F022EAB
:10131000220F220F200D250FF4CF0EF42195899175
:101320009991533619F3533729F1533559F1BC01CB
:1013300088279927E8945C3621F4899199916894DB
:101340005591543639F446EF7EF077FF0DC08FEF9C
:101350009FEF0AC055374AE039F0583540E121F097
:10136000523642E009F00895FF93EF937DDFEF914D
:10137000FF91B7CFFF93EF93FC0181918030B9F3D8
:1013800060DFFBCFFF93EF9368DFF1CFDF93CF9365
:10139000CDB7DEB72596A3DFCF91DF910895A82FB3
:1013A000B92F80E090E041E050EA609530E009C05C
:1013B0002D9182279795879510F084279527305E89
:1013C000C8F36F5FA8F30895EADF8D939D930895A6
:1013D000CF93CFB7CF93C395839BE9F7839B0EC081
:1013E000839B0CC0839B0AC0839B08C0839B06C061
:1013F000C0912E02C395C0932E02A3C0DF93C0916B
:101400002D02DD27CB5CDD4F839B02C0DF91E6CF51
:101410002F930F931F9300B32FEF03FB20F94F93EC
:101420003F9310B34FEF012703FB21F93BE031C09D
:101430004E7F012F10B3216028C0102F4D7F2260F6
:10144000000000B329C04B7F2460012F000010B3BF
:101450002BC010B3477F28602AC04F7E00B32061A5
:101460002CC04F7D10B320622FC04F7B00B320648F
:1014700032C0422700B349934FEF0000102713FBFF
:1014800020F910B31C70C9F1297F91F2012703FBE9
:1014900021F900B3237F89F2315058F1102713FB53
:1014A00022F910B3277E79F2012703FB23F92F7C61
:1014B00081F200B3102713FB24F92F7971F200C0D9
:1014C00010B3012703FB25F92F7359F200C000B3B5
:1014D000102713FB26F9223040F200C010B3012779
:1014E00003FB27F9243028F64F77206810B300005B
:1014F000F9CF10E81ABF002719C03B503195C31B24
:10150000D04010E81ABF0881033CF9F00B34E9F031
:1015100020912B021981110F1213EDCF4A81441F24
:10152000093641F10D3211F0013E29F700933302E3
:101530003F914F911F910F912F91DF91CAB7C7FD36
:101540004ACFCF91CFBFCF9118952091330222235C
:1015500079F3109131021123C1F53430C2F1309387
:10156000310220932C0210912D023BE0311B30936D
:101570002D022DC00091310201303CF50AE54F707B
:1015800049F43091700034FD24C000937000C4E130
:10159000D2E023C0433049F030911F0234FD19C01E
:1015A00000931F02C0E2D2E018C030914B0234FD1C
:1015B00010C000934B02CCE4D2E00FC02795A8F4F2
:1015C0005150A9F4220F0000F9CF4AE503C042EDC3
:1015D00001C0432FC4E1D0E032E011B31C60939A04
:1015E00011BB02B320E41CE05F93012756E002BB6D
:1015F000279520F4515021F4220FF9CF012756E00E
:1016000000003B5A02BBD0F2279528F4515029F430
:10161000220F0000F9CF012756E0279502BB20F4E6
:10162000515021F4220FF9CF012756E0299133239D
:1016300002BB21F6037F10913202110FC651D04038
:1016400002BB11F010932B0210E81ABF086011B30F
:10165000137F402F437F5F9100C000C002BB11BBCE
:1016600042BB66CF8FEF87BB88BB1ABA94B39B7B14
:1016700094BB8BBB85B38C6F85BBE4E8F0E0A4E73B
:10168000B0E0119211921D921D9280E0E439F807AA
:10169000C1F70C945A0D21E030E0A90102C0440FBB
:1016A000551F8A95E2F7CA0147BB809588BB08950C
:1016B000982F990F9A7A86958575982B84E0989F34
:1016C00090011124822F8C7C969596959373892B8B
:1016D00082950895DF92EF92FF920F931F93CF931D
:1016E000DF9394E7E92E90E0F92E8701C0E025E032
:1016F000D22E8C2F0E944B0B84E18A95F1F7D9B33F
:1017000083B380950E94580B282F30E0322F222778
:10171000D0952D2BD8018D919C911197821793070D
:1017200021F02D933C93D0926000CF5F0E5F1F4F4E
:10173000C830F9F6809160008823C9F08150809309
:101740006000882339F0E7EBFBE03197F1F700C048
:1017500000000DC0E4E8F0E0D7018D919D917D017E
:1017600081939193B4E8EB16B0E0FB06A9F70E94D1
:10177000580D81E0DF91CF911F910F91FF90EF9075
:10178000DF900895E82FF0E0EE0FFF1FEC57FF4FBA
:10179000808191810895089585B3836085BB87E03A
:1017A00080B986B7846086BF86B7816086BF86B7FA
:1017B000806486BF089516BE94EA96BF06B607FEFB
:1017C000FDCF91B1987F983011F081E0089583B9F1
:1017D00084E886BF06B607FEFDCF81B1887F8831D9
:1017E00011F0803491F780E0089583B984E886BFD2
:1017F00006B607FEFDCF91B1987F81E0983209F4DB
:1018000080E00895CF92DF92EF92FF921F93CF93E3
:10181000DF9300D0CDB7DEB77A0169837A830E9467
:10182000DB0B182F69817A8181110DC06B01EC0CE3
:10183000FD1CCE14DF0449F0F60181916F010E9476
:10184000F50B8823B1F311E002C084E986BF812F34
:101850000F900F90DF91CF911F91FF90EF90DF904D
:10186000CF90089580FF03C0889A909A02C088980C
:10187000909881FF03C0899A919A02C089989198A3
:1018800082FF03C08E9A969A08958E98969808952E
:101890008FB58D7F8FBD8FB581608FBD19BC18BC92
:1018A00008958EB5887F83608EBD1DBC1CBC89B732
:1018B000846089BF81E080939400089578941F929A
:1018C0000F920FB60F9211240F900FBE0F901F9022
:1018D00018958FB580628FBD8FB58F7E8FBD0895AF
:1018E0008C9A949A08950E94510C0E94690C0C9451
:1018F000700C94980E94480C0C94730C8D3008F076
:101900008CE0682F70E080E090E00E94163520E0C7
:1019100030E04FE753E40E94413620E030E040E4FD
:1019200051E40E9434340E94E0346F3F710519F095
:1019300010F06FEF70E079BD68BD08950C94790CDC
:101940000C947E0C8091E40180FF09C00E94CC0BB6
:1019500044E250E069EE71E080EB0C94020C80E010
:1019600090E0FC01E751FE4F118210821282039633
:1019700084329105B1F7EACF08950C94BC0C089518
:1019800080919500811110C08091E40180FF0CC00E
:101990000E94CC0B44E250E069EE71E080EB0E94C3
:1019A000020C81E0809395000E94AB1A0C94BF0C4E
:1019B0009C01FB0182818823C9F02C3D3C45B9F490
:1019C00082E391E00E94550D8FE291E00E94550D57
:1019D0008CE291E00E94550D89E291E00E94550D44
:1019E00086E291E00E94550D80E0089581E008951F
:1019F00081E008950C94D80CCF93282F30E0F901A2
:101A0000EA5FFA4FC491F901EA57FA4F2491222371
:101A100059F081EE0E9446208C2F0E9446208C2F88
:101A20000E94012181EE04C08C2F0E9446208C2F41
:101A3000CF910C9401210F931F93CF93DF93EC016F
:101A4000062FFE018491882359F19E012F5F3F4F9D
:101A5000813041F4E901F9011491812F0E9446205F
:101A6000812F0DC0823031F4E901F90184910E9487
:101A700046200AC0833031F4E901F90184910E94C3
:101A8000012102C00E94FC0C2196802F8823C9F2FC
:101A9000E7EBFBE03197F1F700C000008150F6CF93
:101AA000DF91CF911F910F91089560E00C941B0D71
:101AB0000C94C00C0E949E0C0C94BD0C0C94320C27
:101AC0000C945E0D08950E94CD230E94620D2FEBB1
:101AD00087E299E0215080409040E1F700C000008B
:101AE0000C94932AEF92FF920F931F93CF93DF935F
:101AF00000D0CDB7DEB78C01FC01E080F180C701DA
:101B00000E94A228B7010E9412109A838983B8010B
:101B1000CE0101960E94EB1A882381F1B8018981D8
:101B20009A810E94FA0C882349F1B80189819A812F
:101B30000E94A812882311F129813A81283CFCE5F2
:101B40003F07F1F008F01BC1213CECE53E0701F135
:101B500058F525318CE5380708F0ABC02230ECE5AC
:101B60003E07D0F52115FCE53F0709F086C0F801D6
:101B70001281112309F448C20E94630D10E044C28F
:101B8000F8011281112309F43FC20E941816F6CF02
:101B9000F8011281112309F437C20E94542982727C
:101BA000C1F00E94FA16EACF243C8CE5380709F40C
:101BB000B7C008F0C9C0223CFCE53F0709F0B8C037
:101BC000F8011281112309F41FC20E945429827264
:101BD00041F30E94F016D2CFF8018281882309F4E4
:101BE00054C00E94B629811102C00E9490290E940F
:101BF000D32990E09093120280931102E981FA8137
:101C0000E250FC45E331F10588F5E65DFF4F809138
:101C100011020C943F37816027C0826025C0846028
:101C200023C0806121C080621FC080641DC08068A5
:101C30001BC08460886018C08E7F16C08D7F14C062
:101C40008B7F12C08F7E10C08F7D0EC08F7B0CC02B
:101C50008F770AC08B7F877F07C087FB222720F9F9
:101C600091E0922790FB87F98093110280911102F5
:101C70000E94D7290E94CD2381CF21303C4551F0CD
:101C800081E080939B0080939C00C8010E94F80C27
:101C9000182FBAC1F8011281112309F4B5C180913E
:101CA0004E01816080934E0185EF94E00E942D09E2
:101CB00065CF2531ECE53E0739F50E945429282FE0
:101CC000F80182814091630050916400882379F08B
:101CD0002A7A91E009F490E090939600911102C065
:101CE00069E201C065E3CA010E94182A0AC0809116
:101CF0009600811102C069E201C065E3CA010E9439
:101D00001A2A0E9421293ACF203C3C4509F0B8CF3D
:101D1000F8011281112309F477C10E94AA172ECF6E
:101D2000F8011281112309F46FC10E94A91526CF71
:101D3000233C3C4509F0A4CFF8011281112309F49A
:101D400063C10E9491151ACFF8011281263CFCE56F
:101D50003F0731F4112309F457C10E94E3150ECF58
:101D6000273C3C4530F4112309F44EC10E94C815AC
:101D700005CF112309F448C10E94FD15FFCE2F3C69
:101D8000ECE53E07B1F4F8011281112309F43CC1DE
:101D90000E940C146F3071058105910540F00E947E
:101DA0000C14643171058105910508F412CF8FE0A0
:101DB0000FC0203DFCE53F0708F06EC02B3C8CE5D2
:101DC000380749F4F8011281112309F41DC181E09B
:101DD0000E94ED16D3CE2C3CECE53E07C0F4293C26
:101DE000FCE53F0741F4F8011281112309F40CC10D
:101DF0000E941A14C3CE2A3C3C4509F041CFF80199
:101E00001281112309F400C10E942F14B7CEF801EA
:101E100012812D3CFCE53F07A1F4112309F4F4C025
:101E20000E940C14663071058105910540F00E94F6
:101E30000C14683071058105910508F4CACE86E05E
:101E4000C7CF2E3C3C45A0F4112309F4DDC00E940D
:101E50000C14623071058105910540F00E940C144C
:101E6000653071058105910508F4B3CE82E0B0CFED
:101E7000112309F4C9C00E940C1469307105810551
:101E8000910540F00E940C146E307105810591059A
:101E900008F49FCE89E09CCF233DECE53E0739F462
:101EA000F8011281112309F4AFC083E291CF243DE0
:101EB000FCE53F07B0F5F8011281213DFCE53F0745
:101EC00029F4112309F4A0C088E182CF223D3C45CA
:101ED000A0F4112309F498C00E940C146531710517
:101EE0008105910540F00E940C1467317105810550
:101EF000910508F46ECE85E16BCF112309F484C0FF
:101F00000E940C14693171058105910540F00E9411
:101F10000C14623271058105910508F45ACE89E1ED
:101F200057CF253DECE53E0739F5F801828188233E
:101F300061F010929C000E942B2A90939A0080934B
:101F4000990080E20E942D2119CE80919C00811180
:101F50000FC08091990090919A000E94432A883C7A
:101F6000910530F487E20E94462087E20E94012119
:101F700080E20E94342102CE253DFCE53F0728F592
:101F8000F8011281112351F010929B000E942B2A1C
:101F9000909398008093970082E0D4CF80919B002B
:101FA00081110FC080919700909198000E94432A60
:101FB000883C910530F486E20E94462086E20E9429
:101FC000012182E00E9434211FC0263D3C4509F0DA
:101FD00057CEF80182818111ACCF10919C00111174
:101FE000C7CF8091990090919A000E94432A883C23
:101FF000910508F0BDCF80E20E94342188E20E9462
:10200000462088E20E940121812F0F900F90DF91DE
:10201000CF911F910F91FF90EF90089580E090E095
:10202000089508959FE0799FF001112498E7899F12
:10203000E00DF11D1124E60FF11DEE0FFF1FEB5C0B
:10204000FE4F859194910895880F991FFC01EA5FD6
:10205000F94F859194910895CF93DF930E941210C8
:102060000E940712EC01811521E5920708F042C099
:10207000811530E5930708F01EC1883E910500F5F3
:10208000803E910508F0BFC1883A910570F4853A09
:10209000910508F09DC08130910509F4B4C108F4A0
:1020A0006BC1049708F0AFC167C18D3B910508F47F
:1020B0009AC0803C910508F45FC1805C9109EBC037
:1020C000811540E3940780F4811550E2950708F0EC
:1020D000E1C0803F910508F44FC18F3F910511F099
:1020E00008F091C1D0658FC1811560E4960708F0B2
:1020F000DFC0D5C0C11589E5D80740F5C11528E571
:10210000D20708F025C1C11534E5D30778F4C1150D
:1021100043E5D40708F001C1C11552E5D50708F021
:10212000E6C0DC2FCC27C16FD06A6DC1C11565E553
:10213000D60708F408C1C11586E5D80708F01CC108
:10214000CF71DD27DC2FCC27D0625DC1CB3B2CE5E6
:10215000D20709F408C1D8F4C93B4CE5D40709F407
:10216000FCC008F0FDC0C1156AE5D60708F004C13F
:102170008C2F8F70806E90E0906A24E0D695C79582
:102180002A95E1F7CF709C013C2BE9013CC1CE3B85
:102190008CE5D80709F4EDC060F4CC3B3CE5D307EF
:1021A00009F4E4C0CD3BDC4509F0E6C0C0E0D2ED67
:1021B0002AC1CE0190568115904208F0DDC08D2FC6
:1021C0008F710E948412DD27D0628F71D82B1BC1C2
:1021D000853A910509F4D3C0863A910509F0D2C039
:1021E000C2E8D0E410C1883A910509F4CEC0893A1A
:1021F000910509F4CDC08A3A910509F4CCC08B3A17
:10220000910509F4CBC08C3A910509F4CAC08B3B07
:10221000910509F4C9C08C3B910509F4C8C08D3AF9
:10222000910509F4C7C0803B910509F4C6C08E3AF8
:10223000910509F4C5C08F3A910509F4C4C0813BEA
:10224000910509F4C3C0823B910509F4C2C0833BE8
:10225000910509F4C1C0843B910509F4C0C0853BD8
:10226000910509F4BFC0863B910509F4BEC0873BC8
:10227000910509F4BDC0883B910509F4BCC0893BB8
:10228000910509F4BBC08A3B910509F4BAC0C0E0CE
:10229000D4E4B9C09F700E942410EC01B4C0992707
:1022A000D3FF03C0EC01D86CAEC0EC01D06CABC066
:1022B000DF70D06AA8C0282F237081E090E002C0B0
:1022C000880F991F2A95E2F79C689E0174E0369565
:1022D00027957A95E1F72370922BCF70C695C69516
:1022E00060E2C69FE0011124C82BD92B8CC02C2F93
:1022F0002695269580E2289F90011124C370DD2742
:1023000081E090E0AC0102C0440F551FCA95E2F78E
:10231000EA01C22BD32BDC6876C02C2F269526959C
:1023200080E2289F90011124C370DD2781E090E0B6
:10233000AC0102C0440F551FCA95E2F7EA01C22B57
:10234000D32BDA6860C0DC2FCC27C46FD06A5BC0A7
:10235000DC2FCC27C06FD06A56C0C0E0D4ED53C08C
:10236000C0E0D5ED50C0C0E0D1ED4DC0C0E0D0ED33
:102370004AC0C0E0D3ED47C0C0E0D0E044C0C1E8EF
:10238000D0E441C0C3E8D0E43EC0C2EED4E43BC0D8
:10239000C9EED4E438C0CAEED4E435C0C5EBD4E409
:1023A00032C0C6EBD4E42FC0C3EBD4E42CC0C4EBE2
:1023B000D4E429C0C7EBD4E426C0CCECD4E423C0D9
:1023C000CDECD4E420C0C3E8D5E41DC0CAE8D5E410
:1023D0001AC0C2E9D5E417C0C4E9D5E414C0C1E20B
:1023E000D6E411C0C3E2D6E40EC0C4E2D6E40BC00A
:1023F000C5E2D6E408C0C6E2D6E405C0C7E2D6E42A
:1024000002C0CAE2D6E4CE01DF91CF9108958238AE
:10241000910549F1B0F48133910509F458C048F4AD
:102420008932910509F44EC08A32910509F454C0ED
:1024300008958533910509F440C08933910599F0D9
:102440000895833E910529F138F4803E910591F07D
:10245000823E9105A1F00895863E9105F9F0873EF0
:10246000910531F108952091110220FD3AC021FD1E
:1024700038C008958091110280FD35C032C080912E
:10248000110282FF32C08091110284FD30C083EEC0
:1024900039C08091110282FD28C0F5CF80911102D0
:1024A00083FF27C08091110284FD21C087EE2AC0DE
:1024B0008091110283FD1DC0F5CF8091110285FD31
:1024C0001AC01BC08091110285FD17C014C08091F5
:1024D000110286FD14C015C08091110286FD11C045
:1024E0000EC080EE0FC089E30DC082EE0BC080E00D
:1024F00009C086EE07C089E205C085E303C08AE211
:1025000001C081E390E008959091110292FF0DC007
:10251000282F2871283019F4877F846006C0282F5F
:102520002471243011F48B7F886093FF0DC0282F15
:102530002871283119F4877E846106C0282F247100
:10254000243111F48B7E886194FD877E089508956F
:102550000F931F93CF93FB012281211102C0C1E091
:1025600041C08C01C091AA00C11125C086319C4593
:10257000B1F70E94A71281E08093AA000E942B2A43
:102580009093A9008093A80010929D0010929F0044
:1025900010929E001092A1001092A0001092A30031
:1025A0001092A2001092A5001092A4001092A70011
:1025B0001092A60017C08091A8009091A9000E94D7
:1025C000432A8C32914058F690919D00E92FF0E01B
:1025D000EE0FFF1FE256FF4F118300839F5F909322
:1025E0009D00C0E08C2FCF911F910F910895EF9225
:1025F000FF920F931F93CF93DF93E901662309F4B2
:102600004BC0242F30E0EFEFF0E0E61BF109B901F9
:10261000E69F9001E79F300DF69F300D1124232F88
:102620008B01031B11095CE3E52EF12CB7010E941D
:102630001737FB01BC01069FC001079F900D169F35
:10264000900D1124B7010E941737E230F105B1F067
:1026500040F4309779F0319711F5832F242F461BE2
:1026600021C0E430F105A1F068F03597C1F4842F62
:10267000861B18C0832F262F230F14C0862F830F8D
:10268000E42F03C0E42FE61B842F432F2E2F0AC014
:10269000842F462F430F06C0842F242F03C080E0D1
:1026A00020E040E0E42FF0E0E151F74F4491E22FC9
:1026B000F0E0E151F74F9491E82FF0E0E151F74F4E
:1026C000E49149839883EA83DF91CF911F910F9121
:1026D000FF90EF90089588E090E00C946F37AB0185
:1026E000BC0188E090E00C948C37E4EEF1E083E0EC
:1026F00080831092E5018FEF82838383148260814F
:102700007181828193810C946F1380914E0180FFBF
:1027100008C08CEB98E09F938F930E94C6090F909E
:102720000F9080914E0180FF0FC08091E401817075
:102730001F928F938FE998E09F938F930E94C60911
:102740000F900F900F900F9080914E0180FF10C05E
:102750008091E40186958F731F928F9384E898E0AF
:102760009F938F930E94C6090F900F900F900F9028
:1027700080914E0180FF19C08091E401881F882755
:10278000881F9091E501292F220F822B97FB992713
:1027900090F99F938F938AE698E09F938F930E947E
:1027A000C6090F900F900F900F9080914E0180FFFF
:1027B0000EC08091E6011F928F9380E598E09F9371
:1027C0008F930E94C6090F900F900F900F908091E9
:1027D0004E0180FF0EC08091E7011F928F9386E328
:1027E00098E09F938F930E94C6090F900F900F90CF
:1027F0000F9080914E0180FF0EC08091E8011F92E2
:102800008F938AE198E09F938F930E94C6090F905F
:102810000F900F900F9008956091E40160FF06C043
:1028200066956F7370E080E090E0089560E070E07E
:10283000CB0108958091E80190E0019684309105E4
:1028400014F083E090E08093E8016091E4017091DE
:10285000E5018091E6019091E7010C946F1380915E
:10286000E80190E0019797FF02C080E090E084309B
:10287000910514F083E090E08093E8016091E40119
:102880007091E5018091E6019091E7010C946F133E
:102890009091E40190FF0FC020E030E0F901E75192
:1028A000FE4F8183608342832D5F3F4F2432310589
:1028B000A9F70C94A20C0895CF93DF9300D01F9238
:1028C000CDB7DEB72091E40120FF0AC09E012F5F43
:1028D0003F4F0E94F7124B8169818A810E94481400
:1028E0000F900F900F90DF91CF9108952F923F920C
:1028F0004F925F926F927F928F929F92AF92BF9210
:10290000CF92DF92EF92FF920F931F93CF93DF93BB
:10291000CDB7DEB727970FB6F894DEBF0FBECDBF99
:102920008C01262E342E2D838091E40180FFDDC0A2
:10293000982F9E77923061F49E012F5F3F4FC80120
:102940000E94F7124B8169818A810E94481480C0DD
:10295000E82FE695EF739EE39E0F9F73943018F473
:102960003090E70175C09AE39E0F9F73993068F429
:10297000881F8827881F9091E501292F220F022F99
:10298000082B97FB112710F963C087E28E0F8F7316
:102990008A3008F05DC0F0E07997E0FD03C021E0E7
:1029A0002C8302C03FEF3C83EE7FEB52F74F8590C4
:1029B00094908C81682E880F7708C4016CE070E0D9
:1029C0000E941737669E2001679E500C769E500C21
:1029D0001124580198E9A91A9EEFB90A89EEC82E68
:1029E00081E0D82EE12CF12CC50168E671E00E944F
:1029F000173720914E0120FF18C09F928F927F922F
:102A0000AC81AF939F938F93FF92EF92A5E7B6E0CF
:102A1000BF93AF938E839F830E94C6090FB6F8942D
:102A2000DEBF0FBECDBF9F818E819601432D622DEB
:102A30000E94F712BFEFEB1AFB0AA40CB51C23E0AF
:102A4000C20ED11C3CE0E316F10471F60E94A20C08
:102A50008091E40100FB87F98093E4018091E50116
:102A60008078902F9695892B10FB87F98093E5014C
:102A70002092E6013092E7018D81882321F1609157
:102A8000E4017091E5018091E6019091E7010E94D7
:102A90006F138091E7011F928F938091E6011F923F
:102AA0008F938091E401881F8827881F9091E5010A
:102AB000292F220F822B97FB992790F99F938F93B1
:102AC00080E596E009C01F923F921F922F921170ED
:102AD0001F930F9389E296E09F938F930E94C609FC
:102AE0000FB6F894DEBF0FBECDBF27960FB6F89491
:102AF000DEBF0FBECDBFDF91CF911F910F91FF9031
:102B0000EF90DF90CF90BF90AF909F908F907F908D
:102B10006F905F904F903F902F90089521E00C941C
:102B20007614E4EEF1E02081221F2227221F30914B
:102B3000E501432F440F842F822B37FB992790F90F
:102B40000C9668E671E00E942B37438162810C94F9
:102B50008E152091E401221F2227221F3091E501CA
:102B6000432F440F842F822B37FB992790F98C3009
:102B700091051CF4845A9E4F01C00C9768E671E0E1
:102B80000E942B374091E7016091E6010C948E156D
:102B90006091E601862F90E0813F910514F4615F1A
:102BA00001C06FEF8091E401881F8827881F9091F2
:102BB000E501292F220F97FB992790F94091E70112
:102BC000822B0C948E156091E601862F90E00F9772
:102BD00014F06F5001C060E08091E401881F8827E5
:102BE000881F9091E501292F220F97FB992790F9D3
:102BF0004091E701822B0C948E154091E701842FC0
:102C000090E08E3E910514F44E5E01C04FEF80912E
:102C1000E401881F8827881F9091E501292F220F42
:102C200097FB992790F96091E601822B0C948E1501
:102C30004091E701842F90E0429714F0425101C087
:102C400040E08091E401881F8827881F9091E5016A
:102C5000292F220F97FB992790F96091E601822B8B
:102C60000C948E1520E00C9476149091E40190FF62
:102C700010C02C3070F430E0F901EE0FFF1F2E0F62
:102C80003F1FF901E751FE4F8183608342830C941B
:102C9000A20C08951F93CF93DF9300D01F92CDB75E
:102CA000DEB73091E40130FF0CC0122F9E012F5F80
:102CB0003F4F0E94F712212F4B8169818A810E9428
:102CC00035160F900F900F90DF91CF911F910895BF
:102CD00081E08093C80080914E0180FF08C088E1A8
:102CE00096E09F938F930E94C6090F900F900895CE
:102CF0001092C80080914E0180FF08C086E096E0E7
:102D00009F938F930E94C6090F900F900895909102
:102D1000E40190FF61C09178811102C0926007C008
:102D2000853210F0986403C08F73880F982B9093AE
:102D3000E401662399F06091E4017091E5018091CE
:102D4000E6019091E7010E946F138091E40186955E
:102D50008F731F928F9380E697E008C08091E40103
:102D600086958F731F928F9382E497E09F938F9342
:102D70000E94C6090F900F900F900F908091E40170
:102D8000982F9E77923019F40E94781612C086957B
:102D90008F732EE3280F2F73273120F0963411F014
:102DA000983419F40E94681604C0895D8F738A30C4
:102DB00058F38091E401881F8827881F9091E501CE
:102DC000292F220F97FB992790F94091E7016091F5
:102DD000E601822B0C943216089561E00C9487165C
:102DE0008091E40186958F738F5F853208F081E0D2
:102DF0000C94ED168091E40186958F73815009F44F
:102E000084E20C94ED16CF93DF93C4EED1E0888179
:102E1000816088831F9281E08F9384ED96E09F9379
:102E20008F930E94C6090F900F900F900F9088818A
:102E300086958F73DF91CF910C94ED1660E00C9422
:102E4000871680914E01816080934E0183E098E067
:102E50009F938F930E94C60980914E010F900F900F
:102E600080FF08C08DEE97E09F938F930E94C60964
:102E70000F900F900E94B629811110C080914E01D1
:102E800080FF08C085EC97E09F938F930E94C6094E
:102E90000F900F900E9490290E9475130E946B134F
:102EA0006093E4017093E5018093E6019093E7015C
:102EB0006E77C1F480914E0180FF08C08CE797E0E7
:102EC0009F938F930E94C6090F900F900E947513D5
:102ED0000E946B136093E4017093E5018093E60117
:102EE0009093E7010E94851381E08093C800809150
:102EF000E40180FF04C086958F730C941E1708951B
:102F0000CF93DF93C4EED1E088818E7F8883688180
:102F100079818A819B810E946F13888181701F92C1
:102F20008F938CE996E09F938F930E94C6090E942D
:102F300078162FEB84ED91E0215080409040E1F72E
:102F400000C000000F900F900F900F90DF91CF9175
:102F50000C94A20C8091E401809581701F928F9354
:102F60008BE097E09F938F930E94C6098091E401C4
:102F70000F900F900F900F9080FD0C9480170C9481
:102F80000317CF93C82F8091C6009091C7000E946D
:102F9000432AEC2FF0E0E551F74FE491F0E08E1773
:102FA0009F0708F443C00E942B2A9093C700809388
:102FB000C6006091C50070E080E090E00E94183586
:102FC00020E030E04FE753E40E9434342BED3FE043
:102FD00049E450E40E9441360E94AE360E94AE346D
:102FE0002BE43AE34EE25FE30E94C73320EF3BEF6E
:102FF00048ED52E40E9441360E94E734462F80910A
:10300000E401881F8827881F9091E501292F220F4E
:1030100097FB992790F96091E601822B0E945C143E
:103020008091C50090E001968093C500CF910895EE
:10303000CF93C82F8091C3009091C4000E94432A6F
:10304000EC2FF0E0E851F74FE491F0E08E179F0786
:10305000E8F00E942B2A9093C4008093C300409113
:10306000E7016091E6018091C1009091C2000E9449
:103070005C148091C1009091C200019668E671E0F5
:103080000E9417379093C2008093C100CF9108959A
:10309000CF92DF92FF920F931F93CF93DF93F82E7F
:1030A0008091BF009091C0000E94432AEF2DE695C9
:1030B000F0E0EB51F74FE491F0E08E179F07E8F155
:1030C0000E942B2A9093C0008093BF0009EE11E06C
:1030D000C0E0D0E088E6C82EDD24D3948091BD0006
:1030E0009091BE008C0F9D1FB6010E94173798016A
:1030F0004091E7016091E6010E94F7126E960D5F24
:103100001F4FC83681E0D80749F70E94A20C2091D2
:10311000BD003091BE00F0FE0AC0C9010196BE019B
:103120000E9417379093BE008093BD0006C02150C7
:1031300031093093BE002093BD00DF91CF911F91E4
:103140000F91FF90DF90CF900895AF92BF92CF92F2
:10315000DF92EF92FF920F931F93CF93DF93C82FCD
:1031600080FF02C01FEF01C011E08091BB00909171
:10317000BC000E94432AC695EC2FF0E0EE51F74FB9
:10318000E491F0E08E179F0708F466C00E942B2A96
:103190009093BC008093BB0029EEC22E21E0D22E7A
:1031A0003BEEE32E31E0F32EC0E0D0E0F7013197A3
:1031B0001082F6011082F701108294E0A92EB12C42
:1031C00000E08091BA00800F87FD845F082E000C1C
:1031D000990BC817D907E9F48091E7018A9DA001EE
:1031E0008B9D500D11245595479555954795809188
:1031F000E401881F8827881F9091E501592F550FFA
:1032000097FB992790F996016091E601852B0E9422
:10321000F712010FF1E0AF1AB10899F6219683E099
:10322000C80ED11CE3E0EE0EF11CCC30D10509F044
:10323000BDCF0E94A20C8091BA00113031F48111EF
:1032400002C08BE007C0815005C090E00196BE012E
:103250000E942B378093BA00DF91CF911F910F917D
:10326000FF90EF90DF90CF90BF90AF9008950F93B5
:103270001F93CF93DF93C82F8091B8009091B9002E
:103280000E94432AEC2FF0E0E152F74FE491F0E086
:103290008E179F0708F466C00E942B2A9093B900EE
:1032A0008093B80080E090E0FC01E751FE4F11826E
:1032B00010821282039684329105B1F7C0E0D0E00B
:1032C0000CE010E0CE01B8010E942B374091B7000E
:1032D000042E000C550BFC01EE0FFF1FC417D50781
:1032E0000CF140916200042E000C550B4C175D0749
:1032F000CCF08E0F9F1F9C0127513E4F8091E4011F
:10330000881F8827881F9091E501592F550F97FB3B
:10331000992790F94091E7016091E601852B0E9481
:10332000F71207C0E80FF91FE751FE4F1182108214
:1033300012822196CC30D10529F60E94A20C8091F0
:1033400061009091B700980F9093B70020916200B0
:10335000280F20936200121614F49B301CF0819504
:1033600080936100DF91CF911F910F910895EF92AB
:10337000FF920F931F93CF93DF938091B5009091AD
:10338000B6000E94432A883E9340D0F10E942B2A27
:103390009093B6008093B500C091B300D091B40073
:1033A0002196C170DD27D093B400C093B30089EE9D
:1033B000E82E81E0F82E10E008E7812F8695FE01C7
:1033C000E80FF11DCF018170992797014091E70126
:1033D0006091E601FC010E9FC0010F9F900D11242A
:1033E0000E94F7121F5FF3E0EF0EF11C1C3029F76B
:1033F000DF91CF911F910F91FF90EF900C94A20C51
:10340000DF91CF911F910F91FF90EF900895CF938F
:10341000DF9300D01F92CDB7DEB78091B1009091BD
:10342000B2000E94432AE3EDF8E02591349182171F
:103430009307C0F18091B00081110CC09E012F5FF5
:103440003F4F4FEF6FEF80E090E00E94F7128A81CC
:103450008093B0000E942B2A9093B2008093B10019
:103460008091AF00813051F028F0823061F44091BA
:10347000B0000AC08091B00040E007C06091B00089
:1034800040E080E003C040E080E060E00E9448143B
:103490008091AF0090E0019663E070E00E942B37CE
:1034A0008093AF000F900F900F90DF91CF91089510
:1034B000CF93DF938091AD009091AE000E94432A9C
:1034C000843F914008F444C00E942B2A9093AE00A0
:1034D0008093AD00C0E0D0E02091AB003091AC0013
:1034E0008091E4019091E501C630D1051CF4232BB5
:1034F00079F002C0232B61F4881F8827881F392F99
:10350000330F97FB992790F92C2F4091E7010AC0C0
:10351000881F8827881F392F330F97FB992790F929
:103520002C2F40E06091E601832B0E944A162196E1
:10353000CC30D10589F60E94A20C8091AB0090910D
:10354000AC000196817099279093AC008093AB00FA
:10355000DF91CF9108958091C8008823D9F190918F
:10356000E401892F86958F732EE3280F2F73243063
:1035700018F482500C94C1172AE3280F2F732330BC
:1035800018F486500C94181827E3280F2F73263050
:1035900018F489500C94481821E3280F2F73263013
:1035A00018F48F500C94A5182BE2280F2F7323309A
:1035B00018F485510C943719892F8E77803311F4C4
:1035C0000C94B719863411F40C94071A883411F44A
:1035D0000C94581A08954F925F926F927F928F9237
:1035E0009F92AF92BF92CF92DF92EF92FF920F9392
:1035F0001F93CF93DF937C01DC01ED91FC91CF0110
:10360000815095458F3F910510F4B5E5FB27EB01FF
:103610006A80662009F4BFC2EF3FF10579F070F0CF
:10362000EB3DFC4519F01092C90073C39091C9009D
:1036300081E089278093C900A0E06CC3A091C900F4
:10364000AA2309F4EBC01092C900E03CF10540F454
:10365000E038F10508F073C0E034F105D0F505C09D
:10366000EF3FF10509F008F4A0C021E030E040E0B0
:1036700050E060E070E080E090E00E2F0E9445375F
:10368000B091CA002B2BB091CB003B2BB091CC005A
:103690004B2BB091CD005B2BB091CE006B2BB0913A
:1036A000CF007B2BB091D0008B2BB091D1009B2B06
:1036B0002093CA003093CB004093CC005093CD00B0
:1036C0006093CE007093CF008093D0009093D10090
:1036D000A1C021E030E040E050E060E070E080E038
:1036E00090E08F01005411090E944537B091D2003B
:1036F0002B2BB091D3003B2BB091D4004B2BB0912E
:10370000D5005B2BB091D6006B2BB091D7007B2BF3
:10371000B091D8008B2BB091D9009B2B2093D20075
:103720003093D3004093D4005093D5006093D600DB
:103730007093D7008093D8009093D9006BC021E09C
:1037400030E040E050E060E070E080E090E08F0129
:10375000005811090E944537B091DA002B2BB09127
:10376000DB003B2BB091DC004B2BB091DD005B2BE1
:10377000B091DE006B2BB091DF007B2BB091E000AD
:103780008B2BB091E1009B2B2093DA003093DB0070
:103790004093DC005093DD006093DE007093DF0007
:1037A0008093E0009093E10035C021E030E040E0FC
:1037B00050E060E070E080E090E08F01005C110973
:1037C0000E944537B091E2002B2BB091E3003B2BD8
:1037D000B091E4004B2BB091E5005B2BB091E6007B
:1037E0006B2BB091E7007B2BB091E8008B2BB09155
:1037F000E9009B2B2093E2003093E3004093E40028
:103800005093E5006093E6007093E7008093E80032
:103810009093E900E701F983E8837CC2E034F10585
:10382000D0F4A090CA00B090CB00E090CC00F09013
:10383000CD001091CE00D091CF00C091D000B091BA
:10384000D10021E030E040E050E060E070E080E056
:1038500090E00E2F5DC0E038F105E8F4A090D200B2
:10386000B090D300E090D400F090D5001091D60035
:10387000D091D700C091D800B091D90021E030E0BC
:1038800040E050E060E070E080E090E06F0100E434
:10389000C01AD1083CC0E03CF105E8F4A090DA0081
:1038A000B090DB00E090DC00F090DD001091DE00D5
:1038B000D091DF00C091E000B091E10021E030E064
:1038C00040E050E060E070E080E090E06F0100E8F0
:1038D000C01AD1081CC0A090E200B090E300E090B4
:1038E000E400F090E5001091E600D091E700C0916F
:1038F000E800B091E90021E030E040E050E060E015
:1039000070E080E090E06F0100ECC01AD1080C2D4F
:103910000E9445374A2C42225B2C53227E2C742273
:103920008F2C8522912E9622D723C823B92321E0FC
:1039300030E040E050E060E070E080E090E0E034B3
:10394000F10510F40E2F0FC08F01E038F10518F4C7
:103950000054110908C0E03CF10518F400581109A1
:1039600002C0005C11090E94453759016A017B01C0
:103970008C019201472D582D692D7D2F8C2F9B2F67
:103980000E945E3709F0C5C1E03CF10548F4E0381B
:10399000F10508F084C0E034F10508F042C005C02C
:1039A000EF3FF10509F008F4B8C021E030E040E055
:1039B00050E060E070E080E090E00E2F0E9445371C
:1039C000209530954095509560957095809590958F
:1039D000E091CA002E23E091CB003E23E091CC0081
:1039E0004E23E091CD005E23E091CE006E23E09166
:1039F000CF007E23E091D0008E23E091D1009E2362
:103A00002093CA003093CB004093CC005093CD005C
:103A10006093CE007093CF008093D0009093D1003C
:103A200079C18F010054110921E030E040E050E0FD
:103A300060E070E080E090E00E944537209530958E
:103A4000409550956095709580959095E091D20045
:103A50002E23E091D3003E23E091D4004E23E09149
:103A6000D5005E23E091D6006E23E091D7007E233F
:103A7000E091D8008E23E091D9009E232093D200BC
:103A80003093D3004093D4005093D5006093D60078
:103A90007093D7008093D8009093D9003BC18F01D9
:103AA0000058110921E030E040E050E060E070E0B3
:103AB00080E090E00E9445372095309540955095E4
:103AC0006095709580959095E091DA002E23E091B5
:103AD000DB003E23E091DC004E23E091DD005E231D
:103AE000E091DE006E23E091DF007E23E091E000B4
:103AF0008E23E091E1009E232093DA003093DB00D7
:103B00004093DC005093DD006093DE007093DF0093
:103B10008093E0009093E100FDC08F01005C1109EB
:103B200021E030E040E050E060E070E080E090E0D4
:103B30000E94453720953095409550956095709539
:103B400080959095E091E2002E23E091E3003E23E2
:103B5000E091E4004E23E091E5005E23E091E60071
:103B60006E23E091E7007E23E091E8008E23E09150
:103B7000E9009E232093E2003093E3004093E400A9
:103B80005093E5006093E6007093E7008093E800AF
:103B90009093E900BFC0EF3FF10511F008F0B6C007
:103BA000E034F105D0F46090CA007090CB008090B2
:103BB000CC009090CD00D091CE00C091CF00B091BC
:103BC000D0005090D10021E030E040E050E060E0D3
:103BD00070E080E090E00E2F59C0E038F105E0F48D
:103BE0006090D2007090D3008090D4009090D50067
:103BF000D091D600C091D700B091D8005090D90094
:103C000021E030E040E050E060E070E080E090E0F3
:103C10008F01005411093AC0E03CF105E0F46090D6
:103C2000DA007090DB008090DC009090DD00D09195
:103C3000DE00C091DF00B091E0005090E10021E093
:103C400030E040E050E060E070E080E090E08F0124
:103C5000005811091BC06090E2007090E300809052
:103C6000E4009090E500D091E600C091E700B091AB
:103C7000E8005090E90021E030E040E050E060E0F2
:103C800070E080E090E08F01005C11090E944537F0
:103C90006222732284229522D623C723B823592275
:103CA000E034F10550F421E030E040E050E060E025
:103CB00070E080E090E00E2F17C08F01E038F10532
:103CC00018F40054110908C0E03CF10518F400583C
:103CD000110902C0005C110921E030E040E050E031
:103CE00060E070E080E090E00E94453759016A0191
:103CF0007B018C01A1E09301A4016D2F7C2F8B2F00
:103D0000952D0E945E3719F4A0E001C0A1E0A170DA
:103D100001C0A62D8A2FDF91CF911F910F91FF90A7
:103D2000EF90DF90CF90BF90AF909F908F907F905B
:103D30006F905F904F9008959093EF008093EE0006
:103D40000895E091EE00F091EF00309721F001909E
:103D5000F081E02D099480E00895EF92FF920F9397
:103D60001F93CF93DF93E091EE00F091EF00309737
:103D7000B1F18C010280F381E02D099580914E0113
:103D800082FF2DC080FF04C087EF99E00E942D09BB
:103D9000E80118E081EFE82E89E0F82E80914E01CD
:103DA00080FF0BC088811F928F93FF92EF920E9439
:103DB000C6090F900F900F900F901150219611117E
:103DC000EDCF80914E0180FF0AC08FEE99E0DF9128
:103DD000CF911F910F91FF90EF900C942D09DF91DF
:103DE000CF911F910F91FF90EF9008952091EC00DB
:103DF0003091ED008217930771F09093ED0080935E
:103E0000EC00E091EE00F091EF00309721F0068099
:103E1000F781E02D099408952091EA003091EB009C
:103E20008217930771F09093EB008093EA00E09182
:103E3000EE00F091EF00309721F00084F185E02D45
:103E40000994089581E008950E94242A0E94320B6B
:103E50000E94F82A0E941A2F0C942117CF93C82F82
:103E600080914E0182FF1EC080FF04C080E19AE075
:103E70000E942D0980914E0180FF0CC01F92CF93AC
:103E80008BE09AE09F938F930E94C6090F900F904A
:103E90000F900F9080914E0180FF04C089E09AE05E
:103EA0000E942D098C2FCF910C94600D4F925F9240
:103EB0007F928F929F92AF92BF92CF92DF92EF92BA
:103EC000FF920F931F93CF93DF93CDB7DEB72A975F
:103ED0000FB6F894DEBF0FBECDBF0E946A0B0E94E2
:103EE000221F811111C08FEF89838A831B820E9458
:103EF0002B2A8160782F9D838C8349815A816B8125
:103F00008D810E94122057C091EFC92E90E0D92ECA
:103F100000E010E0AA24A394B12C702E802F0E9400
:103F2000C20B4C01F601419051906F014826592671
:103F30004114510431F40F5F1F4F0830110569F728
:103F4000D2CF80914E0181FD0E94CB0B20E030E06A
:103F50007501022E02C0EE0CFF1C0A94E2F7C701A5
:103F600084219521892B09F12E837F828E209F2029
:103F700091E0892809F490E098870E942B2A8160BB
:103F8000782F9A8789874E815F8168858A850E940C
:103F90001220000F111FF801EF50FF4F8081918117
:103FA000E826F926F182E08206C02F5F3F4F2F30CE
:103FB000310571F6C0CF1091F0000E94A11E1817B4
:103FC000D9F00E94A11E8093F0002A960FB6F894B3
:103FD000DEBF0FBECDBFDF91CF911F910F91FF903C
:103FE000EF90DF90CF90BF90AF909F908F907F9099
:103FF0005F904F900C942E1F2A960FB6F894DEBF58
:104000000FBECDBFDF91CF911F910F91FF90EF9029
:10401000DF90CF90BF90AF909F908F907F905F90F8
:104020004F900895CF93DF93CDB7DEB72B970FB6A0
:10403000F894DEBF0FBECDBF4F83588769877A875C
:104040008B87DE01119686E0FD0111928A95E9F7D2
:1040500085E0FE01379601900D928A95E1F749813E
:104060005A816B817C818D819E810E9474262B9662
:104070000FB6F894DEBF0FBECDBFDF91CF9108958C
:10408000FC01808191810E94E1280895CF93DF9304
:104090001F92CDB7DEB7882309F4AFC0682F8CEF2D
:1040A000860F813A70F4862F69830E94CB2E698136
:1040B0008111A3C080916300909164000E94182A2E
:1040C0000CC080E2860F883068F4677081E001C020
:1040D000880F6A95EAF70E9457290F90DF91CF91D8
:1040E0000C9421298BE5860F833088F4653A29F0FA
:1040F000663A31F083E890E005C081E890E002C0C4
:1041000082E890E00F90DF91CF910C94F61E88E545
:10411000860F853108F071C0683A61F1693A69F13A
:104120006A3A71F16B3A79F16C3A81F16B3B89F142
:104130006C3B91F16D3A99F1603BA1F16E3AA9F1B6
:104140006F3AB1F1613BB9F1623BC1F1633BC9F137
:10415000643BD1F1653BD9F1663BE1F1673BE9F1A5
:10416000683BF1F1693BF9F16A3B09F43FC080E03B
:1041700090E03EC082EE90E03BC089EE90E038C017
:104180008AEE90E035C085EB90E032C086EB90E09F
:104190002FC083EB90E02CC084EB90E029C087EB2C
:1041A00090E026C08CEC90E023C08DEC90E020C025
:1041B00083E891E01DC08AE891E01AC082E991E0AD
:1041C00017C084E991E014C081E292E011C083E25B
:1041D00092E00EC084E292E00BC085E292E008C05B
:1041E00086E292E005C087E292E002C08AE292E0B5
:1041F0000F90DF91CF910C940C1F0F90DF91CF9116
:104200000895882349F1682F8CEF860F813A38F49E
:1042100080916300909164000E941A2A0CC080E291
:10422000860F883050F4677081E001C0880F6A956E
:10423000EAF70E945D290C9421298BE5860F8330D3
:1042400020F480E090E00C94F61E685A653120F46A
:1042500080E090E00C940C1F0895882321F00E94C8
:1042600057290C9421290895882321F00E945D2963
:104270000C94212908954F925F926F927F92BF9282
:10428000CF92DF92EF92FF920F931F93CF93DF9322
:104290007C01D62FC72FFC01058102950F7012817A
:1042A00011110E9474290E941A29882379F0112380
:1042B00069F080E28D0F883048F082E00E94032987
:1042C0000E941A2991E0B82EB92601C0B12CCC2E3B
:1042D000C2948FE0C822D12CF601E35CFF4F0C940E
:1042E0003F378C2F807FCF70882311F0C295C07F1D
:1042F000112399F0CC2309F48EC180E28D0F883010
:1043000010F0D11104C08C2F0E94572903C08C2FAC
:104310000E9467290E9421297EC18D2F0E940121C0
:10432000CC2309F4C1C180E28D0F883010F0D11187
:1043300004C08C2F0E945D2903C08C2F0E946D2920
:104340000E942129B1C18C2F807FCF70803211F063
:10435000C295C07FDD2319F0D130C9F022C01123EE
:1043600071F0002341F0013031F40E948D298C2B33
:104370000E94872999C10E948D298C2B1DC0002382
:1043800019F0013009F490C10E948A291AC0112342
:1043900021F0063008F088C10EC0053008F084C155
:1043A00010C0112361F0002331F0F701858180FFF7
:1043B00032C18F7085838C2F0E942D2175C1011110
:1043C0003BC18C2FE6C08C2F86958695837090E03C
:1043D000009719F0019761F067C1112321F08D2F2B
:1043E0009C2F937002C080E090E00E94F61E6CC18A
:1043F000112321F08D2F9C2F937002C080E090E05C
:104400000E940C1F61C18C2F837009F050C01111E4
:1044100057C18D2F829586958770880F880F9D2FA5
:104420009F70492E512C612C712C082E04C0440C15
:10443000551C661C771C0A94D2F7D4FF14C00FE0F9
:1044400010E020E030E0B901A80104C0440F551F7E
:10445000661F771F8A95D2F7CB01BA0160957095D8
:104460008095909503C060E070E0CB01C695C6953D
:10447000C370D0E0C230D10561F0C330D10581F006
:104480006429752986299729219771F00E94B727F9
:1044900017C164297529862997290E94C92710C147
:1044A0000E94B727C301B2010E94A52709C11123A9
:1044B00019F08C2F817001C08695882309F400C102
:1044C0008D2F829586958770880F880F9D2F9F70FE
:1044D000492E512C612C712C082E04C0440C551C03
:1044E000661C771C0A94D2F7D4FF14C00FE010E0CA
:1044F00020E030E0B901A80104C0440F551F661F39
:10450000771F8A95D2F7CB01BA0160957095809597
:10451000909503C060E070E0CB01C695C695C3706E
:104520004C2F50E04230510569F04330510589F07D
:1045300064297529862997294130510571F00E9417
:104540007D28BEC064297529862997290E948F2855
:10455000B7C00E947D28C301B2010E946B28B0C081
:104560008D2F90E0FC01E05EF109E531F10508F0E6
:104570004EC0E35BFF4F0C943F37DF708C2F8F7181
:10458000112321F00E9404288D2F16CF0E94252888
:104590008D2F0E94342188C0112341F0053008F08E
:1045A00083C08C2F8F710E944A287EC0063008F08D
:1045B0007BC0F7CF112339F08C2F8F710E94042814
:1045C00073C01123C9F38C2F8F710E9425286CC0F2
:1045D000112329F08C2F8F710E94EF2765C00E9454
:1045E000EA2762C0112349F0CF718C2F0E94042862
:1045F00063E08C2F0E94FA2857C081E00E940329B3
:10460000023008F451C082E00E9403294DC01123FA
:1046100031F0002389F28D2F0E94462045C00023EF
:1046200091F2D93349F45FEF6DEE72E05150604082
:104630007040E1F700C000008D2F0E94012134C0BE
:104640004C2F4F706D2FC7010E940E100E9418272B
:104650003BC0111139C0CF70D0E0C230D10599F004
:104660003CF4209769F02197F9F40E94672F2CC041
:10467000C430D10571F054F02597B1F480E00AC040
:104680000E94372F21C00E94962F1EC00E94C32F68
:104690001BC08CE00E94F92F17C04C2F4F706D2F5C
:1046A000C7010E94111010C088E0C816D10441F063
:1046B0005CF0EAE0CE1AD108F2E0CF16D10420F483
:1046C0000E94A11E0E94600DBB20F1F00E94F628FE
:1046D00080FD1AC0F70112820E94F0280E9404286F
:1046E000C7010E9492230E94F028DF91CF911F9171
:1046F0000F91FF90EF90DF90CF90BF907F906F90E1
:104700005F904F900C942528DF91CF911F910F91CE
:10471000FF90EF90DF90CF90BF907F906F905F9071
:104720004F9008950F931F93CF93DF93EC018881EF
:1047300099812B813C81232BB9F09F3F11F48F3F4E
:1047400099F0CE010E94720D882371F06881798101
:104750008A810E94EC288C010E94A1280E94A22735
:10476000B801CE010E943B21DF91CF911F910F91A3
:1047700008950E9474290E94842980916300909179
:1047800064000E941C2A0E94212980E090E00E947F
:10479000F61E80E090E00C940C1F0E9464290C949B
:1047A000B9230E94E128E92FE295EF70F0E03297FB
:1047B000EE30F105B0F4EE59FF4F0C943F37803FD7
:1047C00091F018F4803E68F40EC0843F51F40BC0A1
:1047D000803E48F0813F29F406C093FB882780F98A
:1047E000089580E0089581E00895CF93DF9300D08D
:1047F00000D01F92CDB7DEB70F900F900F900F90A3
:104800000F90DF91CF910895CF93DF9300D000D028
:1048100000D0CDB7DEB726960FB6F894DEBF0FBE38
:10482000CDBFDF91CF9108951F93CF93DF93C091B8
:10483000010116E080910201C81799F0D0E01C9F99
:10484000F0011D9FF00D1124ED5FFE4F408151815D
:1048500062817381848195810E9404242196C770AE
:10486000E9CFDF91CF911F9108954091330150918D
:10487000340160913501709136018091370190913A
:1048800038010C9404248091380182958F7009F0CE
:1048900054C080913501882309F44FC080910101F3
:1048A000A091020160913301709134014091360171
:1048B00050913701B6E08A1709F43FC090E04115E6
:1048C0005105C1F17F3F11F46F3FA1F1B89FF00195
:1048D000B99FF00D1124ED5FFE4F218172132AC0A4
:1048E0002081621327C02281211124C023813481B9
:1048F0002417350710F421503109241B350B283CAF
:104900003105C0F4209138012F70206120933801C7
:1049100026E0289FF001299FF00D1124E85FFE4F4B
:1049200080818F708061808383E391E00E94922375
:104930000C94142401968770BECF0895CF92DF9215
:10494000EF92FF920F931F93CF93DF93CDB7DEB714
:1049500062970FB6F894DEBF0FBECDBF8C0185E025
:10496000F801DE011D9601900D928A95E1F7D801BC
:104970004C9111965C91119712966C911297139627
:10498000CD90DC9014973091330170913401809177
:10499000360190913701009709F46BC17F3F19F4FC
:1049A0003F3F09F466C1E0903501EE2009F4C0C034
:1049B00020913801C816D90628F0F601E81BF90B3A
:1049C000CF0104C0809590958C0D9D1DFF24F3941C
:1049D000883C910578F0F12C207F09F0C6C07C2D31
:1049E000D98AC88A89890E94F52383E391E00E94CD
:1049F0009223B1C0822F807F09F046C0751314C086
:104A0000341312C0611110C02F702061209338013F
:104A10000E94352483E391E00E9492238091380123
:104A2000D80115968C932EC0CD2819F15F3F11F453
:104A30004F3FF9F0F62E61111CC0809101012091C9
:104A4000020136E0821709F45AC090E0389FF00165
:104A5000399FF00D1124ED5FFE4F7181571306C091
:104A60007081471303C07281711103C00196877072
:104A7000E9CFF62E662309F427C1809138018160C1
:104A800080933801F12C20C1751308C0341306C07F
:104A9000611104C080913801D801C3C04D875E8781
:104AA0008D859E856A8B0E94D1236A898823E1F1D6
:104AB0006623D1F120913801822F82958F7090E08A
:104AC000029774F0809133019091340198878F831D
:104AD0001986DB86CA862C87CE0107960E94922310
:104AE00086E0F801A3E3B1E001900D928A95E1F729
:104AF0000E9443240E943524FF24F394E5C04D878F
:104B00005E878D859E850E94E128292F22952F7032
:104B100030E0223031050CF0CBC09F7009F0C5C0E9
:104B2000805E883008F4D0C0C8010E949223E4CF90
:104B3000C816D90608F453C0F601E81BF90BCF01DB
:104B4000883C910508F450C0F12C7C2DD98AC88A84
:104B500089890E94F523E3E3F1E086E0DF011D92FD
:104B60008A95E9F70E943524AFC0751314C0341339
:104B700012C0611110C080913801F8018583C8010D
:104B80000E94922386E0E3E3F1E0DF011D928A9523
:104B9000E9F7FE2C99C04D875E878D859E856A8BCF
:104BA0000E94D1236A89882309F4BECF662309F4C1
:104BB000BBCF20913801822F82958F7090E00297B1
:104BC0000CF48ECF80913301909134019A838983C4
:104BD0001B82DD82CC822E83CE0101967FCF809511
:104BE00090958C0D9D1DACCFF62E662309F49CCFBD
:104BF00075132EC034132CC02091380120FD1FC026
:104C0000822F82958F70D9F0D80115962C93159725
:104C10008F3049F08F5F982F9295907F822F8F7001
:104C2000892B15968C93C8010E94922386E0F80187
:104C3000A3E3B1E001900D928A95E1F793CF86E06E
:104C4000F801A3E3B1E001900D928A95E1F73CC031
:104C50004D875E878D859E850E94D123811140CF2F
:104C600080913801816080933801C8010E949223AD
:104C70002BC0662309F458CF4D875E878D859E85AE
:104C80000E94D123F82E882309F44ECF86E0F80144
:104C9000A3E3B1E001900D928A95E1F783E391E0FF
:104CA0000E9440200E9443245DCF811139CF0CC067
:104CB000243031050CF038CF9F7009F431CFF80162
:104CC0009581907F09F02CCF8F2D62960FB6F894C6
:104CD000DEBF0FBECDBFDF91CF911F910F91FF902F
:104CE000EF90DF90CF9008951F93CF93DF93CDB7D0
:104CF000DEB72C970FB6F894DEBF0FBECDBF4F8343
:104D0000588769877A878B879C87CE0107960E9490
:104D10009E24882369F08F8198852A853B85232BE3
:104D2000F1F19F3F09F063C08F3F09F060C037C0C9
:104D300086E0FE013796DE01119601900D928A956C
:104D4000E1F76F817885EA85FB85309741F17F3FF8
:104D500011F46F3F21F12091020130E0C901019669
:104D6000877099274091010150E08417950709F455
:104D700047C069837A83FD83EC8396E0929FD001DC
:104D8000939FB00D1124AD5FBE4FFE01319601908F
:104D90000D929A95E1F7809302010E94142416E087
:104DA00080910101909102018917C1F1189FC00102
:104DB00011248D5F9E4F0E949E24882379F1E091FB
:104DC00001011E9FF0011124ED5FFE4F40815181D2
:104DD00062817381848195810E9404248091010104
:104DE00090E001968770992780930101D9CF4F8178
:104DF000588569857A858B859C850E940424CFCF50
:104E00000E94CD231092020110920101E3E3F1E030
:104E100086E0DF011D928A95E9F7C1CF2C960FB687
:104E2000F894DEBF0FBECDBFDF91CF911F910895E3
:104E3000EF92FF920F931F93CF93DF938C01892BF7
:104E400009F46CC0F12CEE24E394E8012196F801FA
:104E50008491843740F4843008F051C0813081F06F
:104E6000823019F15BC0853709F444C0A8F19CE792
:104E7000980F903708F052C08F770E94012141C0EF
:104E80000E5F1F4FFE01C49180E28C0F883048F402
:104E9000C7708E2D01C0880FCA95EAF70E94772946
:104EA00014C08C2F0E9446202DC00E5F1F4FFE01A4
:104EB000C49180E28C0F883058F4C7708E2D01C0E9
:104EC000880FCA95EAF70E947D290E9421291AC0FD
:104ED0008C2F0E94012116C00E5F1F4FFE01C4914E
:104EE000CC2381F087EB9BE00197F1F700C0000035
:104EF000C150F6CF0E5F1F4FFE01F49003C00E9419
:104F000046208E018F2D882309F49FCFE7EBFBE02D
:104F10003197F1F700C000008150F5CFDF91CF91BC
:104F20001F910F91FF90EF90089508950E9495278B
:104F300060933D0170933E0180933F019093400147
:104F40000C94B92308950C9496270F931F93009106
:104F50003D0110913E0120913F0130914001602BB5
:104F6000712B822B932B1F910F910C9496270F93EB
:104F70001F9300913D0110913E0120913F0130911E
:104F8000400160237123822393231F910F910C947E
:104F900096270F931F9300913D0110913E012091A0
:104FA0003F013091400160277127822793271F918D
:104FB0000F910C94962708950C94DB270E94DC2710
:104FC0006093390170933A0180933B0190933C01C7
:104FD0000C94B92360E070E0CB010C94DE270F93B2
:104FE0001F9341E050E060E070E08A019B0104C043
:104FF000000F111F221F331F8A95D2F7C901B80174
:105000001F910F910C94DE270F931F9341E050E006
:1050100060E070E004C0440F551F661F771F8A953B
:10502000D2F78091390190913A01A0913B01B09162
:105030003C018A019B01082B192B2A2B3B2BC90110
:10504000B8011F910F910C94DE270F931F9341E03D
:1050500050E060E070E004C0440F551F661F771FEA
:105060008A95D2F740955095609570958091390159
:1050700090913A01A0913B01B0913C018A019B01C2
:10508000082319232A233B23C901B8011F910F913B
:105090000C94DE270F931F9341E050E060E070E036
:1050A00004C0440F551F661F771F8A95D2F7809161
:1050B000390190913A01A0913B01B0913C018A01E4
:1050C0009B01082719272A273B27C901B8011F91EF
:1050D0000F910C94DE270F931F93009139011091CB
:1050E0003A0120913B0130913C01602B712B822BC6
:1050F000932B1F910F910C94DE270F931F93009118
:10510000390110913A0120913B0130913C0160231B
:105110007123822393231F910F910C94DE270F9309
:105120001F930091390110913A0120913B01309178
:105130003C0160277127822793271F910F910C94C0
:10514000DE270895CF92DF92EF92FF920F931F9385
:10515000CF93DF938C01C0903D01D0903E01E09051
:105160003F01F09040018091390190913A01A09166
:105170003B01B0913C01C82AD92AEA2AFB2ACFE197
:10518000D0E0D701C6010C2E04C0B695A79597951F
:1051900087950A94D2F780FF06C0B8018C2F0E9431
:1051A0002C10019721F4219760F780E001C08C2F2B
:1051B000DF91CF911F910F91FF90EF90DF90CF90F3
:1051C0000895CF93DF93EC010E94A228BE010E94B4
:1051D0002C10DF91CF910895CB010E94E128089512
:1051E000809141018595859585950895809141012E
:1051F0008770089598E0899F90011124262B2093B1
:1052000041010C94042820914101809582238093D0
:105210004101982F977069F430E0482F082E000C58
:10522000550B2417350729F08595859585950C94A0
:105230002528089590914101977081E009F480E05C
:105240000895E0916300F091640080914D018083A6
:10525000E0916300F0916400908180914C01892B72
:105260008083E0916300F0916400908180914B0114
:10527000892B808380914201882381F0E091630033
:10528000F09164009081892B8083809163009091DC
:1052900064000E94E529811110924201809163000F
:1052A000909164000C94AD1E80914D0108959091F1
:1052B0004D01892B80934D010895809590914D016A
:1052C000892380934D01089510924D010895909186
:1052D0004C01892B80934C010895809590914C014D
:1052E000892380934C01089510924C010895909168
:1052F0004B01892B80934B010895809590914B0130
:10530000892380934B01089510924B010895809357
:10531000420108951092420108958091420108953A
:105320006DEE7EEF80E090E00E94983760E082E0D2
:1053300090E00E947B3760E083E090E00E947B3742
:1053400060E084E090E00E947B3760E085E090E0E0
:105350000E947B3760E086E090E00E947B3740E06F
:1053600050E0BA0188E090E00C948C3780E090E047
:105370000E94753721E08D3E9E4F09F020E0822F7C
:10538000089582E090E00C946737682F82E090E007
:105390000C947B3783E090E00C946737682F83E0B0
:1053A00090E00C947B3784E090E00C946737682F92
:1053B00084E090E00C947B3786E090E00C946737B3
:1053C000682F86E090E00C947B37FC0131969C01BD
:1053D000285F3F4F80E0919191118F5FE217F307B3
:1053E000D1F708959C01FC0132969FEF80E0419136
:1053F000461789F09F3F19F4411101C0982F8F5F24
:105400008630A9F79F3F39F0F901E90FF11D97FDAB
:10541000FA95628308950895FC01329608962081DA
:10542000261301C010823196E817F907C1F70895D5
:105430000C94F2290C940C2AFC01319608961192D6
:10544000E817F907E1F708958BE083BF8BEB8CBF7A
:1054500082E089BF08952FB7F89480910D02909152
:105460000E02A0910F02B09110022FBF08952FB726
:10547000F89460910D0270910E0280910F0290914C
:1054800010022FBF0895CF92DF92EF92FF920F93F9
:105490001F932FB7F89440910D0250910E02609126
:1054A0000F02709110022FBF6A017B01EE24FF24CE
:1054B0008C0120E030E0C016D106E206F30610F4BD
:1054C000415051099A01281B390BC9011F910F91B5
:1054D000FF90EF90DF90CF90089578941F920F92F5
:1054E0000FB60F9211248F939F93AF93BF93809128
:1054F0000D0290910E02A0910F02B0911002019640
:10550000A11DB11D80930D0290930E02A0930F0276
:10551000B0931002BF91AF919F918F910F900FBEEA
:105520000F901F90189560E081E090E00E949E37F8
:1055300087E090EBDC018093570290935802A09390
:105540005902B0935A029CE088E10FB6F894A895EE
:1055500081BD0FBE91BDFFCFAF92BF92CF92DF92C0
:10556000EF92FF920F931F93CF93C0E0CC24C3948C
:10557000D12CE82EF12C8C2F0E94C20B5C0100E094
:1055800010E09601002E02C0220F331F0A94E2F7AA
:105590002A213B21232B31F40F5F1F4F0F301105C0
:1055A00081F70AC0602F7C2F80E00E941210E8165D
:1055B000F90691F781E004C0CF5FC830E1F680E0E2
:1055C000CF911F910F91FF90EF90DF90CF90BF9000
:1055D000AF900895CF93C82F8CE20E94AC2A882305
:1055E00021F08C2FCF910C94AC2A80E0CF910895BC
:1055F000CF930E94B629811102C00E9490298AE2AD
:105600009AE00E942D09C5E6C15049F00E946A0B3C
:105610008FE295E70197F1F700C00000F5CF83E234
:105620009AE00E942D0989E20E94EA2A81110FC1A5
:105630008AE20E94EA2A81110E94902985E00E9454
:10564000EA2A81110E94932A0E94C12980934E0167
:1056500087E00E94EA2A8823A9F18BE10E94EA2AC6
:10566000882351F080914E0181FB222720F991E09F
:10567000922790FB81F90EC08EE00E94EA2A8823CF
:1056800061F080914E0182FB222720F991E0922760
:1056900090FB82F980934E0115C080E10E94EA2AB6
:1056A00090914E01882341F093FB222720F981E05D
:1056B000822780FB93F904C0892F809580FB90F9A5
:1056C00090934E0180914E010E94C5290E94D329DA
:1056D00090E0909312028093110280EE0E94EA2AD9
:1056E000882341F080911102982F909590FB80F9CA
:1056F0008093110289E30E94EA2A882359F080915D
:10570000110281FB222720F991E0922790FB81F979
:105710008093110282EE0E94EA2A882359F0809138
:10572000110282FB222720F991E0922790FB82F957
:105730008093110286EE0E94EA2A882359F0809114
:10574000110283FB222720F991E0922790FB83F935
:105750008093110283EE0E94EA2A882359F08091F7
:10576000110284FB222720F991E0922790FB84F913
:105770008093110285E30E94EA2A882359F08091E0
:10578000110285FB222720F991E0922790FB85F9F1
:105790008093110281E30E94EA2A882359F08091C4
:1057A000110286FB222720F991E0922790FB86F9CF
:1057B0008093110281E10E94EA2A882359F08091A6
:1057C000110287FB222720F991E0922790FB87F9AD
:1057D00080931102809111020E94D72987E20E94D2
:1057E000EA2AC82F8EE10E94EA2A8111C2608FE165
:1057F0000E94EA2A8111C46080E20E94EA2A811193
:10580000C86081E20E94EA2A8111C06182E20E949E
:10581000EA2A8111C06283E20E94EA2A8111C064EF
:1058200084E20E94EA2A882311F0C06802C0CC23D7
:1058300029F08C2F0E94CE296C2F03C00E94CA2908
:10584000682F70E080E090E0CF910C94A327CF9177
:105850000895CF93C82F1F928F9385E49AE09F936A
:105860008F930E94C60981E090E0A0E0B0E0BC0107
:10587000CD0104C0660F771F881F991FCA95D2F704
:105880000E94A3270F900F900F900F90CF910C9430
:10589000CD23CF938732B0F58E3108F06AC28E30B7
:1058A00009F4FEC100F5873009F4CBC1A8F48630B5
:1058B00009F065C280914E01817F8E7F80934E01F9
:1058C00089E89BE00E942D0981E59FE00E942D0957
:1058D00081E080934F01B3C1883009F43FC08B3021
:1058E00009F4A9C14CC2863109F420C220F48031E8
:1058F00009F4EAC144C2893109F401C28B3109F4C7
:10590000BBC13DC2883309F496C150F4893209F411
:1059100032C2853309F42FC2873209F42CC22FC258
:10592000833409F428C228F48A3308F428C289533E
:1059300023C2883409F023C20E94CD2385E39FE06F
:105940000E942D099FEF2EE984E291502040804073
:10595000E1F700C000000E94932A71C185E59FE035
:105960000E942D0987EB9EE00E942D090E94CA2902
:105970001F928F9384EB9EE09F938F930E94C609A2
:1059800082EB9EE00E942D090E94C129C82F8FE959
:105990009EE00E942D091F92CF938AE99EE09F937B
:1059A0008F930E94C60988E99EE00E942D098EE827
:1059B0009EE00E942D098C2F81701F928F938BE89F
:1059C0009EE09F938F930E94C60989E89EE00E9403
:1059D0002D098FE79EE00E942D09C1FB882780F9E1
:1059E0001F928F938CE79EE09F938F930E94C6092E
:1059F0008AE79EE00E942D098EE69EE00E942D0916
:105A0000C2FB882780F91F928F938BE69EE09F93BD
:105A10008F930E94C60989E69EE00E942D0980E6C8
:105A20009EE00E942D09C3FBCC27C0F91F92CF93A3
:105A30008DE59EE09F938F930E94C6098BE59EE0C3
:105A40000E942D090E94D329C82F87E49EE00E945E
:105A50002D091F92CF9382E49EE09F938F930E9423
:105A6000C60980E49EE00E942D0987E29EE00E9424
:105A70002D098C2F81701F928F9384E29EE09F935B
:105A80008F930E94C6098DB79EB780960FB6F89483
:105A90009EBF0FBE8DBF82E29EE00E942D098BE06B
:105AA0009EE00E942D09C1FB882780F91F928F93E9
:105AB00088E09EE09F938F930E94C60986E09EE057
:105AC0000E942D0984EF9DE00E942D09C2FB8827CA
:105AD00080F91F928F9381EF9DE09F938F930E9497
