:100000000C94AE040C94F2040C940D050C94F204C0
:100010000C94F2040C94F2040C94F2040C94F20488
:100020000C94F2040C9477070C94EB230C94F204D8
:100030000C94F2040C94F2040C94F2040C94F20468
:100040000C94F2040C94F2040C94F2040C94F20458
:100050000C94F204370939093B0946093D093F0967
:1000600041094309450948094A094C0957094E09FC
:10007000500952095409560967095909FC19FC1914
:100080002E1A2E1A7B1AD11BD11BD11B991A2E1B8B
:100090003F1B3F1BA01BA91BD11BCA1B531C531C7E
:1000A000651C651C5C1C651C651C651C531C531C75
:1000B000611C651C651C611C215B5D2829003100E9
:1000C000130012000C00150017001C001800080097
:1000D0001A0014002B000000000000003400330060
:1000E0000F000E0009000A000B000D0007001600AB
:1000F000040029420000000000002A00270026001A
:100100002500210022002300240020001F001E00E3
:100110003500000000000000387237003600100083
:10012000060019000500110028001B001D00E10059
:100130000000000000004C002E002D00E4002C0008
:100140002C0001510151E200E300E000E00000005A
:10015000000000000000000000000000000000009F
:10016000000000000000000000000000000000008F
:10017000000000000000000000000000000000007F
:10018000000000000000000000000000000000006F
:10019000000000000000000000000000000000005F
:1001A0000000000000000000000000000000005CF3
:1001B00046004E0052003002220023004B002F0266
:1001C000E300A600280000000000000028004D0009
:1001D0004F00510027024D004A00500026025000F7
:1001E0004A003900000000000000440043004200C3
:1001F00041003D003E003F0040003C003B003A0013
:1002000045000000000000003802A900AA00AE006E
:100210003000F85CC95CC65C2F004C002A0001006D
:100220000000000000000100A900AA000100AE00CB
:10023000AE0001000100010001000100010000000A
:1002400000000000000000000000000000000000AE
:10025000000000000000000000000000000000009E
:10026000000000000000000000000000000000008E
:10027000000000000000000000000000000000007E
:10028000000000000000000000000000000000006E
:10029000000000000000000000000000000031002D
:1002A0004600BE5CBD5C30020100BB5CBC5C2F0242
:1002B0000100A600AE000000000000002800300091
:1002C0002F003702270236023702360226020100CB
:1002D0000100010000000000000044002E002D007D
:1002E0004100440045003F00400043003E003E0105
:1002F0004500000000000000CD5CC75CC85CC55C28
:100300003000F85CC95CC65C2F00010001000100F0
:10031000000000000000AE00A900AA00AB002C0104
:100320002C0101000100010001000100C05C00007F
:1003300000000000000000000000000000000000BD
:1003400000000000000000000000000000000000AD
:10035000000000000000000000000000000000009D
:10036000000000000000000000000000000000008D
:10037000000000000000000000000000000000007D
:10038000000000000000000000000000000001006C
:100390000100010001000100010001000100010055
:1003A0000100010001000000000000000100010048
:1003B0000100010001000100010001000100010035
:1003C0000100010000000000000001000100010028
:1003D0000100010001000100010001000100010015
:1003E0000100000000000000010001000100010008
:1003F00001000100010001000100010001000100F5
:10040000000000000000BB5CBE5CBD5CBC5C010089
:1004100001000100010001000100010001000000D5
:1004200000000000000000000000000000000000CC
:1004300000000000000000000000000000000000BC
:1004400000000000000000000000000000000000AC
:10045000000000000000000000000000000000009C
:10046000000000000000000000000000000000008C
:10047000000000000000000000000000000000007C
:100480000000000000002A2B2800000000000000EF
:1004900000000000000000000029000000002C1EE9
:1004A0003420212224342627252E362D3738271EA6
:1004B0001F202122232425263333362E37381F04CC
:1004C00005060708090A0B0C0D0E0F101112131464
:1004D00015161718191A1B1C1D2F3130232D350422
:1004E00005060708090A0B0C0D0E0F101112131444
:1004F00015161718191A1B1C1D2F3130354C00000A
:1005000000000000000000000000000000000000EB
:1005100000000000000000000000000000000000DB
:1005200000000000000000000000000000000000CB
:1005300000000000000000000000000000000000BB
:1005400000000000000000000000000000000000AB
:10055000000000000000000000000000000000009B
:10056000000000000000000000000000000000008B
:10057000000000000000000000000000000000007B
:10058000000000000000000000000000000000006B
:10059000000000000000000000000000000000015A
:1005A0000101010101000101010100000000000042
:1005B0000000000000000000010001000101010135
:1005C000010101010101010101010101010101011B
:1005D0000101010101010101010000000101000010
:1005E000000000000000000000000000000000000B
:1005F00000000000000000000001010101000004F3
:100600007F3F1F643214643214783C1E1E140A05A6
:100610002223252628292A2C2D2F3032333536380F
:100620003A3B3D3E4042434547494A4C4E50515368
:100630005557595A5C5E6062646668696B6D6F718C
:10064000737577797B7D7F81838587898A8C8E908E
:10065000929496989A9C9E9FA1A3A5A7A8AAACAE97
:10066000AFB1B3B4B6B8B9BBBCBEBFC1C2C3C5C6D7
:10067000C7C9CACBCCCDCED0D1D2D2D3D4D5D6D780
:10068000D7D8D9D9DADADBDBDBDCDCDCDCDCDDDDBE
:10069000DDDDDCDCDCDCDCDBDBDBDADAD9D9D8D7AE
:1006A000D7D6D5D4D3D2D2D1D0CECDCCCBCAC9C750
:1006B000C6C5C3C2C1BFBEBCBBB9B8B6B4B3B1AF87
:1006C000AEACAAA8A7A5A3A19F9E9C9A9896949227
:1006D000908E8C8A89878583817F7D7B79777573FE
:1006E000716F6D6B6968666462605E5C5A595755DC
:1006F0005351504E4C4A4947454342403E3D3B3A98
:100700003836353332302F2D2C2A2928262523221E
:10071000FFAA7F554000000000000000000000011B
:1007200001010101010101010202020202020202B1
:10073000030303030303030404040404050505057C
:100740000506060606060707070708080808090938
:10075000090A0A0A0B0B0B0C0C0C0D0D0D0E0E0EDC
:100760000F0F101010111112121313141415151667
:10077000161717181819191A1A1B1C1C1D1D1E1FD5
:100780001F20212122232324252526272828292A22
:100790002B2C2C2D2E2F3031313233343536373847
:1007A000393A3B3C3D3E3F40414243444546474841
:1007B000494B4C4D4E4F50525354555758595A5C13
:1007C0005D5E606163646567686A6B6C6E6F7172B1
:1007D000747677797A7C7D7F8182848687898B8D18
:1007E0008E9092949597999B9D9FA1A2A4A6A8AA4A
:1007F000ACAEB0B2B4B6B9BBBDBFC1C3C5C8CACC3C
:10080000CED0D3D5D7DADCDEE1E3E6E8EAEDEFF2ED
:10081000F4F7F9FCFF09023B0002010080FA090429
:100820000000010301010009210101000122400033
:10083000070581030800010904010001030000000D
:10084000092101010001228400070583030800013A
:1008500005010902A10185020901A100050919018B
:10086000290515002501750195058102750395017E
:1008700081030501093009311581257F750895022D
:10088000810609381581257F3500450075089501D9
:100890008106050C0A38021581257F7508950181AE
:1008A00006C0C005010980A1018503150126B70016
:1008B000190129B7751095018100C0050C0901A126
:1008C0000185041501269C0219012A9C02751095C8
:1008D000018100C005010906A10175019508050700
:1008E00019E029E7150025018102950175088103AA
:1008F00095057501050819012905910295017503F2
:10090000910395067508150026FF000507190029B3
:10091000FF8100C01201100100000008A0202D423C
:100920000002010200011C034A004A0035003000A9
:1009300020004B006500790062006F0061007200CA
:10094000640016034B0050005200650070007500F3
:1009500062006C00690063000403090411241FBED7
:10096000CFE5D8E0DEBFCDBF04B603FE24C0809142
:10097000B1029091B202A091B302B091B40287305B
:10098000904BA740B04BB9F41092B1021092B20252
:100990001092B3021092B40214BE84B7877F84BF52
:1009A0000FB6F894A89581B5886181BD11BC0FBEC2
:1009B000E0E0F8E3099510E0A0E6B0E0EAE3F9E54D
:1009C00002C005900D92A43AB107D9F722E0A4EA3B
:1009D000B0E001C01D92A13BB207E1F70E946D2774
:1009E0000C949B2C0C940000A82FB92F80E090E071
:1009F00041E050EA609530E009C02D91822797953B
:100A0000879510F084279527305EC8F36F5FA8F3B1
:100A10000895EADF8D939D930895CF93CFB7CF9339
:100A2000C395839BE9F7839B0EC0839B0CC0839B7C
:100A30000AC0839B08C0839B06C0C0918802C395EF
:100A4000C0938802A3C0DF93C0918702DD27C157FE
:100A5000DD4F839B02C0DF91E6CF2F930F931F934F
:100A600000B32FEF03FB20F94F933F9310B34FEFE9
:100A7000012703FB21F93BE031C04E7F012F10B36A
:100A8000216028C0102F4D7F2260000000B329C0D4
:100A90004B7F2460012F000010B32BC010B3477FA1
:100AA00028602AC04F7E00B320612CC04F7D10B358
:100AB00020622FC04F7B00B3206432C0422700B3B6
:100AC00049934FEF0000102713FB20F910B31C705F
:100AD000C9F1297F91F2012703FB21F900B3237F9C
:100AE00089F2315058F1102713FB22F910B3277EF9
:100AF00079F2012703FB23F92F7C81F200B3102741
:100B000013FB24F92F7971F200C010B3012703FB06
:100B100025F92F7359F200C000B3102713FB26F9F3
:100B2000223040F200C010B3012703FB27F9243024
:100B300028F64F77206810B30000F9CF10E81ABFED
:100B4000002719C03B503195C31BD04010E81ABF95
:100B50000881033CF9F00B34E9F0209185021981FA
:100B6000110F1213EDCF4A81441F093641F10D32A6
:100B700011F0013E29F700938D023F914F911F9193
:100B80000F912F91DF91CAB7C7FD4ACFCF91CFBF49
:100B9000CF91189520918D02222379F310918B0229
:100BA0001123C1F53430C2F130938B0220938602B9
:100BB000109187023BE0311B309387022DC00091DA
:100BC0008B0201303CF50AE54F7049F430917D000D
:100BD00034FD24C000937D00CEE6D2E023C0433034
:100BE00049F03091790234FD19C000937902CAE7C7
:100BF000D2E018C03091A50234FD10C00093A502C8
:100C0000C6EAD2E00FC02795A8F45150A9F4220FEC
:100C10000000F9CF4AE503C042ED01C0432FC4E113
:100C2000D0E032E011B31C60939A11BB02B320E410
:100C30001CE05F93012756E002BB279520F451503A
:100C400021F4220FF9CF012756E000003B5A02BBE6
:100C5000D0F2279528F4515029F4220F0000F9CF43
:100C6000012756E0279502BB20F4515021F4220FB2
:100C7000F9CF012756E02991332302BB21F6037FE8
:100C800010918C02110FC651D04002BB11F010938D
:100C9000850210E81ABF086011B3137F402F437F0D
:100CA0005F9100C000C002BB11BB42BB66CF8FEF9B
:100CB00087BB88BB1ABA94B39B7B94BB8BBB85B3B1
:100CC0008C6F85BBE4EBF0E0A4EAB0E011921192E6
:100CD0001D921D9280E0E43CF807C1F70C94AC082B
:100CE00021E030E0A90102C0440F551F8A95E2F7C8
:100CF000CA0147BB809588BB0895282F2695257586
:100D0000880F8A7A282B822F86958695837394E0A4
:100D1000299F900111242C7C822B82950895DF92CB
:100D2000EF92FF920F931F93CF93DF9304EA10E0AB
:100D30007801D0E085E0D82E8D2F0E94700644E126
:100D40004A95F1F7C9B383B380950E947D06C0959B
:100D50002C2F30E0D901B82BF70120813181A21767
:100D6000B30721F0B183A083D0926000DF5FF2E08F
:100D7000EF0EF11CD83001F7809160008823C1F09C
:100D8000815080936000882339F087EB9BE00197C6
:100D9000F1F700C000000CC0E4EBF0E0D8018D9149
:100DA0009D918D0181939193B0E0043B1B07B1F7B6
:100DB0000E94A50881E0DF91CF911F910F91FF90D4
:100DC000EF90DF900895E82FF0E0EE0FFF1FEC5456
:100DD000FF4F808191810895089585B3836085BB1D
:100DE00087E080B986B7846086BF86B7816086BF9A
:100DF00086B7806486BF089516BE94EA96BF06B68D
:100E000007FEFDCF91B1987F983011F081E00895F1
:100E100083B984E886BF06B607FEFDCF81B1887F1F
:100E2000883111F0803491F780E0089583B984E827
:100E300086BF06B607FEFDCF91B1987F81E098325C
:100E400009F480E00895DF92EF92FF920F931F93D1
:100E5000CF93DF93D62E072F7A010E94FC06182F1E
:100E600081110CC0CD2DD02FEC0EFD1ECE15DF054F
:100E700039F089910E9416078823C1F311E002C05E
:100E800084E986BF812FDF91CF911F910F91FF9051
:100E9000EF90DF90089580FF03C0889A909A02C077
:100EA0008898909881FF03C0899A919A02C0899886
:100EB000919882FF03C08E9A969A08958E9896987C
:100EC00008958FB58D7F8FBD8FB581608FBD19BCA3
:100ED00018BC08958EB5887F83608EBD1DBC1CBC78
:100EE00089B7846089BF81E08093C40008957894B5
:100EF0001F920F920FB60F9211240F900FBE0F90FA
:100F00001F9018958FB580628FBD8FB58F7E8FBD76
:100F100008958C9A949A08950E946A070E94820705
:100F20000C94890794980E9461070C948C078D306B
:100F300008F08CE0682F70E080E090E00E94EF2ADB
:100F400020E030E04FE753E40E947D2B20E030E0CA
:100F500040E451E40E94472A0E94B92A6F3F71057C
:100F600019F010F06FEF70E079BD68BD08950C9432
:100F700092070C94970780913E0280FF09C00E945F
:100F8000ED0644E250E063E472E080EB0C9423074A
:100F9000E3E4F2E0118210821282339682E0E736B7
:100FA000F807C1F7ECCF08950C94D3070C94D4073D
:100FB0008091C500811110C080913E0280FF0CC05D
:100FC0000E94ED0644E250E063E472E080EB0E9490
:100FD000230781E08093C5000E9477120C94D30709
:100FE000883F9C4541F4FB018281882321F088EBF6
:100FF00090E00E94A20881E0089581E008950C9499
:10100000F0071F93CF93DF9300D000D01F92CDB78E
:10101000DEB749835A836B8320910F0189819A81BE
:10102000211112C0662349F00E94A321182F682FB6
:1010300089819A810E944C2103C00E947721182F38
:1010400069817A81812F04C00E94A32169817A81FC
:101050000F900F900F900F900F90DF91CF911F91F5
:101060000C94DC0AFC01408151816281738184818E
:101070000C9401081F93CF93DF9390E0FC01E2589A
:10108000FB4F1491FC01E258FA4FD491FC01E2505D
:10109000FB4FC491DD2319F081EE0E94AF18CC23E1
:1010A00019F086EE0E94AF18812F0E94A919CC2357
:1010B00019F086EE0E947D19DD2331F081EEDF917B
:1010C000CF911F910C947D19DF91CF911F910895BD
:1010D0000F931F93CF93DF93EC01062FFE018491B2
:1010E000882359F19E012F5F3F4F813041F4E90180
:1010F000F9011491812F0E94AF18812F0DC0823009
:1011000031F4E901F90184910E94AF180AC08330DB
:1011100031F4E901F90184910E947D1902C00E9415
:101120003A082196802F8823C9F2E7EBFBE031973C
:10113000F1F700C000008150F6CFDF91CF911F91F1
:101140000F91089560E00C9468080C94D8070C94F3
:101150004B070C94A70808950E94D522811102C064
:101160000E946E230E94B7070C94D6070E94411C70
:101170000E94AB082FEB87E299E02150804090401D
:10118000E1F700C000000C9411240F931F93CF933C
:10119000DF9300D0CDB7DEB78C010E9432089A836E
:1011A0008983B801CE0101960E941113882309F4A6
:1011B000F7C1B80189819A810E94FF07882309F449
:1011C000EFC1B80189819A810E941C17882309F414
:1011D000E7C189819A81893CFCE59F0741F4F801C8
:1011E0008281882309F4DCC10E946A11D9C18A3C3A
:1011F0002CE5920708F011C1823C3CE5930741F4CD
:10120000F8018281882309F4CBC10E943512C8C13C
:10121000833CECE59E0708F0B5C08531FCE59F07EF
:1012200008F086C082302CE5920708F460C0F8010F
:101230008281882309F462C00E94D522811102C0F4
:101240000E946E230E94F22290E090936C028093A1
:101250006B02E981FA81E250FC45E431F10508F0C6
:101260003FC0E65DFF4F80916B020C94122C8160B1
:1012700035C0826033C0846031C080612FC080621D
:101280002DC080642BC0806829C08460886026C01F
:101290008E7F24C08D7F22C08B7F20C08F7E1EC09A
:1012A0008F7D1CC08F7B1AC08F7718C08B7F877F84
:1012B00015C082FB222720F991E0292720FB82F923
:1012C00083FB222720F9922790FB83F907C087FB35
:1012D000222720F991E0922790FB87F980936B02F7
:1012E00080916B020E94F6220E94411C59C1811517
:1012F0003CE5930739F081309C4561F0C8010E94BC
:10130000FD074FC1F8018281882309F449C10E9479
:10131000B60846C1F8018281882309F441C1809151
:10132000A801982F909590FB80F98093A80138C16F
:1013300086319C4519F70E942422982FF80182815A
:101340002091700030917100882379F09A7A81E0C1
:1013500009F480E08093C600911102C069E201C0E7
:1013600065E3C9010E94A3230AC08091C6008111D0
:1013700002C069E201C065E3C9010E94A5230E9481
:1013800072220EC1853C2CE5920741F4F80182815E
:10139000882309F405C10E94301102C1863C3CE556
:1013A000930700F5833CECE59E0761F4F801828128
:1013B000882309F4F5C00E942422827281F00E94E1
:1013C0002712EEC0843C9C4509F098CFF801828139
:1013D000882309F4E5C00E942422827281F30E94CE
:1013E0001A12DEC0F8012281873CFCE59F0731F428
:1013F000222309F4D5C00E944C11D2C0883C9C45E0
:1014000030F4222309F4CCC00E943D11C9C022232C
:1014100009F4C6C00E945B11C3C0803DECE59E0785
:1014200079F4F8018281882309F4BAC00E94FA0F86
:10143000893020F00E94FA0F8E3088F289E015C0C2
:10144000813DFCE59F0708F04FC08C3C2CE59207DE
:1014500079F0B0F0F80122818E3CFCE59F0741F164
:10146000A8F5222309F49CC081E00E942A1298C0AA
:10147000F8018281882309F493C00E942B1090C048
:101480008A3CECE59E0741F4F8018281882309F447
:1014900087C00E94791184C08B3C9C4509F02ECFF7
:1014A000F8018281882309F47BC00E941A1078C059
:1014B000222309F475C00E94FA0F823028F00E949E
:1014C000FA0F853008F48BCF82E0CFCF222309F4C6
:1014D00067C00E94FA0F863028F00E94FA0F883009
:1014E00008F47DCF86E0C1CF833DECE59E0739F45B
:1014F000F8018281882309F453C088E1B6CF843D86
:10150000FCE59F0738F5813D2CE5920781F4F80151
:101510008281882309F444C00E94FA0F8F3028F09A
:101520000E94FA0F843108F45ACF8FE09ECF823D9B
:101530009C4509F0E3CEF8018281882389F10E945D
:10154000FA0F853128F00E94FA0F873108F447CF4F
:1015500085E18BCF853DECE59E0731F4F801828172
:101560008823F1F083E281CF853DFCE59F0778F485
:10157000F80182818823A1F00E94FA0F893128F0B6
:101580000E94FA0F823208F42ACF89E16ECF8F3D94
:101590009C4509F0B3CEF801828181110E946E232F
:1015A00080E00F900F90DF91CF911F910F910895E0
:1015B00080E090E00895089528E7829FC0011124FB
:1015C000FC012FE0729FE00DF11D1124E60FF11DCB
:1015D000EE0FFF1FE254FF4F859194910895880FFD
:1015E000991FFC01E250FA4F859194910895CF9391
:1015F000DF930E94DC0A0E94E60CEC01811521E5D4
:10160000920708F042C0811540E5940708F02DC10B
:10161000883E910500F5803E910508F0D3C1883AD7
:10162000910570F4853A910508F0A2C081309105CA
:1016300009F4C8C108F479C1049708F0C3C175C1A1
:101640008F3B910508F49FC0803C910508F46DC163
:10165000805C9109F9C0C11580E3D80780F4C115F9
:1016600020E2D20708F0EEC0C03FD10508F45DC10A
:10167000CF3FD10511F008F0A5C1D065A3C1C115B8
:1016800040E4D40708F0EEC0E3C0C11589E5D807EF
:1016900060F5C11528E5D20708F033C1C11544E54E
:1016A000D40778F4C11583E5D80708F00FC1C11538
:1016B00022E5D20708F0F4C0DC2FCC27C16FD06A36
:1016C00081C1C11545E5D40708F416C1C11586E5E9
:1016D000D80708F02AC18C2F0E94620D8F71C82F85
:1016E000D0E0DC2FCC27D0626DC1CD3B2CE5D207FA
:1016F00009F412C1E0F4CB3B8CE5D80709F406C12C
:1017000008F007C1C1154AE5D40708F00EC18C2FB7
:101710008F700E94620D94E0D695C7959A95E1F777
:10172000CF70D0E0DC2FCC27D069C82B4BC1C03C98
:101730008CE5D80709F4F6C060F4CE3B4CE5D4073D
:1017400009F4EDC0CF3BDC4509F0EFC0C0E0D2EDBD
:1017500039C1CE0190568115904208F0E6C08D2F18
:101760008F710E94620DDD27D0628F71D82B2AC144
:10177000853A910509F4DCC0863A910509F0DBC091
:10178000C2E8D0E41FC1883A910509F4D7C0893A6C
:10179000910509F4D6C08A3A910509F4D5C08B3A6F
:1017A000910509F4D4C08C3A910509F4D3C08B3B60
:1017B000910509F4D2C08C3B910509F4D1C08D3A52
:1017C000910509F4D0C0803B910509F4CFC08E3A51
:1017D000910509F4CEC08F3A910509F4CDC0813B43
:1017E000910509F4CCC0823B910509F4CBC0833B41
:1017F000910509F4CAC0843B910509F4C9C0853B31
:10180000910509F4C8C0863B910509F4C7C0873B20
:10181000910509F4C6C0883B910509F4C5C0893B10
:10182000910509F4C4C08D3B910509F4C3C08E3BFA
:10183000910509F4C2C08A3B910509F4C1C0C0E01A
:10184000D4E4C0C0CE019F700E94EF0AEC01BAC080
:10185000CE019927D3FF03C0EC01D86CB3C0EC01D3
:10186000D06CB0C0DF70D06AADC074E0969587953B
:101870007A95E1F783709C2F937021E030E002C0ED
:10188000220F331F9A95E2F73C68382BCF70C6952C
:10189000C69540E2C49FE0011124C22BD32B92C015
:1018A000CE018370992721E030E002C0220F331F60
:1018B0008A95E2F78C2F8695869540E2849FC00139
:1018C0001124E901C82BD92BDC687CC0CE018370C0
:1018D000992721E030E002C0220F331F8A95E2F7FA
:1018E0008C2F8695869540E2849FC0011124E901E2
:1018F000C82BD92BDA6866C0DC2FCC27C46FD06A1E
:1019000061C0DC2FCC27C06FD06A5CC0C0E0D4EDD2
:1019100059C0C0E0D5ED56C0C0E0D1ED53C0C0E025
:10192000D0ED50C0C0E0D3ED4DC0C0E0D0E04AC023
:10193000C1E8D0E447C0C3E8D0E444C0C2EED4E478
:1019400041C0C9EED4E43EC0CAEED4E43BC0C5EB0E
:10195000D4E438C0C6EBD4E435C0C3EBD4E432C021
:10196000C4EBD4E42FC0C7EBD4E42CC0CCECD4E45B
:1019700029C0CDECD4E426C0C3E8D5E423C0CAE82E
:10198000D5E420C0C2E9D5E41DC0C4E9D5E41AC03D
:10199000C1E2D6E417C0C3E2D6E414C0C4E2D6E480
:1019A00011C0C5E2D6E40EC0C6E2D6E40BC0C7E261
:1019B000D6E408C0CFE6D4E405C0C0E7D4E402C052
:1019C000CAE2D6E4CE01DF91CF9108958238910525
:1019D00049F1B0F48133910509F459C048F48932D2
:1019E000910509F44FC08A32910509F455C0089554
:1019F0008533910509F441C08933910599F0089523
:101A0000833E910531F138F4803E910591F0823E9C
:101A10009105A9F00895863E910501F1873E910553
:101A200039F1089520916B0220FD3BC021FD39C0A2
:101A3000089580916B0280FF34C089E341C080919A
:101A40006B0282FF30C080916B0284FD2EC083EE5A
:101A500037C080916B0282FD26C0F5CF80916B026A
:101A600083FF25C080916B0284FD1FC087EE28C0D4
:101A700080916B0283FD1BC0F5CF80916B0285FDC9
:101A800018C019C080916B0285FD15C012C08091ED
:101A90006B0286FD12C013C080916B0286FD0FC0E1
:101AA0000CC080EE0DC082EE0BC080E009C086EE57
:101AB00007C089E205C085E303C08AE201C081E373
:101AC00090E0089590916B0292FF0DC0282F28712D
:101AD000283019F4877F846006C0282F24712430B1
:101AE00011F48B7F886093FF0DC0282F2871283157
:101AF00019F4877E846106C0282F2471243111F4E3
:101B00008B7E886194FD877E0895CF92DF92EF925D
:101B1000FF920F931F93CF93DF93362F472F282FDA
:101B2000E82FF0E0711106C0EB5EF84F6491762F5C
:101B3000862F7BC0072F10E056E0659FC00111245F
:101B4000CFEFD0E0BE010E94EA2B5BEA5603C00152
:101B5000579F900D1124830F911D830F911D982F76
:101B6000990F980F7E01E01AF10AEE9ED001EF9EC8
:101B7000B00DFE9EB00D11248B2F499FA0011124A2
:101B8000452F55277E01E41AF50AEE9EA001EF9E2F
:101B9000500DFE9E500D11246E01C91AD108C09E31
:101BA0007001C19EF00CD09EF00C11240F2D112756
:101BB000C01BD10BCE9F8001CF9F100DDE9F100D5B
:101BC00011246230710591F048F461157105E1F05E
:101BD00061307105B1F49B2FE52F0AC064307105A7
:101BE00069F040F06630710579F00BC0912FEB2F52
:101BF000822F0DC0922FEB2F852F09C0922FE12F3E
:101C000006C0952FE22F03C09B2FE22F812FF0E01B
:101C1000EB5EF84F7491E82FF0E0EB5EF84F6491C3
:101C2000E92FF0E0EB5EF84F8491DF91CF911F91A7
:101C30000F91FF90EF90DF90CF9008950895CF938C
:101C4000DF93762FE901682F842F0E94850D798319
:101C500068838A83DF91CF9108950F931F93CF9369
:101C6000DF93EC0100E010E080916300282F30E06A
:101C70000217130724F59091CA009801290F311D0E
:101C8000A901440F551F240F351F2D5B3D4F86952D
:101C900090E04C81081719071CF4442331F002C06E
:101CA000411103C04091410201C040E060914002F7
:101CB00080913F020E941F0E0F5F1F4FD5CF0E94E1
:101CC000BB078C8190E00196817099278C83DF910E
:101CD000CF911F910F9108950F931F93CF93DF938F
:101CE0008C01FC01848195810196817099279583EF
:101CF0008483C0E0D5E580916300C81700F580912A
:101D0000CA002C2F30E0280F311DC901880F991F00
:101D1000280F391F2D5B3D4F4C2F4695F8018481CC
:101D20009581840F911D8170409141026091400224
:101D30008D9F802D11240E941F0ECF5FDCCFDF917D
:101D4000CF911F910F910C94BB07CF938091CA0044
:101D500090916400891770F4E82FF0E09F01220F42
:101D6000331FE20FF31FED5BFD4F118210821282D1
:101D70008F5FF0CFC0E060916300C617C0F5EC2F15
:101D8000F0E070E0CF010E94FE2B2091CA00820F8C
:101D90002091C800022E000C330B90E0E217F307ED
:101DA000CCF020916200022E000C330B2E173F075F
:101DB0008CF09C01220F331F820F931F9C012D5B1F
:101DC0003D4F409141026091400280913F020E944C
:101DD0001F0E0BC0FC01EE0FFF1F8E0F9F1FFC019B
:101DE000ED5BFD4F118210821282CF5FC4CF0E9443
:101DF000BB07209161008091C800820F8093C800CA
:101E000090916200920F9093620019165CF4082E74
:101E1000000C990B4091630050E041505109841728
:101E200095071CF0219520936100CF910895BF92F2
:101E3000CF92DF92EF92FF920F931F93CF93DF9396
:101E4000FC01828180FF02C00FEF01C001E010E0C1
:101E5000809163001817E0F58091CA00C12ED12C43
:101E6000E601C80FD11DCE01880F991FC80FD91FD9
:101E7000CD5BDD4F198218821A8234E0E32EF12CFB
:101E8000B12C8091C9008B0D87FF03C09091630036
:101E9000890F082E000C990BC816D90691F4809171
:101EA00041028E9DA0018F9D500D1124559547959F
:101EB000559547959E016091400280913F020E9496
:101EC0001F0EB00EF1E0EF1AF108D9F61F5FC0CF78
:101ED0000E94BB078091C900013031F4811102C01A
:101EE00080916300815007C090E00196609163008B
:101EF00070E00E94FE2B8093C900DF91CF911F916B
:101F00000F91FF90EF90DF90CF90BF900895FF92D8
:101F10000F931F93CF93DF93EC01F12C0FEF10E0A1
:101F200060916300F616F0F48091CA002F2D30E026
:101F3000280F311DC901880F991F280F391F2D5BEC
:101F40003D4F70E0C8010E94FE2B962F8C8140917E
:101F5000410260914002F99E800D11240E941F0EE3
:101F6000F394DECF0E94BB079A818C8190FF02C060
:101F70008F5F01C081508C83DF91CF911F910F91B2
:101F8000FF90089580913E02282F269530E021157C
:101F9000310519F48170826005C02532310524F0C5
:101FA0008170886480933E02089588E090E00C94EC
:101FB0004F2CCF92DF92EF92FF926B017C010E9437
:101FC000C20FB701A60188E090E0FF90EF90DF908C
:101FD000CF900C946C2CEEE3F2E083E080831182CE
:101FE0008FEF8283838314826081718182819381E8
:101FF0000C94D90F80913E0280FF02C0869508950F
:1020000080E00895EEE3F2E080818E7F808360813E
:102010007181828193810E94D90F1092D3002FEB9E
:1020200084ED91E0215080409040E1F700C0000035
:102030000C94BB0780914202833018F48F5F809329
:10204000420260913E0270913F0280914002909165
:1020500041020C94D90F80914202882319F08150DB
:102060008093420260913E0270913F028091400253
:10207000909141020C94D90F90913E0290FF16C0AE
:102080009091CA0020916400921770F4E92FF0E05B
:10209000DF01AA0FBB1FEA0FFB1FED5BFD4F818322
:1020A000608342839F5FF0CF0C94BB070895CF936A
:1020B000DF9300D01F92CDB7DEB790913E0290FF24
:1020C0000AC09E012F5F3F4F0E941F0E4B81698106
:1020D0008A810E943C100F900F900F90DF91CF915A
:1020E0000895CF93DF93EC01EC81F0E0E05FF94FCE
:1020F0004491EEE3F2E0628181810E9457108C816D
:102100008F5F8C83DF91CF910895CF93DF93EC01A4
:10211000EEE3F2E0438162818C810E9457108C8152
:102120008F5F8C83DF91CF910895AF92BF92CF9252
:10213000DF92EF92FF920F931F93CF93DF9300D024
:102140001F92CDB7DEB7182FF62E042FE22E9091F6
:102150003E0290FF6DC0E92FE695AE2FB0E0A25889
:10216000BF4F8C918093D2009E7F923061F49E018C
:102170002F5F3F4F812F0E941F0E4B8169818A8103
:102180000E943C1043C0823019F4009141023EC0CD
:10219000863019F410913F0239C08930D9F3893162
:1021A000A9F5E9518E2F8170D82EE695F0E0E05F19
:1021B000F84FA590B490C12CBB2460916300C61663
:1021C00018F52C2D30E0A29EC001A39E900DB29E6A
:1021D000900D112470E00E94EA2B812FD11002C0D3
:1021E000860F01C0861B9091CA00290F311DA901DD
:1021F000440F551F240F351F2D5B3D4F402F6F2D72
:102200000E941F0EC394D9CF0E94BB0710933F02B8
:10221000F092400200934102EE2051F060913E02A4
:1022200070913F0280914002909141020E94D90F2B
:102230000F900F900F90DF91CF911F910F91FF9012
:10224000EF90DF90CF90BF90AF900895EEE3F2E073
:102250009181282F438162818CE0890F0C94951025
:1022600081E00C942611EEE3F2E09181282F438166
:10227000628184EF890F0C94951081E00C943311E6
:10228000EEE3F2E062812FE0620F08F46FEF282F97
:10229000438181810C94951081E00C944011EEE310
:1022A000F2E062812FE0621B08F460E0282F438196
:1022B00081810C94951081E00C944F11EEE3F2E0D3
:1022C000438122E1420F08F44FEF282F6281818180
:1022D0000C94951081E00C945E11EEE3F2E04381E2
:1022E00022E1421B08F440E0282F628181810C9496
:1022F000951081E00C946D1120E00C9495100F93D3
:102300001F93CF93DF9300D01F92CDB7DEB78C0120
:102310008091C70081110AC09E012F5F3F4F4FEF90
:102320006FEF0E941F0E8A818093C700F80184819D
:10233000813051F028F0823061F44091C7000AC02A
:102340008091C70040E007C06091C70040E080E096
:1023500003C040E080E060E00E943C10F80184810E
:1023600090E0019663E070E00E94FE2B84830F9062
:102370000F900F90DF91CF911F910F910895609171
:102380003E02669570E04BE050E085E690E00E94EA
:102390003A2C892B19F481E08093D3000E94B52355
:1023A0009093CC008093CB00089590913E0290FFD3
:1023B00035C09170811102C0926006C0853210F064
:1023C000986402C0880F982B90933E02662351F0C8
:1023D00060913E0270913F028091400290914102D3
:1023E0000E94D90F60913E02669570E04BE050E08C
:1023F00085E690E00E943A2C892B19F01092D300C8
:1024000002C00E94BF1181E08093CE004091410242
:102410006091400280913F020C947C110895682FD6
:1024200090913E02969581E0890F853208F081E017
:102430000C94D51181E00C940F12682F90913E02FC
:1024400096958FEF890F09F484E20C94D51181E001
:102450000C941D1261E00C94D511EEE3F2E0808142
:102460008160808386950C942A1280913E0280FDC3
:102470000C9402100C942D1260E00C94D5118091F4
:10248000D100811133C08091A80181608093A8019F
:102490000E94D522811104C00E946E230E94EB0F7E
:1024A0000E94D50F60933E0270933F0280934002DA
:1024B000909341026E7F61F40E94EB0F0E94D50F52
:1024C00060933E0270933F028093400290934102DA
:1024D0000E94C20F1092D30080913E0280FF03C081
:1024E00086950E943C1281E08093D10008950F935D
:1024F0001F93CF93DF938091D300882309F48CC07E
:102500008091D200E0913E02E695E81BE093CD0079
:10251000823049F4F0E0E45FF94FE491CE2FD0E04F
:1025200001E710E149C0863049F4F0E0E75FF94F78
:10253000E491CE2FD0E005E810E13EC0893051F49F
:10254000E695F0E0EA5FF94FE491CE2FD0E007E89E
:102550001FE032C08F3051F4E695F0E0ED5FF94FA7
:10256000E491CE2FD0E007E11FE026C0853149F489
:10257000F0E0E050FA4FE491CE2FD0E005EA1EE003
:102580001BC0883181F0833239F4EEEFF5E0C5915C
:10259000D4910FE711E110C0843251F4C4EFD1E0BF
:1025A0000DE21EE009C0C8EED3E00CE61EE004C058
:1025B000C0EDD7E00EE11EE08091CE00882389F0C7
:1025C0001092CE000E94B5239E0120953095820F77
:1025D000931F9093CC008093CB001092D000109268
:1025E000CF008091CB009091CC000E94C1238C172A
:1025F0009D0790F0E091CB00F091CC00CE0FDF1F53
:10260000D093CC00C093CB008BEC90E0F801DF912D
:10261000CF911F910F910994DF91CF911F910F914D
:1026200008958F929F92AF92BF92CF92DF92EF92D6
:10263000FF920F931F93CF93DF937C01DC01ED9109
:10264000FC91CF01815095458F3F910510F4B5E580
:10265000FB27DB011296CC91CC2309F4B4C2EF3FE7
:10266000F10579F070F0EE3DFC4519F01092D400C0
:1026700060C39091D40081E089278093D400A0E0CA
:1026800059C3A091D400AA2309F4EBC01092D4003E
:10269000E03CF10540F4E038F10508F073C0E034A7
:1026A000F105D0F505C0EF3FF10509F008F4A0C031
:1026B00021E030E040E050E060E070E080E090E059
:1026C0000E2F0E94182CB091D5002B2BB091D60064
:1026D0003B2BB091D7004B2BB091D8005B2BB09126
:1026E000D9006B2BB091DA007B2BB091DB008B2BE8
:1026F000B091DC009B2B2093D5003093D600409303
:10270000D7005093D8006093D9007093DA0080937B
:10271000DB009093DC00A1C021E030E040E050E01D
:1027200060E070E080E090E08F01005411090E94A9
:10273000182CB091DD002B2BB091DE003B2BB0911B
:10274000DF004B2BB091E0005B2BB091E1006B2BD5
:10275000B091E2007B2BB091E3008B2BB091E400B1
:102760009B2B2093DD003093DE004093DF005093DD
:10277000E0006093E1007093E2008093E3009093A7
:10278000E4006BC021E030E040E050E060E070E049
:1027900080E090E08F01005811090E94182CB09140
:1027A000E5002B2BB091E6003B2BB091E7004B2BC3
:1027B000B091E8005B2BB091E9006B2BB091EA007F
:1027C0007B2BB091EB008B2BB091EC009B2B2093DB
:1027D000E5003093E6004093E7005093E8006093F3
:1027E000E9007093EA008093EB009093EC0035C011
:1027F00021E030E040E050E060E070E080E090E018
:102800008F01005C11090E94182CB091ED002B2B58
:10281000B091EE003B2BB091EF004B2BB091F0004C
:102820005B2BB091F1006B2BB091F2007B2BB09140
:10283000F3008B2BB091F4009B2B2093ED00309391
:10284000EE004093EF005093F0006093F10070931E
:10285000F2008093F3009093F400E701F983E8839A
:1028600069C2E034F105D0F4A090D500B090D60054
:10287000C090D700D090D800E090D900F090DA0056
:10288000B091DB001091DC0021E030E040E050E04E
:1028900060E070E080E090E00E2F5DC0E038F10570
:1028A000E8F4A090DD00B090DE00C090DF00D09092
:1028B000E000E090E100F090E200B091E3001091C0
:1028C000E40021E030E040E050E060E070E080E0D3
:1028D00090E04F01D0E48D1A91083CC0E03CF10536
:1028E000E8F4A090E500B090E600C090E700D0903A
:1028F000E800E090E900F090EA00B091EB00109160
:10290000EC0021E030E040E050E060E070E080E08A
:1029100090E04F01D0E88D1A91081CC0A090ED0006
:10292000B090EE00C090EF00D090F000E090F10089
:10293000F090F200B091F3001091F40021E030E04B
:1029400040E050E060E070E080E090E04F01D0ECCB
:102950008D1A9108082D0E94182CA222B322C4229D
:10296000D522E622F722B823192321E030E040E007
:1029700050E060E070E080E090E0E034F105A0F02D
:102980004F01E038F10520F4D0E48D1A91080AC017
:10299000E03CF10520F4D0E88D1A910803C0D0EC9A
:1029A0008D1A9108082D01C00E2F0E94182C0B2F94
:1029B0000E94312C09F0BDC1E03CF10548F4E0383B
:1029C000F10508F084C0E034F10508F042C005C00C
:1029D000EF3FF10509F008F4B8C021E030E040E035
:1029E00050E060E070E080E090E00E2F0E94182C34
:1029F000209530954095509560957095809590956F
:102A0000E091D5002E23E091D6003E23E091D7003F
:102A10004E23E091D8005E23E091D9006E23E0912F
:102A2000DA007E23E091DB008E23E091DC009E2320
:102A30002093D5003093D6004093D7005093D80010
:102A40006093D9007093DA008093DB009093DC00F0
:102A500071C18F010054110921E030E040E050E0E5
:102A600060E070E080E090E00E94182C20953095A6
:102A7000409550956095709580959095E091DD001A
:102A80002E23E091DE003E23E091DF004E23E09113
:102A9000E0005E23E091E1006E23E091E2007E23FE
:102AA000E091E3008E23E091E4009E232093DD007B
:102AB0003093DE004093DF005093E0006093E1002C
:102AC0007093E2008093E3009093E40033C18F01A0
:102AD0000058110921E030E040E050E060E070E093
:102AE00080E090E00E94182C2095309540955095FC
:102AF0006095709580959095E091E5002E23E0918A
:102B0000E6003E23E091E7004E23E091E8005E23DB
:102B1000E091E9006E23E091EA007E23E091EB0072
:102B20008E23E091EC009E232093E5003093E60095
:102B30004093E7005093E8006093E9007093EA0047
:102B40008093EB009093EC00F5C08F01005C1109BD
:102B500021E030E040E050E060E070E080E090E0B4
:102B60000E94182C20953095409550956095709551
:102B700080959095E091ED002E23E091EE003E23AC
:102B8000E091EF004E23E091F0005E23E091F10030
:102B90006E23E091F2007E23E091F3008E23E0911A
:102BA000F4009E232093ED003093EE004093EF005D
:102BB0005093F0006093F1007093F2008093F30063
:102BC0009093F400B7C0EF3FF10511F008F0AEC0EC
:102BD000E034F105D0F4C090D500D090D600E0905C
:102BE000D700F090D8001091D900C091DA00B091D0
:102BF000DB00A091DC0021E030E040E050E060E04C
:102C000070E080E090E00E2F5DC0E038F105E8F460
:102C1000C090DD00D090DE00E090DF00F090E0009A
:102C20001091E100C091E200B091E300A091E400B6
:102C300021E030E040E050E060E070E080E090E0D3
:102C40005F01D0E4AD1AB1083CC0E03CF105E8F406
:102C5000C090E500D090E600E090E700F090E8003A
:102C60001091E900C091EA00B091EB00A091EC0056
:102C700021E030E040E050E060E070E080E090E093
:102C80005F01D0E8AD1AB1081CC0C090ED00D09033
:102C9000EE00E090EF00F090F0001091F100C09194
:102CA000F200B091F300A091F40021E030E040E0A8
:102CB00050E060E070E080E090E05F01D0ECAD1AA1
:102CC000B1080A2D0E94182CA22EAC20B32EBD20D4
:102CD000C42ECE20D52EDF20E62EE122F72EFC22B8
:102CE000B823192F1A23E034F10570F0E038F1050C
:102CF00018F4E054F10908C0E03CF10518F4E0587C
:102D0000F10902C0E05CF10921E030E040E050E070
:102D100060E070E080E090E00E2F0E94182CA1E0AF
:102D20000B2F0E94312C19F4A0E001C0A1E0A1708A
:102D300001C0AC2F8A2FDF91CF911F910F91FF908F
:102D4000EF90DF90CF90BF90AF909F908F900895BD
:102D50000F931F93CF93DF93C62FD42F122FFC0115
:102D600082818823C9F06093F7000E94B523909375
:102D7000F6008093F50080E28C0F883008F057C091
:102D8000C77081E001C0880FCA95EAF7DF91CF9143
:102D90001F910F910C94BC198091F700681330C0FB
:102DA0008091F5009091F6000E94C123883C910526
:102DB00038F500E20D0FCD17B9F080E28C0F8830A6
:102DC00040F4C77081E001C0880FCA95EAF70E94FD
:102DD000C319083028F581E09D2F977001C0880F36
:102DE0009A95EAF70E94BC19812F0E94A919083010
:102DF000F0F4D77081E001C0880FDA95EAF70AC0D5
:102E000080E28C0F883098F4C77081E001C0880F91
:102E1000CA95EAF7DF91CF911F910F910C94C319D6
:102E2000812FDF91CF911F910F910C94A919DF9100
:102E3000CF911F910F9108959C01CB01213F4CE54B
:102E40003407F9F078F4283DFCE53F07B9F0293D57
:102E50004CE5340711F1273D3C4531F526E241EEC2
:102E600061EE1EC0233FFCE53F0799F070F0243F60
:102E70003C45D1F427E245EE66EE12C027E245EE6E
:102E80000EC026E241EE60EE0BC027E245EE64EE96
:102E900007C026E241EE62EE03C028E241E065EEA3
:102EA0000E94A81680E00895FC018281882319F011
:102EB0001092F700089581E008959093FD008093AB
:102EC000FC000895E091FC00F091FD00309721F0A6
:102ED0000190F081E02D099480E00895E091FC00DC
:102EE000F091FD00309721F00280F381E02D0994EC
:102EF00008952091FA003091FB002817390771F0EE
:102F00009093FB008093FA00E091FC00F091FD00AB
:102F1000309721F00680F781E02D099408952091E3
:102F2000F8003091F9002817390771F09093F900F3
:102F30008093F800E091FC00F091FD00309721F0C3
:102F40000084F185E02D0994089508950C94A51747
:102F50000C94A6170C94A5170C94A5170E94AA17F9
:102F60000C94A81781E008950E94AE230E94570692
:102F70000E9476240E9493260E943F120C94AC1764
:102F80005F926F927F928F929F92AF92BF92CF92F9
:102F9000DF92EF92FF920F931F93CF93DF93CDB702
:102FA000DEB72A970FB6F894DEBF0FBECDBF0E94E2
:102FB0008F060E94B217811111C08FEF89838A8317
:102FC0001B820E94B5238160782F9D838C83498169
:102FD0005A816B818D810E947B1856C09FEF692EAC
:102FE00090E0792E00E010E088248394912C502EFC
:102FF000802F0E94E3066C01F301A190B1903F0184
:10300000A826B926A114B10431F40F5F1F4F083070
:10301000110569F7D2CF8091A80181FD0E94EC06CD
:1030200080E090E07401082E02C0EE0CFF1C0A94B0
:10303000E2F795012E213F21232B09F18E835F8238
:10304000CE20DF2081E0CD2809F480E088870E942F
:10305000B5238160782F9A8789874E815F81688543
:103060008A850E947B18000F111FF801E150FF4F65
:1030700080819181E826F926F182E08205C00196DF
:103080008F30910579F6C1CF0E9462179091FE00B2
:103090008917D9F00E9462178093FE002A960FB616
:1030A000F894DEBF0FBECDBFDF91CF911F910F917E
:1030B000FF90EF90DF90CF90BF90AF909F908F9058
:1030C0007F906F905F900C94A9082A960FB6F894A1
:1030D000DEBF0FBECDBFDF91CF911F910F91FF904B
:1030E000EF90DF90CF90BF90AF909F908F907F90A8
:1030F0006F905F900895CF93DF93CDB7DEB72B9796
:103100000FB6F894DEBF0FBECDBF4F8358876987D7
:103110007A878B87DE01119686E0FD0111928A95F0
:10312000E9F785E0FE01379601900D928A95E1F767
:1031300049815A816B817C818D819E810E94111F02
:103140002B960FB6F894DEBF0FBECDBFDF91CF91A7
:103150000895FC01808191810E94E5210895CF931B
:10316000882309F4C8C0C82F8CEF8C0F813A68F40B
:103170008C2F0E9457268111BEC06C2F8091700049
:10318000909171000E94A3230CC080E28C0F8830C4
:1031900058F4C77081E001C0880FCA95EAF70E9411
:1031A0002722CF910C9472228BE58C0F833078F418
:1031B000C53A29F0C63A31F083E890E005C081E8CD
:1031C00090E002C082E890E0CF910C94791788E5F6
:1031D0008C0F873108F08FC0C83A09F445C0C93A4E
:1031E00009F445C0CA3A09F445C0CB3A09F445C0D0
:1031F000CC3A09F445C0CB3B09F445C0CC3B09F4BB
:1032000045C0CD3A09F445C0C03B09F445C0CE3AAB
:1032100009F445C0CF3A09F445C0C13B09F445C0A3
:10322000C23B09F445C0C33B09F445C0C43B09F4A3
:1032300045C0C53B09F445C0C63B09F445C0C73B82
:1032400009F445C0C83B09F445C0C93B09F445C071
:10325000CD3B09F445C0CE3B09F445C0CA3B09F457
:1032600045C080E090E044C082EE90E041C089EE2D
:1032700090E03EC08AEE90E03BC085EB90E038C025
:1032800086EB90E035C083EB90E032C084EB90E0B9
:103290002FC087EB90E02CC08CEC90E029C08DEC27
:1032A00090E026C083E891E023C08AE891E020C046
:1032B00082E991E01DC084E991E01AC081E292E0C8
:1032C00017C083E292E014C084E292E011C085E26C
:1032D00092E00EC086E292E00BC087E292E008C066
:1032E0008FE690E005C080E790E002C08AE292E0BD
:1032F000CF910C948F17CF910895882349F1682FAF
:103300008CEF860F813A38F48091700090917100B3
:103310000E94A5230CC080E2860F883050F46770AD
:1033200081E001C0880F6A95EAF70E942D220C9473
:1033300072228BE5860F833020F480E090E00C94BD
:103340007917685A673120F480E090E00C948F1769
:103350000895CF93C82F0E94AF18C93349F42FEFB7
:103360008DEE92E0215080409040E1F700C00000D7
:103370008C2FCF910C947D19882321F00E94272255
:103380000C9472220895882321F00E942D220C941F
:1033900072220895CF92DF92EF92FF920F931F93C4
:1033A000CF93DF937C01062FC72FFC011581129567
:1033B0001F70D281D1110E9444220E941D228823B5
:1033C00079F0DD2369F080E2800F883048F082E0F8
:1033D0000E94BC220E941D2291E0D82ED92601C055
:1033E000D12CCC2EC2948FE0C8228C2D90E0FC0111
:1033F000E25CFF4F0C94122C8C2F807FCF708823BF
:1034000011F0C295C07FDD2399F0CC2309F483C16C
:1034100080E2800F883010F0011104C08C2F0E94D0
:10342000272203C08C2F0E9437220E94722273C170
:10343000802F0E947D19CC2309F4B3C180E2800F54
:10344000883010F0011104C08C2F0E942D2203C07F
:103450008C2F0E943D220E947222A3C18C2F807F5C
:10346000CF70803211F0C295C07F002319F0013077
:10347000C9F022C0DD2371F0112341F0113031F485
:103480000E9457228C2B0E945F228BC10E945722E0
:103490008C2B1DC0112319F0113009F482C10E9438
:1034A000682225C0DD2321F0163008F07AC10EC055
:1034B000153008F076C11BC0DD2361F0112331F017
:1034C000F701858180FF27C18F7085838C2F0E9433
:1034D000BC1967C1112359F0093309F02DC1FFEF61
:1034E0002DEE82E0F15020408040E1F723C18C2F87
:1034F0000E94C31956C18C2F86958695837019F04A
:10350000813061F04EC1DD2321F0802F9C2F93701C
:1035100002C080E090E00E9479174BC1DD2321F0CA
:10352000802F9C2F937002C080E090E00E948F1744
:1035300040C18C2F837009F045C0D11136C1402F96
:10354000429546954770440F440F602F6F70862F49
:1035500090E0A0E0B0E0042E04C0880F991FAA1FDD
:10356000BB1F0A94D2F704FF10C00FE010E020E068
:1035700030E004C0000F111F221F331F4A95D2F7FD
:10358000009510952095309503C000E010E098015B
:10359000C695C695C370BC01CD01602B712B822BE3
:1035A000932BC23049F058F4C13019F00E946220C8
:1035B000FCC00E945020F9C00E947420F6C00E94F6
:1035C0004E20F3C0DD2319F08C2F817001C0869549
:1035D000882309F4EAC0402F429546954770440F6E
:1035E000440F602F6F70862F90E0A0E0B0E0042EB3
:1035F00004C0880F991FAA1FBB1F0A94D2F704FFAB
:1036000010C00FE010E020E030E004C0000F111FF8
:10361000221F331F4A95D2F70095109520953095BB
:1036200003C000E010E09801C695C695C370BC01C8
:10363000CD01602B712B822B932BC23049F058F4B3
:10364000C13019F00E942721B0C00E941521ADC0E1
:103650000E943921AAC00E948820A7C0CF70DD2314
:1036600039F08C2F0E94AE20802F0E94BC199DC083
:10367000802F0E94C3198C2F0E94CF2096C0023F3A
:1036800001F128F4003F41F0013FA1F040C0033FA9
:10369000F9F0043F39F13BC0DD2341F0153008F06B
:1036A00080C08C2F8F710E94F4207BC0163008F0F0
:1036B00078C0F7CFDD2339F08C2F8F710E94AE20B8
:1036C00070C0DD23C9F38C2F8F710E94CF2069C099
:1036D000DD2329F08C2F8F710E94992062C00E94F7
:1036E00094205FC0DD2349F0CF718C2F0E94AE2063
:1036F00063E08C2F0E94A72254C081E00E94BC226C
:10370000123008F44EC082E00E94BC224AC0DD2381
:1037100031F0112389F2802F0E94AF1842C011238B
:1037200091F2093349F49FEFEDEEF2E09150E04061
:10373000F040E1F700C00000802F0E947D1931C0E9
:103740004C2F4F70602FC7010E94D80A0E94BF1FE4
:1037500030C0D1112EC0CF70C23091F038F4CC23DC
:1037600061F0C130F1F40E94D72623C0C43071F05B
:1037700050F0C530B1F480E00AC00E94B42619C0F0
:103780000E941E2716C00E94252713C08CE00E94AD
:103790004E270FC04C2F4F70602FC7010E94DB0ACD
:1037A00008C088EF8C0D843020F40E9462170E94BC
:1037B000A908DD20C9F00E94192280FD15C0F7017B
:1037C00012820E9413220E94AE20C7010E94FD1B9C
:1037D0000E941322DF91CF911F910F91FF90EF90E4
:1037E000DF90CF900C94CF20DF91CF911F910F915C
:1037F000FF90EF90DF90CF9008950F931F93CF939A
:10380000DF93EC01988189812B813C81232B31F05E
:103810008F3F31F481E09F3F19F403C081E001C084
:1038200080E080FD13C0CE010E94C508882371F09E
:10383000688179818A810E94F0218C010E944B214C
:103840000E943C20B801CE010E94CA19DF91CF919D
:103850001F910F9108950E9444220E9454220E94B9
:10386000722280E090E00E94791780E090E00C9452
:103870008F1780917000909171000E94A7230C9483
:103880002B1C0E9434220C94391CE92FE295EF7016
:103890004E2F50E0FA013297EE30F105B0F4E25BC2
:1038A000FF4F0C94122C803F91F018F4883E68F47E
:1038B0000EC0843F51F40BC0883E48F0813F29F48C
:1038C00006C093FB882780F9089580E0089581E081
:1038D00008950E94E5210E94451C0895CF93DF932F
:1038E00000D000D01F92CDB7DEB70F900F900F9091
:1038F0000F900F90DF91CF910895CF93DF9300D079
:1039000000D000D0CDB7DEB726960FB6F894DEBF54
:103910000FBECDBFDF91CF9108951F93CF93DF935B
:10392000C091100116E080911101C81799F0D0E004
:103930001C9FF0011D9FF00D1124EE5EFE4F408193
:10394000518162817381848195810E947D1C2196C1
:10395000C770E9CFDF91CF911F9108954091420147
:10396000509143016091440170914501809146015D
:10397000909147010C947D1CCF93809147018295D3
:103980008F7009F05FC080914401882309F45AC008
:1039900080911001B091110170914201A0914301F9
:1039A000409145015091460191E07F3F09F090E040
:1039B000692FC6E08B1709F445C04115510521F068
:1039C000AF3F21F020E003C021E001C0262F90E0AE
:1039D00020FD35C0C89FF001C99FF00D1124EE5E97
:1039E000FE4F21812A132BC02081271328C022815A
:1039F000211125C0238134812417350710F421506B
:103A00003109241B350B283C3105C8F420914701AE
:103A10002F7020612093470126E0289FF001299F05
:103A2000F00D1124E95EFE4F80818F7080618083EC
:103A300082E491E00E94FD1BCF910C948D1C0196B5
:103A40008770B8CFCF910895AF92BF92CF92DF9297
:103A5000EF92FF920F931F93CF93DF93CDB7DEB713
:103A600061970FB6F894DEBF0FBECDBF8C0185E025
:103A7000F801DE011D9601900D928A95E1F7D801BB
:103A80004C9111965C9111971296EC9030914201F5
:103A9000609143018091450190914601009731F07A
:103AA0006F3F31F421E03F3F19F403C021E001C032
:103AB00020E0B22FB170BB2E20FD60C1F801C380A1
:103AC000D480A0904401AA2009F4EEC020914701BF
:103AD000C816D90628F0D601A81BB90BCD0104C021
:103AE000809590958C0D9D1DFF24F394883C910545
:103AF00080F0F12C207F09F09CC07C2DD98AC88AE7
:103B00006E2D89890E946E1C82E491E00E94FD1B4B
:103B10002DC1822F807F09F054C0561314C0431367
:103B200012C0FE2CE1100FC02F70206120934701BE
:103B30000E94AE1C82E491E00E94FD1B809147012F
:103B4000F80185835CC1CD2831F05F3F31F481E01D
:103B50004F3F19F403C081E001C080E080FD03C045
:103B600081E08E2502C080E090E0F82FF170FF2EFA
:103B700080FF1CC0809110012091110136E0821756
:103B800009F41AC190E0389FF001399FF00D11241B
:103B9000EE5EFE4F6181561306C06081461303C07E
:103BA0006281E61203C001968770E9CFFE2CEE20F9
:103BB00009F425C180914701816080934701F12C70
:103BC0001EC1561309C0431307C0E11005C0809100
:103BD0004701F8018583A4C04D875E878D859E854A
:103BE0000E94691C882379F1EE2069F12091470138
:103BF000822F82958F7090E0029774F0809142013D
:103C00009091430198878F831986DB86CA862C871B
:103C1000CE0107960E94FD1B86E0F801A2E4B1E008
:103C200001900D928A95E1F70E94BC1C0E94AE1C87
:103C30000DC0561771F04D875E878D859E850E9459
:103C4000691C81111AC0C8010E94FD1BFF24F39456
:103C5000D6C04313F0CFE110EECF80914701F801B9
:103C60008583C8010E94FD1B86E0E2E4F1E0DF01EC
:103C70001D928A95E9F7FA2CC2C0EE2021F320911B
:103C80004701822F82958F7090E002972CF28091ED
:103C90004201909143019A8389831B82DD82CC8209
:103CA0002E83CE010196B6CFC816D90628F0F601AC
:103CB000E81BF90BCF0104C0809590958C0D9D1DDC
:103CC000883C910548F0F12C7C2DD98AC88A6E2D4C
:103CD00089890E946E1C4AC0FE2CEE2009F4B3CFE5
:103CE000561333C0431331C02091470120FD24C037
:103CF000822F82958F70482F50E041155105E1F0D9
:103D0000D80115962C9315974F30510549F08F5FC8
:103D1000982F9295907F822F8F70892B15968C9378
:103D2000C8010E94FD1B86E0F801A2E4B1E0019009
:103D30000D928A95E1F73DC086E0F801A2E4B1E07A
:103D400001900D928A95E1F75AC04D875E878D8567
:103D50009E850E94691C81115FCF8091470181601F
:103D600080934701C8010E94FD1B49C0E2E4F1E0D5
:103D700086E0DF011D928A95E9F71BC0EE2009F469
:103D800062CF4D875E878D859E850E94691CF82EC7
:103D9000882309F458CF86E0F801A2E4B1E001904D
:103DA0000D928A95E1F782E491E00E94A9180E94A1
:103DB000BC1C0E94AE1C23C04D875E878D859E85EE
:103DC0000E94E521292F22952F70223028F49F7020
:103DD00039F0811105C00BC0243028F49F7049F4DC
:103DE000805E883020F0C8010E94FD1BBF2CFB2C98
:103DF00006C0D80115969C91907F91F7F8CF8F2D32
:103E000061960FB6F894DEBF0FBECDBFDF91CF91A4
:103E10001F910F91FF90EF90DF90CF90BF90AF90E8
:103E200008951F93CF93DF93CDB7DEB72C970FB6CE
:103E3000F894DEBF0FBECDBF4F83588769877A875E
:103E40008B879C87CE0107960E94241D8823D1F082
:103E50009F8188852A853B85232B31F08F3F31F464
:103E600081E09F3F19F403C081E001C080E080FD44
:103E700047C04F81588569857A858B859C850E94CE
:103E80007D1C3EC086E0FE013796DE011196019052
:103E90000D928A95E1F7FF81E8856A857B8561153A
:103EA000710531F0EF3F31F481E0FF3F19F403C0B9
:103EB00081E001C080E080FD23C02091110130E04D
:103EC000C9010196877099274091100150E084172D
:103ED0009507F1F1F983EA837D836C8396E0929FE5
:103EE000D001939FB00D1124AE5EBE4FFE013196FE
:103EF00001900D929A95E1F7809311010E948D1C1B
:103F000016E08091100190911101891771F1189FAD
:103F1000C00111248E5E9E4F0E94241D882329F12A
:103F2000E09110011E9FF0011124EE5EFE4F4081D2
:103F3000518162817381848195810E947D1C809171
:103F4000100190E001968770992780931001D9CFD6
:103F50000E94411C1092110110921001E2E4F1E064
:103F600086E0DF011D928A95E9F72C960FB6F8944A
:103F7000DEBF0FBECDBFDF91CF911F910895EF92AD
:103F8000FF920F931F93CF93DF938C01892B09F43A
:103F90006CC0F12CEE24E394E8012196F8018491A1
:103FA000843740F4843008F051C0813081F0823091
:103FB00019F15BC0853709F444C0A8F19CE7980F5C
:103FC000903708F052C08F770E947D1941C00E5F74
:103FD0001F4FFE01849190E2980F983050F4877043
:103FE000FE2D01C0FF0F8A95EAF78F2F0E9447220E
:103FF00014C00E94AF182DC00E5F1F4FFE018491A8
:1040000090E2980F983060F48770FE2D01C0FF0F8A
:104010008A95EAF78F2F0E944D220E94722219C0C2
:104020000E947D1916C00E5F1F4FFE01C491CC2364
:1040300081F087EB9BE00197F1F700C00000C150D1
:10404000F6CF0E5F1F4FFE01F49003C00E94AF1821
:104050008E018F2D882309F49FCFE7EBFBE031978A
:10406000F1F700C000008150F5CFDF91CF911F9193
:104070000F91FF90EF900895089508950C943D20BE
:104080000C943E200E944020609397017093980109
:104090008093990190939A010C942B1C0C944220CC
:1040A0000F931F930091970110919801209199010E
:1040B00030919A01602B712B822B932B1F910F91C2
:1040C0000C9442200F931F93009197011091980137
:1040D0002091990130919A016023712382239323C7
:1040E0001F910F910C9442200F931F930091970101
:1040F000109198012091990130919A0160277127C0
:10410000822793271F910F910C9442200C943D20FD
:104110000E9486206093930170939401809395018F
:10412000909396010C942B1C60E070E0CB010C94F2
:1041300088200F931F9341E050E060E070E08A0117
:104140009B0104C0000F111F221F331F8A95D2F755
:10415000C901B8011F910F910C9488200F931F93F0
:1041600041E050E060E070E004C0440F551F661F5E
:10417000771F8A95D2F78091930190919401A09135
:104180009501B09196018A019B01082B192B2A2BCE
:104190003B2BC901B8011F910F910C9488200F93FC
:1041A0001F9341E050E060E070E004C0440F551FF1
:1041B000661F771F8A95D2F7409550956095709548
:1041C0008091930190919401A0919501B0919601F5
:1041D0008A019B01082319232A233B23C901B80123
:1041E0001F910F910C9488200F931F9341E050E092
:1041F00060E070E004C0440F551F661F771F8A956A
:10420000D2F78091930190919401A0919501B09182
:1042100096018A019B01082719272A273B27C901F4
:10422000B8011F910F910C9488200F931F93009158
:104230009301109194012091950130919601602B8A
:10424000712B822B932B1F910F910C9488200F932D
:104250001F93009193011091940120919501309149
:10426000960160237123822393231F910F910C9455
:1042700088200F931F930091930110919401209136
:1042800095013091960160277127822793271F910E
:104290000F910C94882008952FE0929F800D112497
:1042A000E82FE695E695E695877051E001C0550F39
:1042B0008A95EAF785E0E89FF0011124E85BFE4F5C
:1042C00020E030E070E04081CB01022E02C09695E4
:1042D00087950A94E2F78170819584278523842746
:1042E00081932F5F3F4F2530310569F708952FE007
:1042F000929F800D1124682F669566956695982F7C
:10430000977085E0689FB001112440E050E080E0A4
:10431000FB01E40FF51FE85BFE4F208130E0092E22
:1043200002C0369527950A94E2F721703327042EB0
:1043300001C0220F0A94EAF7822B4F5F5F4F45308E
:10434000510531F70895BF92CF92DF92EF92FF921D
:104350000F931F93CF93DF938C01C0909301D09064
:104360009401E0909501F0909601809197019091D1
:104370009801A0919901B0919A01C82AD92AEA2AF4
:10438000FB2ACFE1D0E0D701C6010C2E04C0B695C0
:10439000A795979587950A94D2F780FD04C0219739
:1043A00090F7B12C07C0BC2EB8018C2F0E94F70AE1
:1043B0000197A9F38B2DDF91CF911F910F91FF9062
:1043C000EF90DF90CF90BF900895CF93DF93EC01F3
:1043D0000E94A321BE010E94F70ADF91CF910895A8
:1043E0001F93CF93DF93EB0190910F01992321F05D
:1043F000CB010E94E52113C0882349F0CB010E9424
:10440000A321182F682FCE010E944C2104C0CB019C
:104410000E947721182FBE01812F0E94F70ADF9199
:10442000CF911F91089580919B01859585958595E4
:10443000089580919B018770089590919B019770DA
:1044400081E009F480E008958091A701089590919A
:10445000A701892B8093A701089580959091A701CA
:1044600089238093A70108951092A7010895909140
:10447000A601892B8093A601089580959091A601AD
:1044800089238093A60108951092A6010895909122
:10449000A501892B8093A501089580959091A50190
:1044A00089238093A50108951092A5010895809114
:1044B0009C01089508950C945A220C945B229091CB
:1044C0009C01981721F080939C010C945D22089523
:1044D00080919C01882329F010929C0180E00C942B
:1044E0005D220895E0917000F09171008091A70124
:1044F0008083E0917000F091710090818091A6011D
:10450000892B8083E0917000F091710090818091FF
:10451000A501892B808380919C01882381F0E09103
:104520007000F09171009081892B808380917000E0
:10453000909171000E94702381110E9468228091E5
:104540007000909171000C946E170C945A2298E0B0
:10455000899F90011124262B20939B010E94AE205D
:1045600080919B018595859585950C94A522109247
:104570009B0180E00C94A52220919B0180958223D1
:1045800080939B01982F977079F430E0482F082E84
:10459000000C550B2417350739F0859585958595C1
:1045A0000E94CF200C94B722089580E090E00E94F2
:1045B000552C21E08D3E9E4F09F020E0822F08957A
:1045C00082E090E00C94472C682F82E090E00C94FD
:1045D0005B2C83E090E00C94472C682F83E090E004
:1045E0000C945B2C84E090E00C94472C682F84E0C2
:1045F00090E00C945B2C86E090E00C94472C682FA4
:1046000086E090E00C945B2CAB01BC018FE090E065
:104610000C946C2CAB01BC0183E190E00C946C2CED
:1046200060E070E0CB010C940A2360E070E0CB0105
:104630000E9404230C9410236DEE7EEF80E090E046
:104640000E94782C60E082E090E00E945B2C60E0A9
:1046500083E090E00E945B2C1092970110929801E9
:104660001092990110929A0160E084E090E00E941B
:104670005B2C60E085E090E00E945B2C60E086E0CF
:1046800090E00E945B2C6FEF87E090E00E945B2C33
:1046900040E050E0BA0188E090E00E946C2C60E0BD
:1046A0008DE090E00E945B2C40E050E0BA0188E190
:1046B00090E00E946C2C60E087E190E00E945B2C0F
:1046C00040E050E0BA018CE190E00E946C2C60E088
:1046D00080E290E00E945B2C0C9415230C941C2328
:1046E000FC01329697E080E0915029F0219122233D
:1046F000D9F38F5FF9CF08959C01FC0132969FEFAB
:1047000080E04191461789F09F3F19F4411101C0A3
:10471000982F8F5F8630A9F79F3F39F0F901E90F95
:10472000F11D97FDFA956283089508959C012A5F13
:104730003F4FFC014281461301C01282019682174D
:104740009307B9F708950C947C230C949623029652
:1047500026E0FC0111922A95E9F708958BE083BFCA
:104760008BEB8CBF82E089BF08952FB7F8948091BE
:10477000670290916802A0916902B0916A022FBF0E
:104780000895CF92DF92EF92FF920F931F932FB76E
:10479000F8944091670250916802609169027091AB
:1047A0006A022FBF6A017B01EE24FF248C0120E006
:1047B00030E0C016D106E206F30610F4415051096C
:1047C0009A01281B390BC9011F910F91FF90EF909F
:1047D000DF90CF90089578941F920F920FB60F92AA
:1047E00011248F939F93AF93BF9380916702909111
:1047F0006802A0916902B0916A020196A11DB11DE3
:104800008093670290936802A0936902B0936A0252
:10481000BF91AF919F918F910F900FBE0F901F90FE
:10482000189560E081E090E00E947E2C87E090EB9C
:10483000DC018093B1029093B202A093B302B093D3
:10484000B4029CE088E10FB6F894A89581BD0FBE34
:1048500091BDFFCFAF92BF92CF92DF92EF92FF92C6
:104860000F931F93CF93C0E0CC24C394D12CE82E98
:10487000F12C8C2F0E94E3065C0100E010E0C601E1
:10488000002E02C0880F991F0A94E2F78A219B210B
:10489000892B31F40F5F1F4F0F30110581F70AC0CC
:1048A000602F7C2F80E00E94DC0AE816F90691F761
:1048B00081E004C0CF5FC830E1F680E0CF911F9166
:1048C0000F91FF90EF90DF90CF90BF90AF90089541
:1048D000CF93C82F8CE20E942A24882321F08C2FAA
:1048E000CF910C942A2480E0CF910895CF930E9419
:1048F000D522811102C00E946E23C5E6C15049F045
:104900000E948F068FE295E70197F1F700C0000043
:10491000F5CF89E20E94682481110FC18AE20E94CA
:10492000682481110E946E2385E00E946824811111
:104930000E9411240E94E0228093A80187E00E9437
:1049400068248823A9F18BE10E946824882351F010
:104950008091A80181FB222720F991E0922790FB0A
:1049600081F90EC08EE00E946824882361F0809156
:10497000A80182FB222720F991E0922790FB82F97F
:104980008093A80115C080E10E9468249091A8013D
:10499000882341F093FB222720F981E0822780FBC6
:1049A00093F904C0892F809580FB90F99093A8011A
:1049B0008091A8010E94E4220E94F22290E090934C
:1049C0006C0280936B0280EE0E946824882341F081
:1049D00080916B02982F909590FB80F980936B02E9
:1049E00089E30E946824882359F080916B0281FB3F
:1049F000222720F991E0922790FB81F980936B02A6
:104A000082EE0E946824882359F080916B0282FB19
:104A1000222720F991E0922790FB82F980936B0284
:104A200086EE0E946824882359F080916B0283FBF4
:104A3000222720F991E0922790FB83F980936B0263
:104A400083EE0E946824882359F080916B0284FBD6
:104A5000222720F991E0922790FB84F980936B0242
:104A600085E30E946824882359F080916B0285FBBE
:104A7000222720F991E0922790FB85F980936B0221
:104A800081E30E946824882359F080916B0286FBA1
:104A9000222720F991E0922790FB86F980936B0200
:104AA00081E10E946824882359F080916B0287FB82
:104AB000222720F991E0922790FB87F980936B02DF
:104AC00080916B020E94F62287E20E946824C82F20
:104AD0008EE10E9468248111C2608FE10E946824E7
:104AE0008111C46080E20E9468248111C86081E263
:104AF0000E9468248111C06182E20E9468248111B1
:104B0000C06283E20E9468248111C06484E20E9432
:104B10006824882311F0C06802C0CC2329F08C2FB0
:104B20000E94ED226C2F03C00E94E922682F70E0E2
:104B300080E090E0CF910C944E20CF9108950F9398
:104B40001F9341E050E060E070E08A019B0104C0E7
:104B5000000F111F221F331F8A95D2F7C901B80118
:104B60000E944E201F910F910C94411C8B3109F42F
:104B700074C058F58B3009F492C078F4863009F48B
:104B800046C020F4853009F44CC08BC0873009F44E
:104B900056C0883009F483C084C0803109F470C0E5
:104BA00068F48E3009F07DC08091A80182FB222735
:104BB00020F991E0922790FB82F958C0863109F4E0
:104BC0006EC0893109F46BC06CC08A32E9F060F4C0
:104BD000873209F461C028F48E3108F462C08D5127
:104BE0005CC08932F1F05DC0833450F48A3308F040
:104BF00051C0853309F450C0883309F450C051C006
:104C0000833409F449C04DC00E946E2348C080918E
:104C1000A801817F8E7F8093A80181E08093A90104
:104C200008950E94411C2FEF8EE994E221508040AC
:104C30009040E1F700C000000E94112430C0809134
:104C4000A801982F9095917090FB80F98093A8010E
:104C5000911125C0897F877F10C08091A80181FBB9
:104C6000222720F991E0922790FB81F98093A801F7
:104C70009923A9F08091A80181608093A8010FC0B9
:104C80008091A80183FB222720F991E0922790FBD5
:104C900083F9ECCF895301C080E00E949F2581E019
:104CA000089580E0089580E008950C945326CF93F2
:104CB000C82F8091A901882319F0813031F02BC0D1
:104CC0000E942422823249F504C00E9424228232AA
:104CD00061F48C2F0E945526811104C08C2F0E94F4
:104CE000B62517C081E090E014C08C2F0E94532697
:104CF00081110EC0C43149F018F4CB3049F00FC017
:104D0000C93219F0C83321F00AC01092A90107C0B6
:104D100081E0817006C01092A90180E002C080E0AD
:104D2000F8CFCF9108950E94D522811102C00E9430
:104D30006E230E94FB2280936D02282F26952695D4
:104D4000269530E02D30310524F087708066809301
:104D50006D0280916D0280FF04C0869586958695D0
:104D600001C080E00C94B90720916D02822F8695D6
:104D700086958695482F50E04C30510554F48F5F4E
:104D8000982F990F990F990F822F8770892B8093F5
:104D90006D0280916D02816080936D020E94FF22FE
:104DA00080916D028695869586950C94B9078091C1
:104DB0006D02982F969596959695A1F0915E990F14
:104DC000990F990F8770892B80936D02887F91E0EE
:104DD00009F490E080916D0290FB80F980936D0260
:104DE0000E94FF2280916D028695869586950C948F
:104DF000B90780916D0280FD13C0816080936D02C0
:104E0000813019F489E080936D0280916D020E94D7
:104E1000FF2280916D028695869586950C94B90740
:104E2000089580916D0280FF08C08E7F80936D028F
:104E30000E94FF2280E00C94B907089580916D02D2
:104E400080FD0C9411270C94F92690916D02892F06
:104E50008695869586958F5F8F7197708D3038F423
:104E6000880F880F880F892B80936D0202C0909362
:104E70006D0280916D02887F91E009F490E080914D
:104E80006D0290FB80F980936D020E94FF22809159
:104E90006D028695869586950C94B9078D3008F03D
:104EA0008CE0880F880F880F90916D029770892B86
:104EB00080936D02887F91E009F490E080916D020B
:104EC00090FB80F980936D020E94FF2280916D0219
:104ED0008695869586950C94B9070E94B5238C011A
:104EE0000E94AE170E94B4170E9464280E945D17AA
:104EF0000E94342A8B9A80E0815041F0A895E7EB1C
:104F0000FBE03197F1F700C00000F6CF8B98789462
:104F1000C0E080918802882331F0109288020E94BC
:104F2000B5238C0109C0C8010E94C123069710F067
:104F3000C1E0EFCFC111EDCF0E94252980918E02F3
:104F4000882329F08091790284FD0E94C0170E9475
:104F50001828DECF80913C020895CF93DF9300D0D4
:104F60001F92CDB7DEB72091AC013091AD0128176B
:104F7000390789F09093AD018093AC0124E0298337
:104F80009B838A838091A50284FF05C063E0CE01E4
:104F900001960E9421290F900F900F90DF91CF91E1
:104FA0000895CF93DF9300D01F92CDB7DEB7209145
:104FB000AA013091AB012817390789F09093AB0112
:104FC0008093AA0123E029839B838A838091A50291
:104FD00084FF05C063E0CE0101960E9421290F9055
:104FE0000F900F90DF91CF910895CF93DF9300D072
:104FF00000D000D0CDB7DEB7FC0182E0898395E018
:10500000DE01129601900D929A95E1F78091A5022A
:1050100084FF05C066E0CE0101960E9421292696F4
:105020000FB6F894DEBF0FBECDBFDF91CF910895CC
:10503000CF93DF93CAE0D0E08091790284FF18C05B
:105040008091B9019091BA019817E1F028E0829F10
:10505000C001112468E085549E4F0E941D29809153
:10506000B90190E001968F7099278093B9010AC029
:105070000E94252987EB9BE00197F1F700C0000013
:105080002197D1F6DF91CF910895FC01A091BA014B
:10509000B0E09D012F5F3F4F2F7033278091B90102
:1050A000821771F083E0AA0FBB1F8A95E1F7A55420
:1050B000BE4F98E001900D929A95E1F72093BA01C6
:1050C0000E9425290C94182882E790E00895FC019D
:1050D000808180768032B1F58181813041F481EB2D
:1050E00091E090938A028093890288E0089582304B
:1050F00041F48BE392E090938A028093890281E0ED
:1051000008958A3021F4838180933B021BC089304B
:10511000C9F482819381811522E0920731F4848160
:105120009581892B89F482E004C08130934061F439
:1051300081E08093B001868197819093AF01809345
:10514000AE0102C080E008958FEF0895FC018091C8
:10515000AE019091AF01892B99F09091B0019130FF
:1051600051F0923069F4808180933C021092AF013B
:105170001092AE0103C08B9A0E94112481E0089521
:105180008FEF0895FC018381813261F08232D1F08A
:10519000823071F585E198E090938A0280938902CC
:1051A0008BE308958281882329F0813009F580E41A
:1051B00098E002C087E298E090938A028093890287
:1051C00089E0089584819581009751F0019781F4D9
:1051D00080E598E090938A028093890284E808959C
:1051E00084ED98E090938A028093890280E4089588
:1051F00080E008951F93CF93DF93162FEA01288153
:1052000024FF05C0398128E82327298302C02AE525
:105210002883FC019E012E5F3F4FD901912F819180
:105220008D939150E1F7612FC9010E9409051C5F20
:105230001883DF91CF911F91089549E752E00C94B4
:10524000FA2845EA52E00C94FA28CF93DF93609154
:105250008B02635067FDB1C080918702CCE0D0E043
:10526000C81BD109C157DD4F809186028D3209F0EC
:1052700092C0683009F09FC083EC80936E028AE58B
:1052800080937D0010923D028881807621F0CE01CE
:105290000E9467286DC09A811092770289818111DE
:1052A00006C01092780227E732E082E05CC08530C9
:1052B00019F490938C0254C08630D1F58B818130E3
:1052C00041F484E199E090938A028093890282E11B
:1052D0002BC0823021F18330F1F4911108C088E5B0
:1052E00099E090938A028093890284E01DC09130F6
:1052F00041F482E499E090938A028093890286E1E6
:1053000013C0923081F486E299E090938A028093F0
:1053100089028CE109C0813211F0823221F4CE0180
:105320000E94C22801C080E090E490933D0220C01A
:10533000883079F0893019F490938E0211C08A3048
:1053400059F08B3069F48BE480937A028093A60243
:1053500007C02EE832E002C027E732E081E003C058
:1053600027E732E080E030938A022093890209C067
:105370008F3F39F4988197FD8E8190E890933D029C
:1053800007C09F81911104C09E81981708F4892F4E
:1053900080937C0010C080913D0287FF0CC0CE013D
:1053A0000E94A6288F3F21F48EE180937D0003C0E8
:1053B000811110927C0010928B0280917D0084FFFD
:1053C00046C080917C008F3F09F441C0C82F8930CE
:1053D00008F0C8E08C1B80937C0090916E0288E8F6
:1053E000892780936E02CC2329F1809189029091C4
:1053F0008A0220913D0226FF0AC0AFE6B2E0FC011E
:105400002C2F34913D9331962150D9F708C0DC01FF
:10541000EFE6F2E02C2F3D9131932150E1F72FEF91
:105420002C0F30E02F5F3F4F820F931F90938A0223
:10543000809389026C2F8FE692E00E940905CC5F71
:10544000CC3019F08FEF80937C00C0937D0084E115
:1054500090B39C7031F48150D9F710928C02109265
:105460008502DF91CF91089585B7886085BF8BB79E
:1054700080688BBFA9E7B2E08BE411968C931197FB
:10548000E5EAF2E081838AE58C93808308950E94A7
:105490005B2A0C94432B0E943C2B58F00E94352B26
:1054A00040F029F45F3F29F00C942C2B51110C94FF
:1054B000772B0C94322B0E94542B68F39923B1F371
:1054C000552391F3951B550BBB27AA27621773072A
:1054D000840738F09F5F5F4F220F331F441FAA1FBE
:1054E000A9F335D00E2E3AF0E0E832D0915050407A
:1054F000E695001CCAF72BD0FE2F29D0660F771F28
:10550000881FBB1F261737074807AB07B0E809F00D
:10551000BB0B802DBF01FF2793585F4F3AF09E3F92
:10552000510578F00C942C2B0C94772B5F3FE4F30F
:10553000983ED4F3869577956795B795F7959F5FD5
:10554000C9F7880F911D9695879597F90895E1E021
:10555000660F771F881FBB1F621773078407BA0780
:1055600020F0621B730B840BBA0BEE1F88F7E095DB
:1055700008950E94C02A6894B1110C94772B089565
:105580000E945C2B88F09F5798F0B92F9927B7514C
:10559000B0F0E1F0660F771F881F991F1AF0BA95D7
:1055A000C9F714C0B13091F00E94762BB1E0089594
:1055B0000C94762B672F782F8827B85F39F0B93F86
:1055C000CCF3869577956795B395D9F73EF490958A
:1055D0008095709561957F4F8F4F9F4F0895E89408
:1055E00009C097FB3EF490958095709561957F4F2B
:1055F0008F4F9F4F9923A9F0F92F96E9BB279395D9
:10560000F695879577956795B795F111F8CFFAF4E8
:10561000BB0F11F460FF1BC06F5F7F4F8F4F9F4F19
:1056200016C0882311F096E911C0772321F09EE877
:10563000872F762F05C0662371F096E8862F70E0DD
:1056400060E02AF09A95660F771F881FDAF7880FB7
:105650009695879597F9089597F99F6780E870E088
:1056600060E008959FEF80EC089500240A941616D8
:10567000170618060906089500240A941216130640
:10568000140605060895092E0394000C11F48823CE
:1056900052F0BB0F40F4BF2B11F460FF04C06F5FEA
:1056A0007F4F8F4F9F4F089557FD9058440F551FC0
:1056B00059F05F3F71F04795880F97FB991F61F094
:1056C0009F3F79F087950895121613061406551F0B
:1056D000F2CF4695F1DF08C0161617061806991F77
:1056E000F1CF86957105610508940895E894BB276C
:1056F00066277727CB0197F908950E94902B0C9489
:10570000432B0E94352B38F00E943C2B20F0952330
:1057100011F00C942C2B0C94322B11240C94772B1D
:105720000E94542B70F3959FC1F3950F50E0551FC5
:10573000629FF001729FBB27F00DB11D639FAA27E6
:10574000F00DB11DAA1F649F6627B00DA11D661F35
:10575000829F2227B00DA11D621F739FB00DA11D56
:10576000621F839FA00D611D221F749F3327A00D10
:10577000611D231F849F600D211D822F762F6A2FAC
:1057800011249F5750409AF0F1F088234AF0EE0F11
:10579000FF1FBB1F661F771F881F91505040A9F73E
:1057A0009E3F510580F00C942C2B0C94772B5F3F7F
:1057B000E4F3983ED4F3869577956795B795F7957A
:1057C000E7959F5FC1F7FE2B880F911D96958795F2
:1057D00097F90895AA1BBB1B51E107C0AA1FBB1F65
:1057E000A617B70710F0A61BB70B881F991F5A956D
:1057F000A9F780959095BC01CD01089597FB072EE0
:1058000016F4009407D077FD09D00E94EA2B07FC1C
:1058100005D03EF4909581959F4F089570956195C0
:105820007F4F0895EE0FFF1F0590F491E02D09942E
:105830000F93083090F0982F872F762F652F542FD5
:10584000432F322F22270850F4CF220F331F441F3B
:10585000551F661F771F881F991F0A95B2F70F9172
:1058600008952A153B054C055D056E057F058007EB
:1058700091070895FC014150504030F00190061608
:10588000D1F73197CF010895882799270895E19995
:10589000FECF9FBB8EBBE09A99278DB30895A6E1FA
:1058A000B0E044E050E00C948D2CA8E1B0E042E080
:1058B00050E00C948D2C262FE199FECF9FBB8EBB20
:1058C000E09A01970DB2021631F02DBB0FB6F89495
:1058D000E29AE19A0FBE08950396272F0E945C2C4E
:1058E0000E945B2C252F0E945C2C242F0C945C2C96
:1058F0000196272F0E945C2C0C945B2C262FE1999B
:10590000FECF9FBB8EBB2DBB0FB6F894E29AE19AF7
:105910000FBE01960895DC01CB01FC01E199FECF99
:1059200006C0FFBBEEBBE09A31960DB20D9241501E
:0A5930005040B8F70895F894FFCF37
:10593A000501020C0C01191A1B1C1D1E1F20212215
:10594A009D01AA274528F527D127AD27FF5A00012F
:10595A00020202020606060909090909090F0F0FC0
:10596A000F0F0F15151518191919191919191919C8
:04597A0019232400C9
:00000001FF
