:100000000C94CA070C940E080C94D7080C940E0894
:100010000C940E080C940E080C940E080C940E0808
:100020000C940E080C940E080C9489280C940E085D
:100030000C940E080C940E080C940E080C940E08E8
:100040000C940E080C940E080C940E080C940E08D8
:100050000C940E089E0CA00CA20CAD0CA40CA60CCB
:10006000A80CAA0CAC0CAF0CB10CB30CBE0CB50CAC
:10007000B70CB90CBB0CBD0CC00CCA1FCA1FFC1FAF
:10008000FC1F3A208821882188215A2088210721B5
:10009000072178218821882181211421142114210C
:1000A00014211421142114211421142114211421A8
:1000B00014211421142114211421252133213A2142
:1000C00041214B2113221322252225221C222522E5
:1000D0002522252213221322212225222522212214
:1000E00007634236B79BD8A71A39685618AEBAAB21
:1000F000558C1D3CB7CC5763BD6DEDFD753EF617B5
:100100007231BF000000803F05A84CCDB2D44EB97B
:100110003836A9020C50B9918688083CA6AAAA2AAA
:10012000BE000000803F03E200015E00015D0001AF
:10013000590002E2003100130012000C00150017F4
:10014000001C00180008001A0014002B000000001A
:10015000000000340033000F000E0009000A000BFD
:10016000000D0007001600040029420000000000F6
:10017000002A002700260025002100220023002459
:100180000020001F001E00350000000000000038A5
:100190007237003600100006001900050011002813
:1001A000001B001D00E1000000000000004C002EBC
:1001B000002D0028002C00015101512C00E200E329
:1001C00000E000E00000000000000000000000006F
:1001D000000000000000000000000000000000001F
:1001E000000000000000000000000000000000000F
:1001F00000000000000000000000000000000000FF
:1002000000000000000000000000000000000000EE
:1002100000000000000000000000000000000000DE
:100220000000000000005C46004E0052004B00221F
:100230000023004B0052004E00A6002800000000E2
:1002400000000028004D004F0051004F004D004AB3
:10025000005000510050004A00390000000000002A
:100260000044002E002D0041003D003E003F0040B4
:10027000003C003B003A0045000000000000003850
:1002800002A900AA00AE00C05CC85CC75CC45C28C0
:10029000004C002A0001000000000000000100A93D
:1002A00000AA00010001000100010001000100019D
:1002B000000100010000000000000000000000003C
:1002C000000000000000000000000000000000002E
:1002D000000000000000000000000000000000001E
:1002E000000000000000000000000000000000000E
:1002F00000000000000000000000000000000000FE
:1003000000000000000000000000000000000000ED
:10031000000000000031004600BC5CBB5C30000106
:1003200000B95CBA5C2F0001000100280000000049
:10033000000000280030002F00300227023602376C
:10034000022F02260201000100010000000000004F
:100350000044002E002D0041003D003E003F0040C3
:100360000043003E003E014500000000000000CBBD
:100370005CC55CC65CC35C3002C85CC75CC45C2FF7
:1003800002010001000100000000000000AE00A911
:1003900000AA00AB00010001000100010001000102
:1003A000000100BE5C000000000000000000000032
:1003B000000000000000000000000000000000003D
:1003C000000000000000000000000000000000002D
:1003D000000000000000000000000000000000001D
:1003E000000000000000000000000000000000000D
:1003F00000000000000000000000000000000000FD
:1004000000000000000100010001000100010001E6
:1004100000010001000100010001000100000000D6
:1004200000000001000100010001000100010001C5
:1004300000010001000100010001000000000000B7
:1004400000010001000100010001000100010001A4
:10045000000100DC5C010001000000000000000160
:100460000001000100010001000100010001000184
:1004700000010001000100000000000000B95CBCA8
:100480005CBB5CBA5C0100010001000100010001DD
:10049000000100010000000000000000000000005A
:1004A000000000000000000000000000000000004C
:1004B000000000000000000000000000000000003C
:1004C000000000000000000000000000000000002C
:1004D000000000000000000000000000000000001C
:1004E000000000000000000000000000000000000C
:1004F000000000000044454255473A20656E6162A5
:100500006C65642E0A0000000000000000002A2B29
:1005100028000000000000000000000000000000B3
:100520000029000000002C1E34202122243426271C
:10053000252E362D3738271E1F202122232425263D
:100540003333362E37381F0405060708090A0B0C0B
:100550000D0E0F101112131415161718191A1B1C53
:100560001D2F3130232D350405060708090A0B0C11
:100570000D0E0F101112131415161718191A1B1C33
:100580001D2F3130354C000000000000000000003D
:10059000000000000000000000000000000000005B
:1005A0000000000000000001010101010100010143
:1005B0000101000000000000000000000000000039
:1005C000010001000101010101010101010101011D
:1005D000010101010101010101010101010101010B
:1005E0000100000001010000000000000000000008
:1005F00000000000000000000000000000000000FB
:1006000000010101010054494D45523320646973D2
:1006100061626C65642E0A0054494D455233206571
:100620006E61626C65642E0A007267626C6967684D
:10063000742073657420687376205B4E4F45455077
:10064000524F4D5D3A2025752C25752C25750A00D5
:100650007267626C6967687420736574206873766A
:10066000205B454550524F4D5D3A2025752C257530
:100670002C25750A007267626C6967687420726164
:10068000696E626F7720736574206873763A2025EF
:10069000752C25752C25642C25750A007267626CF3
:1006A000696768742064697361626C65205B4545A5
:1006B00050524F4D5D3A207267626C696768745F93
:1006C000636F6E6669672E656E61626C65203D20A2
:1006D00025750A007267626C6967687420656E61CF
:1006E000626C65205B454550524F4D5D3A20726704
:1006F000626C696768745F636F6E6669672E656EAA
:1007000061626C65203D2025750A007267626C6924
:1007100067687420746F67676C65205B454550524D
:100720004F4D5D3A207267626C696768745F636FF2
:100730006E6669672E656E61626C65203D20257569
:100740000A007267626C69676874206D6F64652067
:100750005B4E4F454550524F4D5D3A2025750A007E
:100760007267626C69676874206D6F6465205B45B1
:100770004550524F4D5D3A2025750A007267626CF4
:10078000696768745F696E6974207267626C696713
:1007900068745F636F6E6669672E6D6F6465203D78
:1007A00020302E2057726974652064656661756C0F
:1007B000742076616C75657320746F2045455052C6
:1007C0004F4D2E0A007267626C696768745F696ECC
:1007D0006974206565636F6E666967206973206E52
:1007E0006F7420656E61626C65642E0A00726762C8
:1007F0006C696768745F696E697420737461727480
:10080000210A007267626C696768745F696E697457
:100810002063616C6C65642E0A007267626C6967A4
:1008200068745F636F6E6669672E737065656420B8
:100830003D2025640A007267626C696768745F63B3
:100840006F6E6669672E76616C203D2025640A0014
:100850007267626C696768745F636F6E6669672E42
:10086000736174203D2025640A007267626C6967B9
:1008700068745F636F6E6669672E687565203D20DA
:1008800025640A007267686C696768745F636F6EDD
:100890006669672E6D6F6465203D2025640A0072CD
:1008A00067626C696768745F636F6E6669672E65FF
:1008B0006E61626C65203D2025640A007267626C7F
:1008C000696768745F636F6E666967206570726FD1
:1008D0006D0A0000046801F000B40078005A007F3F
:1008E0003F1F643214643214783C1E1E140A050043
:1008F00000000000010101010101010101020202E9
:1009000002020202020203030303030303030404BB
:100910000404040405050505050606060606070782
:100920000707080808080909090A0A0A0A0B0B0B35
:100930000C0C0C0D0D0D0E0E0F0F0F1010111111D0
:10094000121213131414151516161717181819194F
:100950001A1A1B1C1C1D1D1E1F1F202021222223B2
:1009600024252526272728292A2B2B2C2D2E2F2FEF
:1009700030313233343536363738393A3B3C3D3E08
:100980003F4041424344464748494A4B4C4D4F50F3
:10099000515253555657585A5B5C5E5F60626364B0
:1009A0006667696A6C6D6E707173747678797B7C3A
:1009B0007E8081838486888A8B8D8F91929496988D
:1009C0009A9B9D9FA1A3A5A7A9ABADAFB1B3B5B7A6
:1009D000B9BBBDBFC1C4C6C8CACCCFD1D3D6D8DA83
:1009E000DCDFE1E4E6E8EBEDF0F2F5F7FAFCFF0A14
:1009F000002530325820006B6579626F6172645F48
:100A00007265706F72743A20000A00253032580007
:100A10006B6579626F6172645F7365745F6C656446
:100A20003A20003F00433E20004C25640A007469D0
:100A30006D65725F72656164333228293A20253012
:100A4000346C580A00686F73745F6B6579626F610C
:100A500072645F6C65647328293A2025580A000A7D
:100A6000092D20537461747573202D0A0047434388
:100A70003A20342E392E32204156522D4C494243D1
:100A80003A20322E302E30204156525F4152434898
:100A90003A20617672350A004F5054494F4E533A0E
:100AA00020565553422045585452414B45592043F6
:100AB0004F4E534F4C4520434F4D4D414E442034F3
:100AC0003039360A004255494C443A2022302E36FD
:100AD0002E37342D3237312D673062616530382D35
:100AE000646972747922202831323A32383A3137C7
:100AF000204D61722032362032303139290A0056B9
:100B000049443A20307832304130286B7072657039
:100B100075626C696329205049443A203078343238
:100B20003244286A6A353029205645523A204445D5
:100B3000564943455F5645520A00444553433A20BF
:100B40005072656F6E69632D6C696B6520636C6FA5
:100B50006E650A000A092D2056657273696F6E2052
:100B60002D0A000A092D20436F6E736F6C65202DCE
:100B70000A4553432F713A09717569740A000A09CD
:100B80002D204D61676963202D0A443A094465624E
:100B90007567204D65737361676520546F67676C77
:100BA000650A583A094D6174726978204465627526
:100BB00067204D6F646520546F67676C65202D203A
:100BC00053686F77206B65797072657373657320F6
:100BD000696E206D617472697820677269640A4B6E
:100BE0003A094B6579626F6172642044656275678A
:100BF00020546F67676C65202D2053686F77206BDA
:100C000065797072657373207265706F72740A4DC6
:100C10003A094465627567204D6F75736520546F9E
:100C200067676C650A563A0956657273696F6E0A92
:100C3000533A095374617475730A433A09416374F2
:100C4000697661746520436F6E736F6C65204D6FBC
:100C500064650A46312D4631303A09537769746329
:100C60006820746F204C6179657220302D392028FE
:100C7000463130203D204C30290A302D393A095375
:100C8000776974636820746F204C617965722030D5
:100C90002D390A4553433A095377697463682074C0
:100CA0006F204C6179657220302028616C74657208
:100CB0006E617465206B65792031290A475241566F
:100CC000453A0953776974636820746F204C6179E1
:100CD000657220302028616C7465726E61746520C5
:100CE0006B65792032290A50415553453A094A75B6
:100CF0006D7020746F20426F6F746C6F61646572E9
:100D000020285265736574290A003F000A6D6F75CB
:100D100073653A206F66660A000A6D6F7573653AEF
:100D2000206F6E0A000A6B6579626F6172643A2007
:100D30006F66660A000A6B6579626F6172643A20B9
:100D40006F6E0A000A6D61747269783A206F666688
:100D50000A000A6D61747269783A206F6E0A000A9F
:100D600064656275673A206F66660A000A646562A8
:100D700075673A206F6E0A000A0A4A756D70696ECF
:100D80006720746F20626F6F746C6F616465722E80
:100D90002E2E2000433E20006D61696E206C6F6F27
:100DA000700A00696E6974466F72557362436F6EA4
:100DB0006E656374697669747928290A000A0025CA
:100DC000303258005345545F4C45443A20000A00E5
:100DD00056454E444F523A00554E4B4E4F574E3AA1
:100DE000005345545F4C45443A20005345545F52EC
:100DF00045504F52543A2000253032580053455444
:100E00005F49444C453A20004745545F49444C45AE
:100E10003A20004745545F5245504F52543A006BB8
:100E20006275663A2066756C6C0A00290A002530E6
:100E30003258005D28002575002D3E0025750056AE
:100E40002D5553423A206B6275665B0009023B00E8
:100E500002010080FA0904000001030101000921D8
:100E60000101000122400007058103080001090477
:100E7000010001030000000921010100012284009A
:100E80000705830308000105010902A10185010985
:100E900001A1000509190129051500250175019514
:100EA000058102750395018103050109300931159A
:100EB00081257F75089502810609381581257F35C2
:100EC000004500750895018106050C0A3802158158
:100ED000257F750895018106C0C005010980A10123
:100EE0008502150126B700190129B77510950181F2
:100EF00000C0050C0901A10185031501269C0219FA
:100F0000012A9C02751095018100C005010906A106
:100F10000175019508050719E029E71500250181EC
:100F200002950175088103950575010508190129C8
:100F30000591029501750391039506750815002624
:100F4000FF000507190029FF8100C01201100100F0
:100F5000000008A0202D420002010200011C034AEB
:100F6000004A003500300020004B00650079006227
:100F7000006F0061007200640016034B00500052C5
:100F80000065007000750062006C00690063000479
:100F90000309040011241FBECFE5D8E0DEBFCDBF9A
:100FA00004B603FE24C08091550290915602A09190
:100FB0005702B09158028730904BA740B04BB9F41C
:100FC0001092550210925602109257021092580237
:100FD00014BE84B7877F84BF0FB6F894A89581B5F7
:100FE000886181BD11BC0FBEE0E0F8E3099510E017
:100FF000A0E6B0E0E2E0F4E602C005900D92A23770
:10100000B107D9F722E0A2E7B0E001C01D92A535F3
:10101000B207E1F70E945F2A0C94FF310C940000A4
:10102000FF93EF93E0917200F0917300309709F015
:101030000995EF91FF910895FC018591803011F0A1
:10104000EFDFFBCF0895FF27E0E230E247FF0CC05F
:10105000419597FF09C0EDE2609570958095909558
:10106000611D711D811D911D27FF02C0219530E377
:1010700050E2AA27660F771F881F991FAA1FA4177F
:1010800010F0A41B63955A95A9F7AA3008F0A95F40
:10109000A05DAF93F395611571058105910541F749
:1010A000ED3211F4EF93F395F21718F43F93F395A3
:1010B000FBCF8F91B5DFFA95E1F70895E991F991AA
:1010C0008591803021F0853219F0AADFF9CF08959B
:1010D00020E0E89455915532C1F3503311F46894EF
:1010E00055915A3348F4505390F3220F022E220F99
:1010F000220F200D250FF4CF0EF42195899199919F
:10110000533619F3533729F1533559F1BC01882768
:101110009927E8945C3621F48991999168945591C6
:10112000543639F446EF7EF077FF0DC08FEF9FEF16
:101130000AC055374AE039F0583540E121F05236BF
:1011400042E009F00895FF93EF937DDFEF91FF9167
:10115000B7CFFF93EF93FC0181918030B9F360DF4B
:10116000FBCFFF93EF9368DFF1CFDF93CF93CDB742
:10117000DEB72596A3DFCF91DF910895A82FB92F71
:1011800080E090E041E050EA609530E009C02D91A8
:1011900082279795879510F084279527305EC8F3AE
:1011A0006F5FA8F30895EADF8D939D930895CF9321
:1011B000CFB7CF93C395839BE9F7839B0EC0839BE7
:1011C0000CC0839B0AC0839B08C0839B06C0C09150
:1011D0002C02C395C0932C02A3C0DF93C0912B02B5
:1011E000DD27CD5CDD4F839B02C0DF91E6CF2F93DF
:1011F0000F931F9300B32FEF03FB20F94F933F93FF
:1012000010B34FEF012703FB21F93BE031C04E7FC4
:10121000012F10B3216028C0102F4D7F22600000E5
:1012200000B329C04B7F2460012F000010B32BC0F6
:1012300010B3477F28602AC04F7E00B320612CC0C6
:101240004F7D10B320622FC04F7B00B3206432C0AB
:10125000422700B349934FEF0000102713FB20F9FA
:1012600010B31C70C9F1297F91F2012703FB21F90A
:1012700000B3237F89F2315058F1102713FB22F974
:1012800010B3277E79F2012703FB23F92F7C81F22B
:1012900000B3102713FB24F92F7971F200C010B3AB
:1012A000012703FB25F92F7359F200C000B3102763
:1012B00013FB26F9223040F200C010B3012703FBD4
:1012C00027F9243028F64F77206810B30000F9CFB3
:1012D00010E81ABF002719C03B503195C31BD040FE
:1012E00010E81ABF0881033CF9F00B34E9F02091B3
:1012F00029021981110F1213EDCF4A81441F0936BB
:1013000041F10D3211F0013E29F7009331023F9176
:101310004F911F910F912F91DF91CAB7C7FD4ACF0F
:10132000CF91CFBFCF91189520913102222379F32D
:1013300010912F021123C1F53430C2F130932F02E6
:1013400020932A0210912B023BE0311B30932B0299
:101350002DC000912F0201303CF50AE54F7049F491
:101360003091700034FD24C000937000C2E1D2E0DF
:1013700023C0433049F030911D0234FD19C0009361
:101380001D02CEE1D2E018C03091490234FD10C0F8
:1013900000934902CAE4D2E00FC02795A8F4515047
:1013A000A9F4220F0000F9CF4AE503C042ED01C0C5
:1013B000432FC4E1D0E032E011B31C60939A11BB1B
:1013C00002B320E41CE05F93012756E002BB27959F
:1013D00020F4515021F4220FF9CF012756E00000EC
:1013E0003B5A02BBD0F2279528F4515029F4220F22
:1013F0000000F9CF012756E0279502BB20F4515099
:1014000021F4220FF9CF012756E02991332302BBA3
:1014100021F6037F10913002110FC651D04002BB5C
:1014200011F01093290210E81ABF086011B3137F5E
:10143000402F437F5F9100C000C002BB11BB42BB85
:1014400066CF8FEF87BB88BB1ABA94B39B7B94BBE4
:101450008BBB85B38C6F85BBE4E8F0E0A4E7B0E01C
:10146000119211921D921D9280E0E439F807C1F7A4
:101470000C94ED0B21E030E0A90102C0440F551F90
:101480008A95E2F7CA0147BB809588BB0895982FDB
:10149000990F9A7A86958575982B84E0989F90018C
:1014A0001124822F8C7C969596959373892B829527
:1014B0000895DF92EF92FF920F931F93CF93DF93E4
:1014C00094E7E92E90E0F92E8701C0E025E0D22EC6
:1014D0008C2F0E943A0A84E18A95F1F7D9B383B33D
:1014E00080950E94470A282F30E0322F2227D0957E
:1014F0002D2BD8018D919C9111978217930721F084
:101500002D933C93D0926000CF5F0E5F1F4FC83089
:10151000F9F6809160008823C9F0815080936000C3
:10152000882339F0E7EBFBE03197F1F700C00000CA
:101530000DC0E4E8F0E0D7018D919D917D0181938C
:101540009193B4E8EB16B0E0FB06A9F70E94EF0B0D
:1015500081E0DF91CF911F910F91FF90EF90DF908D
:101560000895E82FF0E0EE0FFF1FEC57FF4F80814A
:1015700091810895089585B3836085BB87E080B924
:1015800086B7846086BF86B7816086BF86B7806471
:1015900086BF089516BE94EA96BF06B607FEFDCF35
:1015A00091B1987F983011F081E0089583B984E873
:1015B00086BF06B607FEFDCF81B1887F883111F066
:1015C000803491F780E0089583B984E886BF06B639
:1015D00007FEFDCF91B1987F81E0983209F480E059
:1015E0000895CF92DF92EF92FF921F93CF93DF93F4
:1015F00000D0CDB7DEB77A0169837A830E94CA0A28
:10160000182F69817A8181110DC06B01EC0CFD1CD2
:10161000CE14DF0449F0F60181916F010E94E40AC3
:101620008823B1F311E002C084E986BF812F0F90B7
:101630000F90DF91CF911F91FF90EF90DF90CF90AF
:10164000089580FF03C0889A909A02C08898909865
:1016500081FF03C0899A919A02C08998919882FF6C
:1016600003C08E9A969A08958E98969808958091C0
:10167000E30180FF09C00E94BB0A44E250E068EE2B
:1016800071E080EB0C94F10A80E090E0FC01E851FD
:10169000FE4F118210821282039684329105B1F7B7
:1016A000EACF08950C94510B089580919400811114
:1016B00010C08091E30180FF0CC00E94BB0A44E28D
:1016C00050E068EE71E080EB0E94F10A81E08093C7
:1016D00094000E9406190C94540B9C01FB0182811A
:1016E0008823C9F02C3D3C45B9F482E391E00E9487
:1016F000EA0B8FE291E00E94EA0B8CE291E00E94FB
:10170000EA0B89E291E00E94EA0B86E291E00E94F6
:10171000EA0B80E0089581E0089581E008950C943B
:101720006D0BCF93282F30E0F901EA5FFA4FC49197
:10173000F901EA57FA4F2491222359F081EE0E94D1
:101740009F1E8C2F0E949F1E8C2F0E945A1F81EE7D
:1017500004C08C2F0E949F1E8C2FCF910C945A1F77
:101760000F931F93CF93DF93EC01062FFE0184911B
:10177000882359F19E012F5F3F4F813041F4E901E9
:10178000F9011491812F0E949F1E812F0DC082307C
:1017900031F4E901F90184910E949F1E0AC083304F
:1017A00031F4E901F90184910E945A1F02C00E949C
:1017B000910B2196802F8823C9F2E7EBFBE031974C
:1017C000F1F700C000008150F6CFDF91CF911F915B
:1017D0000F91089560E00C94B00B0C94520B0C9494
:1017E000550B0C94210B0C94F10B08950E940122CF
:1017F0000E94F50B2FEB87E299E02150804090404A
:10180000E1F700C000000C94AF28EF92FF920F9315
:101810001F93CF93DF9300D0CDB7DEB78C01FC01CF
:10182000E080F180C7010E94D626B7010E94A50E74
:101830009A838983B801CE0101960E9446198823B4
:1018400081F1B80189819A810E948F0B882349F127
:10185000B80189819A810E940311882311F129819D
:101860003A81283CFCE53F07F1F008F01BC1213C20
:10187000ECE53E0701F158F525318CE5380708F015
:10188000ABC02230ECE53E07D0F52115FCE53F0763
:1018900009F086C0F8011281112309F448C20E94A0
:1018A000F60B10E044C2F8011281112309F43FC283
:1018B0000E947314F6CFF8011281112309F437C284
:1018C0000E9488278272C1F00E945515EACF243CFD
:1018D0008CE5380709F4B7C008F0C9C0223CFCE524
:1018E0003F0709F0B8C0F8011281112309F41FC2A3
:1018F0000E948827827241F30E944B15D2CFF801D3
:101900008281882309F454C00E94E527811102C016
:101910000E94C4270E94F82790E0909311028093C0
:101920001002E981FA81E250FC45E331F10588F5C6
:10193000E65DFF4F809110020C948331816027C0D7
:10194000826025C0846023C0806121C080621FC086
:1019500080641DC080681BC08460886018C08E7F52
:1019600016C08D7F14C08B7F12C08F7E10C08F7DFC
:101970000EC08F7B0CC08F770AC08B7F877F07C01C
:1019800087FB222720F991E0922790FB87F980932B
:101990001002809110020E94FC270E94012281CF38
:1019A00021303C4551F081E080939A0080939B0068
:1019B000C8010E948D0B182FBAC1F80112811123A2
:1019C00009F4B5C180914D01816080934D0185EF8F
:1019D00094E00E941C0865CF2531ECE53E0739F5FF
:1019E0000E948827282FF80182814091630050913E
:1019F0006400882379F02A7A91E009F490E09093CA
:101A00009500911102C069E201C065E3CA010E941C
:101A100034280AC080919500811102C069E201C09A
:101A200065E3CA010E9436280E9455273ACF203C20
:101A30003C4509F0B8CFF8011281112309F477C1B0
:101A40000E9405162ECFF8011281112309F46FC1EF
:101A50000E94041426CF233C3C4509F0A4CFF80192
:101A60001281112309F463C10E94EC131ACFF8010B
:101A70001281263CFCE53F0731F4112309F457C1DC
:101A80000E943E140ECF273C3C4530F4112309F44C
:101A90004EC10E94231405CF112309F448C10E94AE
:101AA0005814FFCE2F3CECE53E07B1F4F80112814B
:101AB000112309F43CC10E9467126F307105810542
:101AC000910540F00E94671264317105810591050E
:101AD00008F412CF8FE00FC0203DFCE53F0708F06F
:101AE0006EC02B3C8CE5380749F4F80112811123B4
:101AF00009F41DC181E00E944815D3CE2C3CECE5D1
:101B00003E07C0F4293CFCE53F0741F4F80112818F
:101B1000112309F40CC10E947512C3CE2A3C3C4526
:101B200009F041CFF8011281112309F400C10E948C
:101B30008A12B7CEF80112812D3CFCE53F07A1F4D3
:101B4000112309F4F4C00E94671266307105810503
:101B5000910540F00E94671268307105810591057A
:101B600008F4CACE86E0C7CF2E3C3C45A0F4112332
:101B700009F4DDC00E94671262307105810591058C
:101B800040F00E946712653071058105910508F4E7
:101B9000B3CE82E0B0CF112309F4C9C00E9467120E
:101BA000693071058105910540F00E9467126E3021
:101BB00071058105910508F49FCE89E09CCF233DF6
:101BC000ECE53E0739F4F8011281112309F4AFC0A6
:101BD00083E291CF243DFCE53F07B0F5F801128187
:101BE000213DFCE53F0729F4112309F4A0C088E159
:101BF00082CF223D3C45A0F4112309F498C00E94F5
:101C00006712653171058105910540F00E946712E8
:101C1000673171058105910508F46ECE85E16BCFC2
:101C2000112309F484C00E9467126931710581058E
:101C3000910540F00E94671262327105810591059D
:101C400008F45ACE89E157CF253DECE53E0739F53A
:101C5000F8018281882361F010929B000E9447283E
:101C6000909399008093980080E20E94861F19CE7D
:101C700080919B0081110FC08091980090919900F4
:101C80000E945F28883C910530F487E20E949F1EE5
:101C900087E20E945A1F80E20E948D1F02CE253DDE
:101CA000FCE53F0728F5F8011281112351F010924D
:101CB0009A000E944728909397008093960082E0B4
:101CC000D4CF80919A0081110FC08091960090919D
:101CD00097000E945F28883C910530F486E20E94BC
:101CE0009F1E86E20E945A1F82E00E948D1F1FC025
:101CF000263D3C4509F057CEF80182818111ACCFD9
:101D000010919B001111C7CF80919800909199007C
:101D10000E945F28883C910508F0BDCF80E20E94B8
:101D20008D1F88E20E949F1E88E20E945A1F812F09
:101D30000F900F90DF91CF911F910F91FF90EF9037
:101D4000089580E090E0089508959FE0799FF00164
:101D5000112498E7899FE00DF11D1124E60FF11D74
:101D6000EE0FFF1FEB5CFE4F859194910895880F55
:101D7000991FFC01EA5FF94F859194910895CF93E3
:101D8000DF930E94A50E0E946210EC01811520E5F0
:101D90009207F0F5811530E4930708F018C1883EEA
:101DA000910500F5803E910508F088C1883A9105BB
:101DB00070F4853A910508F09AC08130910509F4D4
:101DC0007DC108F434C1049708F078C130C18D3B5F
:101DD000910508F497C0803C910508F428C1805C07
:101DE0009109E7C08115904258F4C11581E0D807E8
:101DF00008F064C1C03FD10508F419C1D0655EC1C7
:101E0000C11590E3D90708F0D8C0CE019F70D1C0AA
:101E1000811525E5920708F043C0811534E5930745
:101E200008F0ECC0811542E5940708F5C11581E57D
:101E3000D80708F0CFC02C2F237081E090E002C0BB
:101E4000880F991F2A95E2F79C689E0174E03695E9
:101E500027957A95E1F72370922BCF70C695C6959A
:101E600030E2C39FE0011124C82BD92B27C18695EE
:101E700086959E0123703327C115D34508F0AFC066
:101E800040E2849FC0011124C1E0D0E002C0CC0F29
:101E9000DD1F2A95E2F78C2B9D2BEC01DC680EC12F
:101EA000811529E5920778F4811538E5930708F044
:101EB000AAC08115964508F0BAC0CF71DD27DC2F86
:101EC000CC27D062FBC0C1158AE5D80708F4A0C0B2
:101ED000CE0190568115904208F0A9C08D2F8F71C8
:101EE0000E94DF10DD27D0628F71D82BE7C0853AC2
:101EF000910509F49FC0863A910509F09EC0C2E899
:101F0000D0E4DCC0883A910509F49AC0893A910579
:101F100009F499C08A3A910509F498C08B3A910561
:101F200009F497C08C3A910509F496C08B3B910552
:101F300009F495C08C3B910509F494C08D3A910544
:101F400009F493C0803B910509F492C08E3A910543
:101F500009F491C08F3A910509F490C0813B910535
:101F600009F48FC0823B910509F48EC0833B910533
:101F700009F48DC0843B910509F48CC0853B910523
:101F800009F48BC0863B910509F48AC0873B910513
:101F900009F489C0883B910509F488C0893B910503
:101FA00009F487C08A3B910509F486C0C0E0D4E4F7
:101FB00085C00E94B70EEC0181C0CE019927D3FFE6
:101FC00003C0EC01D86C7AC0EC01D06C77C0DF7034
:101FD000D06A74C0DC2FCC27C16FD06A6FC040E2DA
:101FE000849FC0011124C1E0D0E002C0CC0FDD1FEE
:101FF0002A95E2F7C82BD92BDA6860C0D82FCC27F6
:10200000C46FD06A5BC0D82FCC27C06FD06A56C0CF
:102010008C2F8F70806E90E0906A24E0D695C795E3
:102020002A95E1F7CF709C013C2BE90147C0C0E045
:10203000D0E044C0C1E8D0E441C0C3E8D0E43EC031
:10204000C2EED4E43BC0C9EED4E438C0CAEED4E456
:1020500035C0C5EBD4E432C0C6EBD4E42FC0C3EB2B
:10206000D4E42CC0C4EBD4E429C0C7EBD4E426C02C
:10207000CCECD4E423C0CDECD4E420C0C3E8D5E458
:102080001DC0CAE8D5E41AC0C2E9D5E417C0C4E946
:10209000D5E414C0C1E2D6E411C0C3E2D6E40EC058
:1020A000C4E2D6E40BC0C5E2D6E408C0C6E2D6E47A
:1020B00005C0C7E2D6E402C0CAE2D6E4CE01DF9191
:1020C000CF9108958238910549F1B0F4813391059B
:1020D00009F458C048F48932910509F44EC08A3297
:1020E000910509F454C008958533910509F440C061
:1020F0008933910599F00895833E910529F138F4CB
:10210000803E910591F0823E9105A1F00895863EB2
:102110009105F9F0873E910531F108952091100263
:1021200020FD3AC021FD38C008958091100280FD45
:1021300035C032C08091100282FF32C080911002FF
:1021400084FD30C083EE39C08091100282FD28C02A
:10215000F5CF8091100283FF27C08091100284FD8B
:1021600021C087EE2AC08091100283FD1DC0F5CFEB
:102170008091100285FD1AC01BC08091100285FD60
:1021800017C014C08091100286FD14C015C0809144
:10219000100286FD11C00EC080EE0FC089E30DC095
:1021A00082EE0BC080E009C086EE07C089E205C060
:1021B00085E303C08AE201C081E390E00895909135
:1021C000100292FF0DC0282F2871283019F4877F44
:1021D000846006C0282F2471243011F48B7F88601E
:1021E00093FF0DC0282F2871283119F4877E846150
:1021F00006C0282F2471243111F48B7E886194FD50
:10220000877E089508950F931F93CF93FB0122813A
:10221000211102C0C1E041C08C01C091A900C111CF
:1022200025C086319C45B1F70E94021181E0809360
:10223000A9000E9447289093A8008093A7001092BD
:102240009C0010929E0010929D001092A00010928F
:102250009F001092A2001092A1001092A400109270
:10226000A3001092A6001092A50017C08091A700AD
:102270009091A8000E945F288C32914058F690916E
:102280009C00E92FF0E0EE0FFF1FE356FF4F118394
:1022900000839F5F90939C00C0E08C2FCF911F9193
:1022A0000F910895EF92FF920F931F93CF93DF93B7
:1022B000E901662309F44BC0242F30E0EFEFF0E092
:1022C000E61BF109B901E69F9001E79F300DF69FEB
:1022D000300D1124232F8B01031B11095CE3E52E24
:1022E000F12CB7010E945B31FB01BC01069FC001CC
:1022F000079F900D169F900D1124B7010E945B312E
:10230000E230F105B1F040F4309779F0319711F5F2
:10231000832F242F461B21C0E430F105A1F068F083
:102320003597C1F4842F861B18C0832F262F230FC7
:1023300014C0862F830FE42F03C0E42FE61B842FE5
:10234000432F2E2F0AC0842F462F430F06C0842F01
:10235000242F03C080E020E040E0E42FF0E0E151D2
:10236000F74F4491E22FF0E0E151F74F9491E82FBD
:10237000F0E0E151F74FE49149839883EA83DF91DC
:10238000CF911F910F91FF90EF90089588E090E01A
:102390000C94B331AB01BC0188E090E00C94D031D7
:1023A000E3EEF1E083E080831092E4018FEF82831B
:1023B0008383148260817181828193810C94CA111C
:1023C00080914D0180FF08C08CEB98E09F938F9324
:1023D0000E94B5080F900F9080914D0180FF0FC0B3
:1023E0008091E30181701F928F938FE998E09F9312
:1023F0008F930E94B5080F900F900F900F908091CF
:102400004D0180FF10C08091E30186958F731F926C
:102410008F9384E898E09F938F930E94B5080F9064
:102420000F900F900F9080914D0180FF19C0809107
:10243000E301881F8827881F9091E401292F220F2C
:10244000822B97FB992790F99F938F938AE698E0C8
:102450009F938F930E94B5080F900F900F900F904D
:1024600080914D0180FF0EC08091E5011F928F93F6
:1024700080E598E09F938F930E94B5080F900F908E
:102480000F900F9080914D0180FF0EC08091E6016A
:102490001F928F9386E398E09F938F930E94B508D5
:1024A0000F900F900F900F9080914D0180FF0EC004
:1024B0008091E7011F928F938AE198E09F938F9319
:1024C0000E94B5080F900F900F900F9008956091A3
:1024D000E30160FF06C066956F7370E080E090E0F6
:1024E000089560E070E0CB0108958091E70190E0ED
:1024F00001968430910514F083E090E08093E70129
:102500006091E3017091E4018091E5019091E60111
:102510000C94CA118091E70190E0019797FF02C0E7
:1025200080E090E08430910514F083E090E08093A7
:10253000E7016091E3017091E4018091E5019091E0
:10254000E6010C94CA119091E30190FF0FC020E0C6
:1025500030E0F901E851FE4F8183608342832D5FB3
:102560003F4F24323105A9F70C94370B0895CF93D0
:10257000DF9300D01F92CDB7DEB72091E30120FF9B
:102580000AC09E012F5F3F4F0E9452114B8169810B
:102590008A810E94A3120F900F900F90DF91CF912C
:1025A00008952F923F924F925F926F927F928F92F7
:1025B0009F92AF92BF92CF92DF92EF92FF920F93D2
:1025C0001F93CF93DF93CDB7DEB727970FB6F8945D
:1025D000DEBF0FBECDBF8C01262E342E2D83809101
:1025E000E30180FFDDC0982F9E77923061F49E0159
:1025F0002F5F3F4FC8010E9452114B8169818A8130
:102600000E94A31280C0E82FE695EF739EE39E0F11
:102610009F73943018F43090E60175C09AE39E0FD2
:102620009F73993068F4881F8827881F9091E40170
:10263000292F220F022F082B97FB112710F963C0B7
:1026400087E28E0F8F738A3008F05DC0F0E07997D3
:10265000E0FD03C021E02C8302C03FEF3C83EE7F0E
:10266000EB52F74F859094908C81682E880F7708F5
:10267000C4016CE070E00E945B31669E2001679EA1
:10268000500C769E500C1124580198E9A91A9EEF1F
:10269000B90A88EEC82E81E0D82EE12CF12CC501B4
:1026A00068E671E00E945B3120914D0120FF18C067
:1026B0009F928F927F92AC81AF939F938F93FF9263
:1026C000EF92A5E7B6E0BF93AF938E839F830E94FE
:1026D000B5080FB6F894DEBF0FBECDBF9F818E81C7
:1026E0009601432D622D0E945211BFEFEB1AFB0A97
:1026F000A40CB51C23E0C20ED11C3CE0E316F1048F
:1027000071F60E94370B8091E30100FB87F98093FB
:10271000E3018091E4018078902F9695892B10FB3E
:1027200087F98093E4012092E5013092E6018D81E2
:10273000882321F16091E3017091E4018091E5012A
:102740009091E6010E94CA118091E6011F928F9339
:102750008091E5011F928F938091E301881F882764
:10276000881F9091E401292F220F822B97FB992734
:1027700090F99F938F9380E596E009C01F923F9256
:102780001F922F9211701F930F9389E296E09F93EF
:102790008F930E94B5080FB6F894DEBF0FBECDBF71
:1027A00027960FB6F894DEBF0FBECDBFDF91CF9155
:1027B0001F910F91FF90EF90DF90CF90BF90AF905F
:1027C0009F908F907F906F905F904F903F902F9051
:1027D000089521E00C94D112E3EEF1E02081221F54
:1027E0002227221F3091E401432F440F842F822B94
:1027F00037FB992790F90C9668E671E00E946F31DB
:10280000438162810C94E9132091E301221F222766
:10281000221F3091E401432F440F842F822B37FB7A
:10282000992790F98C3091051CF4845A9E4F01C071
:102830000C9768E671E00E946F314091E60160916B
:10284000E5010C94E9136091E501862F90E0813F4A
:10285000910514F4615F01C06FEF8091E301881F5F
:102860008827881F9091E401292F220F97FB992731
:1028700090F94091E601822B0C94E9136091E501F7
:10288000862F90E00F9714F06F5001C060E08091A8
:10289000E301881F8827881F9091E401292F220FC8
:1028A00097FB992790F94091E601822B0C94E9134C
:1028B0004091E601842F90E08E3E910514F44E5E27
:1028C00001C04FEF8091E301881F8827881F9091F6
:1028D000E401292F220F97FB992790F96091E501D8
:1028E000822B0C94E9134091E601842F90E04297EB
:1028F00014F0425101C040E08091E301881F882715
:10290000881F9091E401292F220F97FB992790F9B6
:102910006091E501822B0C94E91320E00C94D11214
:102920009091E30190FF10C02C3070F430E0F90179
:10293000EE0FFF1F2E0F3F1FF901E851FE4F81835D
:10294000608342830C94370B08951F93CF93DF93DA
:1029500000D01F92CDB7DEB73091E30130FF0CC03D
:10296000122F9E012F5F3F4F0E945211212F4B814A
:1029700069818A810E9490140F900F900F90DF91CF
:10298000CF911F91089581E08093C70080914D0100
:1029900080FF08C088E196E09F938F930E94B5085E
:1029A0000F900F9008951092C70080914D0180FF05
:1029B00008C086E096E09F938F930E94B5080F9021
:1029C0000F9008959091E30190FF61C0917881117B
:1029D00002C0926007C0853210F0986403C08F7304
:1029E000880F982B9093E301662399F06091E3019F
:1029F0007091E4018091E5019091E6010E94CA1175
:102A00008091E30186958F731F928F9380E697E004
:102A100008C08091E30186958F731F928F9382E4A3
:102A200097E09F938F930E94B5080F900F900F909F
:102A30000F908091E301982F9E77923019F40E94B5
:102A4000D31412C086958F732EE3280F2F7327316E
:102A500020F0963411F0983419F40E94C31404C085
:102A6000895D8F738A3058F38091E301881F88272E
:102A7000881F9091E401292F220F97FB992790F945
:102A80004091E6016091E501822B0C948D1408952C
:102A900061E00C94E2148091E30186958F738F5F5F
:102AA000853208F081E00C9448158091E301869509
:102AB0008F73815009F484E20C944815CF93DF930F
:102AC000C3EED1E08881816088831F9281E08F937B
:102AD00084ED96E09F938F930E94B5080F900F901E
:102AE0000F900F90888186958F73DF91CF910C9412
:102AF000481560E00C94E21480914D018160809350
:102B00004D0183E098E09F938F930E94B5088091D8
:102B10004D010F900F9080FF08C08DEE97E09F93BE
:102B20008F930E94B5080F900F900E94E5278111A6
:102B300010C080914D0180FF08C085EC97E09F9305
:102B40008F930E94B5080F900F900E94C4270E9497
:102B5000D0110E94C6116093E3017093E401809349
:102B6000E5019093E6016E77C1F480914D0180FFFD
:102B700008C08CE797E09F938F930E94B5080F9051
:102B80000F900E94D0110E94C6116093E3017093D0
:102B9000E4018093E5019093E6010E94E01181E059
:102BA0008093C7008091E30180FF04C086958F73F6
:102BB0000C9479150895CF93DF93C3EED1E088810B
:102BC0008E7F8883688179818A819B810E94CA1166
:102BD000888181701F928F938CE996E09F938F93E9
:102BE0000E94B5080E94D3142FEB84ED91E0215090
:102BF00080409040E1F700C000000F900F900F90D0
:102C00000F90DF91CF910C94370B8091E301809569
:102C100081701F928F938BE097E09F938F930E9418
:102C2000B5088091E3010F900F900F900F9080FDF9
:102C30000C94DB150C945E15CF93C82F8091C500C2
:102C40009091C6000E945F28EC2FF0E0E551F74F0D
:102C5000E491F0E08E179F0708F443C00E944728D4
:102C60009093C6008093C5006091C40070E080E03E
:102C700090E00E945C2F20E030E04FE753E40E9498
:102C80007F2E2BED3FE049E450E40E9485300E9406
:102C9000F2300E94F92E2BE43AE34EE25FE30E9409
:102CA000122E20EF3BEF48ED52E40E9485300E9447
:102CB0002B2F462F8091E301881F8827881F909132
:102CC000E401292F220F97FB992790F96091E501E4
:102CD000822B0E94B7128091C40090E001968093ED
:102CE000C400CF910895CF93C82F8091C2009091D6
:102CF000C3000E945F28EC2FF0E0E851F74FE49109
:102D0000F0E08E179F07E8F00E9447289093C300D9
:102D10008093C2004091E6016091E5018091C0007E
:102D20009091C1000E94B7128091C0009091C100A3
:102D3000019668E671E00E945B319093C100809338
:102D4000C000CF910895CF92DF92FF920F931F930F
:102D5000CF93DF93F82E8091BE009091BF000E9428
:102D60005F28EF2DE695F0E0EB51F74FE491F0E0AE
:102D70008E179F07E8F10E9447289093BF00809329
:102D8000BE0008EE11E0C0E0D0E088E6C82EDD24E9
:102D9000D3948091BC009091BD008C0F9D1FB60113
:102DA0000E945B3198014091E6016091E5010E942B
:102DB00052116E960D5F1F4FC83681E0D80749F754
:102DC0000E94370B2091BC003091BD00F0FE0AC07C
:102DD000C9010196BE010E945B319093BD008093B2
:102DE000BC0006C0215031093093BD002093BC00C7
:102DF000DF91CF911F910F91FF90DF90CF900895B9
:102E0000AF92BF92CF92DF92EF92FF920F931F93F8
:102E1000CF93DF93C82F80FF02C01FEF01C011E0E6
:102E20008091BA009091BB000E945F28C695EC2F5C
:102E3000F0E0EE51F74FE491F0E08E179F0708F4B1
:102E400066C00E9447289093BB008093BA0028EE8A
:102E5000C22E21E0D22E3AEEE32E31E0F32EC0E076
:102E6000D0E0F70131971082F6011082F70110824D
:102E700094E0A92EB12C00E08091B900800F87FD6D
:102E8000845F082E000C990BC817D907E9F48091CC
:102E9000E6018A9DA0018B9D500D11245595479503
:102EA000559547958091E301881F8827881F909149
:102EB000E401592F550F97FB992790F996016091DE
:102EC000E501852B0E945211010FF1E0AF1AB10804
:102ED00099F6219683E0C80ED11CE3E0EE0EF11CBA
:102EE000CC30D10509F0BDCF0E94370B8091B900DD
:102EF000113031F4811102C08BE007C0815005C050
:102F000090E00196BE010E946F318093B900DF917D
:102F1000CF911F910F91FF90EF90DF90CF90BF90D6
:102F2000AF9008950F931F93CF93DF93C82F809195
:102F3000B7009091B8000E945F28EC2FF0E0E152BA
:102F4000F74FE491F0E08E179F0708F466C00E94E7
:102F500047289093B8008093B70080E090E0FC0190
:102F6000E851FE4F1182108212820396843291053D
:102F7000B1F7C0E0D0E00CE010E0CE01B8010E9453
:102F80006F314091B600042E000C550BFC01EE0F82
:102F9000FF1FC417D5070CF140916200042E000CEE
:102FA000550B4C175D07CCF08E0F9F1F9C012851CD
:102FB0003E4F8091E301881F8827881F9091E4018C
:102FC000592F550F97FB992790F94091E601609191
:102FD000E501852B0E94521107C0E80FF91FE85147
:102FE000FE4F1182108212822196CC30D10529F633
:102FF0000E94370B809161009091B600980F9093DA
:10300000B60020916200280F20936200121614F47B
:103010009B301CF0819580936100DF91CF911F91CF
:103020000F910895EF92FF920F931F93CF93DF9329
:103030008091B4009091B5000E945F28883E934033
:10304000D0F10E9447289093B5008093B400C091BE
:10305000B200D091B3002196C170DD27D093B300A8
:10306000C093B20088EEE82E81E0F82E10E008E769
:10307000812F8695FE01E80FF11DCF018170992700
:1030800097014091E6016091E501FC010E9FC001AE
:103090000F9F900D11240E9452111F5FF3E0EF0E5D
:1030A000F11C1C3029F7DF91CF911F910F91FF90F8
:1030B000EF900C94370BDF91CF911F910F91FF9000
:1030C000EF900895CF93DF9300D01F92CDB7DEB776
:1030D0008091B0009091B1000E945F28E3EDF8E08C
:1030E0002591349182179307C0F18091AF0081112F
:1030F0000CC09E012F5F3F4F4FEF6FEF80E090E0DD
:103100000E9452118A818093AF000E9447289093B9
:10311000B1008093B0008091AE00813051F028F072
:10312000823061F44091AF000AC08091AF0040E06E
:1031300007C06091AF0040E080E003C040E080E065
:1031400060E00E94A3128091AE0090E0019663E0DF
:1031500070E00E946F318093AE000F900F900F903F
:10316000DF91CF910895CF93DF938091AC00909140
:10317000AD000E945F28843F914008F444C00E9443
:1031800047289093AD008093AC00C0E0D0E0209140
:10319000AA003091AB008091E3019091E401C63028
:1031A000D1051CF4232B79F002C0232B61F4881F76
:1031B0008827881F392F330F97FB992790F92C2FD9
:1031C0004091E6010AC0881F8827881F392F330FD6
:1031D00097FB992790F92C2F40E06091E501832B14
:1031E0000E94A5142196CC30D10589F60E94370B98
:1031F0008091AA009091AB000196817099279093DD
:10320000AB008093AA00DF91CF9108958091C70011
:103210008823D9F19091E301892F86958F732EE34E
:10322000280F2F73243018F482500C941C162AE3B4
:10323000280F2F73233018F486500C94731627E34D
:10324000280F2F73263018F489500C94A31621E30D
:10325000280F2F73263018F48F500C9400172BE290
:10326000280F2F73233018F485510C949217892F4F
:103270008E77803311F40C941218863411F40C9468
:103280006218883411F40C94B31808954F925F9229
:103290006F927F928F929F92AF92BF92CF92DF9266
:1032A000EF92FF920F931F93CF93DF937C01DC018A
:1032B000ED91FC91CF01815095458F3F910510F420
:1032C000B5E5FB27EB016A80662009F4BFC2EF3F3A
:1032D000F10579F070F0EB3DFC4519F01092C80053
:1032E00073C39091C80081E089278093C800A0E053
:1032F0006CC3A091C800AA2309F4EBC01092C800C7
:10330000E03CF10540F4E038F10508F073C0E0342A
:10331000F105D0F505C0EF3FF10509F008F4A0C0B4
:1033200021E030E040E050E060E070E080E090E0DC
:103330000E2F0E948931B091C9002B2BB091CA0089
:103340003B2BB091CB004B2BB091CC005B2BB091C1
:10335000CD006B2BB091CE007B2BB091CF008B2B8F
:10336000B091D0009B2B2093C9003093CA004093AA
:10337000CB005093CC006093CD007093CE0080932F
:10338000CF009093D000A1C021E030E040E050E0B9
:1033900060E070E080E090E08F01005411090E942D
:1033A0008931B091D1002B2BB091D2003B2BB09141
:1033B000D3004B2BB091D4005B2BB091D5006B2B7D
:1033C000B091D6007B2BB091D7008B2BB091D80059
:1033D0009B2B2093D1003093D2004093D300509385
:1033E000D4006093D5007093D6008093D70090935B
:1033F000D8006BC021E030E040E050E060E070E0D9
:1034000080E090E08F01005811090E948931B0914D
:10341000D9002B2BB091DA003B2BB091DB004B2B6A
:10342000B091DC005B2BB091DD006B2BB091DE0026
:103430007B2BB091DF008B2BB091E0009B2B209376
:10344000D9003093DA004093DB005093DC006093A6
:10345000DD007093DE008093DF009093E00035C0C4
:1034600021E030E040E050E060E070E080E090E09B
:103470008F01005C11090E948931B091E1002B2B72
:10348000B091E2003B2BB091E3004B2BB091E400F4
:103490005B2BB091E5006B2BB091E6007B2BB091DC
:1034A000E7008B2BB091E8009B2B2093E100309339
:1034B000E2004093E3005093E4006093E5007093D2
:1034C000E6008093E7009093E800E701F983E88342
:1034D0007CC2E034F105D0F4A090C900B090CA00DD
:1034E000E090CB00F090CC001091CD00D091CE00B8
:1034F000C091CF00B091D00021E030E040E050E03A
:1035000060E070E080E090E00E2F5DC0E038F105F3
:10351000E8F4A090D100B090D200E090D300F090F9
:10352000D4001091D500D091D600C091D700B091B1
:10353000D80021E030E040E050E060E070E080E062
:1035400090E06F0100E4C01AD1083CC0E03CF105F6
:10355000E8F4A090D900B090DA00E090DB00F090A1
:10356000DC001091DD00D091DE00C091DF00B09151
:10357000E00021E030E040E050E060E070E080E01A
:1035800090E06F0100E8C01AD1081CC0A090E100D3
:10359000B090E200E090E300F090E4001091E500CC
:1035A000D091E600C091E700B091E80021E030E062
:1035B00040E050E060E070E080E090E06F0100ECFF
:1035C000C01AD1080C2D0E9489314A2C42225B2C52
:1035D00053227E2C74228F2C8522912E9622D72363
:1035E000C823B92321E030E040E050E060E070E023
:1035F00080E090E0E034F10510F40E2F0FC08F0151
:10360000E038F10518F40054110908C0E03CF10558
:1036100018F40058110902C0005C11090E94893198
:1036200059016A017B018C019201472D582D692DAA
:103630007D2F8C2F9B2F0E94A23109F0C5C1E03C49
:10364000F10548F4E038F10508F084C0E034F105F4
:1036500008F042C005C0EF3FF10509F008F4B8C01A
:1036600021E030E040E050E060E070E080E090E099
:103670000E2F0E9489312095309540955095609588
:10368000709580959095E091C9002E23E091CA0035
:103690003E23E091CB004E23E091CC005E23E091ED
:1036A000CD006E23E091CE007E23E091CF008E23EB
:1036B000E091D0009E232093C9003093CA0040932C
:1036C000CB005093CC006093CD007093CE008093DC
:1036D000CF009093D00079C18F010054110921E0EF
:1036E00030E040E050E060E070E080E090E00E9478
:1036F00089312095309540955095609570958095CD
:103700009095E091D1002E23E091D2003E23E091EC
:10371000D3004E23E091D4005E23E091D5006E23C8
:10372000E091D6007E23E091D7008E23E091D8006F
:103730009E232093D1003093D2004093D300509326
:10374000D4006093D5007093D6008093D7009093F7
:10375000D8003BC18F010058110921E030E040E062
:1037600050E060E070E080E090E00E9489312095B8
:103770003095409550956095709580959095E09125
:10378000D9002E23E091DA003E23E091DB004E23A6
:10379000E091DC005E23E091DD006E23E091DE002D
:1037A0007E23E091DF008E23E091E0009E232093B2
:1037B000D9003093DA004093DB005093DC00609333
:1037C000DD007093DE008093DF009093E000FDC089
:1037D0008F01005C110921E030E040E050E060E042
:1037E00070E080E090E00E9489312095309540950E
:1037F00050956095709580959095E091E1002E230D
:10380000E091E2003E23E091E3004E23E091E400EA
:103810005E23E091E5006E23E091E6007E23E091D7
:10382000E7008E23E091E8009E232093E10030938F
:10383000E2004093E3005093E4006093E50070934E
:10384000E6008093E7009093E800BFC0EF3FF105EA
:1038500011F008F0B6C0E034F105D0F46090C90072
:103860007090CA008090CB009090CC00D091CD0099
:10387000C091CE00B091CF005090D00021E030E058
:1038800040E050E060E070E080E090E00E2F59C032
:10389000E038F105E0F46090D1007090D2008090A3
:1038A000D3009090D400D091D500C091D600B091B3
:1038B000D7005090D80021E030E040E050E060E0D8
:1038C00070E080E090E08F01005411093AC0E03CC4
:1038D000F105E0F46090D9007090DA008090DB0090
:1038E0009090DC00D091DD00C091DE00B091DF004F
:1038F0005090E00021E030E040E050E060E070E017
:1039000080E090E08F01005811091BC06090E10039
:103910007090E2008090E3009090E400D091E50088
:10392000C091E600B091E7005090E80021E030E05F
:1039300040E050E060E070E080E090E08F01005CEB
:1039400011090E9489316222732284229522D62392
:10395000C723B8235922E034F10550F421E030E0C8
:1039600040E050E060E070E080E090E00E2F17C093
:103970008F01E038F10518F40054110908C0E03C4B
:10398000F10518F40058110902C0005C110921E08A
:1039900030E040E050E060E070E080E090E00E94C5
:1039A000893159016A017B018C01A1E09301A401D5
:1039B0006D2F7C2F8B2F952D0E94A23119F4A0E042
:1039C00001C0A1E0A17001C0A62D8A2FDF91CF9187
:1039D0001F910F91FF90EF90DF90CF90BF90AF902D
:1039E0009F908F907F906F905F904F9008959093ED
:1039F000EE008093ED000895E091ED00F091EE006F
:103A0000309721F00190F081E02D099480E0089535
:103A1000EF92FF920F931F93CF93DF93E091ED000E
:103A2000F091EE003097B1F18C010280F381E02D2E
:103A3000099580914D0182FF2DC080FF04C087EF62
:103A400099E00E941C08E80118E081EFE82E89E067
:103A5000F82E80914D0180FF0BC088811F928F93BB
:103A6000FF92EF920E94B5080F900F900F900F9069
:103A7000115021961111EDCF80914D0180FF0AC0A8
:103A80008FEE99E0DF91CF911F910F91FF90EF9012
:103A90000C941C08DF91CF911F910F91FF90EF9034
:103AA00008952091EB003091EC008217930771F09C
:103AB0009093EC008093EB00E091ED00F091EE002C
:103AC000309721F00680F781E02D09940895209128
:103AD000E9003091EA008217930771F09093EA00B1
:103AE0008093E900E091ED00F091EE00309721F035
:103AF0000084F185E02D0994089581E008950E94E5
:103B000040280E94210A0E94C8280C947C15CF935B
:103B1000C82F80914D0182FF1EC080FF04C080E14C
:103B20009AE00E941C0880914D0180FF0CC01F92FA
:103B3000CF938BE09AE09F938F930E94B5080F90EC
:103B40000F900F900F9080914D0180FF04C089E08D
:103B50009AE00E941C088C2FCF910C94F30B4F928B
:103B60005F927F928F929F92AF92BF92CF92DF929D
:103B7000EF92FF920F931F93CF93DF93CDB7DEB7F2
:103B80002A970FB6F894DEBF0FBECDBF0E94590A28
:103B90000E947D1D811111C08FEF89838A831B8252
:103BA0000E9447288160782F9D838C8349815A81A8
:103BB0006B818D810E946B1E57C090EFC92E90E0E3
:103BC000D92E00E010E0AA24A394B12C702E802FEF
:103BD0000E94B10A4C01F601419051906F014826B4
:103BE00059264114510431F40F5F1F4F083011055D
:103BF00069F7D2CF80914D0181FD0E94BA0A20E081
:103C000030E07501022E02C0EE0CFF1C0A94E2F7B0
:103C1000C70184219521892B09F12E837F828E2073
:103C20009F2091E0892809F490E098870E94472816
:103C30008160782F9A8789874E815F8168858A8520
:103C40000E946B1E000F111FF801E051FF4F808191
:103C50009181E826F926F182E08206C02F5F3F4F6E
:103C60002F30310571F6C0CF1091EF000E94FC1C7F
:103C70001817D9F00E94FC1C8093EF002A960FB60B
:103C8000F894DEBF0FBECDBFDF91CF911F910F9192
:103C9000FF90EF90DF90CF90BF90AF909F908F906C
:103CA0007F905F904F900C94871D2A960FB6F894E2
:103CB000DEBF0FBECDBFDF91CF911F910F91FF905F
:103CC000EF90DF90CF90BF90AF909F908F907F90BC
:103CD0005F904F900895CF93DF93CDB7DEB72B97CA
:103CE0000FB6F894DEBF0FBECDBF4F8358876987EC
:103CF0007A878B87DE01119686E0FD0111928A9505
:103D0000E9F785E0FE01379601900D928A95E1F77B
:103D100049815A816B817C818D819E810E94A8247A
:103D20002B960FB6F894DEBF0FBECDBFDF91CF91BB
:103D30000895FC01808191810E9415270895CF93F9
:103D4000DF931F92CDB7DEB7882309F4AFC0682F89
:103D50008CEF860F813A70F4862F69830E94102AB7
:103D600069818111A3C080916300909164000E94D9
:103D700034280CC080E2860F883068F4677081E0D8
:103D800001C0880F6A95EAF70E948B270F90DF9198
:103D9000CF910C9455278BE5860F833088F4653AD4
:103DA00029F0663A31F083E890E005C081E890E0C0
:103DB00002C082E890E00F90DF91CF910C94511DEA
:103DC00088E5860F853108F071C0683A61F1693A7B
:103DD00069F16A3A71F16B3A79F16C3A81F16B3BB6
:103DE00089F16C3B91F16D3A99F1603BA1F16E3A2A
:103DF000A9F16F3AB1F1613BB9F1623BC1F1633BAB
:103E0000C9F1643BD1F1653BD9F1663BE1F1673B18
:103E1000E9F1683BF1F1693BF9F16A3B09F43FC014
:103E200080E090E03EC082EE90E03BC089EE90E002
:103E300038C08AEE90E035C085EB90E032C086EB6A
:103E400090E02FC083EB90E02CC084EB90E029C081
:103E500087EB90E026C08CEC90E023C08DEC90E0E6
:103E600020C083E891E01DC08AE891E01AC082E991
:103E700091E017C084E991E014C081E292E011C0A2
:103E800083E292E00EC084E292E00BC085E292E011
:103E900008C086E292E005C087E292E002C08AE2B2
:103EA00092E00F90DF91CF910C94671D0F90DF91FE
:103EB000CF910895882349F1682F8CEF860F813ABE
:103EC00038F480916300909164000E9436280CC001
:103ED00080E2860F883050F4677081E001C0880F5F
:103EE0006A95EAF70E9491270C9455278BE5860F77
:103EF000833020F480E090E00C94511D685A6531C5
:103F000020F480E090E00C94671D0895882321F050
:103F10000E948B270C9455270895882321F00E9436
:103F200091270C94552708954F925F926F927F923C
:103F3000BF92CF92DF92EF92FF920F931F93CF9396
:103F4000DF937C01D62FC72FFC01058102950F70EE
:103F5000128111110E94A8270E944E27882379F010
:103F6000112369F080E28D0F883048F082E00E94D2
:103F700037270E944E2791E0B82EB92601C0B12CF8
:103F8000CC2EC2948FE0C822D12CF601E35CFF4F07
:103F90000C9483318C2F807FCF70882311F0C295D1
:103FA000C07F112399F0CC2309F48DC180E28D0FDD
:103FB000883010F0D11104C08C2F0E948B2703C0D1
:103FC0008C2F0E949B270E9455277DC18D2F0E9418
:103FD0005A1FCC2309F49CC180E28D0F883010F069
:103FE000D11104C08C2F0E94912703C08C2F0E94F6
:103FF000A1270E9455278CC18C2F807FCF708032E3
:1040000011F0C295C07FDD2319F0D130C9F022C074
:10401000112371F0002341F0013031F40E94C127D7
:104020008C2B0E94BB2774C10E94C1278C2B04C11A
:10403000002319F0013009F46BC10E94BE2718C09B
:10404000112321F0063008F063C10EC0053008F0DE
:104050005FC10EC0112351F0002331F0F7018581BB
:1040600080FF31C18F7085838C2FE6C001113CC168
:104070008C2FE8C08C2F86958695837090E00097F2
:1040800019F0019761F044C1112321F08D2F9C2F6D
:10409000937002C080E090E00E94511D49C111233D
:1040A00021F08D2F9C2F937002C080E090E00E9441
:1040B000671D3EC18C2F837009F050C0111134C1AF
:1040C0008D2F829586958770880F880F9D2F9F7002
:1040D000492E512C612C712C082E04C0440C551C07
:1040E000661C771C0A94D2F7D4FF14C00FE010E0CE
:1040F00020E030E0B901A80104C0440F551F661F3D
:10410000771F8A95D2F7CB01BA016095709580959B
:10411000909503C060E070E0CB01C695C695C37072
:10412000D0E0C230D10561F0C330D10581F06429FF
:10413000752986299729219771F00E94EB25F4C0F3
:1041400064297529862997290E94FD25EDC00E94C2
:10415000EB25C301B2010E94D925E6C0112319F055
:104160008C2F817001C08695882309F4DDC08D2FC6
:10417000829586958770880F880F9D2F9F70492E96
:10418000512C612C712C082E04C0440C551C661C4B
:10419000771C0A94D2F7D4FF14C00FE010E020E09F
:1041A00030E0B901A80104C0440F551F661F771FF6
:1041B0008A95D2F7CB01BA0160957095809590955C
:1041C00003C060E070E0CB01C695C695C3704C2F6C
:1041D00050E04230510569F04330510589F06429BF
:1041E0007529862997294130510571F00E94B12621
:1041F0009BC064297529862997290E94C32694C0EB
:104200000E94B126C301B2010E949F268DC08D2F4E
:1042100090E0FC01E05EF109E531F10508F04FC0E6
:10422000E35BFF4F0C948331DF708C2F8F71112370
:1042300031F00E9438268D2F0E94861F69C00E948F
:1042400059268D2F0E948D1F63C0112341F0053028
:1042500008F05EC08C2F8F710E947E2659C00630F8
:1042600008F056C0F7CF112339F08C2F8F710E94C0
:1042700038264EC01123C9F38C2F8F710E94592606
:1042800047C0112329F08C2F8F710E94232640C034
:104290000E941E263DC0112349F0CF718C2F0E9431
:1042A000382663E08C2F0E942E2732C081E00E94C6
:1042B0003727023068F182E00E94372729C0112396
:1042C00031F0002391F28D2F0E949F1E21C0002308
:1042D00099F2D93349F45FEF6DEE72E051506040CE
:1042E0007040E1F700C000008D2F0E945A1F10C0DF
:1042F0004C2F4F706D2FC7010E94A10E0E944C25BC
:1043000017C04C2F4F706D2FC7010E94A40E10C014
:1043100088E0C816D10441F05CF0EAE0CE1AD1087A
:10432000F2E0CF16D10420F40E94FC1C0E94F30B93
:10433000BB20F1F00E942A2780FD1AC0F7011282EB
:104340000E9424270E943826C7010E94C6210E948D
:104350002427DF91CF911F910F91FF90EF90DF9075
:10436000CF90BF907F906F905F904F900C945926A4
:10437000DF91CF911F910F91FF90EF90DF90CF9041
:10438000BF907F906F905F904F9008950F931F9311
:10439000CF93DF93EC01888199812B813C81232B82
:1043A000B9F09F3F11F48F3F99F0CE010E94050CA8
:1043B000882371F0688179818A810E9420278C018D
:1043C0000E94D5260E94D625B801CE010E94941FD6
:1043D000DF91CF911F910F9108950E94A8270E940D
:1043E000B82780916300909164000E9438280E9451
:1043F000552780E090E00E94511D80E090E00C94F1
:10440000671D0E9498270C94ED210E941527E92F23
:10441000E295EF70F0E03297EE30F105B0F4EE592E
:10442000FF4F0C948331803F91F018F4803E68F484
:104430000EC0843F51F40BC0803E48F0813F29F408
:1044400006C093FB882780F9089580E0089581E0F5
:104450000895CF93DF9300D000D01F92CDB7DEB781
:104460000F900F900F900F900F90DF91CF910895C4
:10447000CF93DF9300D000D000D0CDB7DEB7269623
:104480000FB6F894DEBF0FBECDBFDF91CF91089578
:104490001F93CF93DF93C091000116E0809101013B
:1044A000C81799F0D0E01C9FF0011D9FF00D11245A
:1044B000EE5FFE4F408151816281738184819581DD
:1044C0000E9438222196C770E9CFDF91CF911F91CA
:1044D00008954091320150913301609134017091FF
:1044E000350180913601909137010C9438228091EA
:1044F000370182958F7009F054C080913401882370
:1045000009F44FC080910001A09101016091320136
:10451000709133014091350150913601B6E08A1710
:1045200009F43FC090E041155105C1F17F3F11F4FE
:104530006F3FA1F1B89FF001B99FF00D1124EE5F1C
:10454000FE4F218172132AC02081621327C022816D
:10455000211124C0238134812417350710F4215000
:104560003109241B350B283C3105C0F4209137015B
:104570002F7020612093370126E0289FF001299FAA
:10458000F00D1124E95FFE4F80818F708061808380
:1045900082E391E00E94C6210C9448220196877024
:1045A000BECF0895CF92DF92EF92FF920F931F93A9
:1045B000CF93DF93CDB7DEB762970FB6F894DEBF27
:1045C0000FBECDBF8C0185E0F801DE011D96019084
:1045D0000D928A95E1F7D8014C9111965C91119753
:1045E00012966C9112971396CD90DC90149730919F
:1045F000320170913301809135019091360100971D
:1046000009F46BC17F3F19F43F3F09F466C1E090A4
:104610003401EE2009F4C0C020913701C816D90634
:1046200028F0F601E81BF90BCF0104C080959095A6
:104630008C0D9D1DFF24F394883C910578F0F12C9E
:10464000207F09F0C6C07C2DD98AC88A89890E943A
:10465000292282E391E00E94C621B1C0822F807F8F
:1046600009F046C0751314C0341312C0611110C094
:104670002F702061209337010E94692282E391E02C
:104680000E94C62180913701D80115968C932EC0C7
:10469000CD2819F15F3F11F44F3FF9F0F62E61116B
:1046A0001CC0809100012091010136E0821709F4BD
:1046B0005AC090E0389FF001399FF00D1124EE5F51
:1046C000FE4F7181571306C07081471303C072817A
:1046D000711103C001968770E9CFF62E662309F4A5
:1046E00027C180913701816080933701F12C20C16F
:1046F000751308C0341306C0611104C080913701DE
:10470000D801C3C04D875E878D859E856A8B0E94C8
:1047100005226A898823E1F16623D1F120913701CE
:10472000822F82958F7090E0029774F08091320111
:104730009091330198878F831986DB86CA862C87F0
:10474000CE0107960E94C62186E0F801A2E3B1E0FF
:1047500001900D928A95E1F70E9477220E946922CA
:10476000FF24F394E5C04D875E878D859E850E946A
:104770001527292F22952F7030E0223031050CF0BB
:10478000CBC09F7009F0C5C0805E883008F4D0C0EF
:10479000C8010E94C621E4CFC816D90608F453C048
:1047A000F601E81BF90BCF01883C910508F450C0D5
:1047B000F12C7C2DD98AC88A89890E942922E2E3BA
:1047C000F1E086E0DF011D928A95E9F70E946922F7
:1047D000AFC0751314C0341312C0611110C08091A2
:1047E0003701F8018583C8010E94C62186E0E2E313
:1047F000F1E0DF011D928A95E9F7FE2C99C04D8703
:104800005E878D859E856A8B0E9405226A89882332
:1048100009F4BECF662309F4BBCF20913701822F64
:1048200082958F7090E002970CF48ECF80913201C8
:10483000909133019A8389831B82DD82CC822E83FF
:10484000CE0101967FCF809590958C0D9D1DACCFAC
:10485000F62E662309F49CCF75132EC034132CC09A
:104860002091370120FD1FC0822F82958F70D9F0D3
:10487000D80115962C9315978F3049F08F5F982F9C
:104880009295907F822F8F70892B15968C93C801FB
:104890000E94C62186E0F801A2E3B1E001900D92EA
:1048A0008A95E1F793CF86E0F801A2E3B1E00190A9
:1048B0000D928A95E1F73CC04D875E878D859E8578
:1048C0000E940522811140CF809137018160809341
:1048D0003701C8010E94C6212BC0662309F458CFB6
:1048E0004D875E878D859E850E940522F82E882340
:1048F00009F44ECF86E0F801A2E3B1E001900D92F9
:104900008A95E1F782E391E00E94991E0E94772246
:104910005DCF811139CF0CC0243031050CF038CF78
:104920009F7009F431CFF8019581907F09F02CCF69
:104930008F2D62960FB6F894DEBF0FBECDBFDF910C
:10494000CF911F910F91FF90EF90DF90CF9008953E
:104950001F93CF93DF93CDB7DEB72C970FB6F894A4
:10496000DEBF0FBECDBF4F83588769877A878B879D
:104970009C87CE0107960E94D222882369F08F81FE
:1049800098852A853B85232BF1F19F3F09F063C071
:104990008F3F09F060C037C086E0FE013796DE0128
:1049A000119601900D928A95E1F76F817885EA85DD
:1049B000FB85309741F17F3F11F46F3F21F120914A
:1049C000010130E0C90101968770992740910001EB
:1049D00050E08417950709F447C069837A83FD8303
:1049E000EC8396E0929FD001939FB00D1124AE5FAF
:1049F000BE4FFE01319601900D929A95E1F780939A
:104A000001010E94482216E080910001909101016D
:104A10008917C1F1189FC00111248E5F9E4F0E941B
:104A2000D222882379F1E09100011E9FF001112428
:104A3000EE5FFE4F40815181628173818481958157
:104A40000E9438228091000190E00196877099279A
:104A500080930001D9CF4F81588569857A858B85F0
:104A60009C850E943822CFCF0E9401221092010122
:104A700010920001E2E3F1E086E0DF011D928A95E9
:104A8000E9F7C1CF2C960FB6F894DEBF0FBECDBFAD
:104A9000DF91CF911F910895EF92FF920F931F9393
:104AA000CF93DF938C01892B09F46CC0F12CEE2499
:104AB000E394E8012196F8018491843740F484302E
:104AC00008F051C0813081F0823019F15BC0853728
:104AD00009F444C0A8F19CE7980F903708F052C041
:104AE0008F770E945A1F41C00E5F1F4FFE01C49175
:104AF00080E28C0F883048F4C7708E2D01C0880F7B
:104B0000CA95EAF70E94AB2714C08C2F0E949F1E03
:104B10002DC00E5F1F4FFE01C49180E28C0F8830C4
:104B200058F4C7708E2D01C0880FCA95EAF70E940D
:104B3000B1270E9455271AC08C2F0E945A1F16C0F9
:104B40000E5F1F4FFE01C491CC2381F087EB9BE0E9
:104B50000197F1F700C00000C150F6CF0E5F1F4F64
:104B6000FE01F49003C00E949F1E8E018F2D8823AA
:104B700009F49FCFE7EBFBE03197F1F700C00000AD
:104B80008150F5CFDF91CF911F910F91FF90EF9062
:104B9000089508950E94C92560933C0170933D01DA
:104BA00080933E0190933F010C94ED2108950C9465
:104BB000CA250F931F9300913C0110913D01209154
:104BC0003E0130913F01602B712B822B932B1F9163
:104BD0000F910C94CA250F931F9300913C011091E3
:104BE0003D0120913E0130913F01602371238223DA
:104BF00093231F910F910C94CA250F931F9300913B
:104C00003C0110913D0120913E0130913F01602710
:104C10007127822793271F910F910C94CA2508951D
:104C20000C940F260E94102660933801709339016E
:104C300080933A0190933B010C94ED2160E070E089
:104C4000CB010C9412260F931F9341E050E060E0DB
:104C500070E08A019B0104C0000F111F221F331F47
:104C60008A95D2F7C901B8011F910F910C941226B1
:104C70000F931F9341E050E060E070E004C0440FE8
:104C8000551F661F771F8A95D2F780913801909142
:104C90003901A0913A01B0913B018A019B01082B97
:104CA000192B2A2B3B2BC901B8011F910F910C9492
:104CB00012260F931F9341E050E060E070E004C0C3
:104CC000440F551F661F771F8A95D2F74095509560
:104CD000609570958091380190913901A0913A01C9
:104CE000B0913B018A019B01082319232A233B230E
:104CF000C901B8011F910F910C9412260F931F93B5
:104D000041E050E060E070E004C0440F551F661FB2
:104D1000771F8A95D2F78091380190913901A0913F
:104D20003A01B0913B018A019B01082719272A27E4
:104D30003B27C901B8011F910F910C9412260F93C4
:104D40001F93009138011091390120913A0130915F
:104D50003B01602B712B822B932B1F910F910C9495
:104D600012260F931F930091380110913901209161
:104D70003A0130913B0160237123822393231F91D9
:104D80000F910C9412260F931F93009138011091EC
:104D9000390120913A0130913B0160277127822728
:104DA00093271F910F910C9412260895CF92DF92B2
:104DB000EF92FF920F931F93CF93DF938C01C090DC
:104DC0003C01D0903D01E0903E01F0903F01809188
:104DD000380190913901A0913A01B0913B01C82A64
:104DE000D92AEA2AFB2ACFE1D0E0D701C6010C2E4E
:104DF00004C0B695A795979587950A94D2F780FF3A
:104E000006C0B8018C2F0E94BF0E019721F4219794
:104E100060F780E001C08C2FDF91CF911F910F913F
:104E2000FF90EF90DF90CF900895CF93DF93EC0148
:104E30000E94D626BE010E94BF0EDF91CF91089539
:104E4000CB010E9415270895809140018595859595
:104E500085950895809140018770089598E0899F15
:104E600090011124262B209340010C943826209188
:104E700040018095822380934001982F977069F4B8
:104E800030E0482F082E000C550B2417350729F069
:104E90008595859585950C945926089590914001A6
:104EA000977081E009F480E00895E0916300F0914B
:104EB000640080914C018083E0916300F091640074
:104EC000908180914B01892B8083E0916300F09168
:104ED0006400908180914A01892B808380914101F7
:104EE000882381F0E0916300F09164009081892B28
:104EF000808380916300909164000E940128811159
:104F00001092410180916300909164000C94081DFF
:104F100080914C01089590914C01892B80934C0114
:104F20000895809590914C01892380934C010895B8
:104F300010924C01089590914B01892B80934B0165
:104F40000895809590914B01892380934B0108959A
:104F500010924B01089590914A01892B80934A0148
:104F60000895809590914A01892380934A0108957C
:104F700010924A01089580934101089510924101D1
:104F800008958091410108956DEE7EEF80E090E0FC
:104F90000E94DC3160E082E090E00E94BF3160E07E
:104FA00083E090E00E94BF3160E084E090E00E94E6
:104FB000BF3160E085E090E00E94BF3140E050E00A
:104FC000BA0188E090E00C94D03180E090E00E943B
:104FD000B93121E08D3E9E4F09F020E0822F0895E7
:104FE00082E090E00C94AB3183E090E00C94AB3124
:104FF00084E090E00C94AB31682F84E090E00C9456
:10500000BF31FC0131969C01285F3F4F80E09191B8
:1050100091118F5FE217F307D1F708959C01FC010E
:1050200032969FEF80E04191461789F09F3F19F437
:10503000411101C0982F8F5F8630A9F79F3F39F04B
:10504000F901E90FF11D97FDFA956283089508951E
:10505000FC01329608962081261301C010823196F9
:10506000E817F907C1F708950C940E280C94282826
:10507000FC01319608961192E817F907E1F70895B7
:105080008BE083BF8BEB8CBF82E089BF08952FB785
:10509000F89480910C0290910D02A0910E02B091B3
:1050A0000F022FBF08952FB7F89460910C027091F2
:1050B0000D0280910E0290910F022FBF0895CF92A2
:1050C000DF92EF92FF920F931F932FB7F8944091C6
:1050D0000C0250910D0260910E0270910F022FBFD1
:1050E0006A017B01EE24FF248C0120E030E0C01631
:1050F000D106E206F30610F4415051099A01281B2B
:10510000390BC9011F910F91FF90EF90DF90CF9065
:10511000089578941F920F920FB60F9211248F93D7
:105120009F93AF93BF9380910C0290910D02A09139
:105130000E02B0910F020196A11DB11D80930C02C9
:1051400090930D02A0930E02B0930F02BF91AF9106
:105150009F918F910F900FBE0F901F90189560E058
:1051600081E090E00E94E23187E090EBDC018093E7
:10517000550290935602A0935702B09358029CE0B8
:1051800088E10FB6F894A89581BD0FBE91BDFFCF01
:105190000E94E527811102C00E94C4270E94F027C7
:1051A00080934D010E94F82790E090931102809324
:1051B00010020E94F427682F70E080E090E00C94C9
:1051C000D725CF93C82F1F928F9389E29AE09F93A0
:1051D0008F930E94B50881E090E0A0E0B0E0BC01B0
:1051E000CD0104C0660F771F881F991FCA95D2F79B
:1051F0000E94D7250F900F900F900F90CF910C9495
:105200000122CF93873288F58E3108F0F7C08E30B7
:1052100009F489C0D8F4873009F461C08B3009F4EF
:105220004FC0863009F0F0C080914D01817F8E7FA4
:1052300080934D0183E69BE00E941C0884E99DE079
:105240000E941C0881E080934E0147C0863109F41A
:10525000B2C020F4803109F47CC0D6C0893109F491
:1052600093C08B3109F44BC0CFC0883349F150F45F
:10527000893209F4C5C0853309F4C2C0873209F404
:10528000BFC0C2C0833409F4BBC028F48A3308F419
:10529000BBC08953B6C0883409F0B6C00E94012251
:1052A00088E79DE00E941C082FEF8EE994E22150D0
:1052B00080409040E1F700C000000E94AF280DC080
:1052C0008EE79BE043C08FE59DE00E941C08809123
:1052D0004D01897F877F80934D01C1E09AC0809105
:1052E0004D01C82FC095C170C0FB80F980934D015E
:1052F000CC2349F38CE69DE00E941C088AC0909163
:105300004D0191FBCC27C0F981E0C827892FC0FB54
:1053100081F980934D01CC2319F082E59DE029C0ED
:1053200084E49DE013C090914D0192FBCC27C0F91D
:1053300081E0C827892FC0FB82F980934D01CC23DF
:1053400019F085E39DE015C085E29DE00E941C08F0
:10535000C4CF90914D0193FBCC27C0F981E0C827C1
:10536000892FC0FB83F980934D01CC2351F089E153
:105370009DE00E941C0880914D01816080934D0149
:1053800048C08CE09DE0E2CF84E59BE00E941C08D1
:105390008AE39BE00E941C088FEF9AE00E941C08A1
:1053A00085EC9AE00E941C0888E99AE00E941C089B
:1053B0008DE69AE0CBCF8FE59AE00E941C080E9410
:1053C000FC1C1F928F9385E49AE09F938F930E9419
:1053D000B5080E9453289F938F937F936F938EE21B
:1053E0009AE09F938F930E94B5088DB79EB70A9657
:1053F0000FB6F8949EBF0FBE8DBF6FCF8D5101C009
:1054000080E00E94E12869CF8AE09DE00E941C08AC
:10541000C0E08C2FCF91089580E0089580E008953A
:10542000CF93C82F80914E01882319F0813049F025
:105430003EC0E0916300F091640080818232C9F542
:1054400007C0E0916300F09164008081823261F4D2
:105450008C2F0E940C2A811104C08C2F0E940129DC
:1054600024C081E090E021C08C2F0E940E2A81117F
:105470001BC0C43189F018F4CB3029F010C0C932F8
:1054800059F0C83361F483E69BE00E941C0885E272
:105490009AE00E941C0808C010924E010CC083E2E2
:1054A0009AE00E941C0807C081E0817006C010923B
:1054B0004E0180E002C080E0F8CFCF9108950E94B5
:1054C00047288C010E947F1D0E94BB2B0E94F71C65
:1054D00080914D0180FF04C083EA9DE00E941C087A
:1054E0000E94FF2D8B9A90E0915041F0A895E7EB38
:1054F000FBE03197F1F700C00000F6CF8B9878946D
:1055000080914D0180FF1CC088E99DE00E941C082D
:1055100017C0C8010E945F280697A0F0C1E08091E3
:105520002C028823B1F310922C020E9447288C0190
:105530000E94ED2C80913202811107C00E941A2B2B
:10554000C0E0EDCFC111EBCFF3CF80911D0284FFFE
:10555000F5CF0E94AF1DF2CF8091E1010895CF9366
:10556000DF9300D01F92CDB7DEB72091510130916B
:1055700052018217930789F0909352018093510151
:1055800023E029839B838A838091490284FF05C09D
:1055900063E0CE0101960E94E92C0F900F900F90CE
:1055A000DF91CF910895CF93DF9300D01F92CDB7B5
:1055B000DEB720914F01309150018217930789F097
:1055C0009093500180934F0122E029839B838A832B
:1055D0008091490284FF05C063E0CE0101960E94DC
:1055E000E92C0F900F900F90DF91CF910895CF93FA
:1055F000DF9300D000D000D0CDB7DEB7FC0181E052
:10560000898395E0DE01129601900D929A95E1F75B
:105610008091490284FF05C066E0CE0101960E9498
:10562000E92C26960FB6F894DEBF0FBECDBFDF91F2
:10563000CF910895CF93DF93CAE0D0E080911D020F
:1056400084FF63C080915E0190915F01981709F417
:1056500067C028E0829FC001112468E0805A9E4FF5
:105660000E94E52C80915E0190E001968F70992751
:1056700080935E0180914D0182FF52C08FE39EE0D6
:105680000E941C0880915E011F928F938CE39EE024
:105690009F938F930E94B50889E39EE00E941C08A7
:1056A00080915F011F928F9386E39EE09F938F937B
:1056B0000E94B50883E39EE00E941C0850915F01A0
:1056C00040915E018DB79EB708960FB6F8949EBFC5
:1056D0000FBE8DBF242F30E0852F90E0821B930BEF
:1056E000541708F440969F938F938EE29EE09F9309
:1056F0008F930E94B5080F900F900F900F908BE240
:105700009EE0DF91CF910C941C080E94ED2C87EB5A
:105710009BE00197F1F700C00000219709F08ECFC0
:10572000DF91CF910895FC01A0915F01B0E09D0150
:105730002F5F3F4F2F70332780915E01821779F0E2
:1057400083E0AA0FBB1F8A95E1F7A05ABE4F98E0ED
:1057500001900D929A95E1F720935F0108C0809126
:105760004D0180FF04C08FE19EE00E941C080E9452
:10577000ED2C0C941A2B85E690E00895CF93DF93DF
:10578000EC019881907680914D01903209F06DC0C6
:105790009981913071F480FF04C083E19EE00E9402
:1057A0001C0886E591E090932E0280932D0288E0FC
:1057B0006EC0923071F480FF04C088E09EE00E94C9
:1057C0001C0880EE91E090932E0280932D0281E0E0
:1057D0005EC09A30E1F49B819093E00180FF04C0A9
:1057E0008DEF9DE00E941C0880914D0180FF43C019
:1057F0008091E0011F928F9388EF9DE09F938F939C
:105800000E94B5080F900F900F900F9034C0993000
:1058100039F580FF04C08BEE9DE00E941C088A8150
:105820009B81811522E0920771F48C819D81892BE7
:1058300059F580914D0180FF04C081EE9DE00E94EA
:105840001C0882E004C081309340F1F481E0809331
:1058500055018E819F81909354018093530114C010
:1058600080FF09C088ED9DE004C080FF04C080ED8A
:105870009DE00E941C0880914D0180FF07C08EECC6
:105880009DE00E941C0802C08FEF01C080E0DF9104
:10589000CF910895CF93DF9320915301309154011C
:1058A000232BA9F1EC0180915501813059F182300F
:1058B00071F580914D0180FF04C084EC9DE00E9451
:1058C0001C0880914D0180FF0DC088811F928F932D
:1058D0008FEB9DE09F938F930E94B5080F900F90E0
:1058E0000F900F9080914D0180FF04C08DEB9DE0E3
:1058F0000E941C0888818093E1011092540110924B
:10590000530103C08B9A0E94AF2881E001C08FEF42
:10591000DF91CF910895FC018381813261F0823261
:10592000D1F0823071F58CE49EE090932E0280934A
:105930002D028BE308958281882329F0813009F5B7
:1059400087E79EE002C08EE59EE090932E02809352
:105950002D0289E0089584819581009751F0019787
:1059600081F487E89EE090932E0280932D0284E8D4
:1059700008958BE09FE090932E0280932D0280E4A7
:10598000089580E008951F93CF93DF93162FEA01C7
:10599000288124FF05C0398128E82327298302C0F4
:1059A0002AE52883FC01CE010296DC01212F280F75
:1059B00031913D932A13FCCF612F0E94D3081C5FC5
:1059C0001883DF91CF911F9108954DE152E00C941F
:1059D000C32C49E452E00C94C32CCF93DF93609125
:1059E0002F02635067FDB1C080912B02CCE0D0E064
:1059F000C81BD109CD5CDD4F80912A028D3209F0A0
:105A000092C0683009F09FC083EC809312028AE54F
:105A1000809370001092E2018881807621F0CE019F
:105A20000E94BE2B6DC09A8110921B028981811148
:105A300006C010921C022BE132E082E05CC085308F
:105A400019F49093300254C08630D1F58B818130A7
:105A500041F48BE49FE090932E0280932D0282E12B
:105A60002BC0823021F18330F1F4911108C08FE80E
:105A70009FE090932E0280932D0284E01DC0913010
:105A800041F489E79FE090932E0280932D0286E1F6
:105A900013C0923081F48DE59FE090932E028093A5
:105AA0002D028CE109C0813211F0823221F4CE0145
:105AB0000E948B2C01C080E090E49093E20120C012
:105AC000883079F0893019F49093320211C08A300D
:105AD00059F08B3069F48BE480931E0280934A0264
