:100000000C94AE040C94F2040C940D050C94F204C0
:100010000C94F2040C94F2040C94F2040C94F20488
:100020000C94F2040C94F2040C942D230C94F2041E
:100030000C94F2040C94F2040C94F2040C94F20468
:100040000C94F2040C94F2040C94F2040C94F20458
:100050000C94F204DB08DD08DF08EA08E108E30895
:10006000E508E708E908EC08EE08F008FB08F208E4
:10007000F408F608F808FA080B09FD086919691967
:100080009B199B19E8191C1B1C1B1C1B061A9B1A8D
:10009000AC1AAC1A0C1B1C1B1C1B151B9E1B9E1B9D
:1000A000B01BB01BA71BB01BB01BB01B9E1B9E1B25
:1000B000AC1BB01BB01BAC1B215B5D2829003100C1
:1000C000130012000C00150017001C001800080097
:1000D0001A0014002B000000000000003400330060
:1000E0000F000E0009000A000B000D0007001600AB
:1000F000040029420000000000002A00270026001A
:100100002500210022002300240020001F001E00E3
:100110003500000000000000387237003600100083
:10012000060019000500110028001B001D00E10059
:100130000000000000004C002E002D00E4002C0008
:100140002C0001510151E200E300E000E00000005A
:10015000000000000000000000000000000000009F
:10016000000000000000000000000000000000008F
:10017000000000000000000000000000000000007F
:10018000000000000000000000000000000000006F
:10019000000000000000000000000000000000005F
:1001A0000000000000000000000000000000005CF3
:1001B00046004E0052003002220023004B002F0266
:1001C000E300A600280000000000000028004D0009
:1001D0004F00510027024D004A00500026025000F7
:1001E0004A003900000000000000440043004200C3
:1001F00041003D003E003F0040003C003B003A0013
:1002000045000000000000003802A900AA00AE006E
:100210003000F85CC95CC65C2F004C002A0001006D
:100220000000000000004900A900AA000100AE0083
:10023000AE0001000100010001000100010000000A
:1002400000000000000000000000000000000000AE
:10025000000000000000000000000000000000009E
:10026000000000000000000000000000000000008E
:10027000000000000000000000000000000000007E
:10028000000000000000000000000000000000006E
:10029000000000000000000000000000000031002D
:1002A0004600BE5CBD5C30020100BB5CBC5C2F0242
:1002B0000100A600AE000000000000002800300091
:1002C0002F003702270236023702360226020100CB
:1002D0000100010000000000000044002E002D007D
:1002E0004100440045003F00400043003E003E0105
:1002F0004500000000000000CD5CC75CC85CC55C28
:100300003000F85CC95CC65C2F00010001000100F0
:100310000000000000004900A900AA00AB002C0169
:100320002C0101000100010001000100C05C00007F
:1003300000000000000000000000000000000000BD
:1003400000000000000000000000000000000000AD
:10035000000000000000000000000000000000009D
:10036000000000000000000000000000000000008D
:10037000000000000000000000000000000000007D
:10038000000000000000000000000000000001006C
:100390000100010001000100010001000100010055
:1003A0000100010001000000000000000100010048
:1003B0000100010001000100010001000100010035
:1003C0000100010000000000000001000100010028
:1003D0000100010001000100010001000100010015
:1003E0000100000000000000010001000100010008
:1003F00001000100010001000100010001000100F5
:10040000000000000000BB5CBE5CBD5CBC5C010089
:1004100001000100010001000100010001000000D5
:1004200000000000000000000000000000000000CC
:1004300000000000000000000000000000000000BC
:1004400000000000000000000000000000000000AC
:10045000000000000000000000000000000000009C
:10046000000000000000000000000000000000008C
:10047000000000000000000000000000000000007C
:100480000000000000002A2B2800000000000000EF
:1004900000000000000000000029000000002C1EE9
:1004A0003420212224342627252E362D3738271EA6
:1004B0001F202122232425263333362E37381F04CC
:1004C00005060708090A0B0C0D0E0F101112131464
:1004D00015161718191A1B1C1D2F3130232D350422
:1004E00005060708090A0B0C0D0E0F101112131444
:1004F00015161718191A1B1C1D2F3130354C00000A
:1005000000000000000000000000000000000000EB
:1005100000000000000000000000000000000000DB
:1005200000000000000000000000000000000000CB
:1005300000000000000000000000000000000000BB
:1005400000000000000000000000000000000000AB
:10055000000000000000000000000000000000009B
:10056000000000000000000000000000000000008B
:10057000000000000000000000000000000000007B
:10058000000000000000000000000000000000006B
:10059000000000000000000000000000000000015A
:1005A0000101010101000101010100000000000042
:1005B0000000000000000000010001000101010135
:1005C000010101010101010101010101010101011B
:1005D0000101010101010101010000000101000010
:1005E000000000000000000000000000000000000B
:1005F00000000000000000000001010101000004F3
:100600007F3F1F643214643214783C1E1E140A05A6
:100610002223252628292A2C2D2F3032333536380F
:100620003A3B3D3E4042434547494A4C4E50515368
:100630005557595A5C5E6062646668696B6D6F718C
:10064000737577797B7D7F81838587898A8C8E908E
:10065000929496989A9C9E9FA1A3A5A7A8AAACAE97
:10066000AFB1B3B4B6B8B9BBBCBEBFC1C2C3C5C6D7
:10067000C7C9CACBCCCDCED0D1D2D2D3D4D5D6D780
:10068000D7D8D9D9DADADBDBDBDCDCDCDCDCDDDDBE
:10069000DDDDDCDCDCDCDCDBDBDBDADAD9D9D8D7AE
:1006A000D7D6D5D4D3D2D2D1D0CECDCCCBCAC9C750
:1006B000C6C5C3C2C1BFBEBCBBB9B8B6B4B3B1AF87
:1006C000AEACAAA8A7A5A3A19F9E9C9A9896949227
:1006D000908E8C8A89878583817F7D7B79777573FE
:1006E000716F6D6B6968666462605E5C5A595755DC
:1006F0005351504E4C4A4947454342403E3D3B3A98
:100700003836353332302F2D2C2A2928262523221E
:10071000FFAA7F554000000000000000000000011B
:1007200001010101010101010202020202020202B1
:10073000030303030303030404040404050505057C
:100740000506060606060707070708080808090938
:10075000090A0A0A0B0B0B0C0C0C0D0D0D0E0E0EDC
:100760000F0F101010111112121313141415151667
:10077000161717181819191A1A1B1C1C1D1D1E1FD5
:100780001F20212122232324252526272828292A22
:100790002B2C2C2D2E2F3031313233343536373847
:1007A000393A3B3C3D3E3F40414243444546474841
:1007B000494B4C4D4E4F50525354555758595A5C13
:1007C0005D5E606163646567686A6B6C6E6F7172B1
:1007D000747677797A7C7D7F8182848687898B8D18
:1007E0008E9092949597999B9D9FA1A2A4A6A8AA4A
:1007F000ACAEB0B2B4B6B9BBBDBFC1C3C5C8CACC3C
:10080000CED0D3D5D7DADCDEE1E3E6E8EAEDEFF2ED
:10081000F4F7F9FCFF09023B0002010080FA090429
:100820000000010301010009210101000122400033
:10083000070581030800010904010001030000000D
:10084000092101010001228400070583030800013A
:1008500005010902A10185020901A100050919018B
:10086000290515002501750195058102750395017E
:1008700081030501093009311581257F750895022D
:10088000810609381581257F3500450075089501D9
:100890008106050C0A38021581257F7508950181AE
:1008A00006C0C005010980A1018503150126B70016
:1008B000190129B7751095018100C0050C0901A126
:1008C0000185041501269C0219012A9C02751095C8
:1008D000018100C005010906A10175019508050700
:1008E00019E029E7150025018102950175088103AA
:1008F00095057501050819012905910295017503F2
:10090000910395067508150026FF000507190029B3
:10091000FF8100C01201100100000008A0202D423C
:100920000002010200011C034A004A0035003000A9
:1009300020004B006500790062006F0061007200CA
:10094000640016034B0050005200650070007500F3
:1009500062006C00690063000403090411241FBED7
:10096000CFE5D8E0DEBFCDBF04B603FE24C0809142
:10097000AF029091B002A091B102B091B202873063
:10098000904BA740B04BB9F41092AF021092B00256
:100990001092B1021092B20214BE84B7877F84BF56
:1009A0000FB6F894A89581B5886181BD11BC0FBEC2
:1009B000E0E0F8E3099510E0A0E6B0E0E4ECF2E551
:1009C00002C005900D92A43AB107D9F722E0A4EA3B
:1009D000B0E001C01D92AF3AB207E1F70E94D52501
:1009E0000C9460290C940000A82FB92F80E090E0AF
:1009F00041E050EA609530E009C02D91822797953B
:100A0000879510F084279527305EC8F36F5FA8F3B1
:100A10000895EADF8D939D930895CF93CFB7CF9339
:100A2000C395839BE9F7839B0EC0839B0CC0839B7C
:100A30000AC0839B08C0839B06C0C0918602C395F1
:100A4000C0938602A3C0DF93C0918502DD27C35700
:100A5000DD4F839B02C0DF91E6CF2F930F931F934F
:100A600000B32FEF03FB20F94F933F9310B34FEFE9
:100A7000012703FB21F93BE031C04E7F012F10B36A
:100A8000216028C0102F4D7F2260000000B329C0D4
:100A90004B7F2460012F000010B32BC010B3477FA1
:100AA00028602AC04F7E00B320612CC04F7D10B358
:100AB00020622FC04F7B00B3206432C0422700B3B6
:100AC00049934FEF0000102713FB20F910B31C705F
:100AD000C9F1297F91F2012703FB21F900B3237F9C
:100AE00089F2315058F1102713FB22F910B3277EF9
:100AF00079F2012703FB23F92F7C81F200B3102741
:100B000013FB24F92F7971F200C010B3012703FB06
:100B100025F92F7359F200C000B3102713FB26F9F3
:100B2000223040F200C010B3012703FB27F9243024
:100B300028F64F77206810B30000F9CF10E81ABFED
:100B4000002719C03B503195C31BD04010E81ABF95
:100B50000881033CF9F00B34E9F0209183021981FC
:100B6000110F1213EDCF4A81441F093641F10D32A6
:100B700011F0013E29F700938B023F914F911F9195
:100B80000F912F91DF91CAB7C7FD4ACFCF91CFBF49
:100B9000CF91189520918B02222379F3109189022D
:100BA0001123C1F53430C2F13093890220938402BD
:100BB000109185023BE0311B309385022DC00091DE
:100BC000890201303CF50AE54F7049F430917D000F
:100BD00034FD24C000937D00CCE6D2E023C0433036
:100BE00049F03091770234FD19C000937702C8E7CD
:100BF000D2E018C03091A30234FD10C00093A302CC
:100C0000C4EAD2E00FC02795A8F45150A9F4220FEE
:100C10000000F9CF4AE503C042ED01C0432FC4E113
:100C2000D0E032E011B31C60939A11BB02B320E410
:100C30001CE05F93012756E002BB279520F451503A
:100C400021F4220FF9CF012756E000003B5A02BBE6
:100C5000D0F2279528F4515029F4220F0000F9CF43
:100C6000012756E0279502BB20F4515021F4220FB2
:100C7000F9CF012756E02991332302BB21F6037FE8
:100C800010918A02110FC651D04002BB11F010938F
:100C9000830210E81ABF086011B3137F402F437F0F
:100CA0005F9100C000C002BB11BB42BB66CF8FEF9B
:100CB00087BB88BB1ABA94B39B7B94BB8BBB85B3B1
:100CC0008C6F85BBE4EBF0E0A4EAB0E011921192E6
:100CD0001D921D9280E0E43CF807C1F70C944B088C
:100CE00021E030E0A90102C0440F551F8A95E2F7C8
:100CF000CA0147BB809588BB0895282F2695257586
:100D0000880F8A7A282B822F86958695837394E0A4
:100D1000299F900111242C7C822B82950895DF92CB
:100D2000EF92FF920F931F93CF93DF9304EA10E0AB
:100D30007801D0E085E0D82E8D2F0E94700644E126
:100D40004A95F1F7C9B383B380950E947D06C0959B
:100D50002C2F30E0D901B82BF70120813181A21767
:100D6000B30721F0B183A083D0926000DF5FF2E08F
:100D7000EF0EF11CD83001F7809160008823C1F09C
:100D8000815080936000882339F087EB9BE00197C6
:100D9000F1F700C000000CC0E4EBF0E0D8018D9149
:100DA0009D918D0181939193B0E0043B1B07B1F7B6
:100DB0000E94530881E0DF91CF911F910F91FF9026
:100DC000EF90DF900895E82FF0E0EE0FFF1FEC5456
:100DD000FF4F808191810895089585B3836085BB1D
:100DE00087E080B986B7846086BF86B7816086BF9A
:100DF00086B7806486BF089516BE94EA96BF06B68D
:100E000007FEFDCF91B1987F983011F081E00895F1
:100E100083B984E886BF06B607FEFDCF81B1887F1F
:100E2000883111F0803491F780E0089583B984E827
:100E300086BF06B607FEFDCF91B1987F81E098325C
:100E400009F480E00895DF92EF92FF920F931F93D1
:100E5000CF93DF93D62E072F7A010E94FC06182F1E
:100E600081110CC0CD2DD02FEC0EFD1ECE15DF054F
:100E700039F089910E9416078823C1F311E002C05E
:100E800084E986BF812FDF91CF911F910F91FF9051
:100E9000EF90DF90089580FF03C0889A909A02C077
:100EA0008898909881FF03C0899A919A02C0899886
:100EB000919882FF03C08E9A969A08958E9896987C
:100EC000089580913D0280FF09C00E94ED0644E232
:100ED00050E062E472E080EB0C942307E2E4F2E07D
:100EE000118210821282339682E0E636F807C1F74B
:100EF000ECCF08950C9479070C947A078091C40084
:100F0000811110C080913D0280FF0CC00E94ED064F
:100F100044E250E062E472E080EB0E94230781E04B
:100F20008093C4000E94E6110C947907883F9C4589
:100F300041F4FB018281882321F088EB90E00E943C
:100F4000480881E0089581E008950C9496071F9366
:100F5000CF93DF9300D000D01F92CDB7DEB7498387
:100F60005A836B8320910E0189819A81211112C0CD
:100F7000662349F00E94EE20182F682F89819A81FC
:100F80000E94972003C00E94C220182F69817A8195
:100F9000812F04C00E94EE2069817A810F900F900A
:100FA0000F900F900F90DF91CF911F910C94800ABA
:100FB000FC01408151816281738184810C94A70777
:100FC0001F93CF93DF9390E0FC01E258FB4F149105
:100FD000FC01E258FA4FD491FC01E250FB4FC4915E
:100FE000DD2319F081EE0E941C18CC2319F086EE47
:100FF0000E941C18812F0E941619CC2319F086EE2E
:101000000E94EA18DD2331F081EEDF91CF911F912C
:101010000C94EA18DF91CF911F9108950F931F93BD
:10102000CF93DF93EC01062FFE018491882359F1C1
:101030009E012F5F3F4F813041F4E901F901149186
:10104000812F0E941C18812F0DC0823031F4E901DC
:10105000F90184910E941C180AC0833031F4E9011F
:10106000F90184910E94EA1802C00E94E0072196CB
:10107000802F8823C9F2E7EBFBE03197F1F700C03E
:1010800000008150F6CFDF91CF911F910F9108950D
:1010900060E00C940E080E942022811102C00E9480
:1010A000B0220C947C070C947E070C944B070C9494
:1010B000550808950E948C1B0E9459082FEB87E267
:1010C00099E0215080409040E1F700C000000C946E
:1010D00053230F931F93CF93DF9300D0CDB7DEB789
:1010E0008C010E94D8079A838983B801CE010196AA
:1010F0000E948012882309F4F7C1B80189819A817E
:101100000E94A507882309F4EFC1B80189819A815B
:101110000E948B16882309F4E7C189819A81893C52
:10112000FCE59F0741F4F8018281882309F4DCC1C2
:101130000E94D910D9C18A3C2CE5920708F011C150
:10114000823C3CE5930741F4F8018281882309F44D
:10115000CBC10E94A411C8C1833CECE59E0708F0F6
:10116000B5C08531FCE59F0708F086C082302CE5CC
:10117000920708F460C0F8018281882309F462C0F4
:101180000E942022811102C00E94B0220E943D22B2
:1011900090E090936B0280936A02E981FA81E250B9
:1011A000FC45E431F10508F03FC0E65DFF4F80915A
:1011B0006A020C94D728816035C0826033C0846095
:1011C00031C080612FC080622DC080642BC08068D8
:1011D00029C08460886026C08E7F24C08D7F22C095
:1011E0008B7F20C08F7E1EC08F7D1CC08F7B1AC05E
:1011F0008F7718C08B7F877F15C082FB222720F94D
:1012000091E0292720FB82F983FB222720F99227EE
:1012100090FB83F907C087FB222720F991E09227F2
:1012200090FB87F980936A0280916A020E944122B2
:101230000E948C1B59C181153CE5930739F0813020
:101240009C4561F0C8010E94A3074FC1F80182814B
:10125000882309F449C10E945A0846C1F8018281D5
:10126000882309F441C18091A701982F909590FBA4
:1012700080F98093A70138C186319C4519F70E94F7
:101280006F21982FF80182812091700030917100B8
:10129000882379F09A7A81E009F480E08093C50090
:1012A000911102C069E201C065E3C9010E94E52213
:1012B0000AC08091C500811102C069E201C065E3E6
:1012C000C9010E94E7220E94BD210EC1853C2CE588
:1012D000920741F4F8018281882309F405C10E9434
:1012E0009F1002C1863C3CE5930700F5833CECE58A
:1012F0009E0761F4F8018281882309F4F5C00E94F9
:101300006F21827281F00E949611EEC0843C9C4550
:1013100009F098CFF8018281882309F4E5C00E9482
:101320006F21827281F30E948911DEC0F80122814F
:10133000873CFCE59F0731F4222309F4D5C00E94C5
:10134000BB10D2C0883C9C4530F4222309F4CCC0A9
:101350000E94AC10C9C0222309F4C6C00E94CA1062
:10136000C3C0803DECE59E0779F4F80182818823B3
:1013700009F4BAC00E94690F893020F00E94690FF9
:101380008E3088F289E015C0813DFCE59F0708F0AA
:101390004FC08C3C2CE5920779F0B0F0F801228127
:1013A0008E3CFCE59F0741F1A8F5222309F49CC07F
:1013B00081E00E94991198C0F8018281882309F484
:1013C00093C00E949A0F90C08A3CECE59E0741F4BE
:1013D000F8018281882309F487C00E94E81084C044
:1013E0008B3C9C4509F02ECFF8018281882309F4BB
:1013F0007BC00E94890F78C0222309F475C00E9427
:10140000690F823028F00E94690F853008F48BCF75
:1014100082E0CFCF222309F467C00E94690F863093
:1014200028F00E94690F883008F47DCF86E0C1CF94
:10143000833DECE59E0739F4F8018281882309F4A5
:1014400053C088E1B6CF843DFCE59F0738F5813D68
:101450002CE5920781F4F8018281882309F444C0C5
:101460000E94690F8F3028F00E94690F843108F4C0
:101470005ACF8FE09ECF823D9C4509F0E3CEF80124
:101480008281882389F10E94690F853128F00E94AA
:10149000690F873108F447CF85E18BCF853DECE5B7
:1014A0009E0731F4F80182818823F1F083E281CF35
:1014B000853DFCE59F0778F4F80182818823A1F03F
:1014C0000E94690F893128F00E94690F823208F466
:1014D0002ACF89E16ECF8F3D9C4509F0B3CEF8014C
:1014E000828181110E94B02280E00F900F90DF91E5
:1014F000CF911F910F91089580E090E00895089595
:1015000028E7829FC0011124FC012FE0729FE00DAB
:10151000F11D1124E60FF11DEE0FFF1FE254FF4FE6
:10152000859194910895880F991FFC01E250FA4F1C
:10153000859194910895CF93DF930E94800A0E9431
:10154000550CEC018115904508F041C0C11580E4AF
:10155000D80708F028C1C83ED10510F5C03ED10516
:1015600008F09FC1C83AD10578F4C53AD10508F012
:10157000A2C0C130D10509F494C108F445C1C430FA
:10158000D10508F08EC140C1CF3BD10508F49EC003
:10159000C03CD10508F438C1CE01805C9109F5C08A
:1015A000C11590E2D90758F4C11521E0D20708F01F
:1015B00078C1C03FD10508F427C1D06572C1C115FB
:1015C00080E3D80708F0E5C0CE019F70DEC0C115EA
:1015D00095E5D90708F043C0C11524E5D20708F006
:1015E000F9C0C11582E5D80708F5C11591E5D907FD
:1015F00008F0DCC0CE0174E0969587957A95E1F706
:1016000083709C2F937021E030E002C0220F331FC3
:101610009A95E2F73C68382BCF70C695C69580E264
:10162000C89FE0011124C22BD32B3BC19E01237024
:1016300033278C2F86958695C115D34508F0BBC0FE
:10164000C1E0D0E002C0CC0FDD1F2A95E2F720E216
:10165000829FC0011124C82BD92BDC6822C1C1157F
:1016600029E5D207A0F4C11588E5D80708F0B7C06E
:10167000C11596E5D90708F0C7C08C2F0E94D10C80
:101680008F71C82FD0E0DC2FCC27D0620AC1C115E2
:101690002AE5D20708F4A8C0CE01905681159042E1
:1016A00008F0B2C08D2F8F710E94D10CDD27D0625F
:1016B0008F71D82BF6C0C53AD10509F4A8C0C63A37
:1016C000D10509F0A7C0C2E8D0E4EBC0C83AD10503
:1016D00009F4A3C0C93AD10509F4A2C0CA3AD10598
:1016E00009F4A1C0CB3AD10509F4A0C0CC3AD10588
:1016F00009F49FC0CB3BD10509F49EC0CC3BD1057A
:1017000009F49DC0CD3AD10509F49CC0C03BD10578
:1017100009F49BC0CE3AD10509F49AC0CF3AD1055D
:1017200009F499C0C13BD10509F498C0C23BD10569
:1017300009F497C0C33BD10509F496C0C43BD10559
:1017400009F495C0C53BD10509F494C0C63BD10549
:1017500009F493C0C73BD10509F492C0C83BD10539
:1017600009F491C0C93BD10509F490C0CD3BD10526
:1017700009F48FC0CE3BD10509F48EC0CA3BD10518
:1017800009F48DC0C0E0D4E48CC00E94930AEC013F
:1017900088C0CE019927D3FF03C0EC01D86C81C06B
:1017A000EC01D06C7EC0DF70D06A7BC0DC2FCC2710
:1017B000C16FD06A76C0C1E0D0E002C0CC0FDD1F9F
:1017C0002A95E2F720E2829FC0011124C82BD92B71
:1017D000DA6867C0DC2FCC27C46FD06A62C0DC2F08
:1017E000CC27C06FD06A5DC08C2F8F700E94D10C47
:1017F00094E0D695C7959A95E1F7CF70D0E0DC2FAD
:10180000CC27D069C82B4DC0C0E0D0E04AC0C1E8A9
:10181000D0E447C0C3E8D0E444C0C2EED4E441C041
:10182000C9EED4E43EC0CAEED4E43BC0C5EBD4E478
:1018300038C0C6EBD4E435C0C3EBD4E432C0C4EB4B
:10184000D4E42FC0C7EBD4E42CC0CCECD4E429C042
:10185000CDECD4E426C0C3E8D5E423C0CAE8D5E47F
:1018600020C0C2E9D5E41DC0C4E9D5E41AC0C1E274
:10187000D6E417C0C3E2D6E414C0C4E2D6E411C073
:10188000C5E2D6E40EC0C6E2D6E40BC0C7E2D6E499
:1018900008C0CFE6D4E405C0C0E7D4E402C0CAE281
:1018A000D6E4CE01DF91CF9108958238910549F1B8
:1018B000B0F48133910509F459C048F48932910597
:1018C00009F44FC08A32910509F455C00895853353
:1018D000910509F441C08933910599F00895833E3B
:1018E000910531F138F4803E910591F0823E9105E9
:1018F000A9F00895863E910501F1873E910539F1E1
:10190000089520916A0220FD3BC021FD39C0089551
:1019100080916A0280FF34C089E341C080916A02ED
:1019200082FF30C080916A0284FD2EC083EE37C0F2
:1019300080916A0282FD26C0F5CF80916A0283FF02
:1019400025C080916A0284FD1FC087EE28C0809167
:101950006A0283FD1BC0F5CF80916A0285FD18C025
:1019600019C080916A0285FD15C012C080916A027B
:1019700086FD12C013C080916A0286FD0FC00CC0A4
:1019800080EE0DC082EE0BC080E009C086EE07C07D
:1019900089E205C085E303C08AE201C081E390E0EB
:1019A000089590916A0292FF0DC0282F2871283067
:1019B00019F4877F846006C0282F2471243011F425
:1019C0008B7F886093FF0DC0282F2871283119F470
:1019D000877E846106C0282F2471243111F48B7E08
:1019E000886194FD877E0895CF92DF92EF92FF92F7
:1019F0000F931F93CF93DF93362F472F282FE82F76
:101A0000F0E0711106C0EB5EF84F6491762F862FDF
:101A10007BC0072F10E056E0659FC0011124CFEF77
:101A2000D0E0BE010E94AF285BEA5603C001579F79
:101A3000900D1124830F911D830F911D982F990FE5
:101A4000980F7E01E01AF10AEE9ED001EF9EB00DD4
:101A5000FE9EB00D11248B2F499FA0011124452F0C
:101A600055277E01E41AF50AEE9EA001EF9E500D67
:101A7000FE9E500D11246E01C91AD108C09E70013E
:101A8000C19EF00CD09EF00C11240F2D1127C01B0D
:101A9000D10BCE9F8001CF9F100DDE9F100D112422
:101AA0006230710591F048F461157105E1F0613023
:101AB0007105B1F49B2FE52F0AC06430710569F000
:101AC00040F06630710579F00BC0912FEB2F822F1B
:101AD0000DC0922FEB2F852F09C0922FE12F06C04A
:101AE000952FE22F03C09B2FE22F812FF0E0EB5EBA
:101AF000F84F7491E82FF0E0EB5EF84F6491E92F16
:101B0000F0E0EB5EF84F8491DF91CF911F910F9140
:101B1000FF90EF90DF90CF9008950895CF93DF93DB
:101B2000762FE901682F842F0E94F40C7983688353
:101B30008A83DF91CF9108950F931F93CF93DF9303
:101B4000EC0100E010E080916300282F30E00217E4
:101B5000130724F59091C9009801290F311DA9019F
:101B6000440F551F240F351F2E5B3D4F869590E087
:101B70004C81081719071CF4442331F002C04111AD
:101B800003C04091400201C040E060913F0280915B
:101B90003E020E948E0D0F5F1F4FD5CF0E9461073E
:101BA0008C8190E00196817099278C83DF91CF9191
:101BB0001F910F9108950F931F93CF93DF938C0183
:101BC000FC01848195810196817099279583848396
:101BD000C0E0D5E580916300C81700F58091C90089
:101BE0002C2F30E0280F311DC901880F991F280FB5
:101BF000391F2E5B3D4F4C2F4695F801848195810E
:101C0000840F911D81704091400260913F028D9F31
:101C1000802D11240E948E0DCF5FDCCFDF91CF91FC
:101C20001F910F910C946107CF938091C9009091FF
:101C30006400891770F4E82FF0E09F01220F331F32
:101C4000E20FF31FEE5BFD4F1182108212828F5F55
:101C5000F0CFC0E060916300C617C0F5EC2FF0E054
:101C600070E0CF010E94C3282091C900820F20910B
:101C7000C700022E000C330B90E0E217F307CCF004
:101C800020916200022E000C330B2E173F078CF0C0
:101C90009C01220F331F820F931F9C012E5B3D4F2F
:101CA0004091400260913F0280913E020E948E0D61
:101CB0000BC0FC01EE0FFF1F8E0F9F1FFC01EE5BA0
:101CC000FD4F118210821282CF5FC4CF0E94610744
:101CD000209161008091C700820F8093C70090918E
:101CE0006200920F9093620019165CF4082E000CAB
:101CF000990B4091630050E04150510984179507BA
:101D00001CF0219520936100CF910895BF92CF924E
:101D1000DF92EF92FF920F931F93CF93DF93FC011B
:101D2000828180FF02C00FEF01C001E010E08091CE
:101D300063001817E0F58091C900C12ED12CE6018F
:101D4000C80FD11DCE01880F991FC80FD91FCE5BB8
:101D5000DD4F198218821A8234E0E32EF12CB12C67
:101D60008091C8008B0D87FF03C090916300890F9D
:101D7000082E000C990BC816D90691F480914002E8
:101D80008E9DA0018F9D500D112455954795559519
:101D900047959E0160913F0280913E020E948E0D08
:101DA000B00EF1E0EF1AF108D9F61F5FC0CF0E9424
:101DB00061078091C800013031F4811102C0809127
:101DC0006300815007C090E001966091630070E06D
:101DD0000E94C3288093C800DF91CF911F910F917B
:101DE000FF90EF90DF90CF90BF900895FF920F93F8
:101DF0001F93CF93DF93EC01F12C0FEF10E0609174
:101E00006300F616F0F48091C9002F2D30E0280F02
:101E1000311DC901880F991F280F391F2E5B3D4FB7
:101E200070E0C8010E94C328962F8C814091400227
:101E300060913F02F99E800D11240E948E0DF39453
:101E4000DECF0E9461079A818C8190FF02C08F5F74
:101E500001C081508C83DF91CF911F910F91FF9032
:101E6000089580913D02282F269530E021153105F7
:101E700019F48170826005C02532310524F081702B
:101E8000886480933D02089588E090E00C941429C2
:101E9000CF92DF92EF92FF926B017C010E94310F93
:101EA000B701A60188E090E0FF90EF90DF90CF901F
:101EB0000C943129EDE3F2E083E0808311828FEF0F
:101EC00082838383148260817181828193810C94E7
:101ED000480F80913D0280FF02C08695089580E002
:101EE0000895EDE3F2E080818E7F808360817181CF
:101EF000828193810E94480F1092D2002FEB84EDD3
:101F000091E0215080409040E1F700C000000C9427
:101F1000610780914102833018F48F5F8093410202
:101F200060913D0270913E0280913F02909140028B
:101F30000C94480F80914102882319F081508093BE
:101F4000410260913D0270913E0280913F0290916A
:101F500040020C94480F90913D0290FF16C0909162
:101F6000C90020916400921770F4E92FF0E0DF01BE
:101F7000AA0FBB1FEA0FFB1FEE5BFD4F818360833F
:101F800042839F5FF0CF0C9461070895CF93DF9356
:101F900000D01F92CDB7DEB790913D0290FF0AC0EE
:101FA0009E012F5F3F4F0E948E0D4B8169818A8178
:101FB0000E94AB0F0F900F900F90DF91CF9108957B
:101FC000CF93DF93EC01EC81F0E0E05FF94F4491B7
:101FD000EDE3F2E0628181810E94C60F8C818F5F08
:101FE0008C83DF91CF910895CF93DF93EC01EDE3E4
:101FF000F2E0438162818C810E94C60F8C818F5FE9
:102000008C83DF91CF910895AF92BF92CF92DF92F0
:10201000EF92FF920F931F93CF93DF9300D01F9205
:10202000CDB7DEB7182FF62E042FE22E90913D0289
:1020300090FF6DC0E92FE695AE2FB0E0A258BF4FDC
:102040008C918093D1009E7F923061F49E012F5F2E
:102050003F4F812F0E948E0D4B8169818A810E94A2
:10206000AB0F43C0823019F4009140023EC086306D
:1020700019F410913E0239C08930D9F38931A9F59C
:10208000E9518E2F8170D82EE695F0E0E05FF84F91
:10209000A590B490C12CBB2460916300C61618F5BE
:1020A0002C2D30E0A29EC001A39E900DB29E900DFB
:1020B000112470E00E94AF28812FD11002C0860F3A
:1020C00001C0861B9091C900290F311DA901440F41
:1020D000551F240F351F2E5B3D4F402F6F2D0E9443
:1020E0008E0DC394D9CF0E94610710933E02F092E7
:1020F0003F0200934002EE2051F060913D0270914A
:102100003E0280913F02909140020E94480F0F9042
:102110000F900F90DF91CF911F910F91FF90EF9053
:10212000DF90CF90BF90AF900895EDE3F2E0918102
:10213000282F438162818CE0890F0C94041081E088
:102140000C949510EDE3F2E09181282F4381628198
:1021500084EF890F0C94041081E00C94A210EDE33D
:10216000F2E062812FE0620F08F46FEF282F4381C5
:1021700081810C94041081E00C94AF10EDE3F2E047
:1021800062812FE0621B08F460E0282F4381818187
:102190000C94041081E00C94BE10EDE3F2E0438156
:1021A00022E1420F08F44FEF282F628181810C94C5
:1021B000041081E00C94CD10EDE3F2E0438122E1C4
:1021C000421B08F440E0282F628181810C940410A6
:1021D00081E00C94DC1020E00C9404100F931F930A
:1021E000CF93DF9300D01F92CDB7DEB78C018091E3
:1021F000C60081110AC09E012F5F3F4F4FEF6FEF66
:102200000E948E0D8A818093C600F80184818130FE
:1022100051F028F0823061F44091C6000AC08091EC
:10222000C60040E007C06091C60040E080E003C007
:1022300040E080E060E00E94AB0FF801848190E014
:10224000019663E070E00E94C32884830F900F9092
:102250000F90DF91CF911F910F91089560913D02F2
:10226000669570E04BE050E085E690E00E94FF2824
:10227000892B19F481E08093D2000E94F722909379
:10228000CB008093CA00089590913D0290FF35C025
:102290009170811102C0926006C0853210F098647E
:1022A00002C0880F982B90933D02662351F06091F5
:1022B0003D0270913E0280913F02909140020E9447
:1022C000480F60913D02669570E04BE050E085E676
:1022D00090E00E94FF28892B19F01092D20002C0D2
:1022E0000E942E1181E08093CD00409140026091C8
:1022F0003F0280913E020C94EB100895682F90915C
:102300003D02969581E0890F853208F081E00C94BA
:10231000441181E00C947E11682F90913D029695B6
:102320008FEF890F09F484E20C94441181E00C943E
:102330008C1161E00C944411EDE3F2E08081816046
:10234000808386950C94991180913D0280FD0C94B8
:10235000710F0C949C1160E00C9444118091D0009A
:10236000811133C08091A70181608093A7010E94F1
:102370002022811104C00E94B0220E945A0F0E94A4
:10238000440F60933D0270933E0280933F0290930E
:1023900040026E7F61F40E945A0F0E94440F6093C6
:1023A0003D0270933E0280933F02909340020E9450
:1023B000310F1092D20080913D0280FF03C08695BC
:1023C0000E94AB1181E08093D00008950F931F937A
:1023D000CF93DF938091D200882309F48CC0809141
:1023E000D100E0913D02E695E81BE093CC008230FD
:1023F00049F4F0E0E45FF94FE491CE2FD0E000EE35
:102400001FE049C0863049F4F0E0E75FF94FE491FE
:10241000CE2FD0E004EF1FE03EC0893051F4E695A6
:10242000F0E0EA5FF94FE491CE2FD0E006EF1EE036
:1024300032C08F3051F4E695F0E0ED5FF94FE49152
:10244000CE2FD0E006E81EE026C0853149F4F0E04A
:10245000E050FA4FE491CE2FD0E004E11EE01BC023
:10246000883181F0833239F4EEEFF5E0C591D491F3
:102470000EEE10E110C0843251F4C4EFD1E00CE94B
:102480001DE009C0C8EED3E00BED1DE004C0C0EDB7
:10249000D7E00DE81DE08091CD00882389F01092EF
:1024A000CD000E94F7229E0120953095820F931F48
:1024B0009093CB008093CA001092CF001092CE0070
:1024C0008091CA009091CB000E9403238C179D0736
:1024D00090F0E091CA00F091CB00CE0FDF1FD093B7
:1024E000CB00C093CA008AEC90E0F801DF91CF9155
:1024F0001F910F910994DF91CF911F910F91089532
:102500008F929F92AF92BF92CF92DF92EF92FF9203
:102510000F931F93CF93DF937C01DC01ED91FC912E
:10252000CF01815095458F3F910510F4B5E5FB270C
:10253000DB011296CC91CC2309F4B4C2EF3FF10534
:1025400079F070F0EE3DFC4519F01092D30060C3B5
:102550009091D30081E089278093D300A0E059C3F4
:10256000A091D300AA2309F4EBC01092D300E03C61
:10257000F10540F4E038F10508F073C0E034F105EE
:10258000D0F505C0EF3FF10509F008F4A0C021E047
:1025900030E040E050E060E070E080E090E00E2F3E
:1025A0000E94DD28B091D4002B2BB091D5003B2B9D
:1025B000B091D6004B2BB091D7005B2BB091D800D7
:1025C0006B2BB091D9007B2BB091DA008B2BB091A3
:1025D000DB009B2B2093D4003093D5004093D60092
:1025E0005093D7006093D8007093D9008093DA009D
:1025F0009093DB00A1C021E030E040E050E060E0DB
:1026000070E080E090E08F01005411090E94DD2805
:10261000B091DC002B2BB091DD003B2BB091DE00A4
:102620004B2BB091DF005B2BB091E0006B2BB09196
:10263000E1007B2BB091E2008B2BB091E3009B2B50
:102640002093DC003093DD004093DE005093DF00E8
:102650006093E0007093E1008093E2009093E300C8
:102660006BC021E030E040E050E060E070E080E0EE
:1026700090E08F01005811090E94DD28B091E4001C
:102680002B2BB091E5003B2BB091E6004B2BB0918A
:10269000E7005B2BB091E8006B2BB091E9007B2B3E
:1026A000B091EA008B2BB091EB009B2B2093E400C0
:1026B0003093E5004093E6005093E7006093E80014
:1026C0007093E9008093EA009093EB0035C021E01D
:1026D00030E040E050E060E070E080E090E08F01AA
:1026E000005C11090E94DD28B091EC002B2BB09109
:1026F000ED003B2BB091EE004B2BB091EF005B2B2C
:10270000B091F0006B2BB091F1007B2BB091F200F7
:102710008B2BB091F3009B2B2093EC003093ED00BA
:102720004093EE005093EF006093F0007093F1003F
:102730008093F2009093F300E701F983E88369C284
:10274000E034F105D0F4A090D400B090D500C09052
:10275000D600D090D700E090D800F090D900B0918A
:10276000DA001091DB0021E030E040E050E060E072
:1027700070E080E090E00E2F5DC0E038F105E8F4F5
:10278000A090DC00B090DD00C090DE00D090DF00B3
:10279000E090E000F090E100B091E2001091E300E1
:1027A00021E030E040E050E060E070E080E090E068
:1027B0004F01D0E48D1A91083CC0E03CF105E8F4EB
:1027C000A090E400B090E500C090E600D090E70053
:1027D000E090E800F090E900B091EA001091EB0081
:1027E00021E030E040E050E060E070E080E090E028
:1027F0004F01D0E88D1A91081CC0A090EC00B09059
:10280000ED00C090EE00D090EF00E090F000F0906E
:10281000F100B091F2001091F30021E030E040E0CF
:1028200050E060E070E080E090E04F01D0EC8D1A65
:102830009108082D0E94DD28A222B322C422D522AD
:10284000E622F722B823192321E030E040E050E0EF
:1028500060E070E080E090E0E034F105A0F04F012E
:10286000E038F10520F4D0E48D1A91080AC0E03C6C
:10287000F10520F4D0E88D1A910803C0D0EC8D1A30
:102880009108082D01C00E2F0E94DD280B2F0E94F9
:10289000F62809F0BDC1E03CF10548F4E038F10547
:1028A00008F084C0E034F10508F042C005C0EF3FF5
:1028B000F10509F008F4B8C021E030E040E050E054
:1028C00060E070E080E090E00E2F0E94DD2820950F
:1028D0003095409550956095709580959095E091D4
:1028E000D4002E23E091D5003E23E091D6004E2364
:1028F000E091D7005E23E091D8006E23E091D900EB
:102900007E23E091DA008E23E091DB009E2320936A
:10291000D4003093D5004093D6005093D7006093F5
:10292000D8007093D9008093DA009093DB0071C1D6
:102930008F010054110921E030E040E050E060E0F8
:1029400070E080E090E00E94DD2820953095409571
:1029500050956095709580959095E091DC002E23C0
:10296000E091DD003E23E091DE004E23E091DF00A8
:102970005E23E091E0006E23E091E1007E23E09190
:10298000E2008E23E091E3009E232093DC0030934D
:10299000DD004093DE005093DF006093E000709311
:1029A000E1008093E2009093E30033C18F0100586F
:1029B000110921E030E040E050E060E070E080E0AC
:1029C00090E00E94DD2820953095409550956095C7
:1029D000709580959095E091E4002E23E091E500BC
:1029E0003E23E091E6004E23E091E7005E23E09174
:1029F000E8006E23E091E9007E23E091EA008E2357
:102A0000E091EB009E232093E4003093E500409397
:102A1000E6005093E7006093E8007093E90080932C
:102A2000EA009093EB00F5C08F01005C110921E0F2
:102A300030E040E050E060E070E080E090E00E9434
:102A4000DD2820953095409550956095709580953E
:102A50009095E091EC002E23E091ED003E23E09173
:102A6000EE004E23E091EF005E23E091F0006E2334
:102A7000E091F1007E23E091F2008E23E091F300DB
:102A80009E232093EC003093ED004093EE00509392
:102A9000EF006093F0007093F1008093F200909348
:102AA000F300B7C0EF3FF10511F008F0AEC0E0341D
:102AB000F105D0F4C090D400D090D500E090D600BD
:102AC000F090D7001091D800C091D900B091DA00F1
:102AD000A091DB0021E030E040E050E060E070E0F9
:102AE00080E090E00E2F5DC0E038F105E8F4C09082
:102AF000DC00D090DD00E090DE00F090DF0010916F
:102B0000E000C091E100B091E200A091E30021E07B
:102B100030E040E050E060E070E080E090E05F0195
:102B2000D0E4AD1AB1083CC0E03CF105E8F4C09037
:102B3000E400D090E500E090E600F090E70010910E
:102B4000E800C091E900B091EA00A091EB0021E01B
:102B500030E040E050E060E070E080E090E05F0155
:102B6000D0E8AD1AB1081CC0C090EC00D090ED00C8
:102B7000E090EE00F090EF001091F000C091F100B5
:102B8000B091F200A091F30021E030E040E050E08D
:102B900060E070E080E090E05F01D0ECAD1AB10839
:102BA0000A2D0E94DD28A22EAC20B32EBD20C42EFB
:102BB000CE20D52EDF20E62EE122F72EFC22B823F0
:102BC000192F1A23E034F10570F0E038F10518F4FC
:102BD000E054F10908C0E03CF10518F4E058F109AF
:102BE00002C0E05CF10921E030E040E050E060E04C
:102BF00070E080E090E00E2F0E94DD28A1E00B2F16
:102C00000E94F62819F4A0E001C0A1E0A17001C063
:102C1000AC2F8A2FDF91CF911F910F91FF90EF90F2
:102C2000DF90CF90BF90AF909F908F9008950F93BB
:102C30001F93CF93DF93C62FD42F122FFC018281D5
:102C40008823C9F06093F6000E94F7229093F50064
:102C50008093F40080E28C0F883008F057C0C77072
:102C600081E001C0880FCA95EAF7DF91CF911F91EB
:102C70000F910C9429198091F600681330C080914F
:102C8000F4009091F5000E940323883C910538F5EB
:102C900000E20D0FCD17B9F080E28C0F883040F4C0
:102CA000C77081E001C0880FCA95EAF70E94301909
:102CB000083028F581E09D2F977001C0880F9A9504
:102CC000EAF70E942919812F0E9416190830F0F4A2
:102CD000D77081E001C0880FDA95EAF70AC080E278
:102CE0008C0F883098F4C77081E001C0880FCA95B6
:102CF000EAF7DF91CF911F910F910C943019812F3A
:102D0000DF91CF911F910F910C941619DF91CF9104
:102D10001F910F9108959C01CB01213F4CE5340791
:102D2000F9F078F4283DFCE53F07B9F0293D4CE582
:102D3000340711F1273D3C4531F526E241EE61EEC5
:102D40001EC0233FFCE53F0799F070F0243F3C454F
:102D5000D1F427E245EE66EE12C027E245EE0EC042
:102D600026E241EE60EE0BC027E245EE64EE07C0BE
:102D700026E241EE62EE03C028E241E065EE0E94E9
:102D8000171680E00895FC018281882319F01092C3
:102D9000F600089581E008959093FC008093FB0075
:102DA0000895E091FB00F091FC00309721F0019034
:102DB000F081E02D099480E00895E091FB00F0910E
:102DC000FC00309721F00280F381E02D09940895F2
:102DD0002091F9003091FA002817390771F090938B
:102DE000FA008093F900E091FB00F091FC0030972D
:102DF00021F00680F781E02D099408952091F700D5
:102E00003091F8002817390771F09093F8008093FB
:102E1000F700E091FB00F091FC00309721F0008476
:102E2000F185E02D0994089508950C9414170C94DD
:102E300015170C9414170C9414170E9419170C945E
:102E4000171781E008950E94F0220E9457060E9401
:102E5000B8230E94AE110C941B175F926F927F9261
:102E60008F929F92AF92BF92CF92DF92EF92FF929A
:102E70000F931F93CF93DF93CDB7DEB72A970FB68B
:102E8000F894DEBF0FBECDBF0E948F060E942117AF
:102E9000811111C08FEF89838A831B820E94F722E0
:102EA0008160782F9D838C8349815A816B818D81CC
:102EB0000E94E81756C09EEF692E90E0792E00E040
:102EC00010E088248394912C502E802F0E94E306DA
:102ED0006C01F301A190B1903F01A826B926A1147D
:102EE000B10431F40F5F1F4F0830110569F7D2CFDD
:102EF0008091A70181FD0E94EC0680E090E07401C2
:102F0000082E02C0EE0CFF1C0A94E2F795012E2158
:102F10003F21232B09F18E835F82CE20DF2081E0C9
:102F2000CD2809F480E088870E94F7228160782FFD
:102F30009A8789874E815F8168858A850E94E81714
:102F4000000F111FF801E250FF4F80819181E826A8
:102F5000F926F182E08205C001968F30910579F65D
:102F6000C1CF0E94D1169091FD008917D9F00E941F
:102F7000D1168093FD002A960FB6F894DEBF0FBEDF
:102F8000CDBFDF91CF911F910F91FF90EF90DF9018
:102F9000CF90BF90AF909F908F907F906F905F90F9
:102FA0000C9457082A960FB6F894DEBF0FBECDBF1B
:102FB000DF91CF911F910F91FF90EF90DF90CF9015
:102FC000BF90AF909F908F907F906F905F9008958B
:102FD000CF93DF93CDB7DEB72B970FB6F894DEBF54
:102FE0000FBECDBF4F83588769877A878B87DE01F5
:102FF000119686E0FD0111928A95E9F785E0FE01C0
:10300000379601900D928A95E1F749815A816B813B
:103010007C818D819E810E945C1E2B960FB6F89458
:10302000DEBF0FBECDBFDF91CF910895FC0180813F
:1030300091810E9430210895CF93882309F4C8C05C
:10304000C82F8CEF8C0F813A68F48C2F0E94992541
:103050008111BEC06C2F80917000909171000E9410
:10306000E5220CC080E28C0F883058F4C77081E0F4
:1030700001C0880FCA95EAF70E947221CF910C9483
:10308000BD218BE58C0F833078F4C53A29F0C63A20
:1030900031F083E890E005C081E890E002C082E86A
:1030A00090E0CF910C94E81688E58C0F873108F0FA
:1030B0008FC0C83A09F445C0C93A09F445C0CA3AB4
:1030C00009F445C0CB3A09F445C0CC3A09F445C0EF
:1030D000CB3B09F445C0CC3B09F445C0CD3A09F4DB
:1030E00045C0C03B09F445C0CE3A09F445C0CF3ACB
:1030F00009F445C0C13B09F445C0C23B09F445C0D1
:10310000C33B09F445C0C43B09F445C0C53B09F4C1
:1031100045C0C63B09F445C0C73B09F445C0C83BA0
:1031200009F445C0C93B09F445C0CD3B09F445C08D
:10313000CE3B09F445C0CA3B09F445C080E090E0AD
:1031400044C082EE90E041C089EE90E03EC08AEE3D
:1031500090E03BC085EB90E038C086EB90E035C056
:1031600083EB90E032C084EB90E02FC087EB90E0DF
:103170002CC08CEC90E029C08DEC90E026C083E858
:1031800091E023C08AE891E020C082E991E01DC06F
:1031900084E991E01AC081E292E017C083E292E0F4
:1031A00014C084E292E011C085E292E00EC086E293
:1031B00092E00BC087E292E008C08FE690E005C085
:1031C00080E790E002C08AE292E0CF910C94FE1674
:1031D000CF910895882349F1682F8CEF860F813AAB
:1031E00038F480917000909171000E94E7220CC029
:1031F00080E2860F883050F4677081E001C0880F4C
:103200006A95EAF70E9478210C94BD218BE5860F20
:10321000833020F480E090E00C94E816685A67311F
:1032200020F480E090E00C94FE160895CF93C82F10
:103230000E941C18C93349F42FEF8DEE92E0215003
:1032400080409040E1F700C000008C2FCF910C949B
:10325000EA18882321F00E9472210C94BD21089560
:10326000882321F00E9478210C94BD210895CF92EB
:10327000DF92EF92FF920F931F93CF93DF937C0126
:10328000062FC72FFC01158112951F70D281D11115
:103290000E948F210E946821882379F0DD2369F044
:1032A00080E2800F883048F082E00E9407220E946E
:1032B000682191E0D82ED92601C0D12CCC2EC29401
:1032C0008FE0C8228C2D90E0FC01E25CFF4F0C9453
:1032D000D7288C2F807FCF70882311F0C295C07FB4
:1032E000DD2399F0CC2309F482C180E2800F88307D
:1032F00010F0011104C08C2F0E94722103C08C2F8A
:103300000E9482210E94BD2172C1802F0E94EA1872
:10331000CC2309F491C180E2800F883010F00111B4
:1033200004C08C2F0E94782103C08C2F0E9488211A
:103330000E94BD2181C18C2F807FCF70803211F01F
:10334000C295C07F002319F00130C9F022C0DD23EF
:1033500071F0112341F0113031F40E94A2218C2B25
:103360000E94AA2169C10E94A2218C2B1DC0112399
:1033700019F0113009F460C10E94B32125C0DD238A
:1033800021F0163008F058C10EC0153008F054C1B5
:103390001BC0DD2361F0112331F0F701858180FF2F
:1033A00026C18F7085838C2F0E94291945C1112356
:1033B00059F0093309F02CC1FFEF2DEE82E0F150F6
:1033C00020408040E1F722C18C2F0E94301934C187
:1033D0008C2F86958695837019F0813061F02CC111
:1033E000DD2321F0802F9C2F937002C080E090E0BD
:1033F0000E94E81629C1DD2321F0802F9C2F9370B5
:1034000002C080E090E00E94FE161EC18C2F8370E7
:1034100009F045C0D11114C1402F4295469547701F
:10342000440F440F602F6F70862F90E0A0E0B0E053
:10343000042E04C0880F991FAA1FBB1F0A94D2F73D
:1034400004FF10C00FE010E020E030E004C0000FE7
:10345000111F221F331F4A95D2F700951095209512
:10346000309503C000E010E09801C695C695C37082
:10347000BC01CD01602B712B822B932BC23049F004
:1034800058F4C13019F00E94AD1FDAC00E949B1F92
:10349000D7C00E94BF1FD4C00E94991FD1C0DD2396
:1034A00019F08C2F817001C08695882309F4C8C05B
:1034B000402F429546954770440F440F602F6F7020
:1034C000862F90E0A0E0B0E0042E04C0880F991F82
:1034D000AA1FBB1F0A94D2F704FF10C00FE010E030
:1034E00020E030E004C0000F111F221F331F4A9557
:1034F000D2F7009510952095309503C000E010E0BC
:103500009801C695C695C370BC01CD01602B712B87
:10351000822B932BC23049F058F4C13019F00E942D
:1035200072208EC00E9460208BC00E94842088C0C0
:103530000E94D31F85C0CF70DD2339F08C2F0E94ED
:10354000F91F802F0E9429197BC0802F0E943019FB
:103550008C2F0E941A2074C0023F01F128F4003F12
:1035600041F0013FA1F03FC0033FF9F0043F39F1C2
:103570003AC0DD2341F0153008F05EC08C2F8F710A
:103580000E943F2059C0163008F056C0F7CFDD2307
:1035900039F08C2F8F710E94F91F4EC0DD23C9F3C3
:1035A0008C2F8F710E941A2047C0DD2329F08C2FA9
:1035B0008F710E94E41F40C00E94DF1F3DC0DD23C9
:1035C00049F0CF718C2F0E94F91F63E08C2F0E946D
:1035D000F22132C081E00E940722123068F182E0BD
:1035E0000E94072229C0DD2331F0112391F2802FA0
:1035F0000E941C1821C0112399F2093349F49FEF4E
:10360000EDEEF2E09150E040F040E1F700C0000044
:10361000802F0E94EA1810C04C2F4F70602FC701F6
:103620000E947C0A0E940A1F0FC04C2F4F70602F0F
:10363000C7010E947F0A08C088EF8C0D843020F4F7
:103640000E94D1160E945708DD20C9F00E94642113
:1036500080FD15C0F70112820E945E210E94F91FB1
:10366000C7010E94481B0E945E21DF91CF911F91EC
:103670000F91FF90EF90DF90CF900C941A20DF9184
:10368000CF911F910F91FF90EF90DF90CF90089511
:103690000F931F93CF93DF93EC01988189812B8146
:1036A0003C81232B31F08F3F31F481E09F3F19F4AF
:1036B00003C081E001C080E080FD13C0CE010E9404
:1036C0006908882371F0688179818A810E943B2191
:1036D0008C010E9496200E94871FB801CE010E9493
:1036E0003719DF91CF911F910F9108950E948F217B
:1036F0000E949F210E94BD2180E090E00E94E81678
:1037000080E090E00C94FE16809170009091710022
:103710000E94E9220C94761B0E947F210C94841B4A
:10372000E92FE295EF704E2F50E0FA013297EE301C
:10373000F105B0F4E25BFF4F0C94D728803F91F085
:1037400018F4883E68F40EC0843F51F40BC0883EE4
:1037500048F0813F29F406C093FB882780F908953B
:1037600080E0089581E008950E9430210E94901B1E
:103770000895CF93DF9300D000D01F92CDB7DEB76E
:103780000F900F900F900F900F90DF91CF910895B1
:10379000CF93DF9300D000D000D0CDB7DEB7269610
:1037A0000FB6F894DEBF0FBECDBFDF91CF91089565
:1037B0001F93CF93DF93C0910F0116E0809110010A
:1037C000C81799F0D0E01C9FF0011D9FF00D112447
:1037D000EF5EFE4F408151816281738184819581CA
:1037E0000E94C81B2196C770E9CFDF91CF911F912E
:1037F00008954091410150914201609143017091BF
:10380000440180914501909146010C94C81BCF93CF
:103810008091460182958F7009F05FC080914301CD
:10382000882309F45AC080910F01B0911001709162
:103830004101A0914201409144015091450191E024
:103840007F3F09F090E0692FC6E08B1709F445C06F
:103850004115510521F0AF3F21F020E003C021E0E8
:1038600001C0262F90E020FD35C0C89FF001C99F00
:10387000F00D1124EF5EFE4F21812A132BC0208111
:10388000271328C02281211125C0238134812417C8
:10389000350710F421503109241B350B283C310524
:1038A000C8F4209146012F7020612093460126E044
:1038B000289FF001299FF00D1124EA5EFE4F8081C0
:1038C0008F708061808381E491E00E94481BCF91DA
:1038D0000C94D81B01968770B8CFCF910895AF9202
:1038E000BF92CF92DF92EF92FF920F931F93CF93ED
:1038F000DF93CDB7DEB761970FB6F894DEBF0FBE8A
:10390000CDBF8C0185E0F801DE011D9601900D927E
:103910008A95E1F7D8014C9111965C911197129616
:10392000EC9030914101609142018091440190916D
:103930004501009731F06F3F31F421E03F3F19F42A
:1039400003C021E001C020E0B22FB170BB2E20FDEA
:1039500060C1F801C380D480A0904301AA2009F47B
:10396000EEC020914601C816D90628F0D601A81B42
:10397000B90BCD0104C0809590958C0D9D1DFF2441
:10398000F394883C910580F0F12C207F09F09CC0D5
:103990007C2DD98AC88A6E2D89890E94B91B81E441
:1039A00091E00E94481B2DC1822F807F09F054C0F6
:1039B000561314C0431312C0FE2CE1100FC02F7019
:1039C0002061209346010E94F91B81E491E00E944E
:1039D000481B80914601F80185835CC1CD2831F0F8
:1039E0005F3F31F481E04F3F19F403C081E001C033
:1039F00080E080FD03C081E08E2502C080E090E081
:103A0000F82FF170FF2E80FF1CC080910F012091D4
:103A1000100136E0821709F41AC190E0389FF001D6
:103A2000399FF00D1124EF5EFE4F6181561306C0E1
:103A30006081461303C06281E61203C0019687705D
:103A4000E9CFFE2CEE2009F425C18091460181606A
:103A500080934601F12C1EC1561309C0431307C0C1
:103A6000E11005C080914601F8018583A4C04D870F
:103A70005E878D859E850E94B41B882379F1EE2098
:103A800069F120914601822F82958F7090E0029714
:103A900074F0809141019091420198878F8319863B
:103AA000DB86CA862C87CE0107960E94481B86E0DB
:103AB000F801A1E4B1E001900D928A95E1F70E942E
:103AC000071C0E94F91B0DC0561771F04D875E87C9
:103AD0008D859E850E94B41B81111AC0C8010E9469
:103AE000481BFF24F394D6C04313F0CFE110EECF70
:103AF00080914601F8018583C8010E94481B86E039
:103B0000E1E4F1E0DF011D928A95E9F7FA2CC2C0E9
:103B1000EE2021F320914601822F82958F7090E054
:103B200002972CF280914101909142019A838983FE
:103B30001B82DD82CC822E83CE010196B6CFC816C1
:103B4000D90628F0F601E81BF90BCF0104C08095D7
:103B500090958C0D9D1D883C910548F0F12C7C2D95
:103B6000D98AC88A6E2D89890E94B91B4AC0FE2C49
:103B7000EE2009F4B3CF561333C0431331C0209164
:103B8000460120FD24C0822F82958F70482F50E07F
:103B900041155105E1F0D80115962C9315974F303A
:103BA000510549F08F5F982F9295907F822F8F70EB
:103BB000892B15968C93C8010E94481B86E0F8015A
:103BC000A1E4B1E001900D928A95E1F73DC086E055
:103BD000F801A1E4B1E001900D928A95E1F75AC095
:103BE0004D875E878D859E850E94B41B81115FCFB6
:103BF00080914601816080934601C8010E94481B64
:103C000049C0E1E4F1E086E0DF011D928A95E9F721
:103C10001BC0EE2009F462CF4D875E878D859E859F
:103C20000E94B41BF82E882309F458CF86E0F801CF
:103C3000A1E4B1E001900D928A95E1F781E491E071
:103C40000E9416180E94071C0E94F91B23C04D8772
:103C50005E878D859E850E943021292F22952F70A9
:103C6000223028F49F7039F0811105C00BC0243038
:103C700028F49F7049F4805E883020F0C8010E94CB
:103C8000481BBF2CFB2C06C0D80115969C91907F39
:103C900091F7F8CF8F2D61960FB6F894DEBF0FBE67
:103CA000CDBFDF91CF911F910F91FF90EF90DF90EB
:103CB000CF90BF90AF9008951F93CF93DF93CDB770
:103CC000DEB72C970FB6F894DEBF0FBECDBF4F8383
:103CD000588769877A878B879C87CE0107960E94D1
:103CE0006F1C8823D1F09F8188852A853B85232BF3
:103CF00031F08F3F31F481E09F3F19F403C081E040
:103D000001C080E080FD47C04F81588569857A8574
:103D10008B859C850E94C81B3EC086E0FE013796BD
:103D2000DE01119601900D928A95E1F7FF81E885F9
:103D30006A857B856115710531F0EF3F31F481E0D3
:103D4000FF3F19F403C081E001C080E080FD23C083
:103D50002091100130E0C9010196877099274091A8
:103D60000F0150E084179507F1F1F983EA837D8311
:103D70006C8396E0929FD001939FB00D1124AF5EAB
:103D8000BE4FFE01319601900D929A95E1F7809316
:103D900010010E94D81B16E080910F019091100134
:103DA000891771F1189FC00111248F5E9E4F0E94E8
:103DB0006F1C882329F1E0910F011E9FF00111244F
:103DC000EF5EFE4F408151816281738184819581D4
:103DD0000E94C81B80910F0190E00196877099277F
:103DE00080930F01D9CF0E948C1B1092100110926A
:103DF0000F01E1E4F1E086E0DF011D928A95E9F729
:103E00002C960FB6F894DEBF0FBECDBFDF91CF91D9
:103E10001F910895EF92FF920F931F93CF93DF931B
:103E20008C01892B09F46CC0F12CEE24E394E80199
:103E30002196F8018491843740F4843008F051C011
:103E4000813081F0823019F15BC0853709F444C0BC
:103E5000A8F19CE7980F903708F052C08F770E9426
:103E6000EA1841C00E5F1F4FFE01849190E2980F47
:103E7000983050F48770FE2D01C0FF0F8A95EAF745
:103E80008F2F0E94922114C00E941C182DC00E5F1B
:103E90001F4FFE01849190E2980F983060F4877074
:103EA000FE2D01C0FF0F8A95EAF78F2F0E949821FF
:103EB0000E94BD2119C00E94EA1816C00E5F1F4F54
:103EC000FE01C491CC2381F087EB9BE00197F1F7D1
:103ED00000C00000C150F6CF0E5F1F4FFE01F490EE
:103EE00003C00E941C188E018F2D882309F49FCFD8
:103EF000E7EBFBE03197F1F700C000008150F5CF10
:103F0000DF91CF911F910F91FF90EF900895089549
:103F100008950C94881F0C94891F0E948B1F609336
:103F200096017093970180939801909399010C9456
:103F3000761B0C948D1F0F931F9300919601109187
:103F400097012091980130919901602B712B822B60
:103F5000932B1F910F910C948D1F0F931F93009122
:103F60009601109197012091980130919901602359
:103F70007123822393231F910F910C948D1F0F9314
:103F80001F93009196011091970120919801309113
:103F9000990160277127822793271F910F910C9415
:103FA0008D1F0C94881F0E94D11F60939201709303
:103FB000930180939401909395010C94761B60E09B
:103FC00070E0CB010C94D31F0F931F9341E050E09E
:103FD00060E070E08A019B0104C0000F111F221FE6
:103FE000331F8A95D2F7C901B8011F910F910C9424
:103FF000D31F0F931F9341E050E060E070E004C0D6
:10400000440F551F661F771F8A95D2F78091920142
:1040100090919301A0919401B09195018A019B0127
:10402000082B192B2A2B3B2BC901B8011F910F918B
:104030000C94D31F0F931F9341E050E060E070E0B9
:1040400004C0440F551F661F771F8A95D2F740950D
:104050005095609570958091920190919301A091F7
:104060009401B09195018A019B01082319232A2309
:104070003B23C901B8011F910F910C94D31F0F93DB
:104080001F9341E050E060E070E004C0440F551F12
:10409000661F771F8A95D2F78091920190919301C4
:1040A000A0919401B09195018A019B0108271927DD
:1040B0002A273B27C901B8011F910F910C94D31FE8
:1040C0000F931F93009192011091930120919401FD
:1040D00030919501602B712B822B932B1F910F91A7
:1040E0000C94D31F0F931F93009192011091930191
:1040F00020919401309195016023712382239323B1
:104100001F910F910C94D31F0F931F930091920155
:1041100010919301209194013091950160277127AE
:10412000822793271F910F910C94D31F08952FE09E
:10413000929F800D1124E82FE695E695E69587700D
:1041400051E001C0550F8A95EAF785E0E89FF0013C
:104150001124E95BFE4F20E030E070E04081CB01AC
:10416000022E02C0969587950A94E2F78170819598
:1041700084278523842781932F5F3F4F2530310586
:1041800069F708952FE0929F800D1124682F66959E
:1041900066956695982F977085E0689FB001112409
:1041A00040E050E080E0FB01E40FF51FE95BFE4FCB
:1041B000208130E0092E02C0369527950A94E2F757
:1041C00021703327042E01C0220F0A94EAF7822BB4
:1041D0004F5F5F4F4530510531F70895BF92CF9241
:1041E000DF92EF92FF920F931F93CF93DF938C0197
:1041F000C0909201D0909301E0909401F0909501CD
:104200008091960190919701A0919801B0919901A8
:10421000C82AD92AEA2AFB2ACFE1D0E0D701C60171
:104220000C2E04C0B695A795979587950A94D2F75A
:1042300080FD04C0219790F7B12C07C0BC2EB801B7
:104240008C2F0E949B0A0197A9F38B2DDF91CF91B0
:104250001F910F91FF90EF90DF90CF90BF90089546
:10426000CF93DF93EC010E94EE20BE010E949B0AD7
:10427000DF91CF9108951F93CF93DF93EB0190913E
:104280000E01992321F0CB010E94302113C0882315
:1042900049F0CB010E94EE20182F682FCE010E941A
:1042A000972004C0CB010E94C220182FBE01812F8D
:1042B0000E949B0ADF91CF911F91089580919A01EE
:1042C000859585958595089580919A0187700895C3
:1042D00090919A01977081E009F480E008958091AF
:1042E000A60108959091A601892B8093A6010895B7
:1042F00080959091A60189238093A601089510923C
:10430000A60108959091A501892B8093A501089598
:1043100080959091A50189238093A501089510921D
:10432000A50108959091A401892B8093A40108957B
:1043300080959091A40189238093A40108951092FF
:10434000A401089580919B01089508950C94A521DE
:104350000C94A62190919B01981721F080939B01CA
:104360000C94A821089580919B01882329F0109234
:104370009B0180E00C94A8210895E0917000F091D9
:1043800071008091A6018083E0917000F09171002E
:1043900090818091A501892B8083E0917000F0913C
:1043A000710090818091A401892B808380919B0171
:1043B000882381F0E0917000F09171009081892B49
:1043C000808380917000909171000E94B2228111CF
:1043D0000E94B32180917000909171000C94DD16C1
:1043E0000C94A52198E0899F90011124262B2093FD
:1043F0009A010E94F91F80919A018595859585956E
:104400000C94F02110929A0180E00C94F0212091FC
:104410009A018095822380939A01982F977079F45E
:1044200030E0482F082E000C550B2417350739F0C3
:104430008595859585950E941A200C9402220895F1
:1044400080E090E00E941A2921E08D3E9E4F09F005
:1044500020E0822F089582E090E00C940C29682FD0
:1044600082E090E00C94202983E090E00C940C29E9
:10447000682F83E090E00C94202984E090E00C9475
:104480000C29682F84E090E00C942029AB01BC013A
:104490008FE090E00C943129AB01BC0183E190E006
:1044A0000C94312960E070E0CB010C944C2260E068
:1044B00070E0CB010E9446220C9452226DEE7EEFFA
:1044C00080E090E00E943D2960E082E090E00E9460
:1044D000202960E083E090E00E942029109296015C
:1044E00010929701109298011092990160E084E077
:1044F00090E00E94202960E085E090E00E94202961
:1045000060E086E090E00E9420296FEF87E090E075
:104510000E94202940E050E0BA0188E090E00E942B
:10452000312960E08DE090E00E94202940E050E0D9
:10453000BA0188E190E00E94312960E087E190E0D3
:104540000E94202940E050E0BA018CE190E00E94F6
:10455000312960E080E290E00E9420290C945722EB
:104560000C945E22FC01329697E080E0915029F095
:1045700021912223D9F38F5FF9CF08959C01FC018B
:1045800032969FEF80E04191461789F09F3F19F4E2
:10459000411101C0982F8F5F8630A9F79F3F39F0F6
:1045A000F901E90FF11D97FDFA95628308950895C9
:1045B0009C012A5F3F4FFC014281461301C01282D9
:1045C000019682179307B9F708950C94BE220C94B4
:1045D000D822029626E0FC0111922A95E9F7089567
:1045E0008BE083BF8BEB8CBF82E089BF08952FB730
:1045F000F8948091660290916702A0916802B09150
:1046000069022FBF0895CF92DF92EF92FF920F932E
:104610001F932FB7F8944091660250916702609102
:104620006802709169022FBF6A017B01EE24FF24AA
:104630008C0120E030E0C016D106E206F30610F44B
:10464000415051099A01281B390BC9011F910F9143
:10465000FF90EF90DF90CF90089578941F920F9283
:104660000FB60F9211248F939F93AF93BF938091B6
:10467000660290916702A0916802B091690201966A
:10468000A11DB11D8093660290936702A0936802FA
:10469000B0936902BF91AF919F918F910F900FBE20
:1046A0000F901F90189560E081E090E00E944329F0
:1046B00087E090EBDC018093AF029093B002A0936F
:1046C000B102B093B2029CE088E10FB6F894A895CD
:1046D00081BD0FBE91BDFFCFAF92BF92CF92DF924F
:1046E000EF92FF920F931F93CF93C0E0CC24C3941B
:1046F000D12CE82EF12C8C2F0E94E3065C0100E007
:1047000010E0C601002E02C0880F991F0A94E2F73C
:104710008A219B21892B31F40F5F1F4F0F30110528
:1047200081F70AC0602F7C2F80E00E94800AE81683
:10473000F90691F781E004C0CF5FC830E1F680E070
:10474000CF911F910F91FF90EF90DF90CF90BF908E
:10475000AF900895CF93C82F8CE20E946C238823DA
:1047600021F08C2FCF910C946C2380E0CF91089591
:10477000CF930E942022811102C00E94B022C5E680
:10478000C15049F00E948F068FE295E70197F1F73B
:1047900000C00000F5CF89E20E94AA2381110FC159
:1047A0008AE20E94AA2381110E94B02285E00E9421
:1047B000AA2381110E9453230E942B228093A701D8
:1047C00087E00E94AA238823A9F18BE10E94AA23F3
:1047D000882351F08091A70181FB222720F991E0E5
:1047E000922790FB81F90EC08EE00E94AA238823B5
:1047F00061F08091A70182FB222720F991E09227A6
:1048000090FB82F98093A70115C080E10E94AA2342
:104810009091A701882341F093FB222720F981E0A2
:10482000822780FB93F904C0892F809580FB90F943
:104830009093A7018091A7010E942F220E943D2200
:1048400090E090936B0280936A0280EE0E94AA230C
:10485000882341F080916A02982F909590FB80F90F
:1048600080936A0289E30E94AA23882359F08091E9
:104870006A0281FB222720F991E0922790FB81F9BF
:1048800080936A0282EE0E94AA23882359F08091C5
:104890006A0282FB222720F991E0922790FB82F99D
:1048A00080936A0286EE0E94AA23882359F08091A1
:1048B0006A0283FB222720F991E0922790FB83F97B
:1048C00080936A0283EE0E94AA23882359F0809184
:1048D0006A0284FB222720F991E0922790FB84F959
:1048E00080936A0285E30E94AA23882359F080916D
:1048F0006A0285FB222720F991E0922790FB85F937
:1049000080936A0281E30E94AA23882359F0809150
:104910006A0286FB222720F991E0922790FB86F914
:1049200080936A0281E10E94AA23882359F0809132
:104930006A0287FB222720F991E0922790FB87F9F2
:1049400080936A0280916A020E94412287E20E945B
:10495000AA23C82F8EE10E94AA238111C2608FE191
:104960000E94AA238111C46080E20E94AA238111BF
:10497000C86081E20E94AA238111C06182E20E9484
:10498000AA238111C06283E20E94AA238111C0641C
:1049900084E20E94AA23882311F0C06802C0CC23BD
:1049A00029F08C2F0E9438226C2F03C00E943422E1
:1049B000682F70E080E090E0CF910C94991FCF9128
:1049C00008950F931F9341E050E060E070E08A018A
:1049D0009B0104C0000F111F221F331F8A95D2F7BD
:1049E000C901B8010E94991F1F910F910C948C1B53
:1049F0008B3109F474C058F58B3009F492C078F407
:104A0000863009F446C020F4853009F44CC08BC0D0
:104A1000873009F456C0883009F483C084C08031DF
:104A200009F470C068F48E3009F07DC08091A70150
:104A300082FB222720F991E0922790FB82F958C04F
:104A4000863109F46EC0893109F46BC06CC08A32BA
:104A5000E9F060F4873209F461C028F48E3108F47B
:104A600062C08D515CC08932F1F05DC0833450F476
:104A70008A3308F051C0853309F450C0883309F4F3
:104A800050C051C0833409F449C04DC00E94B022C7
:104A900048C08091A701817F8E7F8093A70181E02C
:104AA0008093A80108950E948C1B2FEF8EE994E259
:104AB000215080409040E1F700C000000E94532345
:104AC00030C08091A701982F9095917090FB80F94C
:104AD0008093A701911125C0897F877F10C08091A5
:104AE000A70181FB222720F991E0922790FB81F911
:104AF0008093A7019923A9F08091A70181608093F9
:104B0000A7010FC08091A70183FB222720F991E024
:104B1000922790FB83F9ECCF895301C080E00E947B
:104B2000E12481E0089580E0089580E008950C94E8
:104B30009525CF93C82F8091A801882319F0813043
:104B400031F02BC00E946F21823249F504C00E94CF
:104B50006F21823261F48C2F0E949725811104C04D
:104B60008C2F0E94F82417C081E090E014C08C2F95
:104B70000E94952581110EC0C43149F018F4CB3044
:104B800049F00FC0C93219F0C83321F00AC01092A1
:104B9000A80107C081E0817006C01092A80180E0E2
:104BA00002C080E0F8CFCF9108950E94F7228C01D7
:104BB0000E941D170E9423170E94CC260E94CC162B
:104BC0000E949C288B9A80E0815041F0A895E7EBE9
:104BD000FBE03197F1F700C00000F6CF8B98789496
:104BE000C0E080918602882331F0109286020E94F4
:104BF000F7228C0109C0C8010E940323069710F018
:104C0000C1E0EFCFC111EDCF0E948D2780918C02C2
:104C1000882329F08091770284FD0E942D170E943D
:104C20008026DECF80913B020895CF93DF9300D0A2
:104C30001F92CDB7DEB72091AB013091AC012817A0
:104C4000390789F09093AC018093AB0124E029836C
:104C50009B838A838091A30284FF05C063E0CE0119
:104C600001960E9489270F900F900F90DF91CF91AE
:104C70000895CF93DF9300D01F92CDB7DEB7209178
:104C8000A9013091AA012817390789F09093AA0148
:104C90008093A90123E029839B838A838091A302C7
:104CA00084FF05C063E0CE0101960E9489270F9022
:104CB0000F900F90DF91CF910895CF93DF9300D0A5
:104CC00000D000D0CDB7DEB7FC0182E0898395E04B
:104CD000DE01129601900D929A95E1F78091A30260
:104CE00084FF05C066E0CE0101960E9489272696C2
:104CF0000FB6F894DEBF0FBECDBFDF91CF91089500
:104D0000CF93DF93CAE0D0E08091770284FF18C090
:104D10008091B8019091B9019817E1F028E0829F45
:104D2000C001112468E086549E4F0E94852780911F
:104D3000B80190E001968F7099278093B8010AC05E
:104D40000E948D2787EB9BE00197F1F700C00000E0
:104D50002197D1F6DF91CF910895FC01A091B9017F
:104D6000B0E09D012F5F3F4F2F7033278091B80136
:104D7000821771F083E0AA0FBB1F8A95E1F7A65452
:104D8000BE4F98E001900D929A95E1F72093B901FA
:104D90000E948D270C94802682E790E00895FC0104
:104DA000808180768032B1F58181813041F480EB61
:104DB00091E0909388028093870288E00895823082
:104DC00041F48AE392E0909388028093870281E025
:104DD00008958A3021F4838180933A021BC0893080
:104DE000C9F482819381811522E0920731F4848194
:104DF0009581892B89F482E004C08130934061F46D
:104E000081E08093AF01868197819093AE0180937A
:104E1000AD0102C080E008958FEF0895FC018091FC
:104E2000AD019091AE01892B99F09091AF01913035
:104E300051F0923069F4808180933B021092AE0170
:104E40001092AD0103C08B9A0E94532381E0089514
:104E50008FEF0895FC018381813261F08232D1F0BD
:104E6000823071F585E198E0909388028093870203
:104E70008BE308958281882329F0813009F580E44D
:104E800098E002C087E298E09093880280938702BE
:104E900089E0089584819581009751F0019781F40C
:104EA00080E598E0909388028093870284E80895D3
:104EB00084ED98E0909388028093870280E40895BF
:104EC00080E008951F93CF93DF93162FEA01288186
:104ED00024FF05C0398128E82327298302C02AE559
:104EE0002883FC019E012E5F3F4FD901912F8191B4
:104EF0008D939150E1F7612FC9010E9409051C5F54
:104F00001883DF91CF911F91089547E752E00C94E9
:104F1000622743EA52E00C946227CF93DF936091BB
:104F20008902635067FDB1C080918502CCE0D0E07A
:104F3000C81BD109C357DD4F809184028D3209F01F
:104F400092C0683009F09FC083EC80936C028AE5C0
:104F500080937D0010923C028881807621F0CE0102
:104F60000E94CF266DC09A811092750289818111AD
:104F700006C01092760225E732E082E05CC0853000
:104F800019F490938A0254C08630D1F58B81813018
:104F900041F484E199E0909388028093870282E152
:104FA0002BC0823021F18330F1F4911108C088E5E3
:104FB00099E0909388028093870284E01DC091302D
:104FC00041F482E499E0909388028093870286E11D
:104FD00013C0923081F486E299E090938802809326
:104FE00087028CE109C0813211F0823221F4CE01B6
:104FF0000E942A2701C080E090E490933C0220C0E8
:10500000883079F0893019F490938C0211C08A307D
:1050100059F08B3069F48BE4809378028093A4027A
:1050200007C02CE832E002C025E732E081E003C08F
:1050300025E732E080E0309388022093870209C0A0
:105040008F3F39F4988197FD8E8190E890933C02D0
:1050500007C09F81911104C09E81981708F4892F81
:1050600080937C0010C080913C0287FF0CC0CE0171
:105070000E940E278F3F21F48EE180937D0003C0B4
:10508000811110927C001092890280917D0084FF32
:1050900046C080917C008F3F09F441C0C82F893001
:1050A00008F0C8E08C1B80937C0090916C0288E82B
:1050B000892780936C02CC2329F1809187029091FB
:1050C000880220913C0226FF0AC0ADE6B2E0FC0156
:1050D0002C2F34913D9331962150D9F708C0DC0133
:1050E000EDE6F2E02C2F3D9131932150E1F72FEFC7
:1050F0002C0F30E02F5F3F4F820F931F9093880259
:10510000809387026C2F8DE692E00E940905CC5FA8
:10511000CC3019F08FEF80937C00C0937D0084E148
:1051200090B39C7031F48150D9F710928A0210929A
:105130008302DF91CF91089585B7886085BF8BB7D3
:1051400080688BBFA7E7B2E08BE411968C93119730
:10515000E3EAF2E081838AE58C9380830895AA1BB9
:10516000BB1B51E107C0AA1FBB1FA617B70710F052
:10517000A61BB70B881F991F5A95A9F78095909584
:10518000BC01CD01089597FB072E16F4009407D0BB
:1051900077FD09D00E94AF2807FC05D03EF490951A
:1051A00081959F4F0895709561957F4F0895EE0FFB
:1051B000FF1F0590F491E02D09940F93083090F0B3
:1051C000982F872F762F652F542F432F322F22278A
:1051D0000850F4CF220F331F441F551F661F771F3F
:1051E000881F991F0A95B2F70F9108952A153B055C
:1051F0004C055D056E057F05800791070895FC014C
:105200004150504030F001900616D1F73197CF0150
:105210000895882799270895E199FECF9FBB8EBBFB
:10522000E09A99278DB30895A6E1B0E044E050E0FC
:105230000C945229A8E1B0E042E050E00C945229CD
:10524000262FE199FECF9FBB8EBBE09A01970DB24E
:10525000021631F02DBB0FB6F894E29AE19A0FBE18
:1052600008950396272F0E9421290E942029252F87
:105270000E942129242F0C9421290196272F0E9476
:1052800021290C942029262FE199FECF9FBB8EBBAC
:105290002DBB0FB6F894E29AE19A0FBE01960895DD
:1052A000DC01CB01FC01E199FECF06C0FFBBEEBBE8
:1052B000E09A31960DB20D9241505040B8F70895E2
:0452C000F894FFCF90
:1052C4000501020C0C01191A1B1C1D1E1F20212292
:1052D4009C011226AD265D2639261526FF5A0001AB
:1052E400020202020606060909090909090F0F0F3D
:1052F4000F0F0F1515151819191919191919191945
:045304001923240045
:00000001FF
