:100000000C9408050C944F050C944F050C944F0567
:100010000C944F050C944F050C944F050C944F0510
:100020000C944F050C944F050C94642E0C94362FB1
:100030000C9497240C944F050C944F050C944F0589
:100040000C944F050C944F050C944F050C944F05E0
:100050000C944F050C94FF240C944F050C944F0501
:100060000C944F050C944F050C944F050C944F05C0
:100070000C944F050C944F050C944F050C944F05B0
:100080000C944F050C944F050C944F050C944F05A0
:100090000C944F050C944F050C944F050C944F0590
:1000A0000C944F050C944F050C944F0538073A07F4
:1000B00045073C073E0740074207440747074907F3
:1000C0004B0756074D074F0751075307550758076A
:1000D0002A1A2A1A5C1A5C1A9A1AB81A401C401C6E
:1000E000FA1A401C9D1B9D1B0F1C181C401C391C20
:1000F000AA1BAA1BAA1BAA1BAA1BAA1BAA1BAA1BD8
:10010000AA1BAA1BAA1BAA1BAA1BAA1BAA1BAA1BC7
:10011000BB1BC91BD01BD71BE11BD11CD11CE31C73
:10012000E31CDA1CE31CE31CE31CD11CD11CDF1C08
:10013000E31CE31CDF1CA32FCA2FC230CA2FC2301E
:1001400016303930C23090309F3007634236B79B4B
:10015000D8A71A39685618AEBAAB558C1D3CB7CC27
:100160005763BD6DEDFD753EF6177231BF0000009F
:10017000803F05A84CCDB2D44EB93836A9020C50F8
:10018000B9918688083CA6AAAA2ABE000000803F32
:1001900065736347725F66696E69736865640000C2
:1001A000F000571E001F0020002100220023002421
:1001B000002500260027002D002E002A002A002BF3
:1001C00000000014001A000800150017001C001899
:1001D000000C00120013002F003000310029000035
:1001E0000004001600070009000A000B000D000EB5
:1001F000000F003300340028000000E10001001D62
:10020000001B000600190005001100100036003721
:10021000003872000052004C00E000E3000000E2F1
:10022000002C000000015100002C000000E400013F
:1002300051500051004F0029003A003B003C003D66
:10024000003E003F004000410042004300AA00A9D8
:1002500000A6004C00010000000100010052000156
:100260000001000100010052000100010001000135
:1002700000005C390000004A00500051004F0001AE
:10028000004A00500051004F004D000100010000E5
:100290000001000100010001000100BB5CBD5CBC6D
:1002A0005C010001000100010000004B00010001A1
:1002B0000001000000010028000000010000000112
:1002C000000000010001004A004E004D004445427C
:1002D00055473A20656E61626C65642E0A000A001B
:1002E0002530313662003A200025303258000A723B
:1002F0002F63203031323334353637383941424379
:100300004445460A0054494D45523320646973619F
:10031000626C65642E0A0054494D45523320656E67
:1003200061626C65642E0A007267626C696768744A
:100330002073657420687376205B4E4F454550529C
:100340004F4D5D3A2025752C25752C25750A0072B8
:1003500067626C69676874207365742068737620BF
:100360005B454550524F4D5D3A2025752C25752C27
:1003700025750A007267626C69676874207261692A
:100380006E626F7720736574206873763A202575E6
:100390002C25752C25642C25750A007267626C6902
:1003A0006768742064697361626C65205B454550C1
:1003B000524F4D5D3A207267626C696768745F6383
:1003C0006F6E6669672E656E61626C65203D2025E3
:1003D000750A007267626C6967687420656E616295
:1003E0006C65205B454550524F4D5D3A2072676207
:1003F0006C696768745F636F6E6669672E656E61AE
:10040000626C65203D2025750A007267626C696721
:10041000687420746F67676C65205B454550524F68
:100420004D5D3A207267626C696768745F636F6ED6
:100430006669672E656E61626C65203D2025750AD0
:10044000007267626C69676874206D6F6465205B19
:100450004E4F454550524F4D5D3A2025750A00726A
:1004600067626C69676874206D6F6465205B4545E1
:1004700050524F4D5D3A2025750A007267626C69D3
:100480006768745F696E6974207267626C69676817
:10049000745F636F6E6669672E6D6F6465203D20C3
:1004A000302E2057726974652064656661756C74BE
:1004B0002076616C75657320746F20454550524FEE
:1004C0004D2E0A007267626C696768745F696E69B5
:1004D00074206565636F6E666967206973206E6F4F
:1004E0007420656E61626C65642E0A007267626CCE
:1004F000696768745F696E697420737461727421CE
:100500000A007267626C696768745F696E6974205B
:1005100063616C6C65642E0A007267626C6967685F
:10052000745F636F6E6669672E7370656564203DE6
:100530002025640A007267626C696768745F636F84
:100540006E6669672E76616C203D2025640A007214
:1005500067626C696768745F636F6E6669672E7344
:100560006174203D2025640A007267626C696768C7
:10057000745F636F6E6669672E687565203D202520
:10058000640A007267686C696768745F636F6E669F
:1005900069672E6D6F6465203D2025640A007267CF
:1005A000626C696768745F636F6E6669672E656EFB
:1005B00061626C65203D2025640A007267626C6987
:1005C0006768745F636F6E666967206570726F6DD0
:1005D0000A0000046801F000B40078005A007F3F70
:1005E0001F643214643214783C1E1E140A05000085
:1005F00000000001010101010101010102020202EA
:1006000002020202020303030303030303040404BC
:100610000404040505050505060606060607070782
:1006200007080808080909090A0A0A0A0B0B0B0C33
:100630000C0C0D0D0D0E0E0F0F0F101011111112CD
:100640001213131414151516161717181819191A4A
:100650001A1B1C1C1D1D1E1F1F20202122222324AB
:10066000252526272728292A2B2B2C2D2E2F2F30E6
:10067000313233343536363738393A3B3C3D3E3FFC
:100680004041424344464748494A4B4C4D4F5051E4
:100690005253555657585A5B5C5E5F60626364669E
:1006A00067696A6C6D6E707173747678797B7C7E25
:1006B0008081838486888A8B8D8F91929496989A74
:1006C0009B9D9FA1A3A5A7A9ABADAFB1B3B5B7B98A
:1006D000BBBDBFC1C4C6C8CACCCFD1D3D6D8DADC63
:1006E000DFE1E4E6E8EBEDF0F2F5F7FAFCFF0A00F3
:1006F0002530325820006B6579626F6172645F72D9
:1007000065706F72743A20000A0025303258006B11
:100710006579626F6172645F7365745F6C65643A7A
:10072000200064656C5F6B65795F6269743A206371
:10073000616E27742064656C3A20253032580A00B7
:100740006164645F6B65795F6269743A2063616EAE
:100750002774206164643A20253032580A00290A3F
:10076000002575002F002575005D280025640020F8
:1007700000256400200025640020002564007C0022
:1007800025303258006D6F7573656B6579205B623B
:10079000746E7C782079207620685D287265702FD1
:1007A00061636C293A205B006261636B6C69676806
:1007B0007420737465703A2025750A006261636B5A
:1007C0006C6967687420746F67676C653A2025757B
:1007D0000A006261636B6C696768742064656372A8
:1007E000656173653A2025750A006261636B6C6907
:1007F00067687420696E6372656173653A20257558
:100800000A005B735D004B6579626F6172642073EF
:10081000746172742E0A005B575D005B535D005B70
:10082000525D005B445D005B435D000403300000EB
:10083000000A0344005A0036003000000010034B49
:100840000042004400460061006E00730000000496
:1008500003090409028D00050100A0FA0904000043
:1008600001030101000921110100012240000705D7
:10087000810308000A0904010001030102000921A3
:1008800011010001224D000705820308000A090436
:1008900002000103000000092111010001223600BD
:1008A0000705830308000A0904030002030000008F
:1008B0000921110100012222000705840320000103
:1008C00007050403200001090404000103000000DF
:1008D00009211101000122390007058503200001CB
:1008E0001201100100000008EDFE6022010001026B
:1008F000030105010906A101050719E029E7150013
:10090000250195087501810205081901290595053C
:10091000750191029501750391010507190029F7E9
:100920001500250195F875018102C00631FF097493
:10093000A1010975150026FF00952075088102099F
:1009400076150026FF00952075089102C005010963
:1009500080A10185021601002603001A81002A8366
:1009600000751095018100C0050C0901A1018503E6
:10097000160100269C021A01002A9C02751095019E
:100980008100C005010902A1010901A100050919A1
:10099000012905150025019505750181029501754F
:1009A0000381010501093009311581257F95027503
:1009B00008810609381581257F950175088106058E
:1009C0000C0A38021581257F950175088106C0C083
:1009D00005010906A101050719E029E71500250110
:1009E00095087501810295017508810105081901B5
:1009F000290595057501910295017503910105077A
:100A0000190029FF150026FF00950675088100C012
:100A100011241FBECFEFDAE0DEBFCDBF04B603FE68
:100A200027C08091C9029091CA02A091CB02B091D7
:100A3000CC028730904BA740B04BD1F41092C90242
:100A40001092CA021092CB021092CC0214BE84B74C
:100A5000877F84BF0FB6F894A89580916000886165
:100A600080936000109260000FBEE0E0F8E309950B
:100A700011E0A0E0B1E0ECE1FAE602C005900D92D1
:100A8000AA35B107D9F722E0AAE5B1E001C01D926D
:100A9000A93CB207E1F70E94832B0C940C350C940F
:100AA0000000FF93EF93E0915A01F0915B013097C2
:100AB00009F00995EF91FF910895FC01859180302F
:100AC00011F0EFDFFBCF0895FF27E0E230E247FFB0
:100AD0000CC0419597FF09C0EDE260957095809537
:100AE0009095611D711D811D911D27FF02C02195EB
:100AF00030E350E2AA27660F771F881F991FAA1FAD
:100B0000A41710F0A41B63955A95A9F7AA3008F012
:100B1000A95FA05DAF93F3956115710581059105FE
:100B200041F7ED3211F4EF93F395F21718F43F9378
:100B3000F395FBCF8F91B5DFFA95E1F70895E99131
:100B4000F9918591803021F0853219F0AADFF9CF33
:100B5000089520E0E89455915532C1F3503311F4D3
:100B6000689455915A3348F4505390F3220F022E53
:100B7000220F220F200D250FF4CF0EF4219589911D
:100B80009991533619F3533729F1533559F1BC0173
:100B900088279927E8945C3621F489919991689483
:100BA0005591543639F446EF7EF077FF0DC08FEF44
:100BB0009FEF0AC055374AE039F0583540E121F03F
:100BC000523642E009F00895FF93EF937DDFEF91F5
:100BD000FF91B7CFFF93EF93FC0181918030B9F380
:100BE00060DFFBCFFF93EF9368DFF1CFDF93CF930D
:100BF000CDB7DEB72596A3DFCF91DF910895809121
:100C00001501909116018130910521F0029729F488
:100C100085E301C089E20E948819109216011092A2
:100C200015010895FC018081813049F4878181118B
:100C300009C08085882331F082E090E0089588E043
:100C400090E0089581E090E00895CF93DF93EC0168
:100C500080914D0280FF08C080E991E09F938F93BF
:100C60000E94F6050F900F90CE010E9412069093FD
:100C70001601809315018130910521F0029739F416
:100C800085E301C089E2DF91CF910C949118DF9147
:100C9000CF9108950C949A0C229A2A9A08950E9452
:100CA0009B0C0C944C060C94AF09CF93DF9361110D
:100CB0001FC0EC010E94EB22282F22723A81809102
:100CC0001A0190911B01332341F0222311F065E3B7
:100CD00001C069E20E941E2407C0222311F065E3CF
:100CE00001C069E20E942924DF91CF910C94B822BF
:100CF000DF91CF91089581E0089581E008950C94EB
:100D00007D060E94BD1C2FEF84E39CE021508040B3
:100D10009040E1F700C000000C942525FF920F934E
:100D20001F93CF93DF938C01FC01C081D18180910F
:100D3000B501811113C08281882349F0CE010E9440
:100D40001A22F82E682FCE010E94C32104C0CE01C2
:100D50000E94EE21F82EBE018F2D04C0CE010E940C
:100D60001A22BE010E94B509EC01B8010E94DE15ED
:100D7000B801CE010E947F06882309F477C2B8012A
:100D8000CE010E942316882309F470C2B801CE0157
:100D90000E944B0C882309F469C2C93CFCE5DF07BB
:100DA00041F4F8018281882309F460C20E94160F81
:100DB0005DC2CA3C8CE5D80708F017C1C13C9CE570
:100DC000D90761F4F8018281882309F44FC20E9497
:100DD000EB228272F1F00E94D61148C2C23CECE5CF
:100DE000DE07D0F0F8018281C53CFCE5DF0709F49D
:100DF000D1C008F0E1C0C33CECE5DE0709F4D0C087
:100E000008F0D4C0882309F431C20E94EB22827218
:100E100011F30E94CC112AC2C531FCE5DF0708F0AE
:100E200082C0C2308CE5D80708F452C0F801828134
:100E3000882309F459C00E947A23811102C00E94BC
:100E400054230E948D2390E09093BA028093B902BC
:100E5000FE01E350FC45E231F10530F4EA5AFF4F60
:100E60008091B9020C94A4348091B902816027C0AA
:100E7000826025C0846023C0806121C080621FC061
:100E800080641DC080681BC08460886018C08E7F2D
:100E900016C08D7F14C08B7F12C08F7E10C08F7DD7
:100EA0000EC08F7B0CC08F770AC08B7F877F07C0F7
:100EB00087FB222720F991E0922790FB87F9809306
:100EC000B9028091B9020E9491230E94BD1CCEC13B
:100ED000C1159CE5D90781F0C130DC45A9F081E05E
:100EE0008093610180936201C801DF91CF911F91CE
:100EF0000F91FF900C947B06F8018281882309F4FE
:100F0000B5C10E948106B2C1F8018281882309F42B
:100F1000ADC180914D02816080934D028DEC92E0D5
:100F20000E945D05A3C1C531FCE5DF0739F50E94CC
:100F3000EB22982FF801828120911A0130911B0138
:100F4000882379F09A7A81E009F480E080935C014B
:100F5000911102C069E201C065E3C9010E941E242B
:100F60000AC080915C01811102C069E201C065E3A1
:100F7000C9010E9429240E94B82278C1C03CDC45E6
:100F800009F0ADCFF8018281882309F46FC10E9476
:100F900086126CC1882309F469C10E94D91066C108
:100FA000882309F463C10E94A21060C1882309F458
:100FB0005DC10E94BA105AC1C73C9CE5D90731F403
:100FC000882309F453C10E940E1150C1C83CDC456E
:100FD00030F4882309F44AC10E94F41047C18823E1
:100FE00009F444C10E94291141C1C13DFCE5DF075C
:100FF00049F4F8018281882309F438C188E10E940C
:10100000C91134C1C23D8CE5D80708F087C0F8018A
:101010008281CD3CFCE5DF07A1F4882309F426C1D9
:101020000E94080F663071058105910540F00E940D
:10103000080F683071058105910508F4EACE86E055
:10104000DECFCE3C9CE5D90730F5CB3CECE5DE07A6
:1010500029F4882309F40AC181E0D1CFCC3CDC45D6
:1010600030F4882309F402C10E942B0FFFC08823AB
:1010700009F4FCC00E94080F6230710581059105DA
:1010800040F00E94080F653071058105910508F454
:10109000C0CE82E0B4CFCF3C9CE5D907A1F4882331
:1010A00009F4E4C00E94080F6F30710581059105B5
:1010B00040F00E94080F643171058105910508F424
:1010C000A8CE8FE09CCFC03DDC45A0F4882309F476
:1010D000CDC00E94080F693071058105910540F06F
:1010E0000E94080F6E3071058105910508F491CEBC
:1010F00089E085CF882309F4B9C00E94080F6531C3
:1011000071058105910540F00E94080F6731710556
:101110008105910508F47DCE85E171CFC53DFCE5E3
:10112000DF0739F5F8018281882361F010926201AE
:101130000E94C9249093600180935F0180E20E9425
:10114000E71994C08091620181110FC080915F0105
:10115000909160010E94D524883C910530F487E28B
:101160000E94911887E20E94881980E20E94EE197D
:101170007DC0C63D8CE5D80708F043C0F8018281E8
:10118000C33DFCE5DF0729F4882309F46FC083E23F
:1011900036CFC43DDC45A0F4882309F467C00E9423
:1011A000080F693171058105910540F00E94080F13
:1011B000623271058105910508F42BCE89E11FCFBC
:1011C000882351F0109261010E94C92490935E011E
:1011D00080935D0182E0B3CF8091610181110FC0E6
:1011E00080915D0190915E010E94D524883C91051B
:1011F00030F486E20E94911886E20E94881982E00B
:10120000B5CFC93DECE5DE0731F4F80182818823D2
:1012100069F180E009C0CA3DFCE5DF0741F4F8014F
:101220008281882319F182E00E942B2C1FC0C63DC9
:10123000DC4509F054CEF8018281811177CF80918D
:101240006201811192CF80915F01909160010E94B3
:10125000D524883C910508F088CF80E20E94EE19E1
:1012600088E20E94911888E20E94881980E0DF914C
:10127000CF911F910F91FF9008950E947F160C94BB
:101280004A06CF92DF92EF92FF92863030F48111BE
:1012900005C0909180009F7D04C085E09091800002
:1012A000906290938000282F30E0AFEFBFEF0E9454
:1012B000AA3425E030E040E050E00E948234C901C9
:1012C0002C3764E1360728F469E070E00E945A3454
:1012D00029C0DA01C9018A50974DAF4FBF4F662729
:1012E000782F892F9A2F25EF38E241E050E00E94B5
:1012F000823469017A01CA01B9010E943E349B011E
:10130000AC01C701B6010E943E34BB27A92F982F1C
:10131000872F009721E0A207B10511F0BC0102C0A0
:101320006FEF7FEF70938B0060938A00FF90EF90D8
:10133000DF90CF900895269A2E9882E280938000C5
:1013400089E1809381008FEF9FEF909387008093D6
:1013500086000C9401280E949B090C944F06089566
:101360000C94530680E090E008952BE4829FC00126
:101370001124FC012FE0729FE00DF11D1124E60FF6
:10138000F11DEE0FFF1FEF55FE4F859194910895CB
:10139000880F991FFC01E156FE4F859194910895A5
:1013A000CF93DF930E94B5090E94AB0BEC0181152E
:1013B00021E5920708F042C0811540E5940708F046
:1013C0001CC1883E910500F5803E910508F0BFC123
:1013D000883A910570F4853A910508F099C08130FA
:1013E000910509F4B4C108F46BC1049708F0AFC1CA
:1013F00067C18D3B910508F496C0803C910508F4C7
:101400005FC1805C9109E8C0C11580E3D80780F412
:10141000C11520E2D20708F0DDC0C03FD10508F4B5
:101420004FC1CF3FD10511F008F091C1D0658FC1F8
:10143000C11540E4D40708F0DDC0D2C0C11589E56C
:10144000D80740F5C11528E5D20708F023C1C1151A
:1014500044E5D40778F4C11583E5D80708F0FFC048
:10146000C11522E5D20708F0E4C0DC2FCC27C16FFC
:10147000D06A6DC1C11545E5D40708F406C1C11590
:1014800086E5D80708F01CC1CF71DD27DC2FCC27FB
:10149000D0625DC1CB3B2CE5D20709F408C1C0F492
:1014A000C93B8CE5D80709F4FCC008F0FDC0C115A4
:1014B0004AE5D40708F004C1CE0124E0969587954B
:1014C0002A95E1F78F70CF70C06ED0E0D06AE7C088
:1014D000CE3B8CE5D80709F4F0C060F4CC3B4CE57A
:1014E000D40709F4E7C0CD3BDC4509F0E9C0C0E012
:1014F000D2ED2DC1CE0190568115904208F0E0C08A
:101500008D2F8F710E94270CDD27D0628F71C7C08D
:10151000853A910509F4D7C0863A910509F0D6C0FD
:10152000C2E8D0E414C1883A910509F4D2C0893ADE
:10153000910509F4D1C08A3A910509F4D0C08B3ADB
:10154000910509F4CFC08C3A910509F4CEC08B3BCC
:10155000910509F4CDC08C3B910509F4CCC08D3ABE
:10156000910509F4CBC0803B910509F4CAC08E3ABD
:10157000910509F4C9C08F3A910509F4C8C0813BAF
:10158000910509F4C7C0823B910509F4C6C0833BAD
:10159000910509F4C5C0843B910509F4C4C0853B9D
:1015A000910509F4C3C0863B910509F4C2C0873B8D
:1015B000910509F4C1C0883B910509F4C0C0893B7D
:1015C000910509F4BFC08A3B910509F4BEC0C0E093
:1015D000D4E4BDC0CE019F700E94C809EC01B7C021
:1015E000CE019927D3FF03C0EC01D86CB0C0EC0149
:1015F000D06CADC0DF70D06AAAC074E096958795B4
:101600007A95E1F7282F23703C2F337081E090E02A
:1016100002C0880F991F3A95E2F79C68922BCF7011
:10162000C695C69540E2C49FE0011124C82BD92B72
:101630008EC0CE018370992721E030E002C0220FD6
:10164000331F8A95E2F78C2F8695869540E2849F1A
:10165000C0011124E901C82BD92BDC6878C0CE0168
:101660008370992721E030E002C0220F331F8A9552
:10167000E2F78C2F8695869540E2849FC001112465
:10168000E901C82BD92BDA6862C0DC2FCC27C46FE4
:10169000D06A5DC0DC2FCC27C06FD06A58C0D82B71
:1016A00056C0C0E0D4ED53C0C0E0D5ED50C0C0E09E
:1016B000D1ED4DC0C0E0D0ED4AC0C0E0D3ED47C091
:1016C000C0E0D0E044C0C1E8D0E441C0C3E8D0E409
:1016D0003EC0C2EED4E43BC0C9EED4E438C0CAEE8A
:1016E000D4E435C0C5EBD4E432C0C6EBD4E42FC09B
:1016F000C3EBD4E42CC0C4EBD4E429C0C7EBD4E4DE
:1017000026C0CCECD4E423C0CDECD4E420C0C3E8A4
:10171000D5E41DC0CAE8D5E41AC0C2E9D5E417C0B3
:10172000C4E9D5E414C0C1E2D6E411C0C3E2D6E4F2
:101730000EC0C4E2D6E40BC0C5E2D6E408C0C6E2DF
:10174000D6E405C0C7E2D6E402C0CAE2D6E4CE01C0
:10175000DF91CF9108958238910549F1B0F481333A
:10176000910509F459C048F48932910509F44FC034
:101770008A32910509F455C008958533910509F41D
:1017800041C08933910599F00895833E910531F167
:1017900038F4803E910591F0823E9105A9F00895BC
:1017A000863E910501F1873E910539F1089520911A
:1017B000B90220FD3BC021FD39C008958091B902D6
:1017C00080FF34C089E341C08091B90282FF30C0FC
:1017D0008091B90284FD2EC083EE37C08091B9029A
:1017E00082FD26C0F5CF8091B90283FF25C080918C
:1017F000B90284FD1FC087EE28C08091B90283FD25
:101800001BC0F5CF8091B90285FD18C019C0809129
:10181000B90285FD15C012C08091B90286FD12C0C3
:1018200013C08091B90286FD0FC00CC080EE0DC0C0
:1018300082EE0BC080E009C086EE07C089E205C0D9
:1018400085E303C08AE201C081E390E008959091AE
:10185000B90292FF0DC0282F2871283019F4877F14
:10186000846006C0282F2471243011F48B7F886097
:1018700093FF0DC0282F2871283119F4877E8461C9
:1018800006C0282F2471243111F48B7E886194FDC9
:10189000877E089508950F931F93CF93FB012281B4
:1018A000211102C0C1E041C08C01C0917001C11181
:1018B00025C086319C45B1F70E944A0C81E0809397
:1018C00070010E94C92490936F0180936E01109261
:1018D00063011092650110926401109267011092E9
:1018E0006601109269011092680110926B011092CA
:1018F0006A0110926D0110926C0117C080916E0107
:1019000090916F010E94D5248C32914058F69091AD
:101910006301E92FF0E0EE0FFF1FEC59FE4F11833A
:1019200000839F5F90936301C0E08C2FCF911F9144
:101930000F91089508950C949A0CCF93DF93ACE324
:10194000B1E041E451E061E070E08D91E82FE29573
:10195000EF70F0E021A18F70EB0102C0CC0FDD1F12
:101960008A95E2F7CE019C2F9095922391A392A1A4
:10197000892B82A34A175B0741F7ADE2B1E04CE344
:1019800051E061E070E08D91E82FE295EF70F0E0BA
:1019900021A18F70EB0102C0CC0FDD1F8A95E2F709
:1019A000CE019C2F9095922391A392A1892B82A383
:1019B0004A175B0741F7EBE7F1E0A1E7B1E085E803
:1019C00091E0119211921D921D928E179F07C9F7F7
:1019D000DF91CF910C94AB092F923F924F925F927F
:1019E0006F927F928F929F92AF92BF92CF92DF922F
:1019F000EF92FF920F931F93CF93DF932CE3C22EAE
:101A000021E0D22E01E711E0E801EE24E394F12C6D
:101A1000662463945E018880998019821882D601B9
:101A20008D916D01E82FE295EF70F0E021A18F70AC
:101A3000A70102C0440F551F8A95E2F7CA01242B63
:101A400021A322A1742E7094272122A350EA5A9533
:101A5000F1F79DE2292E91E0392E20E030E0D1010E
:101A60005D901D01452D42954F7050E0DA01909632
:101A70004C9068817981552D5F70D70102C0AA0F03
:101A8000BB1F5A95E2F7AD01442141F4A701022E94
:101A900002C0440F551F0A94E2F702C040E050E034
:101AA000462B572B598348832F5F3F4F2F303105EB
:101AB000B1F691A1792271A292A1892B82A32296DB
:101AC000F501808191818816990641F06092850127
:101AD0000E94C9249093870180938601F1E0CB375F
:101AE000DF0709F097CF809185018823B1F08091BD
:101AF0008601909187010E94D524069770F0EBE74C
:101B0000F1E0D8018D919D918D0181939193B1E088
:101B10000B371B07B1F7109285010E943D0981E048
:101B2000DF91CF911F910F91FF90EF90DF90CF90B9
:101B3000BF90AF909F908F907F906F905F904F90ED
:101B40003F902F900895E82FF0E0EE0FFF1FE5582B
:101B5000FE4F808191810895CF92DF92EF92FF92A4
:101B60000F931F93CF93DF938EEE92E00E945D055B
:101B70008BE7E82E81E0F82EC0E0D0E099EEC92E88
:101B800092E0D92E00EE12E0DF93CF93DF92CF9256
:101B90000E94F60586EE92E00E945D05F7018191B4
:101BA00091917F010E9441239F938F931F930F93E5
:101BB0000E94F6058EED92E00E945D0521968DB79C
:101BC0009EB708960FB6F8949EBF0FBE8DBFC53066
:101BD000D105D1F6DF91CF911F910F91FF90EF903A
:101BE000DF90CF900895EF92FF920F931F93CF93C2
:101BF000DF93E901662309F44BC0242F30E0EFEFB7
:101C0000F0E0E61BF109B901E69F9001E79F300D76
:101C1000F69F300D1124232F8B01031B11095CE368
:101C2000E52EF12CB7010E945A34FB01BC01069F3E
:101C3000C001079F900D169F900D1124B7010E94BF
:101C40005A34E230F105B1F040F4309779F0319731
:101C500011F5832F242F461B21C0E430F105A1F09C
:101C600068F03597C1F4842F861B18C0832F262F68
:101C7000230F14C0862F830FE42F03C0E42FE61B2D
:101C8000842F432F2E2F0AC0842F462F430F06C0C8
:101C9000842F242F03C080E020E040E0E42FF0E018
:101CA000E251FA4F4491E22FF0E0E251FA4F949161
:101CB000E82FF0E0E251FA4FE49149839883EA83F8
:101CC000DF91CF911F910F91FF90EF90089588E0E1
:101CD00090E00C94CC34AB01BC0188E090E00C9413
:101CE000EA34EEE7F2E083E0808310927F028FEF28
:101CF00082838383148260817181828193810C94B9
:101D00006B0E80914D0280FF08C08BEB95E09F9396
:101D10008F930E94F6050F900F9080914D0280FFE7
:101D20000FC080917E0281701F928F938EE995E0A3
:101D30009F938F930E94F6050F900F900F900F9036
:101D400080914D0280FF10C080917E0286958F7336
:101D50001F928F9383E895E09F938F930E94F605DF
:101D60000F900F900F900F9080914D0280FF19C03F
:101D700080917E02881F8827881F90917F02292FDB
:101D8000220F822B97FB992790F99F938F9389E6D7
:101D900095E09F938F930E94F6050F900F900F9000
:101DA0000F9080914D0280FF0EC0809180021F92A3
:101DB0008F938FE495E09F938F930E94F6050F9089
:101DC0000F900F900F9080914D0280FF0EC0809178
:101DD00081021F928F9385E395E09F938F930E94DA
:101DE000F6050F900F900F900F9080914D0280FF9D
:101DF0000EC0809182021F928F9389E195E09F939C
:101E00008F930E94F6050F900F900F900F900895FA
:101E100060917E0260FF06C066956F7370E080E09F
:101E200090E0089560E070E0CB0108958091820217
:101E300090E001968430910514F083E090E0809367
:101E4000820260917E0270917F0280918002909167
:101E500081020C946B0E8091820290E0019797FFB3
:101E600002C080E090E08430910514F083E090E0BF
:101E70008093820260917E0270917F028091800245
:101E8000909181020C946B0E80917E0280FF06C0BF
:101E900060E170E083E892E00C947B15E3E8F2E007
:101EA000118210821282339682E0E33BF807C1F779
:101EB000EFCF90917E0290FF0CC0E3E8F2E08183C7
:101EC00060834283339692E0E33BF907C1F70C94B9
:101ED000440F0895CF93DF9300D01F92CDB7DEB7A4
:101EE00020917E0220FF0AC09E012F5F3F4F0E947B
:101EF000F30D4B8169818A810E94590F0F900F90D9
:101F00000F90DF91CF9108952F923F924F925F9261
:101F10006F927F928F929F92AF92BF92CF92DF92F9
:101F2000EF92FF920F931F93CF93DF93CDB7DEB75E
:101F300027970FB6F894DEBF0FBECDBF8C01462E9B
:101F4000542E2F8380917E0280FFE0C0982F9E77D1
:101F5000923061F49E012F5F3F4FC8010E94F30D44
:101F60004B8169818A810E94590F83C0E82FE695D1
:101F7000EF739EE39E0F9F73943018F4509081028C
:101F800078C09AE39E0F9F73993068F4881F882762
:101F9000881F90917F02292F220F022F082B97FB79
:101FA000112710F966C087E28E0F8F738A3008F010
:101FB00060C0F0E07997E0FD03C021E02C8302C00F
:101FC0003FEF3C83EE7FEC52FA4F85909490C40132
:101FD00024E0969587952A95E1F72C81622E220FB1
:101FE0007708869D9001879D300D969D300D1124B8
:101FF0003E832D83580138E9A31A3EEFB30A33E834
:10200000C32E32E0D32EE12CF12CC50168E671E03D
:102010000E945A341C0180914D0280FF14C09F928F
:102020008F927F928C818F933F922F92FF92EF92AB
:1020300024E733E03F932F930E94F6050FB6F89400
:10204000DEBF0FBECDBF9601452D642DC1010E949C
:10205000F30D3FEFE31AF30A8D819E81A80EB91E9E
:1020600093E0C90ED11C20E1E216F10471F60E9442
:10207000440F80917E0200FB87F980937E0280915D
:102080007F028078902F9695892B10FB87F980939B
:102090007F0240928002509281023F81332321F1DE
:1020A00060917E0270917F02809180029091810206
:1020B0000E946B0E809181021F928F93809180020B
:1020C0001F928F9380917E02881F8827881F90918E
:1020D0007F02292F220F822B97FB992790F99F933C
:1020E0008F938FE493E009C01F925F921F924F92EB
:1020F00011701F930F9388E293E09F938F930E9438
:10210000F6050FB6F894DEBF0FBECDBF27960FB60B
:10211000F894DEBF0FBECDBFDF91CF911F910F911D
:10212000FF90EF90DF90CF90BF90AF909F908F90F7
:102130007F906F905F904F903F902F90089521E097
:102140000C94840FEEE7F2E02081221F2227221F49
:1021500030917F02432F440F842F822B37FB992726
:1021600090F9089668E671E00E946E3443816281BE
:102170000C949F1020917E02221F2227221F309153
:102180007F02432F440F842F822B37FB992790F92E
:10219000883091051CF4805A9E4F05C0089768E668
:1021A00071E00E946E3440918102609180020C9433
:1021B0009F1060918002862F90E0883F910514F473
:1021C000685F01C06FEF80917E02881F8827881F9B
:1021D00090917F02292F220F97FB992790F9409128
:1021E0008102822B0C949F1060918002862F90E0D8
:1021F000089714F0685001C060E080917E02881F4B
:102200008827881F90917F02292F220F97FB9927FB
:1022100090F940918102822B0C949F104091810291
:10222000842F90E0883F910514F4485F01C04FEF80
:1022300080917E02881F8827881F90917F02292F16
:10224000220F97FB992790F960918002822B0C94C2
:102250009F1040918102842F90E0089714F048501D
:1022600001C040E080917E02881F8827881F9091DE
:102270007F02292F220F97FB992790F96091800206
:10228000822B0C949F1020E00C94840F81E08093AB
:10229000A10180914D0280FF08C087E193E09F93E8
:1022A0008F930E94F6050F900F9008951092A10150
:1022B00080914D0280FF08C085E093E09F938F934B
:1022C0000E94F6050F900F90089590917E0290FF66
:1022D0005FC09178811102C0926007C0843210F013
:1022E000966403C08F73880F982B90937E026623A9
:1022F00099F060917E0270917F02809180029091AE
:1023000081020E946B0E80917E0286958F731F92D0
:102310008F938FE594E008C080917E0286958F733D
:102320001F928F9381E494E09F938F930E94F60510
:102330000F900F900F900F9080917E02282F2E7794
:10234000223019F40E94561110C086958F739EE3B7
:10235000980F9F73973110F0263419F40E9446119C
:1023600004C0895D8F738A3068F380917E02881F74
:102370008827881F90917F02292F220F97FB99278A
:1023800090F94091810260918002822B0C9443115C
:10239000089561E00C94651180917E0286958F739B
:1023A0008F5F843208F081E00C94C91180917E0225
:1023B00086958F73815009F483E20C94C911CF93F1
:1023C000DF93CEE7D2E08881816088831F9281E02D
:1023D0008F9383ED93E09F938F930E94F6050F9068
:1023E0000F900F900F90888186958F73DF91CF911A
:1023F0000C94C91160E00C94651180914D028160CC
:1024000080934D0282E095E09F938F930E94F605A2
:1024100080914D020F900F9080FF08C08CEE94E0E9
:102420009F938F930E94F6050F900F900E947A233E
:10243000811110C080914D0280FF08C084EC94E0AF
:102440009F938F930E94F6050F900F900E94542344
:102450000E94710E0E94670E60937E0270937F024D
:1024600080938002909381026E77C1F480914D0237
:1024700080FF08C08BE794E09F938F930E94F6053E
:102480000F900F900E94710E0E94670E60937E0263
:1024900070937F0280938002909381020E94810E4C
:1024A00081E08093A10180917E0280FF04C0869527
:1024B0008F730C94FA110895CF93DF93CEE7D2E097
:1024C00088818E7F8883688179818A819B810E943F
:1024D0006B0E888181701F928F938BE993E09F939D
:1024E0008F930E94F6050E9456112FEF80E792E02D
:1024F000215080409040E1F700C000000F900F9005
:102500000F900F90DF91CF910C94440F80917E0239
:10251000809581701F928F938AE094E09F938F93B0
:102520000E94F60580917E020F900F900F900F9001
:1025300080FD0C945C120C94DF11CF93C82F809116
:102540009F019091A0010E94D524EC2FF0E0E6516C
:10255000FA4FE491F0E08E179F0708F443C00E9401
:10256000C9249093A00180939F0160919E0170E027
:1025700080E090E00E943F3220E030E04FE753E4FB
:102580000E9462312BED3FE049E450E40E94683341
:102590000E94D5330E94DC312BE43AE34EE25FE344
:1025A0000E94F53020EF3BEF48ED52E40E94683383
:1025B0000E940E32462F80917E02881F8827881F36
:1025C00090917F02292F220F97FB992790F9609114
:1025D0008002822B0E946A0F80919E0190E00196FA
:1025E00080939E01CF910895CF93C82F80919C0135
:1025F00090919D010E94D524EC2FF0E0E951FA4F13
:10260000E491F0E08E179F07E8F00E94C9249093B0
:102610009D0180939C014091810260918002809194
:102620009A0190919B010E946A0F80919A0190916A
:102630009B01019668E671E00E945A3490939B01D9
:1026400080939A01CF910895CF92DF92FF920F93DA
:102650001F93CF93DF93F82E809198019091990169
:102660000E94D524EF2DE695F0E0EC51FA4FE4916D
:10267000F0E08E179F07C0F10E94C9249093990142
:102680008093980103E812E0C0E0D0E088E6C82E0D
:10269000DD24D39480919601909197018C0F9D1F1A
:1026A000B6010E945A3498014091810260918002E3
:1026B0000E94F30D66960D5F1F4FC03681E0D8076C
:1026C00049F70E94440F8091960190919701F0FE86
:1026D00006C0019668E671E00E945A3401C0019775
:1026E0009093970180939601DF91CF911F910F9165
:1026F000FF90DF90CF900895CF92DF92EF92FF92FC
:102700000F931F93CF93DF93C82F80FF02C01FEF5B
:1027100001C011E080919401909195010E94D5240F
:10272000C695EC2FF0E0EF51FA4FE491F0E08E17F0
:102730009F0708F458C00E94C92490939501809384
:102740009401C3E8D2E0E12CF12C198218821A829C
:1027500094E0C92ED12C00E080919301800F87FD79
:10276000805F082E000C990BE816F906E9F48091B9
:1027700081028C9DA0018D9D500D1124559547958A
:102780005595479580917E02881F8827881F9091D4
:102790007F02592F550F97FB992790F99E01609161
:1027A0008002852B0E94F30D010F81E0C81AD10829
:1027B00099F68FEFE81AF80A239680E1E816F104FB
:1027C00021F60E94440F80919301113031F4811160
:1027D00002C08FE006C0815004C090E001968F7067
:1027E000992780939301DF91CF911F910F91FF90D3
:1027F000EF90DF90CF9008950F931F93CF93DF93C7
:10280000C82F80919101909192010E94D524EC2FC4
:10281000F0E0E252FA4FE491F0E08E179F0708F4DF
:1028200056C00E94C9249093920180939101C3E8FD
:10283000D2E0FE01118210821282339682E0E33BE5
:10284000F807C1F700E010E080919001082E000C1D
:10285000990B08171907ECF080911801082E000C4D
:10286000990B80179107ACF080917E02881F882712
:10287000881F90917F02592F550F97FB992790F948
:102880009E014091810260918002852B0E94F30D90
:1028900003C0198218821A820F5F1F4F23960031DE
:1028A000110591F60E94440F8091170190919001BB
:1028B000980F9093900120911801280F20931801F0
:1028C000121614F49F301CF0819580931701DF914C
:1028D000CF911F910F910895EF92FF920F931F9345
:1028E000CF93DF9380918E0190918F010E94D52428
:1028F000883E9340D0F10E94C92490938F01809329
:102900008E01C0918C01D0918D012196C170DD277F
:10291000D0938D01C0938C0183E8E82E82E0F82EDD
:1029200010E008E7812F8695FE01E80FF11DCF0129
:102930008170992797014091810260918002FC018A
:102940000E9FC0010F9F900D11240E94F30D1F5F79
:10295000F3E0EF0EF11C103129F7DF91CF911F91B9
:102960000F91FF90EF900C94440FDF91CF911F9146
:102970000F91FF90EF900895CF93DF9300D01F92B7
:10298000CDB7DEB780918A0190918B010E94D5244A
:10299000E2EDF5E02591349182179307C0F1809123
:1029A000890181110CC09E012F5F3F4F4FEF6FEFE8
:1029B00080E090E00E94F30D8A81809389010E945B
:1029C000C92490938B0180938A0180918801813082
:1029D00051F028F0823061F4409189010AC0809161
:1029E000890140E007C06091890140E080E003C0B8
:1029F00040E080E060E00E94590F8091880190E003
:102A0000019663E070E00E946E34809388010F901D
:102A10000F900F90DF91CF9108958091A1018823AD
:102A2000B9F190917E02892F86958F732EE3280F3E
:102A30002F73243018F482500C949D122AE3280F2F
:102A40002F73233018F486500C94F41227E3280FC8
:102A50002F73263018F489500C94241321E3280F87
:102A60002F73263018F48F500C947C132BE2280F10
:102A70002F73233018F485510C94FC13892F8E7713
:102A8000803311F40C946C14863411F40C94BC143F
:102A900008952EB1342F309523233EB1432B3FB7F9
:102AA000F894FC01680F791FE617F70789F0819108
:102AB00098E04EB9000000C087FF2EB9880F0000D3
:102AC00000C000C000C02EB900C09A9591F7ECCFAD
:102AD0003FBF08952DB1242B2DB99B01220F331F29
:102AE000620F731F0E94491587EC90E00197F1F780
:102AF00000C00000089544E00C946A15CF93DF9362
:102B0000EC0181E08F878F810E94EE2288850E94F0
:102B100001230E94B822EA81FB81CE0106963097FC
:102B200029F06A897B89DF91CF910994DF91CF9158
:102B30000895EF92FF920F931F93CF93DF93FC01C1
:102B40002085211134C0EC01E380F480F7E5FF1A01
:102B500024E12E9DC0012F9D900D1124DC01A05079
:102B6000BF4F1496ED91FC9115978A5F9E4F309759
:102B700029F052966D917C915397099584E18E9D31
:102B800080018F9D100D112400501F4FF801878187
:102B90000E94F422F80180850E9407230E94B82237
:102BA00018821F8219861092A3011092A201DF9150
:102BB000CF911F910F91FF90EF900895DF92EF92C8
:102BC000FF920F931F93CF93DF93FB012281222368
:102BD00091F1209119012F3F71F18C01C0E0D1E0FA
:102BE000E12CF12CDD24D39480911901082E000CE6
:102BF000990B8E159F05FCF08E818823B9F089858D
:102C00009A858017910739F48091A2019091A301D0
:102C10000817190759F0DD868F85811103C0CE0191
:102C20000E947E15CE0106960E949915FFEFEF1ABD
:102C3000FF0A6496D9CFDF91CF911F910F91FF903A
:102C4000EF90DF900895EF92FF920F931F93CF9331
:102C5000DF939C0137552F3F310511F008F047C035
:102C600040911901042E000C550B4217530714F420
:102C700020931901FB017C01828194E1929F8001E4
:102C8000939F100D1124E801C050DF4F8E87928171
:102C90008E81992311F1FA86E9868F5F8E830E94D7
:102CA000C9249C878B870E9427238F830E94EB2255
:102CB00088870E94FE229885892B8887E881F98180
:102CC000C8018A5F9E4F309719F06A897B89099500
:102CD000F092A301E092A2010AC0882341F08F85FF
:102CE000882329F0C8018A5F9E4F0E94991581E0D0
:102CF000DF91CF911F910F91FF90EF900895CF92A8
:102D0000DF92EF92FF920F931F93CF93DF93809107
:102D100019018F3FF1F1F12C94E1E92E0F2D10E014
:102D200080911901082E000C990B801791078CF1E6
:102D3000E09EF001E19EF00D1124E050FF4FC088AD
:102D4000D188C114D10419F488ECC82ED12CE09E8E
:102D5000E001E19ED00D1124C050DF4F8E81882309
:102D6000B1F08B859C850E94D524C816D90678F4CD
:102D70008F85811103C0CE010E947E15E09EC001A7
:102D8000E19E900D11248A5F9E4F0E949915F39445
:102D9000C5CFDF91CF911F910F91FF90EF90DF9002
:102DA000CF9008959093A9018093A8010895E09190
:102DB000A801F091A901309721F00190F081E02D58
:102DC000099480E00895EF92FF920F931F93CF93A1
:102DD000DF93E091A801F091A9013097B1F18C0146
:102DE0000280F381E02D099580914D0282FF2DC074
:102DF00080FF04C086EF96E00E945D05E80110E2C6
:102E000080EFE82E86E0F82E80914D0280FF0BC007
:102E100088811F928F93FF92EF920E94F6050F9088
:102E20000F900F900F90115021961111EDCF8091BE
:102E30004D0280FF0AC08EEE96E0DF91CF911F9188
:102E40000F91FF90EF900C945D05DF91CF911F9152
:102E50000F91FF90EF900895E091A801F091A901E2
:102E6000309721F00480F581E02D09940895209198
:102E7000A6013091A7012817390771F09093A70197
:102E80008093A601E091A801F091A901309721F06B
:102E90000680F781E02D099408952091A4013091D6
:102EA000A5012817390771F09093A5018093A4011B
:102EB000E091A801F091A901309721F00084F185FB
:102EC000E02D0994089508950C94631781E0089506
:102ED0000E94C02485B7806885BF85B7806885BF9C
:102EE0000E949D0C0E9449250E9401280C94FD110E
:102EF000CF93C82F80914D0282FF1EC080FF04C077
:102F00008FE097E00E945D0580914D0280FF0CC02C
:102F10001F92CF938AE097E09F938F930E94F605CC
:102F20000F900F900F900F9080914D0280FF04C082
:102F300088E097E00E945D058C2FCF910C94B0093A
:102F40005F926F927F928F929F92AF92BF92CF9239
:102F5000DF92EF92FF920F931F93CF93DF93CDB742
:102F6000DEB72A970FB6F894DEBF0FBECDBF0E9422
:102F7000EC0C0E946617811111C08FEF89838A8340
:102F80001B820E94C9248160782F9D838C83498194
:102F90005A816B818D810E945D1856C09BEA692E13
:102FA00091E0792E00E010E088248394912C502E3B
:102FB000802F0E94A30D6C01F301A190B1903F01FD
:102FC000A826B926A114B10431F40F5F1F4F0530B4
:102FD000110569F7D2CF80914D0281FD0E94AC0DA1
:102FE00080E090E07401082E02C0EE0CFF1C0A94F1
:102FF000E2F795012E213F21232B09F18E835F8279
:10300000CE20DF2081E0CD2809F480E088870E946F
:10301000C9248160782F9A8789874E815F8168856E
:103020008A850E945D18000F111FF801E555FE4FBB
:1030300080819181E826F926F182E08205C001961F
:103040008F30910579F6C1CF0E945E270E94D71676
:103050009091AA018917D9F00E94D7168093AA01EE
:103060002A960FB6F894DEBF0FBECDBFDF91CF9189
:103070001F910F91FF90EF90DF90CF90BF90AF9096
:103080009F908F907F906F905F900C9478172A9606
:103090000FB6F894DEBF0FBECDBFDF91CF911F9169
:1030A0000F91FF90EF90DF90CF90BF90AF909F90E7
:1030B0008F907F906F905F900895CF93DF93CDB7FF
:1030C000DEB72B970FB6F894DEBF0FBECDBF4F8390
:1030D000588769877A878B87DE01119686E0FD0124
:1030E00011928A95E9F785E0FE01379601900D92DD
:1030F0008A95E1F749815A816B817C818D819E811E
:103100000E948A1F2B960FB6F894DEBF0FBECDBF6C
:10311000DF91CF910895FC01808191810E94592215
:103120000895882309F4F3C0682F8238C1F40E94FF
:10313000D71681FDECC069E380911A0190911B01C3
:103140000E941E240E94B8222FEF81EE94E02150AD
:1031500080409040E1F700C0000069E319C0833867
:10316000F9F40E94D71680FDD2C063E580911A0160
:1031700090911B010E941E240E94B8222FEF81EE25
:1031800094E0215080409040E1F700C0000063E5EA
:1031900080911A0190911B010E9429240C94B8225D
:1031A0008438C1F40E94D71682FDB1C067E48091D3
:1031B0001A0190911B010E941E240E94B8222FEF39
:1031C00081EE94E0215080409040E1F700C0000083
:1031D00067E4DECF8CEF860F813A38F480911A01D4
:1031E00090911B010E941E24D9CF80E2860F883067
:1031F00048F4677081E001C0880F6A95EAF70E9481
:10320000EE22CCCF8BE5860F833070F4653A29F03F
:10321000663A31F083E890E005C081E890E002C0B2
:1032200082E890E00C94371788E5860F853108F026
:103230006EC0683A61F1693A69F16A3A71F16B3AC4
:1032400079F16C3A81F16B3B89F16C3B91F16D3A0C
:1032500099F1603BA1F16E3AA9F16F3AB1F1613B8E
:10326000B9F1623BC1F1633BC9F1643BD1F1653B0C
:10327000D9F1663BE1F1673BE9F1683BF1F1693B6C
:10328000F9F16A3B09F43FC080E090E03EC082EE75
:1032900090E03BC089EE90E038C08AEE90E035C007
:1032A00085EB90E032C086EB90E02FC083EB90E09E
:1032B0002CC084EB90E029C087EB90E026C08CEC1A
:1032C00090E023C08DEC90E020C083E891E01DC029
:1032D0008AE891E01AC082E991E017C084E991E0A0
:1032E00014C081E292E011C083E292E00EC084E259
:1032F00092E00BC085E292E008C086E292E005C051
:1033000087E292E002C08AE292E00C944D170895A1
:10331000882309F45BC0682F823879F40E94D7169D
:1033200081FF54C069E380911A0190911B010E94B2
:103330001E240E94B82269E310C08338B1F40E94B1
:10334000D71680FF43C063E580911A0190911B015D
:103350000E941E240E94B82263E580911A01909178
:103360001B010E9429240C94B822843879F40E940D
:10337000D71682FF2BC067E480911A0190911B0140
:103380000E941E240E94B82267E4E7CF8CEF860FCC
:10339000813A18F380E2860F883048F4677081E044
:1033A00001C0880F6A95EAF70E94F422DCCF8BE512
:1033B000860F833020F480E090E00C943717685A31
:1033C000653120F480E090E00C944D170895882337
:1033D00021F00E94EE220C94B8220895882321F057
:1033E0000E94F4220C94B82208958F929F92AF927B
:1033F000BF92DF92EF92FF920F931F93CF93DF93D1
:103400007C01D62FC72FFC01058102950F70128118
:1034100011110E940E230E94B122882379F01123FA
:1034200069F080E28D0F883048F082E00E949A2295
:103430000E94B12291E0D82ED92601C0D12CBC2EF9
:10344000B2948FE0B8228B2D90E0FC01E859FF4F39
:103450000C94A4348C2F807FCF70882311F0C295F8
:10346000C07F112399F0CC2309F4C4C180E28D0FF1
:10347000883010F0D11104C08C2F0E94EE2203C0BE
:103480008C2F0E9401230E94B822B4C18D2F0E946C
:103490008819CC2309F4F4C180E28D0F883010F034
:1034A000D11104C08C2F0E94F42203C08C2F0E94E3
:1034B00007230E94B822E4C18C2F807FCF70803216
:1034C00011F0C295C07FDD2319F0D130C9F022C0C0
:1034D000112371F0002341F0013031F40E942723C1
:1034E0008C2B0E942123CCC10E9427238C2B3AC114
:1034F000002319F0013009F4C3C10E94242318C02D
:10350000112321F0063008F0BBC10EC0053008F0D1
:10351000B7C10EC0112351F0002331F0F7018581AE
:1035200080FF68C18F7085838C2F1CC1011173C10E
:103530008C2F1EC18C2F86958695837019F0813053
:1035400061F09EC1112321F08D2F9C2F937002C03A
:1035500080E090E00E943717A0C1112321F08D2F49
:103560009C2F937002C080E090E00E944D1795C19F
:103570001123F9F0D53F51F0D63F71F0D43FA9F4B3
:103580008091B3029091B40281600BC08091B3022C
:103590009091B402826005C08091B3029091B40210
:1035A00084609093B4028093B3028D2F0E94E4252F
:1035B0001EC0D53F51F0D63F71F0D43FA9F48091A1
:1035C000B3029091B4028E7F0BC08091B3029091B0
:1035D000B4028D7F05C08091B3029091B4028B7FBD
:1035E0009093B4028093B3028D2F0E944C260E94C8
:1035F000D12653C18C2F837009F04CC0111149C1E1
:103600002D2F229526952770220F220F6D2F6F7078
:10361000862F90E0A0E0B0E04C015D01022E04C0D6
:10362000880C991CAA1CBB1C0A94D2F7D4FF12C0A8
:103630008FE090E0A0E0B0E004C0880F991FAA1FBF
:10364000BB1F2A95D2F7BC01CD016095709580957E
:10365000909503C060E070E0CB01C695C695C3703D
:10366000C23051F080F4682979298A299B29C13018
:1036700071F00E94D9200DC1682979298A299B29D6
:103680000E94EB2006C10E94D920C501B4010E940E
:10369000C720FFC0112319F08C2F817001C08695BF
:1036A000882309F4F6C02D2F229526952770220F26
:1036B000220F6D2F6F70862F90E0A0E0B0E04C01DC
:1036C0005D01022E04C0880C991CAA1CBB1C0A9424
:1036D000D2F7D4FF12C08FE090E0A0E0B0E004C0C9
:1036E000880F991FAA1FBB1F2A95D2F7BC01CD01D5
:1036F000609570958095909503C060E070E0CB0177
:10370000C695C695C370C23051F080F468297929F6
:103710008A299B29C13071F00E949E21BAC0682974
:1037200079298A299B290E94B021B3C00E949E2139
:10373000C501B4010E948C21ACC08D2F90E0FC012A
:10374000E05EF109E531F10508F050C0E858FF4F9F
:103750000C94A434DF708C2F8F71112331F00E94F0
:1037600025218D2F0E94E7198BC00E9446218D2FA5
:103770000E94EE1985C0112341F0053008F080C089
:103780008C2F8F710E946B217BC0063008F078C0AF
:10379000F7CF112339F08C2F8F710E94252170C033
:1037A0001123C9F38C2F8F710E94462169C0112308
:1037B00029F08C2F8F710E94102162C00E940B2172
:1037C0005FC0112349F0CF718C2F0E94252163E047
:1037D0008C2F0E94912254C081E00E949A220230D4
:1037E00008F44EC082E00E949A224AC0112331F0B0
:1037F000002389F28D2F0E94911842C0002391F27C
:10380000D93349F4FFEF27EE83E0F15020408040A8
:10381000E1F700C000008D2F0E94881931C04C2FA5
:103820004F706D2FC7010E94B2090E94382035C029
:10383000111133C0CF70C23091F038F4CC2361F055
:10384000C130F1F40E944E2828C0C43071F050F00D
:10385000C530B1F480E00AC00E941E281EC00E943C
:103860007D281BC00E94AA2818C085E00E94E0287D
:1038700014C04C2F4F706D2FC7010E9455060DC00C
:1038800098E0B91631F0B91640F086EF8B0D823012
:1038900020F40E94D7160E94B009DD20E1F00E94BA
:1038A0008D2280FD18C0F70112820E9487220E949B
:1038B0002521C7010E94771C0E948722DF91CF91AA
:1038C0001F910F91FF90EF90DF90BF90AF909F906E
:1038D0008F900C944621DF91CF911F910F91FF9013
:1038E000EF90DF90BF90AF909F908F9008950F93CF
:1038F0001F93CF93DF93EC01988189812B813C81C9
:10390000232B31F08F3F31F481E09F3F19F403C046
:1039100081E001C080E080FD13C0CE010E948E06D0
:10392000882371F0688179818A810E9464228C01E8
:103930000E94C2210E94B520B801CE010E94F51953
:10394000DF91CF911F910F9108950E940E230E9445
:103950001E2380911A0190911B010E9434240E9421
:10396000B8220E94F5270E94D12680E090E00E94B4
:10397000371780E090E00C944D170E94FB220C94C6
:10398000A51C0E945922E92FE295EF704E2F50E0BE
:10399000FA013297EE30F105B0F4E357FF4F0C9483
:1039A000A434803F91F018F4803E68F40EC0843F48
:1039B00051F40BC0803E48F0813F29F406C093FBD0
:1039C000882780F9089580E0089581E00895CF93D5
:1039D000DF9300D000D01F92CDB7DEB70F900F90CD
:1039E0000F900F900F90DF91CF910895CF93DF93B9
:1039F00000D000D000D0CDB7DEB726960FB6F89431
:103A0000DEBF0FBECDBFDF91CF9108951F93CF933F
:103A1000DF93C091B60116E08091B701C81799F005
:103A2000D0E01C9FF0011D9FF00D1124E854FE4FC3
:103A30004081518162817381848195810E94F61C4D
:103A40002196C770E9CFDF91CF911F9108954091E2
:103A5000E8015091E9016091EA017091EB018091D8
:103A6000EC019091ED010C94F61CCF938091ED0147
:103A700082958F7009F05FC08091EA01882309F474
:103A80005AC08091B601B091B7017091E801A09140
:103A9000E9014091EB015091EC0191E07F3F09F089
:103AA00090E0692FC6E08B1709F445C04115510518
:103AB00021F0AF3F21F020E003C021E001C0262F1C
:103AC00090E020FD35C0C89FF001C99FF00D112482
:103AD000E854FE4F21812A132BC02081271328C0D0
:103AE0002281211125C0238134812417350710F448
:103AF00021503109241B350B283C3105C8F4209195
:103B0000ED012F7020612093ED0126E0289FF00148
:103B1000299FF00D1124E354FE4F80818F70806146
:103B2000808388EE91E00E94771CCF910C94061D53
:103B300001968770B8CFCF910895AF92BF92CF9280
:103B4000DF92EF92FF920F931F93CF93DF93CDB746
:103B5000DEB761970FB6F894DEBF0FBECDBF8C0104
:103B600085E0F801DE011D9601900D928A95E1F73E
:103B7000D8014C9111965C9111971296EC9030916E
:103B8000E8016091E9018091EB019091EC010097CF
:103B900031F06F3F31F421E03F3F19F403C021E0E1
:103BA00001C020E0B22FB170BB2E20FD60C1F80132
:103BB000C380D480A090EA01AA2009F4EEC020912D
:103BC000ED01C816D90628F0D601A81BB90BCD0106
:103BD00004C0809590958C0D9D1DFF24F394883C26
:103BE000910580F0F12C207F09F09CC07C2DD98AB2
:103BF000C88A6E2D89890E94E71C88EE91E00E9498
:103C0000771C2DC1822F807F09F054C0561314C039
:103C1000431312C0FE2CE1100FC02F7020612093BF
:103C2000ED010E94271D88EE91E00E94771C809193
:103C3000ED01F80185835CC1CD2831F05F3F31F49F
:103C400081E04F3F19F403C081E001C080E080FDB6
:103C500003C081E08E2502C080E090E0F82FF17073
:103C6000FF2E80FF1CC08091B6012091B70136E085
:103C7000821709F41AC190E0389FF001399FF00DC6
:103C80001124E854FE4F6181561306C0608146132B
:103C900003C06281E61203C001968770E9CFFE2C53
:103CA000EE2009F425C18091ED0181608093ED0142
:103CB000F12C1EC1561309C0431307C0E11005C003
:103CC0008091ED01F8018583A4C04D875E878D85C5
:103CD0009E850E94C11C882379F1EE2069F1209114
:103CE000ED01822F82958F7090E0029774F08091A1
:103CF000E8019091E90198878F831986DB86CA864F
:103D00002C87CE0107960E94771C86E0F801A8EE6A
:103D1000B1E001900D928A95E1F70E94351D0E9455
:103D2000271D0DC0561771F04D875E878D859E85C6
:103D30000E94C11C81111AC0C8010E94771CFF2477
:103D4000F394D6C04313F0CFE110EECF8091ED0194
:103D5000F8018583C8010E94771C86E0E8EEF1E057
:103D6000DF011D928A95E9F7FA2CC2C0EE2021F3FB
:103D70002091ED01822F82958F7090E002972CF2B6
:103D80008091E8019091E9019A8389831B82DD8209
:103D9000CC822E83CE010196B6CFC816D90628F064
:103DA000F601E81BF90BCF0104C0809590958C0DAE
:103DB0009D1D883C910548F0F12C7C2DD98AC88A3C
:103DC0006E2D89890E94E71C4AC0FE2CEE2009F462
:103DD000B3CF561333C0431331C02091ED0120FD02
:103DE00024C0822F82958F70482F50E041155105D5
:103DF000E1F0D80115962C9315974F30510549F0F5
:103E00008F5F982F9295907F822F8F70892B1596B8
:103E10008C93C8010E94771C86E0F801A8EEB1E0FF
:103E200001900D928A95E1F73DC086E0F801A8EE79
:103E3000B1E001900D928A95E1F75AC04D875E87F7
:103E40008D859E850E94C11C81115FCF8091ED01FF
:103E500081608093ED01C8010E94771C49C0E8EEA3
:103E6000F1E086E0DF011D928A95E9F71BC0EE20A4
:103E700009F462CF4D875E878D859E850E94C11CA7
:103E8000F82E882309F458CF86E0F801A8EEB1E0B7
:103E900001900D928A95E1F788EE91E00E948B18CF
:103EA0000E94351D0E94271D23C04D875E878D858A
:103EB0009E850E945922292F22952F70223028F4A6
:103EC0009F7039F0811105C00BC0243028F49F7019
:103ED00049F4805E883020F0C8010E94771CBF2C16
:103EE000FB2C06C0D80115969C91907F91F7F8CFD6
:103EF0008F2D61960FB6F894DEBF0FBECDBFDF9158
:103F0000CF911F910F91FF90EF90DF90CF90BF90D6
:103F1000AF9008951F93CF93DF93CDB7DEB72C9763
:103F20000FB6F894DEBF0FBECDBF4F8358876987A9
:103F30007A878B879C87CE0107960E949D1D8823D8
:103F4000D1F09F8188852A853B85232B31F08F3FD7
:103F500031F481E09F3F19F403C081E001C080E0AB
:103F600080FD47C04F81588569857A858B859C8502
:103F70000E94F61C3EC086E0FE013796DE011196D7
:103F800001900D928A95E1F7FF81E8856A857B852E
:103F90006115710531F0EF3F31F481E0FF3F19F415
:103FA00003C081E001C080E080FD23C02091B70103
:103FB00030E0C9010196877099274091B60150E021
:103FC00084179507F1F1F983EA837D836C8396E08A
:103FD000929FD001939FB00D1124A854BE4FFE01B3
:103FE000319601900D929A95E1F78093B7010E9466
:103FF000061D16E08091B6019091B701891771F105
:10400000189FC001112488549E4F0E949D1D882333
:1040100029F1E091B6011E9FF0011124E854FE4FF2
:104020004081518162817381848195810E94F61C57
:104030008091B60190E00196877099278093B60130
:10404000D9CF0E94BD1C1092B7011092B601E8EEC4
:10405000F1E086E0DF011D928A95E9F72C960FB614
:10406000F894DEBF0FBECDBFDF91CF911F910895B1
:10407000EF92FF920F931F93CF93DF938C01892BC5
:1040800009F46CC0F12CEE24E394E8012196F801C8
:104090008491843740F4843008F051C0813081F03D
:1040A000823019F15BC0853709F444C0A8F19CE760
:1040B000980F903708F052C08F770E94881941C03E
:1040C0000E5F1F4FFE01849190E2980F983050F4DC
:1040D0008770FE2D01C0FF0F8A95EAF78F2F0E948F
:1040E000112314C00E9491182DC00E5F1F4FFE01B6
:1040F000849190E2980F983060F48770FE2D01C093
:10410000FF0F8A95EAF78F2F0E9417230E94B8228B
:1041100019C00E94881916C00E5F1F4FFE01C4917E
:10412000CC2381F08FE99FE00197F1F700C00000F8
:10413000C150F6CF0E5F1F4FFE01F49003C00E94E6
:1041400091188E018F2D882309F49FCFEFE9FFE0AE
:104150003197F1F700C000008150F5CFDF91CF918A
:104160001F910F91FF90EF900895089508950C947A
:10417000B6200E94B720609324027093250280939A
:104180002602909327020C94A51C0C94B9200F933F
:104190001F93009124021091250220912602309154
:1041A0002702602B712B822B932B1F910F910C9464
:1041B000B9200F931F9300912402109125022091A2
:1041C00026023091270260237123822393231F91BB
:1041D0000F910C94B9200F931F930091240210911A
:1041E000250220912602309127026027712782271D
:1041F00093271F910F910C94B9200C94B6200E9424
:10420000FD206093200270932102809322029093FC
:1042100023020C94A51C60E070E0CB010C94FF20FD
:104220000F931F9341E050E060E070E08A019B0132
:1042300004C0000F111F221F331F8A95D2F7C90136
:10424000B8011F910F910C94FF200F931F9341E031
:1042500050E060E070E004C0440F551F661F771FF8
:104260008A95D2F78091200290912102A09122029A
:10427000B09123028A019B01082B192B2A2B3B2B7F
:10428000C901B8011F910F910C94FF200F931F9348
:1042900041E050E060E070E004C0440F551F661F2D
:1042A000771F8A95D2F740955095609570958091CB
:1042B000200290912102A0912202B09123028A0152
:1042C0009B01082319232A233B23C901B8011F910D
:1042D0000F910C94FF200F931F9341E050E060E09A
:1042E00070E004C0440F551F661F771F8A95D2F7F0
:1042F0008091200290912102A0912202B09123028C
:104300008A019B01082719272A273B27C901B801E1
:104310001F910F910C94FF200F931F930091200287
:10432000109121022091220230912302602B712BE7
:10433000822B932B1F910F910C94FF200F931F93AF
:10434000009120021091210220912202309123023B
:1043500060237123822393231F910F910C94FF20DC
:104360000F931F93009120021091210220912202AD
:104370003091230260277127822793271F910F9185
:104380000C94FF2008952FE0929F800D1124E82FB8
:10439000E695E695E695877051E001C0550F8A9540
:1043A000EAF785E0E89FF0011124E251FE4F20E09A
:1043B00030E070E04081CB01022E02C096958795D7
:1043C0000A94E2F78170819584278523842781935D
:1043D0002F5F3F4F2530310569F708952FE0929FF9
:1043E000800D1124682F669566956695982F9770B5
:1043F00085E0689FB001112440E050E080E0FB01BF
:10440000E40FF51FE251FE4F208130E0092E02C07B
:10441000369527950A94E2F721703327042E01C0C0
:10442000220F0A94EAF7822B4F5F5F4F4530510508
:1044300031F70895CF92DF92EF92FF920F931F937F
:10444000CF93DF938C01C0902002D0902102E090A6
:104450002202F09023028091240290912502A091E3
:104460002602B0912702C82AD92AEA2AFB2ACFE1DC
:10447000D0E0D701C6010C2E04C0B695A79597953C
:1044800087950A94D2F780FD04C0219790F780E0C9
:1044900007C0B8018C2F0E94D0090197B1F38C2F6F
:1044A000DF91CF911F910F91FF90EF90DF90CF9010
:1044B0000895CF93DF93EC010E941A22BE010E945F
:1044C000D009DF91CF9108951F93CF93DF93EB0134
:1044D0009091B501992321F0CB010E94592213C07C
:1044E000882349F0CB010E941A22182F682FCE0191
:1044F0000E94C32104C0CB010E94EE21182FBE01EF
:10450000812F0E94D009DF91CF911F910895809152
:104510002802859585958595089580912802877054
:10452000089598E0899F90011124262B209328025A
:104530000C942521209128028095822380932802C3
:10454000982F977069F430E0482F082E000C550B17
:104550002417350729F08595859585950C94462176
:10456000089590912802977081E009F480E0089501
:10457000E0911A01F0911B0180914C028083E0913F
:104580001A01F0911B01908180914B02892B80834D
:10459000E0911A01F0911B01908180914A02892BD0
:1045A000808380912902882381F0E0911A01F091A3
:1045B0001B019081892B808380911A0190911B01AE
:1045C0000E949F2381111092290280911A019091DB
:1045D0001B010C94E31680914C02089590914C02BB
:1045E000892B80934C020895809590914C028923E9
:1045F00080934C02089510924C02089580914B02D2
:10460000089590914B02892B80934B0208958095D9
:1046100090914B02892380934B02089510924B0294
:10462000089590914A02892B80934A0208958095BB
:1046300090914A02892380934A02089510924A0277
:104640000895809329020895109229020895809177
:104650002902089590935B0180935A0108958295F1
:10466000982F937344E0949F900111248C7C86953D
:104670008695282B822F8575880F2A7A2695822B7E
:104680000895CF93DF93D92F0E942F23C82F8D2F0A
:104690000E942F232C2F30E0322F2227A901482BF4
:1046A000CA01DF91CF9108956DEE7EEF80E090E03A
:1046B0000E94F63460E082E090E00E94D83460E02E
:1046C00083E090E00E94D83460E084E090E00E94B3
:1046D000D83460E085E090E00E94D83460E086E065
:1046E00090E00E94D83440E050E0BA0188E090E0C9
:1046F0000C94EA3480E090E00E94D23421E08D3EB8
:104700009E4F09F020E0822F089582E090E00C9403
:10471000C43483E090E00C94C43484E090E00C94C2
:10472000C434682F84E090E00C94D83486E090E0A4
:104730000C94C434682F86E090E00C94D834FC01CB
:1047400031969C01205E3F4F80E0919191118F5FE7
:10475000E217F307D1F708959C01FC0132969FEF11
:1047600080E04191461789F09F3F19F4411101C043
:10477000982F8F5F8E31A9F79F3F39F0F901E90F2C
:10478000F11D97FDFA956283089508959C01225EBC
:104790003F4FFC014281461301C0128201968217ED
:1047A0009307B9F70895262F2695269526952F313C
:1047B00071F0FC01E20FF11D677021E030E001C0F3
:1047C000220F6A95EAF78181282B21830895809131
:1047D0004D0280FF0CC01F926F9380E497E09F937F
:1047E0008F930E94F6050F900F900F900F900895F1
:1047F000262F2695269526952F3179F0FC01E20F7C
:10480000F11D677021E030E001C0220F6A95EAF7E0
:104810002095818128232183089580914D0280FF76
:104820000CC01F926F9382E297E09F938F930E9438
:10483000F6050F900F900F900F90089520912C0186
:10484000222329F02091B90227FD0C94D3230C9444
:10485000AC2320912C01222329F02091B90227FDBD
:104860000C94F8230C94C623FC0131968096119287
:10487000E817F907E1F7089508950C943C240C9487
:104880003C24CF930E943F240E94EC0C0E943D24C4
:10489000C0E08C2F0E94A30D892B29F4CF5FC53077
:1048A000C1F780E001C081E0CF9108950C943C24D1
:1048B0000C9456248091C002843061F110924E0213
:1048C00020E488E190E00FB6F894A895809360000A
:1048D0000FBE2093600080E00E94410980E00E94AA
:1048E000B0090E94582483B7817F846083BF83B757
:1048F000816083BF7894889583B78E7F83BF0FB61E
:10490000F894A8958091600088618093600010926F
:1049100060000FBE08950C943C240E94BD1C0E94B0
:1049200001280E94D7160E94B0090C948B241F9274
:104930000F920FB60F9211248F939F93AF93BF9353
:1049400080914E02811113C08091B5029091B60200
:10495000A091B702B091B8024196A11DB11D8093FC
:10496000B5029093B602A093B702B093B802BF917C
:10497000AF919F918F910F900FBE0F901F90189540
:1049800082E084BD93E095BD9AEF97BD80936E0061
:1049900008952FB7F8948091B5029091B602A09136
:1049A000B702B091B8022FBF0895CF92DF92EF9275
:1049B000FF920F931F932FB7F8944091B502509137
:1049C000B6026091B7027091B8022FBF6A017B01F5
:1049D000EE24FF248C0120E030E0C016D106E20670
:1049E000F30610F4415051099A01281B390BC901F3
:1049F0001F910F91FF90EF90DF90CF9008957894E2
:104A00001F920F920FB60F9211248F939F93AF9323
:104A1000BF938091B5029091B602A091B702B09178
:104A2000B8020196A11DB11D8093B5029093B60204
:104A3000A093B702B093B802BF91AF919F918F91AD
:104A40000F900FBE0F901F90189581E08093E000AB
:104A500080E28093D8001092C9008FE19EE4019714
:104A6000F1F700C0000087E090EBDC018093C90201
:104A70009093CA02A093CB02B093CC029CE088E151
:104A80000FB6F894A895809360000FBE90936000D5
:104A9000FFCF0E947A23811102C00E9454230E94FA
:104AA000852380934D020E948D2390E09093BA025B
:104AB0008093B9020E948923682F70E080E090E023
:104AC0000C94C5208091510280FF0BC060911F01A2
:104AD00085E0689FB0011124759567957595679578
:104AE0002BC081FF09C060911F0185E0689FB00164
:104AF00011247595679520C082FF07C060911F0142
:104B000085E0689FB001112417C09091520299234B
:104B1000D1F060911E01961788F720911F0185E062
:104B2000289F90011124929FA001939F500D112462
:104B300070E0CA010E946E346038710540F461155E
:104B4000710519F406C065E070E0862F08958FE7BF
:104B5000089581E008958091510280FF08C060911E
:104B60001D0170E0759567957595679521C081FF6A
:104B700006C060911D0170E07595679519C082FFB0
:104B800004C060911D0170E010C090915202992301
:104B900099F060911C019617A0F780911D01899FE3
:104BA000C001112470E00E946E346038710540F439
:104BB0006115710519F406C061E070E0862F089553
:104BC0008FE7089581E00895803F21F40E946225D7
:104BD000819504C0813F29F40E946225809355028B
:104BE0000895823F21F40E946225819504C0833F8D
:104BF00029F40E946225809354020895893F19F494
:104C00000E94AB2505C08A3F31F40E94AB258195F7
:104C10008093560208958B3F21F40E94AB25819525
:104C200004C08C3F29F40E94AB258093570208955D
:104C3000843F21F480915302816017C0853F21F4A5
:104C400080915302826011C0863F21F4809153020B
:104C500084600BC0873F21F480915302886005C0B7
:104C6000883F31F48091530280618093530208950C
:104C70008D3F21F48091510281600BC08E3F21F461
:104C800080915102826005C08F3F29F480915102CA
:104C90008460809351020895803F39F480915502D9
:104CA00087FF6CC01092550269C0813F29F4809142
:104CB00055021816BCF362C090915402823F29F449
:104CC00097FF5CC01092540259C0833F19F4191623
:104CD000CCF354C0893F41F48091560218160CF071
:104CE0004DC0109256024AC08A3F29F48091560264
:104CF00087FF44C0F6CF8B3F39F48091570287FF7E
:104D00003DC0109257023AC08C3F29F4809157025F
:104D10001816BCF333C0843F21F4809153028E7F78
:104D200017C0853F21F4809153028D7F11C0863FCB
:104D300021F4809153028B7F0BC0873F21F4809137
:104D40005302877F05C0883F31F4809153028F7EE4
:104D50008093530213C08D3F21F4809151028E7FC6
:104D60000BC08E3F21F4809151028D7F05C08F3F93
:104D700029F4809151028B7F8093510280915402DB
:104D800081110EC08091550281110AC08091560296
:104D9000811106C080915702811102C01092520207
:104DA000089580914D0283FF7EC085E897E00E94C0
:104DB0005D05809153021F928F9380E897E09F9347
:104DC0008F930E94F6058EE797E00E945D05809123
:104DD0005402282F082E000C330B3F938F938BE740
:104DE00097E09F938F930E94F60589E797E00E94D2
:104DF0005D0580915502282F082E000C330B3F9340
:104E00008F9386E797E09F938F930E94F60584E740
:104E100097E00E945D0580915602282F082E000C15
:104E2000330B3F938F9381E797E09F938F930E947B
:104E3000F6058FE697E00E945D0580915702282FC6
:104E4000082E000C330B3F938F938CE697E09F93D3
:104E50008F930E94F60589E697E00E945D05809198
:104E600052021F928F9386E697E09F938F930E9442
:104E7000F60584E697E00E945D05809151021F923D
:104E80008F9381E697E09F938F930E94F6058EE5BE
:104E900097E00E945D058DB79EB74C960FB6F894CB
:104EA0009EBF0FBE8DBF83E592E00E942C170E942B
:104EB000C9249093500280934F0208951F93CF937B
:104EC000DF9380914F02909150020E94D524AC0153
:104ED00090915202992321F02091200130E006C0E8
:104EE000209121018AE0289F900111244217530745
:104EF00008F477C080915402C0915502D0915602B7
:104F000010915702811107C0C11167C0D11165C04E
:104F1000111163C066C09F3F19F09F5F90935202CA
:104F2000181624F40E946225809354028091540242
:104F300087FF05C00E9462258195809354021C164C
:104F400024F40E946225809355028091550287FFC8
:104F500005C00E94622581958093550230915402CC
:104F60003323C1F0209155022223A1F045EB3403F5
:104F7000C0011124892F911101C081E08093540256
:104F800035EB2303C0011124892F911101C081E069
:104F9000809355021D1624F40E94AB25809356027F
:104FA0008091560287FF05C00E94AB2581958093B2
:104FB0005602111624F40E94AB258093570280916B
:104FC000570287FF05C00E94AB2581958093570249
:104FD000DF91CF911F910C94D1269F3F09F09DCF77
:104FE000AECFDF91CF911F910895E3E5F2E085E028
:104FF000DF011D928A95E9F7109252021092510238
:1050000008950E947A23811102C00E9454230E94B5
:1050100096238093BB02282F269530E02630310559
:1050200024F081708A608093BB028091BB0280FF74
:1050300002C0869501C080E00C9441092091BB021A
:10504000822F8695482F50E04530510544F48F5FFC
:10505000982F990F822F8170892B8093BB028091AA
:10506000BB0281608093BB020E949A2380914D0213
:1050700080FF0FC08091BB0286951F928F938AEEAE
:1050800097E09F938F930E94F6050F900F900F90DB
:105090000F908091BB0286950C9441098091BB02D0
:1050A000982F969591F09158990F8170892B809344
:1050B000BB028E7F91E009F490E08091BB0290FBEF
:1050C00080F98093BB020E949A2380914D0280FF59
:1050D0000FC08091BB0286951F928F9382ED97E05F
:1050E0009F938F930E94F6050F900F900F900F9053
:1050F0008091BB0286950C9441098091BB02982F48
:10510000909590FB80F98093BB02813019F483E085
:105110008093BB028091BB020E949A2380914D0232
:1051200080FF0FC08091BB0281701F928F938CEB28
:1051300097E09F938F930E94F6050F900F900F902A
:105140000F908091BB0280FF02C0869501C080E075
:105150000C9441099091BB02892F86958F5F8F77C0
:105160009170863028F4880F892B8093BB0202C08F
:105170009093BB028091BB028E7F91E009F490E096
:105180008091BB0290FB80F98093BB020E949A231E
:1051900080914D0280FF0FC08091BB0286951F92C7
:1051A0008F9388EA97E09F938F930E94F6050F9064
:1051B0000F900F900F908091BB0286950C9441093F
:1051C000863008F085E0880F9091BB029170892BA2
:1051D0008093BB028E7F91E009F490E08091BB0246
:1051E00090FB80F98093BB020E949A238091BB02BE
:1051F00086950C94410980917B0208959FB7F8949D
:1052000010925A029FBF9091C002943009F057C08B
:105210009091E9009F703091EC00232F217030FDB8
:1052200020E8922B24E02093E9002091EB0020FF5E
:1052300043C02091EE0027FF3FC020915802222357
:1052400021F02091E80025FF37C01092580226E097
:105250003091E80035FD15C03091C002343061F561
:105260003091EB0035FD28C0215021F481E080937E
:10527000580222C0EFE9FFE03197F1F700C00000CB
:10528000E7CF8093F1008091E80085FD0AC080910E
:10529000E80080FFFCCF8091E8008E778093E800E3
:1052A00006C08FB7F89421E020935A028FBF9F70F9
:1052B0009093E90080E008959F709093E9008FEF4C
:1052C00008950F931F93CF93DF9300D01F92CDB714
:1052D000DEB78C010E943B2C823011F0843019F52E
:1052E00083E089831B830A838093E9008FEF909189
:1052F000E800815095FD06C095ED9A95F1F7000004
:105300008111F5CF8091E80085FF0DC040E050E0AD
:1053100063E070E0CE0101960E94582C8091E80075
:105320008E778093E8000F900F900F90DF91CF91D0
:105330001F910F910895CF93DF9300D01F92CDB7A7
:10534000DEB72091C002243031F522E02983805855
:1053500091099B838A8383E08093E9008FEF90918A
:10536000E800815095FD06C095ED9A95F1F7000093
:105370008111F5CF8091E80085FF0DC040E050E03D
:1053800063E070E0CE0101960E94582C8091E80005
:105390008E778093E8000F900F900F90DF91CF9160
:1053A0000895CF93DF93EC010E943B2C823011F0E3
:1053B0008430F9F482E08093E9008FEF9091E80067
:1053C000815095FD06C095ED9A95F1F70000811189
:1053D000F5CF8091E80085FF0CC040E050E065E02B
:1053E00070E0CE010E94582C8091E8008E77809367
:1053F000E800DF91CF910895CF93DF93EC010E94F5
:105400003B2C823019F0843009F047C080912C0188
:105410008823E1F08091B90287FF18C085E080936E
:10542000E9008FEF9091E800815095FD06C095E16D
:105430009A95F1F700008111F5CF8091E80085FF82
:105440002CC040E050E060E270E017C081E0809343
:10545000E9008FEF9091E800815095FD06C095ED31
:105460009A95F1F700008111F5CF8091E80085FF52
:1054700014C040E050E068E070E0CE010E94582C7B
:105480008091E8008E778093E80080E2FE01ABE532
:10549000B2E001900D928A95E1F7DF91CF910895E6
:1054A00087E298E00E945D058091BF02811109C0EA
:1054B0000E94E92D0E94462E8091E2008460809334
:1054C000E200089583E298E00E945D051092BF0219
:1054D00008958FE198E00C945D058BE198E00C94C1
:1054E0005D0587E198E00E945D050C948D24209174
:1054F00059022F5F822F62E30E944E34992319F0E4
:105500002093590208951092590280915A028823DB
:1055100071F18091C002843041F58091E9008F7073
:105520002091EC00922F917020FD90E8892B94E05F
:105530009093E9009091EB0090FF14C09091EE00E1
:1055400097FF10C09091E80095FF03C01092F10002
:10555000F9CF9091E80090FF05C09091E8009E7708
:105560009093E8008F708093E90010925A0208959A
:1055700042E061EC81E00E94622D42E061EC82E059
:105580000E94622D42E061EC83E00E94622D42E2C3
:1055900061EC84E00E94622D42E261EC85E00C94B3
:1055A000622D8091C202833009F455C030F48130FD
:1055B00071F0823009F48EC008958A3009F47AC0FF
:1055C0008B3009F460C0893009F09CC020C0809104
:1055D000C102813A09F096C08091E800877F8093EC
:1055E000E8008091C5029091C602892B21F460E207
:1055F0008BE592E003C060E080E090E070E00E9404
:10560000A32C8091E8008B778093E8000895809127
:10561000C102813209F076C08091C5029091C60224
:10562000009719F0049709F06DC08091E800877F1A
:105630008093E8008091E80082FD05C08091C0025F
:105640008111F8CF5FC08091F10080937B0280913F
:10565000E8008B7753C08091C102813A09F052C0B3
:105660008091C5029091C602892B09F04BC08091B0
:10567000E800877F8093E8008091E80080FFFCCFFE
:1056800080912C0136C08091C1028132D9F5809180
:10569000C5029091C602892BA9F58091E800877F09
:1056A0008093E8000E94972D8091C30280932C0183
:1056B0000C94BD1C8091C102813221F58091E800DB
:1056C000877F8093E8000E94972D8091C402809389
:1056D0007C0208958091C102813AA1F48091E80092
:1056E000877F8093E8008091E80080FFFCCF809165
:1056F0007C028093F1008091E8008E778093E8002F
:105700000C94972D089584B7877F84BF0FB6F894C3
:10571000A89580916000886180936000109260007D
:105720000FBE80E880936100109261000E946417B0
:105730000E94E92D0E94462E8091E20084608093B1
:10574000E2008EEF98E20E942A2378940E94DA30D9
:105750000E94681782E291E00E94D21686E098E0EB
:105760000E945D058091C002853089F482E098E056
:105770000E945D050E945A248091BE02882391F305
:105780000E944124882371F30E94422CEBCF0E9497
:10579000A0170E940D15E6CF0C94CE2B292F33278E
:1057A00023303105C9F060F42130310581F0223019
:1057B000310509F047C08DE890E023E538E046C0A8
:1057C0002132310511F12232310561F13BC082E114
:1057D00090E020EE38E03AC099278130910561F0E1
:1057E00040F08230910559F0039761F5EBE2F8E063
:1057F00008C0EFE4F8E005C0EDE3F8E002C0E1E343
:10580000F8E0849190E09F0121C065307105D0F4EB
:10581000660F771FFB01E05BFE4F2081318189E03D
:1058200090E014C06530710568F4FB01EE0FFF1FB6
:10583000EA5BFE4F20813181FB01EF5BFE4F8081EF
:1058400090E004C080E090E020E030E0FA01318395
:10585000208308950895CF93C82F0E942A2CC093C7
:105860007D02CF9108958091C002843011F081E0D3
:10587000089582E0089580917D02811102C00C9408
:10588000332C089580E189BD82E189BD09B400FE11
:10589000FDCF8091D8008F7D8093D8008091E0006B
:1058A00082608093E0008091E00081FDFCCF08954C
:1058B000CF92DF92EF92FF920F931F93CF93DF93DC
:1058C000EC018B017A010E94B62D811133C0E114E5
:1058D000F10439F0F70180819181081B190BC80F81
:1058E000D91FC12CD12C0115110519F18091E800A7
:1058F00085FD16C08091E8008E778093E800E11462
:10590000F10449F0F70180819181C80ED91ED1823E
:10591000C08285E00FC00E94B62D882321F30AC003
:1059200089918093F10001501109FFEFCF1ADF0A2E
:10593000DACF80E0DF91CF911F910F91FF90EF9030
:10594000DF90CF9008952091C7023091C8022617AA
:10595000370748F06115710539F42091E8002E777A
:105960002093E80001C0B901FC0120E06115710538
:1059700079F18091C0028823F1F18530F1F18091B5
:10598000E80083FD3CC08091E80082FD2EC080913C
:10599000E80080FFEBCF2091F3008091F20090E0CF
:1059A000922B6115710551F08830910538F42191E1
:1059B0002093F100615071090196F3CF21E008971F
:1059C00009F020E08091E8008E778093E800CECF48
:1059D0002111CFCF0AC08091C002882361F08530A9
:1059E00061F08091E80083FD0AC08091E80082FFA9
:1059F000F2CF80E0089582E0089583E0089581E089
:105A000008952091C7023091C8022617370748F041
:105A10006115710539F42091E8002E772093E80094
:105A200001C0B901FC0120E06115710591F180917F
:105A3000C002882309F440C0853009F43FC080913A
:105A4000E80083FD3DC08091E80082FD2FC0809179
:105A5000E80080FFE9CF2091F3008091F20090E010
:105A6000922B6115710559F08830910540F424910D
:105A70002093F1003196615071090196F2CF21E037
:105A8000089709F020E08091E8008E778093E80085
:105A9000CBCF2111CCCF0AC08091C002882361F006
:105AA000853061F08091E80083FD0AC08091E800B4
:105AB00082FFF2CF80E0089582E0089583E00895A8
:105AC00081E00895982F973068F59093E900981732
:105AD00039F07091EC002091ED005091F00003C07E
