:100000000C9401050C9448050C9448050C94480583
:100010000C9448050C9448050C9448050C9448052C
:100020000C9448050C9448050C94492E0C941B2FF5
:100030000C947C240C9448050C9448050C944805B9
:100040000C9448050C9448050C9448050C944805FC
:100050000C9448050C94E4240C9448050C94480531
:100060000C9448050C9448050C9448050C944805DC
:100070000C9448050C9448050C9448050C944805CC
:100080000C9448050C9448050C9448050C944805BC
:100090000C9448050C9448050C9448050C944805AC
:1000A0000C9448050C9448050C9448051D071F073F
:1000B0002A07210723072507270729072C072E07CB
:1000C00030073B0732073407360738073A073D0742
:1000D0000F1A0F1A411A411A7F1A9D1A251C251C46
:1000E000DF1A251C821B821BF41BFD1B251C1E1CFA
:1000F0008F1B8F1B8F1B8F1B8F1B8F1B8F1B8F1BB0
:100100008F1B8F1B8F1B8F1B8F1B8F1B8F1B8F1B9F
:10011000A01BAE1BB51BBC1BC61BB61CB61CC81C4B
:10012000C81CBF1CC81CC81CC81CB61CB61CC41CE0
:10013000C81CC81CC41C882FAF2FA730AF2FA730F6
:10014000FB2F1E30A7307530843007634236B79BD3
:10015000D8A71A39685618AEBAAB558C1D3CB7CC27
:100160005763BD6DEDFD753EF6177231BF0000009F
:10017000803F05A84CCDB2D44EB93836A9020C50F8
:10018000B9918688083CA6AAAA2ABE000000803F32
:1001900000F035001E001F00200021002200230077
:1001A00024002500260027002D002E002A002A000A
:1001B0002B00000014001A000800150017001C0096
:1001C00018000C00120013002F003000310029002D
:1001D000000004001600070009000A000B000D00D3
:1001E0000E000F003300340028000000E100010081
:1001F0001D001B000600190005001100100036004C
:1002000037003865000052004C00E000E3000000B9
:10021000E2002C000000015100002C000000E4006E
:100220000151500051004F0029003A003B003C00B2
:100230003D003E003F004000410042004300AA0054
:10024000A900A6004C0001000000010001005200BE
:100250000100010001000100520001000100010045
:100260000100005C390000004A00500051004F00BE
:1002700001004A00500051004F004D0001000100F4
:1002800000000100010001000100BB5CBD5CBC5C22
:100290000100010001000100010000004B0001000D
:1002A0000100010000000100280000000100000022
:1002B00001000000010001004A004E004D004445CD
:1002C0004255473A20656E61626C65642E0A000AE9
:1002D000002530313662003A200025303258000ABD
:1002E000722F63203031323334353637383941425A
:1002F000434445460A0054494D45523320646973CE
:1003000061626C65642E0A0054494D455233206584
:100310006E61626C65642E0A007267626C69676860
:10032000742073657420687376205B4E4F4545508A
:10033000524F4D5D3A2025752C25752C25750A00E8
:100340007267626C6967687420736574206873767D
:10035000205B454550524F4D5D3A2025752C257543
:100360002C25750A007267626C6967687420726177
:10037000696E626F7720736574206873763A202502
:10038000752C25752C25642C25750A007267626C06
:10039000696768742064697361626C65205B4545B8
:1003A00050524F4D5D3A207267626C696768745FA6
:1003B000636F6E6669672E656E61626C65203D20B5
:1003C00025750A007267626C6967687420656E61E2
:1003D000626C65205B454550524F4D5D3A20726717
:1003E000626C696768745F636F6E6669672E656EBD
:1003F00061626C65203D2025750A007267626C6938
:1004000067687420746F67676C65205B4545505260
:100410004F4D5D3A207267626C696768745F636F05
:100420006E6669672E656E61626C65203D2025757C
:100430000A007267626C69676874206D6F6465207A
:100440005B4E4F454550524F4D5D3A2025750A0091
:100450007267626C69676874206D6F6465205B45C4
:100460004550524F4D5D3A2025750A007267626C07
:10047000696768745F696E6974207267626C696726
:1004800068745F636F6E6669672E6D6F6465203D8B
:1004900020302E2057726974652064656661756C22
:1004A000742076616C75657320746F2045455052D9
:1004B0004F4D2E0A007267626C696768745F696EDF
:1004C0006974206565636F6E666967206973206E65
:1004D0006F7420656E61626C65642E0A00726762DB
:1004E0006C696768745F696E697420737461727493
:1004F000210A007267626C696768745F696E69746B
:100500002063616C6C65642E0A007267626C6967B7
:1005100068745F636F6E6669672E737065656420CB
:100520003D2025640A007267626C696768745F63C6
:100530006F6E6669672E76616C203D2025640A0027
:100540007267626C696768745F636F6E6669672E55
:10055000736174203D2025640A007267626C6967CC
:1005600068745F636F6E6669672E687565203D20ED
:1005700025640A007267686C696768745F636F6EF0
:100580006669672E6D6F6465203D2025640A0072E0
:1005900067626C696768745F636F6E6669672E6512
:1005A0006E61626C65203D2025640A007267626C92
:1005B000696768745F636F6E666967206570726FE4
:1005C0006D0A0000046801F000B40078005A007F52
:1005D0003F1F643214643214783C1E1E140A050056
:1005E00000000000010101010101010101020202FC
:1005F00002020202020203030303030303030404CF
:100600000404040405050505050606060606070795
:100610000707080808080909090A0A0A0A0B0B0B48
:100620000C0C0C0D0D0D0E0E0F0F0F1010111111E3
:100630001212131314141515161617171818191962
:100640001A1A1B1C1C1D1D1E1F1F202021222223C5
:1006500024252526272728292A2B2B2C2D2E2F2F02
:1006600030313233343536363738393A3B3C3D3E1B
:100670003F4041424344464748494A4B4C4D4F5006
:10068000515253555657585A5B5C5E5F60626364C3
:100690006667696A6C6D6E707173747678797B7C4D
:1006A0007E8081838486888A8B8D8F9192949698A0
:1006B0009A9B9D9FA1A3A5A7A9ABADAFB1B3B5B7B9
:1006C000B9BBBDBFC1C4C6C8CACCCFD1D3D6D8DA96
:1006D000DCDFE1E4E6E8EBEDF0F2F5F7FAFCFF0A27
:1006E000002530325820006B6579626F6172645F5B
:1006F0007265706F72743A20000A0025303258001B
:100700006B6579626F6172645F7365745F6C656459
:100710003A200064656C5F6B65795F6269743A20AA
:1007200063616E27742064656C3A20253032580A64
:10073000006164645F6B65795F6269743A2063612C
:100740006E2774206164643A20253032580A0029EB
:100750000A002575002F002575005D28002564001E
:100760002000256400200025640020002564007C12
:100770000025303258006D6F7573656B6579205BAD
:1007800062746E7C782079207620685D28726570AE
:100790002F61636C293A205B006261636B6C69674F
:1007A000687420737465703A2025750A006261636D
:1007B0006B6C6967687420746F67676C653A202595
:1007C000750A006261636B6C6967687420646563B5
:1007D00072656173653A2025750A006261636B6C0E
:1007E0006967687420696E6372656173653A202574
:1007F000750A005B735D004B6579626F61726420FE
:1008000073746172742E0A005B575D005B535D0068
:100810005B525D005B445D005B435D0004033000A0
:1008200000000A0344005A003600300000001003A4
:100830004B0042004400460061006E00730000005F
:100840000403090409028D00050100A0FA0904004F
:1008500000010301010009211101000122400007EC
:1008600005810308000A09040100010301020009CF
:100870002111010001224D000705820308000A0929
:1008800004020001030000000921110100012236C9
:10089000000705830308000A09040300020300009F
:1008A0000009211101000122220007058403200014
:1008B00001070504032000010904040001030000EE
:1008C00000092111010001223900070585032000DC
:1008D000011201100100000008EDFE60220100017C
:1008E00002030105010906A101050719E029E71521
:1008F0000025019508750181020508190129059552
:1009000005750191029501750391010507190029EB
:10091000F71500250195F875018102C00631FF0920
:1009200074A1010975150026FF0095207508810244
:100930000976150026FF00952075089102C0050173
:100940000980A10185021601002603001A81002AF0
:100950008300751095018100C0050C0901A1018576
:1009600003160100269C021A01002A9C02751095AC
:10097000018100C005010902A1010901A1000509C9
:1009800019012905150025019505750181029501BB
:10099000750381010501093009311581257F950213
:1009A0007508810609381581257F9501750881062E
:1009B000050C0A38021581257F950175088106C04E
:1009C000C005010906A101050719E029E715002561
:1009D00001950875018102950175088101050819C5
:1009E0000129059505750191029501750391010590
:1009F00007190029FF150026FF00950675088100DC
:100A0000C00011241FBECFEFDAE0DEBFCDBF04B6B9
:100A100003FE27C08091C9029091CA02A091CB0227
:100A2000B091CC028730904BA740B04BD1F41092DC
:100A3000C9021092CA021092CB021092CC0214BECC
:100A400084B7877F84BF0FB6F894A8958091600023
:100A5000886180936000109260000FBEE0E0F8E3D0
:100A6000099511E0A0E0B1E0E6EEF9E602C00590DC
:100A70000D92AA35B107D9F722E0AAE5B1E001C08D
:100A80001D92A93CB207E1F70E94682B0C94F13447
:100A90000C940000FF93EF93E0915A01F0915B01F9
:100AA000309709F00995EF91FF910895FC01859128
:100AB000803011F0EFDFFBCF0895FF27E0E230E256
:100AC00047FF0CC0419597FF09C0EDE26095709516
:100AD00080959095611D711D811D911D27FF02C09C
:100AE000219530E350E2AA27660F771F881F991FD0
:100AF000AA1FA41710F0A41B63955A95A9F7AA3052
:100B000008F0A95FA05DAF93F395611571058105AC
:100B1000910541F7ED3211F4EF93F395F21718F4C4
:100B20003F93F395FBCF8F91B5DFFA95E1F70895E9
:100B3000E991F9918591803021F0853219F0AADF91
:100B4000F9CF089520E0E89455915532C1F3503320
:100B500011F4689455915A3348F4505390F3220F8E
:100B6000022E220F220F200D250FF4CF0EF4219517
:100B700089919991533619F3533729F1533559F126
:100B8000BC0188279927E8945C3621F489919991D2
:100B900068945591543639F446EF7EF077FF0DC0D6
:100BA0008FEF9FEF0AC055374AE039F0583540E1E2
:100BB00021F0523642E009F00895FF93EF937DDF74
:100BC000EF91FF91B7CFFF93EF93FC0181918030BC
:100BD000B9F360DFFBCFFF93EF9368DFF1CFDF93D3
:100BE000CF93CDB7DEB72596A3DFCF91DF910895E0
:100BF00080911501909116018130910521F00297A5
:100C000029F485E301C089E20E946D191092160152
:100C1000109215010895FC018081813049F487818B
:100C2000811109C08085882331F082E090E0089529
:100C300088E090E0089581E090E008950E940B061E
:100C400090931601809315018130910519F0029758
:100C500019F0089589E201C085E30C9476180C948C
:100C60007F0C229A2A9A08950E94800C0C943106D7
:100C70000C949409CF93DF9361111FC0EC010E9483
:100C8000D022282F22723A8180911A0190911B0163
:100C9000332341F0222311F065E301C069E20E9491
:100CA000032407C0222311F065E301C069E20E941A
:100CB0000E24DF91CF910C949D22DF91CF91089566
:100CC00081E0089581E008950C9462060E94A21CC0
:100CD0002FEF84E39CE0215080409040E1F700C07A
:100CE00000000C940A25FF920F931F93CF93DF937C
:100CF0008C01FC01C081D1818091B501811113C0AB
:100D00008281882349F0CE010E94FF21F82E682FAE
:100D1000CE010E94A82104C0CE010E94D321F82E4A
:100D2000BE018F2D04C0CE010E94FF21BE010E9492
:100D30009A09EC01B8010E94C315B801CE010E94C6
:100D40006406882309F477C2B801CE010E94081610
:100D5000882309F470C2B801CE010E94300C8823A8
:100D600009F469C2C93CFCE5DF0741F4F80182815E
:100D7000882309F460C20E94FB0E5DC2CA3C8CE568
:100D8000D80708F017C1C13C9CE5D90761F4F80108
:100D90008281882309F44FC20E94D0228272F1F02E
:100DA0000E94BB1148C2C23CECE5DE07D0F0F8015E
:100DB0008281C53CFCE5DF0709F4D1C008F0E1C041
:100DC000C33CECE5DE0709F4D0C008F0D4C08823AA
:100DD00009F431C20E94D022827211F30E94B11133
:100DE0002AC2C531FCE5DF0708F082C0C2308CE5BD
:100DF000D80708F452C0F8018281882309F459C049
:100E00000E945F23811102C00E9439230E94722335
:100E100090E09093BA028093B902FE01E350FC4542
:100E2000E231F10530F4EA5AFF4F8091B9020C9497
:100E300089348091B902816027C0826025C08460B6
:100E400023C0806121C080621FC080641DC0806893
:100E50001BC08460886018C08E7F16C08D7F14C050
:100E60008B7F12C08F7E10C08F7D0EC08F7B0CC019
:100E70008F770AC08B7F877F07C087FB222720F9E7
:100E800091E0922790FB87F98093B9028091B90293
:100E90000E9476230E94A21CCEC1C1159CE5D907F1
:100EA00081F0C130DC45A9F081E08093610180933D
:100EB0006201C801DF91CF911F910F91FF900C94B7
:100EC0006006F8018281882309F4B5C10E94660694
:100ED000B2C1F8018281882309F4ADC180914D022D
:100EE000816080934D028EEB92E00E945605A3C173
:100EF000C531FCE5DF0739F50E94D022982FF801B3
:100F0000828120911A0130911B01882379F09A7A0D
:100F100081E009F480E080935C01911102C069E2F4
:100F200001C065E3C9010E9403240AC080915C01ED
:100F3000811102C069E201C065E3C9010E940E246B
:100F40000E949D2278C1C03CDC4509F0ADCFF8017C
:100F50008281882309F46FC10E946B126CC18823BF
:100F600009F469C10E94BE1066C1882309F463C1F7
:100F70000E94871060C1882309F45DC10E949F1000
:100F80005AC1C73C9CE5D90731F4882309F453C101
:100F90000E94F31050C1C83CDC4530F4882309F4AA
:100FA0004AC10E94D91047C1882309F444C10E9454
:100FB0000E1141C1C13DFCE5DF0749F4F801828112
:100FC000882309F438C188E10E94AE1134C1C23DC2
:100FD0008CE5D80708F087C0F8018281CD3CFCE59C
:100FE000DF07A1F4882309F426C10E94ED0E6630C4
:100FF00071058105910540F00E94ED0E6830710584
:101000008105910508F4EACE86E0DECFCE3C9CE572
:10101000D90730F5CB3CECE5DE0729F4882309F449
:101020000AC181E0D1CFCC3CDC4530F4882309F4FF
:1010300002C10E94100FFFC0882309F4FCC00E9467
:10104000ED0E623071058105910540F00E94ED0EB4
:10105000653071058105910508F4C0CE82E0B4CFFA
:10106000CF3C9CE5D907A1F4882309F4E4C00E9491
:10107000ED0E6F3071058105910540F00E94ED0E77
:10108000643171058105910508F4A8CE8FE09CCFED
:10109000C03DDC45A0F4882309F4CDC00E94ED0ECC
:1010A000693071058105910540F00E94ED0E6E30AA
:1010B00071058105910508F491CE89E085CF8823DB
:1010C00009F4B9C00E94ED0E6531710581059105E5
:1010D00040F00E94ED0E673171058105910508F41D
:1010E0007DCE85E171CFC53DFCE5DF0739F5F8011F
:1010F0008281882361F0109262010E94AE24909355
:10110000600180935F0180E20E94CC1994C08091BD
:10111000620181110FC080915F01909160010E9476
:10112000BA24883C910530F487E20E94761887E261
:101130000E946D1980E20E94D3197DC0C63D8CE5E6
:10114000D80708F043C0F8018281C33DFCE5DF0702
:1011500029F4882309F46FC083E236CFC43DDC450F
:10116000A0F4882309F467C00E94ED0E693171056F
:101170008105910540F00E94ED0E623271058105F6
:10118000910508F42BCE89E11FCF882351F01092EE
:1011900061010E94AE2490935E0180935D0182E024
:1011A000B3CF8091610181110FC080915D01909159
:1011B0005E010E94BA24883C910530F486E20E94C8
:1011C000761886E20E946D1982E0B5CFC93DECE544
:1011D000DE0731F4F8018281882369F180E009C0DB
:1011E000CA3DFCE5DF0741F4F8018281882319F14B
:1011F00082E00E94102C1FC0C63DDC4509F054CE91
:10120000F8018281811177CF80916201811192CFA3
:1012100080915F01909160010E94BA24883C910501
:1012200008F088CF80E20E94D31988E20E947618E5
:1012300088E20E946D1980E0DF91CF911F910F919C
:10124000FF9008950E9464160C942F06CF92DF92AF
:10125000EF92FF92863030F4811105C090918000AA
:101260009F7D04C085E09091800090629093800003
:10127000282F30E0AFEFBFEF0E948F3425E030E041
:1012800040E050E00E946734C9012C3764E1360722
:1012900028F469E070E00E943F3429C0DA01C901F6
:1012A0008A50974DAF4FBF4F6627782F892F9A2FBF
:1012B00025EF38E241E050E00E94673469017A018D
:1012C000CA01B9010E9423349B01AC01C701B601D8
:1012D0000E942334BB27A92F982F872F009721E046
:1012E000A207B10511F0BC0102C06FEF7FEF709350
:1012F0008B0060938A00FF90EF90DF90CF9008956D
:10130000269A2E9882E28093800089E18093810062
:101310008FEF9FEF90938700809386000C94E627D1
:101320000E9480090C94340608950C94380680E0DD
:1013300090E008952BE4829FC0011124FC012FE06E
:10134000729FE00DF11D1124E60FF11DEE0FFF1F3E
:10135000EE56FE4F859194910895880F991FFC01D8
:10136000E057FE4F859194910895CF93DF930E94AB
:101370009A090E94900BEC01811521E5920708F073
:1013800042C0811540E5940708F01CC1883E9105D4
:1013900000F5803E910508F0BFC1883A910570F4D0
:1013A000853A910508F099C08130910509F4B4C1DE
:1013B00008F46BC1049708F0AFC167C18D3B91057C
:1013C00008F496C0803C910508F45FC1805C9109E7
:1013D000E8C0C11580E3D80780F4C11520E2D20728
:1013E00008F0DDC0C03FD10508F44FC1CF3FD105A3
:1013F00011F008F091C1D0658FC1C11540E4D40748
:1014000008F0DDC0D2C0C11589E5D80740F5C11587
:1014100028E5D20708F023C1C11544E5D40778F4C4
:10142000C11583E5D80708F0FFC0C11522E5D20732
:1014300008F0E4C0DC2FCC27C16FD06A6DC1C115A4
:1014400045E5D40708F406C1C11586E5D80708F0BC
:101450001CC1CF71DD27DC2FCC27D0625DC1CB3B17
:101460002CE5D20709F408C1C0F4C93B8CE5D807C4
:1014700009F4FCC008F0FDC0C1154AE5D40708F026
:1014800004C1CE0124E0969587952A95E1F78F70E7
:10149000CF70C06ED0E0D06AE7C0CE3B8CE5D807F5
:1014A00009F4F0C060F4CC3B4CE5D40709F4E7C084
:1014B000CD3BDC4509F0E9C0C0E0D2ED2DC1CE0145
:1014C00090568115904208F0E0C08D2F8F710E94D8
:1014D0000C0CDD27D0628F71C7C0853A910509F4E5
:1014E000D7C0863A910509F0D6C0C2E8D0E414C14D
:1014F000883A910509F4D2C0893A910509F4D1C01E
:101500008A3A910509F4D0C08B3A910509F4CFC00D
:101510008C3A910509F4CEC08B3B910509F4CDC0FE
:101520008C3B910509F4CCC08D3A910509F4CBC0F0
:10153000803B910509F4CAC08E3A910509F4C9C0EF
:101540008F3A910509F4C8C0813B910509F4C7C0E1
:10155000823B910509F4C6C0833B910509F4C5C0DF
:10156000843B910509F4C4C0853B910509F4C3C0CF
:10157000863B910509F4C2C0873B910509F4C1C0BF
:10158000883B910509F4C0C0893B910509F4BFC0AF
:101590008A3B910509F4BEC0C0E0D4E4BDC0CE01D1
:1015A0009F700E94AD09EC01B7C0CE019927D3FF0F
:1015B00003C0EC01D86CB0C0EC01D06CADC0DF70E2
:1015C000D06AAAC074E0969587957A95E1F7282F9E
:1015D00023703C2F337081E090E002C0880F991F88
:1015E0003A95E2F79C68922BCF70C695C69540E27B
:1015F000C49FE0011124C82BD92B8EC0CE0183706B
:10160000992721E030E002C0220F331F8A95E2F7CC
:101610008C2F8695869540E2849FC0011124E901B4
:10162000C82BD92BDC6878C0CE018370992721E0C4
:1016300030E002C0220F331F8A95E2F78C2F869587
:10164000869540E2849FC0011124E901C82BD92B63
:10165000DA6862C0DC2FCC27C46FD06A5DC0DC2F93
:10166000CC27C06FD06A58C0D82B56C0C0E0D4ED8C
:1016700053C0C0E0D5ED50C0C0E0D1ED4DC0C0E0DA
:10168000D0ED4AC0C0E0D3ED47C0C0E0D0E044C0D8
:10169000C1E8D0E441C0C3E8D0E43EC0C2EED4E427
:1016A0003BC0C9EED4E438C0CAEED4E435C0C5EBC3
:1016B000D4E432C0C6EBD4E42FC0C3EBD4E42CC0D6
:1016C000C4EBD4E429C0C7EBD4E426C0CCECD4E40A
:1016D00023C0CDECD4E420C0C3E8D5E41DC0CAE8E3
:1016E000D5E41AC0C2E9D5E417C0C4E9D5E414C0F2
:1016F000C1E2D6E411C0C3E2D6E40EC0C4E2D6E42F
:101700000BC0C5E2D6E408C0C6E2D6E405C0C7E215
:10171000D6E402C0CAE2D6E4CE01DF91CF910895AB
:101720008238910549F1B0F48133910509F459C02B
:1017300048F48932910509F44FC08A32910509F4C1
:1017400055C008958533910509F441C08933910549
:1017500099F00895833E910531F138F4803E91056A
:1017600091F0823E9105A9F00895863E910501F120
:10177000873E910539F108952091B90220FD3BC0C3
:1017800021FD39C008958091B90280FF34C089E3FA
:1017900041C08091B90282FF30C08091B90284FDBE
:1017A0002EC083EE37C08091B90282FD26C0F5CFEE
:1017B0008091B90283FF25C08091B90284FD1FC0CA
:1017C00087EE28C08091B90283FD1BC0F5CF8091C0
:1017D000B90285FD18C019C08091B90285FD15C0F8
:1017E00012C08091B90286FD12C013C08091B90267
:1017F00086FD0FC00CC080EE0DC082EE0BC080E0F5
:1018000009C086EE07C089E205C085E303C08AE20D
:1018100001C081E390E008959091B90292FF0DC05C
:10182000282F2871283019F4877F846006C0282F5C
:101830002471243011F48B7F886093FF0DC0282F12
:101840002871283119F4877E846106C0282F2471FD
:10185000243111F48B7E886194FD877E089508956C
:101860000F931F93CF93FB012281211102C0C1E08E
:1018700041C08C01C0917001C11125C086319C45C9
:10188000B1F70E942F0C81E0809370010E94AE247A
:1018900090936F0180936E01109263011092650125
:1018A0001092640110926701109266011092690112
:1018B0001092680110926B0110926A0110926D01F2
:1018C00010926C0117C080916E0190916F010E947F
:1018D000BA248C32914058F690916301E92FF0E0E0
:1018E000EE0FFF1FEC59FE4F118300839F5F909313
:1018F0006301C0E08C2FCF911F910F91089508953F
:101900000C947F0CCF93DF93ACE3B1E041E451E062
:1019100061E070E08D91E82FE295EF70F0E021A199
:101920008F70EB0102C0CC0FDD1F8A95E2F7CE016C
:101930009C2F9095922391A392A1892B82A34A1761
:101940005B0741F7ADE2B1E04CE351E061E070E0EC
:101950008D91E82FE295EF70F0E021A18F70EB01FF
:1019600002C0CC0FDD1F8A95E2F7CE019C2F909527
:10197000922391A392A1892B82A34A175B0741F777
:10198000EBE7F1E0A1E7B1E085E891E01192119277
:101990001D921D928E179F07C9F7DF91CF910C946E
:1019A00090092F923F924F925F926F927F928F9207
:1019B0009F92AF92BF92CF92DF92EF92FF920F93DE
:1019C0001F93CF93DF932CE3C22E21E0D22E01E7A9
:1019D00011E0E801EE24E394F12C662463945E01A7
:1019E0008880998019821882D6018D916D01E82F27
:1019F000E295EF70F0E021A18F70A70102C0440FC3
:101A0000551F8A95E2F7CA01242B21A322A1742E27
:101A10007094272122A350EA5A95F1F79DE2292ECE
:101A200091E0392E20E030E0D1015D901D01452D7F
:101A300042954F7050E0DA0190964C906881798120
:101A4000552D5F70D70102C0AA0FBB1F5A95E2F750
:101A5000AD01442141F4A701022E02C0440F551FDD
:101A60000A94E2F702C040E050E0462B572B59831E
:101A700048832F5F3F4F2F303105B1F691A1792276
:101A800071A292A1892B82A32296F5018081918176
:101A90008816990641F0609285010E94AE249093C9
:101AA000870180938601F1E0CB37DF0709F097CFFC
:101AB000809185018823B1F0809186019091870102
:101AC0000E94BA24069770F0EBE7F1E0D8018D91FF
:101AD0009D918D0181939193B1E00B371B07B1F775
:101AE000109285010E94220981E0DF91CF911F9120
:101AF0000F91FF90EF90DF90CF90BF90AF909F90AD
:101B00008F907F906F905F904F903F902F900895AF
:101B1000E82FF0E0EE0FFF1FE558FE4F8081918126
:101B20000895CF92DF92EF92FF920F931F93CF937E
:101B3000DF938FED92E00E9456058BE7E82E81E05F
:101B4000F82EC0E0D0E09AEDC92E92E0D92E01ED3A
:101B500012E0DF93CF93DF92CF920E94EF0587EDE3
:101B600092E00E945605F701819191917F010E94B8
:101B700026239F938F931F930F930E94EF058FEC63
:101B800092E00E94560521968DB79EB708960FB633
:101B9000F8949EBF0FBE8DBFC530D105D1F6DF9141
:101BA000CF911F910F91FF90EF90DF90CF9008950C
:101BB000EF92FF920F931F93CF93DF93E901662378
:101BC00009F44BC0242F30E0EFEFF0E0E61BF10901
:101BD000B901E69F9001E79F300DF69F300D11246B
:101BE000232F8B01031B11095CE3E52EF12CB701B8
:101BF0000E943F34FB01BC01069FC001079F900D6E
:101C0000169F900D1124B7010E943F34E230F10578
:101C1000B1F040F4309779F0319711F5832F242FEC
:101C2000461B21C0E430F105A1F068F03597C1F4FE
:101C3000842F861B18C0832F262F230F14C0862FB6
:101C4000830FE42F03C0E42FE61B842F432F2E2F96
:101C50000AC0842F462F430F06C0842F242F03C0B1
:101C600080E020E040E0E42FF0E0E152FA4F4491C0
:101C7000E22FF0E0E152FA4F9491E82FF0E0E152C8
:101C8000FA4FE49149839883EA83DF91CF911F91C2
:101C90000F91FF90EF90089588E090E00C94B1349C
:101CA000AB01BC0188E090E00C94CF34EEE7F2E0A9
:101CB00083E0808310927F028FEF8283838314827C
:101CC00060817181828193810C94500E80914D02CC
:101CD00080FF08C08CEA95E09F938F930E94EF05E8
:101CE0000F900F9080914D0280FF0FC080917E0277
:101CF00081701F928F938FE895E09F938F930E943E
:101D0000EF050F900F900F900F9080914D0280FF84
:101D100010C080917E0286958F731F928F9384E707
:101D200095E09F938F930E94EF050F900F900F9077
:101D30000F9080914D0280FF19C080917E02881F14
:101D40008827881F90917F02292F220F822B97FBD3
:101D5000992790F99F938F938AE595E09F938F93AE
:101D60000E94EF050F900F900F900F9080914D0201
:101D700080FF0EC0809180021F928F9380E495E0D7
:101D80009F938F930E94EF050F900F900F900F90ED
:101D900080914D0280FF0EC0809181021F928F932F
:101DA00086E295E09F938F930E94EF050F900F902E
:101DB0000F900F9080914D0280FF0EC080918202A3
:101DC0001F928F938AE095E09F938F930E94EF0577
:101DD0000F900F900F900F90089560917E0260FF1A
:101DE00006C066956F7370E080E090E0089560E053
:101DF00070E0CB0108958091820290E001968430DA
:101E0000910514F083E090E08093820260917E025D
:101E100070917F0280918002909181020C94500E0B
:101E20008091820290E0019797FF02C080E090E0ED
:101E30008430910514F083E090E0809382026091F9
:101E40007E0270917F0280918002909181020C94B9
:101E5000500E80917E0280FF06C060E170E083E852
:101E600092E00C946015E3E8F2E011821082128295
:101E7000339682E0E33BF807C1F7EFCF90917E0203
:101E800090FF0CC0E3E8F2E08183608342833396E5
:101E900092E0E33BF907C1F70C94290F0895CF9323
:101EA000DF9300D01F92CDB7DEB720917E0220FFD6
:101EB0000AC09E012F5F3F4F0E94D80D4B81698160
:101EC0008A810E943E0F0F900F900F90DF91CF916B
:101ED00008952F923F924F925F926F927F928F92CE
:101EE0009F92AF92BF92CF92DF92EF92FF920F93A9
:101EF0001F93CF93DF93CDB7DEB727970FB6F89434
:101F0000DEBF0FBECDBF8C01462E542E2F83809195
:101F10007E0280FFE0C0982F9E77923061F49E0190
:101F20002F5F3F4FC8010E94D80D4B8169818A8184
:101F30000E943E0F83C0E82FE695EF739EE39E0F4D
:101F40009F73943018F45090810278C09AE39E0FEA
:101F50009F73993068F4881F8827881F90917F02AB
:101F6000292F220F022F082B97FB112710F966C08B
:101F700087E28E0F8F738A3008F060C0F0E07997A7
:101F8000E0FD03C021E02C8302C03FEF3C83EE7FE5
:101F9000EB53FA4F85909490C40124E09695879571
:101FA0002A95E1F72C81622E220F7708869D9001F9
:101FB000879D300D969D300D11243E832D83580151
:101FC00038E9A31A3EEFB30A33E8C32E32E0D32E2A
:101FD000E12CF12CC50168E671E00E943F341C0140
:101FE00080914D0280FF14C09F928F927F928C81CE
:101FF0008F933F922F92FF92EF9225E633E03F932B
:102000002F930E94EF050FB6F894DEBF0FBECDBF31
:102010009601452D642DC1010E94D80D3FEFE31AB2
:10202000F30A8D819E81A80EB91E93E0C90ED11CC2
:1020300020E1E216F10471F60E94290F80917E02E0
:1020400000FB87F980937E0280917F028078902F39
:102050009695892B10FB87F980937F02409280022E
:10206000509281023F81332321F160917E02709171
:102070007F0280918002909181020E94500E809197
:1020800081021F928F93809180021F928F93809183
:102090007E02881F8827881F90917F02292F220F98
:1020A000822B97FB992790F99F938F9380E493E07D
:1020B00009C01F925F921F924F9211701F930F934E
:1020C00089E193E09F938F930E94EF050FB6F894F8
:1020D000DEBF0FBECDBF27960FB6F894DEBF0FBE92
:1020E000CDBFDF91CF911F910F91FF90EF90DF90C7
:1020F000CF90BF90AF909F908F907F906F905F90A8
:102100004F903F902F90089521E00C94690FEEE7D7
:10211000F2E02081221F2227221F30917F02432FCD
:10212000440F842F822B37FB992790F9089668E695
:1021300071E00E945334438162810C948410209199
:102140007E02221F2227221F30917F02432F440F3D
:10215000842F822B37FB992790F9883091051CF446
:10216000805A9E4F05C0089768E671E00E9453347C
:1021700040918102609180020C94841060918002F1
:10218000862F90E0883F910514F4685F01C06FEFDF
:1021900080917E02881F8827881F90917F02292FB7
:1021A000220F97FB992790F940918102822B0C9482
:1021B000841060918002862F90E0089714F0685098
:1021C00001C060E080917E02881F8827881F90915F
:1021D0007F02292F220F97FB992790F940918102C6
:1021E000822B0C94841040918102842F90E0883FD0
:1021F000910514F4485F01C04FEF80917E02881F63
:102200008827881F90917F02292F220F97FB9927FB
:1022100090F960918002822B0C948410409181028D
:10222000842F90E0089714F0485001C040E080915E
:102230007E02881F8827881F90917F02292F220FF6
:1022400097FB992790F960918002822B0C9484105F
:1022500020E00C94690F81E08093A10180914D02F0
:1022600080FF08C088E093E09F938F930E94EF0562
:102270000F900F9008951092A10180914D0280FF60
:1022800008C086EF92E09F938F930E94EF050F9016
:102290000F90089590917E0290FF5FC09178811118
:1022A00002C0926007C0843210F0966403C08F733E
:1022B000880F982B90937E02662399F060917E029E
:1022C00070917F0280918002909181020E94500E55
:1022D00080917E0286958F731F928F9380E594E0A4
:1022E00008C080917E0286958F731F928F9382E340
:1022F00094E09F938F930E94EF050F900F900F90A3
:102300000F9080917E02282F2E77223019F40E94A0
:102310003B1110C086958F739EE3980F9F73973182
:1023200010F0263419F40E942B1104C0895D8F73BC
:102330008A3068F380917E02881F8827881F9091D9
:102340007F02292F220F97FB992790F94091810254
:1023500060918002822B0C942811089561E00C9406
:102360004A1180917E0286958F738F5F843208F0C8
:1023700081E00C94AE1180917E0286958F7381501E
:1023800009F483E20C94AE11CF93DF93CEE7D2E051
:102390008881816088831F9281E08F9384EC93E031
:1023A0009F938F930E94EF050F900F900F900F90C7
:1023B000888186958F73DF91CF910C94AE1160E088
:1023C0000C944A1180914D02816080934D0283EFFD
:1023D00094E09F938F930E94EF0580914D020F90A0
:1023E0000F9080FF08C08DED94E09F938F930E9423
:1023F000EF050F900F900E945F23811110C0809114
:102400004D0280FF08C085EB94E09F938F930E945C
:10241000EF050F900F900E9439230E94560E0E94E4
:102420004C0E60937E0270937F02809380029093A3
:1024300081026E77C1F480914D0280FF08C08CE666
:1024400094E09F938F930E94EF050F900F900E944E
:10245000560E0E944C0E60937E0270937F02809312
:102460008002909381020E94660E81E08093A10118
:1024700080917E0280FF04C086958F730C94DF11DB
:102480000895CF93DF93CEE7D2E088818E7F888353
:10249000688179818A819B810E94500E8881817038
:1024A0001F928F938CE893E09F938F930E94EF0588
:1024B0000E943B112FEF80E792E021508040904036
:1024C000E1F700C000000F900F900F900F90DF9188
:1024D000CF910C94290F80917E02809581701F927C
:1024E0008F938BEF93E09F938F930E94EF058091E2
:1024F0007E020F900F900F900F9080FD0C94411270
:102500000C94C411CF93C82F80919F019091A0018A
:102510000E94BA24EC2FF0E0E552FA4FE491F0E08B
:102520008E179F0708F443C00E94AE249093A00129
:1025300080939F0160919E0170E080E090E00E9496
:10254000243220E030E04FE753E40E9447312BED86
:102550003FE049E450E40E944D330E94BA330E94A8
:10256000C1312BE43AE34EE25FE30E94DA3020EF20
:102570003BEF48ED52E40E944D330E94F331462F69
:1025800080917E02881F8827881F90917F02292FC3
:10259000220F97FB992790F960918002822B0E946D
:1025A0004F0F80919E0190E0019680939E01CF9104
:1025B0000895CF93C82F80919C0190919D010E9416
:1025C000BA24EC2FF0E0E852FA4FE491F0E08E17D5
:1025D0009F07E8F00E94AE2490939D0180939C0198
:1025E000409181026091800280919A0190919B01BB
:1025F0000E944F0F80919A0190919B01019668E68D
:1026000071E00E943F3490939B0180939A01CF9197
:102610000895CF92DF92FF920F931F93CF93DF9392
:10262000F82E80919801909199010E94BA24EF2D83
:10263000E695F0E0EB52FA4FE491F0E08E179F0739
:10264000C0F10E94AE24909399018093980103E811
:1026500012E0C0E0D0E088E6C82EDD24D39480915B
:102660009601909197018C0F9D1FB6010E943F34F7
:10267000980140918102609180020E94D80D669677
:102680000D5F1F4FC03681E0D80749F70E94290F20
:102690008091960190919701F0FE06C0019668E640
:1026A00071E00E943F3401C001979093970180939D
:1026B0009601DF91CF911F910F91FF90DF90CF9006
:1026C0000895CF92DF92EF92FF920F931F93CF93D3
:1026D000DF93C82F80FF02C01FEF01C011E080917F
:1026E0009401909195010E94BA24C695EC2FF0E0D8
:1026F000EE52FA4FE491F0E08E179F0708F458C0AD
:102700000E94AE249093950180939401C3E8D2E097
:10271000E12CF12C198218821A8294E0C92ED12C56
:1027200000E080919301800F87FD805F082E000CF0
:10273000990BE816F906E9F4809181028C9DA001BD
:102740008D9D500D11245595479555954795809130
:102750007E02881F8827881F90917F02592F550F6E
:1027600097FB992790F99E0160918002852B0E942A
:10277000D80D010F81E0C81AD10899F68FEFE81A39
:10278000F80A239680E1E816F10421F60E94290F49
:1027900080919301113031F4811102C08FE006C0A5
:1027A000815004C090E001968F7099278093930127
:1027B000DF91CF911F910F91FF90EF90DF90CF901D
:1027C00008950F931F93CF93DF93C82F80919101AA
:1027D000909192010E94BA24EC2FF0E0E153FA4F5D
:1027E000E491F0E08E179F0708F456C00E94AE24D3
:1027F0009093920180939101C3E8D2E0FE0111828F
:1028000010821282339682E0E33BF807C1F700E0C2
:1028100010E080919001082E000C990B0817190701
:10282000ECF080911801082E000C990B801791078D
:10283000ACF080917E02881F8827881F90917F02CC
:10284000592F550F97FB992790F99E0140918102CE
:1028500060918002852B0E94D80D03C019821882D6
:102860001A820F5F1F4F23960031110591F60E94C7
:10287000290F8091170190919001980F90939001EA
:1028800020911801280F20931801121614F49F307C
:102890001CF0819580931701DF91CF911F910F91CB
:1028A0000895EF92FF920F931F93CF93DF93809140
:1028B0008E0190918F010E94BA24883E9340D0F1FE
:1028C0000E94AE2490938F0180938E01C0918C0161
:1028D000D0918D012196C170DD27D0938D01C093D9
:1028E0008C0183E8E82E82E0F82E10E008E7812FC3
:1028F0008695FE01E80FF11DCF01817099279701A0
:102900004091810260918002FC010E9FC0010F9FE7
:10291000900D11240E94D80D1F5FF3E0EF0EF11C03
:10292000103129F7DF91CF911F910F91FF90EF9018
:102930000C94290FDF91CF911F910F91FF90EF9091
:102940000895CF93DF9300D01F92CDB7DEB780916B
:102950008A0190918B010E94BA24E3ECF5E0259165
:10296000349182179307C0F18091890181110CC0C5
:102970009E012F5F3F4F4FEF6FEF80E090E00E948E
:10298000D80D8A81809389010E94AE2490938B0197
:1029900080938A0180918801813051F028F0823043
:1029A00061F4409189010AC08091890140E007C02B
:1029B0006091890140E080E003C040E080E060E099
:1029C0000E943E0F8091880190E0019663E070E0E4
:1029D0000E945334809388010F900F900F90DF91E5
:1029E000CF9108958091A1018823B9F190917E0241
:1029F000892F86958F732EE3280F2F73243018F4B8
:102A000082500C9482122AE3280F2F73233018F47B
:102A100086500C94D91227E3280F2F73263018F410
:102A200089500C94091321E3280F2F73263018F4D2
:102A30008F500C9461132BE2280F2F73233018F45E
:102A400085510C94E113892F8E77803311F40C9407
:102A50005114863411F40C94A11408952EB1342F1E
:102A6000309523233EB1432B3FB7F894FC01680F08
:102A7000791FE617F70789F0819198E04EB90000B9
:102A800000C087FF2EB9880F000000C000C000C042
:102A90002EB900C09A9591F7ECCF3FBF08952DB1A4
:102AA000242B2DB99B01220F331F620F731F0E942D
:102AB0002E1587EC90E00197F1F700C00000089513
:102AC00044E00C944F15CF93DF93EC0181E08F87A6
:102AD0008F810E94D32288850E94E6220E949D2237
:102AE000EA81FB81CE010696309729F06A897B89BD
:102AF000DF91CF910994DF91CF910895EF92FF92EA
:102B00000F931F93CF93DF93FC012085211134C0D5
:102B1000EC01E380F480F7E5FF1A24E12E9DC0016B
:102B20002F9D900D1124DC01A050BF4F1496ED9104
:102B3000FC9115978A5F9E4F309729F052966D91C0
:102B40007C915397099584E18E9D80018F9D100D96
:102B5000112400501F4FF80187810E94D922F801EB
:102B600080850E94EC220E949D2218821F82198675
:102B70001092A3011092A201DF91CF911F910F91AA
:102B8000FF90EF900895DF92EF92FF920F931F93C3
:102B9000CF93DF93FB012281222391F12091190130
:102BA0002F3F71F18C01C0E0D1E0E12CF12CDD244C
:102BB000D39480911901082E000C990B8E159F0556
:102BC000FCF08E818823B9F089859A85801791075A
:102BD00039F48091A2019091A3010817190759F0C7
:102BE000DD868F85811103C0CE010E946315CE0161
:102BF00006960E947E15FFEFEF1AFF0A6496D9CF62
:102C0000DF91CF911F910F91FF90EF90DF9008958A
:102C1000EF92FF920F931F93CF93DF939C01375551
:102C20002F3F310511F008F047C040911901042EE3
:102C3000000C550B4217530714F420931901FB01A4
:102C40007C01828194E1929F8001939F100D112459
:102C5000E801C050DF4F8E8792818E81992311F158
:102C6000FA86E9868F5F8E830E94AE249C878B87CD
:102C70000E940C238F830E94D02288870E94E32227
:102C80009885892B8887E881F981C8018A5F9E4FE2
:102C9000309719F06A897B890995F092A301E09237
:102CA000A2010AC0882341F08F85882329F0C8013A
:102CB0008A5F9E4F0E947E1581E0DF91CF911F9128
:102CC0000F91FF90EF900895CF92DF92EF92FF92D5
:102CD0000F931F93CF93DF93809119018F3FF1F1F1
:102CE000F12C94E1E92E0F2D10E080911901082EAE
:102CF000000C990B801791078CF1E09EF001E19E8A
:102D0000F00D1124E050FF4FC088D188C114D104C8
:102D100019F488ECC82ED12CE09EE001E19ED00D84
:102D20001124C050DF4F8E818823B1F08B859C85A4
:102D30000E94BA24C816D90678F48F85811103C081
:102D4000CE010E946315E09EC001E19E900D11240A
:102D50008A5F9E4F0E947E15F394C5CFDF91CF917D
:102D60001F910F91FF90EF90DF90CF900895909377
:102D7000A9018093A8010895E091A801F091A9010B
:102D8000309721F00190F081E02D099480E00895C2
:102D9000EF92FF920F931F93CF93DF93E091A801DF
:102DA000F091A9013097B1F18C010280F381E02DFF
:102DB000099580914D0282FF2DC080FF04C087EEEF
:102DC00096E00E945605E80110E281EEE82E86E0CA
:102DD000F82E80914D0280FF0BC088811F928F9347
:102DE000FF92EF920E94EF050F900F900F900F90BF
:102DF000115021961111EDCF80914D0280FF0AC034
:102E00008FED96E0DF91CF911F910F91FF90EF90A2
:102E10000C945605DF91CF911F910F91FF90EF9089
:102E20000895E091A801F091A901309721F0048064
:102E3000F581E02D099408952091A6013091A70114
:102E40002817390771F09093A7018093A601E091AC
:102E5000A801F091A901309721F00680F781E02DBB
:102E6000099408952091A4013091A50128173907EC
:102E700071F09093A5018093A401E091A801F091D5
:102E8000A901309721F00084F185E02D099408957F
:102E900008950C94481781E008950E94A52485B7F1
:102EA000806885BF85B7806885BF0E94820C0E94BC
:102EB0002E250E94E6270C94E211CF93C82F809113
:102EC0004D0282FF1EC080FF04C080E097E00E9498
:102ED000560580914D0280FF0CC01F92CF938BEF5F
:102EE00096E09F938F930E94EF050F900F900F90A5
:102EF0000F9080914D0280FF04C089EF96E00E9400
:102F000056058C2FCF910C9495095F926F927F920A
:102F10008F929F92AF92BF92CF92DF92EF92FF92E9
:102F20000F931F93CF93DF93CDB7DEB72A970FB6DA
:102F3000F894DEBF0FBECDBF0E94D10C0E944B178C
:102F4000811111C08FEF89838A831B820E94AE2476
:102F50008160782F9D838C8349815A816B818D811B
:102F60000E94421856C09BEA692E91E0792E00E03B
:102F700010E088248394912C502E802F0E94880D7D
:102F80006C01F301A190B1903F01A826B926A114CC
:102F9000B10431F40F5F1F4F0530110569F7D2CF2F
:102FA00080914D0281FD0E94910D80E090E07401BE
:102FB000082E02C0EE0CFF1C0A94E2F795012E21A8
:102FC0003F21232B09F18E835F82CE20DF2081E019
:102FD000CD2809F480E088870E94AE248160782F94
:102FE0009A8789874E815F8168858A850E94421809
:102FF000000F111FF801E555FE4F80819181E826F1
:10300000F926F182E08205C001968F30910579F6AC
:10301000C1CF0E9443270E94BC169091AA01891734
:10302000D9F00E94BC168093AA012A960FB6F89494
:10303000DEBF0FBECDBFDF91CF911F910F91FF90EB
:10304000EF90DF90CF90BF90AF909F908F907F9048
:103050006F905F900C945D172A960FB6F894DEBFC0
:103060000FBECDBFDF91CF911F910F91FF90EF90D9
:10307000DF90CF90BF90AF909F908F907F906F9098
:103080005F900895CF93DF93CDB7DEB72B970FB640
:10309000F894DEBF0FBECDBF4F83588769877A870C
:1030A0008B87DE01119686E0FD0111928A95E9F782
:1030B00085E0FE01379601900D928A95E1F74981EE
:1030C0005A816B817C818D819E810E946F1F2B961E
:1030D0000FB6F894DEBF0FBECDBFDF91CF9108953C
:1030E000FC01808191810E943E220895882309F489
:1030F000F3C0682F8238C1F40E94BC1681FDECC079
:1031000069E380911A0190911B010E9403240E949F
:103110009D222FEF81EE94E0215080409040E1F716
:1031200000C0000069E319C08338F9F40E94BC169E
:1031300080FDD2C063E580911A0190911B010E942D
:1031400003240E949D222FEF81EE94E021508040C5
:103150009040E1F700C0000063E580911A01909172
:103160001B010E940E240C949D228438C1F40E94FD
:10317000BC1682FDB1C067E480911A0190911B01D9
:103180000E9403240E949D222FEF81EE94E02150A3
:1031900080409040E1F700C0000067E4DECF8CEF94
:1031A000860F813A38F480911A0190911B010E9498
:1031B0000324D9CF80E2860F883048F4677081E01D
:1031C00001C0880F6A95EAF70E94D322CCCF8BE525
:1031D000860F833070F4653A29F0663A31F083E85F
:1031E00090E005C081E890E002C082E890E00C9495
:1031F0001C1788E5860F853108F06EC0683A61F1CA
:10320000693A69F16A3A71F16B3A79F16C3A81F194
:103210006B3B89F16C3B91F16D3A99F1603BA1F107
:103220006E3AA9F16F3AB1F1613BB9F1623BC1F17C
:10323000633BC9F1643BD1F1653BD9F1663BE1F1F8
:10324000673BE9F1683BF1F1693BF9F16A3B09F44D
:103250003FC080E090E03EC082EE90E03BC089EE4F
:1032600090E038C08AEE90E035C085EB90E032C047
:1032700086EB90E02FC083EB90E02CC084EB90E0D5
:1032800029C087EB90E026C08CEC90E023C08DEC49
:1032900090E020C083E891E01DC08AE891E01AC068
:1032A00082E991E017C084E991E014C081E292E0E4
:1032B00011C083E292E00EC084E292E00BC085E28E
:1032C00092E008C086E292E005C087E292E002C088
:1032D0008AE292E00C9432170895882309F45BC0C7
:1032E000682F823879F40E94BC1681FF54C069E3CC
:1032F00080911A0190911B010E9403240E949D223B
:1033000069E310C08338B1F40E94BC1680FF43C04B
:1033100063E580911A0190911B010E9403240E9491
:103320009D2263E580911A0190911B010E940E2459
:103330000C949D22843879F40E94BC1682FF2BC025
:1033400067E480911A0190911B010E9403240E945E
:103350009D2267E4E7CF8CEF860F813A18F380E275
:10336000860F883048F4677081E001C0880F6A9545
:10337000EAF70E94D922DCCF8BE5860F833020F458
:1033800080E090E00C941C17685A653120F480E0CE
:1033900090E00C9432170895882321F00E94D322E4
:1033A0000C949D220895882321F00E94D9220C9428
:1033B0009D2208958F929F92AF92BF92DF92EF92DB
:1033C000FF920F931F93CF93DF937C01D62FC72FCC
:1033D000FC01058102950F70128111110E94F322E8
:1033E0000E949622882379F0112369F080E28D0FE4
:1033F000883048F082E00E947F220E94962291E06D
:10340000D82ED92601C0D12CBC2EB2948FE0B82280
:103410008B2D90E0FC01E859FF4F0C9489348C2FE0
:10342000807FCF70882311F0C295C07F112399F05F
:10343000CC2309F4C4C180E28D0F883010F0D11183
:1034400004C08C2F0E94D32203C08C2F0E94E6223E
:103450000E949D22B4C18D2F0E946D19CC2309F4C6
:10346000F4C180E28D0F883010F0D11104C08C2F90
:103470000E94D92203C08C2F0E94EC220E949D2220
:10348000E4C18C2F807FCF70803211F0C295C07F55
:10349000DD2319F0D130C9F022C0112371F00023CF
:1034A00041F0013031F40E940C238C2B0E94062342
:1034B000CCC10E940C238C2B3AC1002319F001309F
:1034C00009F4C3C10E94092318C0112321F006305A
:1034D00008F0BBC10EC0053008F0B7C10EC0112303
:1034E00051F0002331F0F701858180FF68C18F70B2
:1034F00085838C2F1CC1011173C18C2F1EC18C2F91
:1035000086958695837019F0813061F09EC11123F4
:1035100021F08D2F9C2F937002C080E090E00E94DC
:103520001C17A0C1112321F08D2F9C2F937002C076
:1035300080E090E00E94321795C11123F9F0D53F49
:1035400051F0D63F71F0D43FA9F48091B30290912D
:10355000B40281600BC08091B3029091B40282608A
:1035600005C08091B3029091B40284609093B4023C
:103570008093B3028D2F0E94C9251EC0D53F51F004
:10358000D63F71F0D43FA9F48091B3029091B40278
:103590008E7F0BC08091B3029091B4028D7F05C0E5
:1035A0008091B3029091B4028B7F9093B402809388
:1035B000B3028D2F0E9431260E94B62653C18C2F54
:1035C000837009F04CC0111149C12D2F2295269509
:1035D0002770220F220F6D2F6F70862F90E0A0E0D2
:1035E000B0E04C015D01022E04C0880C991CAA1C9D
:1035F000BB1C0A94D2F7D4FF12C08FE090E0A0E089
:10360000B0E004C0880F991FAA1FBB1F2A95D2F7EC
:10361000BC01CD01609570958095909503C060E0E8
:1036200070E0CB01C695C695C370C23051F080F4EE
:10363000682979298A299B29C13071F00E94BE200E
:103640000DC1682979298A299B290E94D02006C1A9
:103650000E94BE20C501B4010E94AC20FFC011230E
:1036600019F08C2F817001C08695882309F4F6C06B
:103670002D2F229526952770220F220F6D2F6F7008
:10368000862F90E0A0E0B0E04C015D01022E04C066
:10369000880C991CAA1CBB1C0A94D2F7D4FF12C038
:1036A0008FE090E0A0E0B0E004C0880F991FAA1F4F
:1036B000BB1F2A95D2F7BC01CD016095709580950E
:1036C000909503C060E070E0CB01C695C695C370CD
:1036D000C23051F080F4682979298A299B29C130A8
:1036E00071F00E948321BAC0682979298A299B290F
:1036F0000E949521B3C00E948321C501B4010E949C
:103700007121ACC08D2F90E0FC01E05EF109E53144
:10371000F10508F050C0E858FF4F0C948934DF7071
:103720008C2F8F71112331F00E940A218D2F0E945E
:10373000CC198BC00E942B218D2F0E94D31985C0DC
:10374000112341F0053008F080C08C2F8F710E944A
:1037500050217BC0063008F078C0F7CF112339F034
:103760008C2F8F710E940A2170C01123C9F38C2FF6
:103770008F710E942B2169C0112329F08C2F8F712A
:103780000E94F52062C00E94F0205FC0112349F022
:10379000CF718C2F0E940A2163E08C2F0E94762229
:1037A00054C081E00E947F22023008F44EC082E0C3
:1037B0000E947F224AC0112331F0002389F28D2F0D
:1037C0000E94761842C0002391F2D93349F4FFEFEA
:1037D00027EE83E0F15020408040E1F700C0000078
:1037E0008D2F0E946D1931C04C2F4F706D2FC70166
:1037F0000E9497090E941D2035C0111133C0CF705F
:10380000C23091F038F4CC2361F0C130F1F40E9461
:10381000332828C0C43071F050F0C530B1F480E0D6
:103820000AC00E9403281EC00E9462281BC00E947A
:103830008F2818C085E00E94C52814C04C2F4F70F7
:103840006D2FC7010E943A060DC098E0B91631F0FD
:10385000B91640F086EF8B0D823020F40E94BC1622
:103860000E949509DD20E1F00E94722280FD18C0BF
:10387000F70112820E946C220E940A21C7010E9455
:103880005C1C0E946C22DF91CF911F910F91FF90E1
:10389000EF90DF90BF90AF909F908F900C942B2172
:1038A000DF91CF911F910F91FF90EF90DF90BF902C
:1038B000AF909F908F9008950F931F93CF93DF93B6
:1038C000EC01988189812B813C81232B31F08F3F42
:1038D00031F481E09F3F19F403C081E001C080E032
:1038E00080FD13C0CE010E947306882371F06881A9
:1038F00079818A810E9449228C010E94A7210E941D
:103900009A20B801CE010E94DA19DF91CF911F9160
:103910000F9108950E94F3220E94032380911A01BF
:1039200090911B010E9419240E949D220E94DA2777
:103930000E94B62680E090E00E941C1780E090E094
:103940000C9432170E94E0220C948A1C0E943E22A2
:10395000E92FE295EF704E2F50E0FA013297EE30EA
:10396000F105B0F4E357FF4F0C948934803F91F098
:1039700018F4803E68F40EC0843F51F40BC0803EC2
:1039800048F0813F29F406C093FB882780F9089509
:1039900080E0089581E00895CF93DF9300D000D0B8
:1039A0001F92CDB7DEB70F900F900F900F900F9032
:1039B000DF91CF910895CF93DF9300D000D000D056
:1039C000CDB7DEB726960FB6F894DEBF0FBECDBFDB
:1039D000DF91CF9108951F93CF93DF93C091B601EC
:1039E00016E08091B701C81799F0D0E01C9FF00154
:1039F0001D9FF00D1124E854FE4F408151816281DA
:103A00007381848195810E94DB1C2196C770E9CF68
:103A1000DF91CF911F9108954091E8015091E90104
:103A20006091EA017091EB018091EC019091ED01C0
:103A30000C94DB1CCF938091ED0182958F7009F07F
:103A40005FC08091EA01882309F45AC08091B601D1
:103A5000B091B7017091E801A091E9014091EB01AB
:103A60005091EC0191E07F3F09F090E0692FC6E0B2
:103A70008B1709F445C04115510521F0AF3F21F0E6
:103A800020E003C021E001C0262F90E020FD35C0DA
:103A9000C89FF001C99FF00D1124E854FE4F218109
:103AA0002A132BC02081271328C02281211125C071
:103AB000238134812417350710F421503109241B48
:103AC000350B283C3105C8F42091ED012F702061A1
:103AD0002093ED0126E0289FF001299FF00D11248D
:103AE000E354FE4F80818F708061808388EE91E087
:103AF0000E945C1CCF910C94EB1C01968770B8CF90
:103B0000CF910895AF92BF92CF92DF92EF92FF9242
:103B10000F931F93CF93DF93CDB7DEB761970FB6A7
:103B2000F894DEBF0FBECDBF8C0185E0F801DE0149
:103B30001D9601900D928A95E1F7D8014C9111964E
:103B40005C9111971296EC903091E8016091E90137
:103B50008091EB019091EC01009731F06F3F31F4CF
:103B600021E03F3F19F403C021E001C020E0B22F63
:103B7000B170BB2E20FD60C1F801C380D480A0903D
:103B8000EA01AA2009F4EEC02091ED01C816D90679
:103B900028F0D601A81BB90BCD0104C080959095E3
:103BA0008C0D9D1DFF24F394883C910580F0F12C31
:103BB000207F09F09CC07C2DD98AC88A6E2D898906
:103BC0000E94CC1C88EE91E00E945C1C2DC1822FCB
:103BD000807F09F054C0561314C0431312C0FE2C4A
:103BE000E1100FC02F7020612093ED010E940C1D89
:103BF00088EE91E00E945C1C8091ED01F8018583C4
:103C00005CC1CD2831F05F3F31F481E04F3F19F4C2
:103C100003C081E001C080E080FD03C081E08E250B
:103C200002C080E090E0F82FF170FF2E80FF1CC0F2
:103C30008091B6012091B70136E0821709F41AC1CC
:103C400090E0389FF001399FF00D1124E854FE4FA9
:103C50006181561306C06081461303C06281E6127B
:103C600003C001968770E9CFFE2CEE2009F425C130
:103C70008091ED0181608093ED01F12C1EC15613FE
:103C800009C0431307C0E11005C08091ED01F801A0
:103C90008583A4C04D875E878D859E850E94A61C66
:103CA000882379F1EE2069F12091ED01822F829530
:103CB0008F7090E0029774F08091E8019091E90193
:103CC00098878F831986DB86CA862C87CE01079654
:103CD0000E945C1C86E0F801A8EEB1E001900D9214
:103CE0008A95E1F70E941A1D0E940C1D0DC05617FF
:103CF00071F04D875E878D859E850E94A61C81117F
:103D00001AC0C8010E945C1CFF24F394D6C0431360
:103D1000F0CFE110EECF8091ED01F8018583C8016D
:103D20000E945C1C86E0E8EEF1E0DF011D928A95BE
:103D3000E9F7FA2CC2C0EE2021F32091ED01822F89
:103D400082958F7090E002972CF28091E80190911B
:103D5000E9019A8389831B82DD82CC822E83CE0186
:103D60000196B6CFC816D90628F0F601E81BF90B64
:103D7000CF0104C0809590958C0D9D1D883C9105C8
:103D800048F0F12C7C2DD98AC88A6E2D89890E9431
:103D9000CC1C4AC0FE2CEE2009F4B3CF561333C01E
:103DA000431331C02091ED0120FD24C0822F829564
:103DB0008F70482F50E041155105E1F0D80115965C
:103DC0002C9315974F30510549F08F5F982F92959E
:103DD000907F822F8F70892B15968C93C8010E943B
:103DE0005C1C86E0F801A8EEB1E001900D928A9586
:103DF000E1F73DC086E0F801A8EEB1E001900D9238
:103E00008A95E1F75AC04D875E878D859E850E9411
:103E1000A61C81115FCF8091ED0181608093ED013F
:103E2000C8010E945C1C49C0E8EEF1E086E0DF01B9
:103E30001D928A95E9F71BC0EE2009F462CF4D87E9
:103E40005E878D859E850E94A61CF82E882309F426
:103E500058CF86E0F801A8EEB1E001900D928A9566
:103E6000E1F788EE91E00E9470180E941A1D0E94EE
:103E70000C1D23C04D875E878D859E850E943E2246
:103E8000292F22952F70223028F49F7039F081114C
:103E900005C00BC0243028F49F7049F4805E883040
:103EA00020F0C8010E945C1CBF2CFB2C06C0D8016E
:103EB00015969C91907F91F7F8CF8F2D61960FB654
:103EC000F894DEBF0FBECDBFDF91CF911F910F9150
:103ED000FF90EF90DF90CF90BF90AF9008951F9329
:103EE000CF93DF93CDB7DEB72C970FB6F894DEBF34
:103EF0000FBECDBF4F83588769877A878B879C8792
:103F0000CE0107960E94821D8823D1F09F8188856B
:103F10002A853B85232B31F08F3F31F481E09F3F91
:103F200019F403C081E001C080E080FD47C04F81EB
:103F3000588569857A858B859C850E94DB1C3EC0EF
:103F400086E0FE013796DE01119601900D928A956A
:103F5000E1F7FF81E8856A857B856115710531F0A0
:103F6000EF3F31F481E0FF3F19F403C081E001C06D
:103F700080E080FD23C02091B70130E0C9010196A7
:103F8000877099274091B60150E084179507F1F1A9
:103F9000F983EA837D836C8396E0929FD001939F9F
:103FA000B00D1124A854BE4FFE01319601900D9220
:103FB0009A95E1F78093B7010E94EB1C16E080917F
:103FC000B6019091B701891771F1189FC0011124B2
:103FD00088549E4F0E94821D882329F1E091B601EA
:103FE0001E9FF0011124E854FE4F408151816281EF
:103FF0007381848195810E94DB1C8091B60190E0E1
:104000000196877099278093B601D9CF0E94A21C90
:104010001092B7011092B601E8EEF1E086E0DF0100
:104020001D928A95E9F72C960FB6F894DEBF0FBE65
:10403000CDBFDF91CF911F910895EF92FF920F9323
:104040001F93CF93DF938C01892B09F46CC0F12C63
:10405000EE24E394E8012196F8018491843740F43A
:10406000843008F051C0813081F0823019F15BC09A
:10407000853709F444C0A8F19CE7980F903708F001
:1040800052C08F770E946D1941C00E5F1F4FFE0115
:10409000849190E2980F983050F48770FE2D01C003
:1040A000FF0F8A95EAF78F2F0E94F62214C00E9414
:1040B00076182DC00E5F1F4FFE01849190E2980F7D
:1040C000983060F48770FE2D01C0FF0F8A95EAF7E3
:1040D0008F2F0E94FC220E949D2219C00E946D1900
:1040E00016C00E5F1F4FFE01C491CC2381F08FE9F3
:1040F0009FE00197F1F700C00000C150F6CF0E5FBE
:104100001F4FFE01F49003C00E9476188E018F2D80
:10411000882309F49FCFEFE9FFE03197F1F700C062
:1041200000008150F5CFDF91CF911F910F91FF904B
:10413000EF900895089508950C949B200E949C2070
:1041400060932402709325028093260290932702A5
:104150000C948A1C0C949E200F931F9300912402B0
:10416000109125022091260230912702602B712B9D
:10417000822B932B1F910F910C949E200F931F93D2
:1041800000912402109125022091260230912702ED
:1041900060237123822393231F910F910C949E20FF
:1041A0000F931F9300912402109125022091260263
:1041B0003091270260277127822793271F910F9143
:1041C0000C949E200C949B200E94E220609320027D
:1041D0007093210280932202909323020C948A1CF4
:1041E00060E070E0CB010C94E4200F931F9341E05A
:1041F00050E060E070E08A019B0104C0000F111FD5
:10420000221F331F8A95D2F7C901B8011F910F9160
:104210000C94E4200F931F9341E050E060E070E0C5
:1042200004C0440F551F661F771F8A95D2F78091EF
:10423000200290912102A0912202B09123028A01D2
:104240009B01082B192B2A2B3B2BC901B8011F916D
:104250000F910C94E4200F931F9341E050E060E035
:1042600070E004C0440F551F661F771F8A95D2F770
:104270004095509560957095809120029091210213
:10428000A0912202B09123028A019B0108231923E5
:104290002A233B23C901B8011F910F910C94E420FC
:1042A0000F931F9341E050E060E070E004C0440FC2
:1042B000551F661F771F8A95D2F780912002909133
:1042C0002102A0912202B09123028A019B010827BA
:1042D00019272A273B27C901B8011F910F910C9478
:1042E000E4200F931F93009120021091210220914E
:1042F000220230912302602B712B822B932B1F9172
:104300000F910C94E4200F931F93009120021091C1
:104310002102209122023091230260237123822303
:1043200093231F910F910C94E4200F931F930091FE
:104330002002109121022091220230912302602755
:104340007127822793271F910F910C94E4200895E1
:104350002FE0929F800D1124E82FE695E695E695D3
:10436000877051E001C0550F8A95EAF785E0E89F14
:10437000F0011124E251FE4F20E030E070E0408176
:10438000CB01022E02C0969587950A94E2F78170C0
:10439000819584278523842781932F5F3F4F253084
:1043A000310569F708952FE0929F800D1124682F41
:1043B000669566956695982F977085E0689FB00121
:1043C000112440E050E080E0FB01E40FF51FE251D2
:1043D000FE4F208130E0092E02C0369527950A94C1
:1043E000E2F721703327042E01C0220F0A94EAF766
:1043F000822B4F5F5F4F4530510531F70895CF92C3
:10440000DF92EF92FF920F931F93CF93DF938C0174
:10441000C0902002D0902102E0902202F09023026E
:104420008091240290912502A0912602B09127024A
:10443000C82AD92AEA2AFB2ACFE1D0E0D701C6014F
:104440000C2E04C0B695A795979587950A94D2F738
:1044500080FD04C0219790F780E007C0B8018C2F41
:104460000E94B5090197B1F38C2FDF91CF911F9175
:104470000F91FF90EF90DF90CF900895CF93DF934F
:10448000EC010E94FF21BE010E94B509DF91CF918E
:1044900008951F93CF93DF93EB019091B50199237A
:1044A00021F0CB010E943E2213C0882349F0CB01AA
:1044B0000E94FF21182F682FCE010E94A82104C05E
:1044C000CB010E94D321182FBE01812F0E94B50974
:1044D000DF91CF911F910895809128028595859550
:1044E00085950895809128028770089598E0899FA6
:1044F00090011124262B209328020C940A2120914C
:1045000028028095822380932802982F977069F45F
:1045100030E0482F082E000C550B2417350729F0E2
:104520008595859585950C942B2108959091280269
:10453000977081E009F480E00895E0911A01F0910C
:104540001B0180914C028083E0911A01F0911B01C4
:10455000908180914B02892B8083E0911A01F09128
:104560001B01908180914A02892B808380912902CE
:10457000882381F0E0911A01F0911B019081892B31
:10458000808380911A0190911B010E9484238111E4
:104590001092290280911A0190911B010C94C81667
:1045A00080914C02089590914C02892B80934C028B
:1045B0000895809590914C02892380934C02089530
:1045C00010924C02089580914B02089590914B02F5
:1045D000892B80934B020895809590914B028923FB
:1045E00080934B02089510924B02089590914A02D5
:1045F000892B80934A020895809590914A028923DD
:1046000080934A02089510924A02089580932902E5
:104610000895109229020895809129020895909397
:104620005B0180935A0108958295982F937344E01B
:10463000949F900111248C7C86958695282B822F3F
:104640008575880F2A7A2695822B0895CF93DF935C
:10465000D92F0E941423C82F8D2F0E9414232C2F92
:1046600030E0322F2227A901482BCA01DF91CF91D8
:1046700008956DEE7EEF80E090E00E94DB3460E014
:1046800082E090E00E94BD3460E083E090E00E9410
:10469000BD3460E084E090E00E94BD3460E085E0DD
:1046A00090E00E94BD3460E086E090E00E94BD345E
:1046B00040E050E0BA0188E090E00C94CF3480E014
:1046C00090E00E94B73421E08D3E9E4F09F020E03B
:1046D000822F089582E090E00C94A93483E090E06A
:1046E0000C94A93484E090E00C94A934682F84E001
:1046F00090E00C94BD3486E090E00C94A934682FCF
:1047000086E090E00C94BD34FC0131969C01205E63
:104710003F4F80E0919191118F5FE217F307D1F73E
:1047200008959C01FC0132969FEF80E0419146176D
:1047300089F09F3F19F4411101C0982F8F5F8E318E
:10474000A9F79F3F39F0F901E90FF11D97FDFA959F
:104750006283089508959C01225E3F4FFC014281CF
:10476000461301C01282019682179307B9F7089584
:10477000262F2695269526952F3171F0FC01E20F04
:10478000F11D677021E030E001C0220F6A95EAF761
:104790008181282B2183089580914D0280FF0CC0D8
:1047A0001F926F9381E397E09F938F930E94EF0591
:1047B0000F900F900F900F900895262F2695269515
:1047C00026952F3179F0FC01E20FF11D677021E091
:1047D00030E001C0220F6A95EAF7209581812823F5
:1047E0002183089580914D0280FF0CC01F926F932A
:1047F00083E197E09F938F930E94EF050F900F90B6
:104800000F900F90089520912C01222329F02091E0
:10481000B90227FD0C94B8230C94912320912C010C
:10482000222329F02091B90227FD0C94DD230C945A
:10483000AB23FC01319680961192E817F907E1F756
:10484000089508950C9421240C942124CF930E9460
:1048500024240E94D10C0E942224C0E08C2F0E94AC
:10486000880D892B29F4CF5FC530C1F780E001C0E6
:1048700081E0CF9108950C9421240C943B248091E5
:10488000C002843061F110924E0220E488E190E091
:104890000FB6F894A895809360000FBE2093600037
:1048A00080E00E94260980E00E9495090E943D2434
:1048B00083B7817F846083BF83B7816083BF78942F
:1048C000889583B78E7F83BF0FB6F894A8958091A3
:1048D0006000886180936000109260000FBE0895B0
:1048E0000C9421240E94A21C0E94E6270E94BC1660
:1048F0000E9495090C9470241F920F920FB60F928C
:1049000011248F939F93AF93BF9380914E02811197
:1049100013C08091B5029091B602A091B702B091F8
:10492000B8024196A11DB11D8093B5029093B602C5
:10493000A093B702B093B802BF91AF919F918F91AE
:104940000F900FBE0F901F90189582E084BD93E0EA
:1049500095BD9AEF97BD80936E0008952FB7F89498
:104960008091B5029091B602A091B702B091B802C1
:104970002FBF0895CF92DF92EF92FF920F931F9374
:104980002FB7F8944091B5025091B6026091B702EA
:104990007091B8022FBF6A017B01EE24FF248C01C5
:1049A00020E030E0C016D106E206F30610F44150D4
:1049B00051099A01281B390BC9011F910F91FF90D2
:1049C000EF90DF90CF90089578941F920F920FB6DA
:1049D0000F9211248F939F93AF93BF938091B50251
:1049E0009091B602A091B702B091B8020196A11DB4
:1049F000B11D8093B5029093B602A093B702B09315
:104A0000B802BF91AF919F918F910F900FBE0F9001
:104A10001F90189581E08093E00080E28093D80099
:104A20001092C9008FE19EE40197F1F700C00000E9
:104A300087E090EBDC018093C9029093CA02A093B7
:104A4000CB02B093CC029CE088E10FB6F894A89515
:104A5000809360000FBE90936000FFCF0E945F23A1
:104A6000811102C00E9439230E946A2380934D0263
:104A70000E94722390E09093BA028093B9020E9440
:104A80006E23682F70E080E090E00C94AA20809163
:104A9000510280FF0BC060911F0185E0689FB0014B
:104AA000112475956795759567952BC081FF09C091
:104AB00060911F0185E0689FB0011124759567958D
:104AC00020C082FF07C060911F0185E0689FB00190
:104AD000112417C0909152029923D1F060911E01C8
:104AE000961788F720911F0185E0289F90011124D7
:104AF000929FA001939F500D112470E0CA010E9463
:104B000053346038710540F46115710519F406C01D
:104B100065E070E0862F08958FE7089581E008959D
:104B20008091510280FF08C060911D0170E0759571
:104B300067957595679521C081FF06C060911D013D
:104B400070E07595679519C082FF04C060911D01E2
:104B500070E010C090915202992399F060911C016D
:104B60009617A0F780911D01899FC001112470E064
:104B70000E9453346038710540F46115710519F4D1
:104B800006C061E070E0862F08958FE7089581E008
:104B90000895803F21F40E944725819504C0813FFC
:104BA00029F40E944725809355020895823F21F4FD
:104BB0000E944725819504C0833F29F40E94472520
:104BC000809354020895893F19F40E94902505C0EE
:104BD0008A3F31F40E949025819580935602089572
:104BE0008B3F21F40E949025819504C08C3F29F4CD
:104BF0000E949025809357020895843F21F480916C
:104C00005302816017C0853F21F480915302826076
:104C100011C0863F21F48091530284600BC0873F0E
:104C200021F480915302886005C0883F31F480915F
:104C3000530280618093530208958D3F21F4809147
:104C4000510281600BC08E3F21F48091510282603D
:104C500005C08F3F29F480915102846080935102F6
:104C60000895803F39F48091550287FF6CC01092FF
:104C7000550269C0813F29F4809155021816BCF392
:104C800062C090915402823F29F497FF5CC0109259
:104C9000540259C0833F19F41916CCF354C0893F0C
:104CA00041F48091560218160CF04DC01092560235
:104CB0004AC08A3F29F48091560287FF44C0F6CF4C
:104CC0008B3F39F48091570287FF3DC01092570205
:104CD0003AC08C3F29F4809157021816BCF333C0B8
:104CE000843F21F4809153028E7F17C0853F21F4C9
:104CF000809153028D7F11C0863F21F48091530231
:104D00008B7F0BC0873F21F480915302877F05C0C2
:104D1000883F31F4809153028F7E8093530213C0F9
:104D20008D3F21F4809151028E7F0BC08E3F21F484
:104D3000809151028D7F05C08F3F29F480915102EF
:104D40008B7F809351028091540281110EC080911B
:104D5000550281110AC080915602811106C08091CE
:104D60005702811102C010925202089580914D02A3
:104D700083FF7EC086E797E00E945605809153022C
:104D80001F928F9381E797E09F938F930E94EF0587
:104D90008FE697E00E94560580915402282F082E36
:104DA000000C330B3F938F938CE697E09F938F9388
:104DB0000E94EF058AE697E00E9456058091550211
:104DC000282F082E000C330B3F938F9387E697E034
:104DD0009F938F930E94EF0585E697E00E9456050A
:104DE00080915602282F082E000C330B3F938F938F
:104DF00082E697E09F938F930E94EF0580E697E00D
:104E00000E94560580915702282F082E000C330B64
:104E10003F938F938DE597E09F938F930E94EF05CB
:104E20008AE597E00E945605809152021F928F9367
:104E300087E597E09F938F930E94EF0585E597E0C4
:104E40000E945605809151021F928F9382E597E050
:104E50009F938F930E94EF058FE497E00E94560581
:104E60008DB79EB74C960FB6F8949EBF0FBE8DBF00
:104E700083E592E00E9411170E94AE2490935002A5
:104E800080934F0208951F93CF93DF9380914F0239
:104E9000909150020E94BA24AC0190915202992341
:104EA00021F02091200130E006C0209121018AE00C
:104EB000289F900111244217530708F477C080916E
:104EC0005402C0915502D09156021091570281119F
:104ED00007C0C11167C0D11165C0111163C066C0A0
:104EE0009F3F19F09F5F90935202181624F40E947E
:104EF0004725809354028091540287FF05C00E9489
:104F000047258195809354021C1624F40E9447255E
:104F1000809355028091550287FF05C00E94472566
:104F2000819580935502309154023323C1F0209132
:104F300055022223A1F045EB3403C0011124892F2F
:104F4000911101C081E08093540235EB2303C0012D
:104F50001124892F911101C081E0809355021D1603
:104F600024F40E949025809356028091560287FF78
:104F700005C00E949025819580935602111624F455
:104F80000E949025809357028091570287FF05C0A9
:104F90000E949025819580935702DF91CF911F91B8
:104FA0000C94B6269F3F09F09DCFAECFDF91CF91F5
:104FB0001F910895E3E5F2E085E0DF011D928A95F7
:104FC000E9F7109252021092510208950E945F2355
:104FD000811102C00E9439230E947B238093BB026F
:104FE000282F269530E02630310524F081708A6024
:104FF0008093BB028091BB0280FF02C0869501C0F6
:1050000080E00C9426092091BB02822F8695482FC0
:1050100050E04530510544F48F5F982F990F822F4F
:105020008170892B8093BB028091BB028160809349
:10503000BB020E947F2380914D0280FF0FC08091B0
:10504000BB0286951F928F938BED97E09F938F9372
:105050000E94EF050F900F900F900F908091BB0270
:1050600086950C9426098091BB02982F969591F015
:105070009158990F8170892B8093BB028E7F91E0AC
:1050800009F490E08091BB0290FB80F98093BB0211
:105090000E947F2380914D0280FF0FC08091BB0250
:1050A00086951F928F9383EC97E09F938F930E9436
:1050B000EF050F900F900F900F908091BB02869597
:1050C0000C9426098091BB02982F909590FB80F953
:1050D0008093BB02813019F483E08093BB028091FE
:1050E000BB020E947F2380914D0280FF0FC0809100
:1050F000BB0281701F928F938DEA97E09F938F93ED
:105100000E94EF050F900F900F900F908091BB02BF
:1051100080FF02C0869501C080E00C942609909122
:10512000BB02892F86958F5F8F779170863028F428
:10513000880F892B8093BB0202C09093BB028091A1
:10514000BB028E7F91E009F490E08091BB0290FB5E
:1051500080F98093BB020E947F2380914D0280FFE3
:105160000FC08091BB0286951F928F9389E997E0CB
:105170009F938F930E94EF050F900F900F900F90C9
:105180008091BB0286950C942609863008F085E054
:10519000880F9091BB029170892B8093BB028E7F08
:1051A00091E009F490E08091BB0290FB80F980933C
:1051B000BB020E947F238091BB0286950C94260936
:1051C00080917B0208959FB7F89410925A029FBF76
:1051D0009091C002943009F057C09091E9009F70FF
:1051E0003091EC00232F217030FD20E8922B24E039
:1051F0002093E9002091EB0020FF43C02091EE00B6
:1052000027FF3FC020915802222321F02091E8007F
:1052100025FF37C01092580226E03091E80035FD96
:1052200015C03091C002343061F53091EB0035FD8E
:1052300028C0215021F481E08093580222C0EFE978
:10524000FFE03197F1F700C00000E7CF8093F10055
:105250008091E80085FD0AC08091E80080FFFCCFC6
:105260008091E8008E778093E80006C08FB7F894AD
:1052700021E020935A028FBF9F709093E90080E055
:1052800008959F709093E9008FEF08950F931F93F7
:10529000CF93DF9300D01F92CDB7DEB78C010E9471
:1052A000202C823011F0843019F583E089831B8330
:1052B0000A838093E9008FEF9091E800815095FD7B
:1052C00006C095ED9A95F1F700008111F5CF809118
:1052D000E80085FF0DC040E050E063E070E0CE01E3
:1052E00001960E943D2C8091E8008E778093E80023
:1052F0000F900F900F90DF91CF911F910F91089514
:10530000CF93DF9300D01F92CDB7DEB72091C002BC
:10531000243031F522E02983805891099B838A83C8
:1053200083E08093E9008FEF9091E800815095FD34
:1053300006C095ED9A95F1F700008111F5CF8091A7
:10534000E80085FF0DC040E050E063E070E0CE0172
:1053500001960E943D2C8091E8008E778093E800B2
:105360000F900F900F90DF91CF910895CF93DF931F
:10537000EC010E94202C823011F08430F9F482E09C
:105380008093E9008FEF9091E800815095FD06C071
:1053900095ED9A95F1F700008111F5CF8091E80025
:1053A00085FF0CC040E050E065E070E0CE010E9457
:1053B0003D2C8091E8008E778093E800DF91CF91BB
:1053C0000895CF93DF93EC010E94202C823019F0D6
:1053D000843009F047C080912C018823E1F080914E
:1053E000B90287FF18C085E08093E9008FEF9091A4
:1053F000E800815095FD06C095E19A95F1F700000F
:105400008111F5CF8091E80085FF2CC040E050E08D
:1054100060E270E017C081E08093E9008FEF909127
:10542000E800815095FD06C095ED9A95F1F70000D2
:105430008111F5CF8091E80085FF14C040E050E075
:1054400068E070E0CE010E943D2C8091E8008E77EC
:105450008093E80080E2FE01ABE5B2E001900D929E
:105460008A95E1F7DF91CF91089588E198E00E9455
:1054700056058091BF02811109C00E94CE2D0E9465
:105480002B2E8091E20084608093E200089584E1F5
:1054900098E00E9456051092BF02089580E198E0BE
:1054A0000C9456058CE098E00C94560588E098E042
:1054B0000E9456050C947224209159022F5F822F6E
:1054C00062E30E943334992319F02093590208951E
:1054D0001092590280915A02882371F18091C00282
:1054E000843041F58091E9008F702091EC00922F7B
:1054F000917020FD90E8892B94E09093E9009091C1
:10550000EB0090FF14C09091EE0097FF10C09091B7
:10551000E80095FF03C01092F100F9CF9091E800E8
:1055200090FF05C09091E8009E779093E8008F70FF
:105530008093E90010925A02089542E061EC81E004
:105540000E94472D42E061EC82E00E94472D42E03C
:1055500061EC83E00E94472D42E261EC84E00E940E
:10556000472D42E261EC85E00C94472D8091C20208
:10557000833009F455C030F4813071F0823009F481
:105580008EC008958A3009F47AC08B3009F460C067
:10559000893009F09CC020C08091C102813A09F095
:1055A00096C08091E800877F8093E8008091C502D3
:1055B0009091C602892B21F460E28BE592E003C052
:1055C00060E080E090E070E00E94882C8091E8002C
:1055D0008B778093E80008958091C102813209F0B1
:1055E00076C08091C5029091C602009719F0049789
:1055F00009F06DC08091E800877F8093E80080917A
:10560000E80082FD05C08091C0028111F8CF5FC023
:105610008091F10080937B028091E8008B7753C0EA
:105620008091C102813A09F052C08091C5029091E7
:10563000C602892B09F04BC08091E800877F8093D8
:10564000E8008091E80080FFFCCF80912C0136C0FB
:105650008091C1028132D9F58091C5029091C60234
:10566000892BA9F58091E800877F8093E8000E944C
:105670007C2D8091C30280932C010C94A21C8091FC
:10568000C102813221F58091E800877F8093E80094
:105690000E947C2D8091C40280937C0208958091A9
:1056A000C102813AA1F48091E800877F8093E800ED
:1056B0008091E80080FFFCCF80917C028093F10014
:1056C0008091E8008E778093E8000C947C2D0895FB
:1056D00084B7877F84BF0FB6F894A8958091600047
:1056E000886180936000109260000FBE80E8809314
:1056F0006100109261000E9449170E94CE2D0E9405
:105700002B2E8091E20084608093E20083EE98E289
:105710000E940F2378940E94BF300E944D1782E2AE
:1057200091E00E94B71687EF97E00E94560580919E
:10573000C002853089F483EF97E00E9456050E94ED
:105740003F248091BE02882391F30E94262488235F
:1057500071F30E94272CEBCF0E9485170E94F21450
:10576000E6CF0C94B32B292F332723303105C9F012
:1057700060F42130310581F02230310509F047C055
:105780008DE890E024E438E046C02132310511F183
:105790002232310561F13BC082E190E021ED38E039
:1057A0003AC099278130910561F040F0823091052F
:1057B00059F0039761F5ECE1F8E008C0E0E4F8E0A7
:1057C00005C0EEE2F8E002C0E2E2F8E0849190E089
:1057D0009F0121C065307105D0F4660F771FFB0172
:1057E000E05BFE4F2081318189E090E014C065309C
:1057F000710568F4FB01EE0FFF1FEA5BFE4F20818D
:105800003181FB01EF5BFE4F808190E004C080E0BE
:1058100090E020E030E0FA0131832083089508957C
:10582000CF93C82F0E940F2CC0937D02CF91089573
:105830008091C002843011F081E0089582E00895E3
:1058400080917D02811102C00C94182C089580E192
:1058500089BD82E189BD09B400FEFDCF8091D800E9
:105860008F7D8093D8008091E00082608093E0007B
:105870008091E00081FDFCCF0895CF92DF92EF92FE
:10588000FF920F931F93CF93DF93EC018B017A016B
:105890000E949B2D811133C0E114F10439F0F7010E
:1058A00080819181081B190BC80FD91FC12CD12CE5
:1058B0000115110519F18091E80085FD16C0809150
:1058C000E8008E778093E800E114F10449F0F701D5
:1058D00080819181C80ED91ED182C08285E00FC01F
:1058E0000E949B2D882321F30AC089918093F100A7
:1058F00001501109FFEFCF1ADF0ADACF80E0DF9104
:10590000CF911F910F91FF90EF90DF90CF9008956E
:105910002091C7023091C8022617370748F0611559
:10592000710539F42091E8002E772093E80001C03A
:10593000B901FC0120E06115710579F18091C00287
:105940008823F1F18530F1F18091E80083FD3CC0BE
:105950008091E80082FD2EC08091E80080FFEBCFAF
:105960002091F3008091F20090E0922B6115710577
:1059700051F08830910538F421912093F100615065
:1059800071090196F3CF21E0089709F020E080919A
:10599000E8008E778093E800CECF2111CFCF0AC0E8
:1059A0008091C002882361F0853061F08091E80029
:1059B00083FD0AC08091E80082FFF2CF80E0089565
:1059C00082E0089583E0089581E008952091C70260
:1059D0003091C8022617370748F06115710539F470
:1059E0002091E8002E772093E80001C0B901FC0166
:1059F00020E06115710591F18091C002882309F4BE
:105A000040C0853009F43FC08091E80083FD3DC06F
:105A10008091E80082FD2FC08091E80080FFE9CFEF
:105A20002091F3008091F20090E0922B61157105B6
:105A300059F08830910540F424912093F10031967B
:105A4000615071090196F2CF21E0089709F020E03A
:105A50008091E8008E778093E800CBCF2111CCCFE6
:105A60000AC08091C002882361F0853061F0809186
:105A7000E80083FD0AC08091E80082FFF2CF80E059
:105A8000089582E0089583E0089581E00895982FB5
:105A9000973068F59093E900981739F07091EC0011
:105AA0002091ED005091F00003C0242F762F50E09C
:105AB00021FD02C09F5FECCF3091EB003E7F309321
:105AC000EB003091ED003D7F3093ED003091EB0025
:105AD00031603093EB007093EC002093ED00509315
